:100000000C9454060C947C060C947C060C94A91D4C
:100010000C94A91D0C94A91D0C947C060C947C06D0
:100020000C947C060C947C060C947C060C947C0648
:100030000C947C060C947C060C947C060C947C0638
:100040000C94872C0C947C060C94A92F0C94DB2F19
:100050000C947C060C947C060C947C060C947C0618
:100060000C947C060C947C060A0D5265626F6F74CA
:10007000696E6720576946692E2E2E000A0D52655B
:10008000626F6F74204D6963726F566965772026C1
:10009000205769466920746F20736574206E6577F8
:1000A00020706F72742E00494E434F4D494E470ADF
:1000B00043414C4C00434F4E4E454354494E47201C
:1000C000544F2053595354454D2E00434F4E4E45E7
:1000D000435400434F4E4E45435420333834303060
:1000E00000434F4E4E4543542031393230300043A7
:1000F0004F4E4E454354203936303000434F4E4E1C
:10010000454354203438303000434F4E4E4543541D
:10011000203234303000434F4E4E4543542031326C
:10012000303000434F4E4E4543540052494E470035
:100130004552524F52004F4B004175746F737461BA
:1001400072743A20003A004E4F20434152524945C2
:1001500052004F4B004F4B004F4B004F4B000D0ACE
:10016000507265737320616E79206B657920746FAE
:100170002063616E63656C2E2E2E004175746F2DA9
:10018000636F6E6E656374696E6720746F3A0D0AF3
:1001900000576966693A256C640A0A4336343A2086
:1001A000256C6400576966693A256C640A0A43360F
:1001B000343A20256C640A0A5254533A20256C6460
:1001C000002A2A2A205465726D696E616C204D6F79
:1001D00064652028446562756729202A2A2A004E12
:1001E0004F20434152524945520042555359004312
:1001F0006F6E6E656374204661696C6564210043AF
:100200006F6E6E656374656420746F202573004E95
:100210004F2043415252494552004E4F20444941DC
:100220004C544F4E4500436F756C64206E6F7420C4
:100230007265736F6C766520444E532E2020436F99
:100240006E6E656374204661696C656421000D0AF9
:10025000436F6E6E656374696E6720746F202573DB
:1002600000712D6C696E6B2E6E65740035353531FD
:1002700032313300716C696E6B2E6C796F6E6C610C
:1002800062732E6F7267003535353132313200536B
:100290005349440A0A257300495020416464726539
:1002A0007373200A2573004261756420526174657E
:1002B0000A0A2575004669726D776172650A0A251A
:1002C0007300536176656420696E69743A2020007A
:1002D00041544525645125645625642643256458B8
:1002E0002564264B256453303D256453323D2564F7
:1002F0000043757272656E7420696E69743A0041CC
:1003000054452564512564562564264325645825A3
:1003100064264B256453303D256453323D256400EB
:100320004C697374656E20706F72743A2000466970
:10033000726D776172653A202020200057692D4642
:100340006920535349443A202000495020416464B5
:10035000726573733A2020004D41432041646472FA
:100360006573733A20004153434949204D6F6465DA
:10037000000D0A436F6D6D6F646F72652057692DB4
:100380004669204D6F64656D20486179657320452D
:100390006D756C6174696F6E0057692D46692046F2
:1003A00061696C6564210057692D4669204F4B21B6
:1003B0000057692D466920496E69742E2E2E00253E
:1003C0006C6400426175640A446574656374696FA6
:1003D0006E00050800FF0C4B00000000003E5B4F64
:1003E0005B3E3E6B4F6B3E1C3E7C3E1C183C7E3C95
:1003F000181C577D571C1C5E7F5E1C00183C1800A3
:10040000FFE7C3E7FF0018241800FFE7DBE7FF3032
:10041000483A060E2629792926407F050507407FA0
:1004200005253F5A3CE73C5A7F3E1C1C08081C1C13
:100430003E7F14227F22145F5F005F5F06097F0109
:100440007F006689956A606060606094A2FFA294F4
:1004500008047E040810207E201008082A1C0808C2
:100460001C2A08081E101010100C1E0C1E0C303810
:100470003E3830060E3E0E06000000000000005F11
:1004800000000007000700147F147F14242A7F2A2D
:1004900012231308646236495620500008070300EF
:1004A000001C2241000041221C002A1C7F1C2A083B
:1004B000083E08080080703000080808080800009E
:1004C00060600020100804023E5149453E00427F12
:1004D000400072494949462141494D331814127F61
:1004E0001027454545393C4A494931412111090701
:1004F0003649494936464949291E00001400000082
:100500004034000000081422411414141414004153
:1005100022140802015909063E415D594E7C121110
:10052000127C7F494949363E414141227F41414148
:100530003E7F494949417F090909013E41415173C3
:100540007F0808087F00417F41002040413F017F34
:10055000081422417F404040407F021C027F7F04FC
:1005600008107F3E4141413E7F090909063E415145
:10057000215E7F09192946264949493203017F0135
:10058000033F4040403F1F2040201F3F4038403F36
:10059000631408146303047804036159494D43004C
:1005A0007F4141410204081020004141417F040283
:1005B000010204404040404000030708002054541A
:1005C00078407F28444438384444442838444428F8
:1005D0007F385454541800087E090218A4A49C784B
:1005E0007F0804047800447D40002040403D007FA7
:1005F0001028440000417F40007C047804787C0887
:100600000404783844444438FC182424181824245A
:1006100018FC7C08040408485454542404043F443F
:10062000243C4040207C1C2040201C3C4030403C6E
:1006300044281028444C9090907C4464544C4400CE
:100640000836410000007700000041360800020132
:100650000204023C2623263C1EA1A161123A40401E
:10066000207A38545455592155557941215454789C
:1006700041215554784020545579400C1E52721235
:1006800039555555593954545459395554545800BD
:1006900000457C410002457D420001457C40F02937
:1006A0002429F0F0282528F07C5455450020545486
:1006B0007C547C0A097F49324949493232484848CA
:1006C00032324A4848303A4141217A3A4240207811
:1006D000009DA0A07D39444444393D4040403D3C0C
:1006E00024FF2424487E4943662B2FFC2F2BFF092F
:1006F00029F620C0887E0903205454794100004423
:100700007D413048484A32384040227A007A0A0A0D
:10071000727D0D19317D2629292F28262929292680
:1007200030484D4020380808080808080808382FC5
:1007300010C8ACBA2F102834FA00007B000008144F
:100740002A142222142A1408AA005500AAAA55AA7B
:1007500055AA000000FF00101010FF00141414FF31
:10076000001010FF00FF1010F010F0141414FC0023
:100770001414F700FF0000FF00FF1414F404FC142D
:100780001417101F10101F101F1414141F00101026
:1007900010F0000000001F101010101F101010109B
:1007A000F010000000FF101010101010101010FFBB
:1007B00010000000FF140000FF00FF00001F1017D2
:1007C0000000FC04F414141710171414F404F400BB
:1007D00000FF00F714141414141414F700F7141481
:1007E00014171410101F101F141414F4141010F008
:1007F00010F000001F101F0000001F14000000FC7C
:10080000140000F010F01010FF10FF141414FF1467
:100810001010101F00000000F010FFFFFFFFFFF09E
:10082000F0F0F0F0FFFFFF0000000000FFFF0F0FEF
:100830000F0F0F38444438447C2A2A3E147E0202AB
:100840000606027E027E0263554941633844443CF9
:1008500004407E201E2006027E020299A5E7A5998B
:100860001C2A492A1C4C7201724C304A4D4D3030C2
:1008700048784830BC625A463D3E494949007E01AD
:1008800001017E2A2A2A2A2A44445F444440514ACC
:10089000444040444A51400000FF0103E080FF0013
:1008A0000008086B6B083612362436060F090F064F
:1008B000000018180000001010003040FF01010077
:1008C0001F01011E00191D1712003C3C3C3C00009A
:1008D000000000636C6F73653A206661696C656443
:1008E0002C206E6F202A434C4F532A002A434C4F32
:1008F000532A00636C6F73650D00636C6F73653A08
:10090000206661696C65642C206E6F202A434C4F11
:10091000532A002A434C4F532A00636C6F73650DB2
:10092000004F50454E2A00302E302E302E30004FD2
:1009300050454E2A000D006F70656E20007365747F
:1009400020752069006C656176650D0047573D0094
:100950000D006A6F696E20004173736F6369617483
:10096000656421004641494C454400736574207715
:100970006C616E20706872617365007365742077B6
:100980006C616E206B65790073657420776C616EA5
:1009900020737369640073657420776C616E2068DE
:1009A0006964652031007365742075617274206D0F
:1009B0006F64650073657420697020666C6167738D
:1009C000007365742069702070726F746F636F6C50
:1009D00000736574206970206468637000736574C7
:1009E0002069702072656D6F74650073657420698D
:1009F0007020686F73740073657420697020686F6D
:100A0000737400736574206970206C6F63616C701F
:100A10006F72740073657420776C616E206A6F6901
:100A20006E002A5265626F6F742A007265626F6F82
:100A3000740D0053746F72696E6700736176650D93
:100A4000003C74696D656F75743E00414F4B0D0A33
:100A5000004552523A2000534552564552004341F8
:100A6000434845004155544F4950004F4E004F46B2
:100A700046006C6F6F6B7570200047573D000D008E
:100A8000736C6565700D00736574207379732077DE
:100A9000616B650073686F7720630D00455849549A
:100AA0000D0A00657869740D00434D440D0A002459
:100AB000242400434D440D0A00242424002A4F50CE
:100AC000454E2A002A434C4F532A00736574206315
:100AD0006F6D6D2072656D6F746520300073657485
:100AE00020737973207072696E746C766C2030009C
:100AF0007365742075206D2031005265706C6163E0
:100B0000653D005478506F7765723D0052617465A1
:100B10003D004A6F696E3D005265626F6F743D0023
:100B200050726F62653D00426561636F6E3D0067A4
:100B30006574206164686F630D0050524F544F3DDF
:100B400000464C4147533D307800525353493D28AD
:100B50002D0073686F7720727373690D00466C7592
:100B6000736853697A653D004D61746368436861D9
:100B7000723D00466C75736854696D65723D00671F
:100B8000657420636F6D6D0D004D6F64653D00529F
:100B900054433D0073686F77207420740D004164E6
:100BA00064726573733D0067657420646E730D0035
:100BB00054696D653D00557054696D653D007368FD
:100BC0006F772074696D650D005A6F6E653D006723
:100BD00065742074696D650D00426175647261749D
:100BE000653D0067657420750D0044657669636531
:100BF00049643D00676574206F70740D005353495C
:100C0000443D0067657420776C616E0D004D616333
:100C100020416464723D00676574206D61630D005E
:100C2000444843503D00484F53543D0047573D0012
:100C30004E4D3D0049503D006765742069700D00C0
:100C4000000000080002010000030407000000008B
:100C50000000000001020408102040800102040886
:100C600010200102040810200404040404040404F5
:100C70000202020202020303030303030000000056
:100C800023002600290000000000250028002B007A
:100C900000000000240027002A009D0CAB1C712CD2
:100CA0007C2C01308A30D20C11241FBECFEFD8E04B
:100CB000DEBFCDBF13E0A0E0B1E0E2E6F4E702C0A2
:100CC00005900D92A43EB107D9F726E0A4EEB3E05B
:100CD00001C01D92AC34B207E1F71CE0C6EADCE0CB
:100CE00004C02297FE010E943D34CA39D107C9F7DA
:100CF0000E94C6170C94243A0C940000CF92DF9205
:100D0000EF92FF920F931F93E82FF92F05C0015028
:100D100011092109310961F1908196239417B9F3E2
:100D200005C0015011092109310911F19081962363
:100D30009413F7CFC12CD12CE12CF12C0AC08FEFEA
:100D4000C81AD80AE80AF80A0C151D052E053F0531
:100D500079F080818623841791F36C2D7D2D8E2D63
:100D60009F2D1F910F91FF90EF90DF90CF900895EE
:100D700060E070E080E090E01F910F91FF90EF90B5
:100D8000DF90CF9008950C942E39359907C080914B
:100D9000B0008F7D8093B0005B9AF7CF8091B00058
:100DA0008F7D8093B0005B9808954A9B02C0419864
:100DB000FCCF419A0895CF93DF93EC0160E081E28C
:100DC00095E00E94F31B40E060E081E295E00E9424
:100DD000F519BE0181E295E00E94273181E295E09C
:100DE000DF91CF910C94021CCF93DF93EC0160E074
:100DF00081E295E00E94F31B40E060E081E295E033
:100E00000E94F519BE0181E295E00E94393181E22C
:100E100095E0DF91CF910C94021CCF93DF9300D02B
:100E200000D000D0CDB7DEB72091E403222399F0A3
:100E3000FC0160817181CE0101960E94D219BE0130
:100E40006F5F7F4F8CEF94E00E94FA30CE010196E5
:100E50000E94103205C0BC018CEF94E00E94FA3071
:100E600026960FB6F894DEBF0FBECDBFDF91CF91AF
:100E70000895CF93DF9300D000D000D0CDB7DEB778
:100E8000BC01CE0101960E940233CE0101960E9460
:100E90000D07CE0101960E9410328CEF94E00E9463
:100EA000113126960FB6F894DEBF0FBECDBFDF918D
:100EB000CF9108950F931F93CF93DF9300D000D06D
:100EC00000D0CDB7DEB78C01BC01CE0101960E94E7
:100ED0000233CE0101960E943907CE0101960E948D
:100EE00010324AE060E2C8010E94C333B801CE016B
:100EF00001960E940233CE0101960E94DB06CE01CC
:100F000001960E94103226960FB6F894DEBF0FBEEF
:100F1000CDBFDF91CF911F910F9108958CEF94E099
:100F20000C941131CF93DF93CDB7DEB767970FB62F
:100F3000F894DEBF0FBECDBF0E948E078091E40300
:100F4000882389F087E1E2E9F2E0DE011196019061
:100F50000D928A95E1F7BE016F5F7F4F8CEF94E0B1
:100F60000E94083106C066E673E08CEF94E00E94B0
:100F7000D7300E948E0767960FB6F894DEBF0FBE7B
:100F8000CDBFDF91CF910895883041F0843131F0A9
:100F900091E08F3709F090E0892F089581E008955E
:100FA0009F92AF92BF92CF92DF92EF92FF920F93F8
:100FB0001F93CF93DF93CDB7DEB7CA56D1090FB6D3
:100FC000F894DEBF0FBECDBFB82E0E948E0744E15D
:100FD00050E0BE016F5A7F4F81EA94E00E941C27C7
:100FE00044E150E0BE016F5A7F4F81EA94E00E94D5
:100FF0001C276E018DE3C80ED11C44E150E0B60100
:1010000081EA94E00E94C6267E0199E2E90EF11C75
:1010100044E150E0B70181EA94E00E94222781EA8E
:1010200094E00E94E4269093E6038093E50368E54C
:1010300073E08E010F5F1F4FC8010E943833C80153
:101040000E940D07C8010E941032BE016F5A7F4FE7
:10105000C8010E947E32C8010E943907C8010E945F
:1010600010326AE473E0C8010E943833C8010E945C
:101070000D07C8010E941032B601C8010E947E32DD
:10108000C8010E943907C8010E9410326CE373E066
:10109000C8010E943833C8010E940D07C8010E9490
:1010A0001032B701C8010E947E32C8010E94390780
:1010B000C8010E9410326EE273E0C8010E9438330A
:1010C000C8010E940D07C8010E9410326BEA72E04D
:1010D000C8010E947E32C8010E943907C8010E94DF
:1010E000103260E273E0C8010E943833C8010E94E8
:1010F0000D07C8010E9410326091E5037091E6036C
:101100004AE050E08CEF94E00E94EE318CEF94E0E6
:101110000E941131B110B3C020910601822F99278E
:1011200087FD90959F932F9380918E041F928F93AC
:101130008091E9031F928F9380918D041F928F936A
:101140008091E7031F928F93809107011F928F93E5
:1011500080918F041F928F93809108011F928F932B
:101160008FEF92E09F938F931F930F930E943A37D4
:1011700061EF72E0CE018B599F4F0E943833CE0150
:101180008B599F4F0E940D07CE018B599F4F0E9494
:101190001032B801CE018B599F4F0E947E32CE0192
:1011A0008B599F4F0E943907CE018B599F4F0E9448
:1011B00010328FE090E00E94C306982E8EE090E0FF
:1011C0000E94C306A82E8BE090E00E94C306B82EB2
:1011D00082E190E00E94C306C82E81E190E00E9467
:1011E000C306D82E8CE090E00E94C306E82E8DE066
:1011F00090E00E94C306F82E8AE090E00E94C306A9
:101200001F929F921F92AF921F92BF921F92CF92F6
:101210001F92DF921F92EF921F92FF921F928F9365
:1012200080ED92E09F938F931F930F930E943A3724
:101230000FB6F894DEBF0FBECDBF62EC72E0CE01F8
:101240008B599F4F0E943833CE018B599F4F0E947C
:101250000D07CE018B599F4F0E941032B801CE016D
:101260008B599F4F0E947E32CE018B599F4F0E9417
:101270003907CE018B599F4F0E9410328BC08BEAE9
:1012800092E09F938F9385EB92E09F938F931F93B0
:101290000F930E943A37B801CE018B599F4F0E949D
:1012A0007E32CE018B599F4F0E94DB06CE018B59B7
:1012B0009F4F0E94103268EE73E080E090E00E9441
:1012C000002D80910F018F9380910E018F9387EAFB
:1012D00092E09F938F931F930F930E943A37B80128
:1012E000CE018B599F4F0E947E32CE018B599F4F6A
:1012F0000E94DB06CE018B599F4F0E94103268EE90
:1013000073E080E090E00E94002DDF92CF9288E9A8
:1013100092E09F938F931F930F930E943A37B801E7
:10132000CE018B599F4F0E947E32CE018B599F4F29
:101330000E94DB06CE018B599F4F0E94103268EE4F
:1013400073E080E090E00E94002DFF92EF928FE822
:1013500092E09F938F931F930F930E943A37B801A7
:10136000CE018B599F4F0E947E32CE018B599F4FE9
:101370000E94DB06CE018B599F4F0E94103268EE0F
:1013800073E080E090E00E94002D0FB6F894DEBF7D
:101390000FBECDBFC659DF4F0FB6F894DEBF0FBEEC
:1013A000CDBFDF91CF911F910F91FF90EF90DF9014
:1013B000CF90BF90AF909F900895CF93DF93EC01B3
:1013C000E881F9810480F581E02DCE010995892B12
:1013D000B9F3E881F9810680F781E02DCE01DF9134
:1013E000CF9109948F929F92AF92BF92CF92DF924A
:1013F000EF92FF92CF93DF93EC014B010E94D12C2F
:101400006B017C01A12CB12CE881F9810480F5816C
:10141000E02DCE010995892BC1F40E94D12C6C19C5
:101420007D098E099F0986169706A806B90660F7FA
:101430008FEF9FEFDF91CF91FF90EF90DF90CF90F4
:10144000BF90AF909F908F900895E881F9810084BC
:10145000F185E02DCE01DF91CF91FF90EF90DF90ED
:10146000CF90BF90AF909F908F900994CF93DF93D0
:10147000EB0120918F04211112C02091070122233A
:1014800029F08CEF94E00E94D73005C0BC018CEFAE
:1014900094E00E9408318CEF94E00E94113181E2C7
:1014A00095E00E941131BE0181E295E00E94153164
:1014B00081E295E0DF91CF910C94021C66E371E02C
:1014C00085EB92E00C94360A60E371E08EEB92E0DB
:1014D0000C94360A81E5EBEEF3E0DF011D928A956C
:1014E000E9F70895CF93DF9300D0CDB7DEB7209111
:1014F0004806309149062115310511F42CE436E0F7
:10150000CE010196821B930B0F900F90DF91CF912C
:101510000895CF92DF92EF92FF92CF93C82F0E944F
:10152000D12C6B017C010E94D12C685B7B4081092E
:1015300091096C157D058E059F0508F473C08C2FED
:101540000E94FB2D892B79F720E432E44FE050E034
:1015500060E08C2F0E94242E6C307105810591056E
:10156000A4F16431710581059105A4F16D31710516
:1015700081059105A4F16832710581059105A4F1F9
:101580006C33710581059105A4F160357105810504
:101590009105A4F16639710581059105A4F16C32BC
:1015A00021E07207810591059CF1683522E0720700
:1015B0008105910594F1603B74408105910594F596
:1015C00060EB74E080E090E030C060E072EC81E0BD
:1015D00090E02BC060E071EE80E090E026C060E01B
:1015E00076E980E090E021C060E870E780E090E07C
:1015F0001CC060E07BE480E090E017C060E478E32A
:1016000080E090E012C060E875E280E090E00DC0FC
:1016100060EC72E180E090E008C060E679E080E094
:1016200090E003C060E070E0CB01CF91FF90EF90BD
:10163000DF90CF9008950F931F93CF93DF931F9266
:10164000CDB7DEB78C0169830E94C3066981861716
:1016500041F0C8010F90DF91CF911F910F910C9431
:1016600036390F90DF91CF911F910F91089580939C
:10167000E403682F80E090E00C941B0BEF92FF9244
:101680000F931F93CF93DF937C018B01C0E0D0E0D9
:10169000D801ED91FC91EC0FFD1F6081CE018E0D04
:1016A0009F1D0E9436392196C632D10589F7DF91F8
:1016B000CF911F910F91FF90EF900895AF92BF923D
:1016C000CF92DF92EF92FF920F931F93CF93DF930E
:1016D000CDB7DEB7A8970FB6F894DEBF0FBECDBF6B
:1016E0006C017B018E010F5F1F4F5E0187E2A80E28
:1016F000B11CB801E01AF10AC701800F911F6FA356
:1017000078A70E94C306F80181938F016FA178A585
:10171000EA15FB0589F7C6010E947E32C601A8962C
:101720000FB6F894DEBF0FBECDBFDF91CF911F91F2
:101730000F91FF90EF90DF90CF90BF90AF90089502
:10174000FC012191222331F0DC012C932032C9F3DA
:101750000196F7CFFC01108208959091E803913033
:1017600019F091E09827892F90E008958091E70380
:10177000811102C081E004C0809191048111FACFEF
:101780000E94AD0B682F80E10C94C52D81E0809301
:1017900009011092910410929004809308018093A3
:1017A000070110928F0410928E048BE28093060141
:1017B0001092E8031092E9031092E7030C94B60B21
:1017C0008AE090E00E94C30691E0811101C090E0A0
:1017D000909308018BE090E00E94C30691E0811194
:1017E00001C090E09093E9038CE090E00E94C30672
:1017F00091E0811101C090E0909307018DE090E0AD
:101800000E94C30691E0811101C090E090938F0483
:101810008EE090E00E94C30691E0811101C090E04B
:1018200090938E048FE090E00E94C306809306019F
:1018300080E190E00E94C30691E0811101C090E038
:101840009093E80381E190E00E94C30691E081114A
:1018500001C090E09093E70382E190E00E94C3060C
:1018600080938D040C94B60B67E181EA94E00E94AA
:10187000C72962E081EA94E00C94C5290F931F9375
:10188000CF93DF9300D000D000D0CDB7DEB78C016E
:101890008091E5039091E60380179107F1F1B8017B
:1018A00081EA94E00E94AE2981EA94E00E94452AF0
:1018B0001093E6030093E50380910C0190910D01D4
:1018C0008036994081F06CE770E0CE0101960E946D
:1018D0003833CE0101960E943907CE0101960E944D
:1018E000103281E01BC068E670E0CE0101960E94D4
:1018F0003833CE0101960E943907CE0101960E942D
:10190000103281EA94E00E946D2A68E873E180E079
:1019100090E00E94002D0E94340C80E026960FB6C5
:10192000F894DEBF0FBECDBFDF91CF911F910F9115
:10193000089581EA94E00C942E260F9300E020E0B5
:1019400040E060E08BE195E00E947E3020E046E0E0
:1019500065E08CEF94E00E947C1E81EA94E00E9496
:10196000432C63E073E08BE994E00E947E3241E017
:1019700020910E0130910F0180910C0190910D0189
:101980002817390709F440E04093EA0380E090E02B
:101990000E94C30691E0811101C090E09093E4039E
:1019A0000F9108958BE994E00E9410328CEF94E03F
:1019B0000C94231E81E080930901109291041092EF
:1019C000900481EA94E00E946622019629F481EA5B
:1019D00094E00E943D2B04C081EA94E00E94052C13
:1019E00067E471E080EB92E00E94360A8091E703A1
:1019F000882339F080E00E94AD0B682F80E10C94C1
:101A0000C52D08951F93CF93DF93EC01162F6FEF31
:101A100081EA94E00E949C20CD3FD10511F46DEF46
:101A200001C06BEF81EA94E00E949C20612F81EA63
:101A300094E0DF91CF911F910C949C201F93CF9342
:101A4000DF93EC01162F6FEF81EA94E00E949C2057
:101A5000CD3FD10511F46CEF01C06EEF81EA94E047
:101A60000E949C20612F81EA94E0DF91CF911F9129
:101A70000C949C206FEF81EA94E00E949C206EEF12
:101A800081EA94E00E949C2062E281EA94E00E9454
:101A90009C206FEF81EA94E00E949C206EEF81EA27
:101AA00094E00E949C2061E081EA94E00C949C20E8
:101AB000CF93DF9360E177E281EA94E00E94F2093C
:101AC0008F3F910591F50E943A0D68E873E181EA34
:101AD00094E00E94F2098F3F910539F581EA94E084
:101AE0000E94DD0981EA94E00E94DD09EC018F3F4C
:101AF0002FEF920751F38B5F9109049730F781EA3A
:101B000094E00E94DD098F3F2FEF9207F1F28330BE
:101B1000910531F463E070E0CE010E94020DD5CF53
:101B2000BC01CE010E941E0DD0CFDF91CF91089550
:101B300080918D04811103C063E271E03BC080910C
:101B40000E0190910F01803C22E1920711F160F4A7
:101B5000803B24E09207C1F08036994049F569E066
:101B600071E084EB92E028C081152BE49207B1F07C
:101B7000811526E99207B9F080389542C9F46FEED5
:101B800070E08AEB92E018C066E171E082EB92E0CF
:101B900013C06CEF70E087EB92E00EC061EE70E076
:101BA0008DEB92E009C063ED70E080EC92E004C040
:101BB0006BEC70E088EB92E00E94360A8091E703BC
:101BC000882339F081E00E94AD0B682F80E10E94EC
:101BD000C52D0E94580D81E0809391041092090157
:101BE00010929004089580919004811102C00C9489
:101BF000DA0C0C94980D81E08093900480918E040F
:101C000081110C94F30D6BE271E08BEB92E00E947A
:101C1000360A439A6AEF70E080E090E00E94002D5F
:101C200043980895AF92BF92CF92DF92EF92FF92C6
:101C30000F931F93CF93DF93CDB7DEB7C854D1096D
:101C40000FB6F894DEBF0FBECDBF7C016B01A42E92
:101C500067E872E08E010F5F1F4FC8010E943833A2
:101C6000B801C7010E94B033B82EC8010E941032DB
:101C7000BB2049F064E772E0C7010E94173336E4E5
:101C8000C32E34E1D32E6CE672E0C8010E943833D3
:101C9000B801C7010E94B033B82EC8010E941032AB
:101CA000BB2049F061E672E0C7010E94173326E4C9
:101CB000C22E24E1D22EF70181818F9380818F93F0
:101CC0008EE492E09F938F931F9292E3B92EBF927E
:101CD0001F930F930E940A37C8010E94F406F70170
:101CE0006081718120E130E0AE014D5C5F4F81EA9F
:101CF00094E00E9440280FB6F894DEBF0FBECDBF1F
:101D0000811125C066E272E0CE018D5B9F4F0E947B
:101D10003833CE018D5B9F4F0E945A07CE018D5BF9
:101D20009F4F0E94103268EE73E080E090E00E94C6
:101D3000002D80918D04823011F0843028F06AE10A
:101D400072E083EC92E04EC06FE072E049C021E0A7
:101D5000A601BE016D5C7F4F81EA94E00E94732B67
:101D60008823E1F0F70181818F9380818F938FEF3A
:101D700091E09F938F931F92BF921F930F930E94A6
:101D80000A37C8010E94F4060FB6F894DEBF0FBEF2
:101D9000CDBFA1102AC00E94580D27C06FEE71E080
:101DA000CE018D5B9F4F0E943833CE018D5B9F4FDC
:101DB0000E94DB06CE018D5B9F4F0E94103268EEC1
:101DC00073E080E090E00E94002D80918D048330CC
:101DD00028F06AEE71E085EC92E004C06FED71E0EE
:101DE00080EB92E00E94360A02C00E94980DC85B08
:101DF000DF4F0FB6F894DEBF0FBECDBFDF91CF919E
:101E00001F910F91FF90EF90DF90CF90BF90AF9018
:101E10000895EF92FF920F931F93CF93DF93CDB767
:101E2000DEB72C970FB6F894DEBF0FBECDBF8C0186
:101E3000BC01CE0107960E947E32F801808181119B
:101E400003C00E94640A3DC06AE370E0C8010E94BA
:101E5000B0360097C1F0FC0111927F01B801CE01AC
:101E600001960E947E32BE016F5F7F4FCE010796C2
:101E70000E940B33CE0101960E941032C7010E94CE
:101E80004C368C0102C007E110E0BE01695F7F4F54
:101E90008BE994E00E94EB3210930B0100930A014E
:101EA000BE01695F7F4FCE0101960E94023340E080
:101EB000B801CE0101960E94120ECE0101960E9439
:101EC0001032CE0107960E9410322C960FB6F8946D
:101ED000DEBF0FBECDBFDF91CF911F910F91FF905D
:101EE000EF900895CF93DF93CDB7DEB7E8970FB6A5
:101EF000F894DEBF0FBECDBF61EC71E08E010F5FC5
:101F00001F4FC8010E943833C8010E943907C80119
:101F10000E941032412C512C3201C12CD12C76015F
:101F2000312C44EAA42E41E0B42E51E9852E51E033
:101F3000952E81EA94E00E94662218161906B4F4E0
:101F40008FEFC81AD80AE80AF80A8091E9038111CC
:101F50000E94C50681EA94E00E940A22682F8CEF55
:101F600094E00E94D71C33243394E3CF8CEF94E0A9
:101F70000E94431D181619068CF49FEF491A590A3E
:101F8000690A790A8CEF94E00E94B61C682F81EAF6
:101F900094E00E949C2033243394E8CFC201930143
:101FA000332039F24091E903411104C04091EA0322
:101FB000442399F01F921F921F921F923F932F93D9
:101FC0009F938F93FF92EF92DF92CF92BF92AF9247
:101FD0001F930F930E943A370EC07F926F925F92C9
:101FE0004F92FF92EF92DF92CF929F928F921F9328
:101FF0000F930E943A370FB6F894DEBF0FBECDBFE5
:10200000B801CE01C3960E947E32CE01C3960E94D3
:10201000DB06CE01C3960E9410328BCFCF92DF92A7
:10202000EF92FF926C0190930D0180930C0185EA71
:1020300095E00E949E2E62E070E080E090E00E94B9
:10204000002DE12CF12CB701A60181EA94E00E9459
:10205000E02568EE73E080E090E00E94002D85EAC4
:1020600095E00E94872F26E0B701A60185EA95E05A
:10207000FF90EF90DF90CF900C94252FCF93DF93BC
:10208000EC0185EA95E00E949E2E62E070E080E01F
:1020900090E00E94002D85EA95E00E94872FAE0116
:1020A00060E070E026E085EA95E0DF91CF910C9446
:1020B000252F2F923F924F925F926F927F928F9235
:1020C0009F92AF92BF92CF92DF92EF92FF920F93C7
:1020D0001F93CF93DF93CDB7DEB7EE970FB6F8948B
:1020E000DEBF0FBECDBF8EE0E6EFF2E0DE019996D7
:1020F00001900D928A95E1F70E948E078091EB0383
:10210000813439F48091EC03843509F067C481E0AF
:1021100009C0813609F062C48091EC03843709F06C
:102120005DC480E09091E40389130E94370B6BEE4D
:1021300073E08CE394E00E94C4360BEE13E0780168
:10214000F70101900020E9F73197EB5EF340C801F9
:102150008B5E93408E179F0758F4F8018081992772
:1021600087FD90950E947236F80181938F01E8CF28
:102170006BEE73E0CE0101960E947E32CE01019695
:102180000E94DB06CE0101960E9410324AE050E028
:1021900067EC72E08BEE93E00E94CB36892B91F4D2
:1021A0008091F50389831A82CE0101960E944C36F4
:1021B0008A30910508F0FBC0682F83E690E00E940A
:1021C0001B0B71C048E050E062ED72E08BEE93E0D3
:1021D0000E94CB36892B91F483EF93E00E944C361A
:1021E0008C0197FDE4C00E943E0C8111FFCF0E943C
:1021F0005E0A1093E6030093E503EEC36BED72E015
:102200008BEE93E00E94E836892B09F44FC0A4E6D8
:10221000EA2EF12C00E010E00F5F1F4F4AE050E083
:10222000B8018CEF94E00E94EE3165E471E0CE01DC
:1022300001960E943833CE0101960E940D07CE010F
:1022400001960E941032B701CE0101960E945E0BEA
:10225000CE0101960E943907CE0101960E941032EC
:10226000F8E2EF0EF11C09301105B1F60E948E075D
:1022700069E371E0CE0101960E943833CE010196E8
:102280000E940D07CE0101960E94103283E690E075
:102290000E94C3064AE050E0682F8CEF94E00E9451
:1022A00003320E948E070E945E0A96C362EE72E0BD
:1022B0008BEE93E00E94E836892BC9F004E610E02B
:1022C00069EA72E0CE0101960E947E32BE016F5F24
:1022D0007F4FC8010E943E0BCE0101960E94103232
:1022E000085D1F4F0C3C81E0180751F7DCCF45E03B
:1022F00050E06DEE72E08BEE93E00E94CB36892BBE
:1023000061F58091F0038FAB18AECE01C7960E94A5
:102310004C368C01015011090930110508F047C0F5
:102320008091F1038D3309F042C062EF73E0CE017A
:1023300001960E947E3228E2209FC001219F900DCD
:102340001124BE016F5F7F4F8C599F4F0E943E0B3F
:10235000CE0101960E941032A6CF42E050E063EF1A
:1023600072E08BEE93E00E94CB36892B01F562E0A0
:1023700070E0612C712C552453944E0199E2890E22
:10238000911CECE32E2EE4E03E2EF8E24F2EEBEE15
:10239000F3E001900020E9F73197EB5EF3406E1710
:1023A0007F0740F0611018C3772009F47CCF0E94AA
:1023B000640A12C36E347105ACF78B010F5F1F4FB7
:1023C000FB01E551FC4F8081883409F456C0CCF400
:1023D0008A3209F4C8C154F48D3009F4FBC2863244
:1023E00009F428C18A3009F0EEC2F4C2843409F439
:1023F00053C2853489F1813409F0E5C20E94F30D9E
:10240000A9C2813509F478C06CF48D3409F461C037
:102410008F3409F469C0893409F0D5C280E00E9484
:10242000D007D8C2863509F4E5C024F4833509F411
:1024300074C0C9C2883509F4EDC08A3509F0C3C239
:102440000E94E00B81EA94E00E948A25882309F427
:10245000C1C20E94990CBEC26E5F7F4FF801E55168
:10246000FC4F8081803331F0813309F0E0C050921D
:102470000801DEC010920801DBC07B01E2E0EE0E35
:10248000F11CF801E551FC4F8081803319F0813354
:1024900061F01CC081EA94E00E948A2581110E94AB
:1024A000990C0E94DA0C870155C281EA94E00E94DF
:1024B0008A25811106C060E070E081EA94E00E9404
:1024C000202A80E699E00E943E1092C00E94DA0C19
:1024D00041C26E5F7F4FF801E551FC4F8081805310
:1024E000833008F4A5C0A3C080919104882309F427
:1024F0006AC2109209016EC26E5F7F4FF801E5510A
:10250000FC4F8081803331F0813309F090C05092CC
:102510008F048EC010928F048BC0CB010296F801FD
:10252000E551FC4F2081203319F02233E9F04DC2F0
:102530009B012D5F3F4FFC01E551FC4F80818D33A6
:1025400009F045C28B010C5F1F4FF901E551FC4FAB
:102550008081803331F0813309F035C250928E048E
:1025600039C210928E0436C28B010D5F1F4FFC01E1
:10257000E551FC4F80818D3309F02CC21FAA18AEA3
:1025800019AEF40101900020E9F7CF0101976C0129
:10259000C818D9087801A12CB12C16C0F3E0AF16E9
:1025A000B104A9F0F701E551FC4F6081772767FD81
:1025B0007095C4010E94B036892B49F49FEFE91A47
:1025C000F90AEFEFAE1ABE0AAC14BD0439F7A70141
:1025D000401B510BB80165517C4FCE01C7960E943C
:1025E000D9361AAECE01C7960E944C3680930601AA
:1025F0008701F0C16E5F7F4FF801E551FC4F80818C
:10260000803329F0813399F45092070111C0109260
:1026100007010EC06E5F7F4FF801E551FC4F8081CE
:10262000805380938D04853018F010928D0473943C
:102630008B01D0C16B0182E0C80ED11CF801E551BD
:10264000FC4F8081863481F134F48D3209F47DC0F1
:10265000833459F0BEC1823509F444C0873509F48A
:1026600043C08B3409F0B5C12BC08B010D5F1F4FE8
:10267000F601E551FC4F8081803319F0813321F060
:10268000A2C11092E70306C05092E7038091910423
:10269000882311F081E001C080E00E94AD0B682F1B
:1026A00080E10E94C52D96C10E94C60B81EA94E08C
:1026B0000E948A25882309F48CC10E94990C89C143
:1026C0008B010D5F1F4FF601E551FC4F8081803378
:1026D00031F0813309F077C15092E9037BC1109248
:1026E000E90378C10E94720F609108018AE090E0CE
:1026F0000E941B0B6091E9038BE090E00E941B0B92
:10270000609107018CE090E00E941B0B60918F04A8
:102710008DE090E00E941B0B60918E048EE090E0B3
:102720000E941B0B609106018FE090E00E941B0B42
:102730006091E70381E190E00E941B0B60918D04A2
:1027400082E190E00E941B0B44C10E948E070E9410
:10275000720A4AE050E0BC018CEF94E00E94EE3136
:102760000E948E0736C1FB013296D801A551BC4F9D
:102770008C918035B9F1833521F08B3409F089C013
:102780005EC08B010D5F1F4FE551FC4F80818D3383
:1027900009F019C18091E403B801645C7B4F882380
:1027A00079F0CE01C7960E9491196FA978AD81EAA0
:1027B00094E00E94DF29CE01C7960E94103204C027
:1027C00081EA94E00E94DF2981EA94E00E94CF250B
:1027D00060E27EE481EA94E00E94072B811125C02B
:1027E000739423C08B010D5F1F4FE551FC4F808117
:1027F0008D3309F0E8C08091E403B801645C7B4F3D
:10280000882379F0CE01C7960E9491196FA978ADFF
:1028100081EA94E00E94092ACE01C7960E941032F4
:1028200004C081EA94E00E94092AF101019000208D
:10283000E9F78F01015011090C531440CBC06D5FB3
:102840007F4FE551FC4F80818D3309F58091E40382
:10285000645C7B4F882379F0CE01C7960E94911962
:102860006FA978AD81EA94E00E94EA29CE01C7966B
:102870000E94103204C081EA94E00E94EA29F1012A
:1028800001900020E9F73197EC53F44002C07394B3
:10289000FB0173948F019EC06B01F2E0CF0ED11C3F
:1028A00005511C4FF8018081833209F456C01CF495
:1028B000882331F083C0803559F0843549F07EC0DB
:1028C00080919104882309F477C01092090181C096
:1028D0008B010D5F1F4FC60185519C4F6C01FC01A0
:1028E0008081833279F5F801E551FC4F80818DAF0D
:1028F0001EAECE01CD960E944C36019789309105CF
:1029000008F061C0489EB001499E700D11246C59B9
:102910007F4FCE01C7960E945E0B6FA978AD48E24B
:1029200050E0CE0101960E94D936CE01C7960E9492
:102930001032CE0101960E94A00BCE0101960E949A
:10294000090F08C0C6010E94A00BC6010E94090F12
:102950000EE410E0662463943DC0F601E551FC4F9F
:1029600080818DAF1EAECE01CD960E944C36019770
:102970008930910508F5489EB001499E700D1124DB
:102980006C597F4FCE01C7960E945E0B6FA978AD40
:1029900048E250E0CE0101960E94D936CE01C7969A
:1029A0000E941032CE0101960E94A00BCE0101962A
:1029B0000E94090F8601CECF73940BC0C8010E94FC
:1029C000A00BC801C3CF739405C08C0103C089015B
:1029D00001C08601B801DBCC0E946A0AEE960FB6F0
:1029E000F894DEBF0FBECDBFDF91CF911F910F9145
:1029F000FF90EF90DF90CF90BF90AF909F908F901F
:102A00007F906F905F904F903F902F9008952F92FE
:102A10003F924F925F926F927F928F929F92AF926E
:102A2000BF92CF92DF92EF92FF921F93CF93DF93EB
:102A300000D000D000D0CDB7DEB799249394BBE28C
:102A4000EB2EF12C1BEE212E13E0312E80E6C82E4A
:102A500089E0D82E94E6A92EB12C8CEF94E00E9448
:102A6000431D18161906CCF480910901882309F436
:102A7000A4C08091E903811141988CEF94E00E94F9
:102A8000B61C182F8D7F883099F01D3089F01431D5
:102A900079F080EE810F8B3B38F08091E903882339
:102AA00009F4FEC0419AFCC080E8810F8134A8F38C
:102AB000809108018823E9F08091E903811114C015
:102AC00080910E0190910F01803629E0920710F459
:102AD00080E699E0B6010E94D233C5010E94D2334C
:102AE00080E090E00E94002D612F8CEF94E00E9426
:102AF000D71C812F0E94C407882361F08091EB03CB
:102B0000882309F4AACFF10101900020E9F7329758
:102B10001082A3CF1D3099F11A3089F180910601FE
:102B2000181769F1F10101900020E9F73197EB5E88
:102B3000F340E135F10518F00E94640A3BC0E5510D
:102B4000FC4F10838091EB03992787FD90950E949D
:102B500072368134910509F080CF8091EC038F3279
:102B600009F07BCF6CE374E08BEE93E00E94C436F7
:102B70008091E9038111419A0E9459101BC08091F4
:102B8000EB03992787FD90950E9472368134910559
:102B900089F48091EC03992787FD90950E94723605
:102BA0008435910539F48091E9038111419A0E949D
:102BB000591053CF0E946A0A50CF80919104882304
:102BC00009F44BCF8CEF94E00E94B61C882E0E9433
:102BD000D12C685E73408109910940909404509013
:102BE0009504609096047090970446165706680600
:102BF0007906E8F48BE2881218C0809198049091CD
:102C000099048B32910539F090929A04F0929904CC
:102C1000E092980416C020919A042F5F20939A04A2
:102C200090939904809398040CC010929A040E9487
:102C3000D12C6093940470939504809396049093A0
:102C4000970480919A04833001F564E073E0CE012B
:102C500001960E947E32CE0101960E94DB06CE01D3
:102C600001960E9410329092930410929A0410924E
:102C700094041092950410929604109297049092E6
:102C800009010E948E070E945E0A8091E90381116A
:102C90000E94D506682D81EA94E00E949C20DDCE3A
:102CA00026960FB6F894DEBF0FBECDBFDF91CF9151
:102CB0001F91FF90EF90DF90CF90BF90AF909F90CB
:102CC0008F907F906F905F904F903F902F900895DE
:102CD000CF92DF92EF92FF920F931F93CF93DF93E8
:102CE000CDB7DEB72A970FB6F894DEBF0FBECDBFC3
:102CF00081EA94E00E94302B882359F1809191045D
:102D000081111BC08091900481112EC065EB70E091
:102D100081EA94E00E94153167EA70E0CE010196E5
:102D20000E943833CE0101960E94DB06CE01019647
:102D30000E9410320E94FB0D6CC080910901882313
:102D4000B1F081EA94E00E9466221816190664F038
:102D50000EC080919004882319F00E94DA0C59C0AB
:102D6000809191048111F9CF0E94071552C0809182
:102D7000EA03811116C081EA94E00E9466221816C7
:102D8000190694F78091E90381110E94C50681EA32
:102D900094E00E940A22682F8CEF94E00E94D71CD6
:102DA000EACF00E010E0CE0101967C0181EA94E0D8
:102DB0000E94662218161906B4F48091B0008F7D27
:102DC0008093B0005B9A81EA94E00E940A22F701A6
:102DD000E00FF11F80830F5F1F4F0A30110534F39E
:102DE00009E010E0E3CF6701C6018E199F09801743
:102DF000910744F4F60161916F018CEF94E00E9419
:102E0000D71CF2CF8091B0008F7D8093B0005B988B
:102E1000ABCF2A960FB6F894DEBF0FBECDBFDF91C1
:102E2000CF911F910F91FF90EF90DF90CF90089579
:102E3000CF93DF93CDB7DEB7AE970FB6F894DEBF72
:102E40000FBECDBF3B9A389A3C9A3D984398409A22
:102E50008091E703882339F080E00E94AD0B682F52
:102E600080E10E94C52D0E94C60B0E94E00B0E94CB
:102E70006A0A0E948E07809192049FEF980F993002
:102E800008F069C0992787FD9095019728E2289F4F
:102E9000B001299F700D11246C597F4FCE01899686
:102EA0000E945E0B69A57AA548E250E0CE0101962A
:102EB0000E94D936CE0189960E9410326BE771E0EC
:102EC000CE0189960E943833CE0189960E940D0763
:102ED000CE0189960E941032BE016F5F7F4FCE01F6
:102EE00089960E947E32CE0189960E943907CE01D2
:102EF00089960E9410326EE571E0CE0189960E949B
:102F00003833CE0189960E943907CE0189960E94F6
:102F1000103260ED77E08CEF94E00E94F2090196A8
:102F2000A9F08CEF94E00E94DD096BE571E0CE0121
:102F300089960E943833CE0189960E94DB06CE0125
:102F400089960E94103268E571E015C0CE010196A5
:102F50000E94090F18C065E571E0CE0101960E943C
:102F60003833CE0101960E94DB06CE0101960E9405
:102F7000103262E571E08CEF94E00E94D7308CEF64
:102F800094E00E9411310E946816FDCFCF93DF9329
:102F9000CDB7DEB72C970FB6F894DEBF0FBECDBF0E
:102FA0000E94282D81E295E00E94431C60E081E2AE
:102FB00095E00E94391A61E081E295E00E94F31BDE
:102FC0003A9A81E190E00E94C30691E0811101C02C
:102FD00090E09093E703992311F080E001C081E035
:102FE0000E94AD0B682F80E10E94C52D82E090E029
:102FF0000E94C306182F83E090E00E94C306212F91
:1030000030E0322F2227280F311D30930F012093FB
:103010000E01203B84E03807C9F0203699E03907DB
:10302000A9F0203C82E1380789F0203895E2390781
:1030300069F021158BE4380749F02115364931F044
:1030400080E699E090930F0180930E0160E085E0A7
:103050000E948C2D61E085E00E94C52D63EC73E039
:10306000CE0101960E943833CE0101960E94DB0604
:10307000CE0101960E94103285E090E00E94890AFC
:103080006B017C01603B24E072078105910509F129
:1030900080E6C81689E0D806E104F104D1F090EC8E
:1030A000C91692E1D906E104F10499F020E8C216AC
:1030B00025E2D206E104F10461F0C1148BE4D806E4
:1030C000E104F10431F0C11496E9D906E104F104F8
:1030D000A9F5FF92EF92DF92CF928FEB93E09F934F
:1030E0008F938E01095F1F4F1F930F930E943A37F2
:1030F000B801CE0101960E947E32CE0101960E9457
:10310000DB06CE0101960E94103268EB7BE080E086
:1031100090E00E94002DC0920E01D0920F016D2D03
:1031200082E090E00E941B0B6C2D83E090E00E94F7
:103130001B0B0FB6F894DEBF0FBECDBF40910E0142
:1031400050910F0160E070E08CEF94E00E94AC1EA3
:1031500040910C0150910D0160E070E026E085EA9D
:1031600095E00E94252F48EE53E060E070E08CEF80
:1031700094E00E940A3241E020910E0130910F014B
:1031800080910C0190910D012817390709F440E056
:103190004093EA033D98399A5298539A8091B0002F
:1031A0008F7D8093B0005B98419A8CEF94E00E94F1
:1031B000113161EB73E0CE0101960E943833CE01EC
:1031C00001960E945A07CE0101960E94103240E0FB
:1031D00050E065EA75E081EA94E00E946129882365
:1031E000C1F067EA73E0CE0101960E943833CE0148
:1031F00001960E945A07CE0101960E9410320E9449
:10320000340C80910E0190910F018036994089F421
:1032100022C069E973E0CE0101960E943833CE01E5
:1032200001960E945A07CE0101960E9410320E9418
:10323000720F68EE73E080E090E00E94002D8091B4
:103240000E0190910F01803B24E0920711F480E67B
:1032500099E00E940E1041E020910E0130910F0183
:1032600080910C0190910D012817390709F440E075
:103270004093EA0381EA94E00E943D2B83E690E0CC
:103280000E94C3068093920461E773E0CE01019629
:103290000E943833CE0101960E943907CE01019673
:1032A0000E9410320E9492070E948E0781E00E94C5
:1032B000D0070E941817CF93C82F80EA8C0F803256
:1032C00010F490E603C0C03E18F090EC9C0F03C0D1
:1032D000CD3001F19C2F9A30F9F0903210F48EE24B
:1032E0001EC0903AD9F08FE3890F8A3110F480E83C
:1032F00005C08FEB890F8A3118F480E2890F0FC067
:103300008C2F992787FD90950E946C36892B39F375
:103310008C2F05C08AE003C08DE001C080E2CF9110
:103320000895EF92FF920F931F93CF93DF938C0139
:103330007B0163E073E00E947E32E701899188237C
:1033400039F00E945B19682FC8010E946D33F6CFD7
:10335000C801DF91CF911F910F91FF90EF900895D9
:103360008A30C1F08D30C1F08032D4F08036B1F0B7
:103370009FE9980F9A3110F4805208959FEB980FAF
:103380009A3110F4805808958B3754F480364CF0FD
:10339000805A08958DE008958AE0089587E208959F
:1033A0008FE30895EF92FF920F931F93CF93DF93D4
:1033B0008C017B0163E073E00E947E32E70189911A
:1033C000882339F00E94B019682FC8010E946D331C
:1033D000F6CFC801DF91CF911F910F91FF90EF9031
:1033E00008950DB407FEFDCF0895FC01638744875F
:1033F00008950F936034D8F54033C8F50130C9F40F
:103400002130A9F5E42FE695E695E69580E4E89F5E
:10341000F0011124E60FF11DE05FFE4F477081E0DF
:1034200090E0042E01C0880F0A94EAF79081982753
:103430001DC0842F869586958695E62FF0E047700F
:1034400090E4899FE00DF11D1124E05FFE4F81E0C3
:1034500090E0042E01C0880F0A94EAF7213019F495
:103460009081982B03C080959081982390830F9131
:103470000895DC0161112EC018961C921897809156
:10348000900290919102FC01249116962C9316972C
:103490003196E4911796EC931797FC013296E491DC
:1034A0001996EC931997FC013396E4911A96EC93D4
:1034B0001A97FC01349624913196849190E0F4E6B9
:1034C0002F9F800D911D11241E969C938E931D9706
:1034D00081E0089580E008955F926F927F928F92CD
:1034E0009F92AF92BF92CF92DF92EF92FF920F9393
:1034F0001F93CF93DF93EC01162FB42EF02E398556
:10350000231708F4B0C06A8570E0630F711D822F25
:1035100090E0861797070CF0A6C0D22ED31A9F8092
:1035200096949694969481E08915C0F1C12E3C2D15
:10353000311B2E81822F90E0A32FB0E08A179B07CA
:103540000CF491C0321791F0E885F0E0EE0FFF1F08
:10355000E057FD4FD29EA00DB11D1124169601908B
:10356000F081E02DEA0FFB1F949001C0912CA12C5B
:103570004A2D4B0D90FE03C00E2D2F2D04C021E0CF
:10358000F11020E00E2D6C2DCE010E94F9199694B9
:10359000A39488E0A812ECCFC394C9CFED85FE8533
:1035A0002E8130E0CF01B9010E94D2338D2D90E001
:1035B0000E94D233829F6001839FD00C929FD00CD7
:1035C00011249E9E90019F9E300D1124269FC001C4
:1035D000279F900D369F900D1124C80ED91E742E72
:1035E000A12CB12C86E0C80ED11C812E482D411B88
:1035F0008E81481780F5E885F0E0EE0FFF1FE05759
:10360000FD4F2D853E85A29EC001A39E900DB29ECA
:10361000900D11248C0D9D1D840F911D0190F08142
:10362000E02DE80FF91F5490612C462D470D50FEF8
:1036300003C00E2D2F2D04C021E0F11020E00E2D2F
:10364000682DCE010E94F9195694639488E068129F
:10365000ECCF8394CBCF8FEFA81AB80A88E0780E0E
:10366000A91408F4C2CFDF91CF911F910F91FF9061
:10367000EF90DF90CF90BF90AF909F908F907F9012
:103680006F905F900895EF920F93CF93DF93EC01CB
:10369000262F6A30A9F06D30C1F0ED800C814C8589
:1036A0006B850E946C1A4E812B85240F2F5F2B8710
:1036B00030E080E490E0841B9109821793072CF49A
:1036C0008C859F81890F8C871B8681E090E0DF913C
:1036D000CF910F91EF9008952A9A22982898209AD6
:1036E00060E08DE00E94C52D60E08BE00E94C52D5A
:1036F00061E08DE00E948C2D61E08BE00E948C2DBA
:103700008CB580618CBD08958CB580648CBD2A9881
:10371000229A08950DB407FEFDCF2898209A2A9A80
:1037200022988CB58F7B8CBD0895CF93DF9300D00A
:10373000CDB7DEB74A8369830E94841B69816EBD61
:103740000E94F1194A814EBD0F900F90DF91CF91E9
:103750000C948A1BCF93DF9300D01F92CDB7DEB7B6
:103760002B834A8369830E94841B69816EBD0E94FA
:10377000F1194A814EBD0E94F1192B812EBD0F9087
:103780000F900F90DF91CF910C948A1B0F931F9392
:10379000CF93DF93EC0140E060E20E94951B2FE79E
:1037A00040E061E2CE010E94AA1B27E040E062E215
:1037B000CE010E94AA1B0E94841B289A20981EBC3E
:1037C0000FEF13E00E94F1191EBC01501109D1F74F
:1037D0000E948A1B42E060E2CE01DF91CF911F91EF
:1037E0000F910C94951B613011F40C94C61B80E86A
:1037F00091E0E0E1F1E0DF019C011D9221503040B9
:10380000E1F708950F931F93CF93DF93EC0140E00E
:1038100060E20E94951B2FE540E261E2CE010E942A
:10382000AA1B25E040E062E2CE010E94AA1B0E9492
:10383000841B289A2098809110018EBD01E111E02F
:103840000E94F119F80181918F018EBDF2E00039DB
:103850001F07B1F70E948A1B42E060E2CE01DF91B0
:10386000CF911F910F910C94951B2CB5982F9370AD
:103870002C7F922B9CBD9DB582FB882780F99E7F73
:10388000982B9DBD0895CF93DF93EC0160E00E94DB
:10389000391A81E08C831D821B861C865F98579A9B
:1038A00061E084E00E948C2D61E084E00E94C52DDF
:1038B0006AE070E080E090E00E94002D5F9A5798E7
:1038C00065E070E080E090E00E94002D5F98579ADC
:1038D00084E00E94351C0E946C1B65E070E080E073
:1038E00090E00E94002D5F9A57986AE070E080E0B7
:1038F00090E00E94002D4FE268EACE010E94951BE5
:1039000044E16DE8CE010E94951B0E94841B81EA70
:103910008EBD0E948A1B0E94841B88EC8EBD0E9473
:103920008A1B4FE861E8CE010E94951B41EF69EDCB
:10393000CE010E94951B40E46BEDCE010E94951BC9
:103940000E94841B8FEA8EBD0E948A1BCE01DF91EC
:10395000CF910C94C61B109224051092230580E190
:1039600093E090932205809321050895209172059C
:103970003091730528173907B9F49091300580917B
:103980003105981789F0E0913005F0E0EE5CFA4FD0
:1039900080812091300530E02F5F3F4F2F73332718
:1039A0002093300590E008958FEF9FEF08951F93C7
:1039B000CF93DF93DC015C968D919C915D9700978E
:1039C00049F481E090E013969C938E93129780E0E7
:1039D00090E03BC05196ED91FC91529750962C91FE
:1039E0005097322F30951FB75E964C915E9741FBF2
:1039F000772770F941FD6095F8944081772311F0A5
:103A0000422B01C043234083EC012197F1F748E0AA
:103A1000508160FF02C0522B01C053235083EC0140
:103A20002197F1F76695415099F78081772311F03E
:103A3000832301C0822B80831FBF5C968D919C9154
:103A40005D970197F1F781E090E0DF91CF911F91B1
:103A5000089520917205309173052817390781F474
:103A60009091300580913105981751F0E091300523
:103A7000F0E0EE5CFA4F8081992787FD90950895DC
:103A80008FEF9FEF089520917205309173052817ED
:103A9000390771F4809131052091300590E0805C08
:103AA0009F4F821B910960E470E00E94E633089505
:103AB00080E090E0089520917205309173052817F9
:103AC000390739F48FB7F894109231051092300508
:103AD0008FBF0895E0917205F0917305E817F9071B
:103AE00069F4A389B4899C918589809589238C93F5
:103AF000109273051092720581E0089580E0089598
:103B0000CF93DF93EC018A8D9B8D892BF1F080910F
:103B10007205909173058C179D07B9F0009711F00D
:103B20000E946A1D8E8D8E7F8E8F109231051092AD
:103B30003005D0937305C0937205EB89FC898081B1
:103B40009D89892B808381E001C080E0DF91CF9146
:103B500008951F920F920FB60F9211242F933F9347
:103B60004F935F936F937F938F939F93AF93BF9385
:103B7000EF93FF93E0917205F0917305309709F48C
:103B800051C0868DA685B785958581FF04C08C912F
:103B9000892329F447C08C91892309F043C0A38964
:103BA000B4899C918589809589238C93868997898E
:103BB0000197F1F7208D318DA685B785758558E081
:103BC00040E0C9010197F1F7842F90E09595879522
:103BD000482F6C91672309F04068515091F7868D0A
:103BE00081FD40958091310590E001968F73992772
:103BF00020913005281749F0A0913105B0E0AE5C66
:103C0000BA4F4C938093310503C0868D8160868FB7
:103C1000828D938D0197F1F7A389B4898C91958951
:103C2000892B8C93FF91EF91BF91AF919F918F91D1
:103C30007F916F915F914F913F912F910F900FBEA8
:103C40000F901F90189528E133E0FC013183208309
:103C50000C946A1D1F93CF93DF93EC01162F6E8D8A
:103C60006695617081E06827812F0E94C52D61E013
:103C7000812F0E948C2D812F90E0FC01EC5AF34F94
:103C8000E491E88BFC01E859F34FE491F0E0EE0F8A
:103C9000FF1FEA57F34F859194919A8B898BDF919F
:103CA000CF911F9108951F93CF93DF93EC01162FAF
:103CB00060E0812F0E948C2D8E8D81FD04C061E01B
:103CC000812F0E94C52D1C87812F90E0FC01EC5AAA
:103CD000F34FE491ED87FC01E859F34FE491F0E0F4
:103CE000EE0FFF1FE458F34F859194919F878E87C5
:103CF000DF91CF911F910895FF920F931F93CF9360
:103D0000DF93EC01F62E522F1B821A8208EE13E08D
:103D100020E030E00C831D832E833F8388E193E015
:103D2000998388831F8A1E8A198E188E1B8E1A8E7D
:103D30001D8E1C8E8E8D8E7F50FB81F98E8F642F91
:103D4000CE010E942A1E6F2DCE01DF91CF911F91CF
:103D50000F91FF900C94531ECF93DF93EC019A01C7
:103D6000AB011B8E1A8E198E188E1F8A1E8A60E078
:103D700079E08DE390E00E941C34C90124303105C4
:103D800020F0B9016350710902C061E070E07D8FDD
:103D90006C8FEC85E63108F068C0B90176956795BF
:103DA0006431710518F06351710902C061E070E07F
:103DB0007F8B6E8B069718F0C901059702C081E0D2
:103DC00090E0998F888FC901880F991F820F931FE8
:103DD00096958795969587958D30910510F00C975F
:103DE00002C081E090E09B8F8A8F20916800E830CC
:103DF00050F091E0EE3008F490E081E001C0880FCF
:103E00009A95EAF701C084E0822B809368002C85A4
:103E1000283038F02E3040F0263148F48CE690E01F
:103E200008C08DE690E005C08BE690E002C080E01F
:103E300090E09C8B8B8B283030F481E001C0880FA0
:103E40002A95EAF70DC0822F90E02E3010F40897E3
:103E500001C00E9791E001C0990F8A95EAF7892F6A
:103E60008D8B8C8D9D8D0197F1F7CE01DF91CF91D8
:103E70000C94801DDC011C968D919C911D97DC019A
:103E8000ED91FC910680F781E02D0994DC011C96F0
:103E90008D919C911D97DC01ED91FC910480F58141
:103EA000E02D0994DC011C968D919C911D97DC01FD
:103EB000ED91FC910284F385E02D0994DC011C96C0
:103EC0008D919C911D97DC01ED91FC910084F18511
:103ED000E02D09942F923F924F925F926F927F92C2
:103EE0008F929F92AF92BF92CF92DF92EF92FF920A
:103EF0000F931F93CF93DF93CDB7DEB760970FB6C5
:103F0000F894DEBF0FBECDBF2B013C0169014A30E2
:103F100021F5CE0101961C01E12CF12C5AE0852EF1
:103F2000912CA12CB12CC301B201A50194010E94D6
:103F3000FA339FEFE91AF90A80E3840DEAE02E9F35
:103F400080191124F10181931F01211531054105CB
:103F50005105C9F129013A01E6CFFE01319680E011
:103F600090E0B301A2014F705527662777279C0187
:103F70002F5F3F4F4A3051056105710510F4A0E3F2
:103F800001C0A1E44A0F419344E0769467945794AA
:103F900047944A95D1F7411451046104710411F01A
:103FA000C901DFCFE1E0F0E0EC0FFD1FE20FF31FEE
:103FB00048E740837C01F3E0EF0EF11CFE01E80FBF
:103FC000F91F20E3238321E0E21AF108F60180E0E3
:103FD00090E0015011090196A1E0B0E0AC0FBD1FC7
:103FE000AE0DBF1D2C9121931E141F04ECF0F601A1
:103FF000E80FF91F108260960FB6F894DEBF0FBE6F
:10400000CDBFDF91CF911F910F91FF90EF90DF9087
:10401000CF90BF90AF909F908F907F906F905F9068
:104020004F903F902F90089521E0E21AF1088017F9
:104030009107ECF6D0CFCF92DF92EF92FF920F93E1
:104040001F93FC0140E060E070E0CB010191002390
:1040500009F449C020ED200F2A30B0F414E0660FB7
:10406000771F881F991F1A95D1F76053710981092D
:104070009109C02EDD24C7FCD094ED2CFD2C6C0DD5
:104080007D1D8E1D9F1DE2CF2FE9200F263060F48D
:10409000B4E0660F771F881F991FBA95D1F767554F
:1040A0007109810991090FC02FEB200F2630A8F468
:1040B000A4E0660F771F881F991FAA95D1F7675351
:1040C000710981099109112707FD1095212F312FC1
:1040D000600F711F821F931FB9CF083721F4411160
:1040E00002C041E0B3CF1F910F91FF90EF90DF909E
:1040F000CF9008950F931F93FC0160E070E0CB0117
:10410000019120ED200F2A30A0F4AAE0B0E09B013D
:10411000AC010E9441346053710981099109112752
:1041200007FD1095212F312F600F711F821F931FE4
:10413000E7CF1F910F910895DC01A95ABF4F2D9130
:104140003C911197FC01E75AFF4F408151812417A0
:10415000350764F434970190F081E02DA9014F5F99
:104160005F4F4D935C93E20FF31F6083FC01EC5BA8
:10417000FF4F80819181DC01ED91FC910190F081F4
:10418000E02D09948C5B9F4FDC018D919C91DC01AB
:10419000ED91FC910284F385E02D0994DC011C96DD
:1041A0008D919C911D97009739F0DC01ED91FC9168
:1041B0000190F081E02D099480E090E00895209135
:1041C000850521110CC0FC01EC5BFF4F80819181C2
:1041D000DC01ED91FC910084F185E02D0994E091E2
:1041E0008605F0E0E857FA4F8081992787FD909582
:1041F0000895DC01ED91FC910190F081E02D09948E
:104200004F925F926F927F92AF92BF92CF92DF9266
:10421000EF92FF920F931F93CF93DF93EC015B011B
:104220006A010E94D12C2B013C01E12CF12C8E0162
:104230000C5B1F4F0E94D12C6419750986099709E0
:104240006C157D058E059F05A0F5D8018D919C917B
:10425000DC01ED91FC910480F581E02D09951816A3
:10426000190644F7F80180819181DC01ED91FC9100
:104270000680F781E02D0995F5018083DE01A95ABA
:10428000BF4F2D913C911197FE01E75AFF4F40819E
:104290005181241735077CF4CB5ADF4FE881F9812F
:1042A000A9014F5F5F4F4D935C93E20FF31F808333
:1042B00002C080E001C081E0DF91CF911F910F919A
:1042C000FF90EF90DF90CF90BF90AF907F906F9076
:1042D0005F904F900895EF92FF920F931F93CF93AB
:1042E000DF931F92CDB7DEB78C017B01A701BE0122
:1042F0006F5F7F4FC8010E9400218111F7CF0F909F
:10430000DF91CF911F910F91FF90EF900895FF9251
:104310000F931F93CF93DF938C0190918505992381
:1043200009F1442321F06F5F7F4F81E001C080E0FD
:1043300020918605820FFB01BF01382F321B3917F0
:10434000A8F434913323C1F1893010F4A82F01C0AF
:10435000A0E031968F5FB0E0A857BA4F4C91431759
:1043600059F340C0411102C06F5F7F4FFB01F490D1
:10437000EB0121966091870570E068577A4F44EF12
:1043800051E0C8010E94002180918705E82FF0E0EC
:10439000E857FA4F2081909185058F5F2F1114C047
:1043A0008830E8F4809387059F5F90938505FE0130
:1043B000F4902196F110DECF1092850510928605BB
:1043C0001092870581E00FC0883018F4809387052C
:1043D00002C0109287059F5F9093850503C01092DD
:1043E0008705E2CF80E0DF91CF911F910F91FF9081
:1043F0000895CF93DF93EC01462F64EC7AE00E949E
:104400008721882319F01CAE81E001C080E0DF9194
:10441000CF910895CF93DF93EC0180918505882398
:1044200081F0E091860591E09E0F90938605F0E083
:10443000E857FA4F208130E0983068F110928605F5
:104440002AC0FE01EC5BFF4F80819181DC01ED9180
:10445000FC910680F781E02D09959C018CAD8823A5
:10446000E9F02A323105D1F460E0CE010E94F92151
:10447000811116C0E091860581E08E0F809386053C
:10448000F0E0E857FA4F208130E0883010F01092C9
:10449000860580918505815080938505C90102C0FC
:1044A0008FEF9FEFDF91CF910895CF93DF93EC01D2
:1044B000462F6DEB7AE00E948721882319F081E076
:1044C0008CAF01C080E0DF91CF910895EF92FF9211
:1044D0000F931F93CF93DF938C01EC01CC5BDF4FE5
:1044E00088819981DC01ED91FC910480F581E02DBA
:1044F00009957C01181619065CF588819981DC0103
:10450000ED91FC910084F185E02D09958A9701F5E4
:10451000F80184AD61E0882331F0C8010E94F921DF
:10452000882321F012C0C8010E9455220091850500
:1045300010E088819981DC01ED91FC910480F58186
:10454000E02D0995800F911F09C08FEF9FEF06C0E6
:1045500080918505F701E80FF11DCF01DF91CF9123
:104560001F910F91FF90EF900895CB0165E775E0E3
:104570000E94E83621E0892B09F420E0822F08957B
:104580008F929F92AF92BF92CF92DF92EF92FF9263
:104590000F931F93CF93DF931F92CDB7DEB76C01BC
:1045A0007B015A016115710529F1FB018081882386
:1045B00009F18B014B01FFEF8F1A9F0AA501BE0184
:1045C0006F5F7F4FC6010E9400218823A1F089817F
:1045D000F8019081891303C00F5F1F4F07C0F701D7
:1045E0009081891302C0840101C08701F801808194
:1045F0008111E4CF81E00F90DF91CF911F910F9156
:10460000FF90EF90DF90CF90BF90AF909F908F90F2
:1046100008957F928F929F92AF92BF92CF92DF9236
:10462000EF92FF920F931F93CF93DF931F92CDB71B
:10463000DEB76C017B015A01FB0174907720B9F061
:104640008B014B01FFEF8F1A9F0AA501BE016F5F1F
:104650007F4FC6010E9400218823C1F029812711C4
:1046600008C00F5F1F4FF80174907110EECF81E00A
:104670000DC0F7018491332727FD309590E028176E
:10468000390711F48401EFCF8701EDCF0F90DF914F
:10469000CF911F910F91FF90EF90DF90CF90BF903F
:1046A000AF909F908F907F9008954F925F926F92FE
:1046B0007F929F92AF92BF92CF92DF92EF92FF9242
:1046C0000F931F93CF93DF931F92CDB7DEB77C017B
:1046D000962EA72EB42E69014DB65EB6242F30E07B
:1046E000C901880F991F820F931F2DB73EB7281B52
:1046F000390B0FB6F8943EBF0FBE2DBF8DB79EB7D6
:1047000001963C01E62FF72FDC0120E02B1559F133
:104710001C928191919112969C938E9311972F5F89
:104720001396F4CF1196ED91FC9112974491941742
:1047300081F1F80160817181FB01449150E02417FF
:10474000350731F112967C936E9311971196ED9186
:10475000FC911297E49113960E5F1F4FEE23F9F030
:104760008F5F8B11DFCFA601BE016F5F7F4FC70147
:104770000E940021811102C08FEF11C09981292F61
:10478000332727FD3095092D1A2DD30180E0E9CF7D
:10479000FB0131961296FC93EE931197D7CF0FB68B
:1047A000F8945EBE0FBE4DBE0F90DF91CF911F916A
:1047B0000F91FF90EF90DF90CF90BF90AF909F90C0
:1047C0007F906F905F904F900895CF93DF93EC01AF
:1047D0008D85882391F063EA7AE0CE010E94D7307C
:1047E00044EF51E06CE97AE0CE010E94092388236E
:1047F00011F01D8602C080E001C081E0DF91CF9101
:1048000008955F926F927F928F929F92AF92BF9224
:10481000CF92DF92EF92FF920F931F93CF93DF938C
:104820001F92CDB7DEB76C017B01390100E010E0CB
:104830004A0182E0881A91085A0181E0A81AB10859
:10484000A301BE016F5F7F4FC6010E940021882334
:1048500009F440C059808DE058122DC0A301BE015B
:104860006F5F7F4FC6010E94002189818A3041F429
:10487000E114F104B9F1F701E00FF11F108232C029
:10488000E114F104C1F00815190564F4F80131963A
:10489000D701A00FB11F5C920E5F1F4FEE0DFF1DE1
:1048A000808309C00A151B0534F4F701E00FF11FDE
:1048B00050820F5F1F4F0A151B0514F6E114F10417
:1048C00009F4BECFF701E00FF11F898180830F5FEC
:1048D0001F4FB6CFE114F10439F0F701E00FF11FDB
:1048E000108203C0C80102C080E090E00F90DF9109
:1048F000CF911F910F91FF90EF90DF90CF90BF90DD
:10490000AF909F908F907F906F905F900895CF921F
:10491000DF92EF92FF920F931F93CF93DF931F923B
:10492000CDB7DEB78C0144EF51E0BE016F5F7F4F22
:10493000C8010E9400218823A9F089818C3399F74E
:104940008093750556E7E52E55E0F52EDD24D394CA
:1049500044EF51E0BE016F5F7F4FC8010E9400210C
:10496000811102C080E035C0CC24C394CD0C898174
:10497000F70181937F018E3339F544EF51E0BE0199
:104980006F5F7F4FC8010E940021882359F38981FE
:10499000803241F7AC2DB0E0AB58BA4F8C93D39432
:1049A000D394ED2DF0E0EB58FA4F108281E0809324
:1049B000740524EF31E040E050E060E070E0C801B1
:1049C0000E94012481E005C0FCE0CF1659F2DC2CE6
:1049D000BFCF0F90DF91CF911F910F91FF90EF907C
:1049E000DF90CF900895AB0120917405211102C092
:1049F0000C94872465E775E00C94C022FF920F9316
:104A00001F93CF93DF93EC018D8581116FC06AEF07
:104A100070E080E090E00E94002D69EB7AE0CE012A
:104A20000E94D7306AEF70E080E090E00E94002D95
:104A300044EF51E063EB7AE0CE010E94092381113B
:104A400016C0FE01EC5BFF4F80819181DC01ED918E
:104A5000FC910190F081E02D6DE0099564EF71E02B
:104A6000CE010E94F32481113AC015E01EC080914E
:104A70007405811134C065E0F62E8E010C5B1F4F6A
:104A8000F80180819181DC01ED91FC910190F08130
:104A9000E02D6DE0099564EF71E0CE010E94F324F2
:104AA00081111DC0FA9461F7CCCF6AEF70E080E00D
:104AB00090E00E94002D6FEA7AE0CE010E94D7308C
:104AC0006AEF70E080E090E00E94002D44EF51E03A
:104AD00069EA7AE0CE010E940923882319F081E077
:104AE0008D8705C0115009F780E001C081E0DF919A
:104AF000CF911F910F91FF900895FC012389348974
:104B000021503109348B238B232B11F40C94E52392
:104B100081E00895FC0186850895CF92DF92EF929F
:104B2000FF920F931F93CF93DF9300D000D0CDB7A8
:104B3000DEB77C018B016A0181E59AE09A83898363
:104B40008BE49AE09C838B8324EF31E042E0BE014A
:104B50006F5F7F4FC7010E945523813091F0811113
:104B600008C024EF31E0A601B801C7010E9401246A
:104B700006C0A60161E47AE0C8010E94983680E090
:104B800001C081E00F900F900F900F90DF91CF91B7
:104B90001F910F91FF90EF90DF90CF900895CF93EA
:104BA000DF93EC0165E479E00E94D73064E670E0C1
:104BB000CE010E946B211FAE81E0DF91CF9108955D
:104BC000AF92BF92CF92DF92EF92FF920F931F931B
:104BD000CF93DF93CDB7DEB760970FB6F894DEBF03
:104BE0000FBECDBF5C016A017B0100E110E09E01B8
:104BF0002F5F3F4F4AE0C701B6010E946A1FC501FF
:104C00000E946A2600E020E030E0AE014F5F5F4F77
:104C10006DE379E0C5010E949928882351F0C50110
:104C20000E947D25F501C786D08AE18AF28A81E05B
:104C300004C0C5010E947D2580E060960FB6F894FF
:104C4000DEBF0FBECDBFDF91CF911F910F91FF90BF
:104C5000EF90DF90CF90BF90AF900895CF93DF9308
:104C6000EC018E85882399F11E866EE77AE0CE01ED
:104C70000E94D730CE010E94FE2440E157E26AE74D
:104C80007AE0CE010E94092381110CC04F8558891A
:104C900069897A89CE010E94E025CE01DF91CF910A
:104CA0000C947D2568EE73E080E090E00E94002D7A
:104CB0004F85588969897A89CE010E94E025CE0105
:104CC0000E947D25CE01DF91CF910C942A29DF919E
:104CD000CF910895CF93DF93EC010E942E268D850E
:104CE000882339F08B899C8901969C8B8B8B81E082
:104CF00005C0CE010E94FE248111F4CFDF91CF9137
:104D00000895CF92DF92EF92FF920F931F93CF936C
:104D1000DF93EC018B016A0179010E946A268823E6
:104D200051F1000F111F000F111F005B1C4FF80104
:104D300060817181CE010E94D730F8016281738158
:104D400044EF51E0CE010E940923882389F024EF2B
:104D500031E0A701B601CE010E94012464EF71E0A9
:104D6000CE010E94F324CE010E947D25C60105C01C
:104D7000CE010E947D2584E293E0DF91CF911F91C7
:104D80000F91FF90EF90DF90CF900895CF93DF9336
:104D9000D62FC72F9A01462F572F60E070E00E9450
:104DA0008126892B49F0ED2FFC2FDF01819188238B
:104DB00029F08A33D1F702C0AD2FBC2F1C928D2F62
:104DC0009C2FDF91CF910895CF93DF93CDB7DEB7BE
:104DD00066970FB6F894DEBF0FBECDBF26E130E078
:104DE000AE014F5F5F4F60E070E00E948126892B2B
:104DF000C1F080E0E1E0F0E0EC0FFD1FE80FF11DF5
:104E00009081992319F08F5F9A33A1F721E030E068
:104E10002C0F3D1F280F311DC9010E947A20CB01A4
:104E200002C080E090E066960FB6F894DEBF0FBE39
:104E3000CDBFDF91CF9108959A01AB0163E070E09F
:104E40000C9481269A01AB0164E070E00C948126F9
:104E50001F93CF93DF93CDB7DEB72B970FB6F894A0
:104E6000DEBF0FBECDBF142F2BE030E0AE014F5F91
:104E70005F4F0E948126892B51F0CE0101961A3096
:104E800019F40E947A2006C00E941B2003C060E033
:104E900070E0CB012B960FB6F894DEBF0FBECDBFEE
:104EA000DF91CF911F91089540E16BE170E00E9486
:104EB0002827862F0895CF93DF93CDB7DEB760976D
:104EC0000FB6F894DEBF0FBECDBF20E130E0AE01DB
:104ED0004F5F5F4F6CE070E00E948126892BE1F10B
:104EE00043E050E06EE67AE0CE0101960E948A36F9
:104EF000892B51F142E050E06BE67AE0CE01019659
:104F00000E948A36892B11F146E050E064E67AE08F
:104F1000CE0101960E948A36892BD1F045E050E0FF
:104F20006EE57AE0CE0101960E948A36892B91F0D7
:104F300046E050E067E57AE0CE0101960E948A36AD
:104F4000892B51F484E009C080E007C081E005C0EE
:104F500082E003C083E001C08FEF60960FB6F89443
:104F6000DEBF0FBECDBFDF91CF910895EF92FF92CC
:104F70000F931F93CF93DF93CDB7DEB760970FB634
:104F8000F894DEBF0FBECDBF8C010E946A26882335
:104F900009F467C064E97AE0C8010E94D73024EFC1
:104FA00031E040E150E0BE016F5F7F4FC8010E94D9
:104FB00001247C01BE016F5F7F4FC8010E94B522B2
:104FC000882361F024EF31E040E150E0BE016F5FE3
:104FD0007F4FC8010E9401247C0105C064EF71E08D
:104FE000C8010E94F32425E0E216F1041CF4CE016E
:104FF000019608C0C7010497E1E0F0E0EC0FFD1F47
:105000008E0F9F1F0E941B20F62EE72E862F8F707B
:10501000F80186AFF4FA882780F987AFE05CFF4F8C
:10502000F5FA882780F980833196F6FA882780F987
:1050300080833196F7FA882780F980838E2D8695B4
:105040008F7031968083C8010E947D25F80186AD5E
:10505000813011F484AF02C0F80114AE8F2D9E2D63
:1050600002C080E090E060960FB6F894DEBF0FBEFD
:10507000CDBFDF91CF911F910F91FF90EF900895D9
:10508000AF92BF92CF92DF92EF92FF920F931F9356
:10509000CF93DF931F92CDB7DEB78C017B016A01FE
:1050A00059010E946A268823B9F162E77AE0C801B3
:1050B0000E94D730B701C8010E9408316CE273E04A
:1050C000C8010E94083148E853E1B701C8010E94B5
:1050D000C0228823C9F044EF51E0BE016F5F7F4FCB
:1050E000C8010E94002124EF31E0A501B601C801EA
:1050F0000E94012464EF71E0C8010E94F324C801FA
:105100000E947D2581E009C064EF71E0C8010E9422
:10511000F324C8010E947D2580E00F90DF91CF919C
:105120001F910F91FF90EF90DF90CF90BF90AF90C5
:105130000895AF92BF92CF92DF92EF92FF920F93BA
:10514000CF93DF93CDB7DEB762970FB6F894DEBF8B
:105150000FBECDBF7C015A016901698B7A8B0E9419
:105160006A2669897A89882309F463C0C7010E9485
:10517000D730C114D10419F160E2C7010E94F920AF
:105180000023C1F0570184E5A80EB11CF60164911B
:105190006623C1F1D701ED91FC910190F081E02DE2
:1051A000603211F4D5016C91C7010995BFEFCB1A9C
:1051B000DB0AECCFB601C7010E94D73023C0A1148F
:1051C000B10401F160E2C7010E94F9200023B1F0AF
:1051D0006701F4E5CF0ED11CF50161915F016623F3
:1051E00089F0D701ED91FC910190F081E02D6032C2
:1051F00011F4D6016C91C7010995EECFB501C70135
:105200000E9408316DE0C7010E94F92040E150E0A2
:10521000BE016F5F7F4FC7010E948D25082F64EF8D
:1052200071E0C7010E94F324C7010E947D25802FF1
:1052300001C080E062960FB6F894DEBF0FBECDBF0E
:10524000DF91CF910F91FF90EF90DF90CF90BF90C3
:10525000AF9008950F93CF93DF93EC0119AE18AE82
:10526000188E00E020E030E040E050E060EF7AE0AF
:105270000E94992820E030E040E050E06DED7AE0B7
:10528000CE010E94992820E030E040E050E06BEC35
:105290007AE0CE010E949928CE010E94B627CE0165
:1052A0000E945B278B7F91E009F490E09D8BCE01FB
:1052B0000E945427CC5ADF4F8883DF91CF910F9102
:1052C0000895CF93DF93EC01FC01EC5BFF4F7183FA
:1052D00060830E94FE24882341F0CE010E942A2987
:1052E000CE01DF91CF910C94E52380E0DF91CF9147
:1052F0000895CF92DF92EF92FF920F931F93CF9377
:10530000DF93CDB7DEB72B970FB6F894DEBF0FBE95
:10531000CDBF7C016B01CA01B901402F0BE010E049
:105320009E012F5F3F4F0E946A1F00E020E030E0A7
:10533000AE014F5F5F4FB601C7010E9499282B96BF
:105340000FB6F894DEBF0FBECDBFDF91CF911F9196
:105350000F91FF90EF90DF90CF9008950F939B01F6
:1053600040E050E00AE063E07AE00E9479290F9182
:1053700008950F93262F30E040E050E000E161EC0B
:1053800079E00E9479290F9108950C94B9290F931F
:10539000262F30E040E050E000E164EB79E00E942D
:1053A00079290F9108950F9300E020E030E040E06C
:1053B00050E066E979E00E9499280F9108950F93D3
:1053C000AB0101E020E030E068E879E00E94992834
:1053D0000F9108950F931F93CF93DF93EC01AB01CF
:1053E000FB0181818F7D883511F44E5F5F4F00E0B6
:1053F00020E030E06BE779E0CE010E949928182F79
:10540000CE010E94D329812FDF91CF911F910F915F
:1054100008950F931F93CF93DF93EC01AB0101E04D
:1054200020E030E06BE679E00E949928182FCE0149
:105430000E94D329812FDF91CF911F910F91089561
:105440000F93CF93DF93EC016115710531F4CE0119
:105450000E946A26882359F00CC09B0140E050E06E
:105460000AE067E87AE00E9479298111F0CF80E0B4
:1054700008C060E87AE0CE010E94D7301D8681E046
:105480008E87DF91CF910F9108951F93CF93DF9374
:10549000EC010E946A268823D9F06BE37AE0CE0102
:1054A0000E94D73044EF51E063E37AE0CE010E94DE
:1054B0000923882339F064EF71E0CE010E94F324C0
:1054C00011E001C010E0CE010E947D25812F01C0B6
:1054D00080E0DF91CF911F910895CF93DF93EC018E
:1054E0000E946A26882301F16BE27AE0CE010E94D5
:1054F000D73044EF51E062E27AE0CE010E94092306
:10550000811104C0CE010E947D250EC068E873E1C0
:1055100080E090E00E94002D1D861C8A1B8ACE012F
:105520000E942A2981E001C080E0DF91CF91089597
:10553000CF92DF92EF92FF920F931F93CF93DF935F
:1055400000D000D0CDB7DEB78C017B016A0184E6C4
:1055500099E09A83898388E599E09C838B83C801CD
:105560000E946A26882309F444C062E579E0C801F4
:105570000E94D730E114F10421F0B701C8010E9464
:10558000083160E579E0C8010E94D730960142E019
:10559000BE016F5F7F4FC8010E945523F82E64E65D
:1055A00070E0C8010E946B2181E0F8121FC0F80171
:1055B000F7AE8589882361F048E95AE36CE479E025
:1055C000C8010E94092364E670E0C8010E946B21B3
:1055D00024EF31E040E050E060E070E0C8010E945C
:1055E0000124C8010E947D2581E004C0C8010E94F9
:1055F0007D2580E00F900F900F900F90DF91CF915D
:105600001F910F91FF90EF90DF90CF9008950F932F
:105610001F93CF93DF93CDB7DEB7C054D1090FB638
:10562000F894DEBF0FBECDBF8C0140E450E0BE0158
:105630006F5F7F4F0E94222740E25EE4BE016F5FF2
:105640007F4FC8010E94982AC05CDF4F0FB6F894C4
:10565000DEBF0FBECDBFDF91CF911F910F91089597
:10566000CF93DF93EC01E881F9810480F581E02D8F
:1056700009958CADDF91CF910895CF93DF93EC0125
:105680008CAD882361F164EF71E0CE010E946B2143
:10569000CE010E946A266AE179E0CE010E94D730ED
:1056A00044EF51E063E179E0CE010E9409238823B1
:1056B00029F0CE010E947D251CAE11C06AEF78E072
:1056C000CE018A5B9F4F0E941531CE010E94B62702
:1056D000CE010E947D258CAD91E0892701C081E03B
:1056E000DF91CF910895BF92CF92DF92EF92FF9218
:1056F0000F931F93CF93DF93CDB7DEB765970FB6A8
:10570000F894DEBF0FBECDBF7C016B018A01B22EC3
:10571000FC0185AD811168C0C7010E946A26F701AE
:1057200084AD882319F0C7010E943D2BB80180E0A9
:1057300090E004E110E09E012F5F3F4F4AE00E949D
:105740006A1F67E379E0C7010E94D730B601C7013D
:105750000E9408316EE273E0C7010E940831BE0169
:105760006F5F7F4FC7010E94083165E379E0C70191
:105770000E94D73064EF71E0C7010E94F3248111C9
:1057800001C0FFCFB11004C081E0F70185AF2DC08B
:1057900040E157E2BE016B5E7F4FC7010E940021CE
:1057A0008823F9F08D898A3271F0833489F78983EF
:1057B00024EF31E043E150E0BE016E5F7F4FC7014F
:1057C0000E9401240EC044EF51E06FE279E0C7016E
:1057D0000E940923882329F081E0F70184AF158610
:1057E00004C0C7010E947D2580E065960FB6F8943D
:1057F000DEBF0FBECDBFDF91CF911F910F91FF9004
:10580000EF90DF90CF90BF900895CF93DF93EC019E
:1058100064EF71E00E946B21CE010E946A2663EF63
:1058200078E0CE010E94D73044EF51E06CEE78E092
:10583000CE010E940923882331F0CE010E947D25EC
:105840001CAE81E00BC0CE010E947D2563ED78E0A7
:10585000CE018A5B9F4F0E94153180E0DF91CF918E
:105860000895FC011382128248EE53E060E070E07C
:10587000448355836683778384E493E091838083B4
:10588000158614860895CF93DF93EC011B821A824C
:1058900048EE53E060E070E04C835D836E837F836D
:1058A00084E393E099838883CE018A5B9F4F0E94B3
:1058B000312C1D861E861C8A1B8A1CAE1DAE81E003
:1058C0008D8B8E8BFE01EB5AFF4F11821082329628
:1058D00011821082C75ADF4F19821882DF91CF914F
:1058E00008950F9300E020E040E060E080E995E05B
:1058F0000E947E300F9108950F9300E020E040E079
:1059000060E086E995E00E947E300F9108951F9235
:105910000F920FB60F9211242F933F938F939F9363
:10592000AF93BF9380919D0590919E05A0919F0597
:10593000B091A00530919C0523E0230F2D3720F472
:105940000196A11DB11D05C026E8230F0296A11DD9
:10595000B11D20939C0580939D0590939E05A09377
:105960009F05B093A0058091A1059091A205A091FB
:10597000A305B091A4050196A11DB11D8093A105B9
:105980009093A205A093A305B093A405BF91AF91F6
:105990009F918F913F912F910F900FBE0F901F906D
:1059A00018952FB7F89460919D0570919E05809190
:1059B0009F059091A0052FBF08953FB7F89480915F
:1059C000A1059091A205A091A305B091A40526B5CB
:1059D000A89B05C02F3F19F00196A11DB11D3FBF27
:1059E0006627782F892F9A2F620F711D811D911DB7
:1059F00042E0660F771F881F991F4A95D1F70895D7
:105A0000CF92DF92EF92FF92CF93DF936B017C01F5
:105A10000E94DD2CEB01C114D104E104F10489F0F2
:105A20000E94D1330E94DD2C6C1B7D0B683E7340BD
:105A300090F381E0C81AD108E108F108C851DC4FA1
:105A4000EACFDF91CF91FF90EF90DF90CF90089554
:105A5000789484B5826084BD84B5816084BD85B549
:105A6000826085BD85B5816085BDEEE6F0E0808110
:105A700081608083E1E8F0E0108280818260808331
:105A8000808181608083E0E8F0E0808181608083B4
:105A9000E1EBF0E0808184608083E0EBF0E08081E6
:105AA00081608083EAE7F0E0808184608083808188
:105AB0008260808380818160808380818068808330
:105AC0001092C1000895833081F028F4813099F05C
:105AD0008230A1F008958730A9F08830B9F0843081
