:100000000C9449060C9471060C9471060C943E1BDA
:100010000C943E1B0C943E1B0C9471060C947106C0
:100020000C9471060C9471060C9471060C94710674
:100030000C9471060C9471060C9471060C94710664
:100040000C94ED2C0C9471060C940F300C944130F0
:100050000C9471060C9471060C9471060C94710644
:100060000C9471060C9471060A0D5265626F6F74E0
:10007000696E6720576946692E2E2E000A0D52655B
:10008000626F6F74204D6963726F566965772026C1
:10009000205769466920746F20736574206E6577F8
:1000A00020706F72742E00494E434F4D494E470ADF
:1000B00043414C4C00434F4E4E45435400434F4E3A
:1000C0004E45435420333834303000434F4E4E4574
:1000D000435420313932303000434F4E4E45435463
:1000E000203936303000434F4E4E4543542034388B
:1000F000303000434F4E4E454354203234303000B0
:10010000434F4E4E454354203132303000434F4E22
:100110004E454354000D0A52494E47004552524F36
:1001200052004F4B004175746F73746172743A20C2
:10013000003A004E4F2043415252494552004F4B26
:10014000004F4B004F4B004F4B000D0A5072657330
:100150007320616E79206B657920746F2063616E06
:1001600063656C2E2E2E004175746F2D636F6E6E5D
:10017000656374696E6720746F3A0D0A005769668B
:10018000693A256C640A0A4336343A20256C6400C7
:10019000576966693A256C640A0A4336343A202561
:1001A0006C640A0A5254533A20256C64002A2A2AA5
:1001B000205465726D696E616C204D6F64652028F6
:1001C000446562756729202A2A2A004E4F20434140
:1001D0005252494552004255535900436F6E6E6565
:1001E0006374204661696C65642100436F6E6E65BF
:1001F0006374656420746F202573004E4F20434163
:100200005252494552004E4F204449414C544F4EA2
:100210004500436F756C64206E6F74207265736F58
:100220006C766520444E532E2020436F6E6E6563BE
:1002300074204661696C656421000D0A436F6E6E1F
:10024000656374696E6720746F2025730077777714
:100250002E636F6D6D6F646F726573657276657214
:100260002E636F6D004353333800712D6C696E6BD4
:100270002E6E6574003535353132313300716C695D
:100280006E6B2E6C796F6E6C6162732E6F7267008D
:100290003535353132313200534156454420494ECF
:1002A00049543A2020000D0A204525645125645602
:1002B000256426432564582564264B25642653254A
:1002C000640D0A2053303D25642053323D256420BF
:1002D0005339393D25640043555252454E54204907
:1002E0004E49543A000D0A2045256451256456258F
:1002F0006426432564582564264B256426532564CB
:100300000D0A2053303D25642053323D256420538F
:1003100039393D2564004C495354454E20504F52C5
:10032000543A20004649524D574152453A20202028
:10033000200057492D464920535349443A20200074
:10034000495020414444524553533A2020004D41E6
:100350004320414444524553533A20000D434F4DEE
:100360004D4F444F52452057492D4649204D4F444B
:10037000454D20484159455320454D554C41544920
:100380004F4E0057492D4649204641494C4544218E
:100390000057492D4649204F4B210057492D4649CA
:1003A00020494E49542E2E2E00256C640042617562
:1003B000640A446574656374696F6E00636C6F737F
:1003C000653A206661696C65642C206E6F202A4353
:1003D0004C4F532A002A434C4F532A00636C6F73CF
:1003E000650D00636C6F73653A206661696C6564C6
:1003F0002C206E6F202A434C4F532A002A434C4F27
:10040000532A00636C6F73650D004F50454E2A00F0
:10041000302E302E302E30004F50454E2A000D0029
:100420006F70656E200073657420752069006C65BF
:100430006176650D0047573D000D006A6F696E20BB
:10044000004173736F6369617465642100464149BB
:100450004C45440073657420776C616E207068723F
:100460006173650073657420776C616E206B6579CC
:100470000073657420776C616E2073736964007318
:10048000657420776C616E20686964652031007343
:1004900065742075617274206D6F64650073657496
:1004A00020697020666C61677300736574206970E1
:1004B0002070726F746F636F6C0073657420697065
:1004C0002064686370007365742069702072656DC4
:1004D0006F74650073657420697020686F737400B1
:1004E00073657420697020686F737400736574207D
:1004F0006970206C6F63616C706F727400736574E7
:1005000020776C616E206A6F696E002A5265626F97
:100510006F742A007265626F6F740D0053746F728E
:10052000696E6700736176650D003C74696D656F77
:1005300075743E00414F4B0D0A004552523A20005F
:100540005345525645520043414348450041555496
:100550004F4950004F4E004F4646006C6F6F6B7511
:1005600070200047573D000D00736C6565700D00ED
:10057000736574207379732077616B650073686F9E
:100580007720630D00455849540D0A006578697459
:100590000D00434D440D0A0024242400434D440D16
:1005A0000A00242424002A4F50454E2A002A434C96
:1005B0004F532A0073657420636F6D6D2072656DF3
:1005C0006F746520300073657420737973207072C6
:1005D000696E746C766C2030007365742075206DC4
:1005E0002031005265706C6163653D005478506F36
:1005F0007765723D00526174653D004A6F696E3DDA
:10060000005265626F6F743D0050726F62653D000D
:10061000426561636F6E3D00676574206164686F59
:10062000630D0050524F544F3D00464C4147533DDF
:10063000307800525353493D282D0073686F77205E
:10064000727373690D00466C75736853697A653D02
:10065000004D61746368436861723D00466C757358
:100660006854696D65723D0067657420636F6D6DD8
:100670000D004D6F64653D005254433D0073686F3B
:1006800077207420740D00416464726573733D00BB
:1006900067657420646E730D0054696D653D005587
:1006A0007054696D653D0073686F772074696D657E
:1006B0000D005A6F6E653D006765742074696D6545
:1006C0000D0042617564726174653D006765742058
:1006D000750D0044657669636549643D006765741E
:1006E000206F70740D00535349443D0067657420BA
:1006F000776C616E0D004D616320416464723D0052
:10070000676574206D61630D00444843503D0048A7
:100710004F53543D0047573D004E4D3D0049503D1D
:10072000006765742069700D00050800FF0C4B0020
:10073000000000003E5B4F5B3E3E6B4F6B3E1C3E3D
:100740007C3E1C183C7E3C181C577D571C1C5E7F51
:100750005E1C00183C1800FFE7C3E7FF00182418D0
:1007600000FFE7DBE7FF30483A060E262979292605
:10077000407F050507407F05253F5A3CE73C5A7FEF
:100780003E1C1C08081C1C3E7F14227F22145F5F45
:10079000005F5F06097F017F006689956A6060607F
:1007A000606094A2FFA29408047E040810207E20BA
:1007B0001008082A1C08081C2A08081E101010100F
:1007C0000C1E0C1E0C30383E3830060E3E0E060055
:1007D0000000000000005F00000007000700147F19
:1007E000147F14242A7F2A12231308646236495680
:1007F00020500008070300001C2241000041221C79
:10080000002A1C7F1C2A08083E080800807030005F
:100810000808080808000060600020100804023E74
:100820005149453E00427F400072494949462141B5
:10083000494D331814127F1027454545393C4A4924
:100840004931412111090736494949364649492963
:100850001E00001400000040340000000814224173
:100860001414141414004122140802015909063EFC
:10087000415D594E7C1211127C7F494949363E41F7
:100880004141227F4141413E7F494949417F090918
:1008900009013E414151737F0808087F00417F41B3
:1008A000002040413F017F081422417F40404040EA
:1008B0007F021C027F7F0408107F3E4141413E7F42
:1008C000090909063E4151215E7F09192946264939
:1008D00049493203017F01033F4040403F1F204010
:1008E000201F3F4038403F6314081463030478041A
:1008F000036159494D43007F4141410204081020E2
:10090000004141417F040201020440404040400058
:100910000307080020545478407F28444438384462
:10092000444428384444287F385454541800087EDE
:10093000090218A4A49C787F0804047800447D4030
:10094000002040403D007F1028440000417F4000CF
:100950007C047804787C080404783844444438FCE7
:100960001824241818242418FC7C0804040848546B
:1009700054542404043F44243C4040207C1C204028
:10098000201C3C4030403C44281028444C9090901F
:100990007C4464544C440008364100000077000059
:1009A000004136080002010204023C2623263C1EB8
:1009B000A1A161123A4040207A385454555921552A
:1009C000557941215454784121555478402054554B
:1009D00079400C1E52721239555555593954545498
:1009E0005939555454580000457C410002457D4218
:1009F0000001457C40F0292429F0F0282528F07CCE
:100A0000545545002054547C547C0A097F4932498E
:100A10004949323248484832324A4848303A4141DE
:100A2000217A3A42402078009DA0A07D3944444478
:100A3000393D4040403D3C24FF2424487E494366E4
:100A40002B2FFC2F2BFF0929F620C0887E090320BD
:100A5000545479410000447D413048484A3238407E
:100A600040227A007A0A0A727D0D19317D262929E1
:100A70002F28262929292630484D402038080808E3
:100A80000808080808382F10C8ACBA2F102834FA04
:100A900000007B000008142A142222142A1408AA39
:100AA000005500AAAA55AA55AA000000FF00101080
:100AB00010FF00141414FF001010FF00FF1010F0BE
:100AC00010F0141414FC001414F700FF0000FF00D1
:100AD000FF1414F404FC141417101F10101F101F1F
:100AE0001414141F00101010F0000000001F10104C
:100AF00010101F10101010F010000000FF10101048
:100B0000101010101010FF10000000FF140000FF64
:100B100000FF00001F10170000FC04F4141417104D
:100B2000171414F404F40000FF00F7141414141440
:100B30001414F700F7141414171410101F101F14B6
:100B40001414F4141010F010F000001F101F000017
:100B5000001F14000000FC140000F010F01010FF43
:100B600010FF141414FF141010101F00000000F0E8
:100B700010FFFFFFFFFFF0F0F0F0F0FFFFFF0000BD
:100B8000000000FFFF0F0F0F0F0F38444438447C64
:100B90002A2A3E147E02020606027E027E02635567
:100BA0004941633844443C04407E201E2006027EB6
:100BB000020299A5E7A5991C2A492A1C4C720172C8
:100BC0004C304A4D4D303048784830BC625A463D32
:100BD0003E494949007E0101017E2A2A2A2A2A44E7
:100BE000445F444440514A444040444A514000001C
:100BF000FF0103E080FF000008086B6B0836123627
:100C00002436060F090F0600001818000000101007
:100C1000003040FF0101001F01011E00191D1712C5
:100C2000003C3C3C3C0000000000000000080002CA
:100C300001000003040700000000000000000102A2
:100C4000040810204080010204081020010204085A
:100C50001020040404040404040402020202020238
:100C60000303030303030000000023002600290000
:100C700000000000250028002B00000000002400D8
:100C800027002A009E0CE3291D2AE22C6730F03051
:100C9000C90C11241FBECFEFD8E0DEBFCDBF13E0DB
:100CA000A0E0B1E0EAE9F4E702C005900D92AA3BAA
:100CB000B107D9F726E0AAEBB3E001C01D92A63236
:100CC000B207E1F71CE0C0E9DCE004C02297FE01B6
:100CD0000E946434C438D107C9F70E9497180C9455
:100CE000403A0C940000CF92DF92EF92FF920F9364
:100CF0001F93E82FF92F05C001501109210931096F
:100D000061F1908196239417B9F305C00150110940
:100D10002109310911F1908196239413F7CFC12C49
:100D2000D12CE12CF12C0AC08FEFC81AD80AE80A9E
:100D3000F80A0C151D052E053F0579F080818623E4
:100D4000841791F36C2D7D2D8E2D9F2D1F910F916A
:100D5000FF90EF90DF90CF90089560E070E080E02A
:100D600090E01F910F91FF90EF90DF90CF9008954A
:100D70000C944D39CF93DF93EC0160E087E695E06A
:100D80000E942A2C40E060E087E695E00E942C2A31
:100D9000BE0187E695E00E948D3187E695E0DF9100
:100DA000CF910C94392CCF93DF93EC0160E087E670
:100DB00095E00E942A2C40E060E087E695E00E94E2
:100DC0002C2ABE0187E695E00E949F3187E695E0D8
:100DD000DF91CF910C94392CBC0186ED94E00C94FA
:100DE0006031CF93DF9300D000D000D0CDB7DEB715
:100DF000BC01CE0101960E946833CE0101960E948B
:100E0000EC06CE0101960E94763286ED94E00E94B7
:100E1000773126960FB6F894DEBF0FBECDBFDF91B7
:100E2000CF9108950F931F93CF93DF9300D000D0FD
:100E300000D0CDB7DEB78C01BC01CE0101960E9477
:100E40006833CE0101960E94F106CE0101960E9400
:100E500076324AE060E2C8010E94EA33B801CE016E
:100E600001960E946833CE0101960E94BA06CE0117
:100E700001960E94763226960FB6F894DEBF0FBE1A
:100E8000CDBFDF91CF911F910F91089586ED94E032
:100E90000C947731883041F0843131F091E08F3714
:100EA00009F090E0892F089581E008957F928F9254
:100EB0009F92AF92BF92CF92DF92EF92FF920F93E9
:100EC0001F93CF93DF93CDB7DEB7CA56D1090FB6C4
:100ED000F894DEBF0FBECDBFF82E0E9446078BE709
:100EE00094E00E947B2444E150E0BE016F5A7F4FA2
:100EF0008BE794E00E94B32444E150E0BE01635CC0
:100F00007F4F8BE794E00E945D2444E150E0BE01F6
:100F1000675D7F4F8BE794E00E94B9248BE794E0F4
:100F20000E947B249093BF038093BE036EE473E022
:100F30008E010F5F1F4FC8010E949E33C8010E949F
:100F4000EC06C8010E947632BE016F5A7F4FC8017D
:100F50000E94E432C8010E94F106C8010E94763264
:100F600060E473E0C8010E949E33C8010E94EC0651
:100F7000C8010E947632BE01635C7F4FC8010E94A7
:100F8000E432C8010E94F106C8010E94763262E391
:100F900073E0C8010E949E33C8010E94EC06C8019C
:100FA0000E947632BE01675D7F4FC8010E94E43225
:100FB000C8010E94F106C8010E94763264E273E023
:100FC000C8010E949E33C8010E94EC06C8010E941D
:100FD000763267E972E0C8010E94E432C8010E94DB
:100FE000F106C8010E94763266E173E0C8010E94F2
:100FF0009E33C8010E94EC06C8010E9476326091BF
:10100000BE037091BF034AE050E086ED94E00E9479
:10101000543286ED94E00E947731F110C8C080917F
:1010200068041F928F9320910901822F992787FDD1
:1010300090959F932F9380916A041F928F93809134
:10104000C0031F928F938091C2031F928F93809150
:1010500069041F928F938091C1031F928F93809197
:101060000A011F928F9380916B041F928F9380913E
:101070000B011F928F9385EE92E09F938F931F93A6
:101080000F930E94593767ED72E0CE018B599F4F45
:101090000E949E33CE018B599F4F0E94EC06CE01D9
:1010A0008B599F4F0E947632B801CE018B599F4FCA
:1010B0000E94E432CE018B599F4F0E94F106CE016F
:1010C0008B599F4F0E94763283E190E00E94B806D0
:1010D000782E8FE090E00E94B806882E8EE090E097
:1010E0000E94B806982E84E190E00E94B806A82ECF
:1010F0008BE090E00E94B806B82E82E190E00E945A
:10110000B806C82E81E190E00E94B806D82E8CE087
:1011100090E00E94B806E82E8DE090E00E94B806AC
:10112000F82E8AE090E00E94B8061F927F921F92EC
:101130008F921F929F921F92AF921F92BF921F9207
:10114000CF921F92DF921F92EF921F92FF921F92F7
:101150008F9386EA92E09F938F931F930F930E9441
:1011600059370FB6F894DEBF0FBECDBF68E972E005
:10117000CE018B599F4F0E949E33CE018B599F4FBA
:101180000E94EC06CE018B599F4F0E947632B80127
:10119000CE018B599F4F0E94E432CE018B599F4F55
:1011A0000E94F106CE018B599F4F0E947632C6599C
:1011B000DF4F0FB6F894DEBF0FBECDBFDF91CF91EA
:1011C0001F910F91FF90EF90DF90CF90BF90AF9065
:1011D0009F908F907F9008952091C2032223D1F099
:1011E00041E026B125FB882780F990E02091070196
:1011F000242730E08217930739F42091B0002F7D27
:101200002093B0005B9AEDCF8091B0008F7D8093EA
:10121000B0005B980895CF938091C203882381F03A
:10122000C1E04A9B07C0609107016C278FE00E94D4
:101230002B2EF7CF609107018FE0CF910C942B2ECE
:10124000CF910895CF93DF93EC01E881F981048079
:10125000F581E02DCE010995892BB9F3E881F9815B
:101260000680F781E02DCE01DF91CF9109948F9216
:101270009F92AF92BF92CF92DF92EF92FF92CF9365
:10128000DF93EC014B010E94372D6B017C01A12CF7
:10129000B12CE881F9810480F581E02DCE0109951A
:1012A000892BC1F40E94372D6C197D098E099F0985
:1012B00086169706A806B90660F78FEF9FEFDF91B5
:1012C000CF91FF90EF90DF90CF90BF90AF909F9025
:1012D0008F900895E881F9810084F185E02DCE0199
:1012E000DF91CF91FF90EF90DF90CF90BF90AF90C4
:1012F0009F908F900994EF92FF920F931F93CF933B
:10130000DF9300D000D000D0CDB7DEB77B01909145
:101310006B04911153C020910A019091BB032223C9
:10132000A1F1992311F16DE886ED94E00E947031EE
:101330006AE886ED94E00E9470318701F8016491BB
:10134000662361F090ED960F9A3008F0605886EDB4
:1013500094E00E9470310F5F1F4FF0CF6DE886ED73
:1013600094E00E9470316AE81AC00E944607B701F3
:10137000CE0101960E949E33CE0101960E94F10695
:10138000CE0101960E94763219C04AE050E0682FE3
:10139000992351F086ED94E00E9469326DE886ED64
:1013A00094E00E9470310AC086ED94E00E94693298
:1013B0006CE972E086ED94E00E946E3187E695E07C
:1013C0000E947731B70187E695E00E947B3187E67E
:1013D00095E00E94392C26960FB6F894DEBF0FBE1A
:1013E000CDBFDF91CF911F910F91FF90EF900895A6
:1013F0006CE171E084E00C947B0981E5E6ECF3E0BC
:10140000DF011D928A95E9F71092C5030895809136
:10141000C10360910801882331F08091C4038111D8
:1014200002C081E0682780E10C942B2E1F93CF939C
:10143000DF93C82F80916904811103C06DE071E0D2
:1014400035C02091110130911201203C82E1380712
:10145000F9F058F4203B84E03807B1F020363940E9
:1014600019F563EF70E08AE022C021158BE438079C
:1014700099F0211586E9380799F020383542A1F412
:1014800069ED70E08CE013C060E071E085E00FC0B2
:1014900066EE70E08BE00BC06BEC70E08EE007C096
:1014A0006DEB70E08CE103C065EB70E081E00E94C1
:1014B0007B098091C103882329F06091080180E1B4
:1014C0000E942B2E8091C003813009F4409A91E054
:1014D000909306011092BC039093C40310920C01E8
:1014E00010926C04CC2349F180E293E00E94B8068C
:1014F000882319F1C0E2D3E0CE010E94B806182F6C
:101500008E3539F469ED72E08BE794E00E946E311C
:101510000EC0682F8BE794E00E947031111107C054
:101520008BE794E0DF91CF911F910C947731219656
:10153000CA3683E0D80701F7F3CFDF91CF911F912F
:101540000895CF92DF92EF92FF92CF93C82F0E941F
:10155000372D6B017C010E94372D685B7B40810930
:1015600091096C157D058E059F0508F44BC08C2FE5
:101570000E94612E892B79F720E432E44FE050E09D
:1015800060E08C2F0E948A2E6D31710581059105D6
:1015900004F16C3371058105910504F1663971051B
:1015A0008105910504F16C3221E0720781059105F6
:1015B000FCF0683522E0720781059105F4F0603B8C
:1015C000744081059105F4F460EB74E080E090E0F4
:1015D0001CC060E076E980E090E017C060E07BE44A
:1015E00080E090E012C060E875E280E090E00DC01D
:1015F00060EC72E180E090E008C060E679E080E0B5
:1016000090E003C060E070E0CB01CF91FF90EF90DD
:10161000DF90CF9008950F931F93CF93DF931F9286
:10162000CDB7DEB78C0169830E94B8066981861741
:1016300041F0C8010F90DF91CF911F910F910C9451
:1016400055390F90DF91CF911F910F910895EF922F
:10165000FF920F931F93CF93DF937C018B01C0E028
:10166000D0E0D801ED91FC91EC0FFD1F6081CE011F
:101670008E0D9F1D0E9455392196C632D10589F7DE
:10168000DF91CF911F910F91FF90EF900895AF924E
:10169000BF92CF92DF92EF92FF920F931F93CF935F
:1016A000DF93CDB7DEB7A8970FB6F894DEBF0FBEB5
:1016B000CDBF6C017B018E010F5F1F4F5E0187E282
:1016C000A80EB11CB801E01AF10AC701800F911FE2
:1016D0006FA378A70E94B806F80181938F016FA1CC
:1016E00078A5EA15FB0589F7C6010E94E432C60118
:1016F000A8960FB6F894DEBF0FBECDBFDF91CF9195
:101700001F910F91FF90EF90DF90CF90BF90AF901F
:101710000895FC012191222331F0DC012C93203229
:10172000C9F30196F7CFFC011082089567E18BE7BA
:1017300094E00E945E2762E08BE794E00C945C27C3
:101740000F931F93CF93DF9300D000D000D0CDB77D
:10175000DEB78C018091BE039091BF038017910783
:10176000F1F1B8018BE794E00E9445278BE794E004
:101770000E94B7271093BF030093BE0380910F010F
:10178000909110018036994081F06CE770E0CE01B5
:1017900001960E949E33CE0101960E94F106CE0171
:1017A00001960E94763281E01BC068E670E0CE01AF
:1017B00001960E949E33CE0101960E94F106CE0151
:1017C00001960E9476328BE794E00E94DF2768E85A
:1017D00073E180E090E00E94662D0E94960B80E00D
:1017E00026960FB6F894DEBF0FBECDBFDF91CF9126
:1017F0001F910F9108958091C003823099F0389A1B
:101800008091C003882319F0813019F00895389A27
:1018100005C0389A8091C403882311F0409A089536
:101820004098089538980895CF93DF931F92CDB7CD
:10183000DEB791E090930C011092C40310926C04F7
:1018400090930B0190930A0110926B0410926A041A
:101850009BE2909309011092C2031092C10310926F
:10186000680489830E94070A8981811107C0109248
:10187000C0030F90DF91CF910C94FB0B0F90DF9181
:10188000CF9108958AE090E00E94B80691E081111E
:1018900001C090E090930B018BE090E00E94B806AD
:1018A00091E0811101C090E09093C2038CE090E040
:1018B0000E94B80691E0811101C090E090930A0166
:1018C0008DE090E00E94B80691E0811101C090E0A7
:1018D00090936B048EE090E00E94B80691E0811135
:1018E00001C090E090936A048FE090E00E94B806F7
:1018F0008093090181E190E00E94B80691E0811196
:1019000001C090E09093C10382E190E00E94B8068C
:101910008093690483E190E00E94B80691E0811110
:1019200001C090E09093680484E190E00E94B806C2
:101930008093C0030E94070A0C94FB0B0F9300E0F6
:1019400020E040E060E085EF94E00E94E43020E099
:1019500046E065E086ED94E00E94111C8BE794E080
:101960000E94B5296BED72E085E794E00E94E432B5
:1019700041E0209111013091120180910F0190916D
:1019800010012817390709F440E04093C3030F9171
:10199000089585E794E00E94763286ED94E00C94F9
:1019A000B81BCF92DF92EF92FF926C0190931001DF
:1019B00080930F018FE795E00E94042F62E070E0B2
:1019C00080E090E00E94662DE12CF12CB701A60189
:1019D0008BE794E00E94772368EE73E080E090E06C
:1019E0000E94662D8FE795E00E94ED2F26E0B7015B
:1019F000A6018FE795E00E948B2F8BE794E0FF9084
:101A0000EF90DF90CF900C947B24BF92CF92DF9227
:101A1000EF92FF920F931F93CF93DF93CDB7DEB773
:101A2000C854D1090FB6F894DEBF0FBECDBF7C01FC
:101A30006B0160E972E08E010F5F1F4FC8010E94C9
:101A40009E33B801C7010E94D733B82EC8010E9447
:101A50007632BB2019F06DE772E011C065E772E0E5
:101A6000C8010E949E33B801C7010E94D733B82E27
:101A7000C8010E947632BB2051F06AE672E0C701CD
:101A80000E947D3336E4C32E34E1D32E64C065E674
:101A900072E0C8010E949E33B801C7010E94D7338B
:101AA000B82EC8010E947632BB2009F454C06DE400
:101AB00072E0C7010E947D3381E08093BA03809178
:101AC00011019091120181159649B1F180E096E9DA
:101AD000909312018093110186ED94E00E94F01A18
:101AE0008FE795E00E94042F68EE73E080E090E0BD
:101AF0000E94662D80911101909112010E94D10CDB
:101B000086ED94E00E94F01A86ED94E00E94CF1CCE
:101B1000409111015091120160E070E086ED94E077
:101B20000E94411C48EE53E060E070E086ED94E0D6
:101B30000E9470320E94960B1092070181E0809300
:101B4000C20368EE73E080E090E00E94662D25E01D
:101B5000C22E26E0D22EF70181818F9380818F9350
:101B60008AE392E09F938F931F9292E3B92EBF92E4
:101B70001F930F930E942937C8010E94D306F701D3
:101B80006081718120E130E0AE014D5C5F4F8BE7F9
:101B900094E00E94D7250FB6F894DEBF0FBECDBFEC
:101BA000811124C062E172E0CE018D5B9F4F0E94E3
:101BB0009E33CE018D5B9F4F0E941207CE018D5B3D
:101BC0009F4F0E94763268EE73E080E090E00E94C2
:101BD000662D80916904823011F0843020F066E037
:101BE00072E086E04BC06BEF71E047C021E0A601D8
:101BF000BE016D5C7F4F8BE794E00E94E52888234F
:101C0000D9F0F70181818F9380818F938BEE91E0E2
:101C10009F938F931F92BF921F930F930E94293718
:101C2000C8010E94D30680E00E94160A0FB6F894FD
:101C3000DEBF0FBECDBF24C06BED71E0CE018D5B6A
:101C40009F4F0E949E33CE018D5B9F4F0E94BA062C
:101C5000CE018D5B9F4F0E94763268EE73E080E08C
:101C600090E00E94662D80916904833020F066ED3B
:101C700071E087E003C06BEC71E083E00E947B09B8
:101C8000C85BDF4F0FB6F894DEBF0FBECDBFDF914C
:101C9000CF911F910F91FF90EF90DF90CF90BF9069
:101CA0000895EF92FF920F931F93CF93DF93CDB7D9
:101CB000DEB72C970FB6F894DEBF0FBECDBF8C01F8
:101CC000BC01CE0107960E94E432F80180818111A7
:101CD00003C00E94F8093DC06AE370E0C8010E9499
:101CE000CF360097C1F0FC0111927F01B801CE01FF
:101CF00001960E94E432BE016F5F7F4FCE010796CE
:101D00000E947133CE0101960E947632C7010E9473
:101D100073368C0102C007E110E0BE01695F7F4F9E
:101D200085E794E00E94513310930E0100930D015A
:101D3000BE01695F7F4FCE0101960E94683340E08B
:101D4000B801CE0101960E94050DCE0101960E94B8
:101D50007632CE0107960E9476322C960FB6F89412
:101D6000DEBF0FBECDBFDF91CF911F910F91FF90CE
:101D7000EF900895CF93DF93EC018FE795E00E94F9
:101D8000042F62E070E080E090E00E94662D8FE713
:101D900095E00E94ED2FAE0160E070E026E08FE755
:101DA00095E0DF91CF910C948B2F80E699E00E9413
:101DB000BA0E8BE794E00C94C523CF93C82F81E033
:101DC00080930C011092C40310926C041092BA0319
:101DD00060E087E695E00E942A2C40E060E087E61C
:101DE00095E00E942C2A8BE794E00E94FD1F01964B
:101DF00029F48BE794E00E94AF2804C08BE794E0BD
:101E00000E947729CC2329F063E371E083E00E94EC
:101E10007B098091C103882339F06091080181E03A
:101E2000682780E10E942B2E8091C003813009F445
:101E30004098CF91089580916C04811103C081E096
:101E40000C94DD0E81E00C94160A81E080936C0402
:101E500065E171E082E00E947B0980916A04439A07
:101E6000882349F06AEF70E080E090E00E94662DE0
:101E700043980C941B0F6AEF70E080E090E00E94A2
:101E8000662D439808951F93CF93DF93EC01162F8F
:101E90006FEF8BE794E00E94331ECD3FD10511F424
:101EA0006DEF01C06BEF8BE794E00E94331E612F52
:101EB0008BE794E0DF91CF911F910C94331E1F9319
:101EC000CF93DF93EC01162F6FEF8BE794E00E9426
:101ED000331ECD3FD10511F46CEF01C06EEF8BE7DF
:101EE00094E00E94331E612F8BE794E0DF91CF9145
:101EF0001F910C94331E6FEF8BE794E00E94331E0A
:101F00006EEF8BE794E00E94331E62E28BE794E071
:101F10000E94331E6FEF8BE794E00E94331E6EEF3A
:101F20008BE794E00E94331E61E08BE794E00C9411
:101F3000331ECF93DF938091060181110E947B0FA6
:101F40008BE794E00E942209EC018F3F910519F480
:101F50008091BC033AC08C3F910521F124F48B3F62
:101F6000910541F031C08D3F910521F08E3F9105E3
:101F7000C9F02AC08BE794E00E942209009749F03B
:101F800083309105E9F463E070E0CE010E94430FD5
:101F90001BC060E070E0CE010E94430F81E080939F
:101FA000BC0312C08BE794E00E942209009741F421
:101FB00060E070E0CE010E945F0F1092BC0304C08D
:101FC000BC01CE010E945F0F80E0DF91CF910895A8
:101FD000CF93DF93CDB7DEB7E8970FB6F894DEBFA7
:101FE0000FBECDBF6DEA71E08E010F5F1F4FC801BC
:101FF0000E949E33C8010E94F106C8010E947632F9
:10200000412C512C3201C12CD12C7601312C40E9CC
:10201000A42E41E0B42E5DE7852E51E0952E8BE78E
:1020200094E00E94FD1F181619069CF48FEFC81A41
:10203000D80AE80AF80A0E94EC088BE794E00E94AC
:10204000A11F682F86ED94E00E946C1A332433940C
:10205000E6CF86ED94E00E94D81A181619068CF483
:102060009FEF491A590A690A790A86ED94E00E949D
:102070004B1A682F8BE794E00E94331E332433946D
:10208000E8CFC2019301332051F24091C2034111C4
:1020900004C04091C303442399F01F921F921F92E2
:1020A0001F923F932F939F938F93FF92EF92DF9214
:1020B000CF92BF92AF921F930F930E9459370EC0D9
:1020C0007F926F925F924F92FF92EF92DF92CF9248
:1020D0009F928F921F930F930E9459370FB6F894D7
:1020E000DEBF0FBECDBFB801CE01C3960E94E43261
:1020F000CE01C3960E94BA06CE01C3960E947632E4
:102100008ECF2F923F924F925F926F927F928F92DB
:102110009F92AF92BF92CF92DF92EF92FF920F9376
:102120001F93CF93DF93CDB7DEB7EF970FB6F89439
:10213000DEBF0FBECDBF8FE0EDECF2E0DE01999681
:1021400001900D928A95E1F78091C603813C41F49C
:102150008091C703843D21F481E08093BB0302C0DA
:102160001092BB0366EC73E087E194E00E94E336D3
:1021700006EC13E07801F70101900020E9F73197B0
:10218000E65CF340C801865C93408E179F0768F4B5
:10219000F80180810E94351A992787FD90950E9449
:1021A0009136F80181938F01E6CF66EC73E0CE01A2
:1021B00001960E94E432CE0101960E94BA06CE0139
:1021C00001960E9476324AE050E06EE972E086ECB9
:1021D00093E00E94EA36892B91F48091D0038983A1
:1021E0001A82CE0101960E9473368A30910508F05A
:1021F00028C4682F83E690E00E940B0BC8C048E01B
:1022000050E069EA72E086EC93E00E94EA36892B9E
:1022100081F48EEC93E00E9473368C0197FD11C41B
:102220000E94A00B8111FFCF1093BF030093BE0348
:10223000AEC062EB72E086EC93E00E940737892B18
:1022400009F44FC00E944607A4E6EA2EF12C00E0F4
:1022500010E00F5F1F4F4AE050E0B80186ED94E0B8
:102260000E94543261E371E0CE0101960E949E33D8
:10227000CE0101960E94EC06CE0101960E947632B4
:10228000B701CE0101960E94470BCE0101960E9434
:10229000F106CE0101960E947632F8E2EF0EF11CB3
:1022A00009301105B1F60E94460765E271E0CE01E2
:1022B00001960E949E33CE0101960E94EC06CE014B
:1022C00001960E94763283E690E00E94B8064AE0CA
:1022D00050E0682F86ED94E00E9469320E94460724
:1022E00056C069EB72E086EC93E00E940737892BB9
:1022F000C9F004E610E065E972E0CE0101960E94A3
:10230000E432BE016F5F7F4FC8010E94270BCE01F0
:1023100001960E947632085D1F4F0C3C81E0180741
:1023200051F735C045E050E064EC72E086EC93E094
:102330000E94EA36892B69F58091CB0388AF19AEEC
:10234000CE01C8960E9473368C01015011090930E4
:10235000110508F076C38091CC038D3309F071C369
:102360006DEC73E0CE0101960E94E43228E2209FDA
:10237000C001219F900D1124BE016F5F7F4F8C59CA
:102380009F4F0E94270BCE0101960E947632712C3E
:102390005AC342E050E06AEC72E086EC93E00E949F
:1023A000EA36892BA1F762E070E0512C712C5E01B6
:1023B00099E2A90EB11C66246394E7E12E2EE4E0B5
:1023C0003E2EF8E24F2EE6ECF3E001900020E9F714
:1023D0003197E65CF3406E177F0718F0511041C348
:1023E00032C36E347105D4F78B010F5F1F4FFB01B1
:1023F000EA53FC4F8081883409F44FC0CCF48A3210
:1024000009F4F9C154F48D3009F419C3863209F482
:1024100047C18A3009F00AC312C3843409F46FC279
:10242000853451F1813409F001C30E941B0FC5C2EC
:10243000833509F482C06CF48F3409F465C08135AA
:1024400009F46AC0893409F0F1C280E00E9456079D
:10245000F6C2883509F414C18A3521F0863509F0B1
:10246000E5C2FEC00E94420C8BE794E00E9421234B
:10247000882309F4E4C241C06E5F7F4FF801EA533C
:10248000FC4F8081803331F0813309F006C16092C6
:102490000B0104C110920B0101C17B01E2E0EE0EC1
:1024A000F11CF801EA53FC4F8081803319F081332D
:1024B00071F01DC08BE794E00E942123882319F05E
:1024C0000E94D50EB5C280E00E94DD0EB1C28BE73E
:1024D00094E00E9421238111ABC260E070E08BE7A1
:1024E00094E00E94EE298111A3C27394A1C28BE7EC
:1024F00094E00E942123882319F00E94D50E9FC2E8
:1025000080E00E94DD0E9BC28091C403882309F401
:102510008DC210920C0193C26E5F7F4FF801EA5397
:10252000FC4F8081803331F0813309F0B6C0609276
:102530006B04B4C010926B04B1C0CB010296F801D9
:10254000EA53FC4F2081223311F1293309F464C08E
:10255000203309F071C29B012D5F3F4FFC01EA530C
:10256000FC4F80818D3309F065C28B010C5F1F4FDA
:10257000F901EA53FC4F8081803331F0813309F057
:1025800055C260926A045BC210926A0458C28B0101
:102590000D5F1F4FFC01EA53FC4F80818D3309F022
:1025A0004EC218AE19AE1AAEF50101900020E9F73F
:1025B000CF0101976C01CA18DB087801812C912C9E
:1025C0008C149D0491F4A701401B510BB8016A5370
:1025D0007C4FCE01C8960E94F8361BAECE01C8963D
:1025E0000E9473368093090123C2F3E08F16910491
:1025F00051F3F701EA53FC4F6081772767FD70952F
:10260000C5010E94CF36892BF1F69FEFE91AF90A2E
:10261000EFEF8E1A9E0AD4CF8B010D5F1F4FFC0186
:10262000EA53FC4F8081893309F009C2CB0104963B
:10263000F801EA53FC4F20812D3309F0FDC10E5FF4
:102640001F4FFC01EA53FC4F8081803331F081330E
:1026500009F0F5C160926804F2C110926804EFC1FC
:102660006E5F7F4FF801EA53FC4F8081803329F081
:10267000813399F460920A0111C010920A010EC0D0
:102680006E5F7F4FF801EA53FC4F80818053809347
:102690006904853018F01092690473948B01CFC1DE
:1026A0006B0182E0C80ED11CF801EA53FC4F808117
:1026B0008B34E1F12CF4833471F0863451F1BEC1D6
:1026C000833509F445C0873509F452C0823509F0D5
:1026D000B5C10E94E80F8B010D5F1F4FF601EA5351
:1026E000FC4F8081803319F0813331F09FC110920B
:1026F000C1036091080109C06092C1038091C403C5
:1027000060910801811101C0662580E10E942B2E95
:1027100096C180E00E94140C8BE794E00E94212374
:10272000882309F48BC10E94D50E88C18B010D5FEF
:102730001F4FF601EA53FC4F8081803331F0813323
:1027400009F074C16092C2037AC11092C20377C1CA
:102750008B010D5F1F4FF601EA53FC4F80818053C0
:10276000833008F063C18093C0030E94FB0B67C1F4
:1027700060910B018AE090E00E940B0B6091C20314
:102780008BE090E00E940B0B60910A018CE090E0DE
:102790000E940B0B60916B048DE090E00E940B0B8C
:1027A00060916A048EE090E00E940B0B6091090139
:1027B0008FE090E00E940B0B6091C10381E190E0FB
:1027C0000E940B0B6091690482E190E00E940B0B68
:1027D0006091680483E190E00E940B0B6091C0035C
:1027E00084E190E00E940B0B8BE794E00E94B727F6
:1027F000811124C114C1FB013296D801AA53BC4FE8
:102800008C918D3459F024F48B3409F45EC074C07B
:10281000803509F440C0833501F16EC08B010D5F36
:102820001F4FEA53FC4F80818D3309F0FFC000E257
:1028300013E0FB01E95EFB4F7F01F701E00FF11FA1
:10284000ED51F3406081C8010E9455390F5F1F4F61
:102850000A36F3E01F0789F72EC08B010D5F1F4F6B
:10286000EA53FC4F80818D3309F0E0C0B801695E06
:102870007B4F8BE794E00E9476278BE794E00E94E1
:10288000662360E27EE48BE794E00E947928811160
:1028900012C0739410C08B010D5F1F4FEA53FC4FA1
:1028A00080818D3309F0C2C0B801695E7B4F8BE730
:1028B00094E00E94A027F10101900020E9F78F0128
:1028C0000150110907511440BAC06D5F7F4FEA53A0
:1028D000FC4F80818D3371F4695E7B4F8BE794E010
:1028E0000E948127F10101900020E9F73197E7511B
:1028F000F44002C07394FB0173948F01A0C06B017C
:10290000F2E0CF0ED11C0A531C4FF80180818332B4
:1029100009F456C01CF4882331F083C0803559F087
:10292000843549F07EC08091C403882309F477C0C0
:1029300010920C0183C08B010D5F1F4FC6018A539B
:102940009C4F6C01FC018081833279F5F801EA53D8
:10295000FC4F80818EAF1FAECE01CE960E947336A3
:1029600001978930910508F061C0489EB001499EE9
:10297000700D11246C597F4FCE01C8960E94470BF1
:1029800068AD79AD48E250E0CE0101960E94F8367C
:10299000CE01C8960E947632CE0101960E94890B24
:1029A000CE0101960E94510E08C0C6010E94890BFB
:1029B000C6010E94510E0EE410E0552453943FC00E
:1029C000F601EA53FC4F80818EAF1FAECE01CE964A
:1029D0000E94733601978930910508F5489EB00131
:1029E000499E700D11246C597F4FCE01C8960E94EC
:1029F000470B68AD79AD48E250E0CE0101960E94E8
:102A0000F836CE01C8960E947632CE0101960E9419
:102A1000890BCE0101960E94510E8601CECF739490
:102A20000DC0C8010E94890BC801C3CF739407C0B1
:102A3000870105C0890103C08C0101C08601B8016E
:102A4000C2CC7724739480916804811102C0711004
:102A500006C062E271E080E00E947B0902C00E9431
:102A6000F8090E94FD09EF960FB6F894DEBF0FBE7D
:102A7000CDBFDF91CF911F910F91FF90EF90DF902D
:102A8000CF90BF90AF909F908F907F906F905F900E
:102A90004F903F902F9008954F925F926F927F9248
:102AA0009F92AF92BF92CF92DF92EF92FF920F93DD
:102AB0001F93CF93DF93CDB7DEB72A970FB6F89465
:102AC000DEBF0FBECDBF8BE794E00E94A228882313
:102AD00009F47FC08091BA03882399F08BE794E0D2
:102AE0000E94FD1F18161906ECF40E94EC088BE7F3
:102AF00094E00E94A11F682F86ED94E00E946C1A5A
:102B0000EDCF8091C4038823D9F080910C018823F4
:102B100009F49DC18BE794E00E94FD1F1816190669
:102B20000CF095C19924939406EC13E080E6E82E0E
:102B300089E0F82E94E6C92ED12CAA24A39441C092
:102B400080916C048111EECF67EA70E0CE010196AE
:102B50000E949E33CE0101960E94BA06CE010196D4
:102B60000E9476320E94250F22C280910C01882398
:102B700009F4F4C08091C203882331F06091070109
:102B800069258FE00E942B2E86ED94E00E944B1A5F
:102B90003C01B82E8D7F8830B9F580910B018111F1
:102BA0004EC0862D0E944A07882309F466C0809192
:102BB000C603882331F0F80101900020E9F732972D
:102BC000108286ED94E00E94D81A181619067CF03F
:102BD00025C080916C04882321F081E00E94DD0EE5
:102BE000E6C18091C403882309F49CCFF6CF80917D
:102BF000BA03882309F4B9CF0E940B0986ED94E04B
:102C00000E944B1A682F1EC1FDE06F1631F224E1BD
:102C1000621619F280EE860D8B3B58F08091C2034C
:102C2000882309F4C4C1609107018FE00E942B2E14
:102C3000BEC180E8860D813408F0AFCFEFCF809120
:102C4000C203811114C0809111019091120180364C
:102C5000E9E09E0710F480E699E0B7010E94F9339D
:102C6000C6010E94F93380E090E00E94662D662D37
:102C700086ED94E00E946C1A94CFFDE0BF1609F433
:102C800052C02AE0B21609F44EC0F80101900020AB
:102C9000E9F73197E65CF340E135F10518F00E9461
:102CA000F80976C18091C503882321F0EA53FC4FCF
:102CB000608226C0309719F0319779F021C0C301A6
:102CC00099278136910531F0813C910519F08134C5
:102CD0009105B1F46092C60313C0C30199278435EE
:102CE000910551F01CF48F9759F406C08437910573
:102CF00019F0843D910521F46092C703A092C503A9
:102D00008091C6030E94351A992787FD90950E94ED
:102D100091368134910509F054CF8091C7038F32E9
:102D200009F04FCF24C18091C6030E94351A99271C
:102D300087FD90950E9491368134910509F028C154
:102D40008091C7030E94351A992787FD90950E94AC
:102D500091368435910509F01BC11DC18091C403D2
:102D6000882309F42ECF86ED94E00E944B1AB82EEA
:102D70000E94372D685E73408109910940906F046D
:102D8000509070046090710470907204461657065B
:102D900068067906A8F480910901B8120FC08091E5
:102DA00073048B1529F0A0927404B092730412C0BE
:102DB000809174048F5F809374040CC0109274042B
:102DC0000E94372D60936F04709370048093710498
:102DD0009093720480917404833019F56CED72E065
:102DE000CE0101960E94E432CE0101960E94BA06FD
:102DF000CE0101960E947632A0926E041092740465
:102E000010926F0410927004109271041092720468
:102E1000A0920C010E94460762E271E080E00E94ED
:102E20007B09B09273040E940B098FEFB81209C09E
:102E30008091BC03882329F06FEF8BE794E00E9418
:102E4000331E6B2D8BE794E00E94331EBACE00E058
:102E500010E0DD24D3948BE794E00E94FD1F181648
:102E600019060CF05FC08BE794E00E94A11F7C0163
:102E700080910601882371F02FEFE216F10429F406
:102E8000D092BD030E94990F02C01092BD03109210
:102E90000601E1CF8091C3039FEFE916F10441F5EC
:102EA0009091BD03992321F18823D9F08091B0003E
:102EB0008F7D8093B0005B980E94990F882351F01A
:102EC000E1E0F0E0EC0FFD1FE00FF11F8FEF8083DA
:102ED0000F5F1F4F8091B0008F7D8093B0005B9A91
:102EE000BACF0E94990F882309F4B5CF6FEF15C0B0
:102EF000882381F08091B0008F7D8093B0005B9A31
:102F0000E1E0F0E0EC0FFD1FE00FF11FE0820F5F4A
:102F10001F4FA1CF0E94EC086E2D86ED94E00E9419
:102F20006C1A99CF8091C303882309F4FBCD7801F3
:102F3000093011051CF0B8E0EB2EF12C8E010F5F6B
:102F40001F4F6801C8018C199D098E159F0544F417
:102F5000F80161918F0186ED94E00E946C1AF2CF26
:102F60008091B0008F7D8093B0005B98DBCD67E1EE
:102F700074E086EC93E00E94E3368091C2038823DC
:102F800029F0609107018FE00E942B2E0E94811092
:102F90000E94FD0916CE8091C203882329F060911A
:102FA00007018FE00E942B2E0E9481100ACE2A96E4
:102FB0000FB6F894DEBF0FBECDBFDF91CF911F914A
:102FC0000F91FF90EF90DF90CF90BF90AF909F90C8
:102FD0007F906F905F904F900895CF93DF93CDB720
:102FE000DEB7AE970FB6F894DEBF0FBECDBF0E941E
:102FF000FB0B3B9A43983C983D9881E00E94140C4F
:103000000E94420C0E94FD0968EE73E080E090E0AF
:103010000E94662D0E94460780916D049FEF980FD5
:10302000993008F069C0992787FD9095019728E2AB
:10303000289FB001299F700D11246C597F4FCE013C
:1030400089960E94470B69A57AA548E250E0CE0117
:1030500001960E94F836CE0189960E94763267E684
:1030600071E0CE0189960E949E33CE0189960E941E
:10307000EC06CE0189960E947632BE016F5F7F4FCB
:10308000CE0189960E94E432CE0189960E94F10613
:10309000CE0189960E9476326AE471E0CE0189966B
:1030A0000E949E33CE0189960E94F106CE01899638
:1030B0000E94763260ED77E086ED94E00E94370959
:1030C0000196A9F086ED94E00E94220967E471E080
:1030D000CE0189960E949E33CE0189960E94BA063F
:1030E000CE0189960E94763264E471E015C0CE016B
:1030F00001960E94510E18C061E471E0CE01019664
:103100000E949E33CE0101960E94BA06CE0101961E
:103110000E9476326EE371E086ED94E00E943D31CC
:1031200086ED94E00E9477310E944C15FDCFCF933D
:10313000DF93CDB7DEB72C970FB6F894DEBF0FBE86
:10314000CDBF0E948E2D87E695E00E947A2C60E02C
:1031500087E695E00E94702A61E087E695E00E948C
:103160002A2C3D98399A5298539A8091B0008F7DBD
:103170008093B0005B98609107018FE00E942B2E36
:103180003A9A81E190E00E94B80691E0811101C075
:1031900090E09093C10360910801992311F081E0C0
:1031A000682780E10E942B2E84E190E00E94B806FF
:1031B0008093C003823009F4389882E090E00E9446
:1031C000B806182F83E090E00E94B806212F30E067
:1031D000322F2227280F311D309312012093110125
:1031E000203B84E03807C9F0203699E03907A9F080
:1031F000203C82E1380789F0203895E2390769F0F0
:1032000021158BE4380749F02115364931F080E665
:1032100099E0909312018093110160E085E00E9493
:10322000F22D61E085E00E942B2E6DEA73E0CE0165
:1032300001960E949E33CE0101960E94BA06CE01ED
:1032400001960E94763285E090E00E94A10A6B010F
:103250007C01603B24E072078105910509F180E65D
:10326000C81689E0D806E104F104D1F090ECC91643
:1032700092E1D906E104F10499F020E8C21625E2B2
:10328000D206E104F10461F0C1148BE4D806E10434
:10329000F10431F0C11496E9D906E104F104A9F56D
:1032A000FF92EF92DF92CF9289EA93E09F938F9300
:1032B0008E01095F1F4F1F930F930E945937B8016A
:1032C000CE0101960E94E432CE0101960E94BA0618
:1032D000CE0101960E94763268EB7BE080E090E0C0
:1032E0000E94662DC0921101D09212016D2D82E0D4
:1032F00090E00E940B0B6C2D83E090E00E940B0B82
:103300000FB6F894DEBF0FBECDBF409111015091B2
:10331000120160E070E086ED94E00E94411C409153
:103320000F015091100160E070E026E08FE795E01A
:103330000E948B2F48EE53E060E070E086ED94E051
:103340000E94703241E02091110130911201809170
:103350000F01909110012817390709F440E04093BC
:10336000C30386ED94E00E9477316BE973E0CE01F0
:1033700001960E949E33CE0101960E941207CE0153
:1033800001960E94763240E050E06FE775E08BE7EF
:1033900094E00E94F8268823C1F061E973E0CE0131
:1033A00001960E949E33CE0101960E941207CE0123
:1033B00001960E9476320E94960B809111019091A5
:1033C00012018036994089F422C063E873E0CE018F
:1033D00001960E949E33CE0101960E941207CE01F3
:1033E00001960E9476320E94E80F68EE73E080E05A
:1033F00090E00E94662D8091110190911201803B16
:1034000024E0920711F480E699E00E94D10C41E09B
:10341000209111013091120180910F0190911001C2
:103420002817390709F440E04093C3038BE794E081
:103430000E94AF2883E690E00E94B80680936D0456
:103440006CE573E0CE0101960E949E33CE01019699
:103450000E94F106CE0101960E9476320E94460734
:1034600081E00E9456070E94ED178D3061F08A308E
:1034700061F0803260F0803A61F09FE3980F9A31FA
:1034800048F4805808958AE008958DE0089580E01A
:10349000089580E2089520913D0530913E0528175A
:1034A0003907B9F49091FB048091FC04981789F0D6
:1034B000E091FB04F0E0E350FB4F80812091FB049E
:1034C00030E02F5F3F4F2F7333272093FB0490E0B2
:1034D00008958FEF9FEF08951F93CF93DF93DC0143
:1034E0005C968D919C915D97009749F481E090E006
:1034F00013969C938E93129780E090E03BC0519678
:10350000ED91FC91529750962C915097322F309517
:103510001FB75E964C915E9741FB772770F941FD8E
:103520006095F8944081772311F0422B01C043232A
:103530004083EC012197F1F748E0508160FF02C021
:10354000522B01C053235083EC012197F1F766956C
:10355000415099F78081772311F0832301C0822B9A
:1035600080831FBF5C968D919C915D970197F1F7C9
:1035700081E090E0DF91CF911F91089520913D056A
:1035800030913E052817390781F49091FB04809112
:10359000FC04981751F0E091FB04F0E0E350FB4F7E
:1035A0008081992787FD909508958FEF9FEF08956B
:1035B00020913D0530913E052817390771F480911F
:1035C000FC042091FB0490E0805C9F4F821B9109DA
:1035D00060E470E00E940D34089580E090E008956A
:1035E00020913D0530913E052817390739F48FB7F2
:1035F000F8941092FC041092FB048FBF0895E091A0
:103600003D05F0913E05E817F90769F4A389B489EF
:103610009C918589809589238C9310923E05109208
:103620003D0581E0089580E00895CF93DF93EC019C
:103630008A8D9B8D892BF1F080913D0590913E05FF
:103640008C179D07B9F0009711F00E94FF1A8E8D1C
:103650008E7F8E8F1092FC041092FB04D0933E0557
:10366000C0933D05EB89FC8980819D89892B8083EE
:1036700081E001C080E0DF91CF9108951F920F9209
:103680000FB60F9211242F933F934F935F936F9335
:103690007F938F939F93AF93BF93EF93FF93E091AB
:1036A0003D05F0913E05309709F451C0868DA68501
:1036B000B785958581FF04C08C91892329F447C083
:1036C0008C91892309F043C0A389B4899C91858991
:1036D000809589238C93868997890197F1F7208DAE
:1036E000318DA685B785758558E040E0C901019701
:1036F000F1F7842F90E095958795482F6C9167237B
:1037000009F04068515091F7868D81FD4095809178
:10371000FC0490E001968F7399272091FB042817F1
:1037200049F0A091FC04B0E0A350BB4F4C938093B0
:10373000FC0403C0868D8160868F828D938D0197F6
:10374000F1F7A389B4898C919589892B8C93FF918A
:10375000EF91BF91AF919F918F917F916F915F9109
:103760004F913F912F910F900FBE0F901F90189582
:1037700028EE32E0FC01318320830C94FF1A1F9362
:10378000CF93DF93EC01162F6E8D6695617081E00B
:103790006827812F0E942B2E61E0812F0E94F22D3D
:1037A000812F90E0FC01E25CF34FE491E88BFC0197
:1037B000EE5AF34FE491F0E0EE0FFF1FE059F34FA4
:1037C000859194919A8B898BDF91CF911F91089568
:1037D0001F93CF93DF93EC01162F60E0812F0E949F
:1037E000F22D8E8D81FD04C061E0812F0E942B2E71
:1037F0001C87812F90E0FC01E25CF34FE491ED87A0
:10380000FC01EE5AF34FE491F0E0EE0FFF1FEA598E
:10381000F34F859194919F878E87DF91CF911F9170
:103820000895FF920F931F93CF93DF93EC01F62E31
:10383000522F1B821A8208EE13E020E030E00C8346
:103840001D832E833F8388EE92E0998388831F8AAD
:103850001E8A198E188E1B8E1A8E1D8E1C8E8E8DB2
:103860008E7F50FB81F98E8F642FCE010E94BF1B8B
:103870006F2DCE01DF91CF911F910F91FF900C948E
:10388000E81BCF93DF93EC019A01AB011B8E1A8EDC
:10389000198E188E1F8A1E8A60E079E08DE390E011
:1038A0000E944334C9012430310520F0B90163502E
:1038B000710902C061E070E07D8F6C8FEC85E631AC
:1038C00008F068C0B901769567956431710518F004
:1038D0006351710902C061E070E07F8B6E8B0697C7
:1038E00018F0C901059702C081E090E0998F888F98
:1038F000C901880F991F820F931F969587959695FA
:1039000087958D30910510F00C9702C081E090E012
:103910009B8F8A8F20916800E83050F091E0EE3064
:1039200008F490E081E001C0880F9A95EAF701C0A1
:1039300084E0822B809368002C85283038F02E306C
:1039400040F0263148F48CE690E008C08DE690E027
:1039500005C08BE690E002C080E090E09C8B8B8BF2
:10396000283030F481E001C0880F2A95EAF70DC0B5
:10397000822F90E02E3010F4089701C00E9791E04E
:1039800001C0990F8A95EAF7892F8D8B8C8D9D8DBB
:103990000197F1F7CE01DF91CF910C94151B0C9498
:1039A000FF1ADC011C968D919C911D97DC01ED9115
:1039B000FC910680F781E02D0994DC011C968D9125
:1039C0009C911D97DC01ED91FC910480F581E02D27
:1039D0000994DC011C968D919C911D97DC01ED9161
:1039E000FC910284F385E02D0994DC011C968D91F5
:1039F0009C911D97DC01ED91FC910084F185E02DF7
:103A000009942F923F924F925F926F927F928F9282
:103A10009F92AF92BF92CF92DF92EF92FF920F935D
:103A20001F93CF93DF93CDB7DEB760970FB6F894AF
:103A3000DEBF0FBECDBF2B013C0169014A3021F52D
:103A4000CE0101961C01E12CF12C5AE0852E912C1F
:103A5000A12CB12CC301B201A50194010E94213413
:103A60009FEFE91AF90A80E3840DEAE02E9F80199E
:103A70001124F10181931F012115310541055105E3
:103A8000C9F129013A01E6CFFE01319680E090E0CC
:103A9000B301A2014F705527662777279C012F5F3E
:103AA0003F4F4A3051056105710510F4A0E301C094
:103AB000A1E44A0F419344E0769467945794479465
:103AC0004A95D1F7411451046104710411F0C90100
:103AD000DFCFE1E0F0E0EC0FFD1FE20FF31F48E75E
:103AE00040837C01F3E0EF0EF11CFE01E80FF91FAB
:103AF00020E3238321E0E21AF108F60180E090E060
:103B0000015011090196A1E0B0E0AC0FBD1FAE0D50
:103B1000BF1D2C9121931E141F04ECF0F601E80F39
:103B2000F91F108260960FB6F894DEBF0FBECDBFAE
:103B3000DF91CF911F910F91FF90EF90DF90CF9089
:103B4000BF90AF909F908F907F906F905F904F90BD
:103B50003F902F90089521E0E21AF1088017910715
:103B6000ECF6D0CFCF92DF92EF92FF920F931F939C
:103B7000FC0140E060E070E0CB010191002309F41A
:103B800049C020ED200F2A30B0F414E0660F771FF3
:103B9000881F991F1A95D1F76053710981099109FE
:103BA000C02EDD24C7FCD094ED2CFD2C6C0D7D1DAA
:103BB0008E1D9F1DE2CF2FE9200F263060F4B4E068
:103BC000660F771F881F991FBA95D1F7675571093E
:103BD000810991090FC02FEB200F2630A8F4A4E033
:103BE000660F771F881F991FAA95D1F76753710930
:103BF00081099109112707FD1095212F312F600FA1
:103C0000711F821F931FB9CF083721F4411102C0E1
:103C100041E0B3CF1F910F91FF90EF90DF90CF90D5
:103C200008950F931F93FC0160E070E0CB010191B8
:103C300020ED200F2A30A0F4AAE0B0E09B01AC01F7
:103C40000E9468346053710981099109112707FDA9
:103C50001095212F312F600F711F821F931FE7CF07
:103C60001F910F910895DC01A95ABF4F2D913C91EE
:103C70001197FC01E75AFF4F408151812417350706
:103C800064F434970190F081E02DA9014F5F5F4FFC
:103C90004D935C93E20FF31F6083FC01EC5BFF4FDD
:103CA00080819181DC01ED91FC910190F081E02D0A
:103CB00009948C5B9F4FDC018D919C91DC01ED910F
:103CC000FC910284F385E02D0994DC011C968D9112
:103CD0009C911D97009739F0DC01ED91FC910190CA
:103CE000F081E02D099480E090E008952091500546
:103CF00021110CC0FC01EC5BFF4F80819181DC0144
:103D0000ED91FC910084F185E02D0994E09151053D
:103D1000F0E0ED5AFA4F8081992787FD909508953C
:103D2000DC01ED91FC910190F081E02D09944F921E
:103D30005F926F927F92AF92BF92CF92DF92EF929B
:103D4000FF920F931F93CF93DF93EC015B016A0106
:103D50000E94372D2B013C01E12CF12C8E010C5BD4
:103D60001F4F0E94372D64197509860997096C1534
:103D70007D058E059F05A0F5D8018D919C91DC01F4
:103D8000ED91FC910480F581E02D09951816190636
:103D900044F7F80180819181DC01ED91FC9106806E
:103DA000F781E02D0995F5018083DE01A95ABF4F07
:103DB0002D913C911197FE01E75AFF4F40815181AF
:103DC000241735077CF4CB5ADF4FE881F981A9012C
:103DD0004F5F5F4F4D935C93E20FF31F808302C0F0
:103DE00080E001C081E0DF91CF911F910F91FF90A2
:103DF000EF90DF90CF90BF90AF907F906F905F90EB
:103E00004F900895EF92FF920F931F93CF93DF93FC
:103E10001F92CDB7DEB78C017B01A701BE016F5F9A
:103E20007F4FC8010E94971E8111F7CF0F90DF913D
:103E3000CF911F910F91FF90EF900895FF920F93F4
:103E40001F93CF93DF938C0190915005992309F133
:103E5000442321F06F5F7F4F81E001C080E020911B
:103E60005105820FFB01BF01382F321B3917A8F40F
:103E700034913323C1F1893010F4A82F01C0A0E0A0
:103E800031968F5FB0E0AD5ABA4F4C91431759F35A
:103E900040C0411102C06F5F7F4FFB01F490EB0106
:103EA00021966091520570E06D5A7A4F44EF51E0CF
:103EB000C8010E94971E80915205E82FF0E0ED5A4C
:103EC000FA4F2081909150058F5F2F1114C08830D8
:103ED000E8F4809352059F5F90935005FE01F490A3
:103EE0002196F110DECF10925005109251051092DC
:103EF000520581E00FC0883018F48093520502C04B
:103F0000109252059F5F9093500503C01092520586
:103F1000E2CF80E0DF91CF911F910F91FF90089544
:103F2000CF93DF93EC01462F6DEA75E00E941E1FD0
:103F3000882319F01CAE81E001C080E0DF91CF91B1
:103F40000895CF93DF93EC0180915005882381F091
:103F5000E091510591E09E0F90935105F0E0ED5AEC
:103F6000FA4F208130E0983068F1109251052AC054
:103F7000FE01EC5BFF4F80819181DC01ED91FC91B2
:103F80000680F781E02D09959C018CAD8823E9F02E
:103F90002A323105D1F460E0CE010E94901F8111D8
:103FA00016C0E091510581E08E0F80935105F0E03D
:103FB000ED5AFA4F208130E0883010F01092510510
:103FC00080915005815080935005C90102C08FEF48
:103FD0009FEFDF91CF910895CF93DF93EC01462FB0
:103FE00066EA75E00E941E1F882319F081E08CAFFD
:103FF00001C080E0DF91CF910895EF92FF920F937F
:104000001F93CF93DF938C01EC01CC5BDF4F888152
:104010009981DC01ED91FC910480F581E02D0995F9
:104020007C01181619065CF588819981DC01ED91F7
:10403000FC910084F185E02D09958A9701F5F8013E
:1040400084AD61E0882331F0C8010E94901F88236D
:1040500021F012C0C8010E94EC1F0091500510E031
:1040600088819981DC01ED91FC910480F581E02D3E
:104070000995800F911F09C08FEF9FEF06C08091B7
:104080005005F701E80FF11DCF01DF91CF911F918E
:104090000F91FF90EF900895CB0160E475E00E94CE
:1040A000073721E0892B09F420E0822F08958F92B1
:1040B0009F92AF92BF92CF92DF92EF92FF920F93B7
:1040C0001F93CF93DF931F92CDB7DEB76C017B01B7
:1040D0005A016115710529F1FB018081882309F1DD
:1040E0008B014B01FFEF8F1A9F0AA501BE016F5F85
:1040F0007F4FC6010E94971E8823A1F08981F80195
:104100009081891303C00F5F1F4F07C0F701908193
:10411000891302C0840101C08701F80180818111E7
:10412000E4CF81E00F90DF91CF911F910F91FF902D
:10413000EF90DF90CF90BF90AF909F908F900895B9
:104140007F928F929F92AF92BF92CF92DF92EF9227
:10415000FF920F931F93CF93DF931F92CDB7DEB7DC
:104160006C017B015A01FB0174907720B9F08B013F
:104170004B01FFEF8F1A9F0AA501BE016F5F7F4FB2
:10418000C6010E94971E8823C1F02981271108C00B
:104190000F5F1F4FF80174907110EECF81E00DC0DA
:1041A000F7018491332727FD309590E028173907D0
:1041B00011F48401EFCF8701EDCF0F90DF91CF9104
:1041C0001F910F91FF90EF90DF90CF90BF90AF9035
:1041D0009F908F907F9008954F925F926F927F9201
:1041E0009F92AF92BF92CF92DF92EF92FF920F9386
:1041F0001F93CF93DF931F92CDB7DEB77C01962E2E
:10420000A72EB42E69014DB65EB6242F30E0C90149
:10421000880F991F820F931F2DB73EB7281B390BAC
:104220000FB6F8943EBF0FBE2DBF8DB79EB7019657
:104230003C01E62FF72FDC0120E02B1559F11C92F1
:104240008191919112969C938E9311972F5F139663
:10425000F4CF1196ED91FC9112974491941781F14E
:10426000F80160817181FB01449150E0241735070A
:1042700031F112967C936E9311971196ED91FC910A
:104280001297E49113960E5F1F4FEE23F9F08F5FA4
:104290008B11DFCFA601BE016F5F7F4FC7010E9468
:1042A000971E811102C08FEF11C09981292F3327EA
:1042B00027FD3095092D1A2DD30180E0E9CFFB01B0
:1042C00031961296FC93EE931197D7CF0FB6F894D0
:1042D0005EBE0FBE4DBE0F90DF91CF911F910F912B
:1042E000FF90EF90DF90CF90BF90AF909F907F9026
:1042F0006F905F904F900895CF93DF93EC018D8581
:10430000882391F06CE875E0CE010E943D3144EFC6
:1043100051E065E875E0CE010E94A020882311F0ED
:104320001D8602C080E001C081E0DF91CF91089539
:104330005F926F927F928F929F92AF92BF92CF9235
:10434000DF92EF92FF920F931F93CF93DF931F9211
:10435000CDB7DEB76C017B01390100E010E04A0106
:1043600082E0881A91085A0181E0A81AB108A301D5
:10437000BE016F5F7F4FC6010E94971E882309F41C
:1043800040C059808DE058122DC0A301BE016F5F5F
:104390007F4FC6010E94971E89818A3041F4E11443
:1043A000F104B9F1F701E00FF11F108232C0E114FE
:1043B000F104C1F00815190564F4F8013196D7012C
:1043C000A00FB11F5C920E5F1F4FEE0DFF1D80838B
:1043D00009C00A151B0534F4F701E00FF11F5082E4
:1043E0000F5F1F4F0A151B0514F6E114F10409F4C1
:1043F000BECFF701E00FF11F898180830F5F1F4F50
:10440000B6CFE114F10439F0F701E00FF11F10828B
:1044100003C0C80102C080E090E00F90DF91CF910F
:104420001F910F91FF90EF90DF90CF90BF90AF90D2
:104430009F908F907F906F905F900895CF92DF92C2
:10444000EF92FF920F931F93CF93DF931F92CDB7FD
:10445000DEB78C0144EF51E0BE016F5F7F4FC801B2
:104460000E94971E8823A9F089818C3399F7809345
:10447000400551E4E52E55E0F52EDD24D39444EFBC
:1044800051E0BE016F5F7F4FC8010E94971E8111EE
:1044900002C080E035C0CC24C394CD0C8981F701E3
:1044A00081937F018E3339F544EF51E0BE016F5F98
:1044B0007F4FC8010E94971E882359F3898180325B
:1044C00041F7AC2DB0E0A05CBA4F8C93D394D39459
:1044D000ED2DF0E0E05CFA4F108281E080933F0523
:1044E00024EF31E040E050E060E070E0C8010E945D
:1044F000982181E005C0FCE0CF1659F2DC2CBFCF3B
:104500000F90DF91CF911F910F91FF90EF90DF906F
:10451000CF900895AB0120913F05211102C00C946A
:104520001E2260E475E00C945720FF920F931F93B6
:10453000CF93DF93EC018D8581116FC06AEF70E03E
:1045400080E090E00E94662D62EA75E0CE010E9454
:104550003D316AEF70E080E090E00E94662D44EF0C
:1045600051E06CE975E0CE010E94A020811116C0D7
:10457000FE01EC5BFF4F80819181DC01ED91FC91AC
:104580000190F081E02D6DE0099564EF71E0CE01BE
:104590000E948A2281113AC015E01EC080913F0519
:1045A000811134C065E0F62E8E010C5B1F4FF801BF
:1045B00080819181DC01ED91FC910190F081E02DF1
:1045C0006DE0099564EF71E0CE010E948A228111AD
:1045D0001DC0FA9461F7CCCF6AEF70E080E090E004
:1045E0000E94662D68E975E0CE010E943D316AEFB8
:1045F00070E080E090E00E94662D44EF51E062E9B7
:1046000075E0CE010E94A020882319F081E08D87FB
:1046100005C0115009F780E001C081E0DF91CF9122
:104620001F910F91FF900895FC0123893489215037
:104630003109348B238B232B11F40C947C2181E0E2
:104640000895FC0186850895CF92DF92EF92FF9244
:104650000F931F93CF93DF9300D000D0CDB7DEB779
:104660007C018B016A018AE395E09A83898384E364
:1046700095E09C838B8324EF31E042E0BE016F5FC5
:104680007F4FC7010E94EC20813091F0811108C05A
:1046900024EF31E0A601B801C7010E94982106C0AD
:1046A000A6016AE275E0C8010E94B73680E001C049
:1046B00081E00F900F900F900F90DF91CF911F919D
:1046C0000F91FF90EF90DF90CF900895CF93DF93FD
:1046D000EC016EE274E00E943D3164E670E0CE01D0
:1046E0000E94021F1FAE81E0DF91CF910895AF922B
:1046F000BF92CF92DF92EF92FF920F931F93CF93CF
:10470000DF93CDB7DEB760970FB6F894DEBF0FBE6C
:10471000CDBF5C016A017B0100E110E09E012F5FCB
:104720003F4F4AE0C701B6010E94011DC5010E942A
:10473000012400E020E030E0AE014F5F5F4F66E211
:1047400074E0C5010E943026882351F0C5010E9403
:104750001423F501C786D08AE18AF28A81E004C079
:10476000C5010E94142380E060960FB6F894DEBF66
:104770000FBECDBFDF91CF911F910F91FF90EF90B2
:10478000DF90CF90BF90AF900895CF93DF93EC016F
:104790008E85882399F11E8667E675E0CE010E941A
:1047A0003D31CE010E94952240E157E263E675E07B
:1047B000CE010E94A02081110CC04F8558896989C3
:1047C0007A89CE010E947723CE01DF91CF910C949C
:1047D000142368EE73E080E090E00E94662D4F8520
:1047E000588969897A89CE010E947723CE010E9477
:1047F0001423CE01DF91CF910C94C126DF91CF918C
:104800000895CF93DF93EC010E94C5238D85882303
:1048100039F08B899C8901969C8B8B8B81E005C03C
:10482000CE010E9495228111F4CFDF91CF9108959E
:10483000CF92DF92EF92FF920F931F93CF93DF936C
:10484000EC018B016A0179010E940124882351F156
:10485000000F111F000F111F025E1C4FF801608135
:104860007181CE010E943D31F8016281738144EF74
:1048700051E0CE010E94A020882389F024EF31E08E
:10488000A701B601CE010E94982164EF71E0CE012C
:104890000E948A22CE010E941423C60105C0CE01C7
:1048A0000E94142384EF92E0DF91CF911F910F912A
:1048B000FF90EF90DF90CF900895CF93DF93D62FA6
:1048C000C72F9A01462F572F60E070E00E941824EE
:1048D000892B49F0ED2FFC2FDF018191882329F0EE
:1048E0008A33D1F702C0AD2FBC2F1C928D2F9C2F85
:1048F000DF91CF910895CF93DF93CDB7DEB7669761
:104900000FB6F894DEBF0FBECDBF26E130E0AE019A
:104910004F5F5F4F60E070E00E941824892BC1F068
:1049200080E0E1E0F0E0EC0FFD1FE80FF11D908169
:10493000992319F08F5F9A33A1F721E030E02C0F13
:104940003D1F280F311DC9010E94111ECB0102C05D
:1049500080E090E066960FB6F894DEBF0FBECDBF44
:10496000DF91CF9108959A01AB0163E070E00C9460
:1049700018249A01AB0164E070E00C9418241F9392
:10498000CF93DF93CDB7DEB72B970FB6F894DEBF8A
:104990000FBECDBF142F2BE030E0AE014F5F5F4F55
:1049A0000E941824892B51F0CE0101961A3019F477
:1049B0000E94111E06C00E94B21D03C060E070E09C
:1049C000CB012B960FB6F894DEBF0FBECDBFDF91A3
:1049D000CF911F91089540E16BE170E00E94BF24E8
:1049E000862F0895CF93DF93CDB7DEB760970FB6CC
:1049F000F894DEBF0FBECDBF20E130E0AE014F5FC7
:104A00005F4F6CE070E00E941824892BE1F143E0D5
:104A100050E067E575E0CE0101960E94A936892B2A
:104A200051F142E050E064E575E0CE0101960E944C
:104A3000A936892B11F146E050E06DE475E0CE0116
:104A400001960E94A936892BD1F045E050E067E439
:104A500075E0CE0101960E94A936892B91F046E0BF
:104A600050E060E475E0CE0101960E94A936892BE2
:104A700051F484E009C080E007C081E005C082E015
:104A800003C083E001C08FEF60960FB6F894DEBFDD
:104A90000FBECDBFDF91CF910895EF92FF920F939C
:104AA0001F93CF93DF93CDB7DEB760970FB6F8941F
:104AB000DEBF0FBECDBF8C010E940124882309F404
:104AC00067C06DE775E0C8010E943D3124EF31E019
:104AD00040E150E0BE016F5F7F4FC8010E94982106
:104AE0007C01BE016F5F7F4FC8010E944C2088236C
:104AF00061F024EF31E040E150E0BE016F5F7F4F95
:104B0000C8010E9498217C0105C064EF71E0C801D2
:104B10000E948A2225E0E216F1041CF4CE010196DF
:104B200008C0C7010497E1E0F0E0EC0FFD1F8E0F15
:104B30009F1F0E94B21DF62EE72E862F8F70F80160
:104B400086AFF4FA882780F987AFE05CFF4FF5FA6B
:104B5000882780F980833196F6FA882780F9808348
:104B60003196F7FA882780F980838E2D86958F708D
:104B700031968083C8010E941423F80186AD8130EC
:104B800011F484AF02C0F80114AE8F2D9E2D02C027
:104B900080E090E060960FB6F894DEBF0FBECDBF08
:104BA000DF91CF911F910F91FF90EF900895AF92F9
:104BB000BF92CF92DF92EF92FF920F931F93CF930A
:104BC000DF931F92CDB7DEB78C017B016A015901DB
:104BD0000E9401248823B9F16BE575E0C8010E94A9
:104BE0003D31B701C8010E946E316CE972E0C80125
:104BF0000E946E3148E853E1B701C8010E94572076
:104C00008823C9F044EF51E0BE016F5F7F4FC801B8
:104C10000E94971E24EF31E0A501B601C8010E9451
:104C2000982164EF71E0C8010E948A22C8010E94A5
:104C3000142381E009C064EF71E0C8010E948A2258
:104C4000C8010E94142380E00F90DF91CF911F9143
:104C50000F91FF90EF90DF90CF90BF90AF900895AD
:104C6000AF92BF92CF92DF92EF92FF920F93CF93CA
:104C7000DF93CDB7DEB762970FB6F894DEBF0FBEF5
:104C8000CDBF7C015A016901698B7A8B0E94012496
:104C900069897A89882309F463C0C7010E943D317C
:104CA000C114D10419F160E2C7010E94901E0023D3
:104CB000C1F0570184E5A80EB11CF601649166238A
:104CC000C1F1D701ED91FC910190F081E02D6032AE
:104CD00011F4D5016C91C7010995BFEFCB1ADB0A1E
:104CE000ECCFB601C7010E943D3123C0A114B1042D
:104CF00001F160E2C7010E94901E0023B1F067013C
:104D0000F4E5CF0ED11CF50161915F01662389F0B6
:104D1000D701ED91FC910190F081E02D603211F40A
:104D2000D6016C91C7010995EECFB501C7010E946C
:104D30006E316DE0C7010E94901E40E150E0BE015F
:104D40006F5F7F4FC7010E942423082F64EF71E03B
:104D5000C7010E948A22C7010E941423802F01C02C
:104D600080E062960FB6F894DEBF0FBECDBFDF9134
:104D7000CF910F91FF90EF90DF90CF90BF90AF90C9
:104D800008950F93CF93DF93EC0119AE18AE188EF0
:104D900000E020E030E040E050E069ED75E00E9486
:104DA000302620E030E040E050E066EC75E0CE01D7
:104DB0000E94302620E030E040E050E064EB75E0F7
:104DC000CE010E943026CE010E944D25CE010E94C8
:104DD000F2248B7F91E009F490E09D8BCE010E943C
:104DE000EB24CC5ADF4F8883DF91CF910F91089548
:104DF000CF93DF93EC01FC01EC5BFF4F7183608389
:104E00000E949522882341F0CE010E94C126CE0146
:104E1000DF91CF910C947C2180E0DF91CF910895B8
:104E2000CF92DF92EF92FF920F931F93CF93DF9376
:104E3000CDB7DEB72B970FB6F894DEBF0FBECDBF50
:104E40007C016B01CA01B901402F0BE010E09E010B
:104E50002F5F3F4F0E94011D00E020E030E0AE01D7
:104E60004F5F5F4FB601C7010E9430262B960FB6E9
:104E7000F894DEBF0FBECDBFDF91CF911F910F9190
:104E8000FF90EF90DF90CF9008950F939B0140E04B
:104E900050E00AE06CEE74E00E9410270F91089534
:104EA0000F93262F30E040E050E000E16AEA74E022
:104EB0000E9410270F9108950C9450270F93262FCE
:104EC00030E040E050E000E16DE974E00E9410271E
:104ED0000F9108950F9300E020E030E040E050E0B3
:104EE0006FE774E00E9430260F9108950F93AB0195
:104EF00001E020E030E061E774E00E9430260F918D
:104F000008950F931F93CF93DF93EC01AB01FB0147
:104F100081818F7D883511F44E5F5F4F00E020E086
:104F200030E064E674E0CE010E943026182FCE01F6
:104F30000E946A27812FDF91CF911F910F910895D1
:104F40000F931F93CF93DF93EC01AB0101E020E0BF
:104F500030E064E574E00E943026182FCE010E94F4
:104F60006A27812FDF91CF911F910F9108951F9391
:104F7000CF93DF93EC010E9401248823D9F064E2EF
:104F800075E0CE010E943D3144EF51E06CE175E0E7
:104F9000CE010E94A020882339F064EF71E0CE0199
:104FA0000E948A2211E001C010E0CE010E94142369
:104FB000812F01C080E0DF91CF911F910895CF93A1
:104FC000DF93EC010E940124882301F164E175E084
:104FD000CE010E943D3144EF51E06BE075E0CE011F
:104FE0000E94A020811104C0CE010E9414230EC093
:104FF00068E873E180E090E00E94662D1D861C8ABF
:105000001B8ACE010E94C12681E001C080E0DF91B1
:10501000CF910895CF92DF92EF92FF920F931F935B
:10502000CF93DF9300D000D0CDB7DEB78C017B01EA
:105030006A018DE494E09A83898381E494E09C83FF
:105040008B83C8010E940124882309F444C06BE3C8
:1050500074E0C8010E943D31E114F10421F0B70170
:10506000C8010E946E3169E374E0C8010E943D31BD
:10507000960142E0BE016F5F7F4FC8010E94EC20A5
:10508000F82E64E670E0C8010E94021F81E0F81269
:105090001FC0F801F7AE8589882361F048E95AE31B
:1050A00065E374E0C8010E94A02064E670E0C801D6
:1050B0000E94021F24EF31E040E050E060E070E029
:1050C000C8010E949821C8010E94142381E004C0F5
:1050D000C8010E94142380E00F900F900F900F9052
:1050E000DF91CF911F910F91FF90EF90DF90CF90C4
:1050F00008950F931F93CF93DF93CDB7DEB7C054BE
:10510000D1090FB6F894DEBF0FBECDBF8C0140E4CD
:1051100050E0BE016F5F7F4F0E94B92440E25EE421
:10512000BE016F5F7F4FC8010E940A28C05CDF4F3D
:105130000FB6F894DEBF0FBECDBFDF91CF911F91A8
:105140000F910895CF93DF93EC01E881F9810480FA
:10515000F581E02D09958CADDF91CF910895CF9326
:10516000DF93EC018CAD882361F164EF71E0CE0137
:105170000E94021FCE010E94012463E074E0CE0170
:105180000E943D3144EF51E06CEF73E0CE010E948C
:10519000A020882329F0CE010E9414231CAE11C048
:1051A00063EE73E0CE018A5B9F4F0E947B31CE019C
:1051B0000E944D25CE010E9414238CAD91E08927D9
:1051C00001C081E0DF91CF910895BF92CF92DF922D
:1051D000EF92FF920F931F93CF93DF93CDB7DEB77C
:1051E00065970FB6F894DEBF0FBECDBF7C016B0193
:1051F0008A01B22EFC0185AD811168C0C7010E94F1
:105200000124F70184AD882319F0C7010E94AF285B
:10521000B80180E090E004E110E09E012F5F3F4F75
:105220004AE00E94011D60E274E0C7010E943D3126
:10523000B601C7010E946E316CEF72E0C7010E9497
:105240006E31BE016F5F7F4FC7010E946E316EE10C
:1052500074E0C7010E943D3164EF71E0C7010E9414
:105260008A22811101C0FFCFB11004C081E0F70193
:1052700085AF2DC040E157E2BE016B5E7F4FC70195
:105280000E94971E8823F9F08D898A3271F0833449
:1052900089F7898324EF31E043E150E0BE016E5F7E
:1052A0007F4FC7010E9498210EC044EF51E068E192
:1052B00074E0C7010E94A020882329F081E0F70153
:1052C00084AF158604C0C7010E94142380E0659650
:1052D0000FB6F894DEBF0FBECDBFDF91CF911F9107
:1052E0000F91FF90EF90DF90CF90BF900895CF93F4
:1052F000DF93EC0164EF71E00E94021FCE010E9477
:1053000001246CED73E0CE010E943D3144EF51E089
:1053100065ED73E0CE010E94A020882331F0CE011C
:105320000E9414231CAE81E00BC0CE010E94142306
:105330006CEB73E0CE018A5B9F4F0E947B3180E073
:10534000DF91CF910895FC011382128248EE53E061
:1053500060E070E0448355836683778382E193E065
:1053600091838083158614860895CF93DF93EC0193
:105370001B821A8248EE53E060E070E04C835D834C
:105380006E837F8382E093E099838883CE018A5B7A
:105390009F4F0E94A3291D861E861C8A1B8A1CAE55
:1053A0001DAE81E08D8B8E8BFE01EB5AFF4F11827B
:1053B0001082329611821082C75ADF4F19821882EA
:1053C000DF91CF9108950F9300E020E040E060E08E
:1053D0008BE595E00E94E4300F9108950F93CF93F1
:1053E000DF93EC016115710531F4CE010E940124B7
:1053F000882359F00CC09B0140E050E00AE060E7D0
:1054000075E00E9410278111F0CF80E012C08FE775
:1054100095E00E94042F64EF71E080E090E00E942C
:10542000662D69E675E0CE010E943D311D8681E062
:105430008E87DF91CF910F9108950F9300E020E0C8
:1054400040E060E081E695E00E94E4300F9108952D
:105450000DB407FEFDCF0895FC01638744870895CE
:105460000F936034D8F54033C8F50130C9F42130CA
:10547000A9F5E42FE695E695E69580E4E89FF0012E
:105480001124E60FF11DED5EFE4F477081E090E0C4
:10549000042E01C0880F0A94EAF7908198271DC056
:1054A000842F869586958695E62FF0E0477090E4E8
:1054B000899FE00DF11D1124ED5EFE4F81E090E02B
:1054C000042E01C0880F0A94EAF7213019F4908164
:1054D000982B03C080959081982390830F91089515
:1054E000DC0161112EC018961C92189780919302CE
:1054F00090919402FC01249116962C931697319664
:10550000E4911796EC931797FC013296E491199663
:10551000EC931997FC013396E4911A96EC931A9741
:10552000FC01349624913196849190E0F4E62F9F0B
:10553000800D911D11241E969C938E931D9781E0E2
:10554000089580E008955F926F927F928F929F926C
:10555000AF92BF92CF92DF92EF92FF920F931F9381
:10556000CF93DF93EC01162FB42EF02E398523173D
:1055700008F4B0C06A8570E0630F711D822F90E05F
:10558000861797070CF0A6C0D22ED31A9F80969448
:105590009694969481E08915C0F1C12E3C2D311B63
:1055A0002E81822F90E0A32FB0E08A179B070CF486
:1055B00091C0321791F0E885F0E0EE0FFF1FED5635
:1055C000FD4FD29EA00DB11D112416960190F081C1
:1055D000E02DEA0FFB1F949001C0912CA12C4A2DC5
:1055E0004B0D90FE03C00E2D2F2D04C021E0F110B5
:1055F00020E00E2D6C2DCE010E94302A9694A394AB
:1056000088E0A812ECCFC394C9CFED85FE852E812A
:1056100030E0CF01B9010E94F9338D2D90E00E9456
:10562000F933829F6001839FD00C929FD00C11248C
:105630009E9E90019F9E300D1124269FC001279FA2
:10564000900D369F900D1124C80ED91E742EA12CDA
:10565000B12C86E0C80ED11C812E482D411B8E81B5
:10566000481780F5E885F0E0EE0FFF1FED56FD4F7F
:105670002D853E85A29EC001A39E900DB29E900DE9
:1056800011248C0D9D1D840F911D0190F081E02D42
:10569000E80FF91F5490612C462D470D50FE03C0B2
:1056A0000E2D2F2D04C021E0F11020E00E2D682DCD
:1056B000CE010E94302A5694639488E06812ECCFA1
:1056C0008394CBCF8FEFA81AB80A88E0780EA9147C
:1056D00008F4C2CFDF91CF911F910F91FF90EF900F
:1056E000DF90CF90BF90AF909F908F907F906F9002
:1056F0005F900895EF920F93CF93DF93EC01262FE5
:105700006A30A9F06D30C1F0ED800C814C856B855D
:105710000E94A32A4E812B85240F2F5F2B8730E018
:1057200080E490E0841B9109821793072CF48C8508
:105730009F81890F8C871B8681E090E0DF91CF915C
:105740000F91EF9008952A9A22982898209A60E065
:105750008DE00E942B2E60E08BE00E942B2E61E0FA
:105760008DE00E94F22D61E08BE00E94F22D8CB55D
:1057700080618CBD08958CB580648CBD2A98229A76
:1057800008950DB407FEFDCF2898209A2A9A2298F2
:105790008CB58F7B8CBD0895CF93DF9300D0CDB7B0
:1057A000DEB74A8369830E94BB2B69816EBD0E946C
:1057B000282A4A814EBD0F900F90DF91CF910C9413
:1057C000C12BCF93DF9300D01F92CDB7DEB72B83D1
:1057D0004A8369830E94BB2B69816EBD0E94282A7F
:1057E0004A814EBD0E94282A2B812EBD0F900F901A
:1057F0000F90DF91CF910C94C12B0F931F93CF93F8
:10580000DF93EC0140E060E20E94CC2B2FE740E008
:1058100061E2CE010E94E12B27E040E062E2CE018E
:105820000E94E12B0E94BB2B289A20981EBC0FEFF0
:1058300013E00E94282A1EBC01501109D1F70E94D2
:10584000C12B42E060E2CE01DF91CF911F910F9119
:105850000C94CC2B613011F40C94FD2B80E891E07A
:10586000E3E1F1E0DF019C011D9221503040E1F7BE
:1058700008950F931F93CF93DF93EC0140E060E214
:105880000E94CC2B2FE540E261E2CE010E94E12B89
:1058900025E040E062E2CE010E94E12B0E94BB2B9A
:1058A000289A2098809113018EBD04E111E00E9496
:1058B000282AF80181918F018EBDF2E003391F077C
:1058C000B1F70E94C12B42E060E2CE01DF91CF919F
:1058D0001F910F910C94CC2B2CB5982F93702C7F8B
:1058E000922B9CBD9DB582FB882780F99E7F982BCB
:1058F0009DBD0895CF93DF93EC0160E00E94702A74
:1059000081E08C831D821B861C865F98579A61E01C
:1059100084E00E94F22D61E084E00E942B2E6AE078
:1059200070E080E090E00E94662D5F9A579865E0F5
:1059300070E080E090E00E94662D5F98579A84E0C6
:105940000E946C2C0E94A32B65E070E080E090E048
:105950000E94662D5F9A57986AE070E080E090E0C0
:105960000E94662D4FE268EACE010E94CC2B44E1F2
:105970006DE8CE010E94CC2B0E94BB2B81EA8EBD2C
:105980000E94C12B0E94BB2B88EC8EBD0E94C12BB4
:105990004FE861E8CE010E94CC2B41EF69EDCE01CA
:1059A0000E94CC2B40E46BEDCE010E94CC2B0E94D8
:1059B000BB2B8FEA8EBD0E94C12BCE01DF91CF9110
:1059C0000C94FD2B10926A051092690582E993E010
:1059D000909368058093670508951F920F920FB604
:1059E0000F9211242F933F938F939F93AF93BF9365
:1059F0008091770590917805A0917905B0917A050D
:105A00003091760523E0230F2D3720F40196A11D58
:105A1000B11D05C026E8230F0296A11DB11D2093DC
:105A200076058093770590937805A0937905B093D8
:105A30007A0580917B0590917C05A0917D05B091C0
:105A40007E050196A11DB11D80937B0590937C0579
:105A5000A0937D05B0937E05BF91AF919F918F91EB
:105A60003F912F910F900FBE0F901F9018952FB759
:105A7000F8946091770570917805809179059091FF
:105A80007A052FBF08953FB7F89480917B059091D8
:105A90007C05A0917D05B0917E0526B5A89B05C02B
:105AA0002F3F19F00196A11DB11D3FBF6627782F2A
:105AB000892F9A2F620F711D811D911D42E0660F83
:105AC000771F881F991F4A95D1F70895CF92DF92CB
:105AD000EF92FF92CF93DF936B017C010E94432DE5
