:100000000C94F7060C941F070C941F070C949B1D6F
:100010000C949B1D0C949B1D0C941F070C941F07A4
:100020000C941F070C941F070C941F070C941F07B8
:100030000C941F070C941F070C941F070C941F07A8
:100040000C94F72B0C941F070C94192F0C944B2F26
:100050000C941F070C941F070C941F070C941F0788
:100060000C941F070C941F075265626F6F74696EC2
:100070006720576946692E2E2E005265626F6F7495
:10008000204D6963726F566965772026205769464F
:100090006920746F20736574206E657720706F72AD
:1000A000742E006572726F723A2072656D6F74659E
:1000B000206D6F64656D20697320696E20636F6DBC
:1000C0006D616E64206D6F64652E00494E434F4D27
:1000D000494E470A43414C4C00434F4E4E45435412
:1000E000494E4720544F2053595354454D2E0043F9
:1000F0004F4E4E4543542025750052494E4700450A
:1001000052524F52004F4B004242532E4A414D4DE6
:10011000494E475349474E414C2E434F4D3A323397
:10012000005757572E434F4D4D4F444F524553455F
:10013000525645522E434F4D3A31353431004175B8
:10014000746F73746172743A20003A004E4F20430A
:10015000415252494552004F4B004F4B004F4B000C
:100160004F4B000D0A507265737320616E79206BDE
:10017000657920746F2063616E63656C2E2E2E008E
:100180004175746F2D636F6E6E656374696E672061
:10019000746F3A0D0A00576966693A256C640A0A59
:1001A0004336343A20256C6400576966693A256CF9
:1001B000640A0A4336343A20256C640A0A525453BE
:1001C0003A20256C64002A2A2A205465726D696ED3
:1001D000616C204D6F646520284465627567292035
:1001E0002A2A2A00436F6E6E656374204661696C2B
:1001F00065642100436F6E6E656374656420746F7F
:1002000020257300436F756C64206E6F74207265D7
:10021000736F6C766520444E532E2020436F6E6EB4
:10022000656374204661696C656421000D0A436F43
:100230006E6E656374696E6720746F20257300535A
:100240005349440A0A257300495020416464726589
:100250007373200A257300426175642052617465CE
:100260000A0A2575004669726D776172650A0A256A
:100270007300496E697420737472696E673A200066
:10028000415445256456256451256426432564263A
:100290004B256453303D2564004C697374656E20B2
:1002A000706F72743A20004669726D776172653AB8
:1002B000202020200057692D466920535349443A95
:1002C000202000495020416464726573733A2020F5
:1002D000004D414320416464726573733A200041CC
:1002E00053434949204D6F6465000D0A436F6D6D9E
:1002F0006F646F72652057692D4669204D6F646584
:100300006D20486179657320456D756C6174696F06
:100310006E0057692D4669204661696C656421004D
:1003200057692D4669204F4B210057692D4669209A
:10033000496E69742E2E2E00256C6400426175642E
:100340000A446574656374696F6E00050800FF0CEC
:100350004B00000000003E5B4F5B3E3E6B4F6B3E30
:100360001C3E7C3E1C183C7E3C181C577D571C1CB8
:100370005E7F5E1C00183C1800FFE7C3E7FF001813
:10038000241800FFE7DBE7FF30483A060E262979FC
:100390002926407F050507407F05253F5A3CE73C5D
:1003A0005A7F3E1C1C08081C1C3E7F14227F22140E
:1003B0005F5F005F5F06097F017F006689956A6065
:1003C0006060606094A2FFA29408047E040810207C
:1003D0007E201008082A1C08081C2A08081E101075
:1003E00010100C1E0C1E0C30383E3830060E3E0E1F
:1003F00006000000000000005F000000070007008A
:10040000147F147F14242A7F2A122313086462366F
:10041000495620500008070300001C2241000041FB
:10042000221C002A1C7F1C2A08083E080800807035
:100430003000080808080800006060002010080468
:10044000023E5149453E00427F40007249494946BB
:100450002141494D331814127F1027454545393C39
:100460004A49493141211109073649494936464926
:1004700049291E0000140000004034000000081448
:1004800022411414141414004122140802015909C1
:10049000063E415D594E7C1211127C7F4949493616
:1004A0003E414141227F4141413E7F494949417F8F
:1004B000090909013E414151737F0808087F004145
:1004C0007F41002040413F017F081422417F40408E
:1004D00040407F021C027F7F0408107F3E41414163
:1004E0003E7F090909063E4151215E7F09192946CF
:1004F000264949493203017F01033F4040403F1FE5
:100500002040201F3F4038403F6314081463030419
:100510007804036159494D43007F41414102040879
:100520001020004141417F0402010204404040404C
:1005300040000307080020545478407F2844443882
:100540003844444428384444287F385454541800CC
:10055000087E090218A4A49C787F0804047800444B
:100560007D40002040403D007F1028440000417F36
:1005700040007C047804787C0804047838444444BF
:1005800038FC1824241818242418FC7C08040408B7
:10059000485454542404043F44243C4040207C1CD0
:1005A0002040201C3C4030403C44281028444C90C3
:1005B00090907C4464544C4400083641000000771D
:1005C0000000004136080002010204023C262326F6
:1005D0003C1EA1A161123A4040207A38545455592A
:1005E0002155557941215454784121555478402062
:1005F000545579400C1E527212395555555939547B
:1006000054545939555454580000457C4100024512
:100610007D420001457C40F0292429F0F02825285E
:10062000F07C545545002054547C547C0A097F4981
:1006300032494949323248484832324A4848303AC9
:100640004141217A3A42402078009DA0A07D394462
:100650004444393D4040403D3C24FF2424487E49E9
:1006600043662B2FFC2F2BFF0929F620C0887E091B
:100670000320545479410000447D413048484A32B7
:10068000384040227A007A0A0A727D0D19317D269F
:1006900029292F28262929292630484D4020380885
:1006A00008080808080808382F10C8ACBA2F102806
:1006B00034FA00007B000008142A142222142A14A1
:1006C00008AA005500AAAA55AA55AA000000FF00D2
:1006D000101010FF00141414FF001010FF00FF1082
:1006E00010F010F0141414FC001414F700FF0000B4
:1006F000FF00FF1414F404FC141417101F10101F33
:10070000101F1414141F00101010F0000000001F20
:10071000101010101F10101010F010000000FF102B
:100720001010101010101010FF10000000FF140027
:1007300000FF00FF00001F10170000FC04F4141459
:100740001710171414F404F40000FF00F714141425
:1007500014141414F700F7141414171410101F10A5
:100760001F141414F4141010F010F000001F101FC8
:100770000000001F14000000FC140000F010F01036
:1007800010FF10FF141414FF141010101F000000AD
:1007900000F010FFFFFFFFFFF0F0F0F0F0FFFFFFB1
:1007A0000000000000FFFF0F0F0F0F0F3844443808
:1007B000447C2A2A3E147E02020606027E027E0243
:1007C00063554941633844443C04407E201E200662
:1007D000027E020299A5E7A5991C2A492A1C4C729F
:1007E00001724C304A4D4D303048784830BC625A26
:1007F000463D3E494949007E0101017E2A2A2A2AB6
:100800002A44445F444440514A444040444A514091
:100810000000FF0103E080FF000008086B6B083652
:1008200012362436060F090F0600001818000000C3
:100830001010003040FF0101001F01011E00191DB2
:100840001712003C3C3C3C0000000000636C6F73DE
:10085000653A206661696C65642C206E6F202A43BE
:100860004C4F532A002A434C4F532A00636C6F733A
:10087000650D00636C6F73653A206661696C656431
:100880002C206E6F202A434C4F532A002A434C4F92
:10089000532A00636C6F73650D004F50454E2A005C
:1008A000302E302E302E30004F50454E2A000D0095
:1008B0006F70656E20004F50454E2A000D006F701E
:1008C000656E20003235352E3235352E302E300013
:1008D0003136392E3235342E312E31003634206205
:1008E000797465730050696E67207472790070695D
:1008F0006E67200073657420752069006C656176F1
:10090000650D0047573D000D006A6F696E2000417C
:1009100073736F63696174656421004641494C4596
:100920004400736574206164686F632070726F6245
:100930006500736574206164686F6320626561633C
:100940006F6E0073657420776C616E20747800732D
:10095000657420776C616E207261746500736574D4
:10096000206F7074207265706C61636500736574CC
:1009700020776C616E2070687261736500736574B6
:1009800020776C616E206B65790073657420776CDD
:10099000616E206368616E0073657420776C616EB0
:1009A00020737369640073657420776C616E2068CE
:1009B0006964652031007365742073797320696FF1
:1009C00066756E630073657420636F6D6D20736967
:1009D0007A650073657420636F6D6D206D6174635B
:1009E000680073657420636F6D6D2074696D6500B8
:1009F000302E302E302E30007365742062726F619D
:100A0000646361737420696E74657276616C0073DF
:100A100065742075617274206D6F64650073657410
:100A20002074696D6520656E61626C650073657424
:100A30002074696D65207A6F6E650073657420742B
:100A4000696D6520706F7274007365742074696DD0
:100A500065206164647265737300736574206970E6
:100A600020666C6167730073657420697020707212
:100A70006F746F636F6C00736574206970206468B5
:100A800063700073657420646E73206164647265C2
:100A90007373007365742069702067617465776192
:100AA0007900736574206970206E65746D61736B75
:100AB00000736574206970206E65746D61736B00DE
:100AC0007365742069702072656D6F74650073655D
:100AD0007420697020686F73740073657420697086
:100AE00020686F737400736574206970206C6F6385
:100AF000616C706F7274007365742069702061643A
:100B00006472657373007365742069702061646436
:100B1000726573730073657420776C616E206A6F01
:100B2000696E00736574206F206400736574206FB4
:100B300020640053657420466163746F72792044A9
:100B4000656661756C747300666163746F72792099
:100B5000524553544F52450D002A5265626F6F74CF
:100B60002A007265626F6F740D0053746F72696E44
:100B70006700736176650D003C74696D656F75740F
:100B80003E00414F4B0D0A004552523A200053455A
:100B900052564552004341434845004155544F4940
:100BA00050004F4E004F4646006C6F6F6B757020C3
:100BB0000074696D650D00736C6565700D0073657B
:100BC00074207379732077616B650073686F772089
:100BD000630D00455849540D0A00657869740D008D
:100BE000434D440D0A0024242400434D440D0A00C3
:100BF000242424003A200064656275672064756DC2
:100C000070002A4F50454E2A002A434C4F532A0069
:100C100073657420636F6D6D2072656D6F746520F0
:100C2000300073657420737973207072696E746C10
:100C3000766C2030007365742075206D2031005271
:100C400065706C6163653D005478506F7765723DE7
:100C500000526174653D004A6F696E3D00526562E5
:100C60006F6F743D0050726F62653D004265616355
:100C70006F6E3D00676574206164686F630D00509E
:100C8000524F544F3D00464C4147533D307800523F
:100C90005353493D282D0073686F77207273736931
:100CA0000D00466C75736853697A653D004D61743B
:100CB0006368436861723D00466C75736854696D82
:100CC00065723D0067657420636F6D6D0D004D6F3B
:100CD00064653D005254433D0073686F7720742073
:100CE000740D00416464726573733D006765742020
:100CF000646E730D0054696D653D00557054696DE7
:100D0000653D0073686F772074696D650D005A6FDB
:100D10006E653D006765742074696D650D00426104
:100D20007564726174653D0067657420750D0044DB
:100D3000657669636549643D00676574206F70740A
:100D40000D00535349443D0067657420776C616E14
:100D50000D004D616320416464723D00676574203D
:100D60006D61630D00444843503D00484F53543D6E
:100D70000047573D004E4D3D0049503D00676574AA
:100D80002069700D0000000008000201000003044B
:100D900007000000000000000001020408102040CD
:100DA0008001020408102001020408102004040439
:100DB0000404040404020202020202030303030304
:100DC0000300000000230026002900000000002589
:100DD0000028002B0000000000240027002A00004B
:100DE000B60C9D1CE12BEC2B712FFA2FEB0C112470
:100DF0001FBECFEFD8E0DEBFCDBF13E0A0E0B1E073
:100E0000ECE5F2E702C005900D92AC3EB107D9F7D0
:100E100026E0ACEEB3E001C01D92A035B207E1F7C9
:100E20001DE0CCEEDDE004C02297FE010E946A3393
:100E3000C03ED107C9F70E94B5170C9421390C9414
:100E40000000CF92DF92EF92FF920F931F93E82F53
:100E5000F92F05C0015011092109310961F1908173
:100E600096239417B9F305C00150110921093109DE
:100E700011F1908196239413F7CFC12CD12CE12C42
:100E8000F12C0AC08FEFC81AD80AE80AF80A0C1524
:100E90001D052E053F0579F080818623841791F387
:100EA0006C2D7D2D8E2D9F2D1F910F91FF90EF901A
:100EB000DF90CF90089560E070E080E090E01F91B7
:100EC0000F91FF90EF90DF90CF9008950C942B3806
:100ED000CF93DF93EC0160E085E295E00E94E51B93
:100EE00040E060E085E295E00E94E719BE0185E2FE
:100EF00095E00E94973085E295E0DF91CF910C94C8
:100F0000F41BCF93DF93EC0160E085E295E00E9453
:100F1000E51B40E060E085E295E00E94E719BE0134
:100F200085E295E00E94A93085E295E0DF91CF91BE
:100F30000C94F41BCF93DF9300D000D000D0CDB73A
:100F4000DEB72091EC03222399F0FC0160817181CE
:100F5000CE0101960E94C419BE016F5F7F4F80E0F1
:100F600095E00E946A30CE0101960E94803105C052
:100F7000BC0180E095E00E946A3026960FB6F89496
:100F8000DEBF0FBECDBFDF91CF910895CF93DF932A
:100F900000D000D000D0CDB7DEB7BC01CE010196A5
:100FA0000E947232CE0101960E949A07CE010196EC
:100FB0000E94803180E095E00E94813026960FB635
:100FC000F894DEBF0FBECDBFDF91CF9108950F9390
:100FD0001F93CF93DF9300D000D000D0CDB7DEB702
:100FE0008C01BC01CE0101960E947232CE010196A5
:100FF0000E94C607CE0101960E9480314AE060E25D
:10100000C8010E94F032B801CE0101960E947232EE
:10101000CE0101960E946807CE0101960E948031A0
:1010200026960FB6F894DEBF0FBECDBFDF91CF91ED
:101030001F910F910895CF93DF9300D000D000D07F
:10104000CDB7DEB7BC018091EC03882381F0CE01DF
:1010500001960E94C419BE016F5F7F4F80E095E04A
:101060000E946A30CE0101960E94803104C080E067
:1010700095E00E94783026960FB6F894DEBF0FBE3A
:10108000CDBFDF91CF9108950E941B0880E095E0CD
:101090000C948130CF93DF9300D000D000D0CDB737
:1010A000DEB7BC01CE0101960E94EE3189819A81A2
:1010B0000E9444084AE060E2CE0101960E94F032AC
:1010C00089819A810E948107CE0101960E94803118
:1010D00026960FB6F894DEBF0FBECDBFDF91CF913D
:1010E000089580E095E00C948130CF93DF93CDB7E5
:1010F000DEB767970FB6F894DEBF0FBECDBF0E9474
:1011000071088091EC03882389F087E1E2E9F2E03D
:10111000DE01119601900D928A95E1F7BE016F5F95
:101120007F4F80E095E00E94783006C06FED72E05E
:1011300080E095E00E9447300E94710867960FB6E4
:10114000F894DEBF0FBECDBFDF91CF9108958830F8
:1011500031F091E0843109F090E0892F089581E029
:101160000895BF92CF92DF92EF92FF920F931F9359
:10117000CF93DF93CDB7DEB7C457D1090FB6F8943C
:10118000DEBF0FBECDBFB82E44E150E0BE01655AB0
:101190007F4F8AEA94E00E94AB2644E150E0BE0112
:1011A000655A7F4F8AEA94E00E94AB266E0187E47D
:1011B000C80ED11C44E150E0B6018AEA94E00E94D6
:1011C00055267E0193E3E90EF11C44E150E0B7019E
:1011D0008AEA94E00E94B1268AEA94E00E9473268B
:1011E0009093EE038093ED0361ED72E08E010F5F4B
:1011F0001F4FC8010E94A832C8010E949A07C80167
:101200000E948031BE01655A7F4FC8010E94EE31B5
:10121000C8010E94C607C8010E94803163EC72E0D9
:10122000C8010E94A832C8010E949A07C8010E9402
:101230008031B601C8010E94EE31C8010E94C60784
:10124000C8010E94803165EB72E0C8010E94A8329B
:10125000C8010E949A07C8010E948031B701C801E5
:101260000E94EE31C8010E94C607C8010E94803169
:1012700067EA72E0C8010E94A832C8010E949A077A
:10128000C8010E9480316BEA72E0C8010E94EE3111
:10129000C8010E94C607C8010E94803169E972E056
:1012A000C8010E94A832C8010E949A07C8010E9482
:1012B00080316091ED037091EE034AE050E080E0F0
:1012C00095E00E945E3180E095E00E948130B1108F
:1012D00042C0809197041F928F938091F1031F92D7
:1012E0008F938091EF031F928F93809198041F92A8
:1012F0008F93809107011F928F93809108011F9215
:101300008F9380E892E09F938F931F930F930E9497
:10131000373662E772E0CE0181599F4F0E94A832B2
:10132000CE0181599F4F0E949A07CE0181599F4F4C
:101330000E948031B801CE0181599F4F0E94EE3149
:10134000CE0181599F4F0E94C607CE0181599F4F00
:101350000E94803186C08BEA92E09F938F9385E64E
:1013600092E09F938F931F930F930E943736B8019B
:10137000CE0181599F4F0E94EE31CE0181599F4F7E
:101380000E946807CE0181599F4F0E94803168EE0C
:1013900073E080E090E00E94702C80910F018F93A9
:1013A00080910E018F9387E592E09F938F931F9317
:1013B0000F930E943736B801CE0181599F4F0E948A
:1013C000EE31CE0181599F4F0E946807CE018159AD
:1013D0009F4F0E94803168EE73E080E090E00E94B1
:1013E000702CDF92CF9288E492E09F938F931F93AB
:1013F0000F930E943736B801CE0181599F4F0E944A
:10140000EE31CE0181599F4F0E946807CE0181596C
:101410009F4F0E94803168EE73E080E090E00E9470
:10142000702CFF92EF928FE392E09F938F931F9324
:101430000F930E943736B801CE0181599F4F0E9409
:10144000EE31CE0181599F4F0E946807CE0181592C
:101450009F4F0E94803168EE73E080E090E00E9430
:10146000702C0FB6F894DEBF0FBECDBFCC58DF4F47
:101470000FB6F894DEBF0FBECDBFDF91CF911F91A5
:101480000F91FF90EF90DF90CF90BF9008958091E3
:10149000F10381110CC080910E0190910F01803CED
:1014A000924128F48091F203811101C00895359989
:1014B00007C08091B0008F7D8093B0005B9AF7CF1A
:1014C0008091B0008F7D8093B0005B9808958091EB
:1014D000F10381110CC080910E0190910F01803CAD
:1014E000924128F48091F203811101C00895809106
:1014F000B0008F7D8093B0004B9B02C04598F7CF22
:10150000459A0895CF93DF93EC01E881F981048037
:10151000F581E02DCE010995892BB9F3E881F98198
:101520000680F781E02DCE01DF91CF9109948F9253
:101530009F92AF92BF92CF92DF92EF92FF92CF93A2
:10154000DF93EC014B010E94412C6B017C01A12C2B
:10155000B12CE881F9810480F581E02DCE01099557
:10156000892BC1F40E94412C6C197D098E099F09B9
:1015700086169706A806B90660F78FEF9FEFDF91F2
:10158000CF91FF90EF90DF90CF90BF90AF909F9062
:101590008F900895E881F9810084F185E02DCE01D6
:1015A000DF91CF91FF90EF90DF90CF90BF90AF9001
:1015B0009F908F900994CF93DF93EB012091980433
:1015C000211112C020910701222329F080E095E02B
:1015D0000E94473005C0BC0180E095E00E94783051
:1015E00080E095E00E94813085E295E00E948130A4
:1015F000BE0185E295E00E94853085E295E0DF91AD
:10160000CF910C94F41B65E071E080EB92E00C94B8
:10161000DB0A6FEF70E082EB92E00C94DB0A81E56D
:10162000E5EFF3E0DF011D928A95E9F7089581E087
:101630008093090110929A041092990480930801F2
:101640008093070110929804109297048BE2809384
:1016500006011092F0031092F1031092EF03089527
:10166000CF92DF92EF92FF92CF93C82F0E94412C2E
:101670006B017C010E94412C685B7B4081099109D0
:101680006C157D058E059F0508F473C08C2F0E9494
:101690006B2D892B79F720E432E44FE050E060E0D5
:1016A0008C2F0E94942D6C30710581059105A4F159
:1016B0006431710581059105A4F16D3171058105D4
:1016C0009105A4F16832710581059105A4F16C338F
:1016D000710581059105A4F16035710581059105BC
:1016E000A4F16639710581059105A4F16C3221E000
:1016F0007207810591059CF1683522E0720781052A
:10170000910594F1603B74408105910594F560EB7F
:1017100074E080E090E030C060E072EC81E090E046
:101720002BC060E071EE80E090E026C060E076E9DA
:1017300080E090E021C060E870E780E090E01CC0AD
:1017400060E07BE480E090E017C060E478E380E054
:1017500090E012C060E875E280E090E00DC060ECBF
:1017600072E180E090E008C060E679E080E090E01F
:1017700003C060E070E0CB01CF91FF90EF90DF906D
:10178000CF9008950F931F93CF93DF931F92CDB700
:10179000DEB78C0169830E9466076981861741F074
:1017A000C8010F90DF91CF911F910F910C943338A6
:1017B0000F90DF91CF911F910F9108958093EC03CB
:1017C000682F80E090E00C94C20BEF92FF920F9391
:1017D0001F93CF93DF937C018B01C0E0D0E0D80151
:1017E000ED91FC91EC0FFD1F6081CE018E0D9F1DD0
:1017F0000E9433382196C632D10589F7DF91CF9107
:101800001F910F91FF90EF900895AF92BF92CF92EA
:10181000DF92EF92FF920F931F93CF93DF93CDB799
:10182000DEB7A8970FB6F894DEBF0FBECDBF6C0130
:101830007B018E010F5F1F4F5E0187E2A80EB11C76
:10184000B801E01AF10AC701800F911F6FA378A7B2
:101850000E946607F80181938F016FA178A5EA15B0
:10186000FB0589F7C6010E94EE31C601A8960FB6A6
:10187000F894DEBF0FBECDBFDF91CF911F910F91C6
:10188000FF90EF90DF90CF90BF90AF900895FC0154
:101890002191222331F0DC012C932032C9F30196EF
:1018A000F7CFFC01108208950F931F93CF93DF931E
:1018B00000D000D000D0CDB7DEB78C018091ED0311
:1018C0009091EE0380179107E1F1B8018AEA94E064
:1018D0000E94C7288AEA94E00E949F281093EE0392
:1018E0000093ED0380910C0190910D018036994099
:1018F00081F06AE770E0CE0101960E94A832CE0125
:1019000001960E94C607CE0101960E94803181E0B7
:1019100019C068E670E0CE0101960E94A832CE019F
:1019200001960E94C607CE0101960E9480318AEA84
:1019300094E00E948E2968E873E180E090E00E94C4
:10194000702C80E026960FB6F894DEBF0FBECDBF98
:10195000DF91CF911F910F9108959091F0039130F5
:1019600019F091E09827892F90E008950F9300E0F7
:1019700020E040E060E08FE195E00E94EE2F20E063
:1019800046E065E080E095E00E946E1E8AEA94E001
:101990000E94B42B6DED73E084EA94E00E94EE3176
:1019A00041E020910E0130910F0180910C01909146
:1019B0000D012817390709F440E04093F20380E055
:1019C00090E00E94660791E0811101C090E0909341
:1019D000EC030F91089584EA94E00E94803180E046
:1019E00095E00C94151E81E08093090110929A04F1
:1019F000109299048AEA94E00E945422019629F4F4
:101A00008AEA94E00E94AE2A04C08AEA94E00E9426
:101A1000762B6CE471E084EB92E00E94DB0A80910B
:101A2000EF03882339F080E00E94AD0C682F80E13D
:101A30000C94352D0895CF93DF93CDB7DEB7E8979B
:101A40000FB6F894DEBF0FBECDBF66EC71E08E011D
:101A50000F5F1F4FC8010E94A832C8010E94C6072D
:101A6000C8010E948031412C512C3201C12CD12C53
:101A70007601312C99EAA92E91E0B92E26E9822E21
:101A800021E0922E8AEA94E00E9454221816190648
:101A90009CF46FEFC61AD60AE60AF60A0E94470AB5
:101AA0008AEA94E00E94F921682F80E095E00E9484
:101AB000C91C33243394E6CF80E095E00E94351DA5
:101AC000181619068CF48FEF481A580A680A780A13
:101AD00080E095E00E94A81C682F8AEA94E00E94AA
:101AE0008E2033243394E8CF9201A301332051F2A6
:101AF0008091F10381110BC080910E0190910F0133
:101B0000803C924120F48091F203882399F01F9247
:101B10001F921F921F925F934F933F932F93FF92B9
:101B2000EF92DF92CF92BF92AF921F930F930E94DA
:101B300037360EC07F926F925F924F92FF92EF9274
:101B4000DF92CF929F928F921F930F930E9437360E
:101B50000FB6F894DEBF0FBECDBFB801CE01C3965D
:101B60000E94EE31CE01C3960E946807CE01C39653
:101B70000E94803187CF1F93CF93DF93EC01162F04
:101B80006FEF8AEA94E00E948E20CD3FD10511F4D8
:101B90006DEF01C06BEF8AEA94E00E948E20612F06
:101BA0008AEA94E0DF91CF911F910C948E201F93CD
:101BB000CF93DF93EC01162F6FEF8AEA94E00E9437
:101BC0008E20CD3FD10511F46CEF01C06EEF8AEA93
:101BD00094E00E948E20612F8AEA94E0DF91CF91F9
:101BE0001F910C948E206FEF8AEA94E00E948E2061
:101BF0006EEF8AEA94E00E948E2062E28AEA94E024
:101C00000E948E206FEF8AEA94E00E948E206EEF91
:101C10008AEA94E00E948E2061E08AEA94E00C94C3
:101C20008E20CF93DF9360E177E28AEA94E00E940E
:101C3000970A8F3F910591F50E94F30D68E873E1D3
:101C40008AEA94E00E94970A8F3F910539F58AEA63
:101C500094E00E94820A8AEA94E00E94820AEC01DF
:101C60008F3F2FEF920751F38B5F9109049730F765
:101C70008AEA94E00E94820A8F3F2FEF9207F1F2E6
:101C80008330910531F463E070E0CE010E94BB0D1A
:101C9000D5CFBC01CE010E94D70DD0CFDF91CF911F
:101CA00008950F931F93CF93DF93CDB7DEB764975B
:101CB0000FB6F894DEBF0FBECDBF80910F018F939A
:101CC00080910E018F938FEE90E09F938F938E0102
:101CD0000F5F1F4F1F930F930E943736C8010E945A
:101CE0004A080F900F900F900F900F900F908091D7
:101CF000EF03882339F081E00E94AD0C682F80E16A
:101D00000E94352D0E94110E81E080939A0410925A
:101D100009011092990464960FB6F894DEBF0FBEC5
:101D2000CDBFDF91CF911F910F91089580919904BC
:101D3000811102C00C94F30C0C94510E81E080933D
:101D400099048091970481110C94960E6AEF70E0CB
:101D500086EB92E00E94DB0A439A6AEF70E080E033
:101D600090E00E94702C43980895CF92DF92EF92FA
:101D7000FF921F93CF93DF9300D000D000D0CDB758
:101D8000DEB780E095E00E94A81C182F0E94412C2D
:101D9000685E734081099109C0909D04D0909E04B3
:101DA000E0909F04F090A004C616D706E806F90656
:101DB000D8F41B32B9F48091A1049091A2048B3223
:101DC000910531F081E08093A3048BE290E005C09F
:101DD0002091A3042F5F2093A3049093A2048093E7
:101DE000A1040CC01092A3040E94412C60939D0496
:101DF00070939E0480939F049093A0048091A30409
:101E00008330D9F468EB72E0CE0101960E94EE3186
:101E1000CE0101960E946807CE0101960E94803192
:101E200081E080939C041092A30410929D04109270
:101E30009E0410929F041092A004612F8AEA94E0FD
:101E40000E948E2026960FB6F894DEBF0FBECDBF3F
:101E5000DF91CF911F91FF90EF90DF90CF90089589
:101E6000CF92DF92EF92FF920F931F93CF93DF9366
:101E7000CDB7DEB7C456D1090FB6F894DEBF0FBE9A
:101E8000CDBFCE0101967C018AEA94E00E945422E3
:101E9000019609F46CC08091F2038823F1F100E00F
:101EA00010E08AEA94E00E94542218161906B4F44D
:101EB0008091B0008F7D8093B0005B9A8AEA94E0B5
:101EC0000E94F921F701E00FF11F80830F5F1F4F80
:101ED0000436110534F303E610E0E3CF6701C601D1
:101EE0008E199F09801791078CF4F60161916F019B
:101EF00080E095E00E94C91C80E095E00E94351DBD
:101F00001816190664F70E94B50EF6CF8091B0003E
:101F10008F7D8093B0005B9813C08AEA94E00E94A2
:101F200054221816190664F40E94470A8AEA94E0BB
:101F30000E94F921682F80E095E00E94C91CEDCF36
:101F400080E095E00E94351D181619061CF40E94C9
:101F5000B50EF6CF8AEA94E00E94A12A882329F0E0
:101F600080919C04882309F48FCF10929C048AEA04
:101F700094E00E94AE2A0E94F30C8091EF03882324
:101F8000B1F080E00E94AD0C682F80E1CC59DF4FAA
:101F90000FB6F894DEBF0FBECDBFDF91CF911F917A
:101FA0000F91FF90EF90DF90CF900C94352DCC598E
:101FB000DF4F0FB6F894DEBF0FBECDBFDF91CF91DC
:101FC0001F910F91FF90EF90DF90CF900895BF92F7
:101FD000CF92DF92EF92FF920F931F93CF93DF93F5
:101FE000CDB7DEB7C854D1090FB6F894DEBF0FBE27
:101FF000CDBF7C016B01B42EFC0181818F93808168
:102000008F938CE292E09F938F938E010F5F1F4F0F
:102010001F930F930E943736C8010E94810762E028
:102020008AEA94E00E94DE28F7016081718120E154
:1020300030E0AE014D5C5F4F8AEA94E00E94E326F7
:102040000F900F900F900F900F900F90811114C070
:1020500064E072E0CE018D5B9F4F0E94A832CE01FA
:102060008D5B9F4F0E94E707CE018D5B9F4F0E94C3
:1020700080310E94F30C54C021E0A601BE016D5CCA
:102080007F4F8AEA94E00E94E42A882311F1F70145
:1020900081818F9380818F9384EF91E09F938F93C1
:1020A0001F930F930E943736C8010E9481070F903B
:1020B0000F900F900F900F900F908091EF03882357
:1020C00039F181E00E94AD0C682F80E10E94352D2E
:1020D0001FC064EE71E0CE018D5B9F4F0E94A8325D
:1020E000CE018D5B9F4F0E946807CE018D5B9F4F95
:1020F0000E9480310E94F30C8091EF03882381F0CD
:1021000080E00E94AD0C682F80E10E94352D08C050
:10211000B11002C00E94110E0E94510E0E94300F99
:10212000C85BDF4F0FB6F894DEBF0FBECDBFDF91A7
:10213000CF911F910F91FF90EF90DF90CF90BF90C4
:102140000895EF92FF920F931F93CF93DF93CDB734
:10215000DEB72C970FB6F894DEBF0FBECDBF8C0153
:10216000BC01CE0107960E94EE31F80180818111F9
:1021700003C00E94090B3DC06AE370E0C8010E94E1
:10218000DD350097C1F0FC0111927F01B801CE014D
:1021900001960E94EE31BE016F5F7F4FCE01079620
:1021A0000E947B32CE0101960E948031C7010E94BD
:1021B00079358C0102C007E110E0BE01695F7F4FF5
:1021C00084EA94E00E945B3210930B0100930A01B1
:1021D000BE01695F7F4FCE0101960E94723240E0DE
:1021E000B801CE0101960E94E70FCE0101960E9430
:1021F0008031CE0107960E9480312C960FB6F8945C
:10220000DEBF0FBECDBFDF91CF911F910F91FF9029
:10221000EF9008958F929F92AF92BF92CF92DF92EC
:10222000EF92FF920F931F93CF93DF93CDB7DEB75B
:10223000E0970FB6F894DEBF0FBECDBF0E947108C5
:102240008091F503813439F48091F603843509F0E7
:10225000E9C381E009C0813609F0E4C38091F60347
:10226000843709F0DFC380E09091EC0389130E946A
:10227000DE0B65EF73E086E494E00E94F13505EF34
:1022800013E07801F70101900020E9F73197E55F4D
:10229000F340C801855F93408E179F0758F4F801FB
:1022A0008081992787FD90950E949F35F801819341
:1022B0008F01E8CF65EF73E0CE0101960E94EE3109
:1022C000CE0101960E946807CE0101960E948031DE
:1022D00060EC72E085EF93E00E94E835892B41F0D5
:1022E00064EC72E085EF93E00E94E835892B41F4BD
:1022F00080919A04882309F4A3C11092090190C324
:1023000048E050E068EC72E085EF93E00E94F83519
:10231000892B39F58091EC036EE474E0882379F021
:10232000CE0101960E94831969817A818AEA94E03C
:102330000E94F828CE0101960E94803104C08AEAEA
:1023400094E00E94F8288AEA94E00E94512A60E210
:102350007EE48AEA94E00E94282A882309F470C166
:10236000C9C048E050E061ED72E085EF93E00E9463
:10237000F835892BB1F48091EC036EE474E0882386
:1023800059F0CE0101960E94831969817A818AEA07
:1023900094E00E9422292AC18AEA94E00E9422291C
:1023A000A9C047E050E06AED72E085EF93E00E943B
:1023B000F835892BB1F48091EC036DE474E0882347
:1023C00059F0CE0101960E94831969817A818AEAC7
:1023D00094E00E9403290AC18AEA94E00E9403293A
:1023E00089C04AE050E062EE72E085EF93E00E941F
:1023F000F835892B71F48091FF0389831A82CE010D
:1024000001960E9479358A30910508F019C1682F2C
:10241000B8C048E050E06DEE72E085EF93E00E94B6
:10242000F835892B91F48DEF93E00E9479358C017A
:1024300097FD06C10E94540C8111FFCF0E94030B2F
:102440001093EE030093ED03EBC266EF72E085EFAD
:1024500093E00E941536892B09F44FC064E6E62EFE
:10246000F12C00E010E00F5F1F4F4AE050E0B80190
:1024700080E095E00E945E316AE471E0CE01019651
:102480000E94A832CE0101960E949A07CE010196C1
:102490000E948031B701CE0101960E94050CCE0149
:1024A00001960E94C607CE0101960E948031F8E293
:1024B000EF0EF11C09301105B1F60E9471086EE3B0
:1024C00071E0CE0101960E94A832CE0101960E94D1
:1024D0009A07CE0101960E94803183E690E00E9427
:1024E00066074AE050E0682F80E095E00E94733173
:1024F0000E9471080E94030B93C26DEF72E085EF9A
:1025000093E00E941536892B09F440C004E610E0E0
:1025100069EA72E0CE0101960E94EE31BE016F5F62
:102520007F4FC8010E94E50BCE0101960E948031C9
:10253000085D1F4F0C3781E0180751F761E271E029
:10254000CE0101960E94A832BE016F5F7F4F84EAE0
:1025500091E00E94E50BCE0101960E94803168E077
:1025600071E0CE0101960E94A832BE016F5F7F4FDD
:102570008CE791E00E94E50BCE0101960E9480312C
:1025800060E083E690E00E94C20BB4CF45E050E0EB
:1025900068E073E085EF93E00E94F835892B59F5E8
:1025A0008091FA0389A71AA6CE0189960E947935EF
:1025B0008C01015011090930110508F041C08091CA
:1025C000FB038D33E9F56CEF73E0CE0101960E94B9
:1025D000EE3128E2209FC001219F900D1124BE0101
:1025E0006F5F7F4F8C599F4F0E94E50BCE01019684
:1025F0000E9480317FCF42E050E06EE073E085EFD3
:1026000093E00E94F835892BD9F422E030E0A12C28
:10261000B12C45EFC42E43E0D42E9924939458E274
:10262000852EF60101900020E9F73197E55FF34030
:102630002E173F0740F0A110F3C1BB2009F45ACF79
:102640000E94090BEDC12E343105ACF789010F5FF3
:102650001F4FF901EB50FC4F8081883409F448C0CA
:10266000B4F4863209F4B9C03CF48A3009F4D6C116
:102670008D3009F4D3C1CBC1843409F43DC1853414
:10268000F9F0813409F0C3C10E94960E87C18335E9
:1026900009F45DC02CF4893479F08135C9F1B7C1F2
:1026A000883509F496C08A3521F0863509F0AFC126
:1026B00078C00E94170BB2C180E00E94B108AEC181
:1026C000790192E0E90EF11CF801EB50FC4F80819A
:1026D000813341F08F3349F0803309F091C110927A
:1026E00008019BC19092080198C16091080127C020
:1026F0007901E2E0EE0EF11CF801EB50FC4F808115
:10270000803319F40E94F30C79C10E94F30C46C186
:102710007901F2E0EF0EF11CF801EB50FC4F8081E3
:10272000813341F08F3349F0803309F069C1109251
:10273000980473C19092980470C16091980470E0FD
:102740004AE050E080E095E00E945E3166C1A90158
:102750004E5F5F4FF801EB50FC4F8081803309F0F2
:1027600058C1C9010396FA01EB50FC4F40814D332B
:1027700009F051C189010C5F1F4FFC01EB50FC4F68
:102780008081813341F08F3349F0803309F03FC1BC
:102790001092970443C19092970440C160919704AE
:1027A00070C0790182E0E80EF11CF801EB50FC4F9B
:1027B0008081813341F08F3349F0803309F020C1AB
:1027C000109207012AC19092070127C16091070169
:1027D000B6CF89010E5F1F4F21C1790192E0E90E4A
:1027E000F11CF801EB50FC4F80818B34A1F144F4D3
:1027F000833469F0863409F010C10E94170B0DC1B3
:10280000823509F446C0873509F445C006C18901FF
:102810000D5F1F4FF701EB50FC4F8081813341F07A
:102820008F33B1F0803309F0F2C01092EF0306C08D
:102830009092EF0380919A04882311F081E001C007
:1028400080E00E94AD0C682F80E10E94352DE6C02B
:102850006091EF0316C089010D5F1F4FF701EB5028
:10286000FC4F8081813341F08F3349F0803309F090
:10287000CEC01092F103D2C09092F103CFC060910C
:10288000F10370E04AE050E080E095E00E945E31A4
:10289000C5C00E941B0D609108018AE090E00E9473
:1028A000C20B6091F1038BE090E00E94C20B60913B
:1028B00007018CE090E00E94C20B609198048DE0CB
:1028C00090E00E94C20B609197048EE090E00E941D
:1028D000C20B609106018FE090E00E94C20B6091F4
:1028E000EF0381E190E00E94C20B8AEA94E00E942B
:1028F0009F28811192C084C07901E2E0EE0EF11CA4
:102900000B501C4FF8018081803531F0843521F067
:10291000833209F077C045C089010D5F1F4FC701A1
:102920008B509C4F7C01FC018081833279F5F8014A
:10293000EB50FC4F80818FA718AACE018F960E9482
:10294000793501978930910508F061C0889EB00102
:10295000899E700D11246C597F4FCE0189960E947B
:10296000050C69A57AA548E250E0CE0101960E94C7
:102970000636CE0189960E948031CE0101960E94D2
:10298000470CCE0101960E94A11008C0C7010E9409
:10299000470CC7010E94A1100EE410E0AA24A394E2
:1029A0003DC0F701EB50FC4F80818FA718AACE01E4
:1029B0008F960E94793501978930910508F5889E98
:1029C000B001899E700D11246C597F4FCE018996FC
:1029D0000E94050C69A57AA548E250E0CE01019657
:1029E0000E940636CE0189960E948031CE01019662
:1029F0000E94470CCE0101960E94A1108701CECF04
:102A0000B3940BC0C8010E94470CC801C3CFB39454
:102A100005C08A0103C08C0101C08701980101CE65
:102A20000E940F0BE0960FB6F894DEBF0FBECDBF2D
:102A3000DF91CF911F910F91FF90EF90DF90CF909A
:102A4000BF90AF909F908F900895AF92BF92CF921A
:102A5000DF92EF92FF921F93CF93DF93DD24D39405
:102A6000C5EFD3E070E6A72E79E0B72EE4E6EE2EB0
:102A7000F12C80E095E00E94351D18161906CCF463
:102A800080910901882309F49EC08091F10381118E
:102A9000419880E095E00E94A81C182F8D7F883017
:102AA00099F01D3089F0143179F080EE810F8B3B65
:102AB00038F08091F103882309F4B9C0419AB7C076
:102AC00080E8810F8134A8F3809108018823B9F050
:102AD0008091F10381110EC080910E0190910F0140
:102AE000B5010E94FF32C7010E94FF3280E090E0F2
:102AF0000E94702C612F80E095E00E94C91C812FFC
:102B00000E94A708882361F08091F503882309F4C7
:102B1000B0CFFE0101900020E9F732971082A9CFD3
:102B20001D3099F11A3089F180910601181769F169
:102B3000FE0101900020E9F73197E55FF340E135B0
:102B4000F10518F00E94090B3BC0EB50FC4F1083BD
:102B50008091F503992787FD90950E949F358134D8
:102B6000910509F086CF8091F6038F3209F081CF6D
:102B700066E474E085EF93E00E94F1358091F10303
:102B80008111419A0E940A111BC08091F503992777
:102B900087FD90950E949F358134910589F480913D
:102BA000F603992787FD90950E949F3584359105FE
:102BB00039F48091F1038111419A0E940A1159CF91
:102BC0000E940F0B56CF80919A04882309F451CFAD
:102BD00080E095E00E94A81CC82E809106018C110F
:102BE0000BC02091F3033091F4032F5F3F4F3093DC
:102BF000F4032093F30304C01092F4031092F30340
:102C00002091F3033091F4032330310541F4109205
:102C1000F4031092F303D09209010E94030B0E9467
:102C2000670A6C2D8AEA94E00E948E2022CFDF9101
:102C3000CF911F91FF90EF90DF90CF90BF90AF901A
:102C40000895CF93DF9300D000D000D0CDB7DEB78A
:102C50008AEA94E00E94A12A8823E9F180919A04EB
:102C600081111BC080919904811140C069ED70E011
:102C70008AEA94E00E9485306BEC70E0CE01019608
:102C80000E94A832CE0101960E946807CE010196EB
:102C90000E9480310E949E0E33C0809109018823DA
:102CA00039F08AEA94E00E945422181619060CF1B1
:102CB0008AEA94E00E94542218161906BCF40E9475
:102CC000470A8AEA94E00E94F921682F80E095E0A3
:102CD0000E94C91CEDCF80919904882319F00E94AD
:102CE000F30C0EC080919A048111F9CF0E94251532
:102CF00007C063EA70E08AEA94E00E948530F6CF6C
:102D000026960FB6F894DEBF0FBECDBFDF91CF91F0
:102D10000895CF93DF93CDB7DEB7AE970FB6F89493
:102D2000DEBF0FBECDBF3B9A389A3C9A3D98439880
:102D3000409A8091EF03882339F080E00E94AD0C27
:102D4000682F80E10E94352D1092F4031092F30356
:102D50000E94170B8AE090E00E94660791E08111C3
:102D600001C090E0909308018BE090E00E9466071C
:102D700091E0811101C090E09093F1038CE090E02C
:102D80000E94660791E0811101C090E090930701D5
:102D90008DE090E00E94660791E0811101C090E013
:102DA000909398048EE090E00E94660791E0811174
:102DB00001C090E0909397048FE090E00E94660736
:102DC0008093060180E190E00E94660791E0811106
:102DD00001C090E09093F00381E190E00E946607CB
:102DE00091E0811101C090E09093EF030E940F0BDE
:102DF0000E94710880919B049FEF980F993008F012
:102E000069C0992787FD9095019728E2289FB00116
:102E1000299F700D11246C597F4FCE0189960E9415
:102E2000050C69A57AA548E250E0CE0101960E9402
:102E30000636CE0189960E94803160E871E0CE01AD
:102E400089960E94A832CE0189960E949A07CE01E7
:102E500089960E948031BE016F5F7F4FCE018996B7
:102E60000E94EE31CE0189960E94C607CE01899656
:102E70000E94803163E671E0CE0189960E94A832FB
:102E8000CE0189960E94C607CE0189960E948031A4
:102E900060ED77E080E095E00E94970A0196A9F046
:102EA00080E095E00E94820A60E671E0CE0189969A
:102EB0000E94A832CE0189960E946807CE018996A9
:102EC0000E9480316DE571E015C0CE0101960E942F
:102ED000A11018C06AE571E0CE0101960E94A832E7
:102EE000CE0101960E946807CE0101960E948031B2
:102EF00067E571E080E095E00E94473080E095E072
:102F00000E9481300E942116FDCFCF92DF92EF9276
:102F1000FF926C0190930D0180930C0189EA95E07A
:102F20000E940E2E62E070E080E090E00E94702C23
:102F3000E12CF12CB701A6018AEA94E00E94622AF2
:102F400068EE73E080E090E00E94702C89EA95E0E2
:102F50000E94F72E26E0B701A60189EA95E0FF90CE
:102F6000EF90DF90CF900C94952ECF93DF93CDB759
:102F7000DEB72C970FB6F894DEBF0FBECDBF0E9410
:102F8000982C85E295E00E94351C60E085E295E092
:102F90000E942B1A61E085E295E00E94E51B3A9AB7
:102FA00081E190E00E94660791E0811101C090E00C
:102FB0009093EF03992311F080E001C081E00E941B
:102FC000AD0C682F80E10E94352D82E090E00E94D8
:102FD0006607182F83E090E00E946607212F30E0FB
:102FE000322F2227280F311D30930F0120930E011D
:102FF000203B84E03807C9F0203699E03907A9F072
:10300000203C82E1380789F0203895E2390769F0E1
:1030100021158BE4380749F02115364931F080E657
:1030200099E090930F0180930E0160E085E00E948B
:10303000FC2C61E085E00E94352D6CE373E0CE014D
:1030400001960E94A832CE0101960E946807CE0127
:1030500001960E94803185E090E00E94300B6B0168
:103060007C01603B24E072078105910509F180E64F
:10307000C81689E0D806E104F104D1F090ECC91635
:1030800092E1D906E104F10499F020E8C21625E2A4
:10309000D206E104F10461F0C1148BE4D806E10426
:1030A000F10431F0C11496E9D906E104F104A9F55F
:1030B000FF92EF92DF92CF9288E393E09F938F93FA
:1030C0008E01095F1F4F1F930F930E943736B8017F
:1030D000CE0101960E94EE31CE0101960E94680752
:1030E000CE0101960E94803168EB7BE080E090E0A9
:1030F0000E94702CC0920E01D0920F016D2D82E0C3
:1031000090E00E94C20B6C2D83E090E00E94C20B05
:103110000FB6F894DEBF0FBECDBF40910E015091A7
:103120000F0160E070E080E095E00E949E1E4091FB
:103130000C0150910D0160E070E026E089EA95E015
:103140000E94952E48EE53E060E070E080E095E04C
:103150000E947A3141E020910E0130910F0180915F
:103160000C0190910D012817390709F440E04093B4
:10317000F2033D98399A5298539A8091B0008F7D0E
:103180008093B0005B98419A80E095E00E94813086
:103190006AE273E0CE0101960E94A832CE01019648
:1031A0000E94E707CE0101960E94803140E050E086
:1031B00069EA75E08AEA94E00E9477298823D9F0C9
:1031C00060E273E0CE0101960E94A832CE01019622
:1031D0000E94E707CE0101960E94803161E08AEAF1
:1031E00094E00E94E02880910E0190910F018036BA
:1031F000994089F422C062E173E0CE0101960E94F9
:10320000A832CE0101960E94E707CE0101960E94E6
:1032100080310E941B0D68EE73E080E090E00E9418
:10322000702C80910E0190910F01803B24E0920759
:1032300011F480E699E00E94851741E020910E018B
:1032400030910F0180910C0190910D0128173907E1
:1032500009F440E04093F2038AEA94E00E94AE2A27
:1032600083E690E00E94660780939B046AEE72E01A
:10327000CE0101960E94A832CE0101960E94C60797
:10328000CE0101960E9480310E9475080E9471084B
:1032900081E00E94B1080E948916CF93C82F80EA6E
:1032A0008C0F803210F490E603C0C03E18F090EC12
:1032B0009C0F03C0CD3001F19C2F9A30F9F0903271
:1032C00010F48EE21EC0903AD9F08FE3890F8A3154
:1032D00010F480E805C08FEB890F8A3118F480E282
:1032E000890F0FC08C2F992787FD90950E949935E3
:1032F000892B39F38C2F05C08AE003C08DE001C013
:1033000080E2CF910895EF92FF920F931F93CF9396
:10331000DF938C017B016DED73E00E94EE31E701DC
:103320008991882339F00E944D19682FC8010E94A5
:10333000DD32F6CFC801DF91CF911F910F91FF9041
:10334000EF9008958A30C1F08D30C1F08032D4F012
:103350008036B1F09FE9980F9A3110F480520895A9
:103360009FEB980F9A3110F4805808958B3754F4DE
:1033700080364CF0805A08958DE008958AE00895D3
:1033800087E208958FE30895EF92FF920F931F93C2
:10339000CF93DF938C017B016DED73E00E94EE31E2
:1033A000E7018991882339F00E94A219682FC8018A
:1033B0000E94DD32F6CFC801DF91CF911F910F91AE
:1033C000FF90EF9008950DB407FEFDCF0895FC0126
:1033D0006387448708950F936034D8F54033C8F568
:1033E0000130C9F42130A9F5E42FE695E695E6957C
:1033F00080E4E89FF0011124E60FF11DE05FFE4F2D
:10340000477081E090E0042E01C0880F0A94EAF72B
:10341000908198271DC0842F869586958695E62FE6
:10342000F0E0477090E4899FE00DF11D1124E05F0A
:10343000FE4F81E090E0042E01C0880F0A94EAF765
:10344000213019F49081982B03C0809590819823A6
:1034500090830F910895DC0161112EC018961C9283
:1034600018978091900290919102FC0124911696F8
:103470002C9316973196E4911796EC931797FC01CD
:103480003296E4911996EC931997FC013396E491E6
:103490001A96EC931A97FC013496249131968491F4
:1034A00090E0F4E62F9F800D911D11241E969C93B1
:1034B0008E931D9781E0089580E008955F926F924A
:1034C0007F928F929F92AF92BF92CF92DF92EF92B4
:1034D000FF920F931F93CF93DF93EC01162FB42E1F
:1034E000F02E3985231708F4B0C06A8570E0630FA9
:1034F000711D822F90E0861797070CF0A6C0D22E80
:10350000D31A9F8096949694969481E08915C0F181
:10351000C12E3C2D311B2E81822F90E0A32FB0E0D5
:103520008A179B070CF491C0321791F0E885F0E000
:10353000EE0FFF1FE057FD4FD29EA00DB11D1124CD
:1035400016960190F081E02DEA0FFB1F949001C0C8
:10355000912CA12C4A2D4B0D90FE03C00E2D2F2D2A
:1035600004C021E0F11020E00E2D6C2DCE010E9450
:10357000EB199694A39488E0A812ECCFC394C9CF1A
:10358000ED85FE852E8130E0CF01B9010E94FF322A
:103590008D2D90E00E94FF32829F6001839FD00CAE
:1035A000929FD00C11249E9E90019F9E300D11245D
:1035B000269FC001279F900D369F900D1124C80EA5
:1035C000D91E742EA12CB12C86E0C80ED11C812EE0
:1035D000482D411B8E81481780F5E885F0E0EE0FFD
:1035E000FF1FE057FD4F2D853E85A29EC001A39E83
:1035F000900DB29E900D11248C0D9D1D840F911D78
:103600000190F081E02DE80FF91F5490612C462DB8
:10361000470D50FE03C00E2D2F2D04C021E0F110E8
:1036200020E00E2D682DCE010E94EB195694639474
:1036300088E06812ECCF8394CBCF8FEFA81AB80A3A
:1036400088E0780EA91408F4C2CFDF91CF911F91C2
:103650000F91FF90EF90DF90CF90BF90AF909F9031
:103660008F907F906F905F900895EF920F93CF931C
:10367000DF93EC01262F6A30A9F06D30C1F0ED80A8
:103680000C814C856B850E945E1A4E812B85240F20
:103690002F5F2B8730E080E490E0841B9109821734
:1036A00093072CF48C859F81890F8C871B8681E082
:1036B00090E0DF91CF910F91EF9008952A9A229890
:1036C0002898209A60E08DE00E94352D60E08BE024
:1036D0000E94352D61E08DE00E94FC2C61E08BE0C2
:1036E0000E94FC2C8CB580618CBD08958CB58064E3
:1036F0008CBD2A98229A08950DB407FEFDCF289814
:10370000209A2A9A22988CB58F7B8CBD0895CF93EE
:10371000DF9300D0CDB7DEB74A8369830E94761B62
:1037200069816EBD0E94E3194A814EBD0F900F90D2
:10373000DF91CF910C947C1BCF93DF9300D01F922D
:10374000CDB7DEB72B834A8369830E94761B6981DC
:103750006EBD0E94E3194A814EBD0E94E3192B8180
:103760002EBD0F900F900F90DF91CF910C947C1B8A
:103770000F931F93CF93DF93EC0140E060E20E9430
:10378000871B2FE740E061E2CE010E949C1B27E0EF
:1037900040E062E2CE010E949C1B0E94761B289AA8
:1037A00020981EBC0FEF13E00E94E3191EBC0150CD
:1037B0001109D1F70E947C1B42E060E2CE01DF914B
:1037C000CF911F910F910C94871B613011F40C94D1
:1037D000B81B80E891E0E0E1F1E0DF019C011D927F
:1037E00021503040E1F708950F931F93CF93DF935B
:1037F000EC0140E060E20E94871B2FE540E261E2BD
:10380000CE010E949C1B25E040E062E2CE010E94B6
:103810009C1B0E94761B289A2098809110018EBDD7
:1038200001E111E00E94E319F80181918F018EBD41
:10383000F2E000391F07B1F70E947C1B42E060E212
:10384000CE01DF91CF911F910F910C94871B2CB566
:10385000982F93702C7F922B9CBD9DB582FB88275F
:1038600080F99E7F982B9DBD0895CF93DF93EC0147
:1038700060E00E942B1A81E08C831D821B861C86CF
:103880005F98579A61E084E00E94FC2C61E084E03C
:103890000E94352D6AE070E080E090E00E94702C7C
:1038A0005F9A579865E070E080E090E00E94702C8D
:1038B0005F98579A84E00E94271C0E945E1B65E077
:1038C00070E080E090E00E94702C5F9A57986AE068
:1038D00070E080E090E00E94702C4FE268EACE0138
:1038E0000E94871B44E16DE8CE010E94871B0E9465
:1038F000761B81EA8EBD0E947C1B0E94761B88ECA1
:103900008EBD0E947C1B4FE861E8CE010E94871BA0
:1039100041EF69EDCE010E94871B40E46BEDCE01C3
:103920000E94871B0E94761B8FEA8EBD0E947C1B23
:10393000CE01DF91CF910C94B81B10922805109204
:10394000270585E193E0909326058093250508954A
:10395000209176053091770528173907B9F49091B1
:10396000340580913505981789F0E0913405F0E031
:10397000EA5CFA4F80812091340530E02F5F3F4FA1
:103980002F7333272093340590E008958FEF9FEF36
:1039900008951F93CF93DF93DC015C968D919C91EA
:1039A0005D97009749F481E090E013969C938E9385
:1039B000129780E090E03BC05196ED91FC915297B8
:1039C00050962C915097322F30951FB75E964C91A0
:1039D0005E9741FB772770F941FD6095F89440812F
:1039E000772311F0422B01C043234083EC01219740
:1039F000F1F748E0508160FF02C0522B01C0532311
:103A00005083EC012197F1F76695415099F7808139
:103A1000772311F0832301C0822B80831FBF5C9624
:103A20008D919C915D970197F1F781E090E0DF9196
:103A3000CF911F9108952091760530917705281731
:103A4000390781F49091340580913505981751F02C
:103A5000E0913405F0E0EA5CFA4F8081992787FD18
:103A6000909508958FEF9FEF0895209176053091FE
:103A700077052817390771F48091350520913405B1
:103A800090E0805C9F4F821B910960E470E00E948F
:103A90001333089580E090E00895209176053091E9
:103AA00077052817390739F48FB7F8941092350540
:103AB000109234058FBF0895E0917605F091770557
:103AC000E817F90769F4A389B4899C9185898095E1
:103AD00089238C93109277051092760581E00895E2
:103AE00080E00895CF93DF93EC018A8D9B8D892B25
:103AF000F1F080917605909177058C179D07B9F0CC
:103B0000009711F00E945C1D8E8D8E7F8E8F10921B
:103B1000350510923405D0937705C0937605EB896F
:103B2000FC8980819D89892B808381E001C080E0B0
:103B3000DF91CF9108951F920F920FB60F9211242B
:103B40002F933F934F935F936F937F938F939F93A5
:103B5000AF93BF93EF93FF93E0917605F0917705D4
:103B6000309709F451C0868DA685B785958581FF6C
:103B700004C08C91892329F447C08C91892309F0D2
:103B800043C0A389B4899C918589809589238C93AE
:103B9000868997890197F1F7208D318DA685B785A4
:103BA000758558E040E0C9010197F1F7842F90E056
:103BB00095958795482F6C91672309F0406851507F
:103BC00091F7868D81FD40958091350590E00196B5
:103BD0008F73992720913405281749F0A091350556
:103BE000B0E0AA5CBA4F4C938093350503C0868D34
:103BF0008160868F828D938D0197F1F7A389B489B7
:103C00008C919589892B8C93FF91EF91BF91AF9106
:103C10009F918F917F916F915F914F913F912F91E4
:103C20000F900FBE0F901F9018952DE133E0FC010F
:103C3000318320830C945C1D1F93CF93DF93EC01A1
:103C4000162F6E8D6695617081E06827812F0E9426
:103C5000352D61E0812F0E94FC2C812F90E0FC012A
:103C6000E756F24FE491E88BFC01E355F24FE49103
:103C7000F0E0EE0FFF1FE553F24F859194919A8B80
:103C8000898BDF91CF911F9108951F93CF93DF937D
:103C9000EC01162F60E0812F0E94FC2C8E8D81FD9F
:103CA00004C061E0812F0E94352D1C87812F90E098
:103CB000FC01E756F24FE491ED87FC01E355F24F2A
:103CC000E491F0E0EE0FFF1FEF53F24F85919491D6
:103CD0009F878E87DF91CF911F910895FF920F9359
:103CE0001F93CF93DF93EC01F62E522F1B821A8283
:103CF00008EE13E020E030E00C831D832E833F8329
:103D00008DE193E0998388831F8A1E8A198E188E0D
:103D10001B8E1A8E1D8E1C8E8E8D8E7F50FB81F910
:103D20008E8F642FCE010E941C1E6F2DCE01DF915D
:103D3000CF911F910F91FF900C94451ECF93DF936D
:103D4000EC019A01AB011B8E1A8E198E188E1F8AF8
:103D50001E8A60E079E08DE390E00E944933C9015A
:103D60002430310520F0B9016350710902C061E0CF
:103D700070E07D8F6C8FEC85E63108F068C0B9018A
:103D8000769567956431710518F06351710902C029
:103D900061E070E07F8B6E8B069718F0C901059784
:103DA00002C081E090E0998F888FC901880F991F28
:103DB000820F931F96958795969587958D309105DF
:103DC00010F00C9702C081E090E09B8F8A8F2091C9
:103DD0006800E83050F091E0EE3008F490E081E0C7
:103DE00001C0880F9A95EAF701C084E0822B809386
:103DF00068002C85283038F02E3040F0263148F409
:103E00008CE690E008C08DE690E005C08BE690E07F
:103E100002C080E090E09C8B8B8B283030F481E0F6
:103E200001C0880F2A95EAF70DC0822F90E02E304E
:103E300010F4089701C00E9791E001C0990F8A9580
:103E4000EAF7892F8D8B8C8D9D8D0197F1F7CE012F
:103E5000DF91CF910C94721DDC011C968D919C9189
:103E60001D97DC01ED91FC910680F781E02D09940E
:103E7000DC011C968D919C911D97DC01ED91FC91CC
:103E80000480F581E02D0994DC011C968D919C91B4
:103E90001D97DC01ED91FC910284F385E02D0994DE
:103EA000DC011C968D919C911D97DC01ED91FC919C
:103EB0000084F185E02D09942F923F924F925F92FA
:103EC0006F927F928F929F92AF92BF92CF92DF922A
:103ED000EF92FF920F931F93CF93DF93CDB7DEB78F
:103EE00060970FB6F894DEBF0FBECDBF2B013C012B
:103EF00069014A3021F5CE0101961C01E12CF12C1B
:103F00005AE0852E912CA12CB12CC301B201A50140
:103F100094010E9427339FEFE91AF90A80E3840D88
:103F2000EAE02E9F80191124F10181931F012115D0
:103F3000310541055105C9F129013A01E6CFFE01DC
:103F4000319680E090E0B301A2014F7055276627BB
:103F500077279C012F5F3F4F4A305105610571055E
:103F600010F4A0E301C0A1E44A0F419344E0769429
:103F70006794579447944A95D1F7411451046104CA
:103F8000710411F0C901DFCFE1E0F0E0EC0FFD1F9B
:103F9000E20FF31F48E740837C01F3E0EF0EF11CD2
:103FA000FE01E80FF91F20E3238321E0E21AF10864
:103FB000F60180E090E0015011090196A1E0B0E027
:103FC000AC0FBD1FAE0DBF1D2C9121931E141F04FD
:103FD000ECF0F601E80FF91F108260960FB6F89426
:103FE000DEBF0FBECDBFDF91CF911F910F91FF902C
:103FF000EF90DF90CF90BF90AF909F908F907F9089
:104000006F905F904F903F902F90089521E0E21ABB
:10401000F10880179107ECF6D0CFCF92DF92EF92A4
:10402000FF920F931F93FC0140E060E070E0CB0132
:104030000191002309F449C020ED200F2A30B0F48B
:1040400014E0660F771F881F991F1A95D1F76053E8
:10405000710981099109C02EDD24C7FCD094ED2C93
:10406000FD2C6C0D7D1D8E1D9F1DE2CF2FE9200FB5
:10407000263060F4B4E0660F771F881F991FBA9549
:10408000D1F767557109810991090FC02FEB200FF6
:104090002630A8F4A4E0660F771F881F991FAA9501
:1040A000D1F76753710981099109112707FD10950F
:1040B000212F312F600F711F821F931FB9CF083737
:1040C00021F4411102C041E0B3CF1F910F91FF9045
:1040D000EF90DF90CF9008950F931F93FC0160E065
:1040E00070E0CB01019120ED200F2A30A0F4AAE06E
:1040F000B0E09B01AC010E946E33605371098109ED
:104100009109112707FD1095212F312F600F711F85
:10411000821F931FE7CF1F910F910895DC01AE5AC4
:10412000BF4F2D913C911197FC01EC5AFF4F4081FC
:1041300051812417350764F434970190F081E02D04
:10414000A9014F5F5F4F4D935C93E20FF31F6083B4
:10415000FC01FF9680819181DC01ED91FC91019041
:10416000F081E02D0994CF96DC018D919C91DC01CA
:10417000ED91FC910284F385E02D0994DC011C96FD
:104180008D919C911D97009739F0DC01ED91FC9188
:104190000190F081E02D099480E090E00895209155
:1041A000890521110BC0FC01FF9680819181DC0102
:1041B000ED91FC910084F185E02D0994E0918A0550
:1041C000F0E0E457FA4F8081992787FD9095089594
:1041D000DC01ED91FC910190F081E02D09944F926A
:1041E0005F926F927F92AF92BF92CF92DF92EF92E7
:1041F000FF920F931F93CF93DF93EC015B016A0152
:104200000E94412C2B013C01E12CF12C8E01015C20
:104210001F4F0E94412C64197509860997096C1576
:104220007D058E059F05A0F5D8018D919C91DC013F
:10423000ED91FC910480F581E02D09951816190681
:1042400044F7F80180819181DC01ED91FC910680B9
:10425000F781E02D0995F5018083DE01AE5ABF4F4D
:104260002D913C911197FE01EC5AFF4F40815181F5
:10427000241735077CF4C05BDF4FE881F981A90181
:104280004F5F5F4F4D935C93E20FF31F808302C03B
:1042900080E001C081E0DF91CF911F910F91FF90ED
:1042A000EF90DF90CF90BF90AF907F906F905F9036
:1042B0004F900895EF92FF920F931F93CF93DF9348
:1042C0001F92CDB7DEB78C017B01A701BE016F5FE6
:1042D0007F4FC8010E94EF208111F7CF0F90DF912F
:1042E000CF911F910F91FF90EF900895FF920F9340
:1042F0001F93CF93DF938C0190918905992309F146
:10430000442321F06F5F7F4F81E001C080E0209166
:104310008A05820FFB01BF01382F321B3917A8F421
:1043200034913323C1F1893010F4A82F01C0A0E0EB
:1043300031968F5FB0E0A457BA4F4C91431759F3B1
:1043400040C0411102C06F5F7F4FFB01F490EB0151
:10435000219660918B0570E064577A4F44EF51E0ED
:10436000C8010E94EF2080918B05E82FF0E0E45710
:10437000FA4F2081909189058F5F2F1114C08830EA
:10438000E8F480938B059F5F90938905FE01F4907C
:104390002196F110DECF1092890510928A051092B5
:1043A0008B0581E00FC0883018F480938B0502C024
:1043B00010928B059F5F9093890503C010928B0527
:1043C000E2CF80E0DF91CF911F910F91FF90089590
:1043D000CF93DF93EC01462F69E07CE00E947621C9
:1043E000882319F01FAA81E001C080E0DF91CF91FE
:1043F0000895CF93DF93EC0180918905882381F0A4
:10440000E0918A0591E09E0F90938A05F0E0E457D1
:10441000FA4F208130E0983060F110928A0529C06F
:10442000FE01FF9680819181DC01ED91FC91068077
:10443000F781E02D09959C018FA98823E9F02A32A4
:104440003105D1F460E0CE010E94E821811116C04F
:10445000E0918A0581E08E0F80938A05F0E0E457B1
:10446000FA4F208130E0883010F010928A05809158
:104470008905815080938905C90102C08FEF9FEFA4
:10448000DF91CF910895CF93DF93EC01462F62E047
:104490007CE00E947621882319F081E08FAB01C077
:1044A00080E0DF91CF910895EF92FF920F931F93D9
:1044B000CF93DF938C01EC01EF9688819981DC0129
:1044C000ED91FC910480F581E02D09957C01181691
:1044D00019065CF588819981DC01ED91FC910084DD
:1044E000F185E02D09958A9701F5F80187A961E02A
:1044F000882331F0C8010E94E821882321F012C0EE
:10450000C8010E9443220091890510E088819981A9
:10451000DC01ED91FC910480F581E02D0995800F7F
:10452000911F09C08FEF9FEF06C080918905F701A9
:10453000E80FF11DCF01DF91CF911F910F91FF90F7
:10454000EF900895CB0169E775E00E94153621E0F0
:10455000892B09F420E0822F08958F929F92AF92C9
:10456000BF92CF92DF92EF92FF920F931F93CF9360
:10457000DF931F92CDB7DEB76C017B015A01611545
:10458000710529F1FB018081882309F18B014B0121
:10459000FFEF8F1A9F0AA501BE016F5F7F4FC60113
:1045A0000E94EF208823A1F08981F801908189136E
:1045B00003C00F5F1F4F07C0F7019081891302C02E
:1045C000840101C08701F80180818111E4CF81E07D
:1045D0000F90DF91CF911F910F91FF90EF90DF909F
:1045E000CF90BF90AF909F908F9008957F928F92C1
:1045F0009F92AF92BF92CF92DF92EF92FF920F9372
:104600001F93CF93DF931F92CDB7DEB76C017B0171
:104610005A01FB0174907720B9F08B014B01FFEF39
:104620008F1A9F0AA501BE016F5F7F4FC6010E94CE
:10463000EF208823C1F02981271108C00F5F1F4F89
:10464000F80174907110EECF81E00DC0F7018491F4
:10465000332727FD309590E02817390711F484019E
:10466000EFCF8701EDCF0F90DF91CF911F910F9189
:10467000FF90EF90DF90CF90BF90AF909F908F9082
:104680007F9008954F925F926F927F929F92AF9228
:10469000BF92CF92DF92EF92FF920F931F93CF932F
:1046A000DF931F92CDB7DEB77C01962EA72EB42ED6
:1046B00069014DB65EB6242F30E0C901880F991FFD
:1046C000820F931F2DB73EB7281B390B0FB6F894F6
:1046D0003EBF0FBE2DBF8DB79EB701963C01E62FA2
:1046E000F72FDC0120E02B1559F11C92819191915B
:1046F00012969C938E9311972F5F1396F4CF119679
:10470000ED91FC9112974491941781F1F801608129
:104710007181FB01449150E02417350731F1129665
:104720007C936E9311971196ED91FC911297E49101
:1047300013960E5F1F4FEE23F9F08F5F8B11DFCFC3
:10474000A601BE016F5F7F4FC7010E94EF2081115C
:1047500002C08FEF11C09981292F332727FD309593
:10476000092D1A2DD30180E0E9CFFB013196129675
:10477000FC93EE931197D7CF0FB6F8945EBE0FBEA1
:104780004DBE0F90DF91CF911F910F91FF90EF9051
:10479000DF90CF90BF90AF909F907F906F905F9091
:1047A0004F900895CF93DF93EC018D85882391F08E
:1047B0006AED7BE0CE010E94473044EF51E063EDAB
:1047C0007BE0CE010E94F622882311F01D8602C0F4
:1047D00080E001C081E0DF91CF9108955F926F92F8
:1047E0007F928F929F92AF92BF92CF92DF92EF9281
:1047F000FF920F931F93CF93DF931F92CDB7DEB736
:104800006C017B01390100E010E04A0182E0881A66
:1048100091085A0181E0A81AB108A301BE016F5F97
:104820007F4FC6010E94EF20882309F440C05980C1
:104830008DE058122DC0A301BE016F5F7F4FC601EE
:104840000E94EF2089818A3041F4E114F104B9F12A
:10485000F701E00FF11F108232C0E114F104C1F042
:104860000815190564F4F8013196D701A00FB11F9E
:104870005C920E5F1F4FEE0DFF1D808309C00A156D
:104880001B0534F4F701E00FF11F50820F5F1F4F3B
:104890000A151B0514F6E114F10409F4BECFF70163
:1048A000E00FF11F898180830F5F1F4FB6CFE114A6
:1048B000F10439F0F701E00FF11F108203C0C801C5
:1048C00002C080E090E00F90DF91CF911F910F9197
:1048D000FF90EF90DF90CF90BF90AF909F908F9020
:1048E0007F906F905F900895CF92DF92EF92FF924A
:1048F0000F931F93CF93DF931F92CDB7DEB78C0139
:1049000044EF51E0BE016F5F7F4FC8010E94EF206E
:104910008823A9F089818C3399F7809379055AE728
:10492000E52E55E0F52EDD24D39444EF51E0BE0191
:104930006F5F7F4FC8010E94EF20811102C080E0AD
:1049400035C0CC24C394CD0C8981F70181937F01BC
:104950008E3339F544EF51E0BE016F5F7F4FC801E0
:104960000E94EF20882359F38981803241F7AC2DD2
:10497000B0E0A758BA4F8C93D394D394ED2DF0E0C8
:10498000E758FA4F108281E08093780524EF31E0F8
:1049900040E050E060E070E0C8010E94EE2381E05A
:1049A00005C0FCE0CF1659F2DC2CBFCF0F90DF9191
:1049B000CF911F910F91FF90EF90DF90CF900895CE
:1049C000AB0120917805211102C00C94742469E791
:1049D00075E00C94AD22FF920F931F93CF93DF935A
:1049E000EC018D8581116EC06AEF70E080E090E08F
:1049F0000E94702C60EF7BE0CE010E9447306AEF8E
:104A000070E080E090E00E94702C44EF51E06AEE8C
:104A10007BE0CE010E94F622811115C0FE01FF96B7
:104A200080819181DC01ED91FC910190F081E02D7C
:104A30006DE0099564EF71E0CE010E94E0248111E0
:104A40003AC015E01EC080917805811134C065E040
:104A5000F62E8E01015C1F4FF80180819181DC01EF
:104A6000ED91FC910190F081E02D6DE0099564EFEE
:104A700071E0CE010E94E02481111DC0FA9461F71B
:104A8000CDCF6AEF70E080E090E00E94702C66EE7F
:104A90007BE0CE010E9447306AEF70E080E090E05A
:104AA0000E94702C44EF51E060EE7BE0CE010E944A
:104AB000F622882319F081E08D8705C0115009F78F
:104AC00080E001C081E0DF91CF911F910F91FF90B5
:104AD0000895CF93DF93EC018D85882339F08E857F
:104AE0009F8501969F878E8781E005C0CE010E9439
:104AF000EB248111F4CFDF91CF910895FC0126853D
:104B000037852150310937872687232B11F40C94E0
:104B1000D22381E00895CF92DF92EF92FF920F931C
:104B20001F93CF93DF93EC018B016A0179010E94FF
:104B30006925882351F1000F111F000F111F0B5A17
:104B40001C4FF80160817181CE010E944730F8014D
:104B50006281738144EF51E0CE010E94F6228823E6
:104B600089F024EF31E0A701B601CE010E94EE23C7
:104B700064EF71E0CE010E94E024CE010E947E2508
:104B8000C60105C0CE010E947E2589E293E0DF9137
:104B9000CF911F910F91FF90EF90DF90CF900895EC
:104BA000EF92FF920F931F93CF93DF93CDB7DEB7B2
:104BB00060970FB6F894DEBF0FBECDBF8C010E9488
:104BC0006925882309F462C06BEC7BE0C8010E9470
:104BD000473024EF31E040E150E0BE016F5F7F4F8E
:104BE000C8010E94EE237C01BE016F5F7F4FC801A8
:104BF0000E94A222882361F024EF31E040E150E0DE
:104C0000BE016F5F7F4FC8010E94EE237C0105C08B
:104C100064EF71E0C8010E94E02425E0E216F1048F
:104C20001CF4CE01019608C0C7010497E1E0F0E052
:104C3000EC0FFD1F8E0F9F1F0E940D20F62EE72EFA
:104C4000862F8F70F80181AFF4FA882780F982AF40
:104C5000F5FA882780F983AFF6FA882780F984AFC0
:104C6000F7FA882780F985AF8E2D86958F7086AFED
:104C7000C8010E947E25F80181AD813011F487AB17
:104C800002C0F80117AA8F2D9E2D02C080E090E08F
:104C900060960FB6F894DEBF0FBECDBFDF91CF9107
:104CA0001F910F91FF90EF900895CF93DF93D62F30
:104CB000C72F9A01462F572F60E070E00E948B2586
:104CC000892B49F0ED2FFC2FDF018191882329F0FA
:104CD0008A33D1F702C0AD2FBC2F1C928D2F9C2F91
:104CE000DF91CF910895CF93DF93CDB7DEB766976D
:104CF0000FB6F894DEBF0FBECDBF26E130E0AE01A7
:104D00004F5F5F4F60E070E00E948B25892BC1F000
:104D100080E0E1E0F0E0EC0FFD1FE80FF11D908175
:104D2000992319F08F5F9A33A1F721E030E02C0F1F
:104D30003D1F280F311DC9010E946C20CB0102C00C
:104D400080E090E066960FB6F894DEBF0FBECDBF50
:104D5000DF91CF9108959A01AB0163E070E00C946C
:104D60008B259A01AB0164E070E00C948B251F93B6
:104D7000CF93DF93CDB7DEB72B970FB6F894DEBF96
:104D80000FBECDBF142F2BE030E0AE014F5F5F4F61
:104D90000E948B25892B51F0CE0101961A3019F40F
:104DA0000E946C2006C00E940D2003C060E070E0ED
:104DB000CB012B960FB6F894DEBF0FBECDBFDF91AF
:104DC000CF911F910895AF92BF92CF92DF92EF9251
:104DD000FF920F931F93CF93DF931F92CDB7DEB750
:104DE0008C017B016A0159010E9469258823B9F170
:104DF00069EA7BE0C8010E944730B701C8010E9400
:104E0000783061E373E0C8010E94783048E853E1EC
:104E1000B701C8010E94AD228823C9F044EF51E0D8
:104E2000BE016F5F7F4FC8010E94EF2024EF31E089
:104E3000A501B601C8010E94EE2364EF71E0C8012C
:104E40000E94E024C8010E947E2581E009C064EF31
:104E500071E0C8010E94E024C8010E947E2580E024
:104E60000F90DF91CF911F910F91FF90EF90DF9006
:104E7000CF90BF90AF900895CF93DF93CDB7DEB7BB
:104E800060970FB6F894DEBF0FBECDBF20E130E0D3
:104E9000AE014F5F5F4F6CE070E00E948B25892B65
:104EA000E1F143E050E065EA7BE0CE0101960E942B
:104EB000B735892B51F142E050E062EA7BE0CE0148
:104EC00001960E94B735892B11F146E050E06BE95D
:104ED0007BE0CE0101960E94B735892BD1F045E0E9
:104EE00050E065E97BE0CE0101960E94B735892B41
:104EF00091F046E050E06EE87BE0CE0101960E9422
:104F0000B735892B51F484E009C080E007C081E007
:104F100005C082E003C083E001C08FEF60960FB64A
:104F2000F894DEBF0FBECDBFDF91CF910895CF9231
:104F3000DF92EF92FF920F931F93CF93DF9300D0F6
:104F400000D0CDB7DEB77C018B016A0188E89BE019
:104F50009A83898382E89BE09C838B8324EF31E0F2
:104F600042E0BE016F5F7F4FC7010E944223813044
:104F700091F0811108C024EF31E0A601B801C7010A
:104F80000E94EE2306C0A60168E77BE0C8010E94EC
:104F9000C53580E001C081E00F900F900F900F9019
:104FA000DF91CF911F910F91FF90EF90DF90CF9005
:104FB0000895AF92BF92CF92DF92EF92FF920F933C
:104FC000CF93DF93CDB7DEB762970FB6F894DEBF0D
:104FD0000FBECDBF7C015A016901698B7A8B0E949B
:104FE000692569897A89882309F463C0C7010E9409
:104FF0004730C114D10419F160E2C7010E94E820D2
:105000000023C1F057018FE4A80EB11CF601649192
:105010006623C1F1D701ED91FC910190F081E02D63
:10502000603211F4D5016C91C7010995BFEFCB1A1D
:10503000DB0AECCFB601C7010E94473023C0A114A0
:10504000B10401F160E2C7010E94E8200023B1F041
:105050006701FFE4CF0ED11CF50161915F0166236A
:1050600089F0D701ED91FC910190F081E02D603243
:1050700011F4D6016C91C7010995EECFB501C701B6
:105080000E9478306DE0C7010E94E82040E150E0C6
:10509000BE016F5F7F4FC7010E949727082F64EF03
:1050A00071E0C7010E94E024C7010E947E25802F85
:1050B00001C080E062960FB6F894DEBF0FBECDBF90
:1050C000DF91CF910F91FF90EF90DF90CF90BF9045
:1050D000AF900895CF92DF92EF92FF920F931F93BC
:1050E000CF93DF93CDB7DEB72B970FB6F894DEBF23
:1050F0000FBECDBF7C016B01CA01B901402F0BE08F
:1051000010E09E012F5F3F4F0E945C1F00E020E0F7
:1051100030E0AE014F5F5F4FB601C7010E94D92753
:105120002B960FB6F894DEBF0FBECDBFDF91CF91A7
:105130001F910F91FF90EF90DF90CF9008951F93F4
:10514000CF93DF93EC010E9469258823D9F062E7B1
:105150007BE0CE010E94473044EF51E06AE67BE0FD
:10516000CE010E94F622882339F064EF71E0CE016F
:105170000E94E02411E001C010E0CE010E947E25D3
:10518000812F01C080E0DF91CF911F9108950F938F
:105190009B0140E050E00AE066EE7AE00E946A2857
:1051A0000F9108950F93262F30E040E050E000E18A
:1051B00067E67AE00E946A280F9108950C94D2283D
:1051C0000F93262F30E040E050E000E16AE57AE0FE
:1051D0000E946A280F9108950F9300E020E030E0CC
:1051E00040E050E066EA79E00E94D9270F910895E7
:1051F0000F93AB0101E020E030E068E979E00E9424
:10520000D9270F9108950F931F93CF93DF93EC014C
:10521000AB01FB0181818F7D883511F44E5F5F4FBB
:1052200000E020E030E06DE779E0CE010E94D92770
:10523000182FCE010E94EC28812FDF91CF911F9172
:105240000F9108950F931F93CF93DF93EC01AB0160
:1052500001E020E030E06DE679E00E94D927182FC8
:10526000CE010E94EC28812FDF91CF911F910F91E9
:10527000089540E16BE170E00E94B726862F089503
:105280000F93CF93DF93EC011CAA1BAA1B8A00E0AB
:1052900020E030E040E050E065E37CE00E94D92768
:1052A00020E030E040E050E062E27CE0CE010E948D
:1052B000D92720E030E040E050E060E17CE0CE0122
:1052C0000E94D927CE010E94D025CE010E943C2702
:1052D0008B7F91E009F490E0988BCE010E943929F0
:1052E000C15BDF4F8883DF91CF910F910895CF93FA
:1052F000DF93EC01FC01FF96718360830E94EB2435
:10530000882341F0CE010E944029CE01DF91CF9148
:105310000C94D22380E0DF91CF910895CF93DF9357
:10532000EC010E946925882301F162E67BE0CE0151
:105330000E94473044EF51E069E57BE0CE010E94D6
:10534000F622811104C0CE010E947E250EC068E8BD
:1053500073E180E090E00E94702C1D861F861E86FF
:10536000CE010E94402981E001C080E0DF91CF9111
:105370000895CF92DF92EF92FF920F931F93CF93F6
:10538000DF9300D000D0CDB7DEB78C017B016A017E
:105390008BE199E09A8389838FE099E09C838B83EA
:1053A000C8010E946925882309F444C069E079E0B6
:1053B000C8010E944730E114F10421F0B701C8018F
:1053C0000E94783067E079E0C8010E94473096017A
:1053D00042E0BE016F5F7F4FC8010E944223F82E5A
:1053E00064E670E0C8010E945A2181E0F8121FC0F3
:1053F000F801F2AE8089882361F048E95AE363E05E
:1054000079E0C8010E94F62264E670E0C8010E94BB
:105410005A2124EF31E040E050E060E070E0C80144
:105420000E94EE23C8010E947E2581E004C0C801CD
:105430000E947E2580E00F900F900F900F90DF91DB
:10544000CF911F910F91FF90EF90DF90CF90089533
:105450000F931F93CF93DF93CDB7DEB7C054D1091D
:105460000FB6F894DEBF0FBECDBF8C0140E450E014
:10547000BE016F5F7F4F0E94B12640E25EE4BE0135
:105480006F5F7F4FC8010E94B929C05CDF4F0FB624
:10549000F894DEBF0FBECDBFDF91CF911F910F916A
:1054A0000895CF93DF93EC016CEF78E00E944730D2
:1054B00064E670E0CE010E945A211AAE81E0DF91CD
:1054C000CF910895EF92FF920F931F93CF93DF93A5
:1054D000CDB7DEB760970FB6F894DEBF0FBECDBF75
:1054E0007C01CB01BA0100E110E09E012F5F3F4F2C
:1054F0004AE00E945C1FC7010E94692500E020E08D
:1055000030E0AE014F5F5F4F64EF78E0C7010E946B
:10551000D927882329F0C7010E947E2581E004C095
:10552000C7010E947E2580E060960FB6F894DEBF2A
:105530000FBECDBFDF91CF911F910F91FF90EF90E4
:105540000895CF93DF93EC01E881F9810480F58120
:10555000E02D09958FA9DF91CF910895CF93DF9327
:10556000EC018FA9882361F164EF71E0CE010E9404
:105570005A21CE010E94692563E978E0CE010E949C
:10558000473044EF51E06CE878E0CE010E94F6220B
:10559000882329F0CE010E947E251FAA11C063E74F
:1055A00078E0CE018F5B9F4F0E948530CE010E9434
:1055B000D025CE010E947E258FA991E0892701C0C8
:1055C00081E0DF91CF910895BF92CF92DF92EF9269
:1055D000FF920F931F93CF93DF93CDB7DEB76597FD
:1055E0000FB6F894DEBF0FBECDBF7C016B018A0100
:1055F000B22EFC0180AD811168C0C7010E946925EF
:10560000F70187A9882319F0C7010E94AE2AB801C3
:1056100080E090E004E110E09E012F5F3F4F4AE000
:105620000E945C1F6EEB78E0C7010E944730B60114
:10563000C7010E94783063E373E0C7010E947830AD
:10564000BE016F5F7F4FC7010E9478306CEB78E03E
:10565000C7010E94473064EF71E0C7010E94E02457
:10566000811101C0FFCFB11004C081E0F70180AF0C
:105670002DC040E157E2BE016B5E7F4FC7010E9423
:10568000EF208823F9F08D898A3271F0833489F70D
:10569000898324EF31E043E150E0BE016E5F7F4F2C
:1056A000C7010E94EE230EC044EF51E066EB78E0A4
:1056B000C7010E94F622882329F081E0F70187AB19
:1056C000158604C0C7010E947E2580E065960FB64E
:1056D000F894DEBF0FBECDBFDF91CF911F910F9128
:1056E000FF90EF90DF90CF90BF900895CF93DF931E
:1056F000EC0164EF71E00E945A21CE010E946925FD
:105700006CE678E0CE010E94473044EF51E065E658
:1057100078E0CE010E94F622882331F0CE010E946B
:105720007E251FAA81E00BC0CE010E947E256CE47D
:1057300078E0CE018F5B9F4F0E94853080E0DF9143
:10574000CF910895FC011382128248EE53E060E08D
:1057500070E0448355836683778389E493E0918383
:105760008083158614860895CF93DF93EC011B8206
:105770001A8248EE53E060E070E04C835D836E83F4
:105780007F8389E393E099838883CE018F5B9F4F6A
:105790000E94A22B1D861F861E861FAA18AE81E0BE
:1057A000888B898BFE01E05BFF4F1182108232965D
:1057B00011821082CC5ADF4F19821882DF91CF916B
:1057C00008950F9300E020E040E060E084E995E078
:1057D0000E94EE2F0F9108950F9300E020E040E02B
:1057E00060E08AE995E00E94EE2F0F9108951F92E4
:1057F0000F920FB60F9211242F933F938F939F9385
:10580000AF93BF938091A1059091A205A091A305AC
:10581000B091A4053091A00523E0230F2D3720F48B
:105820000196A11DB11D05C026E8230F0296A11DFA
:10583000B11D2093A0058093A1059093A205A0938C
:10584000A305B093A4058091A5059091A605A0910C
:10585000A705B091A8050196A11DB11D8093A505CE
:105860009093A605A093A705B093A805BF91AF910B
:105870009F918F913F912F910F900FBE0F901F908E
:1058800018952FB7F8946091A1057091A2058091A9
:10589000A3059091A4052FBF08953FB7F894809178
:1058A000A5059091A605A091A705B091A80526B5DC
:1058B000A89B05C02F3F19F00196A11DB11D3FBF48
:1058C0006627782F892F9A2F620F711D811D911DD8
:1058D00042E0660F771F881F991F4A95D1F70895F8
:1058E000CF92DF92EF92FF92CF93DF936B017C0117
:1058F0000E944D2CEB01C114D104E104F10489F0A4
:105900000E94FE320E944D2C6C1B7D0B683E734042
:1059100090F381E0C81AD108E108F108C851DC4FC2
:10592000EACFDF91CF91FF90EF90DF90CF90089575
:10593000789484B5826084BD84B5816084BD85B56A
:10594000826085BD85B5816085BDEEE6F0E0808131
:1059500081608083E1E8F0E0108280818260808352
:10596000808181608083E0E8F0E0808181608083D5
:10597000E1EBF0E0808184608083E0EBF0E0808107
:1059800081608083EAE7F0E08081846080838081A9
:105990008260808380818160808380818068808351
:1059A0001092C1000895833081F028F4813099F07D
:1059B0008230A1F008958730A9F08830B9F08430A2
:1059C000D1F4809180008F7D03C0809180008F771B
:1059D00080938000089584B58F7702C084B58F7D51
:1059E00084BD08958091B0008F7703C08091B0008E
:1059F0008F7D8093B0000895CF93DF9390E0FC01FA
:105A0000E756F24F2491FC01E355F24F849188232D
:105A100049F190E0880F991FFC01EB52F24FA591DC
:105A2000B4918553924FFC01C591D4919FB76111F8
:105A300008C0F8948C91209582238C9388818223CE
:105A40000AC0623051F4F8948C91322F3095832340
:105A50008C938881822B888304C0F8948C91822B4C
:105A60008C939FBFDF91CF9108950F931F93CF9396
:105A7000DF931F92CDB7DEB7282F30E0F901EB5747
:105A8000F24F8491F901E756F24F1491F901E35571
:105A9000F24F04910023C9F0882321F069830E940A
:105AA000D32C6981E02FF0E0EE0FFF1FE553F24F9A
:105AB000A591B4919FB7F8948C91611103C0109592
:105AC000812301C0812B8C939FBF0F90DF91CF91D9
:105AD0001F910F910895CF93DF93282F30E0F901A4
