:100000000C94DF070C9407080C9407080C941A1D35
:100010000C941A1D0C941A1D0C9407080C940708D4
:100020000C9407080C9407080C9407080C94070814
:100030000C9407080C9407080C9407080C94070804
:100040000C94CE2C0C9407080C94F02F0C942230B6
:100050000C9407080C9407080C9407080C940708E4
:100060000C9407080C9407085265626F6F74696EF0
:100070006720576946692E2E2E005265626F6F7495
:10008000204D6963726F766965772026205769462F
:100090006920746F20736574206E657720706F72AD
:1000A000742E006572726F723A2072656D6F74659E
:1000B000206D6F64656D20697320696E20636F6DBC
:1000C0006D616E64206D6F64652E00494E434F4D27
:1000D000494E470A43414C4C00434F4E4E45435412
:1000E000494E4720544F2053595354454D2E0043F9
:1000F0004F4E4E4543542025640052494E4700451B
:1001000052524F52004F4B004175746F73746172BD
:10011000743A20003A000A0D4E4F20434152524992
:1001200045520A0D004F4B00576966693A256C64C9
:100130000A0A4336343A20256C6400576966693AE6
:10014000256C640A0A4336343A20256C640A0A5244
:1001500054533A20256C64002A2A2A205465726D73
:10016000696E616C204D6F64652028446562756717
:1001700029202A2A2A00436F6E6E65637420466127
:10018000696C65642100436F6E6E656374656420FD
:10019000746F20257300436F756C64206E6F74203C
:1001A0007265736F6C766520444E532E2020436F2A
:1001B0006E6E656374204661696C656421000A4354
:1001C0006F6E6E656374696E6720746F20257300AF
:1001D000535349440A0A257300495020416464720C
:1001E000657373200A25730042617564205261743F
:1001F000650A0A2564004669726D776172650A0AAC
:10020000257300496E697420737472696E673A20B1
:10021000004154452564562564512564264B2564C8
:1002200053303D2564004669726D776172653A20EE
:100230002020200057692D466920535349443A2015
:100240002000495020416464726573733A20200095
:100250004D414320416464726573733A20004153F9
:10026000434949204D6F646500436F6D6D6F646F46
:1002700072652057692D4669204D6F64656D204871
:100280006179657320456D756C6174696F6E005797
:10029000692D4669204661696C6564210057692DA6
:1002A0004669204F4B210057692D466920496E69E8
:1002B000742E2E2E00256C6400426175640A6465FC
:1002C00074656374696F6E00050800FF0C4B0000D5
:1002D0000000003E5B4F5B3E3E6B4F6B3E1C3E7C26
:1002E0003E1C183C7E3C181C577D571C1C5E7F5ED4
:1002F0001C00183C1800FFE7C3E7FF001824180093
:10030000FFE7DBE7FF30483A060E26297929264029
:100310007F050507407F05253F5A3CE73C5A7F3E55
:100320001C1C08081C1C3E7F14227F22145F5F00E7
:100330005F5F06097F017F006689956A6060606083
:100340006094A2FFA29408047E040810207E20106E
:1003500008082A1C08081C2A08081E101010100C77
:100360001E0C1E0C30383E3830060E3E0E060000C5
:1003700000000000005F00000007000700147F1469
:100380007F14242A7F2A12231308646236495620D8
:10039000500008070300001C2241000041221C00FD
:1003A0002A1C7F1C2A08083E0808008070300008BC
:1003B00008080808000060600020100804023E5190
:1003C00049453E00427F4000724949494621414922
:1003D0004D331814127F1027454545393C4A494989
:1003E0003141211109073649494936464949291EF3
:1003F00000001400000040340000000814224114E2
:1004000014141414004122140802015909063E4133
:100410005D594E7C1211127C7F494949363E41415B
:1004200041227F4141413E7F494949417F090909B4
:10043000013E414151737F0808087F00417F410020
:100440002040413F017F081422417F404040407FCF
:10045000021C027F7F0408107F3E4141413E7F091C
:100460000909063E4151215E7F091929462649495D
:10047000493203017F01033F4040403F1F2040209D
:100480001F3F4038403F631408146303047804039B
:100490006159494D43007F41414102040810200049
:1004A0004141417F040201020440404040400003BA
:1004B00007080020545478407F2844443838444486
:1004C0004428384444287F385454541800087E097E
:1004D0000218A4A49C787F0804047800447D40009E
:1004E0002040403D007F1028440000417F40007CB8
:1004F000047804787C080404783844444438FC18B0
:1005000024241818242418FC7C0804040848545493
:10051000542404043F44243C4040207C1C204020C0
:100520001C3C4030403C44281028444C9090907C27
:100530004464544C44000836410000007700000039
:100540004136080002010204023C2623263C1EA17B
:10055000A161123A4040207A3854545559215555DA
:10056000794121545478412155547840205455798B
:10057000400C1E527212395555555939545454591C
:1005800039555454580000457C410002457D4200D5
:1005900001457C40F0292429F0F0282528F07C54DE
:1005A0005545002054547C547C0A097F49324949FE
:1005B00049323248484832324A4848303A4141216B
:1005C0007A3A42402078009DA0A07D3944444439C5
:1005D0003D4040403D3C24FF2424487E4943662B57
:1005E0002FFC2F2BFF0929F620C0887E09032054F9
:1005F0005479410000447D413048484A32384040F7
:10060000227A007A0A0A727D0D19317D2629292F56
:1006100028262929292630484D402038080808086E
:1006200008080808382F10C8ACBA2F102834FA0070
:10063000007B000008142A142222142A1408AA009D
:100640005500AAAA55AA55AA000000FF00101010D4
:10065000FF00141414FF001010FF00FF1010F01022
:10066000F0141414FC001414F700FF0000FF00FF46
:100670001414F404FC141417101F10101F101F146E
:1006800014141F00101010F0000000001F101010B4
:10069000101F10101010F010000000FF10101010AC
:1006A0001010101010FF10000000FF140000FF00D9
:1006B000FF00001F10170000FC04F414141710179B
:1006C0001414F404F40000FF00F7141414141414A8
:1006D00014F700F7141414171410101F101F14141B
:1006E00014F4141010F010F000001F101F00000090
:1006F0001F14000000FC140000F010F01010FF1098
:10070000FF141414FF141010101F00000000F0104C
:10071000FFFFFFFFFFF0F0F0F0F0FFFFFF00000031
:100720000000FFFF0F0F0F0F0F38444438447C2A9E
:100730002A3E147E02020606027E027E02635549AC
:1007400041633844443C04407E201E2006027E0261
:100750000299A5E7A5991C2A492A1C4C7201724CE2
:10076000304A4D4D303048784830BC625A463D3EA4
:10077000494949007E0101017E2A2A2A2A2A444445
:100780005F444440514A444040444A51400000FFC5
:100790000103E080FF000008086B6B083612362466
:1007A00036060F090F060000181800000010100090
:1007B0003040FF0101001F01011E00191D1712002A
:1007C0003C3C3C3C0000000000636C6F73653A20C9
:1007D0006661696C65642C206E6F202A434C4F5310
:1007E0002A00636C6F73653A20676F74202A434C4C
:1007F0004F532A002A434C4F532A00636C6F736592
:100800000D005465726D696E616C2072656164796A
:1008100000556E65787065637465642072657370E9
:100820003A20004661696C656420746F20636F6EC6
:100830006E6563743A20004F50454E2A00656E6124
:10084000626C65486F7374526573746F72653A2099
:1008500073746F7265642000302E302E302E30009D
:1008600073656E64746F3A206661696C65642074A8
:100870006F20737461727420636F6D6D616E6400BC
:100880003C74696D656F75743E00556E6578706572
:100890006374656420636861723A20004661696C24
:1008A000656420746F20636F6E6E6563743A200018
:1008B0004F50454E2A005769466C79206861732075
:1008C0006372617368656420616E642077696C6C23
:1008D000207265626F6F742E2E2E004661696C6502
:1008E0006420746F206765742070726F6D7074007F
:1008F0000D006F70656E20006F70656E20003235E0
:10090000352E3235352E302E30003136392E3235F7
:10091000342E312E310036342062797465730050E4
:10092000696E67207472790070696E672000736564
:100930007420752069006C656176650D0047573D30
:10094000000D006A6F696E20004173736F63696107
:1009500074656421004641494C4544007365742028
:100960006164686F632070726F62650073657420E4
:100970006164686F6320626561636F6E00736574A4
:1009800020776C616E2074780073657420776C61D9
:100990006E207261746500736574206F70742072CC
:1009A00065706C6163650073657420776C616E209F
:1009B0007068726173650073657420776C616E2076
:1009C0006B65790073657420776C616E2063686174
:1009D0006E0073657420776C616E207373696400B8
:1009E00073657420776C616E2068696465203100DE
:1009F0007365742073797320696F66756E63007315
:100A0000657420636F6D6D2073697A65007365741A
:100A100020636F6D6D206D61746368007365742071
:100A2000636F6D6D2074696D6500302E302E302E31
:100A300030007365742062726F6164636173742047
:100A4000696E74657276616C00736574207561728D
:100A500074206D6F6465007365742074696D652022
:100A6000656E61626C65007365742074696D6520E4
:100A70007A6F6E65007365742074696D6520706FA0
:100A80007274007365742074696D652061646472AA
:100A90006573730073657420697020666C61677399
:100AA000007365742069702070726F746F636F6C6F
:100AB00000736574206970206468637000736574E6
:100AC00020646E732061646472657373007365746F
:100AD000206970206761746577617900736574209F
:100AE0006970206E65746D61736B00736574206945
:100AF00070206E65746D61736B00536574486F731D
:100B0000743A206661696C656420746F2073746147
:100B1000727420636F6D6D616E640073657420691B
:100B2000702072656D6F7465007365742069702044
:100B3000686F73740073657420697020686F7374D4
:100B400000736574206970206C6F63616C706F72E4
:100B500074007365742069702061646472657373D6
:100B6000007365742069702061646472657373003A
:100B700073657420776C616E206A6F696E007365AF
:100B800074206F206400736574206F2064005365C7
:100B90007420466163746F72792044656661756C78
:100BA000747300666163746F727920524553544FB9
:100BB00052450D002A5265626F6F742A0072656299
:100BC0006F6F740D0053746F72696E670073617696
:100BD000650D003C74696D656F75743E0045525239
:100BE0003A2000414F4B0D0A004552523A20005323
:100BF0004552564552004341434845004155544FE4
:100C00004950004F4E004F4646006C6F6F6B757039
:100C1000200074696D650D00736C6565700D00735F
:100C20006574207379732077616B65006765744321
:100C30006F6E3A2054435020646973636F6E6E6523
:100C40006374656400676574436F6E3A2054435063
:100C500020636F6E6E65637465640073686F7720E0
:100C6000630D00676574436F6E3A206661696C6559
:100C70006420746F207374617274004661696C65DE
:100C80006420746F20657869740A0D0045584954D2
:100C90000D0A00657869740D00434D440D0A002467
:100CA000242400434D440D0A002424240073657459
:100CB00050726F6D7074206661696C6564006D754B
:100CC0006C74694D617463685F503A20006D6174A3
:100CD00063685F503A20007265616454696D656FA6
:100CE0007574202D2074696D6564206F7574003AE9
:100CF00020003A200064656275672064756D70009D
:100D0000617661696C61626C653A207065656B2023
:100D10003D20002A4F50454E2A002A434C4F532A6B
:100D2000004552524F52207065656B2E322062751D
:100D300066666572206F7665726C6F7700455252F9
:100D40004F52207065656B2E312062756666657244
:100D5000206F7665726C6F77004661696C65642000
:100D6000746F206578697420636F6D6D616E6420A7
:100D70006D6F6465004661696C656420746F206501
:100D80006E74657220636F6D6D616E64206D6F644B
:100D900065004661696C656420746F20736574201A
:100DA000636F6D6D2072656D6F746500736574207F
:100DB000636F6D6D2072656D6F74652030004661E4
:100DC000696C656420746F207475726E206F66663E
:100DD00020737973207072696E7400736574207368
:100DE0007973207072696E746C766C203000466185
:100DF000696C656420746F207475726E206F66660E
:100E0000206563686F007365742075206D20310064
:100E10005265706C6163653D005478506F77657200
:100E20003D00526174653D004A6F696E3D00526538
:100E3000626F6F743D0050726F62653D0042656184
:100E4000636F6E3D00676574206164686F630D00B9
:100E500050524F544F3D00464C4147533D3078006F
:100E6000525353493D282D0073686F772072737376
:100E7000690D00466C75736853697A653D004D6174
:100E8000746368436861723D00466C7573685469A9
:100E90006D65723D0067657420636F6D6D0D004D6B
:100EA0006F64653D005254433D0073686F77207452
:100EB00020740D00416464726573733D006765744E
:100EC00020646E730D0054696D653D005570546962
:100ED0006D653D0073686F772074696D650D005A0C
:100EE0006F6E653D006765742074696D650D004225
:100EF000617564726174653D0067657420750D00ED
:100F000044657669636549643D00676574206F7068
:100F1000740D00535349443D0067657420776C613C
:100F20006E0D004D616320416464723D006765741D
:100F3000206D61630D00444843503D00484F5354B9
:100F40003D0047573D004E4D3D0049503D0067650F
:100F5000742069700D000000000800020100000309
:100F60000407000000000000000001020408102037
:100F7000408001020408102001020408102004042B
:100F80000404040404040202020202020303030331
:100F900003030000000023002600290000000000D9
:100FA000250028002B0000000000240027002A0054
:100FB000990D1C1CB82CC32C4830D130CE0D1124F7
:100FC0001FBECFEFD8E0DEBFCDBF13E0A0E0B1E0A1
:100FD000EEE2F4E702C005900D92A03FB107D9F709
:100FE00026E0A0EFB3E001C01D92A435B207E1F7FF
:100FF0001FE0CCEBDFE004C02297FE010E945334D7
:10100000C03BD107C9F70E9445170C940A3A0C94CB
:101010000000CF92DF92EF92FF920F931F93E82F81
:10102000F92F05C0015011092109310961F19081A1
:1010300096239417B9F305C001501109210931090C
:1010400011F1908196239413F7CFC12CD12CE12C70
:10105000F12C0AC08FEFC81AD80AE80AF80A0C1552
:101060001D052E053F0579F080818623841791F3B5
:101070006C2D7D2D8E2D9F2D1F910F91FF90EF9048
:10108000DF90CF90089560E070E080E090E01F91E5
:101090000F91FF90EF90DF90CF9008950C9414394A
:1010A000CF93DF93EC0160E087E295E00E94641B40
:1010B00040E060E087E295E00E946619BE0187E2A9
:1010C00095E00E946E3187E295E0DF91CF910C941C
:1010D000731BCF93DF93EC0160E087E295E00E9401
:1010E000641B40E060E087E295E00E946619BE0163
:1010F00087E295E00E94803187E295E0DF91CF9111
:101100000C94731BCF93DF9300D000D000D0CDB7E9
:10111000DEB72091F003222399F0FC0160817181F8
:10112000CE0101960E944319BE016F5F7F4F82E09E
:1011300095E00E944131CE0101960E94693205C0BE
:10114000BC0182E095E00E94413126960FB6F894EA
:10115000DEBF0FBECDBFDF91CF910895CF93DF9358
:1011600000D000D000D0CDB7DEB7BC01CE010196D3
:101170000E945B33CE0101960E948208CE01019647
:101180000E94693282E095E00E94583126960FB69F
:10119000F894DEBF0FBECDBFDF91CF9108950F93BE
:1011A0001F93CF93DF9300D000D000D0CDB7DEB730
:1011B0008C01BC01CE0101960E945B33CE010196E9
:1011C0000E94AE08CE0101960E9469324AE060E2B8
:1011D000C8010E94D933B801CE0101960E945B3349
:1011E000CE0101960E945008CE0101960E946932FC
:1011F00026960FB6F894DEBF0FBECDBFDF91CF911C
:101200001F910F910895CF93DF9300D000D000D0AD
:10121000CDB7DEB7BC018091F003882381F0CE0109
:1012200001960E944319BE016F5F7F4F82E095E0F7
:101230000E944131CE0101960E94693204C082E0D1
:1012400095E00E944F3126960FB6F894DEBF0FBE90
:10125000CDBFDF91CF9108950E94030982E095E010
:101260000C945831CF93DF93EC010E942C09CE01EE
:10127000DF91CF910C94690882E095E00C9458318D
:10128000CF93DF93CDB7DEB767970FB6F894DEBF85
:101290000FBECDBF0E943C098091F003882389F0E6
:1012A00087E1E2E9F2E0DE01119601900D928A9564
:1012B000E1F7BE016F5F7F4F82E095E00E944F3102
:1012C00006C06EE572E082E095E00E941E310E9449
:1012D0003C0967960FB6F894DEBF0FBECDBFDF9115
:1012E000CF910895883031F091E0843109F090E099
:1012F000892F089581E00895BF92CF92DF92EF92F7
:10130000FF920F931F93CF93DF93CDB7DEB7C457F0
:10131000D1090FB6F894DEBF0FBECDBFB82E44E1A1
:1013200050E0BE01655A7F4F8CEA94E00E941B2773
:1013300044E150E0BE01655A7F4F8CEA94E00E9480
:101340001B276E0187E4C80ED11C44E150E0B601B2
:101350008CEA94E00E94C5267E0193E3E90EF11C1D
:1013600044E150E0B7018CEA94E00E9421270E94FA
:101370003C0960E572E08E010F5F1F4FC8010E94BB
:101380009133C8010E948208C8010E946932BE01DF
:10139000655A7F4FC8010E94D732C8010E94AE082B
:1013A000C8010E94693262E472E0C8010E94913370
:1013B000C8010E948208C8010E946932B601C801B2
:1013C0000E94D732C8010E94AE08C8010E9469324B
:1013D00064E372E0C8010E949133C8010E94820850
:1013E000C8010E946932B701C8010E94D732C80102
:1013F0000E94AE08C8010E94693266E272E0C8012C
:101400000E949133C8010E948208C8010E9469327B
:101410006BEA72E0C8010E94D732C8010E94AE0890
:10142000C8010E946932B1103EC0809197041F929A
:101430008F938091F1031F928F93809199041F9253
:101440008F93809107011F928F93809108011F92C3
:101450008F9381E192E09F938F931F930F930E944C
:10146000203763E072E0CE0181599F4F0E94913393
:10147000CE0181599F4F0E948208CE0181599F4F12
:101480000E946932B801CE0181599F4F0E94D73224
:10149000CE0181599F4F0E94AE08CE0181599F4FC6
:1014A0000E94693286C08BEA92E09F938F9386EF09
:1014B00091E09F938F931F930F930E942037B80161
:1014C000CE0181599F4F0E94D732CE0181599F4F43
:1014D0000E945008CE0181599F4F0E94693268EEE8
:1014E00073E080E090E00E94472D80910F018F9380
:1014F00080910E018F9388EE91E09F938F931F93BD
:101500000F930E942037B801CE0181599F4F0E944E
:10151000D732CE0181599F4F0E945008CE01815988
:101520009F4F0E94693268EE73E080E090E00E9475
:10153000472DDF92CF9289ED91E09F938F931F9378
:101540000F930E942037B801CE0181599F4F0E940E
:10155000D732CE0181599F4F0E945008CE01815948
:101560009F4F0E94693268EE73E080E090E00E9435
:10157000472DFF92EF9280ED91E09F938F931F9301
:101580000F930E942037B801CE0181599F4F0E94CE
:10159000D732CE0181599F4F0E945008CE01815908
:1015A0009F4F0E94693268EE73E080E090E00E94F5
:1015B000472D0FB6F894DEBF0FBECDBFCC58DF4F1E
:1015C0000FB6F894DEBF0FBECDBFDF91CF911F9154
:1015D0000F91FF90EF90DF90CF90BF900895809192
:1015E000F10381110CC080910E0190910F01803C9C
:1015F00092412CF48091F203811101C00895359934
:1016000007C08091B0008F7D8093B0005B9AF7CFC8
:101610008091B0008F7D8093B0005B980895CF9348
:10162000DF93EC01E881F9810480F581E02DCE01A2
:101630000995892BB9F3E881F9810680F781E02DBE
:10164000CE01DF91CF9109948F929F92AF92BF927A
:10165000CF92DF92EF92FF92CF93DF93EC014B0199
:101660000E94182D6B017C01A12CB12CE881F9811D
:101670000480F581E02DCE010995892BC1F40E94EB
:10168000182D6C197D098E099F0986169706A806E4
:10169000B90660F78FEF9FEFDF91CF91FF90EF904A
:1016A000DF90CF90BF90AF909F908F900895E8818A
:1016B000F9810084F185E02DCE01DF91CF91FF907B
:1016C000EF90DF90CF90BF90AF909F908F90099454
:1016D000EF92FF920F931F93CF93DF9300D000D030
:1016E00000D0CDB7DEB77C018B010E943C09809110
:1016F0009904811117C080910701882331F0B80146
:10170000CE0101960E94913305C0B701CE0101962A
:101710000E94D732CE0101960E94AE08CE010196FA
:101720000E94693287E295E00E945831B80187E251
:1017300095E00E945C3187E295E00E94731B26963B
:101740000FB6F894DEBF0FBECDBFDF91CF911F91D2
:101750000F91FF90EF90089565E071E080EB92E0CB
:101760000C94680B6FEF70E082EB92E00C94680BC6
:1017700081E5E5EFF3E0DF011D928A95E9F7089531
:1017800081E08093090110929B0410929A04809347
:1017900008018093070110929904109297048BE23C
:1017A00080930601109298041092F103089590918D
:1017B0009804913019F091E09827892F90E00895CE
:1017C0000F931F93CF93DF93CDB7DEB764970FB618
:1017D000F894DEBF0FBECDBF80910F018F93809133
:1017E0000E018F938FEE90E09F938F938E010F5F8A
:1017F0001F4F1F930F930E942037C8010E94320988
:1018000081E00E94D70B682F82E10E940C2E81E0BC
:1018100080939B041092090110929A040F900F90EC
:101820000F900F900F900F9064960FB6F894DEBF54
:101830000FBECDBFDF91CF911F910F910895CF9231
:10184000DF92EF92FF92CF93C82F0E94182D6B0169
:101850007C010E94182D685B7B40810991096C1501
:101860007D058E059F0508F473C08C2F0E94422EC3
:10187000892B79F720E432E44FE050E060E08C2FD0
:101880000E946B2E6C30710581059105A4F16431C5
:10189000710581059105A4F16D31710581059105F1
:1018A000A4F16832710581059105A4F16C337105CD
:1018B00081059105A4F16035710581059105A4F1BB
:1018C0006639710581059105A4F16C3221E072073A
:1018D000810591059CF1683522E07207810591052B
:1018E00094F1603B74408105910594F560EB74E0E0
:1018F00080E090E030C060E072EC81E090E02BC0CE
:1019000060E071EE80E090E026C060E076E980E083
:1019100090E021C060E870E780E090E01CC060E0EB
:101920007BE480E090E017C060E478E380E090E042
:1019300012C060E875E280E090E00DC060EC72E1FA
:1019400080E090E008C060E679E080E090E003C0CD
:1019500060E070E0CB01CF91FF90EF90DF90CF90EF
:1019600008950F931F93CF93DF931F92CDB7DEB7E8
:101970008C0169830E944E086981861741F0C80175
:101980000F90DF91CF911F910F910C941C390F9004
:10199000DF91CF911F910F9108958093F003682FED
:1019A00080E090E00C94B10CEF92FF920F931F93A4
:1019B000CF93DF937C018B01C0E0D0E0D801ED91A3
:1019C000FC91EC0FFD1F6081CE018E0D9F1D0E94CA
:1019D0001C392196C632D10589F7DF91CF911F912D
:1019E0000F91FF90EF900895AF92BF92CF92DF9248
:1019F000EF92FF920F931F93CF93DF93CDB7DEB794
:101A0000A8970FB6F894DEBF0FBECDBF6C017B0167
:101A10008E010F5F1F4F5E0187E2A80EB11CB80157
:101A2000E01AF10AC701800F911F6FA378A70E94E7
:101A30004E08F80181938F016FA178A5EA15FB0587
:101A400089F7C6010E94D732C601A8960FB6F8944E
:101A5000DEBF0FBECDBFDF91CF911F910F91FF90E1
:101A6000EF90DF90CF90BF90AF900895FC0121914F
:101A7000222331F0DC012C932032C9F30196F7CFF9
:101A8000FC01108208950F931F93CF93DF9300D032
:101A900000D000D0CDB7DEB78C018CEA94E00E9474
:101AA000E32680179107D1F1B8018CEA94E00E94F7
:101AB00043298CEA94E00E941B2980910C019091AB
:101AC0000D018036994081F06AE770E0CE01019601
:101AD0000E949133CE0101960E94AE08CE0101967C
:101AE0000E94693281E01AC068E670E0CE0101967A
:101AF0000E949133CE0101960E94AE08CE0101965C
:101B00000E9469328CEA94E00E94102A68E873E12E
:101B100080E090E00E94472D80E000C026960FB63E
:101B2000F894DEBF0FBECDBFDF91CF911F910F9113
:101B300008950F9300E020E040E060E081E295E04E
:101B40000E94C53020E046E065E082E095E00E941A
:101B5000ED1D8CEA94E00E948A2C60EE73E086EA28
:101B600094E00E94D73241E020910E0130910F01A4
:101B700080910C0190910D012817390709F440E07C
:101B80004093F20380E090E00E944E0891E08111C2
:101B900001C090E09093F0030F91089586EA94E0DD
:101BA0000E94693282E095E00C94941D0F931F937C
:101BB000CF93DF93CDB7DEB72F970FB6F894DEBF84
:101BC0000FBECDBF81E08093090110929B0410925B
:101BD0009A0464EF71E080E090E00E94472D86E176
:101BE00091E09F938F938E010F5F1F4F1F930F9371
:101BF0000E942037C8010E9432098CEA94E00E94BA
:101C00002B220F900F900F900F90019621F48CEAE9
:101C100094E00E944F2B80E00E94D70B682F82E156
:101C20000E940C2E2F960FB6F894DEBF0FBECDBFCC
:101C3000DF91CF911F910F91089580919A048111A6
:101C400002C00C94D60D0C94E00B81E080939A04B2
:101C50008091970481110C941D0E6AEF70E084EB63
:101C600092E00E94680B81E00E94D70B682F80E110
:101C70000E940C2E439A6AEF70E080E090E00E9490
:101C8000472D43980895CF93DF93CDB7DEB7E897FC
:101C90000FB6F894DEBF0FBECDBF68E571E08E01D0
:101CA0000F5F1F4FC8010E949133C8010E94AE0808
:101CB000C8010E946932412C512C3201C12CD12C17
:101CC0007601312C8BE3A82E81E0B82E98E2892E84
:101CD00091E0992E8CEA94E00E942B2218161906A6
:101CE0009CF46FEFC61AD60AE60AF60A0E94EF0ABB
:101CF0008CEA94E00E94D021682F82E095E00E9457
:101D0000481C33243394E6CF82E095E00E94B41C53
:101D1000181619068CF48FEF481A580A680A780AC0
:101D200082E095E00E94271C682F8CEA94E00E94D4
:101D30000D2033243394E8CF9201A301332051F2D4
:101D40008091F10381110BC080910E0190910F01E0
:101D5000803C924124F48091F203882399F01F92F1
:101D60001F921F921F925F934F933F932F93FF9267
:101D7000EF92DF92CF92BF92AF921F930F930E9488
:101D800020370EC07F926F925F924F92FF92EF9238
:101D9000DF92CF929F928F921F930F930E942037D2
:101DA0000FB6F894DEBF0FBECDBFB801CE01C3960B
:101DB0000E94D732CE01C3960E945008CE01C3962E
:101DC0000E94693287CF1F93CF93DF93EC01162FC8
:101DD0006FEF8CEA94E00E940D20CD3FD10511F405
:101DE0006DEF01C06BEF8CEA94E00E940D20612F33
:101DF0008CEA94E0DF91CF911F910C940D201F93FA
:101E0000CF93DF93EC01162F6FEF8CEA94E00E94E2
:101E10000D20CD3FD10511F46CEF01C06EEF8CEABF
:101E200094E00E940D20612F8CEA94E0DF91CF9125
:101E30001F910C940D206FEF8CEA94E00E940D200E
:101E40006EEF8CEA94E00E940D2062E28CEA94E04E
:101E50000E940D206FEF8CEA94E00E940D206EEF3F
:101E60008CEA94E00E940D2061E08CEA94E00C94EE
:101E70000D20CF93DF9360E177E28CEA94E00E943B
:101E8000240B8F3F910591F50E941B0F68E873E1C9
:101E90008CEA94E00E94240B8F3F910539F58CEA7F
:101EA00094E00E940F0B8CEA94E00E940F0BEC016F
:101EB0008F3F2FEF920751F38B5F9109049730F713
:101EC0008CEA94E00E940F0B8F3F2FEF9207F1F204
:101ED0008330910531F463E070E0CE010E94E30E9F
:101EE000D5CFBC01CE010E94FF0ED0CFDF91CF91A4
:101EF0000895CF92DF92EF92FF921F93CF93DF93DB
:101F000000D000D000D0CDB7DEB782E095E00E94CF
:101F1000271C182F0E94182D685E734081099109B3
:101F2000C0909F04D090A004E090A104F090A2047F
:101F3000C616D706E806F906D8F41B32B9F4809124
:101F4000A3049091A4048B32910531F081E0809339
:101F5000A5048BE290E005C02091A5042F5F20939B
:101F6000A5049093A4048093A3040CC01092A5042C
:101F70000E94182D60939F047093A0048093A10485
:101F80009093A2048091A5048330D9F466EB72E0AB
:101F9000CE0101960E94D732CE0101960E945008D0
:101FA000CE0101960E94693281E080939E041092D6
:101FB000A50410929F041092A0041092A104109204
:101FC000A204612F8CEA94E00E940D2026960FB6A1
:101FD000F894DEBF0FBECDBFDF91CF911F91FF9070
:101FE000EF90DF90CF900895CF92DF92EF92FF9223
:101FF0000F931F93CF93DF93CDB7DEB7C456D109AC
:102000000FB6F894DEBF0FBECDBFCE0101967C01A6
:102010008CEA94E00E942B22019609F46CC0809116
:10202000F2038823F1F100E010E08CEA94E00E94D2
:102030002B2218161906B4F48091B0008F7D80937E
:10204000B0005B9A8CEA94E00E94D021F701E00F87
:10205000F11F80830F5F1F4F0436110534F303E631
:1020600010E0E3CF6701C6018E199F098017910721
:102070008CF4F60161916F0182E095E00E94481CAA
:1020800082E095E00E94B41C1816190664F70E94BD
:10209000790FF6CF8091B0008F7D8093B0005B9870
:1020A00013C08CEA94E00E942B221816190664F4DF
:1020B0000E94EF0A8CEA94E00E94D021682F82E00F
:1020C00095E00E94481CEDCF82E095E00E94B41C90
:1020D000181619061CF40E94790FF6CF8CEA94E0CA
:1020E0000E94422B882329F080919E04882309F4C2
:1020F0008FCF10929E048CEA94E00E944F2BCC5913
:10210000DF4F0FB6F894DEBF0FBECDBFDF91CF918A
:102110001F910F91FF90EF90DF90CF900C94D60D10
:10212000BF92CF92DF92EF92FF920F931F93CF93C4
:10213000DF93CDB7DEB7C854D1090FB6F894DEBF30
:102140000FBECDBF7C016B01B42EFC0181818F934A
:1021500080818F938EEB91E09F938F938E010F5F21
:102160001F4F1F930F930E942037C8010E946908D8
:1021700062E08CEA94E00E945A29F7016081718143
:1021800020E130E0AE014D5C5F4F8CEA94E00E94AC
:1021900053270F900F900F900F900F900F90811179
:1021A0000DC066E971E0CE018D5B9F4F0E949133B7
:1021B000CE018D5B9F4F0E94CF0832C021E0A60167
:1021C000BE016D5C7F4F8CEA94E00E948F2B8823C8
:1021D000D9F0F70181818F9380818F9386E891E018
:1021E0009F938F931F930F930E942037C8010E94E3
:1021F00069080F900F900F900F900F900F90B110F3
:1022000017C00E94390F14C066E771E0CE018D5BE4
:102210009F4F0E949133CE018D5B9F4F0E945008CB
:10222000CE018D5B9F4F0E9469320E94D60D04C083
:102230000E94E00B0E94F40FC85BDF4F0FB6F894CA
:10224000DEBF0FBECDBFDF91CF911F910F91FF90E9
:10225000EF90DF90CF90BF900895EF92FF920F9391
:102260001F93CF93DF93CDB7DEB72C970FB6F894BB
:10227000DEBF0FBECDBF8C01BC01CE0107960E9410
:10228000D732F8018081811103C00E94B20B3DC09A
:102290006AE370E0C8010E94C6360097C1F0FC01F5
:1022A00011927F01B801CE0101960E94D732BE0182
:1022B0006F5F7F4FCE0107960E946433CE01019677
:1022C0000E946932C7010E9462368C0102C007E198
:1022D00010E0BE01695F7F4F86EA94E00E944433BC
:1022E00010930B0100930A01BE01695F7F4FCE017D
:1022F00001960E945B3340E0B801CE0101960E9436
:102300009010CE0101960E946932CE0107960E947C
:1023100069322C960FB6F894DEBF0FBECDBFDF91A9
:10232000CF911F910F91FF90EF9008958F929F9200
:10233000AF92BF92CF92DF92EF92FF920F931F93D3
:10234000CF93DF93CDB7DEB7E0970FB6F894DEBF3B
:102350000FBECDBF8091F503813439F48091F6032F
:10236000843509F051C381E009C0813609F04CC3BE
:102370008091F603843709F047C380E09091F00321
:1023800089130E94CD0C65EF73E086E494E00E940F
:10239000DA3605EF13E07801F70101900020E9F744
:1023A0003197E55FF340C801855F93408E179F0723
:1023B00058F4D8018C91992787FD90950E94883612
:1023C000F80181938F01E8CF65EF73E0CE010196AC
:1023D0000E94D732CE0101960E945008CE0101968C
:1023E0000E9469326EEB72E085EF93E00E94D13675
:1023F000892B41F062EC72E085EF93E00E94D136C8
:10240000892B41F480919B04882309F474C11092B4
:102410000901F8C248E050E066EC72E085EF93E015
:102420000E94E136892B39F58091F0036EE474E067
:10243000882379F0CE0101960E94021969817A8180
:102440008CEA94E00E947429CE0101960E946932C0
:1024500004C08CEA94E00E9474298CEA94E00E9403
:10246000FD2A60E27EE48CEA94E00E94D42A88236C
:1024700009F441C16CC048E050E06FEC72E085EFB8
:1024800093E00E94E136892BB1F48091F0036EE471
:1024900074E0882359F0CE0101960E9402196981E7
:1024A0007A818CEA94E00E949E29FBC08CEA94E039
:1024B0000E949E294CC047E050E068ED72E085EF35
:1024C00093E00E94E136892BB1F48091F0036DE432
:1024D00074E0882359F0CE0101960E9402196981A7
:1024E0007A818CEA94E00E947F29DBC08CEA94E038
:1024F0000E947F292CC04AE050E060EE72E085EF38
:1025000093E00E94E136892B71F48091FF03898367
:102510001A82CE0101960E9462368A30910508F037
:10252000EAC0682F8EC048E050E06BEE72E085EFA5
:1025300093E00E94E136892B69F48DEF93E00E94CD
:102540006236181619060CF0D6C00E94430D0E9480
:10255000AC0B58C264EF72E085EF93E00E94FE3648
:10256000892B09F44DC064E6E62EF12C00E010E062
:102570000F5F1F4F4AE050E0B80182E095E00E94F3
:10258000473264E171E0CE0101960E949133CE01A1
:1025900001960E948208CE0101960E946932B7011D
:1025A000CE0101960E94F40CCE0101960E94AE0865
:1025B000CE0101960E946932F8E2EF0EF11C09305B
:1025C0001105B1F60E943C0968E071E0CE01019668
:1025D0000E949133CE0101960E948208CE0101969D
:1025E0000E94693283E690E00E944E084AE050E083
:1025F000682F82E095E00E945C320E943C09A7CFE0
:102600006BEF72E085EF93E00E94FE36892BF1F0CC
:1026100004E610E069EA72E0CE0101960E94D7322A
:10262000BE016F5F7F4FC8010E94D40CCE0101969E
:102630000E946932085D1F4F0C3C81E0180751F77A
:1026400060E083E690E00E94B10C81CF45E050E06D
:1026500066E073E085EF93E00E94E136892B31F567
:102660008091FA0389A71AA6CE0189960E94623644
:102670008C010150110909301105E8F56CEF73E088
:10268000CE0101960E94D73228E2209FC001219FEF
:10269000900D1124BE016F5F7F4F8C599F4F0E9498
:1026A000D40CCE0101960E94693251CF42E050E035
:1026B0006CE073E085EF93E00E94E136892BD9F45A
:1026C00022E030E0912CB12C45EFC42E43E0D42E13
:1026D000AA24A39458E2852EF60101900020E9F780
:1026E0003197E55FF3402E173F0740F091108AC104
:1026F000BB2009F42CCF0E94B20B84C12E343105CB
:10270000ACF789010F5F1F4FF901EB50FC4F80813F
:10271000883409F448C0B4F4863209F4B7C03CF4F4
:102720008A3009F46DC18D3009F46AC162C1843404
:1027300009F414C18534F9F0813409F05AC10E94BA
:102740001D0E5EC1833509F45BC02CF4893479F029
:102750008135B9F14EC1883509F494C08A3521F02C
:10276000863509F046C176C00E94C00B49C180E0A1
:102770000E947C0945C1790192E0E90EF11CF80143
:10278000EB50FC4F8081813341F08F3349F080332F
:1027900009F0E2C01092080132C1A09208012FC1D5
:1027A0006091080125C07901A2E0EA0EF11CF70151
:1027B000EB50FC4F8081803309F078010E94D60DE8
:1027C0001EC17901B2E0EB0EF11CF801EB50FC4F99
:1027D0008081813341F08F3349F0803309F0BCC0F0
:1027E000109299040CC1A092990409C160919904B6
:1027F00070E04AE050E082E095E00E944732FFC07E
:10280000A9014E5F5F4FF801EB50FC4F8081803390
:1028100009F0F1C0C9010396FA01EB50FC4F408169
:102820004D3309F0EAC089010C5F1F4FFC01EB50EA
:10283000FC4F8081813341F08F3349F0803309F0C0
:10284000D8C010929704DCC0A0929704D9C06091C0
:10285000970448C07901E2E0EE0EF11CF801EB505C
:10286000FC4F8081813341F08F3349F0803309F090
:1028700073C010920701C3C0A0920701C0C060914D
:102880000701B6CF89010E5F1F4FBAC07901F2E090
:10289000EF0EF11CF801EB50FC4F80818B3461F09E
:1028A00034F4863409F0ABC00E94C00BA8C0823556
:1028B00009F1873509F1A3C089010D5F1F4FF701A9
:1028C000EB50FC4F8081813341F08F3349F08033EE
:1028D00009F08FC01092F10393C0A092F10390C051
:1028E0006091F10370E04AE050E082E095E00E94E0
:1028F000473286C00E94430E609108018AE090E052
:102900000E94B10C6091F1038BE090E00E94B10C49
:10291000609107018CE090E00E94B10C60919904F5
:102920008DE090E00E94B10C609197048EE090E001
:102930000E94B10C609106018FE090E00E94B10C02
:102940006091980480E190E00E94B10C8CEA94E0E0
:102950000E941B29811153C0B39451C0C8018B50F0
:102960009C4F7C01DC018C91803529F0843519F075
:102970008332A1F508C0890109501C4FC8010E948B
:10298000360DC8012FC082818FA718AACE018F965D
:102990000E94623601978930910558F5889EB001F2
:1029A000899E700D11246C597F4FCE0189960E942B
:1029B000F40C69A57AA548E250E0CE0101960E9488
:1029C000EF36CE0189960E946932CE0101960E94AF
:1029D000360DCE0101960E942D1108C0C7010E943C
:1029E000360DC7010E942D110EE410E09924939436
:1029F00007C0B39405C08A0103C08C0101C08701E0
:102A000098016ACE0E94B80BE0960FB6F894DEBF2C
:102A10000FBECDBFDF91CF911F910F91FF90EF902F
:102A2000DF90CF90BF90AF909F908F900895AF921E
:102A3000BF92CF92DF92EF92FF920F931F93CF93AB
:102A4000DF931F92CDB7DEB7DD24D39475EFA72EA9
:102A500073E0B72E00E619E0E4E6EE2EF12C82E0FA
:102A600095E00E94B41C181619060CF0C3C08091A2
:102A70000901882309F48BC08091F10381114198E9
:102A800082E095E00E94271CC82E809108018823CF
:102A9000C9F08091F103811110C080910E019091D5
:102AA0000F01B8010E94FC33C7010E94FC33882744
:102AB00077FD8095982F0E94472D6C2D82E095E040
:102AC0000E94481C8C2D0E947209882359F0809125
:102AD000F503882321F2F50101900020E9F73297F0
:102AE0001082BDCF8DE0C816A1F1EAE0CE1689F1C3
:102AF00080910601C81669F1F50101900020E9F7FF
:102B00003197E55FF340E135F10518F00E94B20B13
:102B10003BC0EB50FC4FC0828091F503992787FDA5
:102B200090950E9488368134910509F098CF809164
:102B3000F6038F3209F093CF66E474E085EF93E0FB
:102B40000E94DA368091F1038111419A0E94961118
:102B50001BC08091F503992787FD90950E948836C8
:102B60008134910589F48091F603992787FD90952A
:102B70000E9488368435910539F48091F1038111E2
:102B8000419A0E9496116BCF0E94B80B68CF80913A
:102B90009B04882309F463CF82E095E00E94271C00
:102BA0009091060198130BC02091F3033091F40328
:102BB0002F5F3F4F3093F4032093F30304C0109230
:102BC000F4031092F3032091F3033091F4032330C4
:102BD000310551F41092F4031092F303D0920901DD
:102BE00089830E94AC0B8981682F8CEA94E00E9453
:102BF0000D2035CF8091F1038111419A0F90DF9123
:102C0000CF911F910F91FF90EF90DF90CF90BF90E9
:102C1000AF900895CF93DF93CDB7DEB7AE970FB6E1
:102C2000F894DEBF0FBECDBF8CEA94E00E94422B29
:102C30008823E1F180919B0481111BC080919A044B
:102C400081113FC069ED70E08CEA94E00E945C3134
:102C50006BEC70E0CE0101960E949133CE0101969B
:102C60000E945008CE0101960E9469320E94250EF2
:102C70005FC080910901882341F08CEA94E00E94B2
:102C80002B22181619060CF44CC08CEA94E00E9412
:102C90002B2218161906ACF48CEA94E00E94D0217D
:102CA000682F82E095E00E94481CEFCF80919A0443
:102CB000882319F00E94D60D3BC080919B0481119E
:102CC000F9CF80919D049FEF980F993038F590913E
:102CD0009C04911123C091E090939C04992787FD57
:102CE0009095019728E2289FB001299F700D11242B
:102CF0006C597F4FCE0189960E94F40C69A57AA584
:102D000048E250E0CE0101960E94EF36CE0189964E
:102D10000E946932CE0101960E942D110E94171562
:102D200007C063EA70E08CEA94E00E945C31C9CF8E
:102D3000AE960FB6F894DEBF0FBECDBFDF91CF9138
:102D40000895CF93DF9300D000D000D0CDB7DEB789
:102D50003B9A389A3C9A3A9A3D984398409A80E038
:102D60000E94D70B682F82E10E940C2E1092F40370
:102D70001092F3030E94C00B8AE090E00E944E087C
:102D800091E0811101C090E0909308018BE090E008
:102D90000E944E0891E0811101C090E09093F103F0
:102DA0008CE090E00E944E0891E0811101C090E01B
:102DB000909307018DE090E00E944E0891E0811110
:102DC00001C090E0909399048EE090E00E944E083C
:102DD00091E0811101C090E0909397048FE090E022
:102DE0000E944E088093060180E190E00E944E0808
:102DF00091E0811101C090E0909398040E94B80B7B
:102E00000E943C0965E271E0CE0101960E94913377
:102E1000CE0101960E94CF08CE0101960E94693230
:102E20000E940A16FDCFCF92DF92EF92FF926C01C3
:102E300090930D0180930C018DEA95E00E94E52EA0
:102E400062E070E080E090E00E94472DEE24D7FC25
:102E5000E094FE2CB701A6018CEA94E00E940E2BB0
:102E600068EE73E080E090E00E94472D8DEA95E0E7
:102E70000E94CE2F26E0B701A6018DEA95E0FF90D3
:102E8000EF90DF90CF900C946C2FCF93DF93CDB762
:102E9000DEB72C970FB6F894DEBF0FBECDBF0E94F1
:102EA0006F2D87E295E00E94B41B60E087E295E019
:102EB0000E94AA1961E087E295E00E94641B82E00B
:102EC00090E00E944E08182F83E090E00E944E0888
:102ED000212F30E0322F2227280F311D203B84E0A4
:102EE000380729F430930F0120930E0116C02036C5
:102EF00099E03907B9F3203C82E1380799F320388B
:102F000095E2390779F321158BE4380759F380E608
:102F100099E090930F0180930E0160E085E00E949C
:102F2000D32D61E085E00E940C2E69EB72E0CE01AA
:102F300001960E949133CE0101960E945008CE0165
:102F400001960E94693285E090E00E941F0C6B019F
:102F50007C0190EBC91694E0D906E104F104E1F09C
:102F600020E6C21629E0D206E104F104A9F080ECC3
:102F7000C81682E1D806E104F10471F090E8C916A0
:102F800095E2D906E104F10439F0C1142BE4D2062C
:102F9000E104F10409F040C0FF92EF92DF92CF927A
:102FA00085EB92E09F938F938E01095F1F4F1F93D4
:102FB0000F930E942037B801CE0101960E94D732AC
:102FC000CE0101960E945008CE0101960E946932FE
:102FD00068EB7BE080E090E00E94472D8601D09274
:102FE0000F01C0920E01C601D7FE02C081509F4F53
:102FF000692F82E090E00E94B10CC80160E071E0AE
:103000000E94FC33682F83E090E00E94B10C0FB661
:10301000F894DEBF0FBECDBF40910E0150910F015D
:10302000662757FD6095762F82E095E00E941D1E71
:1030300040910C0150910D01662757FD6095762F48
:1030400026E08DEA95E00E946C2F48EE53E060E0A8
:1030500070E082E095E00E94633241E020910E0131
:1030600030910F0180910C0190910D0128173907C3
:1030700009F440E04093F2033D98399A5298539AEC
:103080008091B0008F7D8093B0005B98419A67EA91
:1030900072E0CE0101960E949133CE0101960E940A
:1030A000CF08CE0101960E94693240E050E06DEAFF
:1030B00075E08CEA94E00E943B2A8823D9F06DE900
:1030C00072E0CE0101960E949133CE0101960E94DA
:1030D000CF08CE0101960E94693261E08CEA94E04B
:1030E0000E945C2980910E0190910F0180369940D9
:1030F00089F422C06FE872E0CE0101960E949133FC
:10310000CE0101960E94CF08CE0101960E9469323D
:103110000E94430E68EE73E080E090E00E94472D2D
:1031200080910E0190910F01803B24E0920711F4F1
:1031300080E699E00E94131741E020910E01309142
:103140000F0180910C0190910D012817390709F4A6
:1031500040E04093F2038CEA94E00E944F2B0E94DF
:103160003C0969E672E0CE0101960E949133CE01DE
:1031700001960E94AE08CE0101960E9469320E941B
:10318000400981E00E947C0983E690E00E944E089D
:1031900080939D040E94A116CF93C82F80EA8C0FC4
:1031A000803210F490E603C0C03E18F090EC9C0F03
:1031B00003C0CD3001F19C2F9A30F9F0903210F419
:1031C0008EE21EC0903AD9F08FE3890F8A3110F455
:1031D00080E805C08FEB890F8A3118F480E2890FEF
:1031E0000FC08C2F992787FD90950E948236892BDE
:1031F00039F38C2F05C08AE003C08DE001C080E266
:10320000CF910895EF92FF920F931F93CF93DF9387
:103210008C017B0160EE73E00E94D732E701899157
:10322000882339F00E94CC18682FC8010E94C63349
:10323000F6CFC801DF91CF911F910F91FF90EF90D2
:1032400008958A30C1F08D30C1F08032D4F08036DC
:10325000B1F09FE9980F9A3110F4805208959FEBD6
:10326000980F9A3110F4805808958B3754F48036B3
:103270004CF0805A08958DE008958AE0089587E221
:1032800008958FE30895EF92FF920F931F93CF93CA
:10329000DF938C017B0160EE73E00E94D732E7017F
:1032A0008991882339F00E942119682FC8010E9452
:1032B000C633F6CFC801DF91CF911F910F91FF90D8
:1032C000EF9008950DB407FEFDCF0895FC016387CC
:1032D000448708950F936034D8F54033C8F5013022
:1032E000C9F42130A9F5E42FE695E695E69580E44A
:1032F000E89FF0011124E60FF11DE05FFE4F4770DB
:1033000081E090E0042E01C0880F0A94EAF79081D2
:1033100098271DC0842F869586958695E62FF0E028
:10332000477090E4899FE00DF11D1124E05FFE4F8E
:1033300081E090E0042E01C0880F0A94EAF7213062
:1033400019F49081982B03C08095908198239083E5
:103350000F910895DC0161112EC018961C921897E8
:103360008091900290919102FC01249116962C93E9
:1033700016973196E4911796EC931797FC013296C5
:10338000E4911996EC931997FC013396E4911A96FF
:10339000EC931A97FC01349624913196849190E035
:1033A000F4E62F9F800D911D11241E969C938E9301
:1033B0001D9781E0089580E008955F926F927F925B
:1033C0008F929F92AF92BF92CF92DF92EF92FF9235
:1033D0000F931F93CF93DF93EC01162FB42EF02E93
:1033E0003985231708F4B0C06A8570E0630F711D3A
:1033F000822F90E0861797070CF0A6C0D22ED31A22
:103400009F8096949694969481E08915C0F1C12E80
:103410003C2D311B2E81822F90E0A32FB0E08A1724
:103420009B070CF491C0321791F0E885F0E0EE0FA5
:10343000FF1FE057FD4FD29EA00DB11D112416961F
:103440000190F081E02DEA0FFB1F949001C0912CB8
:10345000A12C4A2D4B0D90FE03C00E2D2F2D04C024
:1034600021E0F11020E00E2D6C2DCE010E946A1992
:103470009694A39488E0A812ECCFC394C9CFED85AD
:10348000FE852E8130E0CF01B9010E94E8338D2DF9
:1034900090E00E94E833829F6001839FD00C929F4E
:1034A000D00C11249E9E90019F9E300D1124269FCA
:1034B000C001279F900D369F900D1124C80ED91E74
:1034C000742EA12CB12C86E0C80ED11C812E482D63
:1034D000411B8E81481780F5E885F0E0EE0FFF1F55
:1034E000E057FD4F2D853E85A29EC001A39E900D05
:1034F000B29E900D11248C0D9D1D840F911D019085
:10350000F081E02DE80FF91F5490612C462D470DF6
:1035100050FE03C00E2D2F2D04C021E0F11020E03D
:103520000E2D682DCE010E946A195694639488E08E
:103530006812ECCF8394CBCF8FEFA81AB80A88E03B
:10354000780EA91408F4C2CFDF91CF911F910F918B
:10355000FF90EF90DF90CF90BF90AF909F908F90B3
:103560007F906F905F900895EF920F93CF93DF93CA
:10357000EC01262F6A30A9F06D30C1F0ED800C818E
:103580004C856B850E94DD194E812B85240F2F5FA2
:103590002B8730E080E490E0841B91098217930729
:1035A0002CF48C859F81890F8C871B8681E090E0AD
:1035B000DF91CF910F91EF9008952A9A2298289841
:1035C000209A60E08DE00E940C2E60E08BE00E946B
:1035D0000C2E61E08DE00E94D32D61E08BE00E9413
:1035E000D32D8CB580618CBD08958CB580648CBD65
:1035F0002A98229A08950DB407FEFDCF2898209AA4
:103600002A9A22988CB58F7B8CBD0895CF93DF9337
:1036100000D0CDB7DEB74A8369830E94F51A69816D
:103620006EBD0E9462194A814EBD0F900F90DF91CE
:10363000CF910C94FB1ACF93DF9300D01F92CDB79C
:10364000DEB72B834A8369830E94F51A69816EBDB8
:103650000E9462194A814EBD0E9462192B812EBDC3
:103660000F900F900F90DF91CF910C94FB1A0F9356
:103670001F93CF93DF93EC0140E060E20E94061BB2
:103680002FE740E061E2CE010E941B1B27E040E0F3
:1036900062E2CE010E941B1B0E94F51A289A209814
:1036A0001EBC0FEF13E00E9462191EBC01501109ED
:1036B000D1F70E94FB1A42E060E2CE01DF91CF9188
:1036C0001F910F910C94061B613011F40C94371B61
:1036D00080E891E0E0E1F1E0DF019C011D922150E2
:1036E0003040E1F708950F931F93CF93DF93EC01E0
:1036F00040E060E20E94061B2FE540E261E2CE015D
:103700000E941B1B25E040E062E2CE010E941B1BD1
:103710000E94F51A289A2098809110018EBD01E12F
:1037200011E00E946219F80181918F018EBDF2E0D3
:1037300000391F07B1F70E94FB1A42E060E2CE0198
:10374000DF91CF911F910F910C94061B2CB5982FF0
:1037500093702C7F922B9CBD9DB582FB882780F9AE
:103760009E7F982B9DBD0895CF93DF93EC0160E081
:103770000E94AA1981E08C831D821B861C865F989B
:10378000579A61E084E00E94D32D61E084E00E94BA
:103790000C2E6AE070E080E090E00E94472D5F9A76
:1037A000579865E070E080E090E00E94472D5F98B8
:1037B000579A84E00E94A61B0E94DD1A65E070E023
:1037C00080E090E00E94472D5F9A57986AE070E091
:1037D00080E090E00E94472D4FE268EACE010E940F
:1037E000061B44E16DE8CE010E94061B0E94F51AFB
:1037F00081EA8EBD0E94FB1A0E94F51A88EC8EBDEC
:103800000E94FB1A4FE861E8CE010E94061B41EFBF
:1038100069EDCE010E94061B40E46BEDCE010E94D3
:10382000061B0E94F51A8FEA8EBD0E94FB1ACE017C
:10383000DF91CF910C94371B10922A051092290525
:1038400083E193E0909328058093270508952091C4
:1038500078053091790528173907B9F49091360524
:1038600080913705981789F0E0913605F0E0E85C23
:10387000FA4F80812091360530E02F5F3F4F2F7344
:1038800033272093360590E008958FEF9FEF08953A
:103890001F93CF93DF93DC015C968D919C915D9794
:1038A000009749F481E090E013969C938E931297D1
:1038B00080E090E03BC05196ED91FC91529750967C
:1038C0002C915097322F30951FB75E964C915E9792
:1038D00041FB772770F941FD6095F894408177238B
:1038E00011F0422B01C043234083EC012197F1F7F3
:1038F00048E0508160FF02C0522B01C05323508327
:10390000EC012197F1F76695415099F78081772373
:1039100011F0832301C0822B80831FBF5C968D91A1
:103920009C915D970197F1F781E090E0DF91CF9155
:103930001F9108952091780530917905281739074E
:1039400081F49091360580913705981751F0E091F8
:103950003605F0E0E85CFA4F8081992787FD909565
:1039600008958FEF9FEF08952091780530917905A4
:103970002817390771F4809137052091360590E0BA
:10398000805C9F4F821B910960E470E00E94FC33D1
:10399000089580E090E008952091780530917905B0
:1039A0002817390739F48FB7F89410923705109219
:1039B00036058FBF0895E0917805F0917905E817F5
:1039C000F90769F4A389B4899C9185898095892335
:1039D0008C93109279051092780581E0089580E02B
:1039E0000895CF93DF93EC018A8D9B8D892BF1F0A5
:1039F00080917805909179058C179D07B9F0009713
:103A000011F00E94DB1C8E8D8E7F8E8F10923705F9
:103A100010923605D0937905C0937805EB89FC891F
:103A200080819D89892B808381E001C080E0DF91C6
:103A3000CF9108951F920F920FB60F9211242F93DA
:103A40003F934F935F936F937F938F939F93AF9326
:103A5000BF93EF93FF93E0917805F091790530974C
:103A600009F451C0868DA685B785958581FF04C070
:103A70008C91892329F447C08C91892309F043C094
:103A8000A389B4899C918589809589238C938689A3
:103A900097890197F1F7208D318DA685B7857585BA
:103AA00058E040E0C9010197F1F7842F90E0959527
:103AB0008795482F6C91672309F04068515091F722
:103AC000868D81FD40958091370590E001968F733A
:103AD000992720913605281749F0A0913705B0E0C5
:103AE000A85CBA4F4C938093370503C0868D8160E4
:103AF000868F828D938D0197F1F7A389B4898C917C
:103B00009589892B8C93FF91EF91BF91AF919F91F4
:103B10008F917F916F915F914F913F912F910F9076
:103B20000FBE0F901F9018952BE133E0FC013183FD
:103B300020830C94DB1C1F93CF93DF93EC01162F93
:103B40006E8D6695617081E06827812F0E940C2E32
:103B500061E0812F0E94D32D812F90E0FC01E65976
:103B6000F04FE491E88BFC01E258F04FE491F0E073
:103B7000EE0FFF1FE456F04F859194919A8B898B3D
:103B8000DF91CF911F9108951F93CF93DF93EC01A5
:103B9000162F60E0812F0E94D32D8E8D81FD04C0F1
:103BA00061E0812F0E940C2E1C87812F90E0FC0188
:103BB000E659F04FE491ED87FC01E258F04FE491B3
:103BC000F0E0EE0FFF1FEE56F04F859194919F8726
:103BD0008E87DF91CF911F910895FF920F931F93CE
:103BE000CF93DF93EC01F62E522F1B821A8208EE40
:103BF00013E020E030E00C831D832E833F838BE1B4
:103C000093E0998388831F8A1E8A198E188E1B8ED3
:103C10001A8E1D8E1C8E8E8D8E7F50FB81F98E8F9D
:103C2000642FCE010E949B1D6F2DCE01DF91CF919D
:103C30001F910F91FF900C94C41DCF93DF93EC0163
:103C40009A01AB011B8E1A8E198E188E1F8A1E8A3E
:103C500060E079E08DE390E00E943234C9012430C5
:103C6000310520F0B9016350710902C061E070E0D4
:103C70007D8F6C8FEC85E63108F068C0B9017695D0
:103C800067956431710518F06351710902C061E0F4
:103C900070E07F8B6E8B069718F0C901059702C004
:103CA00081E090E0998F888FC901880F991F820F5A
:103CB000931F96958795969587958D30910510F071
:103CC0000C9702C081E090E09B8F8A8F2091680062
:103CD000E83050F091E0EE3008F490E081E001C06F
:103CE000880F9A95EAF701C084E0822B80936800E0
:103CF0002C85283038F02E3040F0263148F48CE600
:103D000090E008C08DE690E005C08BE690E002C030
:103D100080E090E09C8B8B8B283030F481E001C0F8
:103D2000880F2A95EAF70DC0822F90E02E3010F40C
:103D3000089701C00E9791E001C0990F8A95EAF7A4
:103D4000892F8D8B8C8D9D8D0197F1F7CE01DF91A1
:103D5000CF910C94F11CDC011C968D919C911D97C8
:103D6000DC01ED91FC910680F781E02D0994DC01E6
:103D70001C968D919C911D97DC01ED91FC91048026
:103D8000F581E02D0994DC011C968D919C911D9785
:103D9000DC01ED91FC910284F385E02D0994DC01B6
:103DA0001C968D919C911D97DC01ED91FC910084F6
:103DB000F185E02D09942F923F924F925F926F927E
:103DC0007F928F929F92AF92BF92CF92DF92EF92AB
:103DD000FF920F931F93CF93DF93CDB7DEB760971A
:103DE0000FB6F894DEBF0FBECDBF2B013C016901B9
:103DF0004A3021F5CE0101961C01E12CF12C5AE04C
:103E0000852E912CA12CB12CC301B201A5019401E6
:103E10000E9410349FEFE91AF90A80E3840DEAE06A
:103E20002E9F80191124F10181931F012115310565
:103E300041055105C9F129013A01E6CFFE0131964C
:103E400080E090E0B301A2014F70552766277727E5
:103E50009C012F5F3F4F4A3051056105710510F4F9
:103E6000A0E301C0A1E44A0F419344E07694679433
:103E7000579447944A95D1F7411451046104710451
:103E800011F0C901DFCFE1E0F0E0EC0FFD1FE20F20
:103E9000F31F48E740837C01F3E0EF0EF11CFE01C5
:103EA000E80FF91F20E3238321E0E21AF108F6016D
:103EB00080E090E0015011090196A1E0B0E0AC0F64
:103EC000BD1FAE0DBF1D2C9121931E141F04ECF0DD
:103ED000F601E80FF91F108260960FB6F894DEBF66
:103EE0000FBECDBFDF91CF911F910F91FF90EF904B
:103EF000DF90CF90BF90AF909F908F907F906F900A
:103F00005F904F903F902F90089521E0E21AF108C2
:103F100080179107ECF6D0CFCF92DF92EF92FF920D
:103F20000F931F93FC0140E060E070E0CB01019132
:103F3000002309F449C020ED200F2A30B0F414E02A
:103F4000660F771F881F991F1A95D1F76053710963
:103F500081099109C02EDD24C7FCD094ED2CFD2CE5
:103F60006C0D7D1D8E1D9F1DE2CF2FE9200F263089
:103F700060F4B4E0660F771F881F991FBA95D1F7D8
:103F800067557109810991090FC02FEB200F263069
:103F9000A8F4A4E0660F771F881F991FAA95D1F790
:103FA0006753710981099109112707FD1095212F88
:103FB000312F600F711F821F931FB9CF083721F473
:103FC000411102C041E0B3CF1F910F91FF90EF90DC
:103FD000DF90CF9008950F931F93FC0160E070E095
:103FE000CB01019120ED200F2A30A0F4AAE0B0E02F
:103FF0009B01AC010E9457346053710981099109FA
:10400000112707FD1095212F312F600F711F821F7F
:10401000931FE7CF1F910F910895DC01AE5ABF4F58
:104020002D913C911197FC01EC5AFF4F4081518139
:104030002417350764F434970190F081E02DA9012D
:104040004F5F5F4F4D935C93E20FF31F6083FC0162
:10405000FF9680819181DC01ED91FC910190F081CE
:10406000E02D0994CF96DC018D919C91DC01ED91BE
:10407000FC910284F385E02D0994DC011C968D915E
:104080009C911D97009739F0DC01ED91FC91019016
:10409000F081E02D099480E090E0089520918D0555
:1040A00021110BC0FC01FF9680819181DC01ED9113
:1040B000FC910084F185E02D0994E0918E05F0E0FB
:1040C000E057FA4F8081992787FD90950895DC018C
:1040D000ED91FC910190F081E02D09944F925F9257
:1040E0006F927F92AF92BF92CF92DF92EF92FF9248
:1040F0000F931F93CF93DF93EC015B016A010E9442
:10410000182D2B013C01E12CF12C8E01015C1F4F7D
:104110000E94182D64197509860997096C157D058B
:104120008E059F0508F067C0D8018D919C91DC0138
:10413000ED91FC910480F581E02D09951816190682
:104140003CF7F80180819181DC01ED91FC910680C2
:10415000F781E02D0995F82EF5018083DE01AE5A36
:10416000BF4F2D913C911197FE01EC5AFF4F80817A
:104170009181281739075CF434970190F081E02D84
:10418000C90101968D939C93E20FF31FF0828C85F9
:104190008823E1F160917A0570917B05CB0101964E
:1041A00090937B0580937A05CF5BDF4F4AE050E028
:1041B000CE010E9447326FEE7CE0CE010E941E319C
:1041C00040E150E00F2D112707FD1095B801CE01F9
:1041D0000E944732C8010E948236892B41F060E27A
:1041E000CE010E9451316F2DCE010E945131CE017E
:1041F0000E9458310BC08C85882351F067ED7CE01C
:10420000CE018F5B9F4F0E945C3102C081E001C0F4
:1042100080E0DF91CF911F910F91FF90EF90DF90A1
:10422000CF90BF90AF907F906F905F904F90089528
:10423000EF92FF920F931F93CF93DF931F92CDB70F
:10424000DEB78C017B01A701BE016F5F7F4FC80104
:104250000E946E208111F7CF0F90DF91CF911F91B7
:104260000F91FF90EF900895DF92EF92FF920F93DE
:104270001F93CF93DF938C0190918D05992311F1BA
:10428000442321F06F5F7F4F81E001C080E02091E7
:104290008E05820FFB01BF01382F321B3917B0F496
:1042A0003491332309F443C0893010F4A82F01C09E
:1042B000A0E031968F5FB0E0A057BA4F4C91431702
:1042C00051F354C0411102C06F5F7F4FFB01D49086
:1042D000EB0121967801F1E4EF0EF11C60918F055E
:1042E00070E060577A4F44EF51E0C8010E946E20A1
:1042F00080918F05E82FF0E0E057FA4F20819091F0
:104300008D058F5F2D111BC0883068F580938F0558
:104310009F5F90938D05993028F061E27DE0C701A1
:104320000E945C31FE01D4902196D110D7CF10921B
:104330008D0510928E0510928F0581E018C088308F
:1043400018F480938F0502C010928F059F5F9093A1
:104350008D05993058F06DE37DE0C8018F5B9F4F6C
:104360000E945C3103C010928F05D2CF80E0DF91B4
:10437000CF911F910F91FF90EF90DF900895CF9311
:10438000DF93EC01462F6AE17DE00E94342188230F
:1043900019F01FAA81E001C080E0DF91CF9108955C
:1043A000CF93DF93EC0180918D05882381F0E0911C
:1043B0008E0591E09E0F90938E05F0E0E057FA4F46
:1043C000208130E0983060F110928E0529C0FE0106
:1043D000FF9680819181DC01ED91FC910680F7814F
:1043E000E02D09959C018FA98823E9F02A32310537
:1043F000D1F460E0CE010E94BF21811116C0E0918E
:104400008E0581E08E0F80938E05F0E0E057FA4F25
:10441000208130E0883010F010928E0580918D055B
:10442000815080938D05C90102C08FEF9FEFDF910E
:10443000CF910895CF93DF93EC01462F63E17DE0A8
:104440000E943421882319F081E08FAB01C080E005
:10445000DF91CF910895CF92DF92EF92FF920F9369
:104460001F93CF93DF93EC018C01015C1F4FD801A8
:104470008D919C91DC01ED91FC910480F581E02D02
:1044800009957C01181619060CF043C08C85882309
:10449000B9F060E07DE06E01B1E4CB0ED11CC60145
:1044A0000E941E31F80180819181DC01ED91FC9127
:1044B0000084F185E02D0995682FC6010E94923194
:1044C000F80180819181DC01ED91FC910084F185FE
:1044D000E02D09958A97E9F48FA961E0882331F0EE
:1044E000CE010E94BF21882321F01AC0CE010E9474
:1044F0001A22C0918D05D0E0F80180819181DC0104
:10450000ED91FC910480F581E02D09958C0F9D1FA4
:1045100009C080918D05F701E80FF11DCF0102C0A0
:104520008FEF9FEFDF91CF911F910F91FF90EF9051
:10453000DF90CF900895CB016DE775E00E94FE36C5
:1045400021E0892B09F420E0822F08958F929F9219
:10455000AF92BF92CF92DF92EF92FF920F931F9391
:10456000CF93DF931F92CDB7DEB76C017B015A0169
:104570006115710529F1FB018081882309F18B0107
:104580004B01FFEF8F1A9F0AA501BE016F5F7F4F9E
:10459000C6010E946E208823A1F08981F8019081D4
:1045A000891303C00F5F1F4F07C0F7019081891364
:1045B00002C0840101C08701F80180818111E4CF2C
:1045C00081E00F90DF91CF911F910F91FF90EF90BD
:1045D000DF90CF90BF90AF909F908F9008957F9283
:1045E0008F929F92AF92BF92CF92DF92EF92FF9203
:1045F0000F931F93CF93DF931F92CDB7DEB76C015C
:104600008B015A01FC018485882369F06DEC7CE004
:104610007601F1E4EF0EF11CC7010E941E31B801D2
:10462000C7010E945C31F80174907720C1F07801D5
:104630004801FFEF8F1A9F0AA501BE016F5F7F4FF0
:10464000C6010E946E208823C9F02981271109C064
:104650008FEFE81AF80AF70174907110EDCF81E03E
:104660000DC0F8018491332727FD309590E028177D
:10467000390711F47401EFCF7801EDCF0F90DF917E
:10468000CF911F910F91FF90EF90DF90CF90BF904F
:10469000AF909F908F907F9008952F923F924F926E
:1046A0005F926F927F928F929F92AF92BF92CF92C2
:1046B000DF92EF92FF920F931F93CF93DF9300D07F
:1046C0001F92CDB7DEB76C01562E672E742E59019E
:1046D0002DB73EB73B832A83242F30E0C901880FD2
:1046E000991F820F931FEDB7FEB7E81BF90B0FB6AA
:1046F000F894FEBF0FBEEDBF2DB73EB72F5F3F4F03
:104700001901062F172F4901412C760131E4E30EE0
:10471000F11C471409F449C0F4011082F8018081AA
:104720009181F40192838183F60184858823A9F025
:104730006EEB7CE0C7010E941E314AE050E0642D20
:10474000C7010E945C3260E2C7010E945131F8014A
:1047500060817181C7010E945C314394F3E08F0E48
:10476000911C0E5F1F4FD5CF1196ED91FC911297C2
:104770006491961781F1F90100811181F80164912A
:1047800070E04617570731F112961C930E9311975C
:104790001196ED91FC911297E49113962E5F3F4F85
:1047A000EE23F9F08F5F8711DFCFA501BE016F5FA8
:1047B0007F4FC6010E946E20811102C08FEF11C091
:1047C0009981492F552747FD5095252D362DD1012B
:1047D00080E0E9CFF80131961296FC93EE931197A1
:1047E000D7CF2A813B810FB6F8943EBF0FBE2DBFB5
:1047F0000F900F900F90DF91CF911F910F91FF902D
:10480000EF90DF90CF90BF90AF909F908F907F9070
:104810006F905F904F903F902F900895CF93DF93CC
:10482000EC018D858823C9F063E97CE0CE010E940C
:104830001E3144EF51E06CE87CE0CE010E94EF2293
:10484000882311F01D8609C06BE77CE0CE018F5BE9
:104850009F4F0E945C3180E001C081E0DF91CF91E9
:1048600008955F926F927F928F929F92AF92BF92C4
:10487000CF92DF92EF92FF920F931F93CF93DF932C
:104880001F92CDB7DEB76C017B01390100E010E06B
:104890004A0182E0881A91085A0181E0A81AB108F9
:1048A000A301BE016F5F7F4FC6010E946E20882367
:1048B00009F440C059808DE058122DC0A301BE01FB
:1048C0006F5F7F4FC6010E946E2089818A3041F45C
:1048D000E114F104B9F1F701E00FF11F108232C0C9
:1048E000E114F104C1F00815190564F4F8013196DA
:1048F000D701A00FB11F5C920E5F1F4FEE0DFF1D81
:10490000808309C00A151B0534F4F701E00FF11F7D
:1049100050820F5F1F4F0A151B0514F6E114F104B6
:1049200009F4BECFF701E00FF11F898180830F5F8B
:104930001F4FB6CFE114F10439F0F701E00FF11F7A
:10494000108203C0C80102C080E090E00F90DF91A8
:10495000CF911F910F91FF90EF90DF90CF90BF907C
:10496000AF909F908F907F906F905F900895CF92BF
:10497000DF92EF92FF920F931F93CF93DF931F92DB
:10498000CDB7DEB78C0144EF51E0BE016F5F7F4FC2
:10499000C8010E946E208823A9F089818C3399F781
:1049A00080937D055EE7E52E55E0F52EDD24D3945A
:1049B00044EF51E0BE016F5F7F4FC8010E946E203F
:1049C000811102C080E035C0CC24C394CD0C898114
:1049D000F70181937F018E3339F544EF51E0BE0139
:1049E0006F5F7F4FC8010E946E20882359F3898131
:1049F000803241F7AC2DB0E0A358BA4F8C93D394DA
:104A0000D394ED2DF0E0E358FA4F108281E08093CB
:104A10007C0524EF31E040E050E060E070E0C80148
:104A20000E94312481E005C0FCE0CF1659F2DC2C55
:104A3000BFCF0F90DF91CF911F910F91FF90EF901B
:104A4000DF90CF9008951F93CF93DF93EC01AB01DC
:104A500080917C0581110EC0CE010E94B724182FD1
:104A6000811110C06DEA7CE0CE018F5B9F4F0E94E8
:104A70005C3108C06DE775E0CE01DF91CF911F91E9
:104A80000C94A622812FDF91CF911F910895FF9260
:104A90000F931F93CF93DF93EC018D8581116EC02F
:104AA0006AEF70E080E090E00E94472D69EA7CE0C8
:104AB000CE010E941E316AEF70E080E090E00E941B
:104AC000472D44EF51E063EA7CE0CE010E94EF22E3
:104AD000811115C0FE01FF9680819181DC01ED916D
:104AE000FC910190F081E02D6DE0099564EF71E09B
:104AF000CE010E94232581113AC015E01EC080918D
:104B00007C05811134C065E0F62E8E01015C1F4FDB
:104B1000F80180819181DC01ED91FC910190F0819F
:104B2000E02D6DE0099564EF71E0CE010E94232530
:104B300081111DC0FA9461F7CDCF6AEF70E080E07B
:104B400090E00E94472D6FE97CE0CE010E941E316B
:104B50006AEF70E080E090E00E94472D44EF51E062
:104B600069E97CE0CE010E94EF22882319F081E000
:104B70008D8705C0115009F780E001C081E0DF9109
:104B8000CF911F910F91FF900895CF93DF93EC0188
:104B90008D85882339F08E859F8501969F878E8726
:104BA00081E005C0CE010E9447258111F4CFDF913D
:104BB000CF910895FC01268537852150310937872B
:104BC0002687232B11F40C940E2481E00895CF92B4
:104BD000DF92EF92FF920F931F93CF93DF93EC013D
:104BE0008B016A0179010E94C525882351F1000FCC
:104BF000111F000F111F085A1C4FF80160817181AD
:104C0000CE010E941E31F8016281738144EF51E0B0
:104C1000CE010E94EF22882389F024EF31E0A70122
:104C2000B601CE010E94312464EF71E0CE010E94F2
:104C30002325CE010E94DA25C60105C0CE010E94BF
:104C4000DA2587E293E0DF91CF911F910F91FF90DA
:104C5000EF90DF90CF900895EF92FF920F931F9304
:104C6000CF93DF93CDB7DEB760970FB6F894DEBF72
:104C70000FBECDBF8C010E94C52581110AC063E61D
:104C80007CE0C8018F5B9F4F0E945C3180E090E028
:104C90006FC06BE57CE0C8010E941E3124EF31E05B
:104CA00040E150E0BE016F5F7F4FC8010E94312498
:104CB0007C01BE016F5F7F4FC8010E949B22882349
:104CC00061F024EF31E040E150E0BE016F5F7F4FC3
:104CD000C8010E9431247C0105C064EF71E0C80165
:104CE0000E94232525E0E216F1041CF4CE01019672
:104CF00008C0C7010497E1E0F0E0EC0FFD1F8E0F44
:104D00009F1F0E948C1FF62EE72E862F8F70F801B2
:104D100081AFF4FA882780F982AFF5FA882780F905
:104D200083AFF6FA882780F984AFF7FA882780F9ED
:104D300085AF8E2D86958F7086AFC8010E94DA25CB
:104D4000F80191AD8485913031F497AB882371F0EF
:104D500065E47CE006C0F80117AA882339F06CE20C
:104D60007CE0C8018F5B9F4F0E945C318F2D9E2D90
:104D700060960FB6F894DEBF0FBECDBFDF91CF9126
:104D80001F910F91FF90EF900895CF93DF93D62F4F
:104D9000C72F9A01462F572F60E070E00E94E72549
:104DA000892B49F0ED2FFC2FDF018191882329F019
:104DB0008A33D1F702C0AD2FBC2F1C928D2F9C2FB0
:104DC000DF91CF910895CF93DF93CDB7DEB766978C
:104DD0000FB6F894DEBF0FBECDBF26E130E0AE01C6
:104DE0004F5F5F4F60E070E00E94E725892BC1F0C4
:104DF00080E0E1E0F0E0EC0FFD1FE80FF11D908195
:104E0000992319F08F5F9A33A1F721E030E02C0F3E
:104E10003D1F280F311DC9010E94EB1FCB0102C0AD
:104E200080E090E066960FB6F894DEBF0FBECDBF6F
:104E3000DF91CF9108959A01AB0163E070E00C948B
:104E4000E7259A01AB0164E070E00C94E7251F931D
:104E5000CF93DF93CDB7DEB72B970FB6F894DEBFB5
:104E60000FBECDBF142F2BE030E0AE014F5F5F4F80
:104E70000E94E725892B51F0CE0101961A3019F4D2
:104E80000E94EB1F06C00E948C1F03C060E070E010
:104E9000CB012B960FB6F894DEBF0FBECDBFDF91CE
:104EA000CF911F910895AF92BF92CF92DF92EF9270
:104EB000FF920F931F93CF93DF931F92CDB7DEB76F
:104EC0008C017B016A0159010E94C5258823B9F133
:104ED0006AE07CE0C8010E941E31B701C8010E944F
:104EE0004F316FE273E0C8010E944F3148E853E14F
:104EF000B701C8010E94A6228823C9F044EF51E0FF
:104F0000BE016F5F7F4FC8010E946E2024EF31E029
:104F1000A501B601C8010E94312464EF71E0C80107
:104F20000E942325C8010E94DA2581E009C064EFB0
:104F300071E0C8010E942325C8010E94DA2580E0A3
:104F40000F90DF91CF911F910F91FF90EF90DF9025
:104F5000CF90BF90AF900895CF93DF93CDB7DEB7DA
:104F600060970FB6F894DEBF0FBECDBF20E130E0F2
:104F7000AE014F5F5F4F6CE070E00E94E725892B28
:104F8000E1F143E050E066E07CE0CE0101960E9452
:104F9000A036892B51F142E050E063E07CE0CE0185
:104FA00001960E94A036892B11F146E050E06CEF8B
:104FB0007BE0CE0101960E94A036892BD1F045E01E
:104FC00050E066EF7BE0CE0101960E94A036892B6F
:104FD00091F046E050E06FEE7BE0CE0101960E943A
:104FE000A036892B51F484E009C080E007C081E03D
:104FF00005C082E003C083E001C08FEF60960FB66A
:10500000F894DEBF0FBECDBFDF91CF910895CF9250
:10501000DF92EF92FF920F931F93CF93DF9300D015
:1050200000D0CDB7DEB77C018B016A0189EE9BE031
:105030009A83898383EE9BE09C838B8324EF31E00A
:1050400042E0BE016F5F7F4FC7010E944D23813058
:10505000F1F0811114C024EF31E0A601B801C701BD
:105060000E94312481E4E80EF11C6DED7BE0C70164
:105070000E941E31B801C7010E94803106C0A601FE
:1050800063ED7BE0C8010E94AE3680E001C081E0A4
:105090000F900F900F900F90DF91CF911F910F9174
:1050A000FF90EF90DF90CF900895AF92BF92CF9294
:1050B000DF92EF92FF920F93CF93DF93CDB7DEB7DE
:1050C00062970FB6F894DEBF0FBECDBF7C015A01C8
:1050D0006901698B7A8B0E94C52569897A89882341
:1050E00009F463C0C7010E941E31C114D10419F133
:1050F00060E2C7010E9467200023C1F057018FE4DE
:10510000A80EB11CF60164916623C1F1D701ED919F
:10511000FC910190F081E02D603211F4D5016C9189
:10512000C7010995BFEFCB1ADB0AECCFB601C70167
:105130000E941E3123C0A114B10401F160E2C70135
:105140000E9467200023B1F06701FFE4CF0ED11C5D
:10515000F50161915F01662389F0D701ED91FC9122
:105160000190F081E02D603211F4D6016C91C701FD
:105170000995EECFB501C7010E944F316DE0C7011F
:105180000E94672040E150E0BE016F5F7F4FC70182
:105190000E940728082F64EF71E0C7010E942325B1
:1051A000C7010E94DA25802F01C080E062960FB609
:1051B000F894DEBF0FBECDBFDF91CF910F91FF906E
:1051C000EF90DF90CF90BF90AF900895CF92DF9295
:1051D000EF92FF920F931F93CF93DF93CDB7DEB77C
:1051E0002B970FB6F894DEBF0FBECDBF7C016B01CD
:1051F000CA01B901402F0BE010E09E012F5F3F4F25
:105200000E94DB1E00E020E030E0AE014F5F5F4F08
:10521000B601C7010E9455282B960FB6F894DEBF41
:105220000FBECDBFDF91CF911F910F91FF90EF90F7
:10523000DF90CF9008951F93CF93DF93EC010E94EE
:10524000C5258823D9F06DEC7BE0CE010E941E318C
:1052500044EF51E065EC7BE0CE010E94EF22882311
:1052600039F064EF71E0CE010E94232511E001C006
:1052700010E0CE010E94DA25812F01C080E0DF918D
:10528000CF911F9108950F939B0140E050E00AE0F9
:1052900061E47BE00E94E6280F9108950F93262F8A
:1052A00030E040E050E000E161EA7AE00E94E62868
:1052B0000F9108950C944E290F93262F30E040E073
:1052C00050E000E164E97AE00E94E6280F91089539
:1052D0000F9300E020E030E040E050E060EE79E045
:1052E0000E9455280F9108950F93AB0101E020E033
:1052F00030E062ED79E00E9455280F9108950F93F8
:105300001F93CF93DF93EC01AB01FB0181818F7D74
:10531000883511F44E5F5F4F00E020E030E067EB2E
:1053200079E0CE010E945528182FCE010E946829ED
:10533000812FDF91CF911F910F9108950F931F93AC
:10534000CF93DF93EC01AB0101E020E030E067EAAE
:1053500079E00E945528182FCE010E946829812FDC
:10536000DF91CF911F910F91089540E16BE170E0C3
:105370000E942727862F08950F93CF93DF93EC0188
:105380001CAA1BAA1B8A00E020E030E040E050E0AD
:1053900066E07EE00E945528811107C06EEE7DE038
:1053A000CE018F5B9F4F0E945C3100E020E030E037
:1053B00040E050E06BED7DE0CE010E945528811168
:1053C00007C06EEB7DE0CE018F5B9F4F0E945C318A
:1053D00000E020E030E040E050E06CEA7DE0CE010B
:1053E0000E945528811107C062E97DE0CE018F5BE4
:1053F0009F4F0E945C31CE010E942C26CE010E945C
:10540000AC278B7F91E009F490E0988BCE010E944D
:10541000B529C15BDF4F8883DF91CF910F9108954C
:10542000CF93DF93EC010E94C525882301F16DEB3A
:105430007BE0CE010E941E3144EF51E064EB7BE043
:10544000CE010E94EF22811104C0CE010E94DA2514
:105450000EC068E873E180E090E00E94472D1D8651
:105460001F861E86CE010E94BC2981E001C080E01B
:10547000DF91CF9108950F931F93CF93DF93EC01AA
:105480008C010F5B1F4FF80155874487329771835A
:1054900060830E944725811103C065E77DE00AC053
:1054A000CE010E94BC29CE010E940E24811107C0AA
:1054B00069E57DE0C8010E945C3180E001C081E0C7
:1054C000DF91CF911F910F910895CF92DF92EF92CC
:1054D000FF920F931F93CF93DF9300D000D0CDB7EF
:1054E000DEB78C017B016A0185E599E09A838983A7
:1054F00089E499E09C838B83C8010E94C525882399
:1055000009F444C063E479E0C8010E941E31E1144B
:10551000F10421F0B701C8010E944F3161E479E044
:10552000C8010E941E31960142E0BE016F5F7F4FAD
:10553000C8010E944D23F82E64E670E0C8010E9465
:10554000182181E0F8121FC0F801F2AE808988238B
:1055500061F048E95AE36DE379E0C8010E94EF2267
:1055600064E670E0C8010E94182124EF31E040E0B9
:1055700050E060E070E0C8010E943124C8010E9440
:10558000DA2581E004C0C8010E94DA2580E00F908E
:105590000F900F900F90DF91CF911F910F91FF907F
:1055A000EF90DF90CF9008950F931F93CF93DF93E9
:1055B000CDB7DEB7C054D1090FB6F894DEBF0FBE29
:1055C000CDBF8C0140E450E0BE016F5F7F4F0E9471
:1055D000212740E25EE4BE016F5F7F4FC8010E9459
:1055E000652AC05CDF4F0FB6F894DEBF0FBECDBF9B
:1055F000DF91CF911F910F910895CF93DF93EC012D
:1056000066E379E00E941E3164E670E0CE010E94FC
:1056100018211AAE81E0DF91CF910895EF92FF92A9
:105620000F931F93CF93DF93CDB7DEB760970FB67D
:10563000F894DEBF0FBECDBF7C01CB01BA0100E103
:1056400010E09E012F5F3F4F4AE00E94DB1EC70122
:105650000E94C52500E020E030E0AE014F5F5F4FC3
:105660006EE279E0C7010E94552860960FB6F89463
:10567000DEBF0FBECDBFDF91CF911F910F91FF9085
:10568000EF900895CF93DF93EC01E881F9810480D6
:10569000F581E02D09958FA9DF91CF9108950F93A2
:1056A0001F93CF93DF93EC018FA9882391F164EFCF
:1056B00071E0CE010E941821CE010E94C5256BEF3A
:1056C00077E0CE010E941E3144EF51E064EF77E0B5
:1056D000CE010E94EF228E010F5B1F4F882351F0F5
:1056E000CE010E94DA2562EE77E0C8010E945C31AB
:1056F0001FAA0FC069EC77E0C8010E945C31CE019F
:105700000E942C26CE010E94DA258FA991E08927DC
:1057100001C081E0DF91CF911F910F910895BF9259
:10572000CF92DF92EF92FF920F931F93CF93DF936D
:10573000CDB7DEB765970FB6F894DEBF0FBECDBF0D
:105740007C016B018A01B22EFC0180AD8111BFC0CA
:10575000C7010E94C525F70187A9882319F0C70151
:105760000E944F2BB80180E090E004E110E09E0120
:105770002F5F3F4F4AE00E94DB1E87010F5B1F4FE8
:1057800068EF78E0C8010E941E31B601C8010E948E
:105790004F3160E2C8010E945131BE016F5F7F4FFF
:1057A000C8010E94803162EF78E0C7010E941E317B
:1057B000B601C7010E944F3166E373E0C7010E9442
:1057C0004F31BE016F5F7F4FC7010E944F3160EFC5
:1057D00078E0C7010E941E3164EF71E0C7010E94AA
:1057E000232581110BC06BED78E0C8010E945C316C
:1057F00066EB78E0C8010E945C31FFCFB11008C0B1
:1058000081E0F70180AF64C0F7018485811135C064
:1058100040E157E2BE016B5E7F4FC7010E946E20E0
:10582000882309F44CC08D898A32C9F0833461F72A
:10583000898324EF31E043E150E0BE016E5F7F4F8A
:10584000C7010E9431246CE978E0C8010E941E3132
:10585000BE016F5F7F4FC8010E94803135C044EFA9
:1058600051E060EB78E0C7010E94EF22882361F1EC
:1058700081E0F70187AB15862BC06AE878E0C801A4
:105880000E941E316D89772767FD709540E150E0D9
:10589000C8010E9447328D89992787FD90950E9403
:1058A0008236892B41F060E2C8010E9451316D8936
:1058B000C8010E945131C8010E945831A9CF60E847
:1058C00078E0C8010E945C31C7010E94DA2580E0BF
:1058D00065960FB6F894DEBF0FBECDBFDF91CF91B6
:1058E0001F910F91FF90EF90DF90CF90BF900895A0
:1058F000FC011382128248EE53E060E070E04483C2
:105900005583668377838CE493E091838083158647
:1059100014860895CF93DF93EC011B821A8248EE20
:1059200053E060E070E04C835D836E837F838CE3A3
:1059300093E099838883CE018F5B9F4F0E94782CE0
:105940001D861F861E861FAA18AE81E0888B898B54
:105950001C86FE01E05BFF4F11821082329611829D
:105960001082CC5ADF4F19821882DF91CF910895AF
:105970000F9300E020E040E060E088E995E00E94BD
:10598000C5300F9108950F9300E020E040E060E003
:105990008EE995E00E94C5300F9108951F920F92F5
:1059A0000FB60F9211242F933F938F939F93AF9332
:1059B000BF938091A5059091A605A091A705B091F0
:1059C000A8053091A40523E0230F2D3720F401967C
:1059D000A11DB11D05C026E8230F0296A11DB11D12
:1059E0002093A4058093A5059093A605A093A705F1
:1059F000B093A8058091A9059091AA05A091AB0547
:105A0000B091AC050196A11DB11D8093A90590939D
:105A1000AA05A093AB05B093AC05BF91AF919F9140
:105A20008F913F912F910F900FBE0F901F9018955F
:105A30002FB7F8946091A5057091A6058091A705F0
:105A40009091A8052FBF08953FB7F8948091A905BC
:105A50009091AA05A091AB05B091AC0526B5A89B85
:105A600005C02F3F19F00196A11DB11D3FBF66274C
:105A7000782F892F9A2F620F711D811D911D42E091
:105A8000660F771F881F991F4A95D1F70895CF9207
:105A9000DF92EF92FF92CF93DF936B017C010E9424
:105AA000242DEB01C114D104E104F10489F00E941A
:105AB000E7330E94242D6C1B7D0B683E734090F3EE
:105AC00081E0C81AD108E108F108C851DC4FEACFDB
:105AD000DF91CF91FF90EF90DF90CF900895789471
