:100000000C94BE080C94E6080C94E6080C94241C8E
:100010000C94241C0C94241C0C94E6080C94E60804
:100020000C94E6080C94E6080C94E6080C94E60898
:100030000C94E6080C94E6080C94E6080C94E60888
:100040000C94B82A0C94E6080C94632D0C94952D0E
:100050000C94E6080C94E6080C94E6080C94E60868
:100060000C94E6080C94E6086572726F723A20727E
:10007000656D6F7465206D6F64656D2069732069AF
:100080006E20636F6D6D616E64206D6F64652E0010
:10009000494E434F4D494E470A43414C4C00434F54
:1000A0004E4E454354494E4720544F2053595354C4
:1000B000454D2E0052494E47004552524F52004F77
:1000C0004B0053656E6420636F6D6D616E642061DB
:1000D0006761696E20746F20766572696679004E7B
:1000E0004F2043415252494552004F4B00507265D8
:1000F000737320616E79206B657920746F20636162
:100100006E63656C2E2E2E00436F6E6E6563746990
:100110006E6720746F20436F6D6D6F646F726553EF
:10012000657276657200456E746572696E67204807
:100130006179657320456D756C6174696F6E204DD2
:100140006F646500536176656400556E6B6E6F7702
:100150006E206F7074696F6E2C20747279206167E5
:1001600061696E0053656C6563743A2000332E201C
:1001700052657475726E20746F204D61696E204DEA
:10018000656E7500322E20436F6D6D6F646F726502
:1001900053657276657200312E204861796573204F
:1001A000456D756C6174696F6E204D6F64650030CC
:1001B0002E20436C656172204175746F7374617297
:1001C00074204F7074696F6E730029004175746FED
:1001D0007374617274204D656E7520284375727258
:1001E000656E743A20002A2A2A205465726D696E61
:1001F000616C204D6F646520284465627567292015
:100200002A2A2A00436F6E6E656374696F6E2063DD
:100210006C6F73656400436F6E6E65637420466136
:10022000696C65642100436F756C64206E6F742087
:100230007265736F6C766520444E532E2020436F99
:100240006E6E656374204661696C65642100466961
:10025000726D776172653A202020200057692D4623
:100260006920535349443A20200049502041646496
:10027000726573733A2020004D41432041646472DB
:100280006573733A2000202844656C20746F2073D6
:10029000776974636829004572726F7220536574C0
:1002A00074696E67205353494400535349442053A3
:1002B00075636365737366756C6C79206368616ED2
:1002C00067656400535349443A0050617373706822
:1002D000726173653A004B65793A00556E6B6E6FCB
:1002E000776E206F7074696F6E2C20747279206144
:1002F0006761696E0053656C6563743A2000332E44
:100300002052657475726E20746F20436F6E66693B
:100310006775726174696F6E204D656E7500322E5F
:1003200020575041202F205750413200312E205766
:100330004550004368616E6765205353494400553A
:100340006E6B6E6F776E206F7074696F6E2C207499
:10035000727920616761696E0053656C6563743AF8
:100360002000352E2052657475726E20746F204DFA
:1003700061696E204D656E7500342E20446972658A
:100380006374205465726D696E616C204D6F646595
:10039000202844656275672900332E204175746FEB
:1003A0007374617274204F7074696F6E7300322EB3
:1003B000204368616E6765205353494400312E2005
:1003C000446973706C61792043757272656E742034
:1003D000436F6E66696775726174696F6E00436F13
:1003E0006E66696775726174696F6E204D656E75B2
:1003F00000556E6B6E6F776E206F7074696F6E2C28
:100400002074727920616761696E0053656C656361
:10041000743A2000322E20436F6E666967757261F0
:1004200074696F6E00312E20486179657320456DC7
:10043000756C6174696F6E204D6F64650052454143
:1004400044592E00436F6D6D6F646F72652057695C
:100450002D4669204D6F64656D2048617965730094
:1004600057692D4669204661696C656421005769AA
:100470002D4669204F4B210057692D466920496E52
:1004800069742E2E2E00050800FF0C4B00000000A2
:10049000003E5B4F5B3E3E6B4F6B3E1C3E7C3E1C0A
:1004A000183C7E3C181C577D571C1C5E7F5E1C0050
:1004B000183C1800FFE7C3E7FF0018241800FFE707
:1004C000DBE7FF30483A060E2629792926407F05CA
:1004D0000507407F05253F5A3CE73C5A7F3E1C1CE0
:1004E00008081C1C3E7F14227F22145F5F005F5FA0
:1004F00006097F017F006689956A6060606060948C
:10050000A2FFA29408047E040810207E2010080890
:100510002A1C08081C2A08081E101010100C1E0C9B
:100520001E0C30383E3830060E3E0E06000000002D
:100530000000005F00000007000700147F147F1414
:10054000242A7F2A12231308646236495620500059
:1005500008070300001C2241000041221C002A1C45
:100560007F1C2A08083E0808008070300008080830
:100570000808000060600020100804023E51494550
:100580003E00427F400072494949462141494D336E
:100590001814127F1027454545393C4A49493141D5
:1005A000211109073649494936464949291E0000A3
:1005B00014000000403400000008142241141414F8
:1005C0001414004122140802015909063E415D59E4
:1005D0004E7C1211127C7F494949363E41414122ED
:1005E0007F4141413E7F494949417F090909013E17
:1005F000414151737F0808087F00417F410020403E
:10060000413F017F081422417F404040407F021C4F
:10061000027F7F0408107F3E4141413E7F09090966
:10062000063E4151215E7F09192946264949493232
:1006300003017F01033F4040403F1F2040201F3FF8
:100640004038403F6314081463030478040361597D
:10065000494D43007F4141410204081020004141BF
:10066000417F04020102044040404040000307086B
:100670000020545478407F28444438384444442867
:10068000384444287F385454541800087E0902180E
:10069000A4A49C787F0804047800447D4000204096
:1006A000403D007F1028440000417F40007C0478DA
:1006B00004787C080404783844444438FC18242422
:1006C0001818242418FC7C080404084854545424A2
:1006D00004043F44243C4040207C1C2040201C3C1F
:1006E0004030403C44281028444C9090907C446416
:1006F000544C4400083641000000770000004136A9
:10070000080002010204023C2623263C1EA1A1612E
:10071000123A4040207A3854545559215555794160
:100720002154547841215554784020545579400C37
:100730001E52721239555555593954545459395518
:100740005454580000457C410002457D420001455B
:100750007C40F0292429F0F0282528F07C545545C8
:10076000002054547C547C0A097F4932494949325B
:100770003248484832324A4848303A4141217A3A70
:1007800042402078009DA0A07D39444444393D403A
:1007900040403D3C24FF2424487E4943662B2FFCE7
:1007A0002F2BFF0929F620C0887E09032054547995
:1007B000410000447D413048484A32384040227A66
:1007C000007A0A0A727D0D19317D2629292F2826E3
:1007D0002929292630484D402038080808080808EB
:1007E0000808382F10C8ACBA2F102834FA00007B44
:1007F000000008142A142222142A1408AA00550002
:10080000AAAA55AA55AA000000FF00101010FF0068
:10081000141414FF001010FF00FF1010F010F0145B
:100820001414FC001414F700FF0000FF00FF141460
:10083000F404FC141417101F10101F101F141414AC
:100840001F00101010F0000000001F101010101FEB
:1008500010101010F010000000FF101010101010F9
:10086000101010FF10000000FF140000FF00FF0038
:10087000001F10170000FC04F414141710171414B0
:10088000F404F40000FF00F714141414141414F703
:1008900000F7141414171410101F101F141414F45C
:1008A000141010F010F000001F101F0000001F14A3
:1008B000000000FC140000F010F01010FF10FF14F6
:1008C0001414FF141010101F00000000F010FFFFA0
:1008D000FFFFFFF0F0F0F0F0FFFFFF00000000006E
:1008E000FFFF0F0F0F0F0F38444438447C2A2A3E75
:1008F000147E02020606027E027E026355494163AF
:100900003844443C04407E201E2006027E020299A8
:10091000A5E7A5991C2A492A1C4C7201724C304A41
:100920004D4D303048784830BC625A463D3E4949CA
:1009300049007E0101017E2A2A2A2A2A44445F4472
:100940004440514A444040444A51400000FF0103A2
:10095000E080FF000008086B6B083612362436066C
:100960000F090F060000181800000010100030409A
:10097000FF0101001F01011E00191D1712003C3C60
:100980003C3C0000000000636C6F73653A206661B8
:10099000696C65642C206E6F202A434C4F532A00EB
:1009A000636C6F73653A20676F74202A434C4F5312
:1009B0002A002A434C4F532A00636C6F73650D0065
:1009C0005465726D696E616C207265616479005561
:1009D0006E657870656374656420726573703A2023
:1009E000004661696C656420746F20636F6E6E658C
:1009F00063743A20004F50454E2A00656E61626C68
:100A000065486F7374526573746F72653A207374BE
:100A10006F7265642000302E302E302E30007365EA
:100A20006E64746F3A206661696C656420746F202F
:100A3000737461727420636F6D6D616E64003C74D9
:100A4000696D656F75743E00556E65787065637489
:100A5000656420636861723A20004661696C656470
:100A600020746F20636F6E6E6563743A20004F5080
:100A7000454E2A005769466C79206861732063727D
:100A8000617368656420616E642077696C6C2072A4
:100A900065626F6F742E2E2E004661696C6564204E
:100AA000746F206765742070726F6D7074000D0034
:100AB0006F70656E20006F70656E20003235352EC8
:100AC0003235352E302E30003136392E3235342E37
:100AD000312E310036342062797465730050696EAE
:100AE00067207472790070696E67200073657420E6
:100AF000752069006C656176650D0047573D000DF6
:100B0000006A6F696E20004173736F636961746579
:100B10006421004641494C4544007365742061647A
:100B2000686F632070726F62650073657420616422
:100B3000686F6320626561636F6E00736574207710
:100B40006C616E2074780073657420776C616E2020
:100B50007261746500736574206F707420726570C3
:100B60006C6163650073657420776C616E207068DA
:100B7000726173650073657420776C616E206B65BC
:100B8000790073657420776C616E206368616E0014
:100B900073657420776C616E20737369640073658C
:100BA0007420776C616E206869646520310073651C
:100BB000742073797320696F66756E630073657452
:100BC00020636F6D6D2073697A65007365742063AF
:100BD0006F6D6D206D617463680073657420636F61
:100BE0006D6D2074696D6500302E302E302E300012
:100BF0007365742062726F61646361737420696EDF
:100C000074657276616C007365742075617274200E
:100C10006D6F6465007365742074696D6520656E21
:100C200061626C65007365742074696D65207A6F0C
:100C30006E65007365742074696D6520706F7274E1
:100C4000007365742074696D6520616464726573F6
:100C5000730073657420697020666C61677300733C
:100C600065742069702070726F746F636F6C0073AD
:100C70006574206970206468637000736574206413
:100C80006E732061646472657373007365742069A8
:100C9000702067617465776179007365742069708D
:100CA000206E65746D61736B0073657420697020CC
:100CB0006E65746D61736B00536574486F73743A3D
:100CC000206661696C656420746F2073746172744E
:100CD00020636F6D6D616E640073657420697020B0
:100CE00072656D6F74650073657420697020686F3C
:100CF00073740073657420697020686F7374007377
:100D00006574206970206C6F63616C706F72740021
:100D10007365742069702061646472657373007315
:100D20006574206970206164647265737300736513
:100D30007420776C616E206A6F696E007365742031
:100D40006F206400736574206F2064005365742005
:100D5000466163746F72792044656661756C747363
:100D600000666163746F727920524553544F524547
:100D70000D002A5265626F6F742A007265626F6F90
:100D8000740D0053746F72696E6700736176650D40
:100D9000003C74696D656F75743E004552523A208F
:100DA00000414F4B0D0A004552523A200053455224
:100DB000564552004341434845004155544F495020
:100DC000004F4E004F4646006C6F6F6B75702000F1
:100DD00074696D650D00736C6565700D00736574E5
:100DE000207379732077616B6500676574436F6E5C
:100DF0003A2054435020646973636F6E6E65637468
:100E0000656400676574436F6E3A205443502063F5
:100E10006F6E6E65637465640073686F7720630D31
:100E200000676574436F6E3A206661696C65642083
:100E3000746F207374617274004661696C6564201C
:100E4000746F20657869740A0D00455849540D0A7D
:100E500000657869740D00434D440D0A0024242474
:100E600000434D440D0A002424240073657450721D
:100E70006F6D7074206661696C6564006D756C746B
:100E8000694D617463685F503A20006D61746368F6
:100E90005F503A20007265616454696D656F7574C6
:100EA000202D2074696D6564206F7574003A2000F0
:100EB0003A200064656275672064756D7000617624
:100EC00061696C61626C653A207065656B203D20DC
:100ED000002A4F50454E2A002A434C4F532A0045C2
:100EE00052524F52207065656B2E322062756666D5
:100EF0006572206F7665726C6F77004552524F5263
:100F0000207065656B2E3120627566666572206F94
:100F10007665726C6F77004661696C656420746FEA
:100F2000206578697420636F6D6D616E64206D6FEC
:100F30006465004661696C656420746F20656E7439
:100F4000657220636F6D6D616E64206D6F64650006
:100F50004661696C656420746F2073657420636FEB
:100F60006D6D2072656D6F74650073657420636FBD
:100F70006D6D2072656D6F74652030004661696C1F
:100F8000656420746F207475726E206F66662073BE
:100F90007973207072696E7400736574207379734D
:100FA000207072696E746C766C2030004661696CDA
:100FB000656420746F207475726E206F666620659C
:100FC00063686F007365742075206D203100526571
:100FD000706C6163653D005478506F7765723D00B9
:100FE000526174653D004A6F696E3D005265626FE3
:100FF0006F743D0050726F62653D00426561636FC2
:101000006E3D00676574206164686F630D00505227
:101010004F544F3D00464C4147533D3078005253AA
:1010200053493D282D0073686F7720727373690DE3
:1010300000466C75736853697A653D004D61746351
:1010400068436861723D00466C75736854696D65EC
:10105000723D0067657420636F6D6D0D004D6F64A8
:10106000653D005254433D0073686F7720742074CF
:101070000D00416464726573733D0067657420649C
:101080006E730D0054696D653D00557054696D6552
:101090003D0073686F772074696D650D005A6F6E3F
:1010A000653D006765742074696D650D004261756A
:1010B00064726174653D0067657420750D00446558
:1010C0007669636549643D00676574206F70740DCF
:1010D00000535349443D0067657420776C616E0D81
:1010E000004D616320416464723D00676574206D4A
:1010F00061630D00444843503D00484F53543D0048
:1011000047573D004E4D3D0049503D0067657420F6
:1011100069700D00000000080002010000030407D0
:1011200000000000000000000102040810204080C0
:101130000102040810200102040810200404040421
:101140000404040402020202020203030303030371
:1011500000000000230026002900000000002500F8
:1011600028002B0000000000240027002A006D0D3D
:10117000261BA22AAD2ABB2D442EA60D11241FBE6C
:10118000CFEFD8E0DEBFCDBF14E0A0E0B1E0EAE6EB
:10119000F0E702C005900D92AC39B107D9F726E00F
:1011A000ACE9B4E001C01D92A93FB207E1F711E13B
:1011B000CAE7D1E104C02297FE010E946932CE360F
:1011C000D107C9F70E94D0160C9428380C9400005F
:1011D0000C943237359907C08091B0008F7D809391
:1011E000B0005B9AF7CF8091B0008F7D8093B00004
:1011F0005B980895CF93DF93EC0160E08CEC95E071
:101200000E946E1A40E060E08CEC95E00E9470183D
:10121000BE018CEC95E00E94E12E8CEC95E0DF9114
:10122000CF910C947D1ACF93DF9300D000D000D0E3
:10123000CDB7DEB720914805222399F0FC016081EB
:101240007181CE0101960E944D18BE016F5F7F4FE4
:1012500087EA95E00E94B42ECE0101960E940130EB
:1012600005C0BC0187EA95E00E94B42E26960FB611
:10127000F894DEBF0FBECDBFDF91CF910895CF931D
:10128000DF9300D000D000D0CDB7DEB7BC01CE01D7
:1012900001960E94F330CE0101960E941309CE01FF
:1012A00001960E94013087EA95E00E94CB2E269697
:1012B0000FB6F894DEBF0FBECDBFDF91CF9108957A
:1012C0000F931F93CF93DF9300D000D000D0CDB702
:1012D000DEB78C01BC01CE0101960E94F330CE0135
:1012E00001960E943F09CE0101960E9401304AE01A
:1012F00060E2C8010E949031B801CE0101960E94BF
:10130000F330CE0101960E94FA08CE0101960E94A8
:10131000013026960FB6F894DEBF0FBECDBFDF9129
:10132000CF911F910F91089587EA95E00C94CB2EF1
:10133000CF93DF93CDB7DEB767970FB6F894DEBFD4
:101340000FBECDBF80914805882369F087E1EBE8A7
:10135000F2E0DE01119601900D928A95E1F7BE014F
:101360006F5F7F4F02C062EA72E087EA95E00E94F9
:10137000C22E66E872E0CE0101960E942931CE01AC
:1013800001960E943F09CE0101960E9401306796A6
:101390000FB6F894DEBF0FBECDBFDF91CF91089599
:1013A00080934805682F80E090E00C943A378830AD
:1013B00031F091E0843109F090E0892F089581E0C7
:1013C0000895BF92CF92DF92EF92FF920F931F93F7
:1013D000CF93DF93CDB7DEB7C457D1090FB6F894DA
:1013E000DEBF0FBECDBFB82E44E150E0BE01655A4E
:1013F0007F4F81E595E00E94ED256E0187E4C80EE0
:10140000D11C44E150E0B60181E595E00E94CF2572
:101410007E0193E3E90EF11C44E150E0B70181E560
:1014200095E00E94F3250E94940968E772E08E011E
:101430000F5F1F4FC8010E942931C8010E94130984
:10144000C8010E940130BE01655A7F4FC8010E9449
:101450006F30C8010E943F09C8010E9401306AE64E
:1014600072E0C8010E942931C8010E941309C80115
:101470000E940130B601C8010E946F30C8010E946D
:101480003F09C8010E9401306CE572E0C8010E946A
:101490002931C8010E941309C8010E940130B70117
:1014A000C8010E946F30C8010E943F09C8010E9414
:1014B00001306EE472E0C8010E942931C8010E9427
:1014C0001309C8010E9401306DEA72E0C8010E9450
:1014D0006F30C8010E943F09C8010E940130BB2043
:1014E00009F489C08DEA92E09F938F9382EB92E09A
:1014F0009F938F931F930F930E943E35B801CE01A7
:1015000081599F4F0E946F30CE0181599F4F0E9499
:10151000FA08CE0181599F4F0E94013068EE73E0B6
:1015200080E090E00E94312B89E08F9380E68F93DA
:101530008FEB92E09F938F931F930F930E943E3502
:10154000B801CE0181599F4F0E946F30CE01815961
:101550009F4F0E94FA08CE0181599F4F0E9401308F
:1015600068EE73E080E090E00E94312BDF92CF9232
:101570008DEC92E09F938F931F930F930E943E35C3
:10158000B801CE0181599F4F0E946F30CE01815921
:101590009F4F0E94FA08CE0181599F4F0E9401304F
:1015A00068EE73E080E090E00E94312BFF92EF92B2
:1015B0008CED92E09F938F931F930F930E943E3583
:1015C000B801CE0181599F4F0E946F30CE018159E1
:1015D0009F4F0E94FA08CE0181599F4F0E9401300F
:1015E00068EE73E080E090E00E94312B0FB6F89433
:1015F000DEBF0FBECDBFCC58DF4F0FB6F894DEBFB5
:101600000FBECDBFDF91CF911F910F91FF90EF9053
:10161000DF90CF90BF900895CF93DF93EC01E881E6
:10162000F9810480F581E02DCE010995892BB9F36C
:10163000E881F9810680F781E02DCE01DF91CF911D
:1016400009948F929F92AF92BF92CF92DF92EF92C6
:10165000FF92CF93DF93EC014B010E94022B6B01B1
:101660007C01A12CB12CE881F9810480F581E02D69
:10167000CE010995892BC1F40E94022B6C197D09BA
:101680008E099F0986169706A806B90660F78FEFA0
:101690009FEFDF91CF91FF90EF90DF90CF90BF90C1
:1016A000AF909F908F900895E881F9810084F18533
:1016B000E02DCE01DF91CF91FF90EF90DF90CF90A2
:1016C000BF90AF909F908F900994EF92FF920F93ED
:1016D0001F93CF93DF9300D000D000D0CDB7DEB7FB
:1016E00082E0E82EF12C0E9494096CEC71E0CE01AE
:1016F00001960E942931CE0101960E941309CE0164
:1017000001960E94013060914605709147054AE0BC
:1017100050E087EA95E00E94BA2F6AEC71E0CE01B2
:1017200001960E942931CE0101960E943F09CE0107
:1017300001960E9401300E9494096FEA71E0CE0187
:1017400001960E942931CE0101960E943F09CE01E7
:1017500001960E94013067E971E0CE0101960E9476
:101760002931CE0101960E943F09CE0101960E94C7
:10177000013064E871E0CE0101960E942931CE016A
:1017800001960E943F09CE0101960E9401306DE64C
:1017900071E0CE0101960E942931CE0101960E948E
:1017A0003F09CE0101960E9401300E94940964E62F
:1017B00071E0CE0101960E942931CE0101960E946E
:1017C0001309CE0101960E94013087EA95E00E943C
:1017D0000C0B8C01682F87EA95E00E94052F0032E0
:1017E000110509F480CF9CF40A30110509F47BCF70
:1017F0002CF40830110569F580E028C00D30110582
:1018000009F471CF0431110521F581E01FC00133C6
:10181000110581F044F400331105D9F41092470505
:101820001092460519C00233110559F00333110512
:1018300041F10FC081E090E0909347058093460509
:101840000BC0F0924705E092460506C00E94D00901
:101850004ACF6AE471E008C06091460581E090E0FB
:101860000E943A3764E471E0CE0101960E9429316A
:10187000CE0101960E943F09CE0101960E940130DF
:1018800032CF26960FB6F894DEBF0FBECDBFDF91E4
:10189000CF911F910F91FF90EF900895EF92FF92DB
:1018A0000F931F93CF93DF9300D000D000D0CDB71C
:1018B000DEB77C018B010E94940980910701882387
:1018C00031F0B801CE0101960E94293105C0B7015F
:1018D000CE0101960E946F30CE0101960E943F0911
:1018E000CE0101960E9401308CEC95E00E94CB2E37
:1018F000B8018CEC95E00E94CF2E8CEC95E00E9414
:101900007D1A26960FB6F894DEBF0FBECDBFDF91CD
:10191000CF911F910F91FF90EF9008956FEB70E0C2
:101920008EE593E00C944E0C69EB70E080EB92E056
:101930000C944E0C81E5EEE9F4E0DF011D928A95EE
:10194000E9F7089590914105913019F091E09827B9
:10195000892F90E00895CF93DF9300D000D000D07E
:10196000CDB7DEB781E08093080110924505109253
:10197000440581E595E00E94392964E670E080E045
:1019800090E00E94312B6FED70E0CE0101960E9435
:101990002931CE0101960E946009CE0101960E9474
:1019A000013080E00E94A20C682F82E10E94F62B99
:1019B00026960FB6F894DEBF0FBECDBFDF91CF9154
:1019C000089580934305682F8AE090E00C943A379D
:1019D000CF93C1E0C09308011092450510924405D1
:1019E00081E00E94E10CC093070110924205109221
:1019F00040058BE28093060110924105CF91089536
:101A00000F931F93CF93DF93CDB7DEB76A970FB6CF
:101A1000F894DEBF0FBECDBF89E08F9380E68F9331
:101A200085EE92E09F938F938E010F5F1F4F1F9360
:101A30000F930E943E35B801CE0145960E946F304B
:101A4000CE0145960E946009CE0145960E94013064
:101A500081E00E94A20C682F82E10E94F62B81E0B7
:101A60008093450510920801109244050F900F9045
:101A70000F900F900F900F906A960FB6F894DEBFFC
:101A80000FBECDBFDF91CF911F910F91089580912F
:101A90004405811102C00C94AB0C0C94000D81E044
:101AA000809344058091400581110C94470D64EBAF
:101AB00070E080E293E00E944E0C81E00E94A20C54
:101AC000682F80E10E94F62B439A6AEF70E080E075
:101AD00090E00E94312B439808950F9300E020E09E
:101AE00040E060E086EC95E00E94382E20E046E081
:101AF00065E087EA95E00E94F71C81E595E00E9489
:101B0000742A6CE874E08BE495E00E946F3080E00A
:101B100090E00E94E80891E0811101C090E090936C
:101B2000480581E090E00E94E80890E09093470526
:101B3000809346058AE090E00E94E80891E08111D8
:101B400001C090E0909343050F9108958BE495E0D8
:101B50000E94013087EA95E00C949E1CDF92EF9280
:101B6000FF920F931F93CF93DF93CDB7DEB7E2972A
:101B70000FB6F894DEBF0FBECDBF7C0100E010E0D1
:101B800087EA95E00E940C0BD82EE1E0F0E0EC0F24
:101B9000FD1FE00FF11F8083682F87EA95E00E9408
:101BA000521B8D2D0E94D709882329F0011511059C
:101BB00079F0025011098DE0D81669F00133110552
:101BC00051F00F5F1F4F0F3F8FEF1807C9F6D6CFA9
:101BD0008DE0D812F6CFE1E0F0E0EC0FFD1FE00F52
:101BE000F11F1082BE016F5F7F4FC7010E946F30EF
:101BF000C701E2960FB6F894DEBF0FBECDBFDF91EE
:101C0000CF911F910F91FF90EF90DF9008950F9368
:101C10001F93CF93DF9300D000D000D0CDB7DEB7B5
:101C20008C01CE0101960E94AE0DCE0101960E945C
:101C30009E3180914805882331F069817A81C801FD
:101C40000E940C1806C0BE016F5F7F4FC8010E9442
:101C5000DC2FCE0101960E940130C80126960FB6F6
:101C6000F894DEBF0FBECDBFDF91CF911F910F91D2
:101C700008950F931F93CF93DF93CDB7DEB72C97C3
:101C80000FB6F894DEBF0FBECDBF0E94940963E388
:101C900073E0CE0101960E942931CE0101960E9487
:101CA0003F09CE0101960E9401300E9494096CE226
:101CB00073E0CE0101960E942931CE0101960E9467
:101CC0003F09CE0101960E9401306EE173E0CE0122
:101CD00001960E942931CE0101960E943F09CE0152
:101CE00001960E9401306EEF72E0CE0101960E94D3
:101CF0002931CE0101960E943F09CE0101960E9432
:101D000001300E94940965EF72E0CE0101960E94B5
:101D10002931CE0101960E941309CE0101960E943D
:101D2000013087EA95E00E940C0B8C01682F87EA4E
:101D300095E00E94052F04311105F9F06CF40A308A
:101D4000110509F4A2CF0D30110509F49ECF08301A
:101D50001105B9F480E012C001331105F9F02CF43B
:101D60000032110509F491CF0CC002331105C9F0FE
:101D70000333110509F4BEC004C081E00E94D009FC
:101D800084CF6BED72E0CE0101960E942931CE0125
:101D900001960E943F09CE010196A9C001E010E022
:101DA00002C000E010E00E9494096CE874E0CE01EB
:101DB00007960E946F300130110521F566ED72E043
:101DC000CE0101960E942931CE0101960E9413098D
:101DD000CE0101960E940130CE0101960E94070EAD
:101DE000BE016F5F7F4FCE0107960E94FC30CE018F
:101DF00001960E9401306F81788581E595E00E940F
:101E0000462823C06AEC72E0CE0101960E94293177
:101E1000CE0101960E941309CE0101960E94013065
:101E2000CE0101960E94070EBE016F5F7F4FCE016B
:101E300007960E94FC30CE0101960E9401306F810E
:101E4000788581E595E00E9465280E94940964ECFC
:101E500072E0CE0101960E942931CE0101960E94C6
:101E60001309CE0101960E940130CE0101960E9415
:101E7000070EBE016F5F7F4FCE0107960E94FC30B8
:101E8000CE0101960E9401306F81788581E595E051
:101E90000E943B2881111BC06AEA72E0CE010196C4
:101EA0000E942931CE0101960E943F09CE01019680
:101EB0000E94013081E595E00E94ED2781E595E0E3
:101EC0000E94D728CE0107960E94013013C067E90F
:101ED00072E0CE0101960E942931CE0101960E9446
:101EE0003F09CE0101960E940130CE0107960E9463
:101EF0000130CBCE2C960FB6F894DEBF0FBECDBF0F
:101F0000DF91CF911F910F9108951F93CF93DF938E
:101F1000EC01162F6FEF81E595E00E94171FCD3F72
:101F2000D10511F46DEF01C06BEF81E595E00E94E2
:101F3000171F612F81E595E0DF91CF911F910C94E0
:101F4000171F1F93CF93DF93EC01162F6FEF81E5DF
:101F500095E00E94171FCD3FD10511F46CEF01C031
:101F60006EEF81E595E00E94171F612F81E595E0F6
:101F7000DF91CF911F910C94171F6FEF81E595E0D2
:101F80000E94171F6EEF81E595E00E94171F62E225
:101F900081E595E00E94171F6FEF81E595E00E94B3
:101FA000171F6EEF81E595E00E94171F61E081E544
:101FB00095E00C94171FCF93DF9368E873E181E5F8
:101FC00095E00E94210B8F3F910591F50E94BD0F76
:101FD00068EE73E081E595E00E94210B8F3F91054B
:101FE00039F581E595E00E940C0B81E595E00E94B2
:101FF0000C0BEC018F3F2FEF920751F38B5F910990
:10200000049730F781E595E00E940C0B8F3F2FEF8E
:102010009207F1F28330910531F463E070E0CE0174
:102020000E94850FD5CFBC01CE010E94A10FD0CF59
:10203000DF91CF9108956F927F928F929F92AF928E
:10204000BF92CF92DF92EF92FF920F931F93CF93A5
:10205000DF93CDB7DEB7CE57D1090FB6F894DEBF08
:102060000FBECDBFE12CF12CCE0101966C0190EF9B
:10207000892E92E0992E5E0195E6A90EB11C81E5AC
:1020800095E00E943521019609F48FC080914905A1
:1020900090914A05892B09F46AC000E010E081E5BF
:1020A00095E00E94352118161906B4F48091B0000D
:1020B0008F7D8093B0005B9A81E595E00E94DA20E5
:1020C000F601E00FF11F80830F5F1F4F04361105EB
:1020D00034F303E610E0E3CF3601C3018C199D0908
:1020E0008017910754F4359BFECFF30161913F01B6
:1020F00087EA95E00E94521BF0CFE016F1060CF43F
:102100007801FF92EF929F928F92BF92AF920E94BE
:102110003E35B501CE0187589F4F0E946F30CE01EA
:1021200087589F4F0E94FA08CE0187589F4F0E9400
:1021300001308091B0008F7D8093B0005B980F904C
:102140000F900F900F900F900F9018C0809149053D
:1021500090914A05892B11F00E94EA0881E595E0EB
:102160000E94DA20682F87EA95E00E94521B81E5E1
:1021700095E00E9435211816190644F387EA95E088
:102180000E94BE1B1816190654F487EA95E00E94B7
:10219000311B682F81E595E00E94171FEFCF81E585
:1021A00095E00E942C2981116ACF81E595E00E947B
:1021B000392964E072E0CE018B599F4F0E9429318A
:1021C000CE018B599F4F0E946009CE018B599F4FC2
:1021D0000E940130C258DF4F0FB6F894DEBF0FBE29
:1021E000CDBFDF91CF911F910F91FF90EF90DF90C6
:1021F000CF90BF90AF909F908F907F906F900895F9
:10220000BF92CF92DF92EF92FF920F931F93CF93E3
:10221000DF93CDB7DEB7C854D1090FB6F894DEBF4F
:102220000FBECDBF7C016B01B42EFC0181818F9369
:1022300080818F9388EF92E09F938F938E010F5F41
:102240001F4F1F930F930E943E35B801CE01C396D6
:102250000E946F30CE01C3960E946009CE01C396E2
:102260000E94013062E081E595E00E942128F7019B
:102270006081718120E130E0AE014D5C5F4F81E50E
:1022800095E00E9425260F900F900F900F900F90D1
:102290000F90811103C066E272E035C021E0A60113
:1022A000BE016D5C7F4F81E595E00E94792988230E
:1022B00041F1F70181818F9380818F938AE093E0D0
:1022C0009F938F931F930F930E943E35B801CE01C9
:1022D0008D5B9F4F0E946F30CE018D5B9F4F0E94A0
:1022E0006009CE018D5B9F4F0E9401300F900F90CF
:1022F0000F900F900F900F90B11015C00E94DB0F40
:1023000012C066E172E0CE018D5B9F4F0E942931C1
:10231000CE018D5B9F4F0E946009CE018D5B9F4F68
:102320000E94013002C00E941B10C85BDF4F0FB635
:10233000F894DEBF0FBECDBFDF91CF911F910F91FB
:10234000FF90EF90DF90CF90BF900895EF92FF92B3
:102350000F931F93CF93DF93CDB7DEB72C970FB6B4
:10236000F894DEBF0FBECDBF8C01BC01CE01079635
:102370000E946F30F8018081811103C00E94940C8B
:102380003AC06AE370E0C8010E94E4340097C1F0EB
:10239000FC0111927F01B801CE0101960E946F30BD
:1023A000BE016F5F7F4FCE0107960E94FC30CE01C9
:1023B00001960E940130C7010E9478348C0102C04E
:1023C00007E110E06AE173E0CE0107960E947131E7
:1023D000811111C0BE01695F7F4FCE0101960E943D
:1023E000F33040E0B801CE0101960E940011CE0109
:1023F00001960E940130CE0107960E9401302C9672
:102400000FB6F894DEBF0FBECDBFDF91CF911F9105
:102410000F91FF90EF900895EF92FF920F931F930B
:10242000CF93DF93CDB7DEB7C456D1090FB6F8947A
:10243000DEBF0FBECDBF80919E04813439F4809100
:102440009F04843509F060C181E009C0813609F03C
:102450005BC180919F04843709F056C180E0909160
:10246000480589130E94D0096EE974E08FEE94E06C
:102470000E94F8340EE914E07801F7010190002081
:10248000E9F73197EE59F440C8018E5994408E1700
:102490009F0758F4F8018081992787FD90950E9445
:1024A000A634F80181938F01E8CF6EE974E08E01C4
:1024B0000F5F1F4FC8010E946F30C8010E94FA08C9
:1024C000C8010E94013062E273E08EE994E00E944C
:1024D000EF34892B19F40E94E80C12C166E273E014
:1024E0008EE994E00E94EF34892B21F480E00E9471
:1024F000E10906C16AE273E08EE994E00E94EF34DC
:10250000892BA1F46AE273E08FEE94E00E94EF342D
:10251000892B09F362EC70E0C8010E942931C801DF
:102520000E943F09C8010E940130ECC06FE273E0D5
:102530008EE994E00E94EF34892B19F40E94470D34
:10254000E1C063E373E08EE994E00E94EF34892BED
:1025500041F067E373E08EE994E00E94EF34892B49
:1025600039F580914505882301F110920801CAC010
:1025700061E573E08EE994E00E94EF34892B09F461
:1025800054C066E573E08EE994E00E94EF34892B35
:1025900009F44BC042E050E06AE573E08EE994E054
:1025A0000E94FF34892B09F443C00E94940CAAC0F6
:1025B00045E050E06BE373E08EE994E00E94FF3465
:1025C000892BA1F045E050E061E473E08EE994E0EE
:1025D0000E94FF34892B51F044E050E067E473E03F
:1025E0008EE994E00E94FF34892B41F460E270E0B0
:1025F0008EE994E00E94E434019612C044E050E079
:102600006CE473E08EE994E00E94FF34892B09F0BA
:10261000AFCF6CE473E08EE994E00E941C35049621
:102620000E94A6110E949A0C6DC00E94AB0C6AC059
:102630006DE573E08EE994E00E941C35892B19F05A
:1026400080E00E94E10C60E673E08EE994E00E9475
:102650001C35892B19F081E08093430563E673E014
:102660008EE994E00E941C35892B21F0109207011D
:102670001092420566E673E08EE994E00E941C35F4
:10268000892B19F081E08093420569E673E08EE9B9
:1026900094E00E941C35892B11F0109207016CE622
:1026A00073E08EE994E00E941C35892B19F081E0DB
:1026B000809307016FE673E08EE994E00E941C3579
:1026C0000097F1F0BC016D5F7F4FFB01AF01481B2C
:1026D000590B219120532A30C8F384E6F801119256
:1026E0008A95E9F743505109C8010E940D35C80188
:1026F0000E94783421E0892B09F420E020934005E2
:102700000E948E0C0E949A0CCC59DF4F0FB6F894A1
:10271000DEBF0FBECDBFDF91CF911F910F91FF9014
:10272000EF900895CF93DF93CDB7DEB7E8970FB65C
:10273000F894DEBF0FBECDBF66EE71E08E010F5F75
:102740001F4FC8010E942931C8010E943F09C801DA
:102750000E940130412C512C3201C12CD12C760128
:10276000912C20E9222E23E0322E33E7A32E33E0F2
:10277000B32E81E595E00E94352118161906CCF498
:102780008FEFC81AD80AE80AF80A80914905909193
:102790004A05892B11F00E94EA0881E595E00E9424
:1027A000DA20682F87EA95E00E94521B99249394BF
:1027B000E0CF87EA95E00E94BE1B181619068CF43C
:1027C0009FEF491A590A690A790A87EA95E00E9437
:1027D000311B682F81E595E00E94171F992493947F
:1027E000E8CF992031F28091490590914A05892BD3
:1027F00099F01F921F921F921F927F926F925F9289
:102800004F92FF92EF92DF92CF92BF92AF921F93BF
:102810000F930E943E350EC07F926F925F924F924F
:10282000FF92EF92DF92CF923F922F921F930F93DE
:102830000E943E350FB6F894DEBF0FBECDBFB80183
:10284000CE01C3960E946F30CE01C3960E94FA0853
:10285000CE01C3960E9401308CCF0F931F93CF936C
:10286000DF9300D000D000D0CDB7DEB70E9494092E
:102870006EED73E0CE0101960E942931CE010196E2
:102880000E943F09CE0101960E9401300E949409E6
:102890006DEB73E0CE0101960E942931CE010196C5
:1028A0000E943F09CE0101960E9401306EEA73E05A
:1028B000CE0101960E942931CE0101960E943F0966
:1028C000CE0101960E94013069E973E0CE010196C4
:1028D0000E942931CE0101960E943F09CE01019646
:1028E0000E94013069E773E0CE0101960E94293110
:1028F000CE0101960E943F09CE0101960E9401304F
:1029000062E673E0CE0101960E942931CE01019664
:102910000E943F09CE0101960E9401300E94940955
:1029200069E573E0CE0101960E942931CE0101963E
:102930000E941309CE0101960E94013087EA95E0BA
:102940000E940C0B8C01682F87EA95E00E94052FEE
:102950000032110509F48ACF9CF40A30110509F4FC
:1029600085CF2CF40830110559F580E026C00D30D4
:10297000110509F47BCF0431110511F581E01DC06B
:1029800003331105A9F04CF40133110569F002334A
:102990001105B1F40E94390E69CF0433110559F0C5
:1029A00005331105E1F00CC080E00E94E1095ECF23
:1029B0000E94650B5BCF0E9492130E94D00956CFF4
:1029C0006FE373E0CE0101960E942931CE0101969A
:1029D0000E943F09CE0101960E94013047CF269602
:1029E0000FB6F894DEBF0FBECDBFDF91CF911F9120
:1029F0000F910895EF92FF920F931F93CF93DF9360
:102A00001F92CDB7DEB701E04EE9E42E44E0F42E8C
:102A100087EA95E00E94BE1B892B09F497C080913C
:102A20000801882309F45FC087EA95E00E94311B02
:102A3000182F80914305882329F0612F87EA95E0BC
:102A40000E94521B812F0E94D709882359F0809140
:102A50009E048823E9F2F70101900020E9F73297FC
:102A60001082D6CF1D3029F11A3019F1809106015C
:102A70001817F9F0F70101900020E9F7319710835A
:102A800080919E04992787FD90950E94A6348134F9
:102A9000910509F0BDCF80919F048F3209F0B8CF26
:102AA0006FEE74E08EE994E00E94F8340E940C12FC
:102AB00017C080919E04992787FD90950E94A634A7
:102AC0008134910569F480919F04992787FD909541
:102AD0000E94A6348435910519F40E940C1298CFF7
:102AE0000E949A0C95CF80914505882309F490CFD8
:102AF00087EA95E00E94311B9091060198130BC064
:102B000020919C0430919D042F5F3F4F30939D0492
:102B100020939C0404C010929D0410929C04209168
:102B20009C0430919D042330310551F410929D0492
:102B300010929C040093080189830E948E0C898165
:102B4000682F81E595E00E94171F62CF0F90DF91FB
:102B5000CF911F910F91FF90EF900895CF93DF9346
:102B600000D000D000D0CDB7DEB7809145058111EF
:102B700021C08091440581111DC081E595E00E942E
:102B80002C298823B9F06EE970E081E595E00E9478
:102B9000CF2E60E970E0CE0101960E942931CE016E
:102BA00001960E94FA08CE0101960E9401300E940F
:102BB0004F0D46C080914405882331F081E595E0B2
:102BC0000E942C29882351F080914505882349F0E3
:102BD00081E595E00E942C29811103C00E94AB0C75
:102BE0002FC0809145058823B9F081E595E00E94CA
:102BF0002C29882389F080910801882381F081E5C0
:102C000095E00E943521181619064CF468E670E02C
:102C100081E595E00E94CF2E0E94FA1411C081E553
:102C200095E00E94352118161906B4F781E595E064
:102C30000E94DA20682F87EA95E00E94521BEFCFAE
:102C400026960FB6F894DEBF0FBECDBFDF91CF91B1
:102C50000895CF93DF9300D000D000D0CDB7DEB77A
:102C60003B9A389A3C9A3A983D984398409A80E02B
:102C70000E94A20C682F82E10E94F62B10929D0404
:102C800010929C040E94E80C0E949A0C0E949409E5
:102C90006AEE70E0CE0101960E942931CE010196C4
:102CA0000E946009CE0101960E9401300E94AE157B
:102CB000FDCFCF93DF9300D000D000D0CDB7DEB7EB
:102CC00080914605909147058130910581F08230D1
:102CD000910581F0892B09F45AC060E081E090E011
:102CE0000E943A37109247051092460550C066E29E
:102CF00071E002C068E071E0CE0101960E942931C6
:102D0000CE0101960E943F09CE0101960E9401303A
:102D10006DEE70E0CE0101960E942931CE01019640
:102D20000E943F09CE0101960E94013068E873E1DC
:102D300087EA95E00E94210B019629F087EA95E049
:102D40000E940C0B24C0809146059091470581306C
:102D5000910519F0029719F01AC00E94291663EA2A
:102D600073E0CE0101960E946F3041E065E076E0AD
:102D7000CE0101960E940011CE0101960E94013001
:102D800068EE73E080E090E00E94312BE8CF269659
:102D90000FB6F894DEBF0FBECDBFDF91CF9108957F
:102DA000CF93DF9300D000D000D0CDB7DEB70E9424
:102DB000592B8CEC95E00E94BE1A60E08CEC95E0FB
:102DC0000E94B41861E08CEC95E00E946E1A40E617
:102DD00059E060E070E087EA95E00E94271D26E058
:102DE00040E659E060E070E082E596E00E94012D47
:102DF00048EE53E060E070E087EA95E00E94D62F4D
:102E00008091490590914A05892B59F03D98399A4E
:102E10005298539A8091B0008F7D8093B0005B9858
:102E2000419A68E774E0CE0101960E942931CE01F3
:102E300001960E946009CE0101960E94013047EA86
:102E400055E062E576E081E595E00E94022988235D
:102E500069F16EE674E0CE0101960E942931CE013F
:102E600001960E946009CE0101960E94013061E046
:102E700081E595E00E94232881E595E00E943929AB
:102E80000E9459160E94940964E474E0CE010196F0
:102E90000E942931CE0101960E943F09CE01019680
:102EA0000E94013081E00E94E10918C060E674E0F0
:102EB000CE0101960E942931CE0101960E9460093F
:102EC000CE0101960E9401300E9492130531110536
:102ED0000CF05CC00A30110509F04FC06DE374E0DE
:102EE000CE0101960E942931CE0101960E94FA0876
:102EF000CE0101960E9401300E9494090E94980917
:102F00000E94940965E274E0CE0101960E94293185
:102F1000CE0101960E943F09CE0101960E94013028
:102F200064E174E0CE0101960E942931CE01019640
:102F30000E943F09CE0101960E9401300E9494092F
:102F40006BE074E0CE0101960E942931CE0101961A
:102F50000E941309CE0101960E94013087EA95E094
:102F60000E940C0B8C01682F87EA95E00E94052FC8
:102F70000431110509F0AACF18C00D30110509F46C
:102F8000ADCF08301105A9F480E010C00133110560
:102F900039F00233110531F00032110551F49ECFA2
:102FA0000E9429160E942D1499CF81E00E94D00919
:102FB00095CF61EF73E0CE0101960E942931CE01D9
:102FC00001960E943F09CE0101960E94013086CFF2
:102FD000CF9380361CF0C0E6C80F05C08D30B1F02D
:102FE0008A30B1F0C82FC03214F4CEE212C08FEB99
:102FF0008C0F8A3110F4C05E0CC08C2F992787FD8E
:1030000090950E949834892B81F303C0CAE001C0D7
:10301000CDE08C2FCF910895EF92FF920F931F93E5
:10302000CF93DF938C017B016CE874E00E946F30DA
:10303000E7018991882339F00E94E817682FC801B9
:103040000E945E31F6CFC801DF91CF911F910F91A1
:10305000FF90EF9008958A30C1F08D30C1F080323A
:10306000D4F08036B1F09FE9980F9A3110F4805275
:1030700008959FEB980F9A3110F4805808958B377C
:1030800054F480364CF0805A08958DE008958AE01B
:10309000089587E208958FE30895EF92FF920F93CA
:1030A0001F93CF93DF938C017B016CE874E00E9447
:1030B0006F30E7018991882339F00E942B18682F1F
:1030C000C8010E945E31F6CFC801DF91CF911F91F8
:1030D0000F91FF90EF9008950DB407FEFDCF089576
:1030E000FC016387448708950F936034D8F540331B
:1030F000C8F50130C9F42130A9F5E42FE695E6952D
:10310000E69580E4E89FF0011124E60FF11DE75FEA
:10311000FE4F477081E090E0042E01C0880F0A94B2
:10312000EAF7908198271DC0842F8695869586950D
:10313000E62FF0E0477090E4899FE00DF11D112427
:10314000E75FFE4F81E090E0042E01C0880F0A94F3
:10315000EAF7213019F49081982B03C08095908173
:10316000982390830F910895DC0161112EC0189669
:103170001C9218978091890290918A02FC012491F7
:1031800016962C9316973196E4911796EC93179711
:10319000FC013296E4911996EC931997FC01339651
:1031A000E4911A96EC931A97FC0134962491319687
:1031B000849190E0F4E62F9F800D911D11241E96BE
:1031C0009C938E931D9781E0089580E008955F920F
:1031D0006F927F928F929F92AF92BF92CF92DF9227
:1031E000EF92FF920F931F93CF93DF93EC01162F73
:1031F000B42EF02E3985231708F4B0C06A8570E02C
:10320000630F711D822F90E0861797070CF0A6C000
:10321000D22ED31A9F8096949694969481E0891525
:10322000C0F1C12E3C2D311B2E81822F90E0A32FA7
:10323000B0E08A179B070CF491C0321791F0E88533
:10324000F0E0EE0FFF1FE757FD4FD29EA00DB11D1E
:10325000112416960190F081E02DEA0FFB1F949047
:1032600001C0912CA12C4A2D4B0D90FE03C00E2DB8
:103270002F2D04C021E0F11020E00E2D6C2DCE0189
:103280000E9474189694A39488E0A812ECCFC3947B
:10329000C9CFED85FE852E8130E0CF01B9010E94B6
:1032A000FE318D2D90E00E94FE31829F6001839F50
:1032B000D00C929FD00C11249E9E90019F9E300DA9
:1032C0001124269FC001279F900D369F900D112439
:1032D000C80ED91E742EA12CB12C86E0C80ED11CAC
:1032E000812E482D411B8E81481780F5E885F0E03E
:1032F000EE0FFF1FE757FD4F2D853E85A29EC001B3
:10330000A39E900DB29E900D11248C0D9D1D840FD7
:10331000911D0190F081E02DE80FF91F5490612C70
:10332000462D470D50FE03C00E2D2F2D04C021E069
:10333000F11020E00E2D682DCE010E9474185694D5
:10334000639488E06812ECCF8394CBCF8FEFA81AF8
:10335000B80A88E0780EA91408F4C2CFDF91CF91A3
:103360001F910F91FF90EF90DF90CF90BF90AF90A3
:103370009F908F907F906F905F900895EF920F9342
:10338000CF93DF93EC01262F6A30A9F06D30C1F0A6
:10339000ED800C814C856B850E94E7184E812B8552
:1033A000240F2F5F2B8730E080E490E0841B91098D
:1033B000821793072CF48C859F81890F8C871B863D
:1033C00081E090E0DF91CF910F91EF9008952A9ADC
:1033D00022982898209A60E08DE00E94F62B60E009
:1033E0008BE00E94F62B61E08DE00E94BD2B61E036
:1033F0008BE00E94BD2B8CB580618CBD08958CB58F
:1034000080648CBD2A98229A08950DB407FEFDCFE2
:103410002898209A2A9A22988CB58F7B8CBD089583
:10342000CF93DF9300D0CDB7DEB74A8369830E9484
:10343000FF1969816EBD0E946C184A814EBD0F90C4
:103440000F90DF91CF910C94051ACF93DF9300D0AA
:103450001F92CDB7DEB72B834A8369830E94FF1981
:1034600069816EBD0E946C184A814EBD0E946C1825
:103470002B812EBD0F900F900F90DF91CF910C9468
:10348000051A0F931F93CF93DF93EC0140E060E2A6
:103490000E94101A2FE740E061E2CE010E94251A37
:1034A00027E040E062E2CE010E94251A0E94FF1947
:1034B000289A20981EBC0FEF13E00E946C181EBCC7
:1034C00001501109D1F70E94051A42E060E2CE01D5
:1034D000DF91CF911F910F910C94101A613011F46C
:1034E0000C94411A80E891E0E9E0F1E0DF019C01F1
:1034F0001D9221503040E1F708950F931F93CF9311
:10350000DF93EC0140E060E20E94101A2FE540E2F8
:1035100061E2CE010E94251A25E040E062E2CE0180
:103520000E94251A0E94FF19289A2098809109016B
:103530008EBD0AE011E00E946C18F80181918F01A4
:103540008EBDF2E009381F07B1F70E94051A42E06C
:1035500060E2CE01DF91CF911F910F910C94101A70
:103560002CB5982F93702C7F922B9CBD9DB582FB20
:10357000882780F99E7F982B9DBD0895CF93DF9378
:10358000EC0160E00E94B41881E08C831D821B86F0
:103590001C865F98579A61E084E00E94BD2B61E031
:1035A00084E00E94F62B6AE070E080E090E00E94E8
:1035B000312B5F9A579865E070E080E090E00E94C0
:1035C000312B5F98579A84E00E94B01A0E94E71945
:1035D00065E070E080E090E00E94312B5F9A5798A0
:1035E0006AE070E080E090E00E94312B4FE268EAF0
:1035F000CE010E94101A44E16DE8CE010E94101A1B
:103600000E94FF1981EA8EBD0E94051A0E94FF19CF
:1036100088EC8EBD0E94051A4FE861E8CE010E9439
:10362000101A41EF69EDCE010E94101A40E46BEDD3
:10363000CE010E94101A0E94FF198FEA8EBD0E94CF
:10364000051ACE01DF91CF910C94411A1092CF054B
:103650001092CE058FEB93E09093CD058093CC052F
:10366000089520911D0630911E0628173907B9F4D8
:103670009091DB058091DC05981789F0E091DB05DE
:10368000F0E0E352FA4F80812091DB0530E02F5FBC
:103690003F4F2F7333272093DB0590E008958FEF82
:1036A0009FEF08951F93CF93DF93DC015C968D917C
:1036B0009C915D97009749F481E090E013969C936C
:1036C0008E93129780E090E03BC05196ED91FC9173
:1036D000529750962C915097322F30951FB75E9687
:1036E0004C915E9741FB772770F941FD6095F89406
:1036F0004081772311F0422B01C043234083EC012A
:103700002197F1F748E0508160FF02C0522B01C0C1
:1037100053235083EC012197F1F76695415099F7B7
:103720008081772311F0832301C0822B80831FBF08
:103730005C968D919C915D970197F1F781E090E007
:10374000DF91CF911F91089520911D0630911E06A3
:103750002817390781F49091DB058091DC059817D3
:1037600051F0E091DB05F0E0E352FA4F80819927B8
:1037700087FD909508958FEF9FEF089520911D0686
:1037800030911E062817390771F48091DC052091CD
:10379000DB0590E0805C9F4F821B910960E470E044
:1037A0000E941232089580E090E0089520911D0655
:1037B00030911E062817390739F48FB7F894109204
:1037C000DC051092DB058FBF0895E0911D06F09196
:1037D0001E06E817F90769F4A389B4899C918589C5
:1037E000809589238C9310921E0610921D0681E00D
:1037F000089580E00895CF93DF93EC018A8D9B8D2F
:10380000892BF1F080911D0690911E068C179D0763
:10381000B9F0009711F00E94E51B8E8D8E7F8E8F80
:103820001092DC051092DB05D0931E06C0931D0696
:10383000EB89FC8980819D89892B808381E001C08F
:1038400080E0DF91CF9108951F920F920FB60F92F3
:1038500011242F933F934F935F936F937F938F9395
:103860009F93AF93BF93EF93FF93E0911D06F09169
:103870001E06309709F451C0868DA685B7859585BB
:1038800081FF04C08C91892329F447C08C9189233E
:1038900009F043C0A389B4899C91858980958923C7
:1038A0008C93868997890197F1F7208D318DA685B4
:1038B000B785758558E040E0C9010197F1F7842F7D
:1038C00090E095958795482F6C91672309F04068A3
:1038D000515091F7868D81FD40958091DC0590E0F7
:1038E00001968F7399272091DB05281749F0A09145
:1038F000DC05B0E0A352BA4F4C938093DC0503C0C3
:10390000868D8160868F828D938D0197F1F7A389D3
:10391000B4898C919589892B8C93FF91EF91BF91FC
:10392000AF919F918F917F916F915F914F913F9157
:103930002F910F900FBE0F901F90189527EC33E03A
:10394000FC01318320830C94E51B1F93CF93DF93FD
:10395000EC01162F6E8D6695617081E06827812FCE
:103960000E94F62B61E0812F0E94BD2B812F90E0F9
:10397000FC01E85DFE4EE491E88BFC01E45CFE4E48
:10398000E491F0E0EE0FFF1FE65AFE4E8591949110
:103990009A8B898BDF91CF911F9108951F93CF93BD
:1039A000DF93EC01162F60E0812F0E94BD2B8E8DDE
:1039B00081FD04C061E0812F0E94F62B1C87812FBE
:1039C00090E0FC01E85DFE4EE491ED87FC01E45CD3
:1039D000FE4EE491F0E0EE0FFF1FE05BFE4E85919E
:1039E00094919F878E87DF91CF911F910895FF92C9
:1039F0000F931F93CF93DF93EC01F62E522F1B8270
:103A00001A8208EE13E020E030E00C831D832E8341
:103A10003F8387EC93E0998388831F8A1E8A198EDF
:103A2000188E1B8E1A8E1D8E1C8E8E8D8E7F50FBD7
:103A300081F98E8F642FCE010E94A51C6F2DCE01BF
:103A4000DF91CF911F910F91FF900C94CE1CCF93DB
:103A5000DF93EC019A01AB011B8E1A8E198E188E22
:103A60001F8A1E8A60E079E08DE390E00E94483270
:103A7000C9012430310520F0B9016350710902C039
:103A800061E070E07D8F6C8FEC85E63108F068C0F6
:103A9000B901769567956431710518F06351710924
:103AA00002C061E070E07F8B6E8B069718F0C90151
:103AB000059702C081E090E0998F888FC901880F37
:103AC000991F820F931F96958795969587958D30B0
:103AD000910510F00C9702C081E090E09B8F8A8FD7
:103AE00020916800E83050F091E0EE3008F490E06A
:103AF00081E001C0880F9A95EAF701C084E0822B2B
:103B0000809368002C85283038F02E3040F0263124
:103B100048F48CE690E008C08DE690E005C08BE6A6
:103B200090E002C080E090E09C8B8B8B283030F4DA
:103B300081E001C0880F2A95EAF70DC0822F90E03E
:103B40002E3010F4089701C00E9791E001C0990F34
:103B50008A95EAF7892F8D8B8C8D9D8D0197F1F7D2
:103B6000CE01DF91CF910C94FB1BDC011C968D9153
:103B70009C911D97DC01ED91FC910680F781E02D71
:103B80000994DC011C968D919C911D97DC01ED91AF
:103B9000FC910480F581E02D0994DC011C968D9147
:103BA0009C911D97DC01ED91FC910284F385E02D41
:103BB0000994DC011C968D919C911D97DC01ED917F
:103BC000FC910084F185E02D09942F923F924F9251
:103BD0005F926F927F928F929F92AF92BF92CF929D
:103BE000DF92EF92FF920F931F93CF93DF93CDB7A6
:103BF000DEB760970FB6F894DEBF0FBECDBF2B01C6
:103C00003C0169014A3021F5CE0101961C01E12CED
:103C1000F12C5AE0852E912CA12CB12CC301B201BC
:103C2000A50194010E9426329FEFE91AF90A80E368
:103C3000840DEAE02E9F80191124F10181931F0168
:103C40002115310541055105C9F129013A01E6CF98
:103C5000FE01319680E090E0B301A2014F7055273C
:103C6000662777279C012F5F3F4F4A30510561053A
:103C7000710510F4A0E301C0A1E44A0F419344E0B0
:103C800076946794579447944A95D1F74114510418
:103C90006104710411F0C901DFCFE1E0F0E0EC0F45
:103CA000FD1FE20FF31F48E740837C01F3E0EF0EB6
:103CB000F11CFE01E80FF91F20E3238321E0E21A43
:103CC000F108F60180E090E0015011090196A1E0B1
:103CD000B0E0AC0FBD1FAE0DBF1D2C9121931E1483
:103CE0001F04ECF0F601E80FF91F108260960FB682
:103CF000F894DEBF0FBECDBFDF91CF911F910F9122
:103D0000FF90EF90DF90CF90BF90AF909F908F90FB
:103D10007F906F905F904F903F902F90089521E09B
:103D2000E21AF10880179107ECF6D0CFCF92DF921C
:103D3000EF92FF920F931F93FC0140E060E070E070
:103D4000CB010191002309F449C020ED200F2A3056
:103D5000B0F414E0660F771F881F991F1A95D1F7EA
:103D60006053710981099109C02EDD24C7FCD094EC
:103D7000ED2CFD2C6C0D7D1D8E1D9F1DE2CF2FE9BE
:103D8000200F263060F4B4E0660F771F881F991F5C
:103D9000BA95D1F767557109810991090FC02FEBC9
:103DA000200F2630A8F4A4E0660F771F881F991F04
:103DB000AA95D1F76753710981099109112707FD68
:103DC0001095212F312F600F711F821F931FB9CFC4
:103DD000083721F4411102C041E0B3CF1F910F9188
:103DE000FF90EF90DF90CF9008950F931F93FC0109
:103DF00060E070E0CB01019120ED200F2A30A0F4AB
:103E0000AAE0B0E09B01AC010E946D3260537109E1
:103E100081099109112707FD1095212F312F600F7E
:103E2000711F821F931FE7CF1F910F910895DC012F
:103E3000AE5ABF4F2D913C911197FC01EC5AFF4FA8
:103E4000408151812417350764F434970190F08143
:103E5000E02DA9014F5F5F4F4D935C93E20FF31F7D
:103E60006083FC01FF9680819181DC01ED91FC91E2
:103E70000190F081E02D0994CF96DC018D919C9109
:103E8000DC01ED91FC910284F385E02D0994DC01C5
:103E90001C968D919C911D97009739F0DC01ED9156
:103EA000FC910190F081E02D099480E090E008956C
:103EB0002091320621110BC0FC01FF968081918177
:103EC000DC01ED91FC910084F185E02D0994E091F5
:103ED0003306F0E0EB5CF94F8081992787FD9095E0
:103EE0000895DC01ED91FC910190F081E02D0994A1
:103EF0004F925F926F927F92AF92BF92CF92DF927A
:103F0000EF92FF920F931F93CF93DF93EC015B012E
:103F10006A010E94022B2B013C01E12CF12C8E0145
:103F2000015C1F4F0E94022B6419750986099709CD
:103F30006C157D058E059F0508F067C0D8018D9131
:103F40009C91DC01ED91FC910480F581E02D0995B7
:103F5000181619063CF7F80180819181DC01ED917A
:103F6000FC910680F781E02D0995F82EF5018083FC
:103F7000DE01AE5ABF4F2D913C911197FE01EC5AD4
:103F8000FF4F80819181281739075CF434970190A5
:103F9000F081E02DC90101968D939C93E20FF31FF0
:103FA000F0828C858823E1F160911F0670912006D4
:103FB000CB0101969093200680931F06CF5BDF4FC5
:103FC0004AE050E0CE010E94BA2F6DEA7EE0CE01B9
:103FD0000E94912E40E150E00F2D112707FD109512
:103FE000B801CE010E94BA2FC8010E949834892BD3
:103FF00041F060E2CE010E94C42E6F2DCE010E94DE
:10400000C42ECE010E94CB2E0BC08C85882351F08C
:1040100065E97EE0CE018F5B9F4F0E94CF2E02C0EC
:1040200081E001C080E0DF91CF911F910F91FF905F
:10403000EF90DF90CF90BF90AF907F906F905F90A8
:104040004F900895EF92FF920F931F93CF93DF93BA
:104050001F92CDB7DEB78C017B01A701BE016F5F58
:104060007F4FC8010E94781F8111F7CF0F90DF9119
:10407000CF911F910F91FF90EF900895DF92EF92F3
:10408000FF920F931F93CF93DF938C019091320691
:10409000992311F1442321F06F5F7F4F81E001C02C
:1040A00080E020913306820FFB01BF01382F321BC5
:1040B0003917B0F43491332309F443C0893010F434
:1040C000A82F01C0A0E031968F5FB0E0AB5CB94F84
:1040D0004C91431751F354C0411102C06F5F7F4FA1
:1040E000FB01D490EB0121967801F1E4EF0EF11C75
:1040F0006091340670E06B5C794F48EE53E0C80184
:104100000E94781F80913406E82FF0E0EB5CF94FB5
:104110002081909132068F5F2D111BC0883068F589
:10412000809334069F5F90933206993028F06FEDAC
:104130007EE0C7010E94CF2EFE01D4902196D110BF
:10414000D7CF10923206109233061092340681E0D7
:1041500018C0883018F48093340602C010923406D8
:104160009F5F90933206993058F06BEF7EE0C80164
:104170008F5B9F4F0E94CF2E03C010923406D2CF88
:1041800080E0DF91CF911F910F91FF90EF90DF9032
:104190000895CF93DF93EC01462F68ED7EE00E94F7
:1041A0003E20882319F01FAA81E001C080E0DF9142
:1041B000CF910895CF93DF93EC018091320688234D
:1041C00081F0E091330691E09E0F90933306F0E08A
:1041D000EB5CF94F208130E0983060F110923306AB
:1041E00029C0FE01FF9680819181DC01ED91FC9157
:1041F0000680F781E02D09959C018FA98823E9F0BD
:104200002A323105D1F460E0CE010E94C92081112B
:1042100016C0E091330681E08E0F80933306F0E004
:10422000EB5CF94F208130E0883010F010923306BB
:1042300080913206815080933206C90102C08FEF0F
:104240009FEFDF91CF910895CF93DF93EC01462F3D
:1042500061ED7EE00E943E20882319F081E08FAB63
:1042600001C080E0DF91CF910895CF92DF92EF926D
:10427000FF920F931F93CF93DF93EC018C01015CAE
:104280001F4FD8018D919C91DC01ED91FC91048030
:10429000F581E02D09957C01181619060CF043C034
:1042A0008C858823B9F06EEB7EE06E01B1E4CB0E15
:1042B000D11CC6010E94912EF80180819181DC0100
:1042C000ED91FC910084F185E02D0995682FC601E0
:1042D0000E94052FF80180819181DC01ED91FC9114
:1042E0000084F185E02D09958A97E9F48FA961E0B2
:1042F000882331F0CE010E94C920882321F01AC002
:10430000CE010E942421C0913206D0E0F8018081C4
:104310009181DC01ED91FC910480F581E02D0995FE
:104320008C0F9D1F09C080913206F701E80FF11D27
:10433000CF0102C08FEF9FEFDF91CF911F910F91BF
:10434000FF90EF90DF90CF900895CB0162E276E08E
:104350000E941C3521E0892B09F420E0822F08956A
:104360008F929F92AF92BF92CF92DF92EF92FF9285
:104370000F931F93CF93DF931F92CDB7DEB76C01DE
:104380007B015A016115710529F1FB0180818823A8
:1043900009F18B014B01FFEF8F1A9F0AA501BE01A6
:1043A0006F5F7F4FC6010E94781F8823A1F089812B
:1043B000F8019081891303C00F5F1F4F07C0F701F9
:1043C0009081891302C0840101C08701F8018081B6
:1043D0008111E4CF81E00F90DF91CF911F910F9178
:1043E000FF90EF90DF90CF90BF90AF909F908F9015
:1043F00008957F928F929F92AF92BF92CF92DF9259
:10440000EF92FF920F931F93CF93DF931F92CDB73D
:10441000DEB76C018B015A01FC018485882369F0A9
:104420006BE87EE07601F1E4EF0EF11CC7010E941B
:10443000912EB801C7010E94CF2EF8017490772009
:10444000C1F078014801FFEF8F1A9F0AA501BE0154
:104450006F5F7F4FC6010E94781F8823C9F02981B2
:10446000271109C08FEFE81AF80AF701749071104C
:10447000EDCF81E00DC0F8018491332727FD309501
:1044800090E02817390711F47401EFCF7801EDCFD0
:104490000F90DF91CF911F910F91FF90EF90DF90E0
:1044A000CF90BF90AF909F908F907F9008952F9264
:1044B0003F924F925F926F927F928F929F92AF92B4
:1044C000BF92CF92DF92EF92FF920F931F93CF9301
:1044D000DF9300D01F92CDB7DEB76C01562E672E4A
:1044E000742E59012DB73EB73B832A83242F30E029
:1044F000C901880F991F820F931FEDB7FEB7E81B04
:10450000F90B0FB6F894FEBF0FBEEDBF2DB73EB747
:104510002F5F3F4F1901062F172F4901412C7601BC
:1045200031E4E30EF11C471409F449C0F401108290
:10453000F80180819181F40192838183F601848561
:104540008823A9F06CE77EE0C7010E94912E4AE023
:1045500050E0642DC7010E94CF2F60E2C7010E9486
:10456000C42EF80160817181C7010E94CF2E43944F
:10457000F3E08F0E911C0E5F1F4FD5CF1196ED917A
:10458000FC9112976491961781F1F90100811181D4
:10459000F801649170E04617570731F112961C93A9
:1045A0000E9311971196ED91FC911297E491139649
:1045B0002E5F3F4FEE23F9F08F5F8711DFCFA5010C
:1045C000BE016F5F7F4FC6010E94781F811102C03C
:1045D0008FEF11C09981492F552747FD5095252D03
:1045E000362DD10180E0E9CFF80131961296FC9387
:1045F000EE931197D7CF2A813B810FB6F8943EBF37
:104600000FBE2DBF0F900F900F90DF91CF911F9194
:104610000F91FF90EF90DF90CF90BF90AF909F9061
:104620008F907F906F905F904F903F902F90089564
:10463000CF93DF93EC018D858823C9F061E57EE09F
:10464000CE010E94912E44EF51E06AE47EE0CE015B
:104650000E94F921882311F01D8609C069E37EE0DC
:10466000CE018F5B9F4F0E94CF2E80E001C081E082
:10467000DF91CF9108955F926F927F928F929F9278
:10468000AF92BF92CF92DF92EF92FF920F931F9360
:10469000CF93DF931F92CDB7DEB76C017B01390159
:1046A00000E010E04A0182E0881A91085A0181E096
:1046B000A81AB108A301BE016F5F7F4FC6010E9417
:1046C000781F882309F440C059808DE058122DC00E
:1046D000A301BE016F5F7F4FC6010E94781F8981D1
:1046E0008A3041F4E114F104B9F1F701E00FF11F50
:1046F000108232C0E114F104C1F00815190564F408
:10470000F8013196D701A00FB11F5C920E5F1F4FC9
:10471000EE0DFF1D808309C00A151B0534F4F70157
:10472000E00FF11F50820F5F1F4F0A151B0514F693
:10473000E114F10409F4BECFF701E00FF11F898104
:1047400080830F5F1F4FB6CFE114F10439F0F701FA
:10475000E00FF11F108203C0C80102C080E090E0AA
:104760000F90DF91CF911F910F91FF90EF90DF900D
:10477000CF90BF90AF909F908F907F906F905F9001
:104780000895CF92DF92EF92FF920F931F93CF93F2
:10479000DF931F92CDB7DEB78C0144EF51E0BE012D
:1047A0006F5F7F4FC8010E94781F8823A9F089811D
:1047B0008C3399F78093220653E2E52E56E0F52ECE
:1047C000DD24D39444EF51E0BE016F5F7F4FC801F9
:1047D0000E94781F811102C080E035C0CC24C394B0
:1047E000CD0C8981F70181937F018E3339F544EF38
:1047F00051E0BE016F5F7F4FC8010E94781F882380
:1048000059F38981803241F7AC2DB0E0AE5DB94FEC
:104810008C93D394D394ED2DF0E0EE5DF94F10829C
:1048200081E08093210628EE33E040E050E060E034
:1048300070E0C8010E943B2381E005C0FCE0CF1678
:1048400059F2DC2CBFCF0F90DF91CF911F910F91C8
:10485000FF90EF90DF90CF9008951F93CF93DF9359
:10486000EC01AB018091210681110EC0CE010E94A6
:10487000C123182F811110C06BE67EE0CE018F5B43
:104880009F4F0E94CF2E08C062E276E0CE01DF91FA
:10489000CF911F910C94B021812FDF91CF911F9167
:1048A0000895FF920F931F93CF93DF93EC018D85B3
:1048B00081116EC06AEF70E080E090E00E94312BC1
:1048C00067E67EE0CE010E94912E6AEF70E080E004
:1048D00090E00E94312B44EF51E061E67EE0CE0192
:1048E0000E94F921811115C0FE01FF9680819181FE
:1048F000DC01ED91FC910190F081E02D6DE00995D6
:1049000068EE73E0CE010E942D2481113AC015E0BB
:104910001EC080912106811134C065E0F62E8E0103
:10492000015C1F4FF80180819181DC01ED91FC91C8
:104930000190F081E02D6DE0099568EE73E0CE0105
:104940000E942D2481111DC0FA9461F7CDCF6AEF2A
:1049500070E080E090E00E94312B6DE57EE0CE01BA
:104960000E94912E6AEF70E080E090E00E94312B6F
:1049700044EF51E067E57EE0CE010E94F9218823F3
:1049800019F081E08D8705C0115009F780E001C062
:1049900081E0DF91CF911F910F91FF900895CF9308
:1049A000DF93EC018D85882339F08E859F850196F4
:1049B0009F878E8781E005C0CE010E94512481111E
:1049C000F4CFDF91CF910895FC01268537852150E2
:1049D000310937872687232B11F40C94182381E0A3
:1049E0000895CF92DF92EF92FF920F931F93CF9390
:1049F000DF93EC018B016A0179010E94CF248823A7
:104A000051F1000F111F000F111F0C5F1B4FF80118
:104A100060817181CE010E94912EF80162817381C3
:104A200044EF51E0CE010E94F921882389F028EE5D
:104A300033E0A701B601CE010E943B2368EE73E08C
:104A4000CE010E942D24CE010E94E424C60105C09F
:104A5000CE010E94E42483ED93E0DF91CF911F917A
:104A60000F91FF90EF90DF90CF900895EF92FF921B
:104A70000F931F93CF93DF93CDB7DEB760970FB639
:104A8000F894DEBF0FBECDBF8C010E94CF248111F0
:104A90000AC061E27EE0C8018F5B9F4F0E94CF2E6B
:104AA00080E090E06FC069E17EE0C8010E94912E35
:104AB00028EE33E040E150E0BE016F5F7F4FC80158
:104AC0000E943B237C01BE016F5F7F4FC8010E94A3
:104AD000A521882361F028EE33E040E150E0BE01DB
:104AE0006F5F7F4FC8010E943B237C0105C068EEC9
:104AF00073E0C8010E942D2425E0E216F1041CF4A5
:104B0000CE01019608C0C7010497E1E0F0E0EC0F88
:104B1000FD1F8E0F9F1F0E94961EF62EE72E862FDA
:104B20008F70F80181AFF4FA882780F982AFF5FA27
:104B3000882780F983AFF6FA882780F984AFF7FADF
:104B4000882780F985AF8E2D86958F7086AFC80136
:104B50000E94E424F80191AD8485913031F497AB43
:104B6000882371F063E07EE006C0F80117AA88236D
:104B700039F06AEE7DE0C8018F5B9F4F0E94CF2E17
:104B80008F2D9E2D60960FB6F894DEBF0FBECDBF61
:104B9000DF91CF911F910F91FF90EF900895CF93E8
:104BA000DF93D62FC72F9A01462F572F60E070E072
:104BB0000E94F124892B49F0ED2FFC2FDF01819118
:104BC000882329F08A33D1F702C0AD2FBC2F1C9265
:104BD0008D2F9C2FDF91CF9108959A01AB0163E057
:104BE00070E00C94F1249A01AB0164E070E00C9445
:104BF000F1241F93CF93DF93CDB7DEB72B970FB67A
:104C0000F894DEBF0FBECDBF142F2BE030E0AE0115
:104C10004F5F5F4F0E94F124892B51F0CE01019626
:104C20001A3019F40E94F51E06C00E94961E03C099
:104C300060E070E0CB012B960FB6F894DEBF0FBE9C
:104C4000CDBFDF91CF911F910895AF92BF92CF92C8
:104C5000DF92EF92FF920F931F93CF93DF931F92F8
:104C6000CDB7DEB78C017B016A0159010E94CF24C8
:104C70008823B9F168EC7DE0C8010E94912EB7014C
:104C8000C8010E94C22E6BED73E0C8010E94C22EC3
:104C900048E853E1B701C8010E94B0218823C9F058
:104CA00048EE53E0BE016F5F7F4FC8010E94781F3E
:104CB00028EE33E0A501B601C8010E943B2368EE4F
:104CC00073E0C8010E942D24C8010E94E42481E001
:104CD00009C068EE73E0C8010E942D24C8010E943B
:104CE000E42480E00F90DF91CF911F910F91FF900E
:104CF000EF90DF90CF90BF90AF900895CF93DF9368
:104D0000CDB7DEB760970FB6F894DEBF0FBECDBF4C
:104D100020E130E0AE014F5F5F4F6CE070E00E9439
:104D2000F124892BE1F143E050E064EC7DE0CE0119
:104D300001960E94BE34892B51F142E050E061ECB3
:104D40007DE0CE0101960E94BE34892B11F146E030
:104D500050E06AEB7DE0CE0101960E94BE34892BC3
:104D6000D1F045E050E064EB7DE0CE0101960E9479
:104D7000BE34892B91F046E050E06DEA7DE0CE0133
:104D800001960E94BE34892B51F484E009C080E072
:104D900007C081E005C082E003C083E001C08FEF5F
:104DA00060960FB6F894DEBF0FBECDBFDF91CF91F6
:104DB0000895CF92DF92EF92FF920F931F93CF93BC
:104DC000DF9300D000D0CDB7DEB77C018B016A0144
:104DD00087EA9DE09A83898381EA9DE09C838B83A7
:104DE00028EE33E042E0BE016F5F7F4FC7010E94B3
:104DF00057228130F1F0811114C028EE33E0A60172
:104E0000B801C7010E943B2381E4E80EF11C6BE965
:104E10007DE0C7010E94912EB801C7010E94F32EC8
:104E200006C0A60161E97DE0C8010E94CC3480E0A3
:104E300001C081E00F900F900F900F90DF91CF9104
:104E40001F910F91FF90EF90DF90CF900895AF9258
:104E5000BF92CF92DF92EF92FF920F93CF93DF93A7
:104E6000CDB7DEB762970FB6F894DEBF0FBECDBFE9
:104E70007C015A016901698B7A8B0E94CF24698970
:104E80007A89882309F463C0C7010E94912EC11456
:104E9000D10419F160E2C7010E94711F0023C1F023
:104EA00057018FE4A80EB11CF60164916623C1F18D
:104EB000D701ED91FC910190F081E02D603211F469
:104EC000D5016C91C7010995BFEFCB1ADB0AECCF76
:104ED000B601C7010E94912E23C0A114B10401F1B3
:104EE00060E2C7010E94711F0023B1F06701FFE477
:104EF000CF0ED11CF50161915F01662389F0D701C6
:104F0000ED91FC910190F081E02D603211F4D60119
:104F10006C91C7010995EECFB501C7010E94C22E61
:104F20006DE0C7010E94711F40E150E0BE016F5F5C
:104F30007F4FC7010E94D926082F68EE73E0C70192
:104F40000E942D24C7010E94E424802F01C080E02C
:104F500062960FB6F894DEBF0FBECDBFDF91CF9142
:104F60000F91FF90EF90DF90CF90BF90AF9008959A
:104F7000CF92DF92EF92FF920F931F93CF93DF9325
:104F8000CDB7DEB72B970FB6F894DEBF0FBECDBFFF
:104F90007C016B01CA01B901402F0BE010E09E01BA
:104FA0002F5F3F4F0E94E51D00E020E030E0AE01A2
:104FB0004F5F5F4FB601C7010E9427272B960FB6A0
:104FC000F894DEBF0FBECDBFDF91CF911F910F913F
:104FD000FF90EF90DF90CF9008951F93CF93DF93D2
:104FE000EC010E94CF248823D9F06BE87DE0CE014C
:104FF0000E94912E48EE53E063E87DE0CE010E94CE
:10500000F921882339F068EE73E0CE010E942D2447
:1050100011E001C010E0CE010E94E424812F01C004
:1050200080E0DF91CF911F9108950F93262F30E0FC
:1050300040E050E000E16FE57CE00E94B8270F916E
:1050400008950C9415280F93262F30E040E050E08F
:1050500000E162E57CE00E94B8270F9108950F936C
:1050600000E020E030E040E050E06EE97BE00E94AC
:1050700027270F9108950F93AB0101E020E030E066
:1050800060E97BE00E9427270F9108950F931F93FB
:10509000CF93DF93EC01AB01FB0181818F7D8835DC
:1050A00011F44E5F5F4F00E020E030E065E77BE009
:1050B000CE010E942727182FCE010E942F28812F72
:1050C000DF91CF911F910F9108950F931F93CF936D
:1050D000DF93EC01AB0101E020E030E065E67BE02E
:1050E0000E942727182FCE010E942F28812FDF91A1
:1050F000CF911F910F91089540E16BE170E00E9404
:10510000F925862F08950F93CF93DF93EC011CAA06
:105110001BAA1B8A00E020E030E040E050E064EC95
:105120007FE00E942727811107C06CEA7FE0CE0153
:105130008F5B9F4F0E94CF2E00E020E030E040E0E8
:1051400050E069E97FE0CE010E942727811107C066
:105150006CE77FE0CE018F5B9F4F0E94CF2E00E077
:1051600020E030E040E050E06AE67FE0CE010E94BF
:105170002727811107C060E57FE0CE018F5B9F4F3D
:105180000E94CF2ECE010E943625CE010E947E269F
:105190008B7F91E009F490E0988BCE010E947C28EF
:1051A000C15BDF4F8883DF91CF910F910895CF933B
:1051B000DF93EC010E94CF24882301F16BE77DE0AF
:1051C000CE010E94912E48EE53E062E77DE0CE01D1
:1051D0000E94F921811104C0CE010E94E4240EC076
:1051E00068E873E180E090E00E94312B1D861F8605
:1051F0001E86CE010E94832881E001C080E0DF91FD
:10520000CF9108950F931F93CF93DF93EC018C01FF
:105210000F5B1F4FF8015587448732977183608376
:105220000E945124811103C063E37FE00AC0CE01D4
:105230000E948328CE010E941823811107C067E1D4
:105240007FE0C8010E94CF2E80E001C081E0DF91A5
:10525000CF911F910F910895CF93DF93EC01E881D7
:10526000F9810480F581E02D09958FA9DF91CF9117
:1052700008950F931F93CF93DF93EC018FA9882399
:1052800091F168EE73E0CE010E942220CE010E94CF
:10529000CF2469EB79E0CE010E94912E48EE53E0D5
:1052A00062EB79E0CE010E94F9218E010F5B1F4F66
:1052B000882351F0CE010E94E42460EA79E0C8011D
:1052C0000E94CF2E1FAA0FC067E879E0C8010E9494
:1052D000CF2ECE010E943625CE010E94E4248FA954
:1052E00091E0892701C081E0DF91CF911F910F915B
:1052F0000895BF92CF92DF92EF92FF920F931F9388
:10530000CF93DF93CDB7DEB765970FB6F894DEBFC6
:105310000FBECDBF7C016B018A01B22EFC0180ADB6
:105320008111BFC0C7010E94CF24F70187A988233C
:1053300019F0C7010E943929B80180E090E004E12A
:1053400010E09E012F5F3F4F4AE00E94E51D87015C
:105350000F5B1F4F66EB7AE0C8010E94912EB601E9
:10536000C8010E94C22E60E2C8010E94C42EBE0184
:105370006F5F7F4FC8010E94F32E60EB7AE0C70198
:105380000E94912EB601C7010E94C22E62EE73E008
:10539000C7010E94C22EBE016F5F7F4FC7010E94EE
:1053A000C22E6EEA7AE0C7010E94912E68EE73E089
:1053B000C7010E942D2481110BC069E97AE0C80160
:1053C0000E94CF2E64E77AE0C8010E94CF2EFFCF63
:1053D000B11008C081E0F70180AF64C0F701848597
:1053E000811135C040E157E2BE016B5E7F4FC701BE
:1053F0000E94781F882309F44CC08D898A32C9F035
:10540000833461F7898328EE33E043E150E0BE0145
:105410006E5F7F4FC7010E943B236AE57AE0C801B7
:105420000E94912EBE016F5F7F4FC8010E94F32E34
:1054300035C048EE53E06EE67AE0C7010E94F921DC
:10544000882361F181E0F70187AB15862BC068E402
:105450007AE0C8010E94912E6D89772767FD7095CB
:1054600040E150E0C8010E94BA2F8D89992787FD3D
:1054700090950E949834892B41F060E2C8010E9407
:10548000C42E6D89C8010E94C42EC8010E94CB2E73
:10549000A9CF6EE37AE0C8010E94CF2EC7010E9417
:1054A000E42480E065960FB6F894DEBF0FBECDBF52
:1054B000DF91CF911F910F91FF90EF90DF90CF90F0
:1054C000BF900895FC011382128248EE53E060E021
:1054D00070E0448355836683778388EF93E09183FC
:1054E0008083158614860895CF93DF93EC011B8289
:1054F0001A8248EE53E060E070E04C835D836E8377
:105500007F8388EE93E099838883CE018F5B9F4FE2
:105510000E94622A1D861F861E861FAA18AE81E081
:10552000888B898B1C86FE01E05BFF4F1182108205
:10553000329611821082CC5ADF4F19821882DF9185
:10554000CF9108950F9300E020E040E060E08DE30C
:1055500096E00E94382E0F9108950F9300E020E00E
:1055600040E060E083E496E00E94382E0F910895B9
:105570001F920F920FB60F9211242F933F938F9388
:105580009F93AF93BF9380914A0690914B06A09151
:105590004C06B0914D063091490623E0230F2D377C
:1055A00020F40196A11DB11D05C026E8230F029627
:1055B000A11DB11D2093490680934A0690934B0686
:1055C000A0934C06B0934D0680914E0690914F06E5
:1055D000A0915006B09151060196A11DB11D809376
:1055E0004E0690934F06A0935006B0935106BF917C
:1055F000AF919F918F913F912F910F900FBE0F9080
:105600001F9018952FB7F89460914A0670914B0639
:1056100080914C0690914D062FBF08953FB7F894A6
:1056200080914E0690914F06A0915006B091510680
:1056300026B5A89B05C02F3F19F00196A11DB11DED
:105640003FBF6627782F892F9A2F620F711D811D0A
:10565000911D42E0660F771F881F991F4A95D1F769
:105660000895CF92DF92EF92FF92CF93DF936B0179
:105670007C010E940E2BEB01C114D104E104F10462
:1056800089F00E94FD310E940E2B6C1B7D0B683E41
:10569000734090F381E0C81AD108E108F108C851BD
:1056A000DC4FEACFDF91CF91FF90EF90DF90CF906A
:1056B0000895789484B5826084BD84B5816084BD8A
:1056C00085B5826085BD85B5816085BDEEE6F0E07B
:1056D000808181608083E1E8F0E0108280818260D7
:1056E0008083808181608083E0E8F0E08081816058
:1056F0008083E1EBF0E0808184608083E0EBF0E088
:10570000808181608083EAE7F0E08081846080832B
:1057100080818260808380818160808380818068D5
:1057200080831092C1000895833081F028F4813085
:1057300099F08230A1F008958730A9F08830B9F04F
:105740008430D1F4809180008F7D03C080918000EF
:105750008F7780938000089584B58F7702C084B5D9
:105760008F7D84BD08958091B0008F7703C08091B4
:10577000B0008F7D8093B0000895CF93DF9390E0C9
:10578000FC01E85DFE4E2491FC01E45CFE4E849138
:10579000882349F190E0880F991FFC01EC59FE4ED7
:1057A000A591B491865A9E4EFC01C591D4919FB7A4
:1057B000611108C0F8948C91209582238C93888184
:1057C00082230AC0623051F4F8948C91322F3095C4
:1057D00083238C938881822B888304C0F8948C91D6
:1057E000822B8C939FBFDF91CF9108950F931F93CE
:1057F000CF93DF931F92CDB7DEB7282F30E0F901AA
:10580000EC5EFE4E8491F901E85DFE4E1491F901C3
:10581000E45CFE4E04910023C9F0882321F06983E3
:105820000E94942B6981E02FF0E0EE0FFF1FE65AF3
:10583000FE4EA591B4919FB7F8948C91611103C06D
:105840001095812301C0812B8C939FBF0F90DF9116
:10585000CF911F910F910895FC01818D228D90E0D1
:10586000805C9F4F821B91098F7399270895FC01DB
:10587000918D828D981731F0828DE80FF11D858D05
:1058800090E008958FEF9FEF0895FC01918D828D38
:10589000981761F0828DDF01A80FB11D5D968C9184
:1058A000928D9F5F9F73928F90E008958FEF9FEF8F
:1058B0000895FC01848DDF01A80FB11DA35ABF4FCD
:1058C0002C91848D90E001968F739927848FA689FF
:1058D000B7892C93A089B1898C9180648C93938D26
:1058E000848D981306C00288F389E02D80818F7D16
:1058F00080830895CF93DF93EC01888D8823C9F0CE
:10590000EA89FB89808185FD05C0A889B9898C91C8
:1059100086FD0FC00FB607FCF5CF808185FFF2CF63
:10592000A889B9898C9185FFEDCFCE010E94592CB1
:10593000E7CFDF91CF910895CF92DF92FF920F933F
:105940001F93CF93DF931F92CDB7DEB76C0181E039
:10595000D60158968C9358975B969C915B975C9672
:105960008C915C97981307C05096ED91FC915197DC
:10597000808185FD2EC0F601038D10E00F5F1F4F63
:105980000F731127F02EF601848DF81211C00FB697
:1059900007FCF9CFD6015096ED91FC91519780818B
:1059A00085FFF1CFC60169830E94592C6981EBCF35
:1059B000838DE80FF11DE35AFF4F6083D6015B969C
:1059C0000C935B975296ED91FC9153978081806286
:1059D0000CC0D6015696ED91FC9157976083509676
:1059E000ED91FC91519780818064808381E090E00B
:1059F0000F90DF91CF911F910F91FF90DF90CF908B
:105A00000895BF92CF92DF92EF92FF92CF93DF93F0
:105A1000EC016A017B01B22EE889F98982E080837A
:105A2000411581EE580761057105A1F060E079E04C
:105A30008DE390E0A70196010E94263221503109A2
:105A4000410951095695479537952795211580E1CC
:105A5000380798F0E889F989108260E874E88EE1E7
:105A600090E0A70196010E94263221503109410998
:105A700051095695479537952795EC85FD853083D7
:105A8000EE85FF852083188EEC89FD89B082EA8936
:105A9000FB89808180618083EA89FB8980818860BD
:105AA0008083EA89FB89808180688083EA89FB8919
:105AB00080818F7D8083DF91CF91FF90EF90DF9089
:105AC000CF90BF9008951F920F920FB60F9211249E
:105AD0002F938F939F93EF93FF93E0916206F09142
