:100000000C94230A0C944B0A0C944B0A0C94221E59
:100010000C94221E0C94221E0C944B0A0C944B0A36
:100020000C944B0A0C944B0A0C944B0A0C944B0AFC
:100030000C944B0A0C944B0A0C944B0A0C944B0AEC
:100040000C94942C0C944B0A0C944D2F0C947F2FF1
:100050000C944B0A0C944B0A0C944B0A0C944B0ACC
:100060000C944B0A0C944B0A00010203040506078A
:1000700014200D11930A0E0F100B121308151617EA
:1000800018191A1B1C1D1E1F202122232425262778
:1000900028292A2B2C2D2E2F303132333435363768
:1000A00038393A3B3C3D3E3F40C1C2C3C4C5C6C7D8
:1000B000C8C9CACBCCCDCECFD0D1D2D3D4D5D6D748
:1000C000D8D9DA5B5C5D5E5FC04142434445464738
:1000D00048494A4B4C4D4E4F505152535455565728
:1000E00058595ADBDCDDDEDF808182838485868798
:1000F00088898A8B8C8D8E8F9091920C949596978F
:1001000098999A9B9C9D9E9FA0A1A2A3A4A5A6A7F7
:10011000A8A9AAABACADAEAFB0B1B2B3B4B5B6B7E7
:10012000B8B9BABBBCBDBEBF6061626364656667D7
:1001300068696A6B6C6D6E6F7071727374757677C7
:1001400078797A7B7C7D7E7FE0E1E2E3E4E5E6E7B7
:10015000E8E9EAEBECEDEEEFF0F1F2F3F4F5F6F7A7
:10016000F8F9FAFBFCFDFEFF000102030405060797
:1001700014090D11930A0E0F100B12130815161700
:1001800018191A1B1C1D1E1F202122232425262777
:1001900028292A2B2C2D2E2F303132333435363767
:1001A00038393A3B3C3D3E3F406162636465666777
:1001B00068696A6B6C6D6E6F707172737475767747
:1001C00078797A5B5C5D5E5FC0C1C2C3C4C5C6C7D7
:1001D000C8C9CACBCCCDCECFD0D1D2D3D4D5D6D727
:1001E000D8D9DADBDCDDDEDF808182838485868717
:1001F00088898A8B8C8D8E8F9091920C949596978E
:1002000098999A9B9C9D9E9FA0A1A2A3A4A5A6A7F6
:10021000A8A9AAABACADAEAFB0B1B2B3B4B5B6B7E6
:10022000B8B9BABBBCBDBEBF6041424344454647B6
:1002300048494A4B4C4D4E4F5051525354555657C6
:1002400058595A7B7C7D7E7FA0A1A2A3A4A5A6A716
:10025000A8A9AAABACADAEAFB0B1B2B3B4B5B6B7A6
:10026000B8B9BABBBCBDBEBF6572726F723A2072BC
:10027000656D6F7465206D6F64656D2069732069AD
:100280006E20636F6D6D616E64206D6F64652E000E
:10029000494E434F4D494E470A43414C4C00434F52
:1002A0004E4E454354494E4720544F2053595354C2
:1002B000454D2E0052494E47004552524F52004F75
:1002C0004B0053656E6420636F6D6D616E642061D9
:1002D0006761696E20746F20766572696679004E79
:1002E0004F2043415252494552004F4B00544F4416
:1002F0004F3A204E6F7420496D706C656D656E7459
:1003000065642100507265737320616E79206B659E
:100310007920746F2063616E63656C2E2E2E0052FF
:100320006561647920746F20436F6E6E656374201D
:10033000746F205175616E74756D4C696E6B2052CF
:10034000656C6F6164656400436F6E6E65637469AC
:100350006E6720746F20436F6D6D6F646F726553AD
:10036000657276657200456E746572696E672048C5
:100370006179657320456D756C6174696F6E204D90
:100380006F646500536176656400556E6B6E6F77C0
:100390006E206F7074696F6E2C20747279206167A3
:1003A00061696E0053656C6563743A2000342E20D9
:1003B00052657475726E20746F204D61696E204DA8
:1003C000656E7500332E205175616E74756D4C69C4
:1003D0006E6B2052656C6F6164656400322E204341
:1003E0006F6D6D6F646F7265536572766572003103
:1003F0002E20486179657320456D756C6174696F55
:100400006E204D6F646500302E20436C6561722054
:100410004175746F7374617274204F7074696F6E7C
:10042000730029004175746F7374617274204D6597
:100430006E75202843757272656E743A20002A2A00
:100440002A205465726D696E616C204D6F64652061
:1004500028446562756729202A2A2A00436F6E6E38
:10046000656374696F6E20636C6F73656400436FBE
:100470006E6E656374204661696C65642100293A7B
:1004800020000A506F7274202800293A20000A5474
:10049000656C6E657420686F7374202800496E6304
:1004A0006F6D696E6720436F6E6E656374696F6E02
:1004B0000057616974696E6720666F7220636F6EA2
:1004C0006E656374696F6E206F6E20706F7274203A
:1004D00000293A2000496E636F6D696E6720706F66
:1004E00072742028004669726D776172653A202027
:1004F00020200057692D466920535349443A202053
:1005000000495020416464726573733A2020004DA5
:10051000414320416464726573733A20002028448B
:10052000656C20746F207377697463682900457265
:10053000726F722053657474696E67205353494417
:100540000053534944205375636365737366756C38
:100550006C79206368616E67656400535349443A5F
:1005600000506173737068726173653A004B65790E
:100570003A00556E6B6E6F776E206F7074696F6E98
:100580002C2074727920616761696E0053656C6517
:1005900063743A2000332E2052657475726E207495
:1005A0006F20436F6E66696775726174696F6E2044
:1005B0004D656E7500322E20575041202F20575028
:1005C000413200312E20574550004368616E676507
:1005D000205353494400556E6B6E6F776E206F70D9
:1005E00074696F6E2C2074727920616761696E0086
:1005F00053656C6563743A2000352E20526574751E
:10060000726E20746F204D61696E204D656E7500AD
:10061000342E20446972656374205465726D696E6E
:10062000616C204D6F646520284465627567290000
:10063000332E204175746F7374617274204F70741F
:10064000696F6E7300322E204368616E67652053B8
:1006500053494400312E20446973706C6179204302
:10066000757272656E7420436F6E6669677572612C
:1006700074696F6E00436F6E666967757261746945
:100680006F6E204D656E7500556E6B6E6F776E20C8
:100690006F7074696F6E2C20747279206167616964
:1006A0006E0053656C6563743A2000342E20436FEE
:1006B0006E66696775726174696F6E00332E2048CB
:1006C0006179657320456D756C6174696F6E204D3D
:1006D0006F646500322E205761697420666F722046
:1006E000696E636F6D696E6720636F6E6E656374AC
:1006F000696F6E00312E2054656C6E657420746FC6
:1007000020686F7374206F7220424253005245413B
:1007100044592E00436F6D6D6F646F726520576989
:100720002D4669204D6F64656D0057692D4669201F
:100730004661696C6564210057692D4669204F4BFD
:10074000210057692D466920496E69742E2E2E00AE
:10075000050800FF0C4B00000000003E5B4F5B3EB5
:100760003E6B4F6B3E1C3E7C3E1C183C7E3C181C76
:10077000577D571C1C5E7F5E1C00183C1800FFE76D
:10078000C3E7FF0018241800FFE7DBE7FF30483A13
:10079000060E2629792926407F050507407F052575
:1007A0003F5A3CE73C5A7F3E1C1C08081C1C3E7FFD
:1007B00014227F22145F5F005F5F06097F017F00C4
:1007C0006689956A606060606094A2FFA2940804E4
:1007D0007E040810207E201008082A1C08081C2A05
:1007E00008081E101010100C1E0C1E0C30383E385D
:1007F00030060E3E0E06000000000000005F000004
:100800000007000700147F147F14242A7F2A122374
:100810001308646236495620500008070300001C84
:100820002241000041221C002A1C7F1C2A08083E8D
:1008300008080080703000080808080800006060A0
:100840000020100804023E5149453E00427F40000E
:1008500072494949462141494D331814127F1027E6
:10086000454545393C4A4949314121110907364935
:10087000494936464949291E000014000000403409
:10088000000000081422411414141414004122140E
:100890000802015909063E415D594E7C1211127C35
:1008A0007F494949363E414141227F4141413E7F96
:1008B000494949417F090909013E414151737F0876
:1008C00008087F00417F41002040413F017F08141C
:1008D00022417F404040407F021C027F7F0408107D
:1008E0007F3E4141413E7F090909063E4151215E5B
:1008F0007F09192946264949493203017F01033FEF
:100900004040403F1F2040201F3F4038403F63147D
:1009100008146303047804036159494D43007F417F
:1009200041410204081020004141417F04020102BC
:1009300004404040404000030708002054547840E1
:100940007F284444383844444428384444287F3875
:100950005454541800087E090218A4A49C787F08F7
:1009600004047800447D40002040403D007F102872
:10097000440000417F40007C047804787C08040433
:10098000783844444438FC1824241818242418FCCB
:100990007C08040408485454542404043F44243C70
:1009A0004040207C1C2040201C3C4030403C4428DF
:1009B0001028444C9090907C4464544C4400083679
:1009C00041000000770000004136080002010204E7
:1009D000023C2623263C1EA1A161123A4040207A07
:1009E0003854545559215555794121545478412151
:1009F0005554784020545579400C1E527212395586
:100A00005555593954545459395554545800004582
:100A10007C410002457D420001457C40F0292429AB
:100A2000F0F0282528F07C545545002054547C547F
:100A30007C0A097F493249494932324848483232B2
:100A40004A4848303A4141217A3A42402078009D54
:100A5000A0A07D39444444393D4040403D3C24FF02
:100A60002424487E4943662B2FFC2F2BFF0929F6AF
:100A700020C0887E090320545479410000447D4100
:100A80003048484A32384040227A007A0A0A727D59
:100A90000D19317D2629292F282629292926304874
:100AA0004D4020380808080808080808382F10C8E2
:100AB000ACBA2F102834FA00007B000008142A1466
:100AC0002222142A1408AA005500AAAA55AA55AA37
:100AD000000000FF00101010FF00141414FF00109D
:100AE00010FF00FF1010F010F0141414FC00141488
:100AF000F700FF0000FF00FF1414F404FC141417A7
:100B0000101F10101F101F1414141F00101010F0CD
:100B1000000000001F101010101F10101010F01017
:100B2000000000FF101010101010101010FF100027
:100B30000000FF140000FF00FF00001F101700005E
:100B4000FC04F414141710171414F404F40000FF38
:100B500000F714141414141414F700F714141417D1
:100B60001410101F101F141414F4141010F010F0AF
:100B700000001F101F0000001F14000000FC1400E4
:100B800000F010F01010FF10FF141414FF141010D8
:100B9000101F00000000F010FFFFFFFFFFF0F0F05B
:100BA000F0F0FFFFFF0000000000FFFF0F0F0F0F2E
:100BB0000F38444438447C2A2A3E147E020206063A
:100BC000027E027E0263554941633844443C04403E
:100BD0007E201E2006027E020299A5E7A5991C2A06
:100BE000492A1C4C7201724C304A4D4D30304878C5
:100BF0004830BC625A463D3E494949007E010101E8
:100C00007E2A2A2A2A2A44445F444440514A4440C6
:100C100040444A51400000FF0103E080FF0000080B
:100C2000086B6B083612362436060F090F060000D3
:100C300018180000001010003040FF0101001F01D3
:100C4000011E00191D1712003C3C3C3C0000000036
:100C500000636C6F73653A206661696C65642C2073
:100C60006E6F202A434C4F532A00636C6F73653AB2
:100C700020676F74202A434C4F532A002A434C4F5D
:100C8000532A00636C6F73650D005465726D696E55
:100C9000616C20726561647900556E65787065637A
:100CA00074656420726573703A20004661696C65F2
:100CB0006420746F20636F6E6E6563743A20004F1A
:100CC00050454E2A00656E61626C65486F737452C0
:100CD0006573746F72653A2073746F726564200077
:100CE000302E302E302E300073656E64746F3A20D3
:100CF0006661696C656420746F207374617274201E
:100D0000636F6D6D616E64003C74696D656F7574C1
:100D10003E00556E65787065637465642063686134
:100D2000723A20004661696C656420746F20636FBD
:100D30006E6E6563743A20004F50454E2A00576925
:100D4000466C792068617320637261736865642002
:100D5000616E642077696C6C207265626F6F742EAF
:100D60002E2E004661696C656420746F206765747F
:100D70002070726F6D7074000D006F70656E2000D2
:100D80006F70656E20003235352E3235352E302E9F
:100D900030003136392E3235342E312E3100363492
:100DA0002062797465730050696E672074727900EF
:100DB00070696E67200073657420752069006C652A
:100DC0006176650D0047573D000D006A6F696E2022
:100DD000004173736F636961746564210046414922
:100DE0004C454400736574206164686F63207072C1
:100DF0006F626500736574206164686F632062656B
:100E000061636F6E0073657420776C616E20747817
:100E10000073657420776C616E2072617465007375
:100E20006574206F7074207265706C616365007307
:100E3000657420776C616E207068726173650073F1
:100E4000657420776C616E206B6579007365742022
:100E5000776C616E206368616E0073657420776CD7
:100E6000616E20737369640073657420776C616EC2
:100E7000206869646520310073657420737973207C
:100E8000696F66756E630073657420636F6D6D20A6
:100E900073697A650073657420636F6D6D206D6191
:100EA0007463680073657420636F6D6D2074696D81
:100EB0006500302E302E302E300073657420627243
:100EC0006F61646361737420696E74657276616CBE
:100ED000007365742075617274206D6F64650073B2
:100EE00065742074696D6520656E61626C65007360
:100EF00065742074696D65207A6F6E650073657422
:100F00002074696D6520706F72740073657420744D
:100F1000696D652061646472657373007365742024
:100F2000697020666C616773007365742069702056
:100F300070726F746F636F6C0073657420697020DA
:100F4000646863700073657420646E732061646408
:100F500072657373007365742069702067617465CE
:100F600077617900736574206970206E65746D61B6
:100F7000736B00736574206970206E65746D6173A6
:100F80006B00536574486F73743A206661696C65D1
:100F90006420746F20737461727420636F6D6D616F
:100FA0006E64007365742069702072656D6F74657E
:100FB0000073657420697020686F737400736574C2
:100FC00020697020686F73740073657420697020E5
:100FD0006C6F63616C706F727400736574206970FC
:100FE0002061646472657373007365742069702096
:100FF000616464726573730073657420776C616EED
:10100000206A6F696E00736574206F2064007365D9
:1010100074206F20640053657420466163746F729E
:10102000792044656661756C747300666163746FE2
:10103000727920524553544F52450D002A52656231
:101040006F6F742A007265626F6F740D0053746F56
:1010500072696E6700736176650D003C74696D6539
:101060006F75743E004552523A2000414F4B0D0AB5
:10107000004552523A2000534552564552004341D2
:10108000434845004155544F4950004F4E004F468C
:1010900046006C6F6F6B7570200074696D650D0094
:1010A000736C6565700D00736574207379732077B8
:1010B000616B6500676574436F6E3A20544350203E
:1010C000646973636F6E6E656374656400676574ED
:1010D000436F6E3A2054435020636F6E6E656374A5
:1010E00065640073686F7720630D00676574436FF4
:1010F0006E3A206661696C656420746F2073746158
:101100007274004661696C656420746F206578694B
:10111000740A0D00455849540D0A00657869740D2C
:1011200000434D440D0A0024242400434D440D0A7D
:10113000002424240073657450726F6D70742066EF
:1011400061696C6564006D756C74694D6174636888
:101150005F503A20006D617463685F503A200072FE
:1011600065616454696D656F7574202D2074696DB7
:101170006564206F7574003A20003A20006465624F
:1011800075672064756D7000617661696C61626C71
:10119000653A207065656B203D20002A4F50454E12
:1011A0002A002A434C4F532A004552524F52207076
:1011B00065656B2E3220627566666572206F766596
:1011C000726C6F77004552524F52207065656B2EDE
:1011D0003120627566666572206F7665726C6F7716
:1011E000004661696C656420746F206578697420BD
:1011F000636F6D6D616E64206D6F6465004661693B
:101200006C656420746F20656E74657220636F6D09
:101210006D616E64206D6F6465004661696C656424
:1012200020746F2073657420636F6D6D2072656D1F
:101230006F74650073657420636F6D6D2072656DEA
:101240006F74652030004661696C656420746F209E
:101250007475726E206F6666207379732070726980
:101260006E740073657420737973207072696E7484
:101270006C766C2030004661696C656420746F2068
:101280007475726E206F6666206563686F007365A3
:10129000742075206D2031005265706C6163653D6E
:1012A000005478506F7765723D00526174653D005F
:1012B0004A6F696E3D005265626F6F743D005072F7
:1012C0006F62653D00426561636F6E3D00676574E6
:1012D000206164686F630D0050524F544F3D0046CB
:1012E0004C4147533D307800525353493D282D001F
:1012F00073686F7720727373690D00466C7573683D
:1013000053697A653D004D61746368436861723D5D
:1013100000466C75736854696D65723D006765744D
:1013200020636F6D6D0D004D6F64653D0052544339
:101330003D0073686F77207420740D0041646472FF
:101340006573733D0067657420646E730D005469A6
:101350006D653D00557054696D653D0073686F772C
:101360002074696D650D005A6F6E653D0067657488
:101370002074696D650D0042617564726174653D2C
:101380000067657420750D0044657669636549647E
:101390003D00676574206F70740D00535349443DE0
:1013A0000067657420776C616E0D004D61632041AC
:1013B0006464723D00676574206D61630D0044488C
:1013C00043503D00484F53543D0047573D004E4D5C
:1013D0003D0049503D006765742069700D000000B4
:1013E00000080002010000030407000000000000E4
:1013F00000000102040810204080010204081020AF
:101400000102040810200404040404040404020279
:10141000020202020303030303030000000023008F
:101420002600290000000000250028002B000000F5
:101430000000240027002A00270F241DB31F892C39
:10144000AF2F3830660F11241FBECFEFD8E0DEBFBC
:10145000CDBF14E0A0E0B1E0E6E8F4E702C00590FB
:101460000D92AA36B107D9F726E0AAE6B4E001C08A
:101470001D92A63CB207E1F714E1C4E4D4E104C034
:101480002297FE010E943B34C833D107C9F70E945E
:1014900048300C94363A0C940000EF92FF920F9370
:1014A0001F93CF93DF938C017B016BEB73E00E9462
:1014B0007832E701E991EE2351F0FF27E7FDF0953F
:1014C000E859FF4F6491C8010E942533F3CFC8014A
:1014D000DF91CF911F910F91FF90EF900895EF92C0
:1014E000FF920F931F93CF93DF938C017B016BEBE4
:1014F00073E00E947832E701E991EE2351F0FF2773
:10150000E7FDF095E859FE4F6491C8010E9425332C
:10151000F3CFC801DF91CF911F910F91FF90EF9012
:101520000895CF93DF93EC0160E089E995E00E9494
:101530006C1C40E060E089E995E00E946E1ABE01F3
:1015400089E995E00E94F73089E995E0DF91CF9134
:101550000C947B1CCF93DF9300D000D000D0CDB78C
:10156000DEB720911605222399F0FC01608171817C
:10157000CE0101960E944D0ABE016F5F7F4F83E747
:1015800095E00E94BA30CE0101960E940A3205C051
:10159000BC0183E795E00E94BA3026960FB6F89416
:1015A000DEBF0FBECDBFDF91CF910895CF93DF9304
:1015B00000D000D000D0CDB7DEB7BC01CE0101967F
:1015C0000E94C632CE0101960E94AA0ACE0101965F
:1015D0000E940A3283E795E00E94D13026960FB62A
:1015E000F894DEBF0FBECDBFDF91CF9108950F936A
:1015F0001F93CF93DF9300D000D000D0CDB7DEB7DC
:101600008C01BC01CE0101960E94C632CE0101962A
:101610000E94D60ACE0101960E940A324AE060E298
:10162000C8010E945733B801CE0101960E94C6320C
:10163000CE0101960E94910ACE0101960E940A32C3
:1016400026960FB6F894DEBF0FBECDBFDF91CF91C7
:101650001F910F91089583E795E00C94D130CF93BB
:10166000DF93CDB7DEB767970FB6F894DEBF0FBE36
:10167000CDBF80911605882369F087E1EDE8F2E09F
:10168000DE01119601900D928A95E1F7BE016F5F20
:101690007F4F02C064EA72E083E795E00E94C830A1
:1016A0006DE175E0CE0101960E94F032CE01019607
:1016B0000E94D60ACE0101960E940A3267960FB6A2
:1016C000F894DEBF0FBECDBFDF91CF910895809318
:1016D0001605482F60E070E088E995E00C94661AE2
:1016E000883031F091E0843109F090E0892F08953D
:1016F00081E00895BF92CF92DF92EF92FF920F9315
:101700001F93CF93DF93CDB7DEB7C457D1090FB680
:10171000F894DEBF0FBECDBFB82E44E150E0BE014D
:10172000655A7F4F8DE195E00E942E286E0187E477
:10173000C80ED11C44E150E0B6018DE195E00E9455
:10174000D8277E0193E3E90EF11C44E150E0B70194
:101750008DE195E00E9434280E942B0B6FE075E02C
:101760008E010F5F1F4FC8010E94F032C8010E9416
:10177000AA0AC8010E940A32BE01655A7F4FC801F9
:101780000E947832C8010E94D60AC8010E940A321B
:1017900061E075E0C8010E94F032C8010E94AA0A07
:1017A000C8010E940A32B601C8010E947832C801FD
:1017B0000E94D60AC8010E940A3263EF74E0C80191
:1017C0000E94F032C8010E94AA0AC8010E940A328F
:1017D000B701C8010E947832C8010E94D60AC80128
:1017E0000E940A3265EE74E0C8010E94F032C8011E
:1017F0000E94AA0AC8010E940A326FEA72E0C80178
:101800000E947832C8010E94D60AC8010E940A329A
:10181000BB2009F489C08FEA92E09F938F9384EBF9
:1018200092E09F938F931F930F930E944C37B801C0
:10183000CE0181599F4F0E947832CE0181599F4F2E
:101840000E94910ACE0181599F4F0E940A3268EE90
:1018500073E080E090E00E940D2D89E08F9380E698
:101860008F9381EC92E09F938F931F930F930E942D
:101870004C37B801CE0181599F4F0E947832CE017A
:1018800081599F4F0E94910ACE0181599F4F0E941A
:101890000A3268EE73E080E090E00E940D2DDF9246
:1018A000CF928FEC92E09F938F931F930F930E94A0
:1018B0004C37B801CE0181599F4F0E947832CE013A
:1018C00081599F4F0E94910ACE0181599F4F0E94DA
:1018D0000A3268EE73E080E090E00E940D2DFF92E6
:1018E000EF928EED92E09F938F931F930F930E9440
:1018F0004C37B801CE0181599F4F0E947832CE01FA
:1019000081599F4F0E94910ACE0181599F4F0E9499
:101910000A3268EE73E080E090E00E940D2D0FB671
:10192000F894DEBF0FBECDBFCC58DF4F0FB6F89492
:10193000DEBF0FBECDBFDF91CF911F910F91FF9002
:10194000EF90DF90CF90BF900895CF93DF93EC019D
:10195000E881F9810480F581E02DCE010995892B7C
:10196000B9F3E881F9810680F781E02DCE01DF919E
:10197000CF9109948F929F92AF92BF92CF92DF92B4
:10198000EF92FF92CF93DF93EC014B010E94DE2C8C
:101990006B017C01A12CB12CE881F9810480F581D7
:1019A000E02DCE010995892BC1F40E94DE2C6C1923
:1019B0007D098E099F0986169706A806B90660F765
:1019C0008FEF9FEFDF91CF91FF90EF90DF90CF905F
:1019D000BF90AF909F908F900895E881F981008427
:1019E000F185E02DCE01DF91CF91FF90EF90DF9058
:1019F000CF90BF90AF909F908F900994CF92DF923D
:101A0000EF92FF920F931F93CF93DF9300D000D0FC
:101A100000D0CDB7DEB782E0E82EF12C93E0C92EDE
:101A2000D12C0E942B0B64E274E0CE0101960E943F
:101A3000F032CE0101960E94AA0ACE0101960E94C0
:101A40000A3260911405709115054AE050E083E771
:101A500095E00E94D03162E274E0CE0101960E94CE
:101A6000F032CE0101960E94D60ACE0101960E9464
:101A70000A320E942B0B67E074E0CE0101960E94AF
:101A8000F032CE0101960E94D60ACE0101960E9444
:101A90000A326FEE73E0CE0101960E94F032CE0161
:101AA00001960E94D60ACE0101960E940A326CED80
:101AB00073E0CE0101960E94F032CE0101960E94A1
:101AC000D60ACE0101960E940A3264EC73E0CE0180
:101AD00001960E94F032CE0101960E94D60ACE01F4
:101AE00001960E940A326DEA73E0CE0101960E94CF
:101AF000F032CE0101960E94D60ACE0101960E94D4
:101B00000A320E942B0B64EA73E0CE0101960E9418
:101B1000F032CE0101960E94AA0ACE0101960E94DF
:101B20000A3283E795E00E94A50C8C01682F83E7B9
:101B300095E00E941B310032110509F472CF9CF42C
:101B40000A30110509F46DCF2CF408301105A9F500
:101B500080E030C00D30110509F463CF0431110568
:101B600061F581E027C002331105D1F06CF4003338
:101B7000110589F00133110501F581E090E09093A2
:101B80001505809314051CC00333110571F004334F
:101B9000110569F112C0109215051092140510C0BC
:101BA000F0921505E09214050BC0D0921505C09275
:101BB000140506C00E94670B34CF6AE873E00AC0C0
:101BC0004091140561E070E088E995E00E94661A92
:101BD00064E873E0CE0101960E94F032CE010196D6
:101BE0000E94D60ACE0101960E940A321ACF26968A
:101BF0000FB6F894DEBF0FBECDBFDF91CF911F911E
:101C00000F91FF90EF90DF90CF900895EF92FF92A9
:101C10000F931F93CF93DF9300D000D000D0CDB7A8
:101C2000DEB77C018B010E942B0B8091070188237A
:101C300031F0B801CE0101960E94F03205C0B70123
:101C4000CE0101960E947832CE0101960E94D60AFA
:101C5000CE0101960E940A3289E995E00E94D130B6
:101C6000B80189E995E00E94E53089E995E00E9494
:101C70007B1C26960FB6F894DEBF0FBECDBFDF915A
:101C8000CF911F910F91FF90EF9008956FEB72E04D
:101C90008AE593E00C94060E69EB72E087EE92E021
:101CA0000C94060E81E5ECE6F4E0DF011D928A95C6
:101CB000E9F7089590910F05913019F091E0982778
:101CC000892F90E00895CF93DF9300D000D000D00B
:101CD000CDB7DEB781E08093080110921305109212
:101CE00012058DE195E00E94202B64E670E080E013
:101CF00090E00E940D2D6FED72E0CE0101960E94E2
:101D0000F032CE0101960E94F70ACE0101960E94A0
:101D10000A3280E00E945A0E682F82E10E94D22D82
:101D200026960FB6F894DEBF0FBECDBFDF91CF91E0
:101D3000089580931105482F6AE070E088E995E0E6
:101D40000C94661ACF93C1E0C0930801109213055A
:101D50001092120581E00E94990EC0930701109223
:101D6000100510920E058BE28093060110920F056C
:101D7000CF9108950F931F93CF93DF93CDB7DEB725
:101D80006A970FB6F894DEBF0FBECDBF89E08F9380
:101D900080E68F9389EE92E09F938F938E010F5F81
:101DA0001F4F1F930F930E944C37B801CE014596E9
:101DB0000E947832CE0145960E94F70ACE014596E0
:101DC0000E940A3281E00E945A0E682F82E10E942E
:101DD000D22D81E080931305109208011092120514
:101DE0000F900F900F900F900F900F906A960FB674
:101DF000F894DEBF0FBECDBFDF91CF911F910F9141
:101E0000089580911205811102C00C94630E0C9408
:101E1000BA0E81E08093120580910E0581110C9419
:101E2000010F64EB72E08CE193E00E94060E81E00A
:101E30000E945A0E682F80E10E94D22D439A6AEFC9
:101E400070E080E090E00E940D2D439808950F937C
:101E500000E020E040E060E082E995E00E942C3064
:101E600020E046E065E083E795E00E94F51E8DE105
:101E700095E00E945B2C6BEB73E087E195E00E949C
:101E8000783260E070E088E995E00E94631A91E0A2
:101E9000811101C090E09093160561E070E088E93F
:101EA00095E00E94631A90E09093150580931405C5
:101EB0006AE070E088E995E00E94631A91E0811180
:101EC00001C090E0909311050F91089587E195E08E
:101ED0000E940A3283E795E00C949C1EDF92EF92F9
:101EE000FF920F931F93CF93DF93CDB7DEB7E297A7
:101EF0000FB6F894DEBF0FBECDBF7C0100E010E04E
:101F000083E795E00E94A50CD82EE1E0F0E0EC0F0D
:101F1000FD1FE00FF11F8083682F83E795E00E948B
:101F2000501D8D2D0E94700B882329F0011511057D
:101F300079F0025011098DE0D81669F001331105CE
:101F400051F00F5F1F4F0F3F8FEF1807C9F6D6CF25
:101F50008DE0D812F6CFE1E0F0E0EC0FFD1FE00FCE
:101F6000F11F1082BE016F5F7F4FC7010E94783260
:101F7000C701E2960FB6F894DEBF0FBECDBFDF916A
:101F8000CF911F910F91FF90EF90DF9008950F93E5
:101F90001F93CF93DF9300D000D000D0CDB7DEB732
:101FA0008C01CE0101960E946E0FCE0101960E9417
:101FB000653380911605882331F069817A81C801E3
:101FC0000E946F0A06C0BE016F5F7F4FC8010E946A
:101FD000C632CE0101960E940A32C80126960FB67B
:101FE000F894DEBF0FBECDBFDF91CF911F910F914F
:101FF00008950F931F93CF93DF93CDB7DEB72C9740
:102000000FB6F894DEBF0FBECDBF0E942B0B6AEC5B
:1020100075E0CE0101960E94F032CE0101960E9439
:10202000D60ACE0101960E940A320E942B0B63EC65
:1020300075E0CE0101960E94F032CE0101960E9419
:10204000D60ACE0101960E940A3265EB75E0CE01F8
:1020500001960E94F032CE0101960E94D60ACE016E
:1020600001960E940A3265E975E0CE0101960E9450
:10207000F032CE0101960E94D60ACE0101960E944E
:102080000A320E942B0B6CE875E0CE0101960E948B
:10209000F032CE0101960E94AA0ACE0101960E945A
:1020A0000A3283E795E00E94A50C8C01682F83E734
:1020B00095E00E941B3104311105F9F06CF40A30EF
:1020C000110509F4A2CF0D30110509F49ECF083097
:1020D0001105B9F480E012C001331105F9F02CF4B8
:1020E0000032110509F491CF0CC002331105C9F07B
:1020F0000333110509F4BEC004C081E00E94670BE0
:1021000084CF62E775E0CE0101960E94F032CE01E5
:1021100001960E94D60ACE010196A9C001E010E006
:1021200002C000E010E00E942B0B6BEB73E0CE01CD
:1021300007960E9478320130110521F56DE675E0B1
:10214000CE0101960E94F032CE0101960E94AA0AA9
:10215000CE0101960E940A32CE0101960E94C70F5D
:10216000BE016F5F7F4FCE0107960E94AF32CE0156
:1021700001960E940A326F8178858DE195E00E9478
:102180002D2A23C061E675E0CE0101960E94F0324F
:10219000CE0101960E94AA0ACE0101960E940A323F
:1021A000CE0101960E94C70FBE016F5F7F4FCE0127
:1021B00007960E94AF32CE0101960E940A326F81CB
:1021C00078858DE195E00E944C2A0E942B0B6BE5EF
:1021D00075E0CE0101960E94F032CE0101960E9478
:1021E000AA0ACE0101960E940A32CE0101960E94EF
:1021F000C70FBE016F5F7F4FCE0107960E94AF32BF
:10220000CE0101960E940A326F8178858DE195E0BA
:102210000E94222A81111BC061E475E0CE01019663
:102220000E94F032CE0101960E94D60ACE0101969C
:102230000E940A328DE195E00E94D5298DE195E05A
:102240000E94BE2ACE0107960E940A3213C06EE297
:1022500075E0CE0101960E94F032CE0101960E94F7
:10226000D60ACE0101960E940A32CE0107960E943C
:102270000A32CBCE2C960FB6F894DEBF0FBECDBF80
:10228000DF91CF911F910F9108951F93CF93DF930B
:10229000EC01162F6FEF8DE195E00E942021CD3FDC
:1022A000D10511F46DEF01C06BEF8DE195E00E9457
:1022B0002021612F8DE195E0DF91CF911F910C944A
:1022C00020211F93CF93DF93EC01162F6FEF8DE149
:1022D00095E00E942021CD3FD10511F46CEF01C0A3
:1022E0006EEF8DE195E00E942021612F8DE195E058
:1022F000DF91CF911F910C9420216FEF8DE195E03C
:102300000E9420216EEF8DE195E00E94202162E283
:102310008DE195E00E9420216FEF8DE195E00E9414
:1023200020216EEF8DE195E00E94202161E08DE19A
:1023300095E00C942021CF93DF9368E873E18DE161
:1023400095E00E94BA0C8F3F910591F50E947D1196
:1023500068EE73E08DE195E00E94BA0C8F3F910525
:1023600039F58DE195E00E94A50C8DE195E00E9484
:10237000A50CEC018F3F2FEF920751F38B5F910972
:10238000049730F78DE195E00E94A50C8F3F2FEF69
:102390009207F1F28330910531F463E070E0CE01F1
:1023A0000E944511D5CFBC01CE010E946111D0CF52
:1023B000DF91CF910895CF93DF9300D000D000D06C
:1023C000CDB7DEB78DE195E00E943E23019641F145
:1023D0008DE195E00E943E231816190654F48DE114
:1023E00095E00E94E322682F83E795E00E94501D4C
:1023F000EFCF83E795E00E94BC1D1816190654F430
:1024000083E795E00E942F1D682F8DE195E00E94E3
:102410002021EFCF8DE195E00E94132B8111D2CFC7
:102420008DE195E00E94202B6CE574E0CE010196D1
:102430000E94F032CE0101960E94F70ACE01019669
:102440000E940A3226960FB6F894DEBF0FBECDBFAB
:10245000DF91CF9108950F931F93CF93DF93CDB763
:10246000DEB72C970FB6F894DEBF0FBECDBF8DE15F
:1024700095E00E94F6278C010E942B0B65ED74E01D
:10248000CE0101960E94F032CE0101960E94AA0A66
:10249000CE0101960E940A324AE050E0B80183E77B
:1024A00095E00E94D03161ED74E0CE0101960E946A
:1024B000F032CE0101960E94AA0ACE0101960E9436
:1024C0000A32CE0107960E94C70F8B859C85892B07
:1024D00081F0CE0107960E94C4338DE195E00E9401
:1024E000FD298DE195E00E94D5298DE195E00E94BE
:1024F000BE2A8DE195E00E94F6278C010E942B0BED
:1025000061EB74E0CE0101960E94F032CE0101969B
:102510000E94AA0ACE0101960E940A324AE050E0C7
:10252000B80183E795E00E94D8318DE195E00E94E3
:10253000132B8823D1F36DE974E0CE0101960E943C
:10254000F032CE0101960E94D60ACE0101960E9479
:102550000A320E94DB11CE0107960E940A322C96A5
:102560000FB6F894DEBF0FBECDBFDF91CF911F91A4
:102570000F910895BF92CF92DF92EF92FF920F9347
:102580001F93CF93DF93CDB7DEB7E8970FB6F894DC
:10259000DEBF0FBECDBF7C016B01B42EFC0181817B
:1025A0008F9380818F9384EF92E09F938F938E011E
:1025B0000F5F1F4F1F930F930E944C37B801CE013E
:1025C000C3960E947832CE01C3960E94F70ACE01CC
:1025D000C3960E940A3262E08DE195E00E94142ABF
:1025E000F7016081718121E0A6018DE195E00E94F3
:1025F000602B0F900F900F900F900F900F908823EB
:1026000029F1F70181818F9380818F9386E093E098
:102610009F938F931F930F930E944C37B801CE0165
:10262000C3960E947832CE01C3960E94F70ACE016B
:10263000C3960E940A320F900F900F900F900F9048
:102640000F90B11012C00E949B110FC06EE674E093
:10265000CE01C3960E94F032CE01C3960E94F70AC3
:10266000CE01C3960E940A3202C00E94DB11E89696
:102670000FB6F894DEBF0FBECDBFDF91CF911F9193
:102680000F91FF90EF90DF90CF90BF9008950F9340
:102690001F93CF93DF93CDB7DEB762970FB6F89451
:1026A000DEBF0FBECDBF6EE874E0CE0101960E9482
:1026B000F032CE0101960E94AA0ACE0101960E9434
:1026C0000A3267E175E0CE0101960E94C632CE0162
:1026D00001960E94AA0ACE0101960E940A326AE877
:1026E00074E0CE0101960E94F032CE0101960E9464
:1026F000AA0ACE0101960E940A32CE010D960E94CE
:10270000C70F89899A89892B09F457C062E874E058
:10271000CE0101960E94F032CE0101960E94AA0AD3
:10272000CE0101960E940A326091090170910A015E
:102730004AE050E083E795E00E94D0316EE774E014
:10274000CE0101960E94F032CE0101960E94AA0AA3
:10275000CE0101960E940A32CE0107960E94C70F51
:102760008B859C85892B31F0CE0107960E94C4335E
:102770008B0104C00091090110910A01BE01635F41
:102780007F4F87E195E00E94AF3210930A010093DA
:102790000901BE01635F7F4FCE0101960E94C632E0
:1027A00040E0B801CE0101960E94BA12CE01019616
:1027B0000E940A32CE01079618C080911B059091A5
:1027C0001C05892BA1F00091090110910A0167E114
:1027D00075E0CE0101960E94C63240E0B801CE01FC
:1027E00001960E94BA12CE0101960E940A32CE01D1
:1027F0000D960E940A3262960FB6F894DEBF0FBEA5
:10280000CDBFDF91CF911F910F910895EF92FF926D
:102810000F931F93CF93DF93CDB7DEB72C970FB6EF
:10282000F894DEBF0FBECDBF8C01BC01CE01079670
:102830000E947832F8018081811103C00E944C0E01
:102840003AC06AE370E0C8010E94DD360097C1F02B
:10285000FC0111927F01B801CE0101960E947832ED
:10286000BE016F5F7F4FCE0107960E94AF32CE014F
:1028700001960E940A32C7010E944A368C0102C0AA
:1028800007E110E066E173E0CE0107960E9438335D
:10289000811111C0BE01695F7F4FCE0101960E9478
:1028A000C63240E0B801CE0101960E94BA12CE01B4
:1028B00001960E940A32CE0107960E940A322C9697
:1028C0000FB6F894DEBF0FBECDBFDF91CF911F9141
:1028D0000F91FF90EF900895EF92FF920F931F9347
:1028E000CF93DF93CDB7DEB7C456D1090FB6F894B6
:1028F000DEBF0FBECDBF80916C04813439F480916E
:102900006D04843509F060C181E009C0813609F0A9
:102910005BC180916D04843709F056C180E09091CD
:10292000160589130E94670B6CE674E08DEB94E04A
:102930000E94F1360CE614E07801F70101900020C6
:10294000E9F73197EC56F440C8018C5694408E1745
:102950009F0758F4F8018081992787FD90950E9480
:102960009F36F80181938F01E8CF6CE674E08E0109
:102970000F5F1F4FC8010E947832C8010E94910A60
:10298000C8010E940A326EE173E08CE694E00E9476
:10299000E836892B19F40E94A20E12C162E273E09C
:1029A0008CE694E00E94E836892B21F480E00E94B6
:1029B0007A0B06C166E273E08CE694E00E94E8368A
:1029C000892BA1F466E273E08DEB94E00E94E83677
:1029D000892B09F362EC72E0C8010E94F032C80151
:1029E0000E94D60AC8010E940A32ECC06BE273E072
:1029F0008CE694E00E94E836892B19F40E94010FBE
:102A0000E1C06FE273E08CE694E00E94E836892B27
:102A100041F063E373E08CE694E00E94E836892B92
:102A200039F580911305882301F110920801CAC07D
:102A30006DE473E08CE694E00E94E836892B09F49B
:102A400054C062E573E08CE694E00E94E836892B7E
:102A500009F44BC042E050E066E573E08CE694E098
:102A60000E94F836892B09F443C00E944C0EAAC07C
:102A700045E050E067E373E08CE694E00E94F836AE
:102A8000892BA1F045E050E06DE373E08CE694E023
:102A90000E94F836892B51F044E050E063E473E083
:102AA0008CE694E00E94F836892B41F460E270E0F5
:102AB0008CE694E00E94DD36019612C044E050E0BE
:102AC00068E473E08CE694E00E94F836892B09F004
:102AD000AFCF68E473E08CE694E00E94153704966B
:102AE0000E9406140E94520E6DC00E94630E6AC0BE
:102AF00069E573E08CE694E00E941537892B19F0A4
:102B000080E00E94990E6CE573E08CE694E00E94F0
:102B10001537892B19F081E0809311056FE573E07B
:102B20008CE694E00E941537892B21F01092070162
:102B30001092100562E673E08CE694E00E9415376F
:102B4000892B19F081E08093100565E673E08CE62F
:102B500094E00E941537892B11F01092070168E666
:102B600073E08CE694E00E941537892B19F081E020
:102B7000809307016BE673E08CE694E00E941537C2
:102B80000097F1F0BC016D5F7F4FFB01AF01481B67
:102B9000590B219120532A30C8F384E6F801119291
:102BA0008A95E9F743505109C8010E940637C801C8
:102BB0000E944A3621E0892B09F420E020930E057B
:102BC0000E94460E0E94520ECC59DF4F0FB6F89469
:102BD000DEBF0FBECDBFDF91CF911F910F91FF9050
:102BE000EF900895CF93DF93CDB7DEB7E8970FB698
:102BF000F894DEBF0FBECDBF6EE374E08E010F5FB1
:102C00001F4FC8010E94F032C8010E94D60AC801B5
:102C10000E940A32412C512C3201C12CD12C760158
:102C2000912C2FE6A22E23E0B22E8DE195E00E949A
:102C30003E23181619068CF48FEFC81AD80AE80A32
:102C4000F80A8DE195E00E94E322682F83E795E082
:102C50000E94501D99249394E8CF83E795E00E9449
:102C6000BC1D181619068CF49FEF491A590A690AF7
:102C7000790A83E795E00E942F1D682F8DE195E08A
:102C80000E94202199249394E8CF992071F27F9299
:102C90006F925F924F92FF92EF92DF92CF92BF922C
:102CA000AF921F930F930E944C37B801CE01C39689
:102CB0000E947832CE01C3960E94910ACE01C3963B
:102CC0000E940A320FB6F894DEBF0FBECDBFADCF63
:102CD0000F931F93CF93DF9300D000D000D0CDB7D8
:102CE000DEB70E942B0B65E776E0CE0101960E94CD
:102CF000F032CE0101960E94D60ACE0101960E94C2
:102D00000A320E942B0B64E576E0CE0101960E9408
:102D1000F032CE0101960E94D60ACE0101960E94A1
:102D20000A3265E476E0CE0101960E94F032CE01CF
:102D300001960E94D60ACE0101960E940A3260E3F3
:102D400076E0CE0101960E94F032CE0101960E94FB
:102D5000D60ACE0101960E940A3260E176E0CE01E9
:102D600001960E94F032CE0101960E94D60ACE0151
:102D700001960E940A3269EF75E0CE0101960E9429
:102D8000F032CE0101960E94D60ACE0101960E9431
:102D90000A320E942B0B60EF75E0CE0101960E9473
:102DA000F032CE0101960E94AA0ACE0101960E943D
:102DB0000A3283E795E00E94A50C8C01682F83E717
:102DC00095E00E941B310032110509F48ACF9CF472
:102DD0000A30110509F485CF2CF40830110559F596
:102DE00080E026C00D30110509F47BCF04311105B8
:102DF00011F581E01DC003331105A9F04CF4013336
:102E0000110569F002331105B1F40E94F90F69CF81
:102E10000433110559F005331105E1F00CC080E0D1
:102E20000E947A0B5ECF0E94FE0C5BCF0E94F215CF
:102E30000E94670B56CF66ED75E0CE0101960E94A9
:102E4000F032CE0101960E94D60ACE0101960E9470
:102E50000A3247CF26960FB6F894DEBF0FBECDBF1D
:102E6000DF91CF911F910F910895EF92FF920F93F1
:102E70001F93CF93DF931F92CDB7DEB701E03CE6FF
:102E8000E32E34E0F32E83E795E00E94BC1D892BEE
:102E900009F497C080910801882309F45FC083E793
:102EA00095E00E942F1D182F80911105882329F08D
:102EB000612F83E795E00E94501D812F0E94700BC7
:102EC000882359F080916C048823E9F2F70101907E
:102ED0000020E9F732971082D6CF1D3029F11A3041
:102EE00019F1809106011817F9F0F70101900020FF
:102EF000E9F73197108380916C04992787FD9095AD
:102F00000E949F368134910509F0BDCF80916D04F8
:102F10008F3209F0B8CF6DEB74E08CE694E00E943C
:102F2000F1360E946C1417C080916C04992787FDBC
:102F300090950E949F368134910569F480916D04CB
:102F4000992787FD90950E949F368435910519F445
:102F50000E946C1498CF0E94520E95CF8091130559
:102F6000882309F490CF83E795E00E942F1D90916C
:102F7000060198130BC020916A0430916B042F5FF7
:102F80003F4F30936B0420936A0404C010926B048B
:102F900010926A0420916A0430916B042330310549
:102FA00051F410926B0410926A0400930801898313
:102FB0000E94460E8981682F8DE195E00E942021B4
:102FC00062CF0F90DF91CF911F910F91FF90EF9003
:102FD0000895CF93DF9300D000D000D0CDB7DEB7F7
:102FE00080911305811121C08091120581111DC0AE
:102FF0008DE195E00E94132B8823B9F06EE972E011
:103000008DE195E00E94E53060E972E0CE01019625
:103010000E94F032CE0101960E94910ACE010196E3
:103020000E940A320E94090F46C08091120588232F
:1030300031F08DE195E00E94132B882351F08091AF
:103040001305882349F08DE195E00E94132B81112F
:1030500003C00E94630E2FC0809113058823B9F02E
:103060008DE195E00E94132B882389F0809108015F
:10307000882381F08DE195E00E943E231816190601
:103080004CF468E672E08DE195E00E94E5300E9424
:10309000351711C08DE195E00E943E2318161906E0
:1030A000B4F78DE195E00E94E322682F83E795E075
:1030B0000E94501DEFCF26960FB6F894DEBF0FBECC
:1030C000CDBFDF91CF910895CF93DF9300D000D093
:1030D00000D0CDB7DEB787B18B7D896187B988B164
:1030E000877F816088B980E00E945A0E682F82E154
:1030F0000E94D22D10926B0410926A040E94A20EBC
:103100000E94520E0E942B0B6AEE72E0CE010196D5
:103110000E94F032CE0101960E94F70ACE0101967C
:103120000E940A320E94E917FDCF0F931F93CF939D
:10313000DF9300D000D000D0CDB7DEB76DE077E0F0
:10314000CE0101960E94F032CE0101960E94910AB2
:10315000CE0101960E940A320E942B0B0E942F0B77
:103160000E942B0B64EF76E0CE0101960E94F032B4
:10317000CE0101960E94D60ACE0101960E940A3223
:1031800064ED76E0CE0101960E94F032CE01019608
:103190000E94D60ACE0101960E940A326CEB76E0BC
:1031A000CE0101960E94F032CE0101960E94D60A0D
:1031B000CE0101960E940A326BEA76E0CE010196BA
:1031C0000E94F032CE0101960E94D60ACE010196ED
:1031D0000E940A320E942B0B62EA76E0CE01019631
:1031E0000E94F032CE0101960E94AA0ACE010196F9
:1031F0000E940A3283E795E00E94A50C8C01682F9B
:1032000083E795E00E941B3100321105D9F18CF45F
:103210000A301105B9F12CF40830110529F580E0C8
:1032200020C00D30110571F104311105E9F481E080
:1032300018C00233110581F034F401331105A1F4F3
:103240000E9447131FC00333110549F004331105D1
:1032500059F40E94681616C00E942B1213C00E94D7
:1032600064180E94670B0EC068E876E0CE010196F4
:103270000E94F032CE0101960E94D60ACE0101963C
:103280000E940A3226960FB6F894DEBF0FBECDBF5D
:10329000DF91CF911F910F910895CF93DF9300D0CD
:1032A00000D000D0CDB7DEB7809114059091150500
:1032B0008130910569F024F4892B09F475C034C07C
:1032C0008230910541F0039779F56FE173E005C015
:1032D00066E673E002C068E473E0CE0101960E94E6
:1032E000F032CE0101960E94D60ACE0101960E94CC
:1032F0000A3264E073E0CE0101960E94F032CE0102
:1033000001960E94D60ACE0101960E940A3268E810
:1033100073E183E795E00E94BA0C019689F083E798
:1033200095E00E94A50C40C040E061E070E088E9B3
:1033300095E00E94661A109215051092140534C08B
:1033400080911405909115058230910539F08330F4
:103350009105E1F0019741F50E94641862E873E07D
:10336000CE0101960E94783241E065E076E0CE0120
:1033700001960E94BA12CE0101960E940A3268EEAE
:1033800073E080E090E00E940D2DE8CF6DEE72E0DA
:10339000CE0101960E94F032CE0101960E94D60A1B
:1033A000CE0101960E940A3226960FB6F894DEBF2F
:1033B0000FBECDBFDF91CF910895CF93DF9300D0A3
:1033C00000D000D0CDB7DEB789E995E00E94BC1CE3
:1033D00060E089E995E00E94B21A61E089E995E030
:1033E0000E946C1C40E659E060E070E083E795E0E5
:1033F0000E94251F26E040E659E060E070E08FE182
:1034000096E00E94EB2E48EE53E060E070E083E728
:1034100095E00E94043262E477E0CE0101960E94BA
:10342000F032CE0101960E94F70ACE0101960E9469
:103430000A3243E755E06FE176E08DE195E00E94C6
:10344000E92A882381F168E377E0CE0101960E94A2
:10345000F032CE0101960E94F70ACE0101960E9439
:103460000A328DE195E00E94202B0E944D190E94A6
:103470002B0B64E177E0CE0101960E94F032CE0181
:1034800001960E94D60ACE0101960E940A3281E07E
:103490000E947A0B26960FB6F894DEBF0FBECDBF02
:1034A000DF91CF9108956AE277E0CE0101960E9404
:1034B000F032CE0101960E94F70ACE0101960E94D9
:1034C0000A320E94F215CB010C944039CB01642FD3
:1034D0000C9448390DB407FEFDCF0895FC016387B5
:1034E000448708950F936034D8F54033C8F5013010
:1034F000C9F42130A9F5E42FE695E695E69580E438
:10350000E89FF0011124E60FF11DE55FFE4F4770C3
:1035100081E090E0042E01C0880F0A94EAF79081C0
:1035200098271DC0842F869586958695E62FF0E016
:10353000477090E4899FE00DF11D1124E55FFE4F77
:1035400081E090E0042E01C0880F0A94EAF7213050
:1035500019F49081982B03C08095908198239083D3
:103560000F910895DC0161112EC018961C921897D6
:1035700080918B0290918C02FC01249116962C93E1
:1035800016973196E4911796EC931797FC013296B3
:10359000E4911996EC931997FC013396E4911A96ED
:1035A000EC931A97FC01349624913196849190E023
:1035B000F4E62F9F800D911D11241E969C938E93EF
:1035C0001D9781E0089580E008955F926F927F9249
:1035D0008F929F92AF92BF92CF92DF92EF92FF9223
:1035E0000F931F93CF93DF93EC01162FB42EF02E81
:1035F0003985231708F4B0C0822F90E06A8570E007
:10360000630F711D681779070CF4A6C0D22ED31A68
:103610009F8096949694969481E08915C0F1C12E6E
:103620003C2D311B2E81822F90E0A32FB0E08A1712
:103630009B070CF491C0321791F0E885F0E0EE0F93
:10364000FF1FE557FD4FD29EA00DB11D1124169608
:103650000190F081E02DEA0FFB1F949001C0912CA6
:10366000A12C4A2D4B0D90FE03C00E2D2F2D04C012
:1036700021E0F11020E00E2D6C2DCE010E94721A77
:103680009694A39488E0A812ECCFC394C9CFED859B
:10369000FE852E8130E0CF01B9010E94D0338D2DFF
:1036A00090E00E94D033829F6001839FD00C929F54
:1036B000D00C11249E9E90019F9E300D1124269FB8
:1036C000C001279F900D369F900D1124C80ED91E62
:1036D000742EA12CB12C86E0C80ED11C812E482D51
:1036E000411B8E81481780F5E885F0E0EE0FFF1F43
:1036F000E557FD4F2D853E85A29EC001A39E900DEE
:10370000B29E900D11248C0D9D1D840F911D019072
:10371000F081E02DE80FF91F5490612C462D470DE4
:1037200050FE03C00E2D2F2D04C021E0F11020E02B
:103730000E2D682DCE010E94721A5694639488E073
:103740006812ECCF8394CBCF8FEFA81AB80A88E029
:10375000780EA91408F4C2CFDF91CF911F910F9179
:10376000FF90EF90DF90CF90BF90AF909F908F90A1
:103770007F906F905F900895EF920F93CF93DF93B8
:10378000EC01262F6A30A9F06D30C1F0ED800C817C
:103790004C856B850E94E51A4E812B85240F2F5F87
:1037A0002B8730E080E490E0841B91098217930717
:1037B0002CF48C859F81890F8C871B8681E090E09B
:1037C000DF91CF910F91EF9008952A9A229828982F
:1037D000209A60E08DE00E94D22D60E08BE00E9494
:1037E000D22D61E08DE00E94992D61E08BE00E9476
:1037F000992D8CB580618CBD08958CB580648CBD8D
:103800002A98229A08950DB407FEFDCF2898209A91
:103810002A9A22988CB58F7B8CBD0895CF93DF9325
:1038200000D0CDB7DEB74A8369830E94FD1B698152
:103830006EBD0E946A1A4A814EBD0F900F90DF91B3
:10384000CF910C94031CCF93DF9300D01F92CDB780
:10385000DEB72B834A8369830E94FD1B69816EBD9D
:103860000E946A1A4A814EBD0E946A1A2B812EBD9F
:103870000F900F900F90DF91CF910C94031C0F933A
:103880001F93CF93DF93EC0140E060E20E940E1C97
:103890002FE740E061E2CE010E94231C27E040E0D8
:1038A00062E2CE010E94231C0E94FD1B289A2098F0
:1038B0001EBC0FEF13E00E946A1A1EBC01501109D2
:1038C000D1F70E94031C42E060E2CE01DF91CF916C
:1038D0001F910F910C940E1C613011F40C943F1C3D
:1038E00080E891E0EBE0F1E0DF019C011D922150C6
:1038F0003040E1F708950F931F93CF93DF93EC01CE
:1039000040E060E20E940E1C2FE540E261E2CE0141
:103910000E94231C25E040E062E2CE010E94231CAD
:103920000E94FD1B289A209880910B018EBD0CE00F
:1039300011E00E946A1AF80181918F018EBDF2E0B8
:103940000B381F07B1F70E94031C42E060E2CE0172
:10395000DF91CF911F910F910C940E1C2CB5982FD5
:1039600093702C7F922B9CBD9DB582FB882780F99C
:103970009E7F982B9DBD0895CF93DF93EC0160E06F
:103980000E94B21A81E08C831D821B861C865F9880
:10399000579A61E084E00E94992D61E084E00E94E2
:1039A000D22D6AE070E080E090E00E940D2D5F9AD9
:1039B000579865E070E080E090E00E940D2D5F98E0
:1039C000579A84E00E94AE1C0E94E51B65E070E0FF
:1039D00080E090E00E940D2D5F9A57986AE070E0B9
:1039E00080E090E00E940D2D4FE268EACE010E9437
:1039F0000E1C44E16DE8CE010E940E1C0E94FD1BCE
:103A000081EA8EBD0E94031C0E94FD1B88EC8EBDC6
:103A10000E94031C4FE861E8CE010E940E1C41EF9A
:103A200069EDCE010E940E1C40E46BEDCE010E94B8
:103A30000E1C0E94FD1B8FEA8EBD0E94031CCE014E
:103A4000DF91CF910C943F1C10929C0510929B0526
:103A50008EE993E090939A058093990508952091BB
:103A6000EA053091EB0528173907B9F49091A805BC
:103A70008091A905981789F0E091A805F0E0E65536
:103A8000FA4F80812091A80530E02F5F3F4F2F73C0
:103A900033272093A80590E008958FEF9FEF0895B6
:103AA0001F93CF93DF93DC015C968D919C915D9782
:103AB000009749F481E090E013969C938E931297BF
:103AC00080E090E03BC05196ED91FC91529750966A
:103AD0002C915097322F30951FB75E964C915E9780
:103AE00041FB772770F941FD6095F8944081772379
:103AF00011F0422B01C043234083EC012197F1F7E1
:103B000048E0508160FF02C0522B01C05323508314
:103B1000EC012197F1F76695415099F78081772361
:103B200011F0832301C0822B80831FBF5C968D918F
:103B30009C915D970197F1F781E090E0DF91CF9143
:103B40001F9108952091EA053091EB052817390758
:103B500081F49091A8058091A905981751F0E09102
:103B6000A805F0E0E655FA4F8081992787FD9095EA
:103B700008958FEF9FEF08952091EA053091EB05AE
:103B80002817390771F48091A9052091A80590E0C4
:103B9000805C9F4F821B910960E470E00E94E433D7
:103BA000089580E090E008952091EA053091EB05BA
:103BB0002817390739F48FB7F8941092A905109295
:103BC000A8058FBF0895E091EA05F091EB05E8178D
:103BD000F90769F4A389B4899C9185898095892323
:103BE0008C931092EB051092EA0581E0089580E035
:103BF0000895CF93DF93EC018A8D9B8D892BF1F093
:103C00008091EA059091EB058C179D07B9F000971C
:103C100011F00E94E31D8E8D8E7F8E8F1092A9056C
:103C20001092A805D093EB05C093EA05EB89FC89B7
:103C300080819D89892B808381E001C080E0DF91B4
:103C4000CF9108951F920F920FB60F9211242F93C8
:103C50003F934F935F936F937F938F939F93AF9314
:103C6000BF93EF93FF93E091EA05F091EB05309756
:103C700009F451C0868DA685B785958581FF04C05E
:103C80008C91892329F447C08C91892309F043C082
:103C9000A389B4899C918589809589238C93868991
:103CA00097890197F1F7208D318DA685B7857585A8
:103CB00058E040E0C9010197F1F7842F90E0959515
:103CC0008795482F6C91672309F04068515091F710
:103CD000868D81FD40958091A90590E001968F73B6
:103CE00099272091A805281749F0A091A905B0E0CF
:103CF000A655BA4F4C938093A90503C0868D816069
:103D0000868F828D938D0197F1F7A389B4898C9169
:103D10009589892B8C93FF91EF91BF91AF919F91E2
:103D20008F917F916F915F914F913F912F910F9064
:103D30000FBE0F901F90189526EA33E0FC013183E7
:103D400020830C94E31D1F93CF93DF93EC01162F78
:103D50006E8D6695617081E06827812F0E94D22D5B
:103D600061E0812F0E94992D812F90E0FC01EE509F
:103D7000FC4EE491E88BFC01EA5FFB4EE491F0E03D
:103D8000EE0FFF1FEC5DFB4E859194919A8B898B12
:103D9000DF91CF911F9108951F93CF93DF93EC0193
:103DA000162F60E0812F0E94992D8E8D81FD04C019
:103DB00061E0812F0E94D22D1C87812F90E0FC01B1
:103DC000EE50FC4EE491ED87FC01EA5FFB4EE4917E
:103DD000F0E0EE0FFF1FE65EFB4E859194919F870A
:103DE0008E87DF91CF911F910895FF920F931F93BC
:103DF000CF93DF93EC01F62E522F1B821A8208EE2E
:103E000013E020E030E00C831D832E833F8386EA9D
:103E100093E0998388831F8A1E8A198E188E1B8EC1
:103E20001A8E1D8E1C8E8E8D8E7F50FB81F98E8F8B
:103E3000642FCE010E94A31E6F2DCE01DF91CF9182
:103E40001F910F91FF900C94CC1ECF93DF93EC0148
:103E50009A01AB011B8E1A8E198E188E1F8A1E8A2C
:103E600060E079E08DE390E00E941A34C9012430CB
:103E7000310520F0B9016350710902C061E070E0C2
:103E80007D8F6C8FEC85E63108F068C0B9017695BE
:103E900067956431710518F06351710902C061E0E2
:103EA00070E07F8B6E8B069718F0C901059702C0F2
:103EB00081E090E0998F888FC901880F991F820F48
:103EC000931F96958795969587958D30910510F05F
:103ED0000C9702C081E090E09B8F8A8F2091680050
:103EE000E83050F091E0EE3008F490E081E001C05D
:103EF000880F9A95EAF701C084E0822B80936800CE
:103F00002C85283038F02E3040F0263148F48CE6ED
:103F100090E008C08DE690E005C08BE690E002C01E
:103F200080E090E09C8B8B8B283030F481E001C0E6
:103F3000880F2A95EAF70DC0822F90E02E3010F4FA
:103F4000089701C00E9791E001C0990F8A95EAF792
:103F5000892F8D8B8C8D9D8D0197F1F7CE01DF918F
:103F6000CF910C94F91D0F9300E020E040E060E059
:103F70008CEE95E00E942C300F910895DC011C9688
:103F80008D919C911D97DC01ED91FC910680F7814C
:103F9000E02D0994DC011C968D919C911D97DC010C
:103FA000ED91FC910480F581E02D0994DC011C96D3
:103FB0008D919C911D97DC01ED91FC910284F3851C
:103FC000E02D0994DC011C968D919C911D97DC01DC
:103FD000ED91FC910084F185E02D09942F923F92A0
:103FE0004F925F926F927F928F929F92AF92BF9209
:103FF000CF92DF92EF92FF920F931F93CF93DF93B5
:10400000CDB7DEB760970FB6F894DEBF0FBECDBF59
:104010002B013C0169014A3021F5CE0101961C01BA
:10402000E12CF12C5AE0852E912CA12CB12CC3014E
:10403000B201A50194010E94F8339FEFE91AF90A31
:1040400080E3840DEAE02E9F80191124F101819311
:104050001F012115310541055105C9F129013A0119
:10406000E6CFFE01319680E090E0B301A2014F70EF
:104070005527662777279C012F5F3F4F4A30510510
:104080006105710510F4A0E301C0A1E44A0F41935A
:1040900044E076946794579447944A95D1F7411435
:1040A00051046104710411F0C901DFCFE1E0F0E0D7
:1040B000EC0FFD1FE20FF31F48E740837C01F3E0A4
:1040C000EF0EF11CFE01E80FF91F20E3238321E02E
:1040D000E21AF108F60180E090E001501109019622
:1040E000A1E0B0E0AC0FBD1FAE0DBF1D2C91219320
:1040F0001E141F04ECF0F601E80FF91F1082609601
:104100000FB6F894DEBF0FBECDBFDF91CF911F91E8
:104110000F91FF90EF90DF90CF90BF90AF909F9066
:104120008F907F906F905F904F903F902F90089569
:1041300021E0E21AF10880179107ECF6D0CFCF9278
:10414000DF92EF92FF920F931F93FC0140E060E03B
:1041500070E0CB010191002309F449C020ED200F4C
:104160002A30B0F414E0660F771F881F991F1A9544
:10417000D1F76053710981099109C02EDD24C7FC74
:10418000D094ED2CFD2C6C0D7D1D8E1D9F1DE2CF5E
:104190002FE9200F263060F4B4E0660F771F881FE8
:1041A000991FBA95D1F767557109810991090FC017
:1041B0002FEB200F2630A8F4A4E0660F771F881F8E
:1041C000991FAA95D1F767537109810991091127A0
:1041D00007FD1095212F312F600F711F821F931F34
:1041E000B9CF083721F4411102C041E0B3CF1F918C
:1041F0000F91FF90EF90DF90CF9008950F931F9352
:10420000FC0160E070E0CB01019120ED200F2A302D
:10421000A0F4AAE0B0E09B01AC010E943F346053DF
:10422000710981099109112707FD1095212F312F5F
:10423000600F711F821F931FE7CF1F910F91089589
:10424000DC01AE5ABF4F2D913C911197FC01EC5A05
:10425000FF4F408151812417350764F43497019052
:10426000F081E02DA9014F5F5F4F4D935C93E20F0A
:10427000F31F6083FC01FF9680819181DC01ED9149
:10428000FC910190F081E02D0994CF96DC018D9195
:104290009C91DC01ED91FC910284F385E02D099461
:1042A000DC011C968D919C911D97009739F0DC01E3
:1042B000ED91FC910190F081E02D099480E090E077
:1042C00008952091050621110BC0FC01FF96808105
:1042D0009181DC01ED91FC910084F185E02D099440
:1042E000E0910606F0E0E85FF94F8081992787FDAD
:1042F00090950895DC01ED91FC910190F081E02D05
:1043000009944F925F926F927F92AF92BF92CF9239
:10431000DF92EF92FF920F931F93CF93DF93EC0105
:104320005B016A010E94DE2C2B013C01E12CF12C87
:104330008E01015C1F4F0E94DE2C641975098609ED
:1043400097096C157D058E059F0508F067C0D8019B
:104350008D919C91DC01ED91FC910480F581E02D23
:104360000995181619063CF7F80180819181DC0146
:10437000ED91FC910680F781E02D0995F82EF5016D
:104380008083DE01AE5ABF4F2D913C911197FE0103
:10439000EC5AFF4F80819181281739075CF43497DC
:1043A0000190F081E02DC90101968D939C93E20F5D
:1043B000F31FF0828C858823E1F16091F205709102
:1043C000F305CB0101969093F3058093F205CF5B43
:1043D000DF4F4AE050E0CE010E94D03167E771E143
:1043E000CE010E94953040E150E00F2D112707FDCE
:1043F0001095B801CE010E94D031C8010E949136BB
:10440000892B41F060E2CE010E94CA306F2DCE01AF
:104410000E94CA30CE010E94D1300BC08C85882307
:1044200051F06FE571E1CE018F5B9F4F0E94E53047
:1044300002C081E001C080E0DF91CF911F910F9118
:10444000FF90EF90DF90CF90BF90AF907F906F90F4
:104450005F904F900895EF92FF920F931F93CF9329
:10446000DF931F92CDB7DEB78C017B01A701BE01A0
:104470006F5F7F4FC8010E9481218111F7CF0F909C
:10448000DF91CF911F910F91FF90EF900895DF92F0
:10449000EF92FF920F931F93CF93DF938C01909134
:1044A0000506992311F1442321F06F5F7F4F81E0CE
:1044B00001C080E020910606820FFB01BF01382F6A
:1044C000321B3917B0F43491332309F443C08930D7
:1044D00010F4A82F01C0A0E031968F5FB0E0A85F74
:1044E000B94F4C91431751F354C0411102C06F5F53
:1044F0007F4FFB01D490EB0121967801F1E4EF0EA0
:10450000F11C6091070670E0685F794F44EF51E05D
:10451000C8010E94812180910706E82FF0E0E85F42
:10452000F94F2081909105068F5F2D111BC08830B7
:1045300068F5809307069F5F90930506993028F0F1
:1045400069EA71E1C7010E94E530FE01D49021962D
:10455000D110D7CF109205061092060610920706CA
:1045600081E018C0883018F48093070602C01092CA
:1045700007069F5F90930506993058F065EC71E14E
:10458000C8018F5B9F4F0E94E53003C01092070661
:10459000D2CF80E0DF91CF911F910F91FF90EF90EC
:1045A000DF900895CF93DF93EC01462F62EA71E12B
:1045B0000E944722882319F01FAA81E001C080E0F1
:1045C000DF91CF910895CF93DF93EC0180910506A1
:1045D000882381F0E091060691E09E0F90930606F5
:1045E000F0E0E85FF94F208130E0983060F1109200
:1045F000060629C0FE01FF9680819181DC01ED91C4
:10460000FC910680F781E02D09959C018FA98823F4
:10461000E9F02A323105D1F460E0CE010E94D222C5
:10462000811116C0E091060681E08E0F8093060688
:10463000F0E0E85FF94F208130E0883010F0109210
:10464000060680910506815080930506C90102C0C7
:104650008FEF9FEFDF91CF910895CF93DF93EC0120
:10466000462F6BE971E10E944722882319F081E00F
:104670008FAB01C080E0DF91CF910895CF92DF92A0
:10468000EF92FF920F931F93CF93DF93EC018C0176
:10469000015C1F4FD8018D919C91DC01ED91FC9143
:1046A0000480F581E02D09957C01181619060CF09F
:1046B00043C08C858823B9F068E871E16E01B1E4EC
:1046C000CB0ED11CC6010E949530F80180819181EA
:1046D000DC01ED91FC910084F185E02D0995682FB6
:1046E000C6010E941B31F80180819181DC01ED91AE
:1046F000FC910084F185E02D09958A97E9F48FA952
:1047000061E0882331F0CE010E94D222882321F07B
:104710001AC0CE010E942D23C0910506D0E0F801F9
:1047200080819181DC01ED91FC910480F581E02D87
:1047300009958C0F9D1F09C080910506F701E80FB0
:10474000F11DCF0102C08FEF9FEFDF91CF911F913D
:104750000F91FF90EF90DF90CF900895CB0165EF20
:1047600075E00E94153721E0892B09F420E0822FA3
:1047700008958F929F92AF92BF92CF92DF92EF9265
:10478000FF920F931F93CF93DF931F92CDB7DEB7A6
:104790006C017B015A016115710529F1FB018081D2
:1047A000882309F18B014B01FFEF8F1A9F0AA501A6
:1047B000BE016F5F7F4FC6010E9481218823A1F057
:1047C0008981F8019081891303C00F5F1F4F07C0D3
:1047D000F7019081891302C0840101C08701F801AB
:1047E00080818111E4CF81E00F90DF91CF911F9103
:1047F0000F91FF90EF90DF90CF90BF90AF909F9080
:104800008F9008957F928F929F92AF92BF92CF9296
:10481000DF92EF92FF920F931F93CF93DF931F923C
:10482000CDB7DEB76C018B015A01FC01848588236A
:1048300069F065E571E17601F1E4EF0EF11CC70165
:104840000E949530B801C7010E94E530F8017490CC
:104850007720C1F078014801FFEF8F1A9F0AA50168
:10486000BE016F5F7F4FC6010E9481218823C9F07E
:104870002981271109C08FEFE81AF80AF70174900F
:104880007110EDCF81E00DC0F8018491332727FD31
:10489000309590E02817390711F47401EFCF7801B3
:1048A000EDCF0F90DF91CF911F910F91FF90EF907F
:1048B000DF90CF90BF90AF909F908F907F900895A2
:1048C0002F923F924F925F926F927F928F929F9220
:1048D000AF92BF92CF92DF92EF92FF920F931F930E
:1048E000CF93DF9300D01F92CDB7DEB76C01562E69
:1048F000672E742E59012DB73EB73B832A83242F90
:1049000030E0C901880F991F820F931FEDB7FEB7E2
:10491000E81BF90B0FB6F894FEBF0FBEEDBF2DB725
:104920003EB72F5F3F4F1901062F172F4901412C2A
:10493000760131E4E30EF11C471409F449C0F40197
:104940001082F80180819181F40192838183F601C4
:1049500084858823A9F066E471E1C7010E9495303F
:104960004AE050E0642DC7010E94FD3160E2C701BA
:104970000E94CA30F80160817181C7010E94E53050
:104980004394F3E08F0E911C0E5F1F4FD5CF11960D
:10499000ED91FC9112976491961781F1F9010081D4
:1049A0001181F801649170E04617570731F11296B2
:1049B0001C930E9311971196ED91FC911297E4912F
:1049C00013962E5F3F4FEE23F9F08F5F8711DFCFF5
:1049D000A501BE016F5F7F4FC6010E948121811139
:1049E00002C08FEF11C09981492F552747FD50957F
:1049F000252D362DD10180E0E9CFF80131961296B0
:104A0000FC93EE931197D7CF2A813B810FB6F89490
:104A10003EBF0FBE2DBF0F900F900F90DF91CF9133
:104A20001F910F91FF90EF90DF90CF90BF90AF90CC
:104A30009F908F907F906F905F904F903F902F90BE
:104A40000895CF93DF93EC018D858823C9F06BE146
:104A500071E1CE010E94953044EF51E064E171E1D3
:104A6000CE010E940224882311F01D8609C063E054
:104A700071E1CE018F5B9F4F0E94E53080E001C065
:104A800081E0DF91CF9108955F926F927F928F9234
:104A90009F92AF92BF92CF92DF92EF92FF920F93CD
:104AA0001F93CF93DF931F92CDB7DEB76C017B01CD
:104AB000390100E010E04A0182E0881A91085A01A9
:104AC00081E0A81AB108A301BE016F5F7F4FC60144
:104AD0000E948121882309F440C059808DE058123A
:104AE0002DC0A301BE016F5F7F4FC6010E948121CF
:104AF00089818A3041F4E114F104B9F1F701E00F42
:104B0000F11F108232C0E114F104C1F0081519053B
:104B100064F4F8013196D701A00FB11F5C920E5FCB
:104B20001F4FEE0DFF1D808309C00A151B0534F4CD
:104B3000F701E00FF11F50820F5F1F4F0A151B0591
:104B400014F6E114F10409F4BECFF701E00FF11FF0
:104B5000898180830F5F1F4FB6CFE114F10439F0D4
:104B6000F701E00FF11F108203C0C80102C080E00E
:104B700090E00F90DF91CF911F910F91FF90EF90F8
:104B8000DF90CF90BF90AF909F908F907F906F906D
:104B90005F900895CF92DF92EF92FF920F931F9351
:104BA000CF93DF931F92CDB7DEB78C0144EF51E076
:104BB000BE016F5F7F4FC8010E9481218823A9F049
:104BC00089818C3399F78093F50556EFE52E55E0F2
:104BD000F52EDD24D39444EF51E0BE016F5F7F4F8B
:104BE000C8010E948121811102C080E035C0CC241F
:104BF000C394CD0C8981F70181937F018E3339F500
:104C000044EF51E0BE016F5F7F4FC8010E948121D8
:104C1000882359F38981803241F7AC2DB0E0AB5045
:104C2000BA4F8C93D394D394ED2DF0E0EB50FA4F20
:104C3000108281E08093F40524EF31E040E050E001
:104C400060E070E0C8010E94442581E005C0FCE0FE
:104C5000CF1659F2DC2CBFCF0F90DF91CF911F916F
:104C60000F91FF90EF90DF90CF9008951F93CF9317
:104C7000DF93EC01AB018091F40581110EC0CE01F0
:104C80000E94CA25182F811110C065E371E1CE0181
:104C90008F5B9F4F0E94E53008C065EF75E0CE0145
:104CA000DF91CF911F910C94B923812FDF91CF9188
:104CB0001F910895FF920F931F93CF93DF93EC0101
:104CC0008D8581116EC06AEF70E080E090E00E94F7
:104CD0000D2D61E371E1CE010E9495306AEF70E025
:104CE00080E090E00E940D2D44EF51E06BE271E115
:104CF000CE010E940224811115C0FE01FF96808121
:104D00009181DC01ED91FC910190F081E02D6DE04D
:104D1000099564EF71E0CE010E94362681113AC0F8
:104D200015E01EC08091F405811134C065E0F62EB7
:104D30008E01015C1F4FF80180819181DC01ED91B2
:104D4000FC910190F081E02D6DE0099564EF71E038
:104D5000CE010E94362681111DC0FA9461F7CDCF95
:104D60006AEF70E080E090E00E940D2D67E271E153
:104D7000CE010E9495306AEF70E080E090E00E94E2
:104D80000D2D44EF51E061E271E1CE010E94022459
:104D9000882319F081E08D8705C0115009F780E064
:104DA00001C081E0DF91CF911F910F91FF90089595
:104DB000CF93DF93EC018D85882339F08E859F8515
:104DC00001969F878E8781E005C0CE010E945A26FA
:104DD0008111F4CFDF91CF910895FC0126853785AD
:104DE0002150310937872687232B11F40C94212574
:104DF00081E00895CF92DF92EF92FF920F931F937D
:104E0000CF93DF93EC018B016A0179010E94D826D0
:104E1000882351F1000F111F000F111F0D511C4F5E
:104E2000F80160817181CE010E949530F8016281A4
:104E3000738144EF51E0CE010E940224882389F05F
:104E400024EF31E0A701B601CE010E94442564EFB2
:104E500071E0CE010E943626CE010E94ED26C601E9
:104E600005C0CE010E94ED2682EB93E0DF91CF9149
:104E70001F910F91FF90EF90DF90CF900895EF92E8
:104E8000FF920F931F93CF93DF93CDB7DEB7609759
:104E90000FB6F894DEBF0FBECDBF8C010E94D8269E
:104EA00081110AC06BEE70E1C8018F5B9F4F0E94B9
:104EB000E53080E090E06FC063EE70E1C8010E94D1
:104EC000953024EF31E040E150E0BE016F5F7F4F4D
:104ED000C8010E9444257C01BE016F5F7F4FC8015D
:104EE0000E94AE23882361F024EF31E040E150E0DE
:104EF000BE016F5F7F4FC8010E9444257C0105C041
:104F000064EF71E0C8010E94362625E0E216F10444
:104F10001CF4CE01019608C0C7010497E1E0F0E05F
:104F2000EC0FFD1F8E0F9F1F0E949F20F62EE72E75
:104F3000862F8F70F80181AFF4FA882780F982AF4D
:104F4000F5FA882780F983AFF6FA882780F984AFCD
:104F5000F7FA882780F985AF8E2D86958F7086AFFA
:104F6000C8010E94ED26F80191AD8485913031F49D
:104F700097AB882371F06DEC70E106C0F80117AAB9
:104F8000882339F064EB70E1C8018F5B9F4F0E946A
:104F9000E5308F2D9E2D60960FB6F894DEBF0FBEC4
:104FA000CDBFDF91CF911F910F91FF90EF900895AA
:104FB000CF93DF93D62FC72F9A01462F572F60E04C
:104FC00070E00E94FA26892B49F0ED2FFC2FDF01BB
:104FD0008191882329F08A33D1F702C0AD2FBC2FED
:104FE0001C928D2F9C2FDF91CF910895CF93DF934B
:104FF000CDB7DEB766970FB6F894DEBF0FBECDBF54
:1050000026E130E0AE014F5F5F4F60E070E00E944C
:10501000FA26892BC1F080E0E1E0F0E0EC0FFD1F03
:10502000E80FF11D9081992319F08F5F9A33A1F752
:1050300021E030E02C0F3D1F280F311DC9010E94D7
:10504000FE20CB0102C080E090E066960FB6F89497
:10505000DEBF0FBECDBFDF91CF9108959A01AB01A6
:1050600063E070E00C94FA269A01AB0164E070E012
:105070000C94FA261F93CF93DF93CDB7DEB72B970F
:105080000FB6F894DEBF0FBECDBF142F2BE030E07B
:10509000AE014F5F5F4F0E94FA26892B51F0CE017F
:1050A00001961A3019F40E94FE2006C00E949F202B
:1050B00003C060E070E0CB012B960FB6F894DEBF22
:1050C0000FBECDBFDF91CF911F910895CF93DF9396
:1050D000CDB7DEB760970FB6F894DEBF0FBECDBF79
:1050E00020E130E0AE014F5F5F4F6CE070E00E9466
:1050F000FA26892BE1F143E050E06EE870E1CE0141
:1051000001960E94B736892B51F142E050E06BE8DE
:1051100070E1CE0101960E94B736892B11F146E06D
:1051200050E064E870E1CE0101960E94B736892B09
:10513000D1F045E050E06EE770E1CE0101960E94AB
:10514000B736892B91F046E050E067E770E1CE0179
:1051500001960E94B736892B51F484E009C080E0A3
:1051600007C081E005C082E003C083E001C08FEF8B
:1051700060960FB6F894DEBF0FBECDBFDF91CF9122
:105180000895CF92DF92EF92FF920F931F93CF93E8
:10519000DF9300D000D0CDB7DEB77C018B016A0170
:1051A00081E790E19A8389838BE690E19C838B83EE
:1051B00024EF31E042E0BE016F5F7F4FC7010E94E4
:1051C00060248130F1F0811114C024EF31E0A60198
:1051D000B801C7010E94442581E4E80EF11C65E690
:1051E00070E1C7010E949530B801C7010E940931E2
:1051F00006C0A6016BE570E1C8010E94C53680E0DB
:1052000001C081E00F900F900F900F90DF91CF9130
:105210001F910F91FF90EF90DF90CF900895AF9284
:10522000BF92CF92DF92EF92FF920F93CF93DF93D3
:10523000CDB7DEB762970FB6F894DEBF0FBECDBF15
:105240007C015A016901698B7A8B0E94D826698991
:105250007A89882309F463C0C7010E949530C1147C
:10526000D10419F160E2C7010E947A210023C1F044
:1052700057018FE4A80EB11CF60164916623C1F1B9
:10528000D701ED91FC910190F081E02D603211F495
:10529000D5016C91C7010995BFEFCB1ADB0AECCFA2
:1052A000B601C7010E94953023C0A114B10401F1D9
:1052B00060E2C7010E947A210023B1F06701FFE498
:1052C000CF0ED11CF50161915F01662389F0D701F2
:1052D000ED91FC910190F081E02D603211F4D60146
:1052E0006C91C7010995EECFB501C7010E94C83086
:1052F0006DE0C7010E947A2140E150E0BE016F5F7E
:105300007F4FC7010E94C128082F64EF71E0C701D9
:105310000E943626C7010E94ED26802F01C080E042
:1053200062960FB6F894DEBF0FBECDBFDF91CF916E
:105330000F91FF90EF90DF90CF90BF90AF900895C6
:10534000CF92DF92EF92FF920F931F93CF93DF9351
:10535000CDB7DEB72B970FB6F894DEBF0FBECDBF2B
:105360007C016B01CA01B901402F0BE010E09E01E6
:105370002F5F3F4F0E94EE1F00E020E030E0AE01C3
:105380004F5F5F4FB601C7010E940F292B960FB6E2
:10539000F894DEBF0FBECDBFDF91CF911F910F916B
:1053A000FF90EF90DF90CF9008951F93CF93DF93FE
:1053B000EC010E94D8268823D9F065E570E1CE0182
:1053C0000E94953044EF51E06DE470E1CE010E94FF
:1053D0000224882339F064EF71E0CE010E94362662
:1053E00011E001C010E0CE010E94ED26812F01C026
:1053F00080E0DF91CF911F9108950F939B0140E0D2
:1054000050E00AE069EC7FE00E94A0290F91089526
:105410000F93262F30E040E050E000E169E27FE0AA
:105420000E94A0290F9108950C94082A0F9300E080
:1054300020E030E040E050E068E67EE00E940F2986
:105440000F9108950F93AB0101E020E030E06AE591
:105450007EE00E940F290F9108950F931F93CF9321
:10546000DF93EC01AB01FB0181818F7D883511F465
:105470004E5F5F4F00E020E030E06FE37EE0CE0162
:105480000E940F29182FCE010E94162A812FDF912A
:10549000CF911F910F9108950F931F93CF93DF9397
:1054A000EC01AB0101E020E030E06FE27EE00E9421
:1054B0000F29182FCE010E94162A812FDF91CF913C
:1054C0001F910F91089540E16BE170E00E943A282E
:1054D000862F08950F93CF93DF93EC011CAA1BAA8C
:1054E0001B8A00E020E030E040E050E06EE872E12E
:1054F0000E940F29811107C066E772E1CE018F5B20
:105500009F4F0E94E53000E020E030E040E050E0B6
:1055100063E672E1CE010E940F29811107C066E4A3
:1055200072E1CE018F5B9F4F0E94E53000E020E0EA
:1055300030E040E050E064E372E1CE010E940F29C8
:10554000811107C06AE172E1CE018F5B9F4F0E941B
:10555000E530CE010E943F27CE010E9466288B7F56
:1055600091E009F490E0988BCE010E94632AC15B20
:10557000DF4F8883DF91CF910F910895CF93DF9311
:10558000EC010E94D826882301F165E470E1CE0188
:105590000E94953044EF51E06CE370E1CE010E942F
:1055A0000224811104C0CE010E94ED260EC068E8DD
:1055B00073E180E090E00E940D2D1D861F861E86FF
:1055C000CE010E946A2A81E001C080E0DF91CF9184
:1055D00008950F931F93CF93DF93EC018C010F5B22
:1055E0001F4FF801558744873297718360830E946B
:1055F0005A26811103C06DEF71E10AC0CE010E94ED
:105600006A2ACE010E942125811107C061EE71E155
:10561000C8010E94E53080E001C081E0DF91CF91B8
:105620001F910F910895CF93DF93EC01E881F981E9
:105630000480F581E02D09958FA9DF91CF91089520
:105640000F931F93CF93DF93EC018FA9882391F1E0
:1056500064EF71E0CE010E942B22CE010E94D82679
:1056600063E87CE0CE010E94953044EF51E06CE7A6
:105670007CE0CE010E9402248E010F5B1F4F882325
:1056800051F0CE010E94ED266AE67CE0C8010E943E
:10569000E5301FAA0FC061E57CE0C8010E94E5303B
:1056A000CE010E943F27CE010E94ED268FA991E0F6
:1056B000892701C081E0DF91CF911F910F9108955B
:1056C000BF92CF92DF92EF92FF920F931F93CF93EF
:1056D000DF93CDB7DEB765970FB6F894DEBF0FBE88
:1056E000CDBF7C016B018A01B22EFC0180AD81111E
:1056F000BFC0C7010E94D826F70187A9882319F0E7
:10570000C7010E94202BB80180E090E004E110E086
:105710009E012F5F3F4F4AE00E94EE1F87010F5B03
:105720001F4F60E87DE0C8010E949530B601C801B6
:105730000E94C83060E2C8010E94CA30BE016F5F9B
:105740007F4FC8010E9409316AE77DE0C7010E94CE
:105750009530B601C7010E94C83061EC73E0C70103
:105760000E94C830BE016F5F7F4FC7010E94C830E2
:1057700068E77DE0C7010E94953064EF71E0C701E2
:105780000E94362681110BC063E67DE0C8010E94AD
:10579000E5306EE37DE0C8010E94E530FFCFB11037
:1057A00008C081E0F70180AF64C0F70184858111F2
:1057B00035C040E157E2BE016B5E7F4FC7010E94DA
:1057C0008121882309F44CC08D898A32C9F0833441
:1057D00061F7898324EF31E043E150E0BE016E5F61
:1057E0007F4FC7010E94442564E27DE0C8010E940A
:1057F0009530BE016F5F7F4FC8010E94093135C0EF
:1058000044EF51E068E37DE0C7010E940224882351
:1058100061F181E0F70187AB15862BC062E17DE085
:10582000C8010E9495306D89772767FD709540E12A
:1058300050E0C8010E94D0318D89992787FD90954D
:105840000E949136892B41F060E2C8010E94CA3063
:105850006D89C8010E94CA30C8010E94D130A9CF09
:1058600068E07DE0C8010E94E530C7010E94ED2696
:1058700080E065960FB6F894DEBF0FBECDBFDF9116
:10588000CF911F910F91FF90EF90DF90CF90BF903D
:105890000895FC011382128248EE53E060E070E04C
:1058A000448355836683778387ED93E09183808378
:1058B000158614860895CF93DF93EC011B821A821C
:1058C00048EE53E060E070E04C835D836E837F833D
:1058D00087EC93E099838883CE018F5B9F4F0E9472
:1058E000492C1D861F861E861FAA18AE81E0888B54
:1058F000898B1C86FE01E05BFF4F1182108232967D
:1059000011821082CC5ADF4F19821882DF91CF9119
:1059100008950F9300E020E040E060E080E196E031
:105920000E942C300F9108951F920F920FB60F9284
:1059300011242F933F938F939F93AF93BF938091A5
:10594000170690911806A0911906B0911A06309189
:10595000160623E0230F2D3720F40196A11DB11D5B
:1059600005C026E8230F0296A11DB11D209316063F
:105970008093170690931806A0931906B0931A0601
:1059800080911B0690911C06A0911D06B0911E06E9
:105990000196A11DB11D80931B0690931C06A09338
:1059A0001D06B0931E06BF91AF919F918F913F91BD
:1059B0002F910F900FBE0F901F9018952FB7F8944E
:1059C00060911706709118068091190690911A0639
:1059D0002FBF08953FB7F89480911B0690911C0645
:1059E000A0911D06B0911E0626B5A89B05C02F3FAD
:1059F00019F00196A11DB11D3FBF6627782F892F91
:105A00009A2F620F711D811D911D42E0660F771F55
:105A1000881F991F4A95D1F70895CF92DF92EF9290
:105A2000FF92CF93DF936B017C010E94EA2CEB0184
:105A3000C114D104E104F10489F00E94CF330E9423
:105A4000EA2C6C1B7D0B683E734090F381E0C81A12
:105A5000D108E108F108C851DC4FEACFDF91CF91BE
:105A6000FF90EF90DF90CF900895789484B5826096
:105A700084BD84B5816084BD85B5826085BD85B5F2
:105A8000816085BDEEE6F0E0808181608083E1E8A1
:105A9000F0E01082808182608083808181608083D9
:105AA000E0E8F0E0808181608083E1EBF0E08081DC
:105AB00084608083E0EBF0E0808181608083EAE7AE
:105AC000F0E0808184608083808182608083808137
:105AD000816080838081806880831092C1000895F6
