:100000000C9475070C949D070C949D070C941E1D71
:100010000C941E1D0C941E1D0C949D070C949D07A2
:100020000C949D070C949D070C949D070C949D07C0
:100030000C949D070C949D070C949D070C949D07B0
:100040000C94D42B0C949D070C94F62E0C94282F12
:100050000C949D070C949D070C949D070C949D0790
:100060000C949D070C949D074175746F73746172B5
:10007000743A20003A000A0D5265626F6F74696E1F
:100080006720576946692E2E2E000A0D5265626F51
:100090006F74204D6963726F56696577202620570B
:1000A00069466920746F20736574206E65772070CF
:1000B0006F72742E0045736361706521000D0A50E4
:1000C0007265737320616E79206B657920746F207F
:1000D00063616E63656C2E2E2E004175746F2D6307
:1000E0006F6E6E656374696E6720746F3A0D0A00F7
:1000F000576966693A256C640A0A4336343A202502
:100100006C6400576966693A256C640A0A433634A0
:100110003A20256C640A0A5254533A20256C640034
:100120002A2A2A205465726D696E616C204D6F64B5
:10013000652028446562756729202A2A2A00436FB2
:100140006E6E656374696F6E20636C6F73656400B7
:10015000436F6E6E656374204661696C656421004F
:10016000436F6E6E656374656420746F2025730041
:10017000436F756C64206E6F74207265736F6C765C
:100180006520444E532E2020436F6E6E65637420AD
:100190004661696C656421000D0A436F6E6E65638C
:1001A00074696E6720746F20257300712D6C696E01
:1001B0006B2E6E6574003535353132313300716C1C
:1001C000696E6B2E6C796F6E6C6162732E6F7267E5
:1001D000003535353132313200293A20000D0A50D0
:1001E0006F7274202800293A20000D0A54656C6E45
:1001F000657420686F7374202800496E636F6D69A1
:100200006E6720436F6E6E656374696F6E00436145
:100210006E63656C6C6564000D0A57616974696E84
:100220006720666F7220636F6E6E656374696F6EB0
:10023000206F6E20706F72742000293A20000D0A22
:10024000496E636F6D696E6720706F72742028004D
:10025000535349440A0A257300495020416464728B
:10026000657373200A2573004261756420526174BE
:10027000650A0A2575004669726D776172650A0A1A
:100280002573004C697374656E20706F72743A2028
:10029000004669726D776172653A20202020005710
:1002A000692D466920535349443A20200049502083
:1002B000416464726573733A2020004D41432041CC
:1002C0006464726573733A2000202844656C20745E
:1002D0006F2073776974636829004153434949204B
:1002E0004D6F6465000D0A456E7472792023207489
:1002F0006F2073657420746F206175746F2D737433
:100300006172743F0D0A283020746F206469736134
:10031000626C65293A20000D0A41726520796F757B
:1003200020737572652028792F6E293F20000D0AF1
:10033000456E74657220616464726573733A20005F
:100340000D0A456E747279202320746F206D6F64DE
:100350006966793F20283020746F2061626F727463
:10036000293A20000D0A53656C6563743A20232CEA
:10037000206D20746F206D6F646966792C20632076
:10038000746F20636C65617220616C6C0D0A612072
:10039000746F20736574206175746F2D737461724E
:1003A000742C203020746F20676F206261636B3A79
:1003B00020000D0A4572726F72206A6F696E696E55
:1003C00067206E6574776F726B000D0A5353494452
:1003D000205375636365737366756C6C792063680D
:1003E000616E67656400535349443A00506173730A
:1003F0007068726173653A004B65793A00556E6BAF
:100400006E6F776E206F7074696F6E2C20747279C6
:1004100020616761696E000D0A4368616E6765203F
:10042000535349440D0A0D0A312E205745500D0AE9
:10043000322E20575041202F20575041320D0A3381
:100440002E2052657475726E20746F20436F6E6635
:10045000696775726174696F6E204D656E750D0AFE
:100460000D0A53656C6563743A2000556E6B6E6FB0
:10047000776E206F7074696F6E2C207472792061B2
:100480006761696E00352E2044697265637420547B
:1004900065726D696E616C204D6F646520284465DE
:1004A000627567290D0A362E2052657475726E20AA
:1004B000746F204D61696E204D656E750D0A0D0AD1
:1004C00053656C6563743A2000342E2025732044F4
:1004D000434420616C77617973206F6E00332E2066
:1004E000257320666C6F7720636F6E74726F6C007B
:1004F0000D0A436F6E66696775726174696F6E206D
:100500004D656E750D0A0D0A312E20446973706CAD
:1005100061792043757272656E7420436F6E6669EF
:100520006775726174696F6E0D0A322E20436861BF
:100530006E676520535349440D0A00556E6B6E6F0C
:10054000776E206F7074696F6E2C207472792061E1
:100550006761696E00312E2054656C6E657420747D
:100560006F20686F7374206F72204242530D0A32FD
:100570002E2050686F6E6520426F6F6B0D0A332E10
:10058000205761697420666F7220696E636F6D69B0
:100590006E6720636F6E6E656374696F6E0D0A34EB
:1005A0002E20436F6E66696775726174696F6E0D98
:1005B0000A0D0A53656C6563743A20005245414444
:1005C000592E000D0A436F6D6D6F646F7265205771
:1005D000692D4669204D6F64656D0057692D466928
:1005E000204661696C6564210057692D4669204F7A
:1005F0004B210057692D466920496E69742E2E2EB5
:1006000000256C6400426175640A44657465637416
:10061000696F6E00050800FF0C4B00000000003EF3
:100620005B4F5B3E3E6B4F6B3E1C3E7C3E1C183C62
:100630007E3C181C577D571C1C5E7F5E1C00183CBE
:100640001800FFE7C3E7FF0018241800FFE7DBE707
:10065000FF30483A060E2629792926407F050507EE
:10066000407F05253F5A3CE73C5A7F3E1C1C08084A
:100670001C1C3E7F14227F22145F5F005F5F06090F
:100680007F017F006689956A606060606094A2FF68
:10069000A29408047E040810207E201008082A1C5A
:1006A00008081C2A08081E101010100C1E0C1E0C26
:1006B00030383E3830060E3E0E06000000000000C6
:1006C000005F00000007000700147F147F14242A35
:1006D0007F2A122313086462364956205000080707
:1006E0000300001C2241000041221C002A1C7F1C28
:1006F0002A08083E0808008070300008080808082A
:10070000000060600020100804023E5149453E0090
:10071000427F400072494949462141494D331814EE
:10072000127F1027454545393C4A4949314121113D
:1007300009073649494936464949291E000014002F
:100740000000403400000008142241141414141452
:10075000004122140802015909063E415D594E7CB0
:100760001211127C7F494949363E414141227F4165
:1007700041413E7F494949417F090909013E4141C3
:1007800051737F0808087F00417F41002040413FAE
:10079000017F081422417F404040407F021C027FBD
:1007A0007F0408107F3E4141413E7F090909063E12
:1007B0004151215E7F0919294626494949320301E1
:1007C0007F01033F4040403F1F2040201F3F4038F3
:1007D000403F631408146303047804036159494DCE
:1007E00043007F4141410204081020004141417F04
:1007F000040201020440404040400003070800207A
:10080000545478407F284444383844444428384479
:1008100044287F385454541800087E090218A4A4B0
:100820009C787F0804047800447D40002040403DCF
:10083000007F1028440000417F40007C0478047849
:100840007C080404783844444438FC1824241818DC
:10085000242418FC7C080404084854545424040438
:100860003F44243C4040207C1C2040201C3C403025
:10087000403C44281028444C9090907C4464544C54
:1008800044000836410000007700000041360800AF
:1008900002010204023C2623263C1EA1A161123A59
:1008A0004040207A385454555921555579412154A6
:1008B000547841215554784020545579400C1E52AB
:1008C000721239555555593954545459395554544F
:1008D000580000457C410002457D420001457C40B6
:1008E000F0292429F0F0282528F07C5455450020D3
:1008F00054547C547C0A097F493249494932324870
:10090000484832324A4848303A4141217A3A4240D6
:100910002078009DA0A07D39444444393D404040AA
:100920003D3C24FF2424487E4943662B2FFC2F2B7B
:10093000FF0929F620C0887E09032054547941001C
:1009400000447D413048484A32384040227A007A9B
:100950000A0A727D0D19317D2629292F2826292979
:10096000292630484D40203808080808080808089B
:10097000382F10C8ACBA2F102834FA00007B0000C2
:1009800008142A142222142A1408AA005500AAAA1C
:1009900055AA55AA000000FF00101010FF00141403
:1009A00014FF001010FF00FF1010F010F0141414CA
:1009B000FC001414F700FF0000FF00FF1414F404FF
:1009C000FC141417101F10101F101F1414141F00F4
:1009D000101010F0000000001F101010101F101059
:1009E0001010F010000000FF101010101010101068
:1009F00010FF10000000FF140000FF00FF00001FA8
:100A000010170000FC04F414141710171414F40445
:100A1000F40000FF00F714141414141414F700F772
:100A2000141414171410101F101F141414F414109D
:100A300010F010F000001F101F0000001F14000035
:100A400000FC140000F010F01010FF10FF1414143C
:100A5000FF141010101F00000000F010FFFFFFFF38
:100A6000FFF0F0F0F0F0FFFFFF0000000000FFFFDC
:100A70000F0F0F0F0F38444438447C2A2A3E147E4F
:100A800002020606027E027E026355494163384433
:100A9000443C04407E201E2006027E020299A5E707
:100AA000A5991C2A492A1C4C7201724C304A4D4DA2
:100AB000303048784830BC625A463D3E494949008A
:100AC0007E0101017E2A2A2A2A2A44445F444440A6
:100AD000514A444040444A51400000FF0103E08035
:100AE000FF000008086B6B083612362436060F0923
:100AF0000F06000018180000001010003040FF0121
:100B000001001F01011E00191D1712003C3C3C3C56
:100B10000000000000636C6F73653A206661696CC9
:100B200065642C206E6F202A434C4F532A002A43C1
:100B30004C4F532A00636C6F73650D00636C6F73C9
:100B4000653A206661696C65642C206E6F202A43CB
:100B50004C4F532A002A434C4F532A00636C6F7347
:100B6000650D004F50454E2A00302E302E302E306D
:100B7000004F50454E2A000D006F70656E200073C7
:100B8000657420752069006C656176650D004757B6
:100B90003D000D006A6F696E20004173736F6369D9
:100BA0006174656421004641494C45440073657495
:100BB00020776C616E207068726173650073657474
:100BC00020776C616E206B65790073657420776C9B
:100BD000616E20737369640073657420776C616E55
:100BE00020686964652031007365742075617274D2
:100BF000206D6F64650073657420697020666C6198
:100C00006773007365742069702070726F746F630E
:100C10006F6C007365742069702064686370007382
:100C200065742069702072656D6F746500736574FA
:100C300020697020686F7374007365742069702078
:100C4000686F737400736574206970206C6F6361E2
:100C50006C706F72740073657420776C616E206ABB
:100C60006F696E002A5265626F6F742A0072656246
:100C70006F6F740D0053746F72696E6700736176E5
:100C8000650D003C74696D656F75743E00414F4B96
:100C90000D0A004552523A20005345525645520023
:100CA0004341434845004155544F4950004F4E0081
:100CB0004F4646006C6F6F6B7570200047573D00C4
:100CC0000D00736C6565700D007365742073797326
:100CD0002077616B650073686F7720630D0045585E
:100CE00049540D0A00657869740D00434D440D0A9E
:100CF0000024242400434D440D0A00242424002A07
:100D00004F50454E2A002A434C4F532A00736574B6
:100D100020636F6D6D2072656D6F74652030007398
:100D2000657420737973207072696E746C766C20B0
:100D300030007365742075206D2031005265706C31
:100D40006163653D005478506F7765723D00526174
:100D500074653D004A6F696E3D005265626F6F7445
:100D60003D0050726F62653D00426561636F6E3D8C
:100D700000676574206164686F630D0050524F54C2
:100D80004F3D00464C4147533D3078005253534944
:100D90003D282D0073686F7720727373690D0046CC
:100DA0006C75736853697A653D004D61746368437F
:100DB0006861723D00466C75736854696D65723D7B
:100DC0000067657420636F6D6D0D004D6F64653D48
:100DD000005254433D0073686F77207420740D00F7
:100DE000416464726573733D0067657420646E735B
:100DF0000D0054696D653D00557054696D653D0089
:100E000073686F772074696D650D005A6F6E653D6C
:100E1000006765742074696D650D004261756472C8
:100E20006174653D0067657420750D0044657669E1
:100E3000636549643D00676574206F70740D0053ED
:100E40005349443D0067657420776C616E0D004D19
:100E5000616320416464723D00676574206D616365
:100E60000D00444843503D00484F53543D00475700
:100E70003D004E4D3D0049503D006765742069704E
:100E80000D0000000008000201000003040700003C
:100E90000000000000000102040810204080010250
:100EA00004081020010204081020040404040404AF
:100EB000040402020202020203030303030300000C
:100EC0000000230026002900000000002500280063
:100ED0002B0000000000240027002A00F50C201C35
:100EE000BE2BC92B4E2FD72F2A0D11241FBECFEF9B
:100EF000D8E0DEBFCDBF13E0A0E0B1E0EAECF4E75C
:100F000002C005900D92A639B107D9F725E0A6E9F0
:100F1000B3E001C01D92A735B207E1F71EE0C8EEAD
:100F2000DEE004C02297FE010E944334CC3DD1078D
:100F3000C9F70E94C0160C94583A0C940000CF9246
:100F4000DF92EF92FF920F931F93E82FF92F05C0C6
:100F5000015011092109310961F1908196239417FB
:100F6000B9F305C0015011092109310911F190812E
:100F700096239413F7CFC12CD12CE12CF12C0AC06D
:100F80008FEFC81AD80AE80AF80A0C151D052E05B5
:100F90003F0579F080818623841791F36C2D7D2D98
:100FA0008E2D9F2D1F910F91FF90EF90DF90CF908E
:100FB000089560E070E080E090E01F910F91FF9055
:100FC000EF90DF90CF9008950C946239359907C067
:100FD0008091B0008F7D8093B0005B9AF7CF8091B5
:100FE000B0008F7D8093B0005B980895CF93DF931E
:100FF000EC0160E08CE294E00E94681B40E060E05D
:101000008CE294E00E946A19BE018CE294E00E9496
:1010100074308CE294E0DF91CF910C94771BCF93E6
:10102000DF93EC0160E08CE294E00E94681B40E0FA
:1010300060E08CE294E00E946A19BE018CE294E0C8
:101040000E9486308CE294E0DF91CF910C94771B64
:10105000CF93DF9300D000D000D0CDB7DEB7209182
:101060009603222399F0FC0160817181CE010196E3
:101070000E944719BE016F5F7F4F87E094E00E9496
:101080004730CE0101960E94AC3105C0BC0187E01B
:1010900094E00E94473026960FB6F894DEBF0FBE4C
:1010A000CDBFDF91CF910895CF93DF9300D000D0D3
:1010B00000D0CDB7DEB7BC01CE0101960E949E32B2
:1010C000CE0101960E942808CE0101960E94AC3103
:1010D00087E094E00E945E3026960FB6F894DEBF5B
:1010E0000FBECDBFDF91CF9108950F931F93CF9384
:1010F000DF9300D000D000D0CDB7DEB78C01BC01AB
:10110000CE0101960E949E32CE0101960E945408A3
:10111000CE0101960E94AC314AE060E2C8010E9413
:101120005F33B801CE0101960E949E32CE01019636
:101130000E94F607CE0101960E94AC3126960FB6AA
:10114000F894DEBF0FBECDBFDF91CF911F910F91FD
:101150000895CF93DF9300D000D000D0CDB7DEB795
:10116000BC0180919603882381F0CE0101960E94F4
:101170004719BE016F5F7F4F87E094E00E944730C0
:10118000CE0101960E94AC3104C087E094E00E9439
:10119000553026960FB6F894DEBF0FBECDBFDF9157
:1011A000CF9108950E94A90887E094E00C945E30E6
:1011B000CF93DF9300D000D000D0CDB7DEB7BC0115
:1011C000CE0101960E941A3289819A810E94D2082A
:1011D0004AE060E2CE0101960E945F3389819A81E4
:1011E0000E940F08CE0101960E94AC3126960FB6E0
:1011F000F894DEBF0FBECDBFDF91CF91089587E099
:1012000094E00C945E30CF93DF93CDB7DEB7679751
:101210000FB6F894DEBF0FBECDBF0E94FF088091CD
:101220009603882389F087E1EEE8F2E0DE0111966B
:1012300001900D928A95E1F7BE016F5F7F4F87E0C5
:1012400094E00E94553006C06AED72E087E094E0B9
:101250000E94243069EC72E0CE0101960E94D432E3
:10126000CE0101960E945408CE0101960E94AC3135
:101270000E94FF0867960FB6F894DEBF0FBECDBF81
:10128000DF91CF910895883041F0843131F091E0C1
:101290008F3709F090E0892F089581E00895BF927B
:1012A000CF92DF92EF92FF920F931F93CF93DF9332
:1012B000CDB7DEB7CA56D1090FB6F894DEBF0FBE60
:1012C000CDBFB82E0E94FF0844E150E0BE016F5A26
:1012D0007F4F8CEA93E00E948E2644E150E0BE01ED
:1012E0006F5A7F4F8CEA93E00E948E266E018DE349
:1012F000C80ED11C44E150E0B6018CEA93E00E9494
:1013000038267E0199E2E90EF11C44E150E0B70174
:101310008CEA93E00E9494268CEA93E00E94562681
:1013200090939803809397036BEB72E08E010F5FAD
:101330001F4FC8010E94D432C8010E942808C8016A
:101340000E94AC31BE016F5A7F4FC8010E941A3211
:10135000C8010E945408C8010E94AC316DEA72E0D5
:10136000C8010E94D432C8010E942808C8010E9406
:10137000AC31B601C8010E941A32C8010E9454085B
:10138000C8010E94AC316FE972E0C8010E94D432FA
:10139000C8010E942808C8010E94AC31B701C801E9
:1013A0000E941A32C8010E945408C8010E94AC3140
:1013B00061E972E0C8010E94D432C8010E94280885
:1013C000C8010E94AC3167EA72E0C8010E941A327B
:1013D000C8010E945408C8010E94AC3163E872E061
:1013E000C8010E94D432C8010E942808C8010E9486
:1013F000AC3160919703709198034AE050E087E028
:1014000094E00E944D3187E094E00E945E30BB2062
:1014100009F48BC087EA92E09F938F9386E792E06E
:101420009F938F931F930F930E946E37B801CE0145
:101430008B599F4F0E941A32CE018B599F4F0E94A9
:10144000F607CE018B599F4F0E94AC3168EE73E0D6
:1014500080E090E00E944D2C80910B018F93809151
:101460000A018F9388E692E09F938F931F930F93C7
:101470000E946E37B801CE018B599F4F0E941A32DD
:10148000CE018B599F4F0E94F607CE018B599F4F7B
:101490000E94AC3168EE73E080E090E00E944D2C39
:1014A000DF92CF9289E592E09F938F931F930F93E2
:1014B0000E946E37B801CE018B599F4F0E941A329D
:1014C000CE018B599F4F0E94F607CE018B599F4F3B
:1014D0000E94AC3168EE73E080E090E00E944D2CF9
:1014E000FF92EF9280E592E09F938F931F930F936B
:1014F0000E946E37B801CE018B599F4F0E941A325D
:10150000CE018B599F4F0E94F607CE018B599F4FFA
:101510000E94AC3168EE73E080E090E00E944D2CB8
:101520000FB6F894DEBF0FBECDBFC659DF4F0FB662
:10153000F894DEBF0FBECDBFDF91CF911F910F9109
:10154000FF90EF90DF90CF90BF900895CF93DF93FF
:10155000EC01E881F9810480F581E02DCE01099547
:10156000892BB9F3E881F9810680F781E02DCE015E
:10157000DF91CF9109948F929F92AF92BF92CF92B9
:10158000DF92EF92FF92CF93DF93EC014B010E9429
:101590001E2C6B017C01A12CB12CE881F981048007
:1015A000F581E02DCE010995892BC1F40E941E2CF6
:1015B0006C197D098E099F0986169706A806B9063B
:1015C00060F78FEF9FEFDF91CF91FF90EF90DF906B
:1015D000CF90BF90AF909F908F900895E881F98150
:1015E0000084F185E02DCE01DF91CF91FF90EF9047
:1015F000DF90CF90BF90AF909F908F900994CF9243
:10160000DF92EF92FF92CF93C82F0E941E2C6B01A6
:101610007C010E941E2C685B7B40810991096C153E
:101620007D058E059F0508F473C08C2F0E94482D00
:10163000892B79F720E432E44FE050E060E08C2F12
:101640000E94712D6C30710581059105A4F1643102
:10165000710581059105A4F16D3171058105910533
:10166000A4F16832710581059105A4F16C3371050F
:1016700081059105A4F16035710581059105A4F1FD
:101680006639710581059105A4F16C3221E072077C
:10169000810591059CF1683522E07207810591056D
:1016A00094F1603B74408105910594F560EB74E022
:1016B00080E090E030C060E072EC81E090E02BC010
:1016C00060E071EE80E090E026C060E076E980E0C6
:1016D00090E021C060E870E780E090E01CC060E02E
:1016E0007BE480E090E017C060E478E380E090E085
:1016F00012C060E875E280E090E00DC060EC72E13D
:1017000080E090E008C060E679E080E090E003C00F
:1017100060E070E0CB01CF91FF90EF90DF90CF9031
:1017200008950F931F93CF93DF931F92CDB7DEB72A
:101730008C0169830E94E4076981861741F0C80122
:101740000F90DF91CF911F910F910C946A390F90F8
:10175000DF91CF911F910F91089580939603682F89
:1017600080E090E00C94910BEF92FF920F931F9307
:10177000CF93DF937C018B01C0E0D0E0D801ED91E5
:10178000FC91EC0FFD1F6081CE018E0D9F1D0E940C
:101790006A392196C632D10589F7DF91CF911F9121
:1017A0000F91FF90EF900895AF92BF92CF92DF928A
:1017B000EF92FF920F931F93CF93DF93CDB7DEB7D6
:1017C000A8970FB6F894DEBF0FBECDBF6C017B01AA
:1017D0008E010F5F1F4F5E0187E2A80EB11CB8019A
:1017E000E01AF10AC701800F911F6FA378A70E942A
:1017F000E407F80181938F016FA178A5EA15FB0535
:1018000089F7C6010E941A32C601A8960FB6F8944D
:10181000DEBF0FBECDBFDF91CF911F910F91FF9023
:10182000EF90DF90CF90BF90AF900895FC01219191
:10183000222331F0DC012C932032C9F30196F7CF3B
:10184000FC011082089590919A03913019F091E073
:101850009827892F90E00895EF92FF920F931F939E
:10186000CF93DF9300D000D000D0CDB7DEB784E6B1
:10187000E82EF12C00E010E00F5F1F4F4AE050E02F
:10188000B80187E094E00E944D3164E770E0CE013A
:1018900001960E94D432CE0101960E942808CE0102
:1018A00001960E94AC31B701CE0101960E94D40B83
:1018B000CE0101960E945408CE0101960E94AC31DF
:1018C00088E2E80EF11C09301105B1F60E94FF080C
:1018D00068E670E0CE0101960E94D432CE010196F6
:1018E0000E942808CE0101960E94AC3183E690E068
:1018F0000E94E4074AE050E0682F87E094E00E94ED
:101900007A310E94FF0826960FB6F894DEBF0FBE0C
:10191000CDBFDF91CF911F910F91FF90EF90089570
:1019200067E18CEA93E00E94392962E08CEA93E057
:101930000C9437290F931F93CF93DF9300D000D0DF
:1019400000D0CDB7DEB78C018091970390919803BA
:1019500080179107F1F1B8018CEA93E00E942029E9
:101960008CEA93E00E9492291093980300939703C6
:1019700080910801909109018036994081F06AE8D0
:1019800070E0CE0101960E94D432CE0101960E94F1
:101990005408CE0101960E94AC3181E01BC066E77D
:1019A00070E0CE0101960E94D432CE0101960E94D1
:1019B0005408CE0101960E94AC318CEA93E00E945B
:1019C000BA2968E873E180E090E00E944D2C0E9403
:1019D000900C80E026960FB6F894DEBF0FBECDBF08
:1019E000DF91CF911F910F9108950F9300E020E0B8
:1019F00040E060E086E294E00E94CB2F20E046E0E9
:101A000065E087E094E00E94F11D8CEA93E00E947B
:101A1000902B67E873E086EA93E00E941A3241E077
:101A200020910A0130910B018091080190910901E8
:101A30002817390709F440E040939C0380E090E0C8
:101A40000E94E40791E0811101C090E09093960319
:101A50000F91089586EA93E00E94AC3187E094E00C
:101A60000C94981DDF92EF92FF920F931F93CF93E8
:101A7000DF93CDB7DEB7E2970FB6F894DEBF0FBEA7
:101A8000CDBF7C0100E010E087E094E00E94A60A50
:101A9000D82E0E944309811115C0E1E0F0E0EC0F5F
:101AA000FD1FE00FF11FD0826D2D87E094E00E94B2
:101AB0004C1C8DE0D81689F00133110574F40F5FCA
:101AC0001F4FE2CF01151105F9F26D2D87E094E06B
:101AD0000E944C1C01501109D7CFE1E0F0E0EC0F5F
:101AE000FD1FE00FF11F1082BE016F5F7F4FC70126
:101AF0000E941A32C701E2960FB6F894DEBF0FBEFD
:101B0000CDBFDF91CF911F910F91FF90EF90DF90AC
:101B100008950F931F93CF93DF9300D000D000D090
:101B2000CDB7DEB78C01CE0101960E94320DCE01F9
:101B300001960E946D3380919603882331F069816C
:101B40007A81C8010E94061906C0BE016F5F7F4FEF
:101B5000C8010E948731CE0101960E94AC31C801B4
:101B600026960FB6F894DEBF0FBECDBFDF91CF91A2
:101B70001F910F9108950F931F93CF93DF93CDB7CC
:101B8000DEB72C970FB6F894DEBF0FBECDBF67E16E
:101B900074E0CE0101960E94D432CE0101960E94DB
:101BA0002808CE0101960E94AC3187E094E00E94A3
:101BB000A60A8C01682F87E094E00E9498300431D7
:101BC0001105E1F05CF40A30110509F30D3011053F
:101BD000F1F208301105B1F480E011C001331105B4
:101BE000F1F024F40032110591F20CC0023311051A
:101BF000C9F00333110509F4C4C004C081E00E9498
:101C0000AD0BC5CF6DEF73E0CE0101960E94D432CB
:101C1000CE0101960E945408CE010196AFC001E0AA
:101C200010E002C000E010E00E94FF0867E873E0E7
:101C3000CE0107960E941A320130110521F568EF96
:101C400073E0CE0101960E94D432CE0101960E942B
:101C50002808CE0101960E94AC31CE0101960E9467
:101C6000890DBE016F5F7F4FCE0107960E94A7329C
:101C7000CE0101960E94AC316F8178858CEA93E0A9
:101C80000E945C2923C06CEE73E0CE0101960E9495
:101C9000D432CE0101960E942808CE0101960E94FE
:101CA000AC31CE0101960E94890DBE016F5F7F4F5E
:101CB000CE0107960E94A732CE0101960E94AC3158
:101CC0006F8178858CEA93E00E947B290E94FF084F
:101CD00066EE73E0CE0101960E94D432CE010196E9
:101CE0000E942808CE0101960E94AC31CE010196D7
:101CF0000E94890DBE016F5F7F4FCE0107960E9443
:101D0000A732CE0101960E94AC316F8178858CEAB2
:101D100093E00E9451298CEA93E00E9492298CEA78
:101D200093E00E94412560E27EE48CEA93E00E9409
:101D3000542A882399F06AEC73E0CE0101960E9440
:101D4000D432CE0101960E945408CE0101960E9421
:101D5000AC31CE0107960E94AC3113C062EB73E048
:101D6000CE0101960E94D432CE0101960E94540801
:101D7000CE0101960E94AC31CE0107960E94AC3193
:101D800006CF2C960FB6F894DEBF0FBECDBFDF9105
:101D9000CF911F910F9108950F931F93CF93DF93CE
:101DA00000D000D000D0CDB7DEB76DED71E0CE0130
:101DB00001960E94D432CE0101960E942808CE01DD
:101DC00001960E94AC3160910601709107014AE0D2
:101DD00050E087E094E00E944D3169ED71E0CE0162
:101DE00001960E94D432CE0101960E942808CE01AD
:101DF00001960E94AC31CE0101960E94890D8D8121
:101E00009E81892B31F0CE0101960E94CC338B014B
:101E100004C00091060110910701CE0101960E94B5
:101E2000AC31C80126960FB6F894DEBF0FBECDBF09
:101E3000DF91CF911F910F910895CF93DF93CDB78D
:101E4000DEB7E8970FB6F894DEBF0FBECDBF60E2F5
:101E500071E08E010F5F1F4FC8010E94D432C8018C
:101E60000E945408C8010E94AC31412C512C32010F
:101E7000C12CD12C7601312C93E0A92E91E0B92E02
:101E800020EF822E20E0922E8CEA93E00E94DB214C
:101E900018161906B4F48FEFC81AD80AE80AF80A17
:101EA00080919B0381110E94E6078CEA93E00E94D7
:101EB0007F21682F87E094E00E944C1C33243394E8
:101EC000E3CF87E094E00E94B81C181619068CF442
:101ED0009FEF491A590A690A790A87E094E00E943B
:101EE0002B1C682F8CEA93E00E941120332433943A
:101EF000E8CFC2019301332039F240919B03411195
:101F000004C040919C03442399F01F921F921F929A
:101F10001F923F932F939F938F93FF92EF92DF92A5
:101F2000CF92BF92AF921F930F930E946E370EC055
:101F30007F926F925F924F92FF92EF92DF92CF92D9
:101F40009F928F921F930F930E946E370FB6F89453
:101F5000DEBF0FBECDBFB801CE01C3960E941A32BC
:101F6000CE01C3960E94F607CE01C3960E94AC3103
:101F70008BCF9F92AF92BF92CF92DF92EF92FF9260
:101F80000F931F93CF93DF93CDB7DEB7A4970FB610
:101F9000F894DEBF0FBECDBFCE0101967C013DEDB2
:101FA000C32E34E0D32E49ECA42E44E0B42E992461
:101FB000939460EF74E0C7010E94D432C7010E947D
:101FC0002808C7010E94AC3180919B03882319F037
:101FD0008CEA92E002C084EB92E09F938F93DF92B1
:101FE000CF92FF92EF920E946E37B701CE014F96CB
:101FF0000E941A32CE014F960E945408CE014F968D
:102000000E94AC310F900F900F900F900F900F9097
:1020100080919903811103C08CEA92E002C084EBA5
:1020200092E09F938F93BF92AF92FF92EF920E94A4
:102030006E37B701CE014F960E941A32CE014F96ED
:102040000E945408CE014F960E94AC3165E874E0BE
:10205000CE014F960E94D432CE014F960E9428089E
:10206000CE014F960E94AC3187E094E00E94A60A10
:102070008C01682F87E094E00E9498300F900F90B9
:102080000F900F900F900F900133110589F1BCF460
:102090000D30110509F48DCF4CF40830110509F409
:1020A00047C00A30110509F484CF48C00431110536
:1020B00009F440C00032110509F47BCF3FC004335E
:1020C0001105E9F074F402331105B1F00333110581
:1020D000A9F560919B03692560939B038BE090E0D9
:1020E00022C00533110511F106331105B1F126C0E7
:1020F00080E00E944F095DCF0E94BB0D5ACF8091B6
:102100009903892580939903882311F080E001C009
:1021100081E00E94230C682F80E10E94122D6091C3
:10212000990381E190E00E94910B43CF0E941D0F23
:1021300080E001C081E00E94AD0B3BCF6BE674E014
:10214000CE014F960E94D432CE014F960E94540881
:10215000CE014F960E94AC312CCFA4960FB6F894C6
:10216000DEBF0FBECDBFDF91CF911F910F91FF90CA
:10217000EF90DF90CF90BF90AF909F9008951F9306
:10218000CF93DF93EC01162F6FEF8CEA93E00E9460
:102190001120CD3FD10511F46DEF01C06BEF8CEA3A
:1021A00093E00E941120612F8CEA93E0DF91CF91A0
:1021B0001F910C9411201F93CF93DF93EC01162FE6
:1021C0006FEF8CEA93E00E941120CD3FD10511F40E
:1021D0006CEF01C06EEF8CEA93E00E941120612F3A
:1021E0008CEA93E0DF91CF911F910C9411206FEF57
:1021F0008CEA93E00E9411206EEF8CEA93E00E943B
:10220000112062E28CEA93E00E9411206FEF8CEAC9
:1022100093E00E9411206EEF8CEA93E00E9411205F
:1022200061E08CEA93E00C941120CF93DF9360E19E
:1022300077E28CEA93E00E94BB0A8F3F910591F50B
:102240000E94F71068E873E18CEA93E00E94BB0AF1
:102250008F3F910539F58CEA93E00E94A60A8CEA3B
:1022600093E00E94A60AEC018F3F2FEF920751F3F3
:102270008B5F9109049730F78CEA93E00E94A60ADD
:102280008F3F2FEF9207F1F28330910531F463E035
:1022900070E0CE010E94BF10D5CFBC01CE010E94DC
:1022A000DB10D0CFDF91CF910895CF92DF92EF92E4
:1022B000FF921F93CF93DF9300D000D000D0CDB713
:1022C000DEB787E094E00E942B1C182F0E941E2C82
:1022D000685E734081099109C0909F03D090A0036C
:1022E000E090A103F090A203C616D706E806F9060F
:1022F000D8F41B32B9F48091A3039091A4038B32DC
:10230000910531F081E08093A5038BE290E005C058
:102310002091A5032F5F2093A5039093A40380939E
:10232000A3030CC01092A5030E941E2C60939F0370
:102330007093A0038093A1039093A2038091A503BF
:102340008330D9F465EB70E0CE0101960E94D4325F
:10235000CE0101960E94F607CE0101960E94AC3193
:1023600081E080939E031092A50310929F03109228
:10237000A0031092A1031092A20380919B038823D3
:1023800029F04A9B02C04198FCCF419A612F8CEA08
:1023900093E00E94112026960FB6F894DEBF0FBE80
:1023A000CDBFDF91CF911F91FF90EF90DF90CF9045
:1023B0000895CF92DF92EF92FF920F931F93CF93E6
:1023C000DF93CDB7DEB760970FB6F894DEBF0FBED0
:1023D000CDBFCE0101967C018CEA93E00E94DB2107
:1023E000019609F46FC080919C03882309F44CC0C6
:1023F00000E010E08CEA93E00E94DB211816190639
:10240000B4F48091B0008F7D8093B0005B9A8CEA29
:1024100093E00E947F21F701E00FF11F80830F5F9F
:102420001F4F0A30110534F309E010E0E3CF6701D4
:10243000C6018E199F09801791078CF4F6016191EE
:102440006F0187E094E00E944C1C87E094E00E94BA
:10245000B81C1816190664F70E945511F6CF809122
:10246000B0008F7D8093B0005B9815C080919B0376
:1024700081110E94E6078CEA93E00E947F21682F79
:1024800087E094E00E944C1C8CEA93E00E94DB21E0
:10249000181619065CF387E094E00E94B81C181621
:1024A00019061CF40E945511F6CF8CEA93E00E94A5
:1024B0007D2A882329F080919E03882309F48CCFFC
:1024C00010929E038CEA93E00E948A2A6EE371E0E8
:1024D000CE010B960E94D432CE010B960E94750855
:1024E000CE010B960E94AC3180919903882339F07C
:1024F00080E00E94230C682F80E10E94122D6096DC
:102500000FB6F894DEBF0FBECDBFDF91CF911F9104
:102510000F91FF90EF90DF90CF9008950F931F934E
:10252000CF93DF93CDB7DEB72C970FB6F894DEBF0D
:102530000FBECDBF00919703109198036EE372E038
:10254000CE0101960E94D432CE0101960E94280845
:10255000CE0101960E94AC314AE050E0B80187E01C
:1025600094E00E944D316AE372E0CE0101960E9430
:10257000D432CE0101960E942808CE0101960E9415
:10258000AC31CE0107960E94890D8B859C85892BE5
:1025900051F0CE0107960E94CC338B01CB010E94F3
:1025A0009A0C8111FFCF10939803009397038CEA44
:1025B00093E00E94522B68E172E0CE0101960E94E6
:1025C000D432CE0101960E942808CE0101960E94C5
:1025D000AC3160919703709198034AE050E087E036
:1025E00094E00E9455318CEA93E00E947D2A81118B
:1025F0001AC087E094E00E94B81C181619069CF7D0
:1026000087E094E00E942B1C6EE072E0CE01019600
:102610000E94D432CE0101960E945408CE01019648
:102620000E94AC3112C06AEF71E0CE0101960E94A7
:10263000D432CE0101960E945408CE0101960E9428
:10264000AC310E9415110E94D911CE0107960E944B
:10265000AC312C960FB6F894DEBF0FBECDBFDF9124
:10266000CF911F910F910895AF92BF92CF92DF92B9
:10267000EF92FF920F931F93CF93DF93CDB7DEB707
:10268000C854D1090FB6F894DEBF0FBECDBF7C0190
:102690006B01A42E61ED71E08E010F5F1F4FC80129
:1026A0000E94D432B801C7010E944C33B82EC80131
:1026B0000E94AC31BB2049F06EEB71E0C7010E9473
:1026C000B33276E4C72E74E1D72E66EB71E0C80111
:1026D0000E94D432B801C7010E944C33B82EC80101
:1026E0000E94AC31BB2049F06BEA71E0C7010E9447
:1026F000B33266E4C62E64E1D62EF70181818F9352
:1027000080818F9388E991E09F938F931F9252E38A
:10271000B52EBF921F930F930E943E37C8010E94AF
:10272000D808F7016081718120E130E0AE014D5C95
:102730005F4F8CEA93E00E94B2270FB6F894DEBF99
:102740000FBECDBF811118C060E771E0CE018D5B77
:102750009F4F0E94D432CE018D5B9F4F0E9475081F
:10276000CE018D5B9F4F0E94AC3168EE73E080E03C
:1027700090E00E944D2C46C021E0A601BE016D5C98
:102780007F4F8CEA93E00E94C02A8823E1F0F70192
:1027900081818F9380818F9380E691E09F938F93C7
:1027A0001F92BF921F930F930E943E37C8010E9451
:1027B000D8080FB6F894DEBF0FBECDBFA11015C06C
:1027C0000E94151112C060E571E0CE018D5B9F4F34
:1027D0000E94D432CE018D5B9F4F0E947508CE01BE
:1027E0008D5B9F4F0E94AC310DC08091990388236F
:1027F00039F081E00E94230C682F80E10E94122DA5
:102800000E94D911C85BDF4F0FB6F894DEBF0FBE30
:10281000CDBFDF91CF911F910F91FF90EF90DF908F
:10282000CF90BF90AF9008950F931F93CF93DF93F6
:10283000CDB7DEB72C970FB6F894DEBF0FBECDBF75
:102840006AEE71E0CE0101960E94D432CE0101966B
:102850000E942808CE0101960E94AC3166EA73E01E
:10286000CE0101960E949E32CE0101960E94280858
:10287000CE0101960E94AC3166EE71E0CE01019668
:102880000E94D432CE0101960E942808CE01019602
:102890000E94AC31CE0107960E94890D8B859C85E4
:1028A000892B91F00E94CC0E8C01BE01695F7F4F95
:1028B00086EA93E00E948732109307010093060195
:1028C000BE01695F7F4F0FC08091AA039091AB0357
:1028D000892BB9F00E94CC0E8C0190930701809354
:1028E000060166EA73E0CE0101960E949E3240E046
:1028F000B801CE0101960E943413CE0101960E94C8
:10290000AC31CE0107960E94AC312C960FB6F894EC
:10291000DEBF0FBECDBFDF91CF911F910F91089504
:10292000EF92FF920F931F93CF93DF93CDB7DEB754
:102930002C970FB6F894DEBF0FBECDBF8C01BC0143
:10294000CE0107960E941A32F80180818823E9F1AE
:102950006AE370E0C8010E94DD360097C1F0FC0117
:1029600011927F01B801CE0101960E941A32BE0178
:102970006F5F7F4FCE0107960E94A732CE0101966E
:102980000E94AC31C7010E9452368C0102C007E19F
:1029900010E0BE01695F7F4F86EA93E00E948732B4
:1029A0001093070100930601BE01695F7F4FCE01BE
:1029B00001960E949E3240E0B801CE0101960E942D
:1029C0003413CE0101960E94AC31CE0107960E94CD
:1029D000AC312C960FB6F894DEBF0FBECDBFDF91A1
:1029E000CF911F910F91FF90EF900895FF920F9359
:1029F0001F93CF93DF93CDB7DEB7E0970FB6F89470
:102A0000DEBF0FBECDBFE8E2FE2E0E94FF080E948F
:102A10002C0C64E673E0CE0101960E94D432CE0104
:102A200001960E942808CE0101960E94AC3187E0F1
:102A300094E00E94A60A182F682F87E094E00E9475
:102A40009830812F8F7D8D3409F062C060E473E08F
:102A5000CE0101960E94D432CE0101960E94280830
:102A6000CE0101960E94AC3187E094E00E94A60A54
:102A70008FA718AACE018F960E9452368C018A30F9
:102A8000910518F64AE050E0BC0187E094E00E940E
:102A90004D310115110509F4B8CF6EE273E0CE0196
:102AA00001960E94D432CE0101960E942808CE01E0
:102AB00001960E94AC31CE0189960E94890D8DA5A8
:102AC0009EA501501109892B41F0BE01675D7F4F22
:102AD000CE0101960E949E3206C067E873E0CE01E7
:102AE00001960E941A32F09EC001F19E900D1124B1
:102AF000BE016F5F7F4F8C599F4F0E94B40BCE0178
:102B000001960E94AC31CE0189960E94AC317DCFF6
:102B1000833479F567E173E0CE0101960E94D432E7
:102B2000CE0101960E942808CE0101960E94AC3188
:102B300087E094E00E94A60A8F7D893509F065CF71
:102B400004E610E065EA72E0CE0101960E941A32B6
:102B5000BE016F5F7F4FC8010E94B40BCE0101968A
:102B60000E94AC31085D1F4F0C3C81E0180751F703
:102B70004CCF813451F565EE72E0CE0101960E9492
:102B8000D432CE0101960E942808CE0101960E94FF
:102B9000AC3187E094E00E94A60A8FA718AACE0164
:102BA0008F960E9452368C018A30910508F02DCF05
:102BB0004AE050E0BC0187E094E00E944D31602F74
:102BC00083E690E00E94910B20CF1FA718AACE01A8
:102BD0008F960E9452368A30910508F016CF0097E2
:102BE00009F10197F89EB001F99E700D11246C59FE
:102BF0007F4FCE0189960E94D40B69A57AA548E241
:102C000050E0CE0101960E94F836CE0189960E94CE
:102C1000AC31CE0101960E94160CCE0101960E94A5
:102C20009014F3CEE0960FB6F894DEBF0FBECDBF82
:102C3000DF91CF911F910F91FF900895CF93DF9374
:102C4000CDB7DEB7AE970FB6F894DEBF0FBECDBFDF
:102C500080919D039FEF980F993008F058C09927F5
:102C600087FD9095019728E2289FB001299F700D5C
:102C700011246C597F4FCE0189960E94D40B69A50F
:102C80007AA548E250E0CE0101960E94F836CE01C6
:102C900089960E94AC316AED70E0CE0189960E945F
:102CA000D432CE0189960E942808CE0189960E94CE
:102CB000AC31BE016F5F7F4FCE0189960E941A3200
:102CC000CE0189960E945408CE0189960E94AC31AB
:102CD0006DEB70E0CE0189960E94D432CE018996C8
:102CE0000E945408CE0189960E94AC3160ED77E0D5
:102CF00087E094E00E94BB0A019629F087E094E007
:102D00000E94A60A04C0CE0101960E949014AE96BD
:102D10000FB6F894DEBF0FBECDBFDF91CF910895FF
:102D2000CF92DF92EF92FF926C0190930901809312
:102D3000080180EB94E00E94EB2D62E070E080E0FF
:102D400090E00E944D2CE12CF12CB701A6018CEAF9
:102D500093E00E94522568EE73E080E090E00E94CC
:102D60004D2C80EB94E00E94D42E26E0B701A60102
:102D700080EB94E0FF90EF90DF90CF900C94722E58
:102D8000CF93DF93CDB7DEB72C970FB6F894DEBFA5
:102D90000FBECDBF0E94752C8CE294E00E94B81B40
:102DA00060E08CE294E00E94AE1961E08CE294E075
:102DB0000E94681B3A9A81E190E00E94E40791E04A
:102DC000811101C090E090939903992311F080E064
:102DD00001C081E00E94230C682F80E10E94122D27
:102DE00082E090E00E94E407182F83E090E00E94C8
:102DF000E407212F30E0322F2227280F311D203BFE
:102E000084E0380729F430930B0120930A011AC09B
:102E1000203699E03907B9F3203C82E1380799F36D
:102E2000203895E2390779F321158BE4380759F3F7
:102E3000211596E9390739F380E699E090930B0163
:102E400080930A0160E085E00E94D92C61E085E072
:102E50000E94122D65E076E0CE0101960E94D432E8
:102E6000CE0101960E94F607CE0101960E94AC3178
:102E700085E090E00E94FF0A6B017C01603B24E04A
:102E800072078105910509F180E6C81689E0D80628
:102E9000E104F104D1F090ECC91692E1D906E10405
:102EA000F10499F020E8C21625E2D206E104F1040B
:102EB00061F0C1148BE4D806E104F10431F0C114CF
:102EC00096E9D906E104F104A9F5FF92EF92DF92A9
:102ED000CF9281E096E09F938F938E01095F1F4F01
:102EE0001F930F930E946E37B801CE0101960E9486
:102EF0001A32CE0101960E94F607CE0101960E9479
:102F0000AC3168EB7BE080E090E00E944D2CC092F9
:102F10000A01D0920B016D2D82E090E00E94910B8E
:102F20006C2D83E090E00E94910B0FB6F894DEBF09
:102F30000FBECDBF40910A0150910B0160E070E0DF
:102F400087E094E00E94211E409108015091090100
:102F500060E070E026E080EB94E00E94722E48EE84
:102F600053E060E070E087E094E00E94813141E04E
:102F700020910A0130910B01809108019091090183
:102F80002817390709F440E040939C033D98399A8B
:102F90005298539A8091B0008F7D8093B0005B98D7
:102FA000419A87E094E00E945E3063EF75E0CE01C5
:102FB00001960E94D432CE0101960E947508CE017E
:102FC00001960E94AC3140E050E060EB74E08CEA86
:102FD00093E00E94D3288823C1F069EE75E0CE010A
:102FE00001960E94D432CE0101960E947508CE014E
:102FF00001960E94AC310E94900C80910A01909140
:103000000B018036994089F422C06BED75E0CE014A
:1030100001960E94D432CE0101960E947508CE011D
:1030200001960E94AC310E941D0F68EE73E080E0B3
:1030300090E00E944D2C80910A0190910B01803B01
:1030400024E0920711F480E699E00E94901641E096
:1030500020910A0130910B018091080190910901A2
:103060002817390709F440E040939C038CEA93E069
:103070000E948A2A83E690E00E94E40780939D03E1
:103080008BE090E00E94E40791E0811101C090E0A4
:1030900090939B030E941E1663EC75E0CE0101968F
:1030A0000E94D432CE0101960E945408CE010196AE
:1030B0000E94AC310E94FF0881E00E944F096CEB36
:1030C00075E0CE0101960E94D432CE0101960E9495
:1030D000F607CE0101960E94AC310E94030965E516
:1030E00075E0CE0101960E94D432CE0101960E9475
:1030F0002808CE0101960E94AC3187E094E00E943E
:10310000A60A7C01682F87E094E00E94983080E254
:10311000E816F104A1F2ACF42AE0E216F10479F227
:1031200034F498E0E916F10461F580E027C02DE061
:10313000E216F10421F284E1E816F10411F581E0D0
:103140001DC092E3E916F10499F03CF481E3E8161E
:10315000F104B9F40E941414B2CF93E3E916F10418
:1031600051F024E3E216F10461F40E94B90FA7CFF5
:103170000E94F614A4CF0E948E12A1CF0E94AD0B24
:103180009ECF6BE375E0CE0101960E94D432CE0152
:1031900001960E945408CE0101960E94AC318FCF57
:1031A000CF93C82F80EA8C0F803210F490E603C0D2
:1031B000C03E18F090EC9C0F03C0CD3001F19C2F65
:1031C0009A30F9F0903210F48EE21EC0903AD9F0A5
:1031D0008FE3890F8A3110F480E805C08FEB890FE7
:1031E0008A3118F480E2890F0FC08C2F992787FD50
:1031F00090950E949936892B39F38C2F05C08AE06F
:1032000003C08DE001C080E2CF910895EF92FF925C
:103210000F931F93CF93DF938C017B0167E873E0DB
:103220000E941A32E7018991882339F00E94D01850
:10323000682FC8010E940933F6CFC801DF91CF91F2
:103240001F910F91FF90EF9008958A30C1F08D305B
:10325000C1F08032D4F08036B1F09FE9980F9A31F6
:1032600010F4805208959FEB980F9A3110F4805813
:1032700008958B3754F480364CF0805A08958DE0D1
:1032800008958AE0089587E208958FE30895EF9204
:10329000FF920F931F93CF93DF938C017B0167E81D
:1032A00073E00E941A32E7018991882339F00E9465
:1032B0002519682FC8010E940933F6CFC801DF9194
:1032C000CF911F910F91FF90EF9008950DB407FEDD
:1032D000FDCF0895FC016387448708950F93603400
:1032E000D8F54033C8F50130C9F42130A9F5E42FF1
:1032F000E695E695E69580E4E89FF0011124E60F57
:10330000F11DE45FFE4F477081E090E0042E01C0A4
:10331000880F0A94EAF7908198271DC0842F86951C
:1033200086958695E62FF0E0477090E4899FE00D42
:10333000F11D1124E45FFE4F81E090E0042E01C0F6
:10334000880F0A94EAF7213019F49081982B03C072
:1033500080959081982390830F910895DC016111ED
:103360002EC018961C92189780918C0290918D0215
:10337000FC01249116962C9316973196E49117969A
:10338000EC931797FC013296E4911996EC931997F8
:10339000FC013396E4911A96EC931A97FC0134964B
:1033A00024913196849190E0F4E62F9F800D911D39
:1033B00011241E969C938E931D9781E0089580E0C2
:1033C00008955F926F927F928F929F92AF92BF9279
:1033D000CF92DF92EF92FF920F931F93CF93DF93E1
:1033E000EC01162FB42EF02E3985231708F4B0C047
:1033F0006A8570E0630F711D822F90E08617970732
:103400000CF0A6C0D22ED31A9F80969496949694D0
:1034100081E08915C0F1C12E3C2D311B2E81822FF8
:1034200090E0A32FB0E08A179B070CF491C03217ED
:1034300091F0E885F0E0EE0FFF1FE457FD4FD29EBC
:10344000A00DB11D112416960190F081E02DEA0F18
:10345000FB1F949001C0912CA12C4A2D4B0D90FE86
:1034600003C00E2D2F2D04C021E0F11020E00E2D01
:103470006C2DCE010E946E199694A39488E0A81238
:10348000ECCFC394C9CFED85FE852E8130E0CF010E
:10349000B9010E94D8338D2D90E00E94D833829FCD
:1034A0006001839FD00C929FD00C11249E9E9001AE
:1034B0009F9E300D1124269FC001279F900D369F9F
:1034C000900D1124C80ED91E742EA12CB12C86E0AB
:1034D000C80ED11C812E482D411B8E81481780F5C6
:1034E000E885F0E0EE0FFF1FE457FD4F2D853E8588
:1034F000A29EC001A39E900DB29E900D11248C0D32
:103500009D1D840F911D0190F081E02DE80FF91FA2
:103510005490612C462D470D50FE03C00E2D2F2DCB
:1035200004C021E0F11020E00E2D682DCE010E9494
:103530006E195694639488E06812ECCF8394CBCFD5
:103540008FEFA81AB80A88E0780EA91408F4C2CF41
:10355000DF91CF911F910F91FF90EF90DF90CF906F
:10356000BF90AF909F908F907F906F905F900895E5
:10357000EF920F93CF93DF93EC01262F6A30A9F0DF
:103580006D30C1F0ED800C814C856B850E94E11996
:103590004E812B85240F2F5F2B8730E080E490E055
:1035A000841B9109821793072CF48C859F81890FC6
:1035B0008C871B8681E090E0DF91CF910F91EF9097
:1035C00008952A9A22982898209A60E08DE00E9417
:1035D000122D60E08BE00E94122D61E08DE00E94D0
:1035E000D92C61E08BE00E94D92C8CB580618CBD18
:1035F00008958CB580648CBD2A98229A08950DB4E4
:1036000007FEFDCF2898209A2A9A22988CB58F7BA6
:103610008CBD0895CF93DF9300D0CDB7DEB74A833A
:1036200069830E94F91A69816EBD0E9466194A81F8
:103630004EBD0F900F90DF91CF910C94FF1ACF9356
:10364000DF9300D01F92CDB7DEB72B834A83698307
:103650000E94F91A69816EBD0E9466194A814EBDA9
:103660000E9466192B812EBD0F900F900F90DF9155
:10367000CF910C94FF1A0F931F93CF93DF93EC011C
:1036800040E060E20E940A1B2FE740E061E2CE01C9
:103690000E941F1B27E040E062E2CE010E941F1B38
:1036A0000E94F91A289A20981EBC0FEF13E00E947E
:1036B00066191EBC01501109D1F70E94FF1A42E0A1
:1036C00060E2CE01DF91CF911F910F910C940A1B04
:1036D000613011F40C943B1B80E891E0ECE0F1E0E8
:1036E000DF019C011D9221503040E1F708950F93B6
:1036F0001F93CF93DF93EC0140E060E20E940A1B2E
:103700002FE540E261E2CE010E941F1B25E040E070
:1037100062E2CE010E941F1B0E94F91A289A20988B
:1037200080910C018EBD0DE011E00E946619F80138
:1037300081918F018EBDF2E00C381F07B1F70E9416
:10374000FF1A42E060E2CE01DF91CF911F910F910D
:103750000C940A1B2CB5982F93702C7F922B9CBD38
:103760009DB582FB882780F99E7F982B9DBD08958B
:10377000CF93DF93EC0160E00E94AE1981E08C836F
:103780001D821B861C865F98579A61E084E00E9428
:10379000D92C61E084E00E94122D6AE070E080E0A4
:1037A00090E00E944D2C5F9A579865E070E080E0B1
:1037B00090E00E944D2C5F98579A84E00E94AA1BCB
:1037C0000E94E11A65E070E080E090E00E944D2CDC
:1037D0005F9A57986AE070E080E090E00E944D2C7C
:1037E0004FE268EACE010E940A1B44E16DE8CE0177
:1037F0000E940A1B0E94F91A81EA8EBD0E94FF1ADC
:103800000E94F91A88EC8EBD0E94FF1A4FE861E809
:10381000CE010E940A1B41EF69EDCE010E940A1BF6
:1038200040E46BEDCE010E940A1B0E94F91A8FEA58
:103830008EBD0E94FF1ACE01DF91CF910C943B1BED
:1038400010922F0410922E048FEB92E090932D048F
:1038500080932C04089520917D0430917E042817D4
:103860003907B9F490913B0480913C04981789F092
:10387000E0913B04F0E0E35CFB4F808120913B044E
:1038800030E02F5F3F4F2F73332720933B0490E0AE
:1038900008958FEF9FEF08951F93CF93DF93DC017F
:1038A0005C968D919C915D97009749F481E090E042
:1038B00013969C938E93129780E090E03BC05196B4
:1038C000ED91FC91529750962C915097322F309554
:1038D0001FB75E964C915E9741FB772770F941FDCB
:1038E0006095F8944081772311F0422B01C0432367
:1038F0004083EC012197F1F748E0508160FF02C05E
:10390000522B01C053235083EC012197F1F76695A8
:10391000415099F78081772311F0832301C0822BD6
:1039200080831FBF5C968D919C915D970197F1F705
:1039300081E090E0DF91CF911F91089520917D0467
:1039400030917E042817390781F490913B048091CF
:103950003C04981751F0E0913B04F0E0E35CFB4F2E
:103960008081992787FD909508958FEF9FEF0895A7
:1039700020917D0430917E042817390771F48091DD
:103980003C0420913B0490E0805C9F4F821B910996
:1039900060E470E00E94EC33089580E090E00895C8
:1039A00020917D0430917E042817390739F48FB7B0
:1039B000F89410923C0410923B048FBF0895E0915C
:1039C0007D04F0917E04E817F90769F4A389B489AE
:1039D0009C918589809589238C9310927E04109206
:1039E0007D0481E0089580E00895CF93DF93EC019A
:1039F0008A8D9B8D892BF1F080917D0490917E04BE
:103A00008C179D07B9F0009711F00E94DF1C8E8D76
:103A10008E7F8E8F10923C0410923B04D0937E04D4
:103A2000C0937D04EB89FC8980819D89892B8083EB
:103A300081E001C080E0DF91CF9108951F920F9245
:103A40000FB60F9211242F933F934F935F936F9371
:103A50007F938F939F93AF93BF93EF93FF93E091E7
:103A60007D04F0917E04309709F451C0868DA685BF
:103A7000B785958581FF04C08C91892329F447C0BF
:103A80008C91892309F043C0A389B4899C918589CD
:103A9000809589238C93868997890197F1F7208DEA
:103AA000318DA685B785758558E040E0C90101973D
:103AB000F1F7842F90E095958795482F6C916723B7
:103AC00009F04068515091F7868D81FD40958091B5
:103AD0003C0490E001968F73992720913B042817AE
:103AE00049F0A0913C04B0E0A35CBB4F4C938093A1
:103AF0003C0403C0868D8160868F828D938D0197F3
:103B0000F1F7A389B4898C919589892B8C93FF91C6
:103B1000EF91BF91AF919F918F917F916F915F9145
:103B20004F913F912F910F900FBE0F901F901895BE
:103B300027EC32E0FC01318320830C94DF1C1F93BF
:103B4000CF93DF93EC01162F6E8D6695617081E047
:103B50006827812F0E94122D61E0812F0E94D92CAD
:103B6000812F90E0FC01EA56F14FE491E88BFC01D3
:103B7000E655F14FE491F0E0EE0FFF1FE853F14FEF
:103B8000859194919A8B898BDF91CF911F910895A4
:103B90001F93CF93DF93EC01162F60E0812F0E94DB
:103BA000D92C8E8D81FD04C061E0812F0E94122DE1
:103BB0001C87812F90E0FC01EA56F14FE491ED87DC
:103BC000FC01E655F14FE491F0E0EE0FFF1FE254E7
:103BD000F14F859194919F878E87DF91CF911F91AF
:103BE0000895FF920F931F93CF93DF93EC01F62E6E
:103BF000522F1B821A8208EE13E020E030E00C8383
:103C00001D832E833F8387EC92E0998388831F8AEC
:103C10001E8A198E188E1B8E1A8E1D8E1C8E8E8DEE
:103C20008E7F50FB81F98E8F642FCE010E949F1DE5
:103C30006F2DCE01DF91CF911F910F91FF900C94CA
:103C4000C81DCF93DF93EC019A01AB011B8E1A8E36
:103C5000198E188E1F8A1E8A60E079E08DE390E04D
:103C60000E942234C9012430310520F0B90163508B
:103C7000710902C061E070E07D8F6C8FEC85E631E8
:103C800008F068C0B901769567956431710518F040
:103C90006351710902C061E070E07F8B6E8B069703
:103CA00018F0C901059702C081E090E0998F888FD4
:103CB000C901880F991F820F931F96958795969536
:103CC00087958D30910510F00C9702C081E090E04F
:103CD0009B8F8A8F20916800E83050F091E0EE30A1
:103CE00008F490E081E001C0880F9A95EAF701C0DE
:103CF00084E0822B809368002C85283038F02E30A9
:103D000040F0263148F48CE690E008C08DE690E063
:103D100005C08BE690E002C080E090E09C8B8B8B2E
:103D2000283030F481E001C0880F2A95EAF70DC0F1
:103D3000822F90E02E3010F4089701C00E9791E08A
:103D400001C0990F8A95EAF7892F8D8B8C8D9D8DF7
:103D50000197F1F7CE01DF91CF910C94F51CDC01B6
:103D60001C968D919C911D97DC01ED91FC91068034
:103D7000F781E02D0994DC011C968D919C911D9793
:103D8000DC01ED91FC910480F581E02D0994DC01CA
:103D90001C968D919C911D97DC01ED91FC91028404
:103DA000F385E02D0994DC011C968D919C911D9763
:103DB000DC01ED91FC910084F185E02D09942F92B6
:103DC0003F924F925F926F927F928F929F92AF92AB
:103DD000BF92CF92DF92EF92FF920F931F93CF93F8
:103DE000DF93CDB7DEB760970FB6F894DEBF0FBE96
:103DF000CDBF2B013C0169014A3021F5CE0101966E
:103E00001C01E12CF12C5AE0852E912CA12CB12C17
:103E1000C301B201A50194010E9400349FEFE91A89
:103E2000F90A80E3840DEAE02E9F80191124F10144
:103E300081931F012115310541055105C9F1290162
:103E40003A01E6CFFE01319680E090E0B301A20195
:103E50004F705527662777279C012F5F3F4F4A30C9
:103E600051056105710510F4A0E301C0A1E44A0FFA
:103E7000419344E076946794579447944A95D1F7D8
:103E8000411451046104710411F0C901DFCFE1E074
:103E9000F0E0EC0FFD1FE20FF31F48E740837C01C9
:103EA000F3E0EF0EF11CFE01E80FF91F20E323837E
:103EB00021E0E21AF108F60180E090E001501109DA
:103EC0000196A1E0B0E0AC0FBD1FAE0DBF1D2C915F
:103ED00021931E141F04ECF0F601E80FF91F108265
:103EE00060960FB6F894DEBF0FBECDBFDF91CF91C5
:103EF0001F910F91FF90EF90DF90CF90BF90AF9008
:103F00009F908F907F906F905F904F903F902F90F9
:103F1000089521E0E21AF10880179107ECF6D0CF5E
:103F2000CF92DF92EF92FF920F931F93FC0140E03C
:103F300060E070E0CB010191002309F449C020ED5D
:103F4000200F2A30B0F414E0660F771F881F991FE6
:103F50001A95D1F76053710981099109C02EDD24AA
:103F6000C7FCD094ED2CFD2C6C0D7D1D8E1D9F1D6E
:103F7000E2CF2FE9200F263060F4B4E0660F771F00
:103F8000881F991FBA95D1F7675571098109910961
:103F90000FC02FEB200F2630A8F4A4E0660F771F88
:103FA000881F991FAA95D1F7675371098109910953
:103FB000112707FD1095212F312F600F711F821FD0
:103FC000931FB9CF083721F4411102C041E0B3CFAC
:103FD0001F910F91FF90EF90DF90CF9008950F9376
:103FE0001F93FC0160E070E0CB01019120ED200FF8
:103FF0002A30A0F4AAE0B0E09B01AC010E94473453
:104000006053710981099109112707FD1095212F2E
:10401000312F600F711F821F931FE7CF1F910F91E8
:104020000895DC01A95ABF4F2D913C911197FC01D5
:10403000E75AFF4F408151812417350764F43497C4
:104040000190F081E02DA9014F5F5F4F4D935C938C
:10405000E20FF31F6083FC01EC5BFF4F80819181D5
:10406000DC01ED91FC910190F081E02D09948C5BD5
:104070009F4FDC018D919C91DC01ED91FC910284BC
:10408000F385E02D0994DC011C968D919C911D9780
:10409000009739F0DC01ED91FC910190F081E02D69
:1040A000099480E090E008952091900421110CC0C3
:1040B000FC01EC5BFF4F80819181DC01ED91FC9173
:1040C0000084F185E02D0994E0919104F0E0ED5633
:1040D000FB4F8081992787FD90950895DC01ED9134
:1040E000FC910190F081E02D09944F925F926F92C4
:1040F0007F92AF92BF92CF92DF92EF92FF920F9397
:104100001F93CF93DF93EC015B016A010E941E2C89
:104110002B013C01E12CF12C8E010C5B1F4F0E9406
:104120001E2C64197509860997096C157D058E0585
:104130009F05A0F5D8018D919C91DC01ED91FC913A
:104140000480F581E02D09951816190644F7F80149
:1041500080819181DC01ED91FC910680F781E02D59
:104160000995F5018083DE01A95ABF4F2D913C913D
:104170001197FE01E75AFF4F4081518124173507FF
:104180007CF4CB5ADF4FE881F981A9014F5F5F4F83
:104190004D935C93E20FF31F808302C080E001C067
:1041A00081E0DF91CF911F910F91FF90EF90DF9011
:1041B000CF90BF90AF907F906F905F904F90089599
:1041C000EF92FF920F931F93CF93DF931F92CDB780
:1041D000DEB78C017B01A701BE016F5F7F4FC80175
:1041E0000E9475208111F7CF0F90DF91CF911F9121
:1041F0000F91FF90EF900895FF920F931F93CF932D
:10420000DF938C0190919004992309F1442321F0CC
:104210006F5F7F4F81E001C080E020919104820FA9
:10422000FB01BF01382F321B3917A8F43491332317
:10423000C1F1893010F4A82F01C0A0E031968F5F42
:10424000B0E0AD56BB4F4C91431759F340C04111FC
:1042500002C06F5F7F4FFB01F490EB0121966091EC
:10426000920470E06D567B4F44EF51E0C8010E940C
:10427000752080919204E82FF0E0ED56FB4F2081ED
:10428000909190048F5F2F1114C08830E8F48093D0
:1042900092049F5F90939004FE01F4902196F11098
:1042A000DECF10929004109291041092920481E05B
:1042B0000FC0883018F48093920402C010929204C8
:1042C0009F5F9093900403C010929204E2CF80E02D
:1042D000DF91CF911F910F91FF900895CF93DF93BE
:1042E000EC01462F66E07DE00E94FC20882319F057
:1042F0001CAE81E001C080E0DF91CF910895CF93A3
:10430000DF93EC0180919004882381F0E091910487
:1043100091E09E0F90939104F0E0ED56FB4F2081C9
:1043200030E0983068F1109291042AC0FE01EC5BF5
:10433000FF4F80819181DC01ED91FC910680F78136
:10434000E02D09959C018CAD8823E9F02A323105D6
:10435000D1F460E0CE010E946E21811116C0E0917F
:10436000910481E08E0F80939104F0E0ED56FB4FB5
:10437000208130E0883010F01092910480919004F8
:10438000815080939004C90102C08FEF9FEFDF91AD
:10439000CF910895CF93DF93EC01462F6FEF7CE030
:1043A0000E94FC20882319F081E08CAF01C080E0DE
:1043B000DF91CF910895EF92FF920F931F93CF93C8
:1043C000DF938C01EC01CC5BDF4F88819981DC01AC
:1043D000ED91FC910480F581E02D09957C01181682
:1043E00019065CF588819981DC01ED91FC910084CE
:1043F000F185E02D09958A9701F5F80184AD61E01A
:10440000882331F0C8010E946E21882321F012C058
:10441000C8010E94CA210091900410E0888199810E
:10442000DC01ED91FC910480F581E02D0995800F70
:10443000911F09C08FEF9FEF06C080919004F70194
:10444000E80FF11DCF01DF91CF911F910F91FF90E8
:10445000EF900895CB0160E874E00E94073721E0F7
:10446000892B09F420E0822F08958F929F92AF92BA
:10447000BF92CF92DF92EF92FF920F931F93CF9351
:10448000DF931F92CDB7DEB76C017B015A01611536
:10449000710529F1FB018081882309F18B014B0112
:1044A000FFEF8F1A9F0AA501BE016F5F7F4FC60104
:1044B0000E9475208823A1F08981F80190818913D9
:1044C00003C00F5F1F4F07C0F7019081891302C01F
:1044D000840101C08701F80180818111E4CF81E06E
:1044E0000F90DF91CF911F910F91FF90EF90DF9090
:1044F000CF90BF90AF909F908F9008957F928F92B2
:104500009F92AF92BF92CF92DF92EF92FF920F9362
:104510001F93CF93DF931F92CDB7DEB76C017B0162
:104520005A01FB0174907720B9F08B014B01FFEF2A
:104530008F1A9F0AA501BE016F5F7F4FC6010E94BF
:1045400075208823C1F02981271108C00F5F1F4FF4
:10455000F80174907110EECF81E00DC0F7018491E5
:10456000332727FD309590E02817390711F484018F
:10457000EFCF8701EDCF0F90DF91CF911F910F917A
:10458000FF90EF90DF90CF90BF90AF909F908F9073
:104590007F9008954F925F926F927F929F92AF9219
:1045A000BF92CF92DF92EF92FF920F931F93CF9320
:1045B000DF931F92CDB7DEB77C01962EA72EB42EC7
:1045C00069014DB65EB6242F30E0C901880F991FEE
:1045D000820F931F2DB73EB7281B390B0FB6F894E7
:1045E0003EBF0FBE2DBF8DB79EB701963C01E62F93
:1045F000F72FDC0120E02B1559F11C92819191914C
:1046000012969C938E9311972F5F1396F4CF119669
:10461000ED91FC9112974491941781F1F80160811A
:104620007181FB01449150E02417350731F1129656
:104630007C936E9311971196ED91FC911297E491F2
:1046400013960E5F1F4FEE23F9F08F5F8B11DFCFB4
:10465000A601BE016F5F7F4FC7010E9475208111C7
:1046600002C08FEF11C09981292F332727FD309584
:10467000092D1A2DD30180E0E9CFFB013196129666
:10468000FC93EE931197D7CF0FB6F8945EBE0FBE92
:104690004DBE0F90DF91CF911F910F91FF90EF9042
:1046A000DF90CF90BF90AF909F907F906F905F9082
:1046B0004F900895CF93DF93EC018D85882391F07F
:1046C00065EE7CE0CE010E94243044EF51E06EEDB7
:1046D0007CE0CE010E947E22882311F01D8602C05C
:1046E00080E001C081E0DF91CF9108955F926F92E9
:1046F0007F928F929F92AF92BF92CF92DF92EF9272
:10470000FF920F931F93CF93DF931F92CDB7DEB726
:104710006C017B01390100E010E04A0182E0881A57
:1047200091085A0181E0A81AB108A301BE016F5F88
:104730007F4FC6010E947520882309F440C059802C
:104740008DE058122DC0A301BE016F5F7F4FC601DF
:104750000E94752089818A3041F4E114F104B9F195
:10476000F701E00FF11F108232C0E114F104C1F033
:104770000815190564F4F8013196D701A00FB11F8F
:104780005C920E5F1F4FEE0DFF1D808309C00A155E
:104790001B0534F4F701E00FF11F50820F5F1F4F2C
:1047A0000A151B0514F6E114F10409F4BECFF70154
:1047B000E00FF11F898180830F5F1F4FB6CFE11497
:1047C000F10439F0F701E00FF11F108203C0C801B6
:1047D00002C080E090E00F90DF91CF911F910F9188
:1047E000FF90EF90DF90CF90BF90AF909F908F9011
:1047F0007F906F905F900895CF92DF92EF92FF923B
:104800000F931F93CF93DF931F92CDB7DEB78C0129
:1048100044EF51E0BE016F5F7F4FC8010E947520D9
:104820008823A9F089818C3399F78093800451E81B
:10483000E52E54E0F52EDD24D39444EF51E0BE0183
:104840006F5F7F4FC8010E947520811102C080E018
:1048500035C0CC24C394CD0C8981F70181937F01AD
:104860008E3339F544EF51E0BE016F5F7F4FC801D1
:104870000E947520882359F38981803241F7AC2D3D
:10488000B0E0A058BB4F8C93D394D394ED2DF0E0BF
:10489000E058FB4F108281E080937F0424EF31E0E9
:1048A00040E050E060E070E0C8010E94762381E0C3
:1048B00005C0FCE0CF1659F2DC2CBFCF0F90DF9182
:1048C000CF911F910F91FF90EF90DF90CF900895BF
:1048D000AB0120917F04211102C00C94FC2360E8FD
:1048E00074E00C943522FF920F931F93CF93DF93C4
:1048F000EC018D8581116FC06AEF70E080E090E07F
:104900000E944D2C6BEF7CE0CE010E9424306AEFB8
:1049100070E080E090E00E944D2C44EF51E065EFA4
:104920007CE0CE010E947E22811116C0FE01EC5B6C
:10493000FF4F80819181DC01ED91FC910190F0812C
:10494000E02D6DE0099564EF71E0CE010E946824CE
:1049500081113AC015E01EC080917F04811134C0DE
:1049600065E0F62E8E010C5B1F4FF801808191816E
:10497000DC01ED91FC910190F081E02D6DE0099555
:1049800064EF71E0CE010E94682481111DC0FA9489
:1049900061F7CCCF6AEF70E080E090E00E944D2C90
:1049A00061EF7CE0CE010E9424306AEF70E080E08D
:1049B00090E00E944D2C44EF51E06BEE7CE0CE0184
:1049C0000E947E22882319F081E08D8705C0115056
:1049D00009F780E001C081E0DF91CF911F910F9135
:1049E000FF900895FC012389348921503109348BCB
:1049F000238B232B11F40C945A2381E00895CF923A
:104A0000DF92EF92FF920F931F93CF93DF9300D02B
:104A100000D0CDB7DEB77C018B016A0183E99CE051
:104A20009A8389838DE89CE09C838B8324EF31E01B
:104A300042E0BE016F5F7F4FC7010E94CA228130F2
:104A400091F0811108C024EF31E0A601B801C7013F
:104A50000E94762306C0A60163E87CE0C8010E949C
:104A6000C53680E001C081E00F900F900F900F904D
:104A7000DF91CF911F910F91FF90EF90DF90CF903A
:104A80000895CF93DF93EC0167E87BE00E94243028
:104A900064E670E0CE010E94E0201FAE81E0DF916D
:104AA000CF910895AF92BF92CF92DF92EF92FF9293
:104AB0000F931F93CF93DF93CDB7DEB760970FB6F9
:104AC000F894DEBF0FBECDBF5C016A017B0100E13F
:104AD00010E09E012F5F3F4F4AE0C701B6010E94E0
:104AE000DF1EC5010E94DC2500E020E030E0AE01C1
:104AF0004F5F5F4F6FE77BE0C5010E940B28882363
:104B000051F0C5010E94F224F501C786D08AE18ADE
:104B1000F28A81E004C0C5010E94F22480E0609620
:104B20000FB6F894DEBF0FBECDBFDF91CF911F91BE
:104B30000F91FF90EF90DF90CF90BF90AF900895CE
:104B4000CF93DF93EC018E85882399F11E8660EC6C
:104B50007CE0CE010E942430CE010E94732440E10B
:104B600057E26CEB7CE0CE010E947E2281110CC0EA
:104B70004F85588969897A89CE010E945225CE01D4
:104B8000DF91CF910C94F22468EE73E080E090E026
:104B90000E944D2C4F85588969897A89CE010E94DF
:104BA0005225CE010E94F224CE01DF91CF910C94C8
:104BB0009C28DF91CF910895CF93DF93EC010E9461
:104BC000A0258D85882339F08B899C8901969C8B43
:104BD0008B8B81E005C0CE010E9473248111F4CF3C
:104BE000DF91CF910895CF92DF92EF92FF920F93D2
:104BF0001F93CF93DF93EC018B016A0179010E942F
:104C0000DC25882351F1000F111F000F111F0150E7
:104C10001D4FF80160817181CE010E942430F8019E
:104C20006281738144EF51E0CE010E947E2288238D
:104C300089F024EF31E0A701B601CE010E9476236E
:104C400064EF71E0CE010E946824CE010E94F2243C
:104C5000C60105C0CE010E94F22483ED92E0DF91EF
:104C6000CF911F910F91FF90EF90DF90CF9008951B
:104C7000CF93DF93D62FC72F9A01462F572F60E08F
:104C800070E00E94F325892B49F0ED2FFC2FDF0106
:104C90008191882329F08A33D1F702C0AD2FBC2F30
:104CA0001C928D2F9C2FDF91CF910895CF93DF938E
:104CB000CDB7DEB766970FB6F894DEBF0FBECDBF97
:104CC00026E130E0AE014F5F5F4F60E070E00E9490
:104CD000F325892BC1F080E0E1E0F0E0EC0FFD1F4F
:104CE000E80FF11D9081992319F08F5F9A33A1F796
:104CF00021E030E02C0F3D1F280F311DC9010E941B
:104D0000EF1FCB0102C080E090E066960FB6F894EA
:104D1000DEBF0FBECDBFDF91CF9108959A01AB01E9
:104D200063E070E00C94F3259A01AB0164E070E05D
:104D30000C94F3251F93CF93DF93CDB7DEB72B975A
:104D40000FB6F894DEBF0FBECDBF142F2BE030E0BE
:104D5000AE014F5F5F4F0E94F325892B51F0CE01CA
:104D600001961A3019F40E94EF1F06C00E94901F8E
:104D700003C060E070E0CB012B960FB6F894DEBF65
:104D80000FBECDBFDF91CF911F91089540E16BE140
:104D900070E00E949A26862F0895CF93DF93CDB7B7
:104DA000DEB760970FB6F894DEBF0FBECDBF20E12F
:104DB00030E0AE014F5F5F4F6CE070E00E94F32582
:104DC000892BE1F143E050E060EB7CE0CE010196FD
:104DD0000E94B736892B51F142E050E06DEA7CE049
:104DE000CE0101960E94B736892B11F146E050E0C2
:104DF00066EA7CE0CE0101960E94B736892BD1F09D
:104E000045E050E060EA7CE0CE0101960E94B736B2
:104E1000892B91F046E050E069E97CE0CE010196F3
:104E20000E94B736892B51F484E009C080E007C0A6
:104E300081E005C082E003C083E001C08FEF60968F
:104E40000FB6F894DEBF0FBECDBFDF91CF910895AE
:104E5000EF92FF920F931F93CF93DF93CDB7DEB7FF
:104E600060970FB6F894DEBF0FBECDBF8C010E94D5
:104E7000DC25882309F467C066ED7CE0C8010E9448
:104E8000243024EF31E040E150E0BE016F5F7F4FFE
:104E9000C8010E9476237C01BE016F5F7F4FC8016D
:104EA0000E942A22882361F024EF31E040E150E0A3
:104EB000BE016F5F7F4FC8010E9476237C0105C051
:104EC00064EF71E0C8010E94682425E0E216F10455
:104ED0001CF4CE01019608C0C7010497E1E0F0E0A0
:104EE000EC0FFD1F8E0F9F1F0E94901FF62EE72EC6
:104EF000862F8F70F80186AFF4FA882780F987AF84
:104F0000E05CFF4FF5FA882780F980833196F6FA46
:104F1000882780F980833196F7FA882780F9808383
:104F20008E2D86958F7031968083C8010E94F22461
:104F3000F80186AD813011F484AF02C0F80114AEDF
:104F40008F2D9E2D02C080E090E060960FB6F89401
:104F5000DEBF0FBECDBFDF91CF911F910F91FF90AC
:104F6000EF900895AF92BF92CF92DF92EF92FF92AF
:104F70000F931F93CF93DF931F92CDB7DEB78C01B2
:104F80007B016A0159010E94DC258823B9F164EB99
:104F90007CE0C8010E942430B701C8010E9455304E
:104FA0006BED72E0C8010E94553048E853E1B7014B
:104FB000C8010E9435228823C9F044EF51E0BE01A8
:104FC0006F5F7F4FC8010E94752024EF31E0A5017B
:104FD000B601C8010E94762364EF71E0C8010E9407
:104FE0006824C8010E94F22481E009C064EF71E0E6
:104FF000C8010E946824C8010E94F22480E00F903A
:10500000DF91CF911F910F91FF90EF90DF90CF90A4
:10501000BF90AF900895AF92BF92CF92DF92EF9280
:10502000FF920F93CF93DF93CDB7DEB762970FB6A2
:10503000F894DEBF0FBECDBF7C015A016901698BB8
:105040007A8B0E94DC2569897A89882309F463C0F8
:10505000C7010E942430C114D10419F160E2C701D4
:105060000E946E200023C1F0570184E5A80EB11CF8
:10507000F60164916623C1F1D701ED91FC91019095
:10508000F081E02D603211F4D5016C91C7010995D2
:10509000BFEFCB1ADB0AECCFB601C7010E94243068
:1050A00023C0A114B10401F160E2C7010E946E2087
:1050B0000023B1F06701F4E5CF0ED11CF501619139
:1050C0005F01662389F0D701ED91FC910190F08199
:1050D000E02D603211F4D6016C91C7010995EECF35
:1050E000B501C7010E9455306DE0C7010E946E20D6
:1050F00040E150E0BE016F5F7F4FC7010E94FF2477
:10510000082F64EF71E0C7010E946824C7010E9464
:10511000F224802F01C080E062960FB6F894DEBFC3
:105120000FBECDBFDF91CF910F91FF90EF90DF9039
:10513000CF90BF90AF9008950F93CF93DF93EC0182
:1051400019AE18AE188E00E020E030E040E050E0EC
:1051500062E37DE00E940B2820E030E040E050E078
:105160006FE17DE0CE010E940B2820E030E040E0BE
:1051700050E06DE07DE0CE010E940B28CE010E9440
:105180002827CE010E94CD268B7F91E009F490E084
:105190009D8BCE010E94C626CC5ADF4F8883DF91BB
:1051A000CF910F910895CF93DF93EC01FC01EC5B5D
:1051B000FF4F718360830E947324882341F0CE01E6
:1051C0000E949C28CE01DF91CF910C945A2380E05D
:1051D000DF91CF910895CF92DF92EF92FF920F93DC
:1051E0001F93CF93DF93CDB7DEB72B970FB6F8940D
:1051F000DEBF0FBECDBF7C016B01CA01B901402FDC
:105200000BE010E09E012F5F3F4F0E94DF1E00E089
:1052100020E030E0AE014F5F5F4FB601C7010E9452
:105220000B282B960FB6F894DEBF0FBECDBFDF91D3
:10523000CF911F910F91FF90EF90DF90CF90089545
:105240000F939B0140E050E00AE065E47CE00E949F
:10525000EB280F9108950F93262F30E040E050E0A7
:1052600000E163E07CE00E94EB280F9108950C942C
:105270002B290F93262F30E040E050E000E166EF4D
:105280007BE00E94EB280F9108950F9300E020E04F
:1052900030E040E050E068ED7BE00E940B280F9189
:1052A00008950F93AB0101E020E030E06AEC7BE071
:1052B0000E940B280F9108950F931F93CF93DF93B4
:1052C000EC01AB01FB0181818F7D883511F44E5FCC
:1052D0005F4F00E020E030E06DEB7BE0CE010E940C
:1052E0000B28182FCE010E944529812FDF91CF91E5
:1052F0001F910F9108950F931F93CF93DF93EC01AC
:10530000AB0101E020E030E06DEA7BE00E940B2879
:10531000182FCE010E944529812FDF91CF911F9137
:105320000F9108951F93CF93DF93EC010E94DC252A
:105330008823D9F06DE77CE0CE010E94243044EF51
:1053400051E065E77CE0CE010E947E22882339F09F
:1053500064EF71E0CE010E94682411E001C010E00A
:10536000CE010E94F224812F01C080E0DF91CF9115
:105370001F910895CF93DF93EC010E94DC258823D1
:1053800001F16DE67CE0CE010E94243044EF51E053
:1053900064E67CE0CE010E947E22811104C0CE0131
:1053A0000E94F2240EC068E873E180E090E00E9461
:1053B0004D2C1D861C8A1B8ACE010E949C2881E0F0
:1053C00001C080E0DF91CF910895CF92DF92EF92FC
:1053D000FF920F931F93CF93DF9300D000D0CDB7F0
:1053E000DEB78C017B016A0186EA9BE09A838983A0
:1053F0008AE99BE09C838B83C8010E94DC2588237B
:1054000009F444C064E97BE0C8010E942430E1143F
:10541000F10421F0B701C8010E94553062E97BE038
:10542000C8010E942430960142E0BE016F5F7F4FA9
:10543000C8010E94CA22F82E64E670E0C8010E94EA
:10544000E02081E0F8121FC0F801F7AE85898823BB
:1054500061F048E95AE36EE87BE0C8010E947E22D1
:1054600064E670E0C8010E94E02024EF31E040E0F3
:1054700050E060E070E0C8010E947623C8010E94FD
:10548000F22481E004C0C8010E94F22480E00F9061
:105490000F900F900F90DF91CF911F910F91FF9080
:1054A000EF90DF90CF9008950F931F93CF93DF93EA
:1054B000CDB7DEB7C054D1090FB6F894DEBF0FBE2A
:1054C000CDBF8C0140E450E0BE016F5F7F4F0E9472
:1054D000942640E25EE4BE016F5F7F4FC8010E94E8
:1054E000E529C05CDF4F0FB6F894DEBF0FBECDBF1D
:1054F000DF91CF911F910F910895CF93DF93EC012E
:10550000E881F9810480F581E02D09958CADDF916A
:10551000CF910895CF93DF93EC018CAD882361F197
:1055200064EF71E0CE010E94E020CE010E94DC25F4
:105530006CE57BE0CE010E94243044EF51E065E54C
:105540007BE0CE010E947E22882329F0CE010E94BA
:10555000F2241CAE11C06CE37BE0CE018A5B9F4F4E
:105560000E946230CE010E942827CE010E94F224C0
:105570008CAD91E0892701C081E0DF91CF91089542
:10558000BF92CF92DF92EF92FF920F931F93CF9330
:10559000DF93CDB7DEB765970FB6F894DEBF0FBEC9
:1055A000CDBF7C016B018A01B22EFC0185AD81115A
:1055B00068C0C7010E94DC25F70184AD882319F07B
:1055C000C7010E948A2AB80180E090E004E110E05F
:1055D0009E012F5F3F4F4AE00E94DF1E69E77BE09C
:1055E000C7010E942430B601C7010E9455306DEDFD
:1055F00072E0C7010E945530BE016F5F7F4FC70147
:105600000E94553067E77BE0C7010E94243064EFB9
:1056100071E0C7010E946824811101C0FFCFB11061
:1056200004C081E0F70185AF2DC040E157E2BE0123
:105630006B5E7F4FC7010E9475208823F9F08D892A
:105640008A3271F0833489F7898324EF31E043E1B2
:1056500050E0BE016E5F7F4FC7010E9476230EC0EF
:1056600044EF51E061E77BE0C7010E947E2288237E
:1056700029F081E0F70184AF158604C0C7010E94BC
:10568000F22480E065960FB6F894DEBF0FBECDBF62
:10569000DF91CF911F910F91FF90EF90DF90CF900E
:1056A000BF900895CF93DF93EC0164EF71E00E9407
:1056B000E020CE010E94DC2565E37BE0CE010E9464
:1056C000243044EF51E06EE27BE0CE010E947E2266
:1056D000882331F0CE010E94F2241CAE81E00BC081
:1056E000CE010E94F22465E17BE0CE018A5B9F4FF0
:1056F0000E94623080E0DF91CF910895FC01138217
:10570000128248EE53E060E070E044835583668384
:10571000778383EF92E091838083158614860895C2
:10572000CF93DF93EC011B821A8248EE53E060E0D6
:1057300070E04C835D836E837F8383EE92E0998378
:105740008883CE018A5B9F4F0E947E2B1D861E861A
:105750001C8A1B8A1CAE1DAE81E08D8B8E8BFE01D8
:10576000EB5AFF4F11821082329611821082C75A73
:10577000DF4F19821882DF91CF9108950F9300E0D7
:1057800020E040E060E08BE994E00E94CB2F0F9195
:1057900008950F9300E020E040E060E081EA94E0AB
:1057A0000E94CB2F0F9108951F920F920FB60F9268
:1057B00011242F933F938F939F93AF93BF93809127
:1057C000A8049091A904A091AA04B091AB043091CF
:1057D000A70423E0230F2D3720F40196A11DB11D4E
:1057E00005C026E8230F0296A11DB11D2093A70432
:1057F0008093A8049093A904A093AA04B093AB0447
:105800008091AC049091AD04A091AE04B091AF042E
:105810000196A11DB11D8093AC049093AD04A0939B
:10582000AE04B093AF04BF91AF919F918F913F9120
:105830002F910F900FBE0F901F9018952FB7F894CF
:105840006091A8047091A9048091AA049091AB047E
:105850002FBF08953FB7F8948091AC049091AD04A8
:10586000A091AE04B091AF0426B5A89B05C02F3F10
:1058700019F00196A11DB11D3FBF6627782F892F12
:105880009A2F620F711D811D911D42E0660F771FD7
:10589000881F991F4A95D1F70895CF92DF92EF9212
:1058A000FF92CF93DF936B017C010E942A2CEB01C6
:1058B000C114D104E104F10489F00E94D7330E949D
:1058C0002A2C6C1B7D0B683E734090F381E0C81A54
:1058D000D108E108F108C851DC4FEACFDF91CF9140
:1058E000FF90EF90DF90CF900895789484B5826018
:1058F00084BD84B5816084BD85B5826085BD85B574
:10590000816085BDEEE6F0E0808181608083E1E822
:10591000F0E010828081826080838081816080835A
:10592000E0E8F0E0808181608083E1EBF0E080815D
:1059300084608083E0EBF0E0808181608083EAE72F
:10594000F0E08081846080838081826080838081B8
:10595000816080838081806880831092C100089577
:10596000833081F028F4813099F08230A1F00895DD
:105970008730A9F08830B9F08430D1F4809180006C
:105980008F7D03C0809180008F7780938000089581
:1059900084B58F7702C084B58F7D84BD08958091D2
:1059A000B0008F7703C08091B0008F7D8093B000EE
:1059B0000895CF93DF9390E0FC01EA56F14F2491D4
:1059C000FC01E655F14F8491882349F190E0880F5E
:1059D000991FFC01EE52F14FA591B4918853914F5C
:1059E000FC01C591D4919FB7611108C0F8948C91C6
:1059F000209582238C93888182230AC0623051F4DF
:105A0000F8948C91322F309583238C938881822B4C
:105A1000888304C0F8948C91822B8C939FBFDF9174
:105A2000CF9108950F931F93CF93DF931F92CDB71C
:105A3000DEB7282F30E0F901EE57F14F8491F901DC
:105A4000EA56F14F1491F901E655F14F0491002304
:105A5000C9F0882321F069830E94B02C6981E02F6E
:105A6000F0E0EE0FFF1FE853F14FA591B4919FB7FF
:105A7000F8948C91611103C01095812301C0812B92
:105A80008C939FBF0F90DF91CF911F910F9108953D
:105A9000CF93DF93282F30E0F901EE57F14F849137
:105AA000F901EA56F14FD491F901E655F14FC4914D
:105AB000CC2391F081110E94B02CEC2FF0E0EE0F7E
:105AC000FF1FE254F14FA591B4912C912D2381E059
:105AD00090E021F480E002C080E090E0DF91CF917F
