:100000000C943E060C9466060C9466060C94221E14
:100010000C94221E0C94221E0C9466060C94660608
:100020000C9466060C9466060C9466060C946606A0
:100030000C9466060C9466060C9466060C94660690
:100040000C940C2D0C9466060C9440300C94723079
:100050000C9466060C9466060C9466060C94660670
:100060000C9466060C9466060A0D5265626F6F74F6
:10007000696E6720576946692E2E2E000A0D52655B
:10008000626F6F74204D6963726F566965772026C1
:10009000205769466920746F20736574206E6577F8
:1000A00020706F72742E00494E434F4D494E470ADF
:1000B00043414C4C00434F4E4E45435400434F4E3A
:1000C0004E45435420333834303000434F4E4E4574
:1000D000435420313932303000434F4E4E45435463
:1000E000203936303000434F4E4E4543542034388B
:1000F000303000434F4E4E454354203234303000B0
:10010000434F4E4E454354203132303000434F4E22
:100110004E454354000D0A52494E47004552524F36
:1001200052004F4B004175746F73746172743A20C2
:10013000003A004E4F2043415252494552004F4B26
:10014000004F4B004F4B004F4B000D0A5072657330
:100150007320616E79206B657920746F2063616E06
:1001600063656C2E2E2E004175746F2D636F6E6E5D
:10017000656374696E6720746F3A0D0A005769668B
:10018000693A256C640A0A4336343A20256C6400C7
:10019000576966693A256C640A0A4336343A202561
:1001A0006C640A0A5254533A20256C64002A2A2AA5
:1001B000205465726D696E616C204D6F64652028F6
:1001C000446562756729202A2A2A004E4F20434140
:1001D0005252494552004255535900436F6E6E6565
:1001E0006374204661696C65642100436F6E6E65BF
:1001F0006374656420746F202573004E4F20434163
:100200005252494552004E4F204449414C544F4EA2
:100210004500436F756C64206E6F74207265736F58
:100220006C766520444E532E2020436F6E6E6563BE
:1002300074204661696C656421000D0A436F6E6E1F
:10024000656374696E6720746F2025730077777714
:100250002E636F6D6D6F646F726573657276657214
:100260002E636F6D0043533338005341564544208D
:10027000494E49543A2020000D0A20452564512555
:100280006456256426432564582564264B25642638
:100290005325642A4225630D0A2053303D256420EE
:1002A00053323D2564205339393D2564004355526E
:1002B00052454E5420494E49543A000D0A204525D6
:1002C0006451256456256426432564582564264BCD
:1002D0002564265325642A4225630D0A2053303DA8
:1002E00025642053323D2564205339393D2564006F
:1002F0004C495354454E20504F52543A20004649E1
:10030000524D574152453A202020200057492D4652
:100310004920535349443A20200049502041444445
:10032000524553533A2020004D414320414444520A
:100330004553533A20000D434F4D4D4F444F5245C6
:100340002057492D4649204D4F44454D204841599D
:10035000455320454D554C4154494F4E0057492D6A
:100360004649204641494C4544210057492D4649BC
:10037000204F4B210057492D464920494E49542EC4
:100380002E2E00256C6400426175640A4465746514
:100390006374696F6E0039363030003234303000AB
:1003A0003132303000050800FF0C4B000000000027
:1003B0003E5B4F5B3E3E6B4F6B3E1C3E7C3E1C18D3
:1003C0003C7E3C181C577D571C1C5E7F5E1C001831
:1003D0003C1800FFE7C3E7FF0018241800FFE7DB25
:1003E000E7FF30483A060E2629792926407F050581
:1003F00007407F05253F5A3CE73C5A7F3E1C1C08BE
:10040000081C1C3E7F14227F22145F5F005F5F0682
:10041000097F017F006689956A606060606094A2D0
:10042000FFA29408047E040810207E201008082AE9
:100430001C08081C2A08081E101010100C1E0C1E88
:100440000C30383E3830060E3E0E0600000000002C
:1004500000005F00000007000700147F147F1424D1
:100460002A7F2A1223130864623649562050000856
:10047000070300001C2241000041221C002A1C7FAF
:100480001C2A08083E080800807030000808080888
:1004900008000060600020100804023E5149453EFB
:1004A00000427F400072494949462141494D331875
:1004B00014127F1027454545393C4A4949314121AD
:1004C0001109073649494936464949291E00001491
:1004D00000000040340000000814224114141414D9
:1004E00014004122140802015909063E415D594E8B
:1004F0007C1211127C7F494949363E414141227F9D
:100500004141413E7F494949417F090909013E4135
:100510004151737F0808087F00417F41002040411E
:100520003F017F081422417F404040407F021C026F
:100530007F7F0408107F3E4141413E7F0909090643
:100540003E4151215E7F0919294626494949320316
:10055000017F01033F4040403F1F2040201F3F409C
:1005600038403F6314081463030478040361594955
:100570004D43007F414141020408102000414141A8
:100580007F0402010204404040404000030708008D
:1005900020545478407F2844443838444444283810
:1005A0004444287F385454541800087E090218A483
:1005B000A49C787F0804047800447D4000204040DB
:1005C0003D007F1028440000417F40007C047804F7
:1005D000787C080404783844444438FC18242418EF
:1005E00018242418FC7C0804040848545454240497
:1005F000043F44243C4040207C1C2040201C3C40C4
:1006000030403C44281028444C9090907C446454E2
:100610004C440008364100000077000000413608D5
:100620000002010204023C2623263C1EA1A1611205
:100630003A4040207A385454555921555579412132
:1006400054547841215554784020545579400C1E1B
:1006500052721239555555593954545459395554C3
:1006600054580000457C410002457D420001457C14
:1006700040F0292429F0F0282528F07C5455450025
:100680002054547C547C0A097F493249494932320A
:1006900048484832324A4848303A4141217A3A4241
:1006A000402078009DA0A07D39444444393D40401D
:1006B000403D3C24FF2424487E4943662B2FFC2FD9
:1006C0002BFF0929F620C0887E0903205454794164
:1006D0000000447D413048484A32384040227A0088
:1006E0007A0A0A727D0D19317D2629292F2826299B
:1006F00029292630484D40203808080808080808ED
:1007000008382F10C8ACBA2F102834FA00007B002C
:100710000008142A142222142A1408AA005500AA38
:10072000AA55AA55AA000000FF00101010FF0014DF
:100730001414FF001010FF00FF1010F010F014143C
:1007400014FC001414F700FF0000FF00FF1414F461
:1007500004FC141417101F10101F101F1414141F62
:1007600000101010F0000000001F101010101F10DB
:10077000101010F010000000FF10101010101010DA
:100780001010FF10000000FF140000FF00FF000029
:100790001F10170000FC04F414141710171414F49D
:1007A00004F40000FF00F714141414141414F700D8
:1007B000F7141414171410101F101F141414F41429
:1007C0001010F010F000001F101F0000001F140098
:1007D0000000FC140000F010F01010FF10FF1414C3
:1007E00014FF141010101F00000000F010FFFFFF96
:1007F000FFFFF0F0F0F0F0FFFFFF0000000000FF4F
:10080000FF0F0F0F0F0F38444438447C2A2A3E1440
:100810007E02020606027E027E026355494163386B
:1008200044443C04407E201E2006027E020299A51C
:10083000E7A5991C2A492A1C4C7201724C304A4D7A
:100840004D303048784830BC625A463D3E494949AF
:10085000007E0101017E2A2A2A2A2A44445F444458
:1008600040514A444040444A51400000FF0103E0E7
:1008700080FF000008086B6B083612362436060F1E
:10088000090F06000018180000001010003040FF8B
:100890000101001F01011E00191D1712003C3C3C04
:1008A0003C0000000000636C6F73653A206661696C
:1008B0006C65642C206E6F202A434C4F532A002A0B
:1008C000434C4F532A00636C6F73650D00636C6F6C
:1008D00073653A206661696C65642C206E6F202A0E
:1008E000434C4F532A002A434C4F532A00636C6FEA
:1008F00073650D004F50454E2A00302E302E302E9D
:1009000030004F50454E2A000D006F70656E20007C
:1009100073657420752069006C656176650D00470C
:10092000573D000D006A6F696E20004173736F635D
:10093000696174656421004641494C454400736512
:100940007420776C616E20706872617365007365E6
:100950007420776C616E206B657900736574207705
:100960006C616E20737369640073657420776C61C9
:100970006E2068696465203100736574207561724A
:1009800074206D6F64650073657420697020666CF7
:10099000616773007365742069702070726F746F83
:1009A000636F6C0073657420697020646863700005
:1009B0007365742069702072656D6F74650073656E
:1009C0007420697020686F73740073657420697097
:1009D00020686F737400736574206970206C6F6396
:1009E000616C706F72740073657420776C616E2037
:1009F0006A6F696E002A5265626F6F742A007265B1
:100A0000626F6F740D0053746F72696E670073616B
:100A100076650D003C74696D656F75743E00414FDD
:100A20004B0D0A004552523A20005345525645524A
:100A3000004341434845004155544F4950004F4EF3
:100A4000004F4646006C6F6F6B7570200047573D36
:100A5000000D00736C6565700D007365742073790B
:100A6000732077616B650073686F7720630D0045B5
:100A70005849540D0A00657869740D00434D440DC2
:100A80000A0024242400434D440D0A002424240099
:100A90002A4F50454E2A002A434C4F532A00736573
:100AA0007420636F6D6D2072656D6F74652030000A
:100AB00073657420737973207072696E746C766CD0
:100AC0002030007365742075206D203100526570F0
:100AD0006C6163653D005478506F7765723D0052DC
:100AE0006174653D004A6F696E3D005265626F6FCB
:100AF000743D0050726F62653D00426561636F6EC8
:100B00003D00676574206164686F630D0050524F4B
:100B1000544F3D00464C4147533D307800525353AB
:100B2000493D282D0073686F7720727373690D003B
:100B3000466C75736853697A653D004D61746368EE
:100B4000436861723D00466C75736854696D6572E7
:100B50003D0067657420636F6D6D0D004D6F6465BA
:100B60003D005254433D0073686F77207420740D2C
:100B700000416464726573733D0067657420646E40
:100B8000730D0054696D653D00557054696D653D88
:100B90000073686F772074696D650D005A6F6E651C
:100BA0003D006765742074696D650D004261756470
:100BB000726174653D0067657420750D004465764B
:100BC00069636549643D00676574206F70740D004A
:100BD000535349443D0067657420776C616E0D0086
:100BE0004D616320416464723D00676574206D61EE
:100BF000630D00444843503D00484F53543D004767
:100C0000573D004E4D3D0049503D006765742069D9
:100C1000700D00000000080002010000030407003E
:100C200000000000000000010204081020408001C4
:100C30000204081020010204081020040404040423
:100C4000040404020202020202030303030303007A
:100C500000000023002600290000000000250028D5
:100C6000002B0000000000240027002A0000A00C38
:100C7000321DC72C012D98302131CB0C11241FBE01
:100C8000CFEFD8E0DEBFCDBF13E0A0E0B1E0E8EEEB
:100C9000F4E702C005900D92AC3BB107D9F726E00E
:100CA000ACEBB3E001C01D92A832B207E1F71CE043
:100CB000CAE7DCE004C02297FE010E948B34CE36E6
:100CC000D107C9F70E9491180C94673A0C94000060
:100CD000CF92DF92EF92FF920F931F93E82FF92F9D
:100CE00005C0015011092109310961F19081962354
:100CF0009417B9F305C0015011092109310911F107
:100D0000908196239413F7CFC12CD12CE12CF12C98
:100D10000AC08FEFC81AD80AE80AF80A0C151D0590
:100D20002E053F0579F080818623841791F36C2D81
:100D30007D2D8E2D9F2D1F910F91FF90EF90DF90B5
:100D4000CF90089560E070E080E090E01F910F91F7
:100D5000FF90EF90DF90CF9008950C947439CF936B
:100D6000DF93EC0160E08DEF94E00E947A1C40E09C
:100D700060E08DEF94E00E947C1ABE018DEF94E05C
:100D80000E94BE318DEF94E0DF91CF910C94891CCD
:100D9000CF93DF93EC0160E08DEF94E00E947A1C2A
:100DA00040E060E08DEF94E00E947C1ABE018DEF80
:100DB00094E00E94D0318DEF94E0DF91CF910C94BC
:100DC000891CBC0188ED94E00C949131CF93DF93A2
:100DD00000D000D000D0CDB7DEB7BC01CE01019667
:100DE0000E948F33CE0101960E94E106CE0101964A
:100DF0000E949D3288ED94E00E94A83126960FB69D
:100E0000F894DEBF0FBECDBFDF91CF9108950F9351
:100E10001F93CF93DF9300D000D000D0CDB7DEB7C3
:100E20008C01BC01CE0101960E948F33CE01019648
:100E30000E94E606CE0101960E949D324AE060E2E1
:100E4000C8010E941134B801CE0101960E948F336F
:100E5000CE0101960E94AF06CE0101960E949D32FE
:100E600026960FB6F894DEBF0FBECDBFDF91CF91AF
:100E70001F910F91089588ED94E00C94A83188306B
:100E800041F0843131F091E08F3709F090E0892F03
:100E9000089581E008956F927F928F929F92AF9212
:100EA000BF92CF92DF92EF92FF920F931F93CF9357
:100EB000DF93CDB7DEB7CA56D1090FB6F894DEBFBF
:100EC0000FBECDBFF82E0E943B078DE794E00E9435
:100ED0005F2744E150E0BE016F5A7F4F8DE794E0F9
:100EE0000E94972744E150E0BE01635C7F4F8DE78D
:100EF00094E00E94412744E150E0BE01675D7F4FCE
:100F00008DE794E00E949D278DE794E00E945F2783
:100F10009093C1038093C00368E273E08E010F5F7A
:100F20001F4FC8010E94C533C8010E94E106C801D5
:100F30000E949D32BE016F5A7F4FC8010E940B3341
:100F4000C8010E94E606C8010E949D326AE173E072
:100F5000C8010E94C533C8010E94E106C8010E9471
:100F60009D32BE01635C7F4FC8010E940B33C801F4
:100F70000E94E606C8010E949D326CE073E0C80141
:100F80000E94C533C8010E94E106C8010E949D323B
:100F9000BE01675D7F4FC8010E940B33C8010E94EC
:100FA000E606C8010E949D326EEF72E0C8010E9401
:100FB000C533C8010E94E106C8010E949D3268E95C
:100FC00072E0C8010E940B33C8010E94E606C80106
:100FD0000E949D3260EF72E0C8010E94C533C801D3
:100FE0000E94E106C8010E949D326091C003709189
:100FF000C1034AE050E088ED94E00E947B3288ED26
:1010000094E00E94A831F110D3C080916A041F922D
:101010008F9320910901822F992787FD90959F93A7
:101020002F9380916C041F928F9380910F011F92D8
:101030008F938091C2031F928F938091C4031F925C
:101040008F9380916B041F928F938091C3031F92A3
:101050008F9380910A011F928F9380916D041F924C
:101060008F9380910B011F928F938BEB92E09F9354
:101070008F931F930F930E9480376DEA72E0CE0129
:101080008B599F4F0E94C533CE018B599F4F0E94B1
:10109000E106CE018B599F4F0E949D32B801CE01CF
:1010A0008B599F4F0E940B33CE018B599F4F0E944B
:1010B000E606CE018B599F4F0E949D3283E190E05E
:1010C0000E94AD06682E8FE090E00E94AD06782E5B
:1010D0008EE090E00E94AD06882E81E090E00E94B4
:1010E000AD06982E84E190E00E94AD06A82E8BE01C
:1010F00090E00E94AD06B82E82E190E00E94AD061D
:10110000C82E81E190E00E94AD06D82E8CE090E0E0
:101110000E94AD06E82E8DE090E00E94AD06F82E0C
:101120008AE090E00E94AD061F926F921F927F921C
:101130001F928F921F929F921F92AF921F92BF9207
:101140001F92CF921F92DF921F92EF921F92FF92F7
:101150001F928F9388E792E09F938F931F930F9333
:101160000E9480370FB6F894DEBF0FBECDBF6AE68F
:1011700072E0CE018B599F4F0E94C533CE018B592F
:101180009F4F0E94E106CE018B599F4F0E949D32D6
:10119000B801CE018B599F4F0E940B33CE018B5962
:1011A0009F4F0E94E606CE018B599F4F0E949D32B1
:1011B000C659DF4F0FB6F894DEBF0FBECDBFDF912B
:1011C000CF911F910F91FF90EF90DF90CF90BF9044
:1011D000AF909F908F907F906F9008952091C4035F
:1011E0002223D1F041E026B125FB882780F990E049
:1011F00020910701242730E08217930739F42091CA
:10120000B0002F7D2093B0005B9AEDCF8091B000AD
:101210008F7D8093B0005B980895CF938091C40335
:10122000882381F0C1E04A9B07C0609107016C27C9
:101230008FE00E945C2EF7CF609107018FE0CF9185
:101240000C945C2ECF910895CF93DF93EC01E8814D
:10125000F9810480F581E02DCE010995892BB9F340
:10126000E881F9810680F781E02DCE01DF91CF91F1
:1012700009948F929F92AF92BF92CF92DF92EF929A
:10128000FF92CF93DF93EC014B010E94562D6B012F
:101290007C01A12CB12CE881F9810480F581E02D3D
:1012A000CE010995892BC1F40E94562D6C197D0938
:1012B0008E099F0986169706A806B90660F78FEF74
:1012C0009FEFDF91CF91FF90EF90DF90CF90BF9095
:1012D000AF909F908F900895E881F9810084F18507
:1012E000E02DCE01DF91CF91FF90EF90DF90CF9076
:1012F000BF90AF909F908F900994EF92FF920F93C1
:101300001F93CF93DF9300D000D000D0CDB7DEB7CE
:101310007B0190916D04911153C020910A0190912D
:10132000BD032223A1F1992311F16DE888ED94E02A
:101330000E94A1316AE888ED94E00E94A131870102
:10134000F8016491662361F090ED960F9A3008F0F1
:10135000605888ED94E00E94A1310F5F1F4FF0CFDD
:101360006DE888ED94E00E94A1316AE81AC00E94FD
:101370003B07B701CE0101960E94C533CE0101960D
:101380000E94E606CE0101960E949D3219C04AE0F5
:1013900050E0682F992351F088ED94E00E9490323C
:1013A0006DE888ED94E00E94A1310AC088ED94E0D8
:1013B0000E9490326DE972E088ED94E00E949F31C6
:1013C0008DEF94E00E94A831B7018DEF94E00E9468
:1013D000AC318DEF94E00E94891C26960FB6F894EC
:1013E000DEBF0FBECDBFDF91CF911F910F91FF9058
:1013F000EF9008956CE171E084E00C947D0981E543
:10140000E8ECF3E0DF011D928A95E9F71092C7033B
:1014100008958091C30360910801882331F0809181
:10142000C603811102C081E0682780E10C945C2E24
:101430001F93CF93DF93C82F80916B04811103C05A
:101440006DE071E035C02091120130911301203C14
:1014500082E13807F9F058F4203B84E03807B1F016
:101460002036394019F563EF70E08AE022C021157B
:101470008BE4380799F0211586E9380799F0203870
:101480003542A1F469ED70E08CE013C060E071E0DA
:1014900085E00FC066EE70E08BE00BC06BEC70E097
:1014A0008EE007C06DEB70E08CE103C065EB70E08F
:1014B00081E00E947D098091C303882329F0609117
:1014C000080180E10E945C2E8091C203813009F402
:1014D000409A91E0909306011092BE039093C60348
:1014E00010920C0110926E04CC2349F180E293E03B
:1014F0000E94AD06882319F1C0E2D3E0CE010E941C
:10150000AD06182F8E3539F46AED72E08DE794E060
:101510000E949F310EC0682F8DE794E00E94A13198
:10152000111107C08DE794E0DF91CF911F910C94CA
:10153000A8312196CA3683E0D80701F7F3CFDF91AF
:10154000CF911F910895CF92DF92EF92FF92CF93A8
:10155000C82F0E94562D6B017C010E94562D685B9E
:101560007B40810991096C157D058E059F0508F466
:101570004BC08C2F0E94922E892B79F720E432E405
:101580004FE050E060E08C2F0E94BB2E6D31710562
:101590008105910504F16C3371058105910504F114
:1015A000663971058105910504F16C3221E07207FD
:1015B00081059105FCF0683522E0720781059105EF
:1015C000F4F0603B744081059105F4F460EB74E045
:1015D00080E090E01CC060E076E980E090E017C019
:1015E00060E07BE480E090E012C060E875E280E0BB
:1015F00090E00DC060EC72E180E090E008C060E631
:1016000079E080E090E003C060E070E0CB01CF9132
:10161000FF90EF90DF90CF9008950F931F93CF939B
:10162000DF931F92CDB7DEB78C0169830E94AD06B0
:101630006981861741F0C8010F90DF91CF911F910A
:101640000F910C947C390F90DF91CF911F910F91E6
:101650000895EF92FF920F931F93CF93DF937C0136
:101660008B01C0E0D0E0D801ED91FC91EC0FFD1FA3
:101670006081CE018E0D9F1D0E947C392196C6325D
:10168000D10589F7DF91CF911F910F91FF90EF90D6
:101690000895AF92BF92CF92DF92EF92FF920F9395
:1016A0001F93CF93DF93CDB7DEB7A8970FB6F8940B
:1016B000DEBF0FBECDBF6C017B018E010F5F1F4FE0
:1016C0005E0187E2A80EB11CB801E01AF10AC70159
:1016D000800F911F6FA378A70E94AD06F801819338
:1016E0008F016FA178A5EA15FB0589F7C6010E9455
:1016F0000B33C601A8960FB6F894DEBF0FBECDBF60
:10170000DF91CF911F910F91FF90EF90DF90CF90DD
:10171000BF90AF900895FC012191222331F0DC01AC
:101720002C932032C9F30196F7CFFC011082089563
:1017300067E18DE794E00E94422A62E08DE794E041
:101740000C94402A0F931F93CF93DF9300D000D0C7
:1017500000D0CDB7DEB78C018091C0039091C1035A
:1017600080179107F1F1B8018DE794E00E94292AD2
:101770008DE794E00E949B2A1093C1030093C0035D
:1017800080911001909111018036994081F06CE7B1
:1017900070E0CE0101960E94C533CE0101960E94F1
:1017A000E606CE0101960E949D3281E01BC068E6EC
:1017B00070E0CE0101960E94C533CE0101960E94D1
:1017C000E606CE0101960E949D328DE794E00E94CC
:1017D000C32A68E873E180E090E00E94852D0E94B2
:1017E000980B80E026960FB6F894DEBF0FBECDBFF3
:1017F000DF91CF911F910F9108958091C2038230A4
:1018000099F0389A8091C203882319F0813019F039
:101810000895389A05C0389A8091C603882311F03C
:10182000409A08954098089538980895CF93DF938B
:101830001F92CDB7DEB791E090930C011092C603D2
:1018400010926E0490930B0190930A0110926D0414
:1018500010926C049BE2909309011092C4031092C1
:10186000C30310926A0489830E94090A8981811145
:1018700007C01092C2030F90DF91CF910C94FD0B23
:101880000F90DF91CF9108958AE090E00E94AD061D
:1018900091E0811101C090E090930B018BE090E00A
:1018A0000E94AD0691E0811101C090E09093C403C5
:1018B0008CE090E00E94AD0691E0811101C090E0C3
:1018C00090930A018DE090E00E94AD0691E08111B5
:1018D00001C090E090936D048EE090E00E94AD0610
:1018E00091E0811101C090E090936C048FE090E052
:1018F0000E94AD068093090181E190E00E94AD064F
:1019000091E0811101C090E09093C30382E190E0E7
:101910000E94AD0680936B0483E190E00E94AD06C7
:1019200091E0811101C090E090936A0484E190E01D
:101930000E94AD068093C2030E94090A0C94FD0B1D
:101940000F9300E020E040E060E087EF94E00E9429
:10195000153120E046E065E088ED94E00E94F51E38
:101960008DE794E00E94992C6CED72E087E794E09B
:101970000E940B3341E020911201309113018091BC
:101980001001909111012817390709F440E04093A4
:10199000C5030F91089587E794E00E949D3288ED7A
:1019A00094E00C949C1ECF92DF92EF92FF926C0118
:1019B000909311018093100181E895E00E94352FEA
:1019C00062E070E080E090E00E94852DE12CF12C37
:1019D000B701A6018DE794E00E945B2668EE73E0F4
:1019E00080E090E00E94852D81E895E00E941E3005
:1019F00026E0B701A60181E895E00E94BC2F8DE7A3
:101A000094E0FF90EF90DF90CF900C945F27BF920F
:101A1000CF92DF92EF92FF920F931F93CF93DF93BA
:101A2000CDB7DEB7C854D1090FB6F894DEBF0FBEEC
:101A3000CDBF7C016B0165E672E08E010F5F1F4F29
:101A4000C8010E94C533B801C7010E94FE33B82EF9
:101A5000C8010E949D32BB2009F454C06DE472E0BD
:101A6000C7010E94A43381E08093BC0380911201DE
:101A70009091130181159649B1F180E096E9909318
:101A800013018093120188ED94E00E94B01D81E85B
:101A900095E00E94352F68EE73E080E090E00E94B0
:101AA000852D80911201909113010E94D30C88ED35
:101AB00094E00E94B01D88ED94E00E94B31F409115
:101AC00012015091130160E070E088ED94E00E94F3
:101AD000251F48EE53E060E070E088ED94E00E943E
:101AE00097320E94980B1092070181E08093C40303
:101AF00068EE73E080E090E00E94852D25E0C22E24
:101B000026E0D22EF70181818F9380818F938AE323
:101B100092E09F938F931F9292E3B92EBF921F93EF
:101B20000F930E945037C8010E94C806F7016081D8
:101B3000718120E130E0AE014D5C5F4F8DE794E0B4
:101B40000E94BB280FB6F894DEBF0FBECDBF811137
:101B500024C062E172E0CE018D5B9F4F0E94C533CD
:101B6000CE018D5B9F4F0E940707CE018D5B9F4F7B
:101B70000E949D3268EE73E080E090E00E94852D27
:101B800080916B04823011F0843020F066E072E0C6
:101B900086E04BC06BEF71E047C021E0A601BE01BB
:101BA0006D5C7F4F8DE794E00E94C92B8823D9F0AC
:101BB000F70181818F9380818F938BEE91E09F93CA
:101BC0008F931F92BF921F930F930E945037C801AB
:101BD0000E94C80680E00E94180A0FB6F894DEBF83
:101BE0000FBECDBF24C06BED71E0CE018D5B9F4F6A
:101BF0000E94C533CE018D5B9F4F0E94AF06CE0180
:101C00008D5B9F4F0E949D3268EE73E080E090E014
:101C10000E94852D80916B04833020F066ED71E089
:101C200087E003C06BEC71E083E00E947D09C85B34
:101C3000DF4F0FB6F894DEBF0FBECDBFDF91CF915F
:101C40001F910F91FF90EF90DF90CF90BF9008957C
:101C5000EF92FF920F931F93CF93DF93CDB7DEB731
:101C60002C970FB6F894DEBF0FBECDBF8C01BC0120
:101C7000CE0107960E940B33F8018081811103C0C9
:101C80000E94FA093DC06AE370E0C8010E94F6367E
:101C90000097C1F0FC0111927F01B801CE010196BD
:101CA0000E940B33BE016F5F7F4FCE0107960E94EB
:101CB0009833CE0101960E949D32C7010E949A3648
:101CC0008C0102C007E110E0BE01695F7F4F87E72A
:101CD00094E00E94783310930E0100930D01BE0131
:101CE000695F7F4FCE0101960E948F3340E0B801BB
:101CF000CE0101960E94070DCE0101960E949D32F1
:101D0000CE0107960E949D322C960FB6F894DEBF46
:101D10000FBECDBFDF91CF911F910F91FF90EF903C
:101D20000895CF93DF93EC0181E895E00E94352F71
:101D300062E070E080E090E00E94852D81E895E00F
:101D40000E941E30AE0160E070E026E081E895E080
:101D5000DF91CF910C94BC2F80E699E00E94910E08
:101D60008DE794E00C94A926CF93C82F81E080934F
:101D70000C011092C60310926E041092BC0360E036
:101D80008DEF94E00E947A1C40E060E08DEF94E0DB
:101D90000E947C1A8DE794E00E94E122019629F4CA
:101DA0008DE794E00E94932B04C08DE794E00E949D
:101DB0005B2CCC2329F063E371E083E00E947D0972
:101DC0008091C303882339F06091080181E068277E
:101DD00080E10E945C2E8091C203813009F440981A
:101DE000CF91089580916E04811103C081E00C941D
:101DF000B40E81E00C94180A81E080936E0465E1D2
:101E000071E082E00E947D0980916C04439A8823EE
:101E100049F06AEF70E080E090E00E94852D4398E1
:101E20000C94F20E6AEF70E080E090E00E94852D45
:101E3000439808951F93CF93DF93EC01162F6FEF14
:101E40008DE794E00E941721CD3FD10511F46DEF8D
:101E500001C06BEF8DE794E00E941721612F8DE7A1
:101E600094E0DF91CF911F910C9417211F93CF9392
:101E7000DF93EC01162F6FEF8DE794E00E9417219E
:101E8000CD3FD10511F46CEF01C06EEF8DE794E00A
:101E90000E941721612F8DE794E0DF91CF911F9170
:101EA0000C9417216FEF8DE794E00E9417216EEFDD
:101EB0008DE794E00E94172162E28DE794E00E9492
:101EC00017216FEF8DE794E00E9417216EEF8DE7E9
:101ED00094E00E94172161E08DE794E00C941721B3
:101EE000CF93DF9380910601882321F00E94520F47
:101EF000109206018DE794E00E942409EC018F3FC7
:101F0000910519F48091BE033AC08C3F910521F1EF
:101F100024F48B3F910541F031C08D3F910521F0B4
:101F20008E3F9105C9F02AC08DE794E00E942409F4
:101F3000009749F083309105E9F463E070E0CE0149
:101F40000E941A0F1BC060E070E0CE010E941A0FC1
:101F500081E08093BE0312C08DE794E00E942409C3
:101F6000009741F460E070E0CE010E94360F1092BD
:101F7000BE0304C0BC01CE010E94360F80E0DF9199
:101F8000CF910895CF93DF93CDB7DEB7E8970FB623
:101F9000F894DEBF0FBECDBF6DEA71E08E010F5F1A
:101FA0001F4FC8010E94C533C8010E94E606C80140
:101FB0000E949D32412C512C3201C12CD12C760132
:101FC000312C30E9A32E31E0B32E4DE7842E41E0D1
:101FD000942E8DE794E00E94E122181619069CF4D5
:101FE0008FEFC81AD80AE80AF80A0E94EE088DE7AF
:101FF00094E00E948522682F88ED94E00E945E1D87
:1020000033243394E6CF88ED94E00E94CB1D18165C
:1020100019068CF49FEF491A590A690A790A88ED62
:1020200094E00E943D1D682F8DE794E00E941721E7
:1020300033243394E8CFC2019301332051F240910D
:10204000C403411104C04091C503442399F01F9279
:102050001F921F921F923F932F939F938F93FF92F4
:10206000EF92DF92CF92BF92AF921F930F930E9495
:1020700080370EC07F926F925F924F92FF92EF92E5
:10208000DF92CF929F928F921F930F930E9480377F
:102090000FB6F894DEBF0FBECDBFB801CE01C39618
:1020A0000E940B33CE01C3960E94AF06CE01C396A9
:1020B0000E949D328ECF2F923F924F925F926F92ED
:1020C0007F928F929F92AF92BF92CF92DF92EF92C8
:1020D000FF920F931F93CF93DF93CDB7DEB7EF97A8
:1020E0000FB6F894DEBF0FBECDBF8FE0EEECF2E08E
:1020F000DE01999601900D928A95E1F78091C803CF
:10210000813C41F48091C903843D21F481E08093B6
:10211000BD0302C01092BD0368EC73E089E194E056
:102120000E940A3708EC13E07801F70101900020C3
:10213000E9F73197E85CF340C801885C93408E175B
:102140009F0768F4F80180810E94621A992787FD31
:1021500090950E94B836F80181938F01E6CF68EC24
:1021600073E0CE0101960E940B33CE0101960E94CE
:10217000AF06CE0101960E949D324AE050E06FE921
:1021800072E088EC93E00E941137892B91F48091E2
:10219000D20389831A82CE0101960E949A368A3030
:1021A000910508F04CC4682F83E690E00E940D0B67
:1021B000C8C048E050E06AEA72E088EC93E00E9410
:1021C0001137892B81F480ED93E00E949A368C01BF
:1021D00097FD35C40E94A20B8111FFCF1093C1035C
:1021E0000093C003AEC063EB72E088EC93E00E9402
:1021F0002E37892B09F44FC00E943B07E4E6EE2EF0
:10220000F12C00E010E00F5F1F4F4AE050E0B801F2
:1022100088ED94E00E947B3261E371E0CE0101968B
:102220000E94C533CE0101960E94E106CE010196BF
:102230000E949D32B701CE0101960E94490BCE014A
:1022400001960E94E606CE0101960E949D32F8E2B8
:10225000EF0EF11C09301105B1F60E943B0765E253
:1022600071E0CE0101960E94C533CE0101960E9415
:10227000E106CE0101960E949D3283E690E00E9425
:10228000AD064AE050E0682F88ED94E00E9490325D
:102290000E943B0756C06AEB72E088EC93E00E9414
:1022A0002E37892BC9F004E610E066E972E0CE0112
:1022B00001960E940B33BE016F5F7F4FC8010E94E1
:1022C000290BCE0101960E949D32085D1F4F0C3CE8
:1022D00081E0180751F735C045E050E065EC72E049
:1022E00088EC93E00E941137892B69F58091CD032A
:1022F00088AF19AECE01C8960E949A368C01015063
:1023000011090930110508F09AC38091CE038D336D
:1023100009F095C36FEC73E0CE0101960E940B3378
:1023200028E2209FC001219F900D1124BE016F5F04
:102330007F4F8C599F4F0E94290BCE0101960E941E
:102340009D32912C7EC342E050E06BEC72E088EC51
:1023500093E00E941137892BA1F752E0E52EF12C72
:10236000712C912C5E0199E2A90EB11C88248394F2
:1023700069E1262E64E0362E78E2672EE8ECF3E081
:1023800001900020E9F73197E85CF340EE16FF0674
:1023900018F0711064C355C3FEE4EF16F104CCF7D6
:1023A00087010F5F1F4FF701E853FC4F808188348E
:1023B00009F450C0CCF48A3209F405C254F48D30CB
:1023C00009F43BC3863209F449C18A3009F02EC3AF
:1023D00034C3843409F48CC2853451F1813409F05A
:1023E00025C30E94F20EEAC2833509F482C06CF460
:1023F0008F3409F464C0813509F469C0893409F067
:1024000015C380E00E944B0718C3883509F415C135
:102410008A3521F0863509F009C3FEC00E94440CBC
:102420008DE794E00E940526882309F406C340C086
:10243000E2E0EE0EF11CF801E853FC4F808180339E
:1024400031F0813309F007C180920B0105C1109270
:102450000B0102C1F2E0EF0EF11CF801E853FC4F52
:102460008081803319F0813371F01CC08DE794E0D6
:102470000E940526882319F00E94AC0EEDC080E072
:102480000E94B40EE9C08DE794E00E9405268111F8
:10249000E3C060E070E08DE794E00E94D22C8111EF
:1024A000DBC0D9C08DE794E00E940526882319F08F
:1024B0000E94AC0EC2C280E00E94B40EBEC28091E7
:1024C000C603882309F4B2C210920C01B6C282E09E
:1024D000E80EF11CF801E853FC4F8081803331F0A5
:1024E000813309F0B8C080926D04B6C010926D04BB
:1024F000B3C0C7010296F801E853FC4F2081223394
:1025000011F1293309F464C0203309F093C2970113
:102510002D5F3F4FFC01E853FC4F80818D3309F064
:1025200087C287010C5F1F4FF901E853FC4F808180
:10253000803331F0813309F079C280926C047DC21E
:1025400010926C047AC287010D5F1F4FFC01E853A3
:10255000FC4F80818D3309F070C218AE19AE1AAEEF
:10256000F50101900020E9F7CF0101976C01CA182D
:10257000DB087801412C512C4C145D0491F4A70127
:10258000401B510BB80168537C4FCE01C8960E9486
:102590001F371BAECE01C8960E949A368093090160
:1025A0005BC0F3E04F16510451F3F701E853FC4FC1
:1025B0006081772767FD7095C5010E94F636892BEB
:1025C000F1F69FEFE91AF90AEFEF4E1A5E0AD4CF3F
:1025D00087010D5F1F4FFC01E853FC4F8081893359
:1025E00009F02BC2C7010496F801E853FC4F208183
:1025F0002D3309F01FC20E5F1F4FFC01E853FC4F43
:102600008081803331F0813309F017C280926A04EF
:1026100014C210926A0411C282E0E80EF11CF801A3
:10262000E853FC4F8081803329F08133A1F48092FC
:102630000A0112C010920A010FC092E0E90EF11CCB
:10264000F801E853FC4F8081805380936B04853000
:1026500018F010926B0493948701EFC16701E2E0D8
:10266000CE0ED11CF801E853FC4F80818B3409F465
:102670003FC02CF4833471F0863451F1DDC18335D1
:1026800009F448C0873509F455C0823509F0D4C132
:102690000E94C20F87010D5F1F4FF601E853FC4FE8
:1026A0008081803319F0813331F0C0C11092C303AF
:1026B0006091080109C08092C3038091C6036091B4
:1026C0000801811101C0682580E10E945C2EB5C11E
:1026D00080E00E94160CF0E3F0930F018DE794E088
:1026E0000E940526882309F4A7C10E94AC0EA4C14C
:1026F00087010D5F1F4FF601E853FC4F8081803347
:1027000031F0813309F092C18092C40396C11092D6
:10271000C40393C187010D5F1F4FF601E853FC4FBF
:1027200080818053833008F081C18093C2030E946E
:10273000FD0B83C160910B018AE090E00E940D0BBC
:102740006091C4038BE090E00E940D0B60910A0140
:102750008CE090E00E940D0B60916D048DE090E0A4
:102760000E940D0B60916C048EE090E00E940D0BB6
:10277000609109018FE090E00E940D0B6091C3030E
:1027800081E190E00E940D0B60916B0482E190E08A
:102790000E940D0B60916A0483E190E00E940D0B92
:1027A0006091C20384E190E00E940D0B60910F01E3
:1027B00081E090E00E940D0B8DE794E00E949B2A3F
:1027C00081113AC131C1F7013296D801A853BC4FEB
:1027D0008C918D34D9F034F4823451F08B3409F477
:1027E0006CC083C0803509F44EC0833571F17DC063
:1027F00087010D5F1F4FE853FC4F808190ED980FCC
:10280000943008F013C180930F0117C187010D5F49
:102810001F4FE853FC4F80818D3309F007C100E260
:1028200013E0C701875E9B4F7C01F701E00FF11FAA
:10283000ED51F3406081C8010E947C390F5F1F4F4A
:102840000A3693E0190789F72EC087010D5F1F4FE5
:10285000E853FC4F80818D3309F0E8C0B801675E12
:102860007B4F8DE794E00E945A2A8DE794E00E9406
:102870004A2660E27EE48DE794E00E945D2B8111A0
:1028800012C0939410C087010D5F1F4FE853FC4F97
:1028900080818D3309F0CAC0B801675E7B4F8DE738
:1028A00094E00E94842AF10101900020E9F78F0151
:1028B0000150110909511440C0C0B7016D5F7F4F2D
:1028C000E853FC4F80818D3371F4675E7B4F8DE759
:1028D00094E00E94652AF10101900020E9F7319708
:1028E000E951F44002C09394FB0193948F01A5C079
:1028F0006701F2E0CF0ED11CC80188539C4FFC0148
:1029000020812C3209F45DC034F4222349F02332B3
:1029100009F457C04FC0203559F0243549F04AC05A
:102920008091C603882309F47FC010920C0184C0F3
:10293000C60188539C4F6C010E948B0B87010D5F71
:102940001F4FF6018081833211F08C3279F5F80146
:10295000E853FC4F80818EAF1FAECE01CE960E9411
:102960009A3601978930910508F060C0689EB001E1
:10297000699E700D11246C597F4FCE01C8960E943C
:10298000490B68AD79AD48E250E0CE0101960E9456
:102990001F37CE01C8960E949D32CE0101960E943B
:1029A0008B0BCE0101960E94280E08C0C6010E9422
:1029B0008B0BC6010E94280E0EE410E0772473945E
:1029C0003CC0860108531C4FC8010E948B0BF801C4
:1029D00080818EAF1FAECE01CE960E949A360197AF
:1029E0008930910508F5689EB001699E700D11242B
:1029F0006C597F4FCE01C8960E94490B68AD79ADE6
:102A000048E250E0CE0101960E941F37CE01C896E1
:102A10000E949D32CE0101960E948B0BCE01019641
:102A20000E94280E8601CACF939406C0939405C0D5
:102A3000890103C08C0101C0860178019FCC9924D3
:102A4000939480916A04811102C0911006C062E2E1
:102A500071E080E00E947D0902C00E94FA090E9494
:102A6000FF09EF960FB6F894DEBF0FBECDBFDF9122
:102A7000CF911F910F91FF90EF90DF90CF90BF907B
:102A8000AF909F908F907F906F905F904F903F900E
:102A90002F9008954F925F926F927F929F92AF9284
:102AA000BF92CF92DF92EF92FF920F931F93CF933B
:102AB000DF93CDB7DEB72A970FB6F894DEBF0FBE0F
:102AC000CDBF8DE794E00E94862B882309F47FC058
:102AD0008091BC03882399F08DE794E00E94E12265
:102AE00018161906ECF40E94EE088DE794E00E9497
:102AF0008522682F88ED94E00E945E1DEDCF8091C5
:102B0000C6038823D9F080910C01882309F49DC164
:102B10008DE794E00E94E122181619060CF095C189
:102B20009924939408EC13E0A0E6EA2EA9E0FA2E8B
:102B3000B4E6CB2ED12CAA24A39441C080916E047C
:102B40008111EECF67EA70E0CE0101960E94C53395
:102B5000CE0101960E94AF06CE0101960E949D32E1
:102B60000E94FC0E1EC280910C01882309F4F4C05F
:102B70008091C403882331F06091070169258FE0BB
:102B80000E945C2E88ED94E00E943D1D3C01B82E11
:102B90008D7F8830B9F580910B0181114EC0862D53
:102BA0000E943F07882309F466C08091C8038823E8
:102BB00031F0F80101900020E9F73297108288ED9A
:102BC00094E00E94CB1D181619067CF025C0809158
:102BD0006E04882321F081E00E94B40EE2C180914E
:102BE000C603882309F49CCFF6CF8091BC038823C9
:102BF00009F4B9CF0E940D0988ED94E00E943D1DB3
:102C0000682F1EC1FDE06F1631F224E1621619F241
:102C100080EE860D8B3B58F08091C403882309F425
:102C2000C0C1609107018FE00E945C2EBAC180E8AC
:102C3000860D813408F0AFCFEFCF8091C4038111AE
:102C400014C080911201909113018036E9E09E0733
:102C500010F480E699E0B7010E942034C6010E947A
:102C6000203480E090E00E94852D662D88ED94E070
:102C70000E945E1D94CFFDE0BF1609F452C02AE009
:102C8000B21609F44EC0F80101900020E9F731971F
:102C9000E85CF340E135F10518F00E94FA0972C1D1
:102CA0008091C703882321F0E853FC4F608226C03F
:102CB000309719F0319779F021C0C30199278136F7
:102CC000910531F0813C910519F081349105B1F401
:102CD0006092C80313C0C30199278435910551F050
:102CE0001CF48F9759F406C08437910519F0843D80
:102CF000910521F46092C903A092C7038091C80393
:102D00000E94621A992787FD90950E94B8368134F7
:102D1000910509F054CF8091C9038F3209F04FCF4C
:102D200020C18091C8030E94621A992787FD90955F
:102D30000E94B8368134910509F024C18091C903FD
:102D40000E94621A992787FD90950E94B8368435B3
:102D5000910509F017C119C18091C603882309F4B0
:102D60002ECF88ED94E00E943D1DB82E0E94562D76
:102D7000685E73408109910940907104509072041B
:102D800060907304709074044616570668067906BE
:102D9000A8F480910901B8120FC0809175048B15B9
:102DA00029F0A0927604B092750412C08091760446
:102DB0008F5F809376040CC0109276040E94562D8B
:102DC00060937104709372048093730490937404FD
:102DD00080917604833019F56DED72E0CE01019695
:102DE0000E940B33CE0101960E94AF06CE010196E0
:102DF0000E949D32A0927004109276041092710489
:102E0000109272041092730410927404A0920C0138
:102E10000E943B0762E271E080E00E947D09B0926F
:102E200075040E940D098FEFB81209C08091BE038E
:102E3000882329F06FEF8DE794E00E9417216B2D16
:102E40008DE794E00E941721BACE00E010E0DD2467
:102E5000D3948DE794E00E94E122181619060CF035
:102E60005BC08DE794E00E9485227C019091060171
:102E70008091C503992351F02FEFE216F10419F464
:102E8000D092BF0307C01092BF032CC09FEFE9167A
:102E9000F10441F59091BF03992321F18823D9F0E2
:102EA0008091B0008F7D8093B0005B980E94700F7E
:102EB000882351F0E1E0F0E0EC0FFD1FE00FF11F7F
:102EC0008FEF80830F5F1F4F8091B0008F7D8093C5
:102ED000B0005B9ABECF0E94700F882309F4B9CF6F
:102EE0006FEF15C0882381F08091B0008F7D8093B3
:102EF000B0005B9AE1E0F0E0EC0FFD1FE00FF11F86
:102F0000E0820F5F1F4FA5CF0E94EE086E2D88ED67
:102F100094E00E945E1D9DCF8091C503882309F433
:102F2000FFCD7801093011051CF0F8E0EF2EF12CEF
:102F30008E010F5F1F4F6801C8018C199D098E1506
:102F40009F0544F4F80161918F0188ED94E00E949F
:102F50005E1DF2CF8091B0008F7D8093B0005B98B2
:102F6000DFCD69E174E088EC93E00E940A3780913C
:102F7000C403882329F0609107018FE00E945C2E32
:102F80000E945B100E94FF091ACE8091C40388231F
:102F900029F0609107018FE00E945C2E0E945B1077
:102FA0000ECE2A960FB6F894DEBF0FBECDBFDF91CE
:102FB000CF911F910F91FF90EF90DF90CF90BF9036
:102FC000AF909F907F906F905F904F900895CF93B8
:102FD000DF93CDB7DEB7AE970FB6F894DEBF0FBE66
:102FE000CDBF0E94FD0B3B9A43983C983D9881E0F1
:102FF0000E94160C0E94440C0E94FF0968EE73E0C8
:1030000080E090E00E94852D0E943B0780916F0434
:103010009FEF980F993008F069C0992787FD909528
:10302000019728E2289FB001299F700D11246C5947
:103030007F4FCE0189960E94490B69A57AA548E287
:1030400050E0CE0101960E941F37CE0189960E9462
:103050009D3267E671E0CE0189960E94C533CE01AC
:1030600089960E94E106CE0189960E949D32BE019A
:103070006F5F7F4FCE0189960E940B33CE018996F8
:103080000E94E606CE0189960E949D326AE471E0B4
:10309000CE0189960E94C533CE0189960E94E6062C
:1030A000CE0189960E949D3260ED77E088ED94E034
:1030B0000E9439090196A9F088ED94E00E94240944
:1030C00067E471E0CE0189960E94C533CE018996EE
:1030D0000E94AF06CE0189960E949D3264E471E0A1
:1030E00015C0CE0101960E94280E18C061E471E05F
:1030F000CE0101960E94C533CE0101960E94AF0613
:10310000CE0101960E949D326EE371E088ED94E05D
:103110000E946E3188ED94E00E94A8310E944A1509
:10312000FDCFCF93DF93CDB7DEB72C970FB6F894D2
:10313000DEBF0FBECDBF0E94BF2D8DEF94E00E9479
:10314000CA1C60E08DEF94E00E94C01A61E08DEF30
:1031500094E00E947A1C3D98399A5298539A809133
:10316000B0008F7D8093B0005B98609107018FE085
:103170000E945C2E3A9A81E190E00E94AD0691E0B7
:10318000811101C090E09093C303609108019923DD
:1031900011F081E0682780E10E945C2E84E190E0DC
:1031A0000E94AD068093C203823009F4389881E012
:1031B00090E00E94AD0680930F01823369F0833363
:1031C00001F1813339F580EB94E090931301809302
:1031D000120160EA73E008C080E699E09093130161
:1031E000809312016BE973E0CE0101960E94C53312
:1031F000CE0101960E94AF06CE0101960E949D323B
:10320000ABC080E895E2909313018093120166E9C8
:1032100073E0EACF82E090E00E94AD06182F83E0D1
:1032200090E00E94AD06212F30E0322F2227280F98
:10323000311D3093130120931201203B84E03807A5
:10324000C9F0203699E03907A9F0203C82E138071F
:1032500089F0203895E2390769F021158BE43807A9
:1032600049F02115364931F080E699E09093130139
:103270008093120160E085E00E94232E61E085E0EA
:103280000E945C2E67E873E0CE0101960E94C53370
:10329000CE0101960E94AF06CE0101960E949D329A
:1032A00085E090E00E94A30A6B017C01603B24E072
:1032B00072078105910509F180E6C81689E0D806F4
:1032C000E104F104D1F090ECC91692E1D906E104D1
:1032D000F10499F020E8C21625E2D206E104F104D7
:1032E00061F0C1148BE4D806E104F10431F0C1149B
:1032F00096E9D906E104F10479F5FF92EF92DF92A5
:10330000CF9283E893E09F938F938E01095F1F4FC5
:103310001F930F930E948037B801CE0101960E943F
:103320000B33CE0101960E94AF06CE0101960E949A
:103330009D32C0921201D09213016D2D82E090E077
:103340000E940D0B6C2D83E090E00E940D0B0FB6D8
:10335000F894DEBF0FBECDBF68EB7BE080E090E06D
:103360000E94852D409112015091130160E070E0A0
:1033700088ED94E00E94251F4091100150911101A9
:1033800060E070E026E081E895E00E94BC2F48EE06
:1033900053E060E070E088ED94E00E94973241E0F5
:1033A000209112013091130180911001909111012F
:1033B0002817390709F440E04093C50388ED94E0ED
:1033C0000E94A83165E773E0CE0101960E94C533E3
:1033D000CE0101960E940707CE0101960E949D3200
:1033E00040E050E061E875E08DE794E00E94DC2960
:1033F0008823C1F06BE673E0CE0101960E94C533CD
:10340000CE0101960E940707CE0101960E949D32CF
:103410000E94980B8091120190911301803699407F
:1034200089F422C06DE573E0CE0101960E94C53398
:10343000CE0101960E940707CE0101960E949D329F
:103440000E94C20F68EE73E080E090E00E94852D3C
:103450008091120190911301803B24E0920711F4B6
:1034600080E699E00E94D30C41E020911201309156
:10347000130180911001909111012817390709F467
:1034800040E04093C5038DE794E00E94932B83E6D0
:1034900090E00E94AD0680936F0466E373E0CE0176
:1034A00001960E94C533CE0101960E94E606CE0128
:1034B00001960E949D320E943B0781E00E944B07CB
:1034C0000E94E7178D3061F08A3061F0803260F041
:1034D000803A61F09FE3980F9A3148F4805808953C
:1034E0008AE008958DE0089580E0089580E20895CF
:1034F0000DB407FEFDCF0895FC016387448708954E
:103500000F936034D8F54033C8F50130C9F4213049
:10351000A9F5E42FE695E695E69580E4E89FF001AD
:103520001124E60FF11DEC5EFE4F477081E090E044
:10353000042E01C0880F0A94EAF7908198271DC0D5
:10354000842F869586958695E62FF0E0477090E467
:10355000899FE00DF11D1124EC5EFE4F81E090E0AB
:10356000042E01C0880F0A94EAF7213019F49081E3
:10357000982B03C080959081982390830F91089594
:10358000DC0161112EC018961C921897809194024C
:1035900090919502FC01249116962C9316973196E2
:1035A000E4911796EC931797FC013296E4911996E3
:1035B000EC931997FC013396E4911A96EC931A97C1
:1035C000FC01349624913196849190E0F4E62F9F8B
:1035D000800D911D11241E969C938E931D9781E062
:1035E000089580E008955F926F927F928F929F92EC
:1035F000AF92BF92CF92DF92EF92FF920F931F9301
:10360000CF93DF93EC01162FB42EF02E39852317BC
:1036100008F4B0C06A8570E0630F711D822F90E0DE
:10362000861797070CF0A6C0D22ED31A9F809694C7
:103630009694969481E08915C0F1C12E3C2D311BE2
:103640002E81822F90E0A32FB0E08A179B070CF405
:1036500091C0321791F0E885F0E0EE0FFF1FEC56B5
:10366000FD4FD29EA00DB11D112416960190F08140
:10367000E02DEA0FFB1F949001C0912CA12C4A2D44
:103680004B0D90FE03C00E2D2F2D04C021E0F11034
:1036900020E00E2D6C2DCE010E94801A9694A394EA
:1036A00088E0A812ECCFC394C9CFED85FE852E81AA
:1036B00030E0CF01B9010E9420348D2D90E00E94AE
:1036C0002034829F6001839FD00C929FD00C1124E4
:1036D0009E9E90019F9E300D1124269FC001279F22
:1036E000900D369F900D1124C80ED91E742EA12C5A
:1036F000B12C86E0C80ED11C812E482D411B8E8135
:10370000481780F5E885F0E0EE0FFF1FEC56FD4FFF
:103710002D853E85A29EC001A39E900DB29E900D68
:1037200011248C0D9D1D840F911D0190F081E02DC1
:10373000E80FF91F5490612C462D470D50FE03C031
:103740000E2D2F2D04C021E0F11020E00E2D682D4C
:10375000CE010E94801A5694639488E06812ECCFE0
:103760008394CBCF8FEFA81AB80A88E0780EA914FB
:1037700008F4C2CFDF91CF911F910F91FF90EF908E
:10378000DF90CF90BF90AF909F908F907F906F9081
:103790005F900895EF920F93CF93DF93EC01262F64
:1037A0006A30A9F06D30C1F0ED800C814C856B85DD
:1037B0000E94F31A4E812B85240F2F5F2B8730E058
:1037C00080E490E0841B9109821793072CF48C8588
:1037D0009F81890F8C871B8681E090E0DF91CF91DC
:1037E0000F91EF9008952A9A22982898209A60E0E5
:1037F0008DE00E945C2E60E08BE00E945C2E61E018
:103800008DE00E94232E61E08BE00E94232E8CB578
:1038100080618CBD08958CB580648CBD2A98229AF5
:1038200008950DB407FEFDCF2898209A2A9A229871
:103830008CB58F7B8CBD0895CF93DF9300D0CDB72F
:10384000DEB74A8369830E940B1C69816EBD0E94AA
:10385000781A4A814EBD0F900F90DF91CF910C9452
:10386000111CCF93DF9300D01F92CDB7DEB72B830F
:103870004A8369830E940B1C69816EBD0E94781A7D
:103880004A814EBD0E94781A2B812EBD0F900F9059
:103890000F90DF91CF910C94111C0F931F93CF9336
:1038A000DF93EC0140E060E20E941C1C2FE740E047
:1038B00061E2CE010E94311C27E040E062E2CE01CD
:1038C0000E94311C0E940B1C289A20981EBC0FEFEE
:1038D00013E00E94781A1EBC01501109D1F70E9412
:1038E000111C42E060E2CE01DF91CF911F910F9158
:1038F0000C941C1C613011F40C944D1C80E891E078
:10390000E4E1F1E0DF019C011D9221503040E1F73C
:1039100008950F931F93CF93DF93EC0140E060E293
:103920000E941C1C2FE540E261E2CE010E94311C86
:1039300025E040E062E2CE010E94311C0E940B1C97
:10394000289A2098809114018EBD05E111E00E9413
:10395000781AF80181918F018EBDF2E004391F07BA
:10396000B1F70E94111C42E060E2CE01DF91CF91DD
:103970001F910F910C941C1C2CB5982F93702C7FC9
:10398000922B9CBD9DB582FB882780F99E7F982B4A
:103990009DBD0895CF93DF93EC0160E00E94C01AB3
:1039A00081E08C831D821B861C865F98579A61E09C
:1039B00084E00E94232E61E084E00E945C2E6AE095
:1039C00070E080E090E00E94852D5F9A579865E056
:1039D00070E080E090E00E94852D5F98579A84E027
:1039E0000E94BC1C0E94F31B65E070E080E090E048
:1039F0000E94852D5F9A57986AE070E080E090E021
:103A00000E94852D4FE268EACE010E941C1C44E111
:103A10006DE8CE010E941C1C0E940B1C81EA8EBD29
:103A20000E94111C0E940B1C88EC8EBD0E94111C70
:103A30004FE861E8CE010E941C1C41EF69EDCE0108
:103A40000E941C1C40E46BEDCE010E941C1C0E94D5
:103A50000B1C8FEA8EBD0E94111CCE01DF91CF910D
:103A60000C944D1C109200051092FF0489EE92E018
:103A70009093FE048093FD04089520914E053091AB
:103A80004F0528173907B9F490910C0580910D0561
:103A9000981789F0E0910C05F0E0E25FFA4F808121
:103AA00020910C0530E02F5F3F4F2F733327209379
:103AB0000C0590E008958FEF9FEF08951F93CF932B
:103AC000DF93DC015C968D919C915D97009749F4A2
:103AD00081E090E013969C938E93129780E090E0A3
:103AE0003BC05196ED91FC91529750962C91509776
:103AF000322F30951FB75E964C915E9741FB77272A
:103B000070F941FD6095F8944081772311F0422BC4
:103B100001C043234083EC012197F1F748E0508135
:103B200060FF02C0522B01C053235083EC01219748
:103B3000F1F76695415099F78081772311F083233F
:103B400001C0822B80831FBF5C968D919C915D97F5
:103B50000197F1F781E090E0DF91CF911F910895F7
:103B6000089520914E0530914F052817390781F4AB
:103B700090910C0580910D05981751F0E0910C057E
:103B8000F0E0E25FFA4F8081992787FD90950895D4
:103B90008FEF9FEF089520914E0530914F05281724
:103BA000390771F480910D0520910C0590E0805C3F
:103BB0009F4F821B910960E470E00E9434340895A5
:103BC00080E090E00895E0914E05F0914F05E817F0
:103BD000F90769F4A389B4899C9185898095892323
:103BE0008C9310924F0510924E0581E0089580E06D
:103BF0000895CF93DF93EC018A8D9B8D892BF1F093
:103C000080914E0590914F058C179D07B9F0009754
:103C100011F00E94E31D8E8D8E7F8E8F10920D0508
:103C200010920C05D0934F05C0934E05EB89FC898B
:103C300080819D89892B808381E001C080E0DF91B4
:103C4000CF9108951F920F920FB60F9211242F93C8
:103C50003F934F935F936F937F938F939F93AF9314
:103C6000BF93EF93FF93E0914E05F0914F0530978E
:103C700009F451C0868DA685B785958581FF04C05E
:103C80008C91892329F447C08C91892309F043C082
:103C9000A389B4899C918589809589238C93868991
:103CA00097890197F1F7208D318DA685B7857585A8
:103CB00058E040E0C9010197F1F7842F90E0959515
:103CC0008795482F6C91672309F04068515091F710
:103CD000868D81FD409580910D0590E001968F7352
:103CE000992720910C05281749F0A0910D05B0E007
:103CF000A25FBA4F4C9380930D0503C0868D8160FF
:103D0000868F828D938D0197F1F7A389B4898C9169
:103D10009589892B8C93FF91EF91BF91AF919F91E2
:103D20008F917F916F915F914F913F912F910F9064
:103D30000FBE0F901F90189521EF32E0FC013183E8
:103D400020830C94E31D1F93CF93DF93EC01162F78
:103D50006E8D6695617081E06827812F0E945C2ED0
:103D600061E0812F0E94232E812F90E0FC01E95D0C
:103D7000F34FE491E88BFC01E55CF34FE491F0E054
:103D8000EE0FFF1FE75AF34F859194919A8B898B21
:103D9000DF91CF911F9108951F93CF93DF93EC0193
:103DA000162F60E0812F0E94232E8E8D81FD04C08E
:103DB00061E0812F0E945C2E1C87812F90E0FC0126
:103DC000E95DF34FE491ED87FC01E55CF34FE4918D
:103DD000F0E0EE0FFF1FE15BF34F859194919F8719
:103DE0008E87DF91CF911F910895FF920F931F93BC
:103DF000CF93DF93EC01F62E522F1B821A8208EE2E
:103E000013E020E030E00C831D832E833F8381EF9D
:103E100092E0998388831F8A1E8A198E188E1B8EC2
:103E20001A8E1D8E1C8E8E8D8E7F50FB81F98E8F8B
:103E3000642FCE010E94A31E6F2DCE01DF91CF9182
:103E40001F910F91FF900C94CC1ECF93DF93EC0148
:103E50009A01AB011B8E1A8E198E188E1F8A1E8A2C
:103E600060E079E08DE390E00E946A34C90124307B
:103E7000310520F0B9016350710902C061E070E0C2
:103E80007D8F6C8FEC85E63108F068C0B9017695BE
:103E900067956431710518F06351710902C061E0E2
:103EA00070E07F8B6E8B069718F0C901059702C0F2
:103EB00081E090E0998F888FC901880F991F820F48
:103EC000931F96958795969587958D30910510F05F
:103ED0000C9702C081E090E09B8F8A8F2091680050
:103EE000E83050F091E0EE3008F490E081E001C05D
:103EF000880F9A95EAF701C084E0822B80936800CE
:103F00002C85283038F02E3040F0263148F48CE6ED
:103F100090E008C08DE690E005C08BE690E002C01E
:103F200080E090E09C8B8B8B283030F481E001C0E6
:103F3000880F2A95EAF70DC0822F90E02E3010F4FA
:103F4000089701C00E9791E001C0990F8A95EAF792
:103F5000892F8D8B8C8D9D8D0197F1F7CE01DF918F
:103F6000CF910C94F91D0C94E31DDC011C968D91EE
:103F70009C911D97DC01ED91FC910680F781E02D6D
:103F80000994DC011C968D919C911D97DC01ED91AB
:103F9000FC910480F581E02D0994DC011C968D9143
:103FA0009C911D97DC01ED91FC910284F385E02D3D
:103FB0000994DC011C968D919C911D97DC01ED917B
:103FC000FC910084F185E02D09942F923F924F924D
:103FD0005F926F927F928F929F92AF92BF92CF9299
:103FE000DF92EF92FF920F931F93CF93DF93CDB7A2
:103FF000DEB760970FB6F894DEBF0FBECDBF2B01C2
:104000003C0169014A3021F5CE0101961C01E12CE9
:10401000F12C5AE0852E912CA12CB12CC301B201B8
:10402000A50194010E9448349FEFE91AF90A80E340
:10403000840DEAE02E9F80191124F10181931F0164
:104040002115310541055105C9F129013A01E6CF94
:10405000FE01319680E090E0B301A2014F70552738
:10406000662777279C012F5F3F4F4A305105610536
:10407000710510F4A0E301C0A1E44A0F419344E0AC
:1040800076946794579447944A95D1F74114510414
:104090006104710411F0C901DFCFE1E0F0E0EC0F41
:1040A000FD1FE20FF31F48E740837C01F3E0EF0EB2
:1040B000F11CFE01E80FF91F20E3238321E0E21A3F
:1040C000F108F60180E090E0015011090196A1E0AD
:1040D000B0E0AC0FBD1FAE0DBF1D2C9121931E147F
:1040E0001F04ECF0F601E80FF91F108260960FB67E
:1040F000F894DEBF0FBECDBFDF91CF911F910F911E
:10410000FF90EF90DF90CF90BF90AF909F908F90F7
:104110007F906F905F904F903F902F90089521E097
:10412000E21AF10880179107ECF6D0CFCF92DF9218
:10413000EF92FF920F931F93FC0140E060E070E06C
:10414000CB010191002309F449C020ED200F2A3052
:10415000B0F414E0660F771F881F991F1A95D1F7E6
:104160006053710981099109C02EDD24C7FCD094E8
:10417000ED2CFD2C6C0D7D1D8E1D9F1DE2CF2FE9BA
:10418000200F263060F4B4E0660F771F881F991F58
:10419000BA95D1F767557109810991090FC02FEBC5
:1041A000200F2630A8F4A4E0660F771F881F991F00
:1041B000AA95D1F76753710981099109112707FD64
:1041C0001095212F312F600F711F821F931FB9CFC0
:1041D000083721F4411102C041E0B3CF1F910F9184
:1041E000FF90EF90DF90CF9008950F931F93FC0105
:1041F00060E070E0CB01019120ED200F2A30A0F4A7
:10420000AAE0B0E09B01AC010E948F3460537109B9
:1042100081099109112707FD1095212F312F600F7A
:10422000711F821F931FE7CF1F910F910895DC012B
:10423000A95ABF4F2D913C911197FC01E75AFF4FAE
:10424000408151812417350764F434970190F0813F
:10425000E02DA9014F5F5F4F4D935C93E20FF31F79
:104260006083FC01EC5BFF4F80819181DC01ED916B
:10427000FC910190F081E02D09948C5B9F4FDC0153
:104280008D919C91DC01ED91FC910284F385E02DF0
:104290000994DC011C968D919C911D97009739F033
:1042A000DC01ED91FC910190F081E02D099480E01A
:1042B00090E008952091610521110CC0FC01EC5B98
:1042C000FF4F80819181DC01ED91FC910084F185AB
:1042D000E02D0994E0916205F0E0EC59FA4F8081FD
:1042E000992787FD90950895DC01ED91FC9101904F
:1042F000F081E02D09944F925F926F927F92AF927E
:10430000BF92CF92DF92EF92FF920F931F93CF93C2
:10431000DF93EC015B016A010E94562D2B013C01E9
:10432000E12CF12C8E010C5B1F4F0E94562D64195D
:104330007509860997096C157D058E059F05A0F501
:10434000D8018D919C91DC01ED91FC910480F58167
:10435000E02D09951816190644F7F801808191811E
:10436000DC01ED91FC910680F781E02D0995F501C6
:104370008083DE01A95ABF4F2D913C911197FE0118
:10438000E75AFF4F40815181241735077CF4CB5AFF
:10439000DF4FE881F981A9014F5F5F4F4D935C9337
:1043A000E20FF31F808302C080E001C081E0DF9153
:1043B000CF911F910F91FF90EF90DF90CF90BF9022
:1043C000AF907F906F905F904F900895EF92FF9223
:1043D0000F931F93CF93DF931F92CDB7DEB78C015E
:1043E0007B01A701BE016F5F7F4FC8010E947B2147
:1043F0008111F7CF0F90DF91CF911F910F91FF9017
:10440000EF900895FF920F931F93CF93DF938C014A
:1044100090916105992309F1442321F06F5F7F4F4B
:1044200081E001C080E020916205820FFB01BF01A5
:10443000382F321B3917A8F434913323C1F1893056
:1044400010F4A82F01C0A0E031968F5FB0E0AC5906
:10445000BA4F4C91431759F340C0411102C06F5FEE
:104460007F4FFB01F490EB0121966091630570E0B2
:104470006C597A4F44EF51E0C8010E947B21809132
:104480006305E82FF0E0EC59FA4F20819091610527
:104490008F5F2F1114C08830E8F4809363059F5F0D
:1044A00090936105FE01F4902196F110DECF1092F9
:1044B0006105109262051092630581E00FC088309B
:1044C00018F48093630502C0109263059F5F909378
:1044D000610503C010926305E2CF80E0DF91CF91C8
:1044E0001F910F91FF900895CF93DF93EC01462F1A
:1044F00067E97AE00E940222882319F01CAE81E06D
:1045000001C080E0DF91CF910895CF93DF93EC015C
:1045100080916105882381F0E091620591E09E0F12
:1045200090936205F0E0EC59FA4F208130E098302A
:1045300068F1109262052AC0FE01EC5BFF4F80819A
:104540009181DC01ED91FC910680F781E02D0995C8
:104550009C018CAD8823E9F02A323105D1F460E06A
:10456000CE010E947422811116C0E091620581E0A3
:104570008E0F80936205F0E0EC59FA4F208130E015
:10458000883010F01092620580916105815080930F
:104590006105C90102C08FEF9FEFDF91CF910895B0
:1045A000CF93DF93EC01462F60E97AE00E9402226C
:1045B000882319F081E08CAF01C080E0DF91CF91BA
:1045C0000895EF92FF920F931F93CF93DF938C0187
:1045D000EC01CC5BDF4F88819981DC01ED91FC918E
:1045E0000480F581E02D09957C01181619065CF50B
:1045F00088819981DC01ED91FC910084F185E02DA9
:1046000009958A9701F5F80184AD61E0882331F0BE
:10461000C8010E947422882321F012C0C8010E94A0
:10462000D0220091610510E088819981DC01ED9133
:10463000FC910480F581E02D0995800F911F09C040
:104640008FEF9FEF06C080916105F701E80FF11D24
:10465000CF01DF91CF911F910F91FF90EF900895BF
:10466000CB0161E575E00E942E3721E0892B09F42A
:1046700020E0822F08958F929F92AF92BF92CF92A7
:10468000DF92EF92FF920F931F93CF93DF931F92CE
:10469000CDB7DEB76C017B015A016115710529F1B7
:1046A000FB018081882309F18B014B01FFEF8F1AF9
:1046B0009F0AA501BE016F5F7F4FC6010E947B214B
:1046C0008823A1F08981F8019081891303C00F5FCD
:1046D0001F4F07C0F7019081891302C0840101C0F8
:1046E0008701F80180818111E4CF81E00F90DF9193
:1046F000CF911F910F91FF90EF90DF90CF90BF90DF
:10470000AF909F908F9008957F928F929F92AF92DB
:10471000BF92CF92DF92EF92FF920F931F93CF93AE
:10472000DF931F92CDB7DEB76C017B015A01FB010D
:1047300074907720B9F08B014B01FFEF8F1A9F0A1D
:10474000A501BE016F5F7F4FC6010E947B218823B8
:10475000C1F02981271108C00F5F1F4FF801749025
:104760007110EECF81E00DC0F7018491332727FD52
:10477000309590E02817390711F48401EFCF8701B5
:10478000EDCF0F90DF91CF911F910F91FF90EF90A0
:10479000DF90CF90BF90AF909F908F907F900895C3
:1047A0004F925F926F927F929F92AF92BF92CF9201
:1047B000DF92EF92FF920F931F93CF93DF931F929D
:1047C000CDB7DEB77C01962EA72EB42E69014DB66B
:1047D0005EB6242F30E0C901880F991F820F931F06
:1047E0002DB73EB7281B390B0FB6F8943EBF0FBE4E
:1047F0002DBF8DB79EB701963C01E62FF72FDC0148
:1048000020E02B1559F11C928191919112969C9365
:104810008E9311972F5F1396F4CF1196ED91FC9123
:1048200012974491941781F1F80160817181FB0125
:10483000449150E02417350731F112967C936E9322
:1048400011971196ED91FC911297E49113960E5FDA
:104850001F4FEE23F9F08F5F8B11DFCFA601BE0152
:104860006F5F7F4FC7010E947B21811102C08FEFD4
:1048700011C09981292F332727FD3095092D1A2D35
:10488000D30180E0E9CFFB0131961296FC93EE93C1
:104890001197D7CF0FB6F8945EBE0FBE4DBE0F90E6
:1048A000DF91CF911F910F91FF90EF90DF90CF900C
:1048B000BF90AF909F907F906F905F904F900895C2
:1048C000CF93DF93EC018D85882391F066E77AE042
:1048D000CE010E946E3144EF51E06FE67AE0CE01E6
:1048E0000E948423882311F01D8602C080E001C04D
:1048F00081E0DF91CF9108955F926F927F928F92C6
:104900009F92AF92BF92CF92DF92EF92FF920F935E
:104910001F93CF93DF931F92CDB7DEB76C017B015E
:10492000390100E010E04A0182E0881A91085A013A
:1049300081E0A81AB108A301BE016F5F7F4FC601D5
:104940000E947B21882309F440C059808DE05812D1
:104950002DC0A301BE016F5F7F4FC6010E947B2166
:1049600089818A3041F4E114F104B9F1F701E00FD3
:10497000F11F108232C0E114F104C1F008151905CD
:1049800064F4F8013196D701A00FB11F5C920E5F5D
:104990001F4FEE0DFF1D808309C00A151B0534F45F
:1049A000F701E00FF11F50820F5F1F4F0A151B0523
:1049B00014F6E114F10409F4BECFF701E00FF11F82
:1049C000898180830F5F1F4FB6CFE114F10439F066
:1049D000F701E00FF11F108203C0C80102C080E0A0
:1049E00090E00F90DF91CF911F910F91FF90EF908A
:1049F000DF90CF90BF90AF909F908F907F906F90FF
:104A00005F900895CF92DF92EF92FF920F931F93E2
:104A1000CF93DF931F92CDB7DEB78C0144EF51E007
:104A2000BE016F5F7F4FC8010E947B218823A9F0E0
:104A300089818C3399F78093510552E5E52E55E035
:104A4000F52EDD24D39444EF51E0BE016F5F7F4F1C
:104A5000C8010E947B21811102C080E035C0CC24B6
:104A6000C394CD0C8981F70181937F018E3339F591
:104A700044EF51E0BE016F5F7F4FC8010E947B2170
:104A8000882359F38981803241F7AC2DB0E0AF5AC9
:104A9000BA4F8C93D394D394ED2DF0E0EF5AFA4FA4
:104AA000108281E08093500524EF31E040E050E037
:104AB00060E070E0C8010E947C2481E005C0FCE059
:104AC000CF1659F2DC2CBFCF0F90DF91CF911F9101
:104AD0000F91FF90EF90DF90CF900895AB01209160
:104AE0005005211102C00C94022561E575E00C947B
:104AF0003B23FF920F931F93CF93DF93EC018D85A0
:104B000081116FC06AEF70E080E090E00E94852D17
:104B10006CE87AE0CE010E946E316AEF70E080E0CE
:104B200090E00E94852D44EF51E066E87AE0CE01E6
:104B30000E948423811116C0FE01EC5BFF4F80812F
:104B40009181DC01ED91FC910190F081E02D6DE00F
:104B5000099564EF71E0CE010E946E2581113AC083
:104B600015E01EC080915005811134C065E0F62E1D
:104B70008E010C5B1F4FF80180819181DC01ED916A
:104B8000FC910190F081E02D6DE0099564EF71E0FA
:104B9000CE010E946E2581111DC0FA9461F7CCCF21
:104BA0006AEF70E080E090E00E94852D62E87AE094
:104BB000CE010E946E316AEF70E080E090E00E94CA
:104BC000852D44EF51E06CE77AE0CE010E9484230A
:104BD000882319F081E08D8705C0115009F780E026
:104BE00001C081E0DF91CF911F910F91FF90089557
:104BF000FC012389348921503109348B238B232BE9
:104C000011F40C94602481E00895FC0186850895D8
:104C1000CF92DF92EF92FF920F931F93CF93DF9388
:104C200000D000D0CDB7DEB77C018B016A0184E2F1
:104C30009AE09A8389838EE19AE09C838B8324EFA8
:104C400031E042E0BE016F5F7F4FC7010E94D02379
:104C5000813091F0811108C024EF31E0A601B80144
:104C6000C7010E947C2406C0A60164E17AE0C80165
:104C70000E94DE3680E001C081E00F900F900F901F
:104C80000F90DF91CF911F910F91FF90EF90DF90E8
:104C9000CF900895CF93DF93EC0168E179E00E9413
:104CA0006E3164E670E0CE010E94E6211FAE81E025
:104CB000DF91CF910895AF92BF92CF92DF92EF92A2
:104CC000FF920F931F93CF93DF93CDB7DEB760971B
:104CD0000FB6F894DEBF0FBECDBF5C016A017B0149
:104CE00000E110E09E012F5F3F4F4AE0C701B6018F
:104CF0000E94E51FC5010E94E52600E020E030E0AB
:104D0000AE014F5F5F4F60E179E0C5010E94142959
:104D1000882351F0C5010E94F825F501C786D08A85
:104D2000E18AF28A81E004C0C5010E94F82580E092
:104D300060960FB6F894DEBF0FBECDBFDF91CF9166
:104D40001F910F91FF90EF90DF90CF90BF90AF90A9
:104D50000895CF93DF93EC018E85882399F11E8609
:104D600061E57AE0CE010E946E31CE010E94792584
:104D700040E157E26DE47AE0CE010E948423811184
:104D80000CC04F85588969897A89CE010E945B26BB
:104D9000CE01DF91CF910C94F82568EE73E080E0AE
:104DA00090E00E94852D4F85588969897A89CE01C6
:104DB0000E945B26CE010E94F825CE01DF91CF91A3
:104DC0000C94A529DF91CF910895CF93DF93EC0147
:104DD0000E94A9268D85882339F08B899C890196AC
:104DE0009C8B8B8B81E005C0CE010E9479258111BF
:104DF000F4CFDF91CF910895CF92DF92EF92FF929F
:104E00000F931F93CF93DF93EC018B016A0179011C
:104E10000E94E526882351F1000F111F000F111F7A
:104E2000095D1C4FF80160817181CE010E946E31D5
:104E3000F8016281738144EF51E0CE010E94842326
:104E4000882389F024EF31E0A701B601CE010E944A
:104E50007C2464EF71E0CE010E946E25CE010E9499
:104E6000F825C60105C0CE010E94F8258DEF92E01D
:104E7000DF91CF911F910F91FF90EF90DF90CF9036
:104E80000895CF93DF93D62FC72F9A01462F572F20
:104E900060E070E00E94FC26892B49F0ED2FFC2F8A
:104EA000DF018191882329F08A33D1F702C0AD2F29
:104EB000BC2F1C928D2F9C2FDF91CF910895CF9303
:104EC000DF93CDB7DEB766970FB6F894DEBF0FBE9F
:104ED000CDBF26E130E0AE014F5F5F4F60E070E094
:104EE0000E94FC26892BC1F080E0E1E0F0E0EC0FAD
:104EF000FD1FE80FF11D9081992319F08F5F9A3300
:104F0000A1F721E030E02C0F3D1F280F311DC90112
:104F10000E94F520CB0102C080E090E066960FB6BB
:104F2000F894DEBF0FBECDBFDF91CF9108959A01F7
:104F3000AB0163E070E00C94FC269A01AB0164E0E5
:104F400070E00C94FC261F93CF93DF93CDB7DEB7B0
:104F50002B970FB6F894DEBF0FBECDBF142F2BE0FA
:104F600030E0AE014F5F5F4F0E94FC26892B51F06D
:104F7000CE0101961A3019F40E94F52006C00E9455
:104F8000962003C060E070E0CB012B960FB6F8943A
:104F9000DEBF0FBECDBFDF91CF911F91089540E1DD
:104FA0006BE170E00E94A327862F0895CF93DF93D3
:104FB000CDB7DEB760970FB6F894DEBF0FBECDBF9A
:104FC00020E130E0AE014F5F5F4F6CE070E00E9487
:104FD000FC26892BE1F143E050E061E47AE0CE0168
:104FE00001960E94D036892B51F142E050E06EE3E9
:104FF0007AE0CE0101960E94D036892B11F146E06D
:1050000050E067E37AE0CE0101960E94D036892B0A
:10501000D1F045E050E061E37AE0CE0101960E94D4
:10502000D036892B91F046E050E06AE27AE0CE017A
:1050300001960E94D036892B51F484E009C080E0AB
:1050400007C081E005C082E003C083E001C08FEFAC
:1050500060960FB6F894DEBF0FBECDBFDF91CF9143
:105060000895EF92FF920F931F93CF93DF93CDB7E5
:10507000DEB760970FB6F894DEBF0FBECDBF8C01D0
:105080000E94E526882309F467C067E67AE0C80134
:105090000E946E3124EF31E040E150E0BE016F5FCD
:1050A0007F4FC8010E947C247C01BE016F5F7F4F4F
:1050B000C8010E943023882361F024EF31E040E1F1
:1050C00050E0BE016F5F7F4FC8010E947C247C01CD
:1050D00005C064EF71E0C8010E946E2525E0E2166C
:1050E000F1041CF4CE01019608C0C7010497E1E069
:1050F000F0E0EC0FFD1F8E0F9F1F0E949620F62EF2
:10510000E72E862F8F70F80186AFF4FA882780F992
:1051100087AFE05CFF4FF5FA882780F980833196EE
:10512000F6FA882780F980833196F7FA882780F984
:1051300080838E2D86958F7031968083C8010E9462
:10514000F825F80186AD813011F484AF02C0F80172
:1051500014AE8F2D9E2D02C080E090E060960FB6B9
:10516000F894DEBF0FBECDBFDF91CF911F910F919D
:10517000FF90EF900895AF92BF92CF92DF92EF929F
:10518000FF920F931F93CF93DF931F92CDB7DEB79C
:105190008C017B016A0159010E94E5268823B9F13F
:1051A00065E47AE0C8010E946E31B701C8010E942F
:1051B0009F316DE972E0C8010E949F3148E853E1D8
:1051C000B701C8010E943B238823C9F044EF51E096
:1051D000BE016F5F7F4FC8010E947B2124EF31E049
:1051E000A501B601C8010E947C2464EF71E0C801EA
:1051F0000E946E25C8010E94F82581E009C064EF75
:1052000071E0C8010E946E25C8010E94F82580E067
:105210000F90DF91CF911F910F91FF90EF90DF9052
:10522000CF90BF90AF900895AF92BF92CF92DF9290
:10523000EF92FF920F93CF93DF93CDB7DEB76297D4
:105240000FB6F894DEBF0FBECDBF7C015A016901D5
:10525000698B7A8B0E94E52669897A89882309F40B
:1052600063C0C7010E946E31C114D10419F160E21C
:10527000C7010E9474210023C1F0570184E5A80EE4
:10528000B11CF60164916623C1F1D701ED91FC9147
:105290000190F081E02D603211F4D5016C91C701CD
:1052A0000995BFEFCB1ADB0AECCFB601C7010E940C
:1052B0006E3123C0A114B10401F160E2C7010E9464
:1052C00074210023B1F06701F4E5CF0ED11CF50184
:1052D00061915F01662389F0D701ED91FC91019006
:1052E000F081E02D603211F4D6016C91C70109956F
:1052F000EECFB501C7010E949F316DE0C7010E944A
:10530000742140E150E0BE016F5F7F4FC7010E94F2
:105310000826082F64EF71E0C7010E946E25C701BF
:105320000E94F825802F01C080E062960FB6F894A5
:10533000DEBF0FBECDBFDF91CF910F91FF90EF90F9
:10534000DF90CF90BF90AF9008950F93CF93DF93EE
:10535000EC0119AE18AE188E00E020E030E040E01D
:1053600050E063EC7AE00E94142920E030E040E055
:1053700050E060EB7AE0CE010E94142920E030E09A
:1053800040E050E06EE97AE0CE010E941429CE019F
:105390000E943128CE010E94D6278B7F91E009F42C
:1053A00090E09D8BCE010E94CF27CC5ADF4F88839F
:1053B000DF91CF910F910895CF93DF93EC01FC0122
:1053C000EC5BFF4F718360830E947925882341F055
:1053D000CE010E94A529CE01DF91CF910C946024CB
:1053E00080E0DF91CF910895CF92DF92EF92FF920C
:1053F0000F931F93CF93DF93CDB7DEB72B970FB6E5
:10540000F894DEBF0FBECDBF7C016B01CA01B901AC
:10541000402F0BE010E09E012F5F3F4F0E94E51FE1
:1054200000E020E030E0AE014F5F5F4FB601C70102
:105430000E9414292B960FB6F894DEBF0FBECDBF85
:10544000DF91CF911F910F91FF90EF90DF90CF9060
:1054500008950F939B0140E050E00AE066ED79E08B
:105460000E94F4290F9108950F93262F30E040E019
:1054700050E000E164E979E00E94F4290F91089579
:105480000C94342A0F93262F30E040E050E000E1E6
:1054900067E879E00E94F4290F9108950F9300E0E6
:1054A00020E030E040E050E069E679E00E94142915
:1054B0000F9108950F93AB0101E020E030E06BE520
:1054C00079E00E9414290F9108950F931F93CF93B1
:1054D000DF93EC01AB01FB0181818F7D883511F4F5
:1054E0004E5F5F4F00E020E030E06EE479E0CE01F7
:1054F0000E941429182FCE010E944E2A812FDF917D
:10550000CF911F910F9108950F931F93CF93DF9326
:10551000EC01AB0101E020E030E06EE379E00E94B5
:105520001429182FCE010E944E2A812FDF91CF918E
:105530001F910F9108951F93CF93DF93EC010E9469
:10554000E5268823D9F06EE07AE0CE010E946E3124
:1055500044EF51E066E07AE0CE010E948423882384
:1055600039F064EF71E0CE010E946E2511E001C0B8
:1055700010E0CE010E94F825812F01C080E0DF916C
:10558000CF911F910895CF93DF93EC010E94E52600
:10559000882301F16EEF79E0CE010E946E3144EF75
:1055A00051E065EF79E0CE010E948423811104C0AF
:1055B000CE010E94F8250EC068E873E180E090E01B
:1055C0000E94852D1D861C8A1B8ACE010E94A5295A
:1055D00081E001C080E0DF91CF910895CF92DF920A
:1055E000EF92FF920F931F93CF93DF9300D000D0E1
:1055F000CDB7DEB78C017B016A0187E399E09A831E
:1056000089838BE299E09C838B83C8010E94E52605
:10561000882309F444C065E279E0C8010E946E3134
:10562000E114F10421F0B701C8010E949F3163E247
:1056300079E0C8010E946E31960142E0BE016F5FC1
:105640007F4FC8010E94D023F82E64E670E0C801A5
:105650000E94E62181E0F8121FC0F801F7AE8589AB
:10566000882361F048E95AE36FE179E0C8010E94BC
:10567000842364E670E0C8010E94E62124EF31E053
:1056800040E050E060E070E0C8010E947C24C80166
:105690000E94F82581E004C0C8010E94F82580E03E
:1056A0000F900F900F900F90DF91CF911F910F915E
:1056B000FF90EF90DF90CF9008950F931F93CF93BB
:1056C000DF93CDB7DEB7C054D1090FB6F894DEBF73
:1056D0000FBECDBF8C0140E450E0BE016F5F7F4F35
:1056E0000E949D2740E25EE4BE016F5F7F4FC801CC
:1056F0000E94EE2AC05CDF4F0FB6F894DEBF0FBEEB
:10570000CDBFDF91CF911F910F910895CF93DF937C
:10571000EC01E881F9810480F581E02D09958CADDB
:10572000DF91CF910895CF93DF93EC018CAD882367
:1057300061F164EF71E0CE010E94E621CE010E948A
:10574000E5266DEE78E0CE010E946E3144EF51E027
:1057500066EE78E0CE010E948423882329F0CE01F2
:105760000E94F8251CAE11C06DEC78E0CE018A5B7A
:105770009F4F0E94AC31CE010E943128CE010E9481
:10578000F8258CAD91E0892701C081E0DF91CF91B0
:105790000895BF92CF92DF92EF92FF920F931F93E3
:1057A000CF93DF93CDB7DEB765970FB6F894DEBF22
:1057B0000FBECDBF7C016B018A01B22EFC0185AD0D
:1057C000811168C0C7010E94E526F70184AD8823D6
:1057D00019F0C7010E94932BB80180E090E004E12A
:1057E00010E09E012F5F3F4F4AE00E94E51F6AE0F4
:1057F00079E0C7010E946E31B601C7010E949F3156
:1058000065E073E0C7010E949F31BE016F5F7F4F6B
:10581000C7010E949F3168E079E0C7010E946E31A4
:1058200064EF71E0C7010E946E25811101C0FFCFB6
:10583000B11004C081E0F70185AF2DC040E157E20F
:10584000BE016B5E7F4FC7010E947B218823F9F068
:105850008D898A3271F0833489F7898324EF31E0AE
:1058600043E150E0BE016E5F7F4FC7010E947C2480
:105870000EC044EF51E062E079E0C7010E9484234A
:10588000882329F081E0F70184AF158604C0C701A1
:105890000E94F82580E065960FB6F894DEBF0FBE33
:1058A000CDBFDF91CF911F910F91FF90EF90DF90CF
:1058B000CF90BF900895CF93DF93EC0164EF71E038
:1058C0000E94E621CE010E94E52666EC78E0CE013A
:1058D0000E946E3144EF51E06FEB78E0CE010E9400
:1058E0008423882331F0CE010E94F8251CAE81E08C
:1058F0000BC0CE010E94F82566EA78E0CE018A5BF3
:105900009F4F0E94AC3180E0DF91CF910895FC0160
:105910001382128248EE53E060E070E044835583C6
:10592000668377838BE193E0918380831586148669
:105930000895CF93DF93EC011B821A8248EE53E067
:1059400060E070E04C835D836E837F838BE093E047
:1059500099838883CE018A5B9F4F0E94872C1D8686
:105960001E861C8A1B8A1CAE1DAE81E08D8B8E8B21
:10597000FE01EB5AFF4F1182108232961182108283
:10598000C75ADF4F19821882DF91CF9108950F9384
:1059900000E020E040E060E08CE695E00E941531F8
:1059A0000F9108950F93CF93DF93EC01611571056B
:1059B00031F4CE010E94E526882359F00CC09B01EA
:1059C00040E050E00AE06AE57AE00E94F4298111A3
:1059D000F0CF80E012C081E895E00E94352F64EF9F
:1059E00071E080E090E00E94852D63E57AE0CE01D1
:1059F0000E946E311D8681E08E87DF91CF910F91DD
:105A000008950F9300E020E040E060E082E795E039
:105A10000E9415310F9108951F920F920FB60F92A9
:105A200011242F933F938F939F93AF93BF938091B4
:105A3000790590917A05A0917B05B0917C05309114
:105A4000780523E0230F2D3720F40196A11DB11D09
:105A500005C026E8230F0296A11DB11D20937805ED
:105A60008093790590937A05A0937B05B0937C058C
:105A700080917D0590917E05A0917F05B091800574
:105A80000196A11DB11D80937D0590937E05A09385
:105A90007F05B0938005BF91AF919F918F913F910A
:105AA0002F910F900FBE0F901F9018952FB7F8945D
:105AB0006091790570917A0580917B0590917C05C4
:105AC0002FBF08953FB7F89480917D0590917E0592
:105AD000A0917F05B091800526B5A89B05C02F3FFA
