:100000000C940A070C9432070C9432070C941F1EB0
:100010000C941F1E0C941F1E0C9432070C94320774
:100020000C9432070C9432070C9432070C9432076C
:100030000C9432070C9432070C9432070C9432075C
:100040000C947B2C0C9432070C949D2F0C94CF2F86
:100050000C9432070C9432070C9432070C9432073C
:100060000C9432070C9432075265626F6F74696E9C
:100070006720576946692E2E2E005265626F6F7495
:10008000204D6963726F566965772026205769464F
:100090006920746F20736574206E657720706F72AD
:1000A000742E006572726F723A2072656D6F74659E
:1000B000206D6F64656D20697320696E20636F6DBC
:1000C0006D616E64206D6F64652E00494E434F4D27
:1000D000494E470A43414C4C00434F4E4E45435412
:1000E000494E4720544F2053595354454D2E0043F9
:1000F0004F4E4E4543542025750052494E4700450A
:1001000052524F52004F4B004242532E4A414D4DE6
:10011000494E475349474E414C2E434F4D3A323397
:10012000005757572E434F4D4D4F444F524553455F
:10013000525645522E434F4D3A31353431004175B8
:10014000746F73746172743A20003A004E4F20430A
:10015000415252494552004F4B004F4B004F4B000C
:100160004F4B000D0A507265737320616E79206BDE
:10017000657920746F2063616E63656C2E2E2E008E
:100180004175746F2D636F6E6E656374696E672061
:10019000746F3A0D0A00576966693A256C640A0A59
:1001A0004336343A20256C6400576966693A256CF9
:1001B000640A0A4336343A20256C640A0A525453BE
:1001C0003A20256C64002A2A2A205465726D696ED3
:1001D000616C204D6F646520284465627567292035
:1001E0002A2A2A00436F6E6E656374204661696C2B
:1001F00065642100436F6E6E656374656420746F7F
:1002000020257300436F756C64206E6F74207265D7
:10021000736F6C766520444E532E2020436F6E6EB4
:10022000656374204661696C656421000D0A436F43
:100230006E6E656374696E6720746F20257300535A
:100240005349440A0A257300495020416464726589
:100250007373200A257300426175642052617465CE
:100260000A0A2575004669726D776172650A0A256A
:100270007300536176656420696E69743A202000CA
:10028000415445256451256456256426432564263A
:100290004B256453303D25640043757272656E745E
:1002A00020696E69743A00415445256451256456AD
:1002B000256426432564264B256453303D25640080
:1002C0004C697374656E20706F72743A20004669D1
:1002D000726D776172653A202020200057692D46A3
:1002E0006920535349443A20200049502041646416
:1002F000726573733A2020004D414320416464725B
:100300006573733A20004153434949204D6F64653A
:10031000000D0A436F6D6D6F646F72652057692D14
:100320004669204D6F64656D20486179657320458D
:100330006D756C6174696F6E0057692D4669204652
:1003400061696C6564210057692D4669204F4B2116
:100350000057692D466920496E69742E2E2E00259E
:100360006C6400426175640A446574656374696F06
:100370006E00050800FF0C4B00000000003E5B4FC4
:100380005B3E3E6B4F6B3E1C3E7C3E1C183C7E3CF5
:10039000181C577D571C1C5E7F5E1C00183C180003
:1003A000FFE7C3E7FF0018241800FFE7DBE7FF3093
:1003B000483A060E2629792926407F050507407F01
:1003C00005253F5A3CE73C5A7F3E1C1C08081C1C74
:1003D0003E7F14227F22145F5F005F5F06097F016A
:1003E0007F006689956A606060606094A2FFA29455
:1003F00008047E040810207E201008082A1C080823
:100400001C2A08081E101010100C1E0C1E0C303870
:100410003E3830060E3E0E06000000000000005F71
:1004200000000007000700147F147F14242A7F2A8D
:10043000122313086462364956205000080703004F
:10044000001C2241000041221C002A1C7F1C2A089B
:10045000083E0808008070300008080808080000FE
:1004600060600020100804023E5149453E00427F72
:10047000400072494949462141494D331814127FC1
:100480001027454545393C4A494931412111090761
:100490003649494936464949291E000014000000E2
:1004A00040340000000814224114141414140041B4
:1004B00022140802015909063E415D594E7C121171
:1004C000127C7F494949363E414141227F414141A9
:1004D0003E7F494949417F090909013E4141517324
:1004E0007F0808087F00417F41002040413F017F95
:1004F000081422417F404040407F021C027F7F045D
:1005000008107F3E4141413E7F090909063E4151A5
:10051000215E7F09192946264949493203017F0195
:10052000033F4040403F1F2040201F3F4038403F96
:10053000631408146303047804036159494D4300AC
:100540007F4141410204081020004141417F0402E3
:10055000010204404040404000030708002054547A
:1005600078407F2844443838444444283844442858
:100570007F385454541800087E090218A4A49C78AB
:100580007F0804047800447D40002040403D007F07
:100590001028440000417F40007C047804787C08E7
:1005A0000404783844444438FC18242418182424BB
:1005B00018FC7C08040408485454542404043F44A0
:1005C000243C4040207C1C2040201C3C4030403CCF
:1005D00044281028444C9090907C4464544C44002F
:1005E0000836410000007700000041360800020193
:1005F0000204023C2623263C1EA1A161123A40407F
:10060000207A3854545559215555794121545478FC
:1006100041215554784020545579400C1E52721295
:10062000395555555939545454593955545458001D
:1006300000457C410002457D420001457C40F02997
:100640002429F0F0282528F07C54554500205454E6
:100650007C547C0A097F493249494932324848482A
:1006600032324A4848303A4141217A3A4240207871
:10067000009DA0A07D39444444393D4040403D3C6C
:1006800024FF2424487E4943662B2FFC2F2BFF098F
:1006900029F620C0887E0903205454794100004483
:1006A0007D413048484A32384040227A007A0A0A6E
:1006B000727D0D19317D2629292F282629292926E1
:1006C00030484D4020380808080808080808382F26
:1006D00010C8ACBA2F102834FA00007B00000814B0
:1006E0002A142222142A1408AA005500AAAA55AADC
:1006F00055AA000000FF00101010FF00141414FF92
:10070000001010FF00FF1010F010F0141414FC0083
:100710001414F700FF0000FF00FF1414F404FC148D
:100720001417101F10101F101F1414141F00101086
:1007300010F0000000001F101010101F10101010FB
:10074000F010000000FF101010101010101010FF1B
:1007500010000000FF140000FF00FF00001F101732
:100760000000FC04F414141710171414F404F4001B
:1007700000FF00F714141414141414F700F71414E1
:1007800014171410101F101F141414F4141010F068
:1007900010F000001F101F0000001F14000000FCDC
:1007A000140000F010F01010FF10FF141414FF14C8
:1007B0001010101F00000000F010FFFFFFFFFFF0FF
:1007C000F0F0F0F0FFFFFF0000000000FFFF0F0F50
:1007D0000F0F0F38444438447C2A2A3E147E02020C
:1007E0000606027E027E0263554941633844443C5A
:1007F00004407E201E2006027E020299A5E7A599EC
:100800001C2A492A1C4C7201724C304A4D4D303022
:1008100048784830BC625A463D3E494949007E010D
:1008200001017E2A2A2A2A2A44445F444440514A2C
:10083000444040444A51400000FF0103E080FF0073
:100840000008086B6B083612362436060F090F06AF
:10085000000018180000001010003040FF010100D7
:100860001F01011E00191D1712003C3C3C3C0000FA
:10087000000000636C6F73653A206661696C6564A3
:100880002C206E6F202A434C4F532A002A434C4F92
:10089000532A00636C6F73650D00636C6F73653A68
:1008A000206661696C65642C206E6F202A434C4F72
:1008B000532A002A434C4F532A00636C6F73650D13
:1008C000004F50454E2A00302E302E302E30004F33
:1008D00050454E2A000D006F70656E20004F504548
:1008E0004E2A000D006F70656E20003235352E32B5
:1008F00035352E302E30003136392E3235342E310A
:100900002E310036342062797465730050696E6749
:10091000207472790070696E6720007365742075A9
:100920002069006C656176650D0047573D000D003C
:100930006A6F696E20004173736F636961746564E7
:1009400021004641494C4544007365742061646848
:100950006F632070726F62650073657420616468F4
:100960006F6320626561636F6E0073657420776CDE
:10097000616E2074780073657420776C616E2072EC
:1009800061746500736574206F7074207265706C9B
:100990006163650073657420776C616E20706872A6
:1009A0006173650073657420776C616E206B657987
:1009B0000073657420776C616E206368616E0073EC
:1009C000657420776C616E2073736964007365745D
:1009D00020776C616E2068696465203100736574EE
:1009E0002073797320696F66756E63007365742078
:1009F000636F6D6D2073697A650073657420636F32
:100A00006D6D206D617463680073657420636F6D34
:100A10006D2074696D6500302E302E302E300073DD
:100A200065742062726F61646361737420696E74AF
:100A3000657276616C007365742075617274206DE7
:100A40006F6465007365742074696D6520656E61FF
:100A5000626C65007365742074696D65207A6F6ED1
:100A600065007365742074696D6520706F72740021
:100A70007365742074696D65206164647265737355
:100A80000073657420697020666C6167730073651C
:100A9000742069702070726F746F636F6C0073657F
:100AA0007420697020646863700073657420646EDC
:100AB0007320616464726573730073657420697078
:100AC00020676174657761790073657420697020AF
:100AD0006E65746D61736B00736574206970206E50
:100AE00065746D61736B0073657420697020726545
:100AF0006D6F74650073657420697020686F73741E
:100B00000073657420697020686F73740073657476
:100B1000206970206C6F63616C706F727400736514
:100B20007420697020616464726573730073657406
:100B3000206970206164647265737300736574204A
:100B4000776C616E206A6F696E00736574206F2028
:100B50006400736574206F206400536574204661DF
:100B600063746F72792044656661756C7473006696
:100B70006163746F727920524553544F52450D0092
:100B80002A5265626F6F742A007265626F6F740D0E
:100B90000053746F72696E6700736176650D003C77
:100BA00074696D656F75743E00414F4B0D0A0045C9
:100BB00052523A2000534552564552004341434851
:100BC00045004155544F4950004F4E004F46460096
:100BD0006C6F6F6B7570200074696D650D00736CC0
:100BE0006565700D00736574207379732077616B90
:100BF000650073686F7720630D00455849540D0AEE
:100C000000657869740D00434D440D0A00242424C6
:100C100000434D440D0A00242424003A200064655A
:100C20006275672064756D70002A4F50454E2A002A
:100C30002A434C4F532A0073657420636F6D6D20F7
:100C400072656D6F746520300073657420737973FD
:100C5000207072696E746C766C203000736574203D
:100C600075206D2031005265706C6163653D0054E4
:100C700078506F7765723D00526174653D004A6F30
:100C8000696E3D005265626F6F743D0050726F6215
:100C9000653D00426561636F6E3D0067657420616C
:100CA00064686F630D0050524F544F3D00464C41F5
:100CB00047533D307800525353493D282D00736807
:100CC0006F7720727373690D00466C757368536992
:100CD0007A653D004D61746368436861723D00460A
:100CE0006C75736854696D65723D00676574206347
:100CF0006F6D6D0D004D6F64653D005254433D00B6
:100D000073686F77207420740D004164647265739A
:100D1000733D0067657420646E730D0054696D65E2
:100D20003D00557054696D653D0073686F772074A0
:100D3000696D650D005A6F6E653D006765742074BE
:100D4000696D650D0042617564726174653D00678F
:100D5000657420750D0044657669636549643D00DE
:100D6000676574206F70740D00535349443D0067EC
:100D7000657420776C616E0D004D61632041646481
:100D8000723D00676574206D61630D0044484350F7
:100D90003D00484F53543D0047573D004E4D3D00E8
:100DA00049503D006765742069700D00000000081F
:100DB0000002010000030407000000000000000022
:100DC00001020408102040800102040810200102E2
:100DD00004081020040404040404040402020202AF
:100DE00002020303030303030000000023002600A4
:100DF000290000000000250028002B000000000052
:100E0000240027002A00600D211D652C702CF52F71
:100E10007E30950D11241FBECFEFD8E0DEBFCDBFD1
:100E200014E0A0E0B1E0E2EDF3E702C005900D921E
:100E3000A631B107D9F726E0A6E1B4E001C01D92C2
:100E4000AA37B207E1F71EE0C2E1DEE004C0229754
:100E5000FE010E942534C630D107C9F70E94391817
:100E60000C94DC390C940000CF92DF92EF92FF9249
:100E70000F931F93E82FF92F05C001501109210985
:100E8000310961F1908196239417B9F305C001509F
:100E900011092109310911F1908196239413F7CF9B
:100EA000C12CD12CE12CF12C0AC08FEFC81AD80A22
:100EB000E80AF80A0C151D052E053F0579F080811A
:100EC0008623841791F36C2D7D2D8E2D9F2D1F91E0
:100ED0000F91FF90EF90DF90CF90089560E070E069
:100EE00080E090E01F910F91FF90EF90DF90CF9006
:100EF00008950C94E638CF93DF93EC0160E08FE423
:100F000095E00E94691C40E060E08FE495E00E945B
:100F10006B1ABE018FE495E00E941B318FE495E0CF
:100F2000DF91CF910C94781CCF93DF93EC0160E0BC
:100F30008FE495E00E94691C40E060E08FE495E05A
:100F40000E946B1ABE018FE495E00E942D318FE460
:100F500095E0DF91CF910C94781CCF93DF9300D074
:100F600000D000D0CDB7DEB720911604222399F02F
:100F7000FC0160817181CE0101960E94481ABE0178
:100F80006F5F7F4F8AE295E00E94EE30CE010196BE
:100F90000E94043205C0BC018AE295E00E94EE3056
:100FA00026960FB6F894DEBF0FBECDBFDF91CF916E
:100FB0000895CF93DF9300D000D000D0CDB7DEB737
:100FC000BC01CE0101960E94F632CE0101960E942C
:100FD000AD07CE0101960E9404328AE295E00E949C
:100FE000053126960FB6F894DEBF0FBECDBFDF9158
:100FF000CF9108950F931F93CF93DF9300D000D02C
:1010000000D0CDB7DEB78C01BC01CE0101960E94A5
:10101000F632CE0101960E94D907CE0101960E94B8
:1010200004324AE060E2C8010E94AB33B801CE014D
:1010300001960E94F632CE0101960E947B07CE01F6
:1010400001960E94043226960FB6F894DEBF0FBEBA
:10105000CDBFDF91CF911F910F910895CF93DF9373
:1010600000D000D000D0CDB7DEB7BC01809116040F
:10107000882381F0CE0101960E94481ABE016F5F5D
:101080007F4F8AE295E00E94EE30CE0101960E94E9
:10109000043204C08AE295E00E94FC3026960FB626
:1010A000F894DEBF0FBECDBFDF91CF9108950E94AF
:1010B0002E088AE295E00C940531CF93DF9300D09F
:1010C00000D000D0CDB7DEB7BC01CE0101960E94A2
:1010D000723289819A810E9457084AE060E2CE010B
:1010E00001960E94AB3389819A810E949407CE01B8
:1010F00001960E94043226960FB6F894DEBF0FBE0A
:10110000CDBFDF91CF9108958AE295E00C9405312F
:10111000CF93DF93CDB7DEB767970FB6F894DEBFF6
:101120000FBECDBF0E94840880911604882389F0E9
:1011300087E1E2E9F2E0DE01119601900D928A95D5
:10114000E1F7BE016F5F7F4F8AE295E00E94FC30BD
:1011500006C066E073E08AE295E00E94CB300E9410
:10116000840867960FB6F894DEBF0FBECDBFDF913F
:10117000CF910895883031F091E0843109F090E00A
:10118000892F089581E00895BF92CF92DF92EF9268
:10119000FF920F931F93CF93DF93CDB7DEB7C45762
:1011A000D1090FB6F894DEBF0FBECDBFB82E44E113
:1011B00050E0BE01655A7F4F84ED94E00E942F27D6
:1011C00044E150E0BE01655A7F4F84ED94E00E94F7
:1011D0002F276E0187E4C80ED11C44E150E0B60110
:1011E00084ED94E00E94D9267E0193E3E90EF11C80
:1011F00044E150E0B70184ED94E00E94352784ED8E
:1012000094E00E94F726909318048093170468EFE7
:1012100072E08E010F5F1F4FC8010E944433C80166
:101220000E94AD07C8010E940432BE01655A7F4F7B
:10123000C8010E947232C8010E94D907C8010E94E9
:1012400004326AEE72E0C8010E944433C8010E9471
:10125000AD07C8010E940432B601C8010E94723273
:10126000C8010E94D907C8010E9404326CED72E0E7
:10127000C8010E944433C8010E94AD07C8010E9402
:101280000432B701C8010E947232C8010E94D90716
:10129000C8010E9404326EEC72E0C8010E9444331F
:1012A000C8010E94AD07C8010E9404326BEA72E0D7
:1012B000C8010E947232C8010E94D907C8010E9469
:1012C000043260EC72E0C8010E944433C8010E94FD
:1012D000AD07C8010E940432609117047091180490
:1012E0004AE050E08AE295E00E94E2318AE295E02D
:1012F0000E940531B11099C08091C1041F928F9353
:1013000080911B041F928F93809119041F928F93D9
:10131000809107011F928F938091C2041F928F9337
:10132000809108011F928F9387EA92E09F938F9399
:101330001F930F930E94F23669E972E0CE01815942
:101340009F4F0E944433CE0181599F4F0E94AD07A9
:10135000CE0181599F4F0E940432B801CE018159BC
:101360009F4F0E947232CE0181599F4F0E94D90730
:10137000CE0181599F4F0E9404328EE090E00E947E
:101380007907B82E8BE090E00E947907C82E81E1A2
:1013900090E00E947907D82E8CE090E00E947907B7
:1013A000E82E8DE090E00E947907F82E8AE090E028
:1013B0000E9479071F92BF921F92CF921F92DF92D5
:1013C0001F92EF921F92FF921F928F9380E892E0FC
:1013D0009F938F931F930F930E94F2360FB6F8944A
:1013E000DEBF0FBECDBF62E772E0CE0181599F4FD5
:1013F0000E944433CE0181599F4F0E94AD07CE0118
:1014000081599F4F0E940432B801CE0181599F4FEC
:101410000E947232CE0181599F4F0E94D907CE019E
:1014200081599F4F0E9404328BC08BEA92E09F93B8
:101430008F9385E692E09F938F931F930F930E9463
:10144000F236B801CE0181599F4F0E947232CE010F
:1014500081599F4F0E947B07CE0181599F4F0E9467
:10146000043268EE73E080E090E00E94F42C8091FA
:101470000F018F9380910E018F9387E592E09F93E8
:101480008F931F930F930E94F236B801CE018159BA
:101490009F4F0E947232CE0181599F4F0E947B075D
:1014A000CE0181599F4F0E94043268EE73E080E0C4
:1014B00090E00E94F42CDF92CF9288E492E09F9318
:1014C0008F931F930F930E94F236B801CE0181597A
:1014D0009F4F0E947232CE0181599F4F0E947B071D
:1014E000CE0181599F4F0E94043268EE73E080E084
:1014F00090E00E94F42CFF92EF928FE392E09F9392
:101500008F931F930F930E94F236B801CE01815939
:101510009F4F0E947232CE0181599F4F0E947B07DC
:10152000CE0181599F4F0E94043268EE73E080E043
:1015300090E00E94F42C0FB6F894DEBF0FBECDBF32
:10154000CC58DF4F0FB6F894DEBF0FBECDBFDF9192
:10155000CF911F910F91FF90EF90DF90CF90BF90B0
:10156000089580911B04811108C080910E01909113
:101570000F01803C924108F40895359907C080918D
:10158000B0008F7D8093B0005B9AF7CF8091B00060
:101590008F7D8093B0005B980895CF93DF93EC012B
:1015A000E881F9810480F581E02DCE010995892B30
:1015B000B9F3E881F9810680F781E02DCE01DF9152
:1015C000CF9109948F929F92AF92BF92CF92DF9268
:1015D000EF92FF92CF93DF93EC014B010E94C52C59
:1015E0006B017C01A12CB12CE881F9810480F5818B
:1015F000E02DCE010995892BC1F40E94C52C6C19F0
:101600007D098E099F0986169706A806B90660F718
:101610008FEF9FEFDF91CF91FF90EF90DF90CF9012
:10162000BF90AF909F908F900895E881F9810084DA
:10163000F185E02DCE01DF91CF91FF90EF90DF900B
:10164000CF90BF90AF909F908F900994CF93DF93EE
:10165000EB012091C204211112C020910701222325
:1016600029F08AE295E00E94CB3005C0BC018AE2F5
:1016700095E00E94FC308AE295E00E9405318FE4FB
:1016800095E00E940531BE018FE495E00E9409318A
:101690008FE495E0DF91CF910C94781C65E071E0C8
:1016A00080EB92E00C94260B6FEF70E082EB92E0FF
:1016B0000C94260B81E5EFE1F4E0DF011D928A95A1
:1016C000E9F70895CF92DF92EF92FF92CF93C82F60
:1016D0000E94C52C6B017C010E94C52C685B7B407D
:1016E000810991096C157D058E059F0508F473C06D
:1016F0008C2F0E94EF2D892B79F720E432E44FE004
:1017000050E060E08C2F0E94182E6C30710581052E
:101710009105A4F16431710581059105A4F16D3144
:10172000710581059105A4F1683271058105910566
:10173000A4F16C33710581059105A4F16035710543
:1017400081059105A4F16639710581059105A4F122
:101750006C3221E07207810591059CF1683522E029
:1017600072078105910594F1603B744081059105F4
:1017700094F560EB74E080E090E030C060E072ECE3
:1017800081E090E02BC060E071EE80E090E026C048
:1017900060E076E980E090E021C060E870E780E0FA
:1017A00090E01CC060E07BE480E090E017C060E463
:1017B00078E380E090E012C060E875E280E090E0BD
:1017C0000DC060EC72E180E090E008C060E679E076
:1017D00080E090E003C060E070E0CB01CF91FF902B
:1017E000EF90DF90CF9008950F931F93CF93DF93E7
:1017F0001F92CDB7DEB78C0169830E94790769819A
:10180000861741F0C8010F90DF91CF911F910F9182
:101810000C94EE380F90DF91CF911F910F910895A6
:1018200080931604682F80E090E00C94F40BEF9204
:10183000FF920F931F93CF93DF937C018B01C0E046
:10184000D0E0D801ED91FC91EC0FFD1F6081CE013D
:101850008E0D9F1D0E94EE382196C632D10589F764
:10186000DF91CF911F910F91FF90EF900895AF926C
:10187000BF92CF92DF92EF92FF920F931F93CF937D
:10188000DF93CDB7DEB7A8970FB6F894DEBF0FBED3
:10189000CDBF6C017B018E010F5F1F4F5E0187E2A0
:1018A000A80EB11CB801E01AF10AC701800F911F00
:1018B0006FA378A70E947907F80181938F016FA128
:1018C00078A5EA15FB0589F7C6010E947232C601A8
:1018D000A8960FB6F894DEBF0FBECDBFDF91CF91B3
:1018E0001F910F91FF90EF90DF90CF90BF90AF903E
:1018F0000895FC012191222331F0DC012C93203248
:10190000C9F30196F7CFFC01108208950F931F933E
:10191000CF93DF9300D000D000D0CDB7DEB78C01DD
:10192000809117049091180480179107E1F1B80194
:1019300084ED94E00E944B2984ED94E00E942329D9
:10194000109318040093170480910C0190910D01DD
:101950008036994081F06AE770E0CE0101960E94DE
:101960004433CE0101960E94D907CE0101960E9410
:10197000043281E019C068E670E0CE0101960E9451
:101980004433CE0101960E94D907CE0101960E94F0
:10199000043284ED94E00E94122A68E873E180E04A
:1019A00090E00E94F42C80E026960FB6F894DEBFFB
:1019B0000FBECDBFDF91CF911F910F9108959091F0
:1019C0001A04913019F091E09827892F90E008953A
:1019D00080911904811102C081E004C08091C40487
:1019E0008111FACF0E94DF0C682F80E10C94B92D91
:1019F00081E0809309011092C4041092C304809383
:101A00000801809307011092C2041092C1048BE276
:101A10008093060110921A0410921B04109219046C
:101A20000C94E80C8AE090E00E94790791E0811123
:101A300001C090E0909308018BE090E00E9479074C
:101A400091E0811101C090E090931B048CE090E044
:101A50000E94790791E0811101C090E09093070105
:101A60008DE090E00E94790791E0811101C090E043
:101A70009093C2048EE090E00E94790791E081117A
:101A800001C090E09093C1048FE090E00E9479073C
:101A90008093060180E190E00E94790791E0811136
:101AA00001C090E090931A0481E190E00E947907D0
:101AB00091E0811101C090E0909319040C94E80C1E
:101AC0000F9300E020E040E060E089E495E00E94B0
:101AD000723020E046E065E08AE295E00E94F21E66
:101AE00084ED94E00E94382C67E074E08EEC94E082
:101AF0000E94723241E020910E0130910F018091DD
:101B00000C0190910D012817390709F440E040932A
:101B10001C0480E090E00E94790791E0811101C0EF
:101B200090E0909316040F9108958EEC94E00E943B
:101B300004328AE295E00C94991E81E080930901B9
:101B40001092C4041092C30484ED94E00E94D82241
:101B5000019629F484ED94E00E94322B04C084EDB8
:101B600094E00E94FA2B6CE471E08DED92E00E940B
:101B7000260B80911904882339F080E00E94DF0C45
:101B8000682F80E10C94B92D0895CF93DF93CDB7E2
:101B9000DEB7E8970FB6F894DEBF0FBECDBF66EC98
:101BA00071E08E010F5F1F4FC8010E944433C801CE
:101BB0000E94D907C8010E940432412C512C3201E5
:101BC000C12CD12C7601312C99EAA92E91E0B92EA5
:101BD00026E9822E21E0922E84ED94E00E94D82204
:101BE000181619069CF46FEFC61AD60AE60AF60A0A
:101BF0000E94B10A84ED94E00E947D22682F8AE25F
:101C000095E00E944D1D33243394E6CF8AE295E09F
:101C10000E94B91D181619068CF48FEF481A580A3D
:101C2000680A780A8AE295E00E942C1D682F84EDEC
:101C300094E00E94122133243394E8CF9201A3014F
:101C4000332051F280911B0481110BC080910E0151
:101C500090910F01803C924120F480911C048823D4
:101C600099F01F921F921F921F925F934F933F9381
:101C70002F93FF92EF92DF92CF92BF92AF921F937A
:101C80000F930E94F2360EC07F926F925F924F9236
:101C9000FF92EF92DF92CF929F928F921F930F93BA
:101CA0000E94F2360FB6F894DEBF0FBECDBFB8016A
:101CB000CE01C3960E947232CE01C3960E947B076A
:101CC000CE01C3960E94043287CF1F93CF93DF9338
:101CD000EC01162F6FEF84ED94E00E941221CD3FAE
:101CE000D10511F46DEF01C06BEF84ED94E00E941B
:101CF0001221612F84ED94E0DF91CF911F910C941C
:101D000012211F93CF93DF93EC01162F6FEF84ED19
:101D100094E00E941221CD3FD10511F46CEF01C077
:101D20006EEF84ED94E00E941221612F84ED94E027
:101D3000DF91CF911F910C9412216FEF84ED94E00D
:101D40000E9412216EEF84ED94E00E94122162E263
:101D500084ED94E00E9412216FEF84ED94E00E94E4
:101D600012216EEF84ED94E00E94122161E084ED77
:101D700094E00C941221CF93DF9360E177E284ED3D
:101D800094E00E94E20A8F3F910591F50E949D0E1A
:101D900068E873E184ED94E00E94E20A8F3F9105C8
:101DA00039F584ED94E00E94CD0A84ED94E00E9420
:101DB000CD0AEC018F3F2FEF920751F38B5F910912
:101DC000049730F784ED94E00E94CD0A8F3F2FEF07
:101DD0009207F1F28330910531F463E070E0CE01B7
:101DE0000E94650ED5CFBC01CE010E94810ED0CFDE
:101DF000DF91CF9108950F931F93CF93DF93CDB7CA
:101E0000DEB764970FB6F894DEBF0FBECDBF8091EA
:101E10000F018F9380910E018F938FEE90E09F932F
:101E20008F938E010F5F1F4F1F930F930E94F23607
:101E3000C8010E945D080F900F900F900F900F90B7
:101E40000F9080911904882339F081E00E94DF0C03
:101E5000682F80E10E94B92D0E94BB0E81E0809323
:101E6000C404109209011092C30464960FB6F8944A
:101E7000DEBF0FBECDBFDF91CF911F910F910895AF
:101E80008091C304811102C00C949D0D0C94FB0E33
:101E900081E08093C3048091C10481110C94400FB0
:101EA0006AEF70E082EC92E00E94260B439A6AEFA0
:101EB00070E080E090E00E94F42C43980895CF9267
:101EC000DF92EF92FF921F93CF93DF9300D000D069
:101ED00000D0CDB7DEB78AE295E00E942C1D182F06
:101EE0000E94C52C685E734081099109C090C704A7
:101EF000D090C804E090C904F090CA04C616D70672
:101F0000E806F906D8F41B32B9F48091CB0490911D
:101F1000CC048B32910531F081E08093CD048BE2CB
:101F200090E005C02091CD042F5F2093CD049093C5
:101F3000CC048093CB040CC01092CD040E94C52C1D
:101F40006093C7047093C8048093C9049093CA0433
:101F50008091CD048330D9F464EB72E0CE01019618
:101F60000E947232CE0101960E947B07CE0101963B
:101F70000E94043281E08093C6041092CD04109236
:101F8000C7041092C8041092C9041092CA04612FA9
:101F900084ED94E00E94122126960FB6F894DEBFDD
:101FA0000FBECDBFDF91CF911F91FF90EF90DF90DB
:101FB000CF900895CF92DF92EF92FF920F931F93ED
:101FC000CF93DF93CDB7DEB7C456D1090FB6F894DF
:101FD000DEBF0FBECDBFCE0101967C0184ED94E043
:101FE0000E94D822019609F46CC080911C048823B9
:101FF000F1F100E010E084ED94E00E94D822181680
:102000001906B4F48091B0008F7D8093B0005B9A84
:1020100084ED94E00E947D22F701E00FF11F8083A0
:102020000F5F1F4F0436110534F303E610E0E3CFD2
:102030006701C6018E199F09801791078CF4F6017C
:1020400061916F018AE295E00E944D1D8AE295E060
:102050000E94B91D1816190664F70E945F0FF6CF8B
:102060008091B0008F7D8093B0005B9813C084EDA9
:1020700094E00E94D8221816190664F40E94B10A4E
:1020800084ED94E00E947D22682F8AE295E00E9410
:102090004D1DEDCF8AE295E00E94B91D1816190674
:1020A0001CF40E945F0FF6CF84ED94E00E94252B74
:1020B000882329F08091C604882309F48FCF1092D9
:1020C000C60484ED94E00E94322B0E949D0D809105
:1020D00019048823B1F080E00E94DF0C682F80E1B2
:1020E000CC59DF4F0FB6F894DEBF0FBECDBFDF91E6
:1020F000CF911F910F91FF90EF90DF90CF900C94B4
:10210000B92DCC59DF4F0FB6F894DEBF0FBECDBF4F
:10211000DF91CF911F910F91FF90EF90DF90CF90C3
:102120000895BF92CF92DF92EF92FF920F931F9389
:10213000CF93DF93CDB7DEB7C854D1090FB6F8946B
:10214000DEBF0FBECDBF8C016B01B42E6CEB72E015
:102150000E948C33882349F064EC72E0C8010E942D
:102160000B3346E4C42E44E1D42E67ED72E0C8017F
:102170000E948C33882349F06FED72E0C8010E9401
:102180000B3336E4C32E34E1D32EF80181818F93D3
:1021900080818F938CE292E09F938F93CE01019682
:1021A0007C01FF928F930E94F236C7010E94940730
:1021B00062E084ED94E00E946229F80160817181FF
:1021C00020E130E0AE014D5C5F4F84ED94E00E9471
:1021D00067270F900F900F900F900F900F90811125
:1021E0000DC064E072E0CE018D5B9F4F0E944433CE
:1021F000CE018D5B9F4F0E94FA0732C021E0A601FD
:10220000BE016D5C7F4F84ED94E00E94682B8823B3
:10221000D9F0F80181818F9380818F9384EF91E0D1
:102220009F938F93FF92EF920E94F236C7010E9414
:1022300094070F900F900F900F900F900F90B11088
:1022400017C00E94BB0E14C064EE71E0CE018D5B1E
:102250009F4F0E944433CE018D5B9F4F0E947B07AE
:10226000CE018D5B9F4F0E9404320E949D0D04C0E1
:102270000E94FB0E0E94DA0FC85BDF4F0FB6F89486
:10228000DEBF0FBECDBFDF91CF911F910F91FF90A9
:10229000EF90DF90CF90BF900895EF92FF920F9351
:1022A0001F93CF93DF93CDB7DEB72C970FB6F8947B
:1022B000DEBF0FBECDBF8C01BC01CE0107960E94D0
:1022C0007232F8018081811103C00E94540B3DC01D
:1022D0006AE370E0C8010E9498360097C1F0FC01E3
:1022E00011927F01B801CE0101960E947232BE01A7
:1022F0006F5F7F4FCE0107960E94FF32CE0101969D
:102300000E940432C7010E9434368C0102C007E1EA
:1023100010E0BE01695F7F4F8EEC94E00E94DF32D7
:1023200010930B0100930A01BE01695F7F4FCE013C
:1023300001960E94F63240E0B801CE0101960E945B
:102340009110CE0101960E940432CE0107960E94A0
:1023500004322C960FB6F894DEBF0FBECDBFDF91CE
:10236000CF911F910F91FF90EF9008958F929F92C0
:10237000AF92BF92CF92DF92EF92FF920F931F9393
:10238000CF93DF93CDB7DEB7E0970FB6F894DEBFFB
:102390000FBECDBF0E94840880911F04813439F4A0
:1023A00080912004843509F0E9C381E009C08136B9
:1023B00009F0E4C380912004843709F0DFC380E092
:1023C0009091160489130E94100C6FE174E080E76D
:1023D00094E00E94AC360FE114E07801F70101901F
:1023E0000020E9F73197EF51F440C8018F51944034
:1023F0008E179F0758F4F8018081992787FD9095E3
:102400000E945A36F80181938F01E8CF6FE174E0A2
:10241000CE0101960E947232CE0101960E947B0786
:10242000CE0101960E9404326AEE72E08FE194E0E0
:102430000E94A336892B41F06EEE72E08FE194E0AA
:102440000E94A336892B41F48091C404882309F4A7
:10245000A3C11092090190C348E050E062EF72E01E
:102460008FE194E00E94B336892B39F580911604F0
:1024700068E774E0882379F0CE0101960E94071A7C
:1024800069817A8184ED94E00E947C29CE010196D5
:102490000E94043204C084ED94E00E947C2984ED03
:1024A00094E00E94D52A60E27EE484ED94E00E94EC
:1024B000AC2A882309F470C1C9C048E050E06BEF32
:1024C00072E08FE194E00E94B336892BB1F48091E1
:1024D000160468E774E0882359F0CE0101960E9443
:1024E000071A69817A8184ED94E00E94A6292AC1A5
:1024F00084ED94E00E94A629A9C047E050E064E082
:1025000073E08FE194E00E94B336892BB1F480919F
:10251000160467E774E0882359F0CE0101960E9403
:10252000071A69817A8184ED94E00E9487290AC1A3
:1025300084ED94E00E94872989C04AE050E06CE075
:1025400073E08FE194E00E94B336892B71F480919F
:10255000290489831A82CE0101960E9434368A307A
:10256000910508F019C1682FB8C048E050E067E154
:1025700073E08FE194E00E94B336892B91F487E2F7
:1025800094E00E9434368C0197FD06C10E94860CAF
:102590008111FFCF0E944E0B109318040093170473
:1025A000EBC260E273E08FE194E00E94D036892BA9
:1025B00009F44FC074E6E72EF12C00E010E00F5F45
:1025C0001F4F4AE050E0B8018AE295E00E94E231F4
:1025D0006AE471E0CE0101960E944433CE01019677
:1025E0000E94AD07CE0101960E940432B701CE01D0
:1025F00001960E94370CCE0101960E94D907CE01A8
:1026000001960E940432F8E2EF0EF11C0930110528
:10261000B1F60E9484086EE371E0CE0101960E943B
:102620004433CE0101960E94AD07CE0101960E946F
:10263000043283E690E00E9479074AE050E0682F78
:102640008AE295E00E94F7310E9484080E944E0BB6
:1026500093C267E273E08FE194E00E94D036892B49
:1026600009F440C004E610E069EA72E0CE01019688
:102670000E947232BE016F5F7F4FC8010E94170C2B
:10268000CE0101960E940432085D1F4F0C3781E095
:10269000180751F761E271E0CE0101960E944433C0
:1026A000BE016F5F7F4F84EA91E00E94170CCE015C
:1026B00001960E94043268E071E0CE0101960E940A
:1026C0004433BE016F5F7F4F8CE791E00E94170C8F
:1026D000CE0101960E94043260E083E690E00E9401
:1026E000F40BB4CF45E050E062E373E08FE194E097
:1026F0000E94B336892B59F58091240489A71AA624
:10270000CE0189960E9434368C010150110909309E
:10271000110508F041C0809125048D33E9F566E28A
:1027200074E0CE0101960E94723228E2209FC0011F
:10273000219F900D1124BE016F5F7F4F8C599F4FD9
:102740000E94170CCE0101960E9404327FCF42E016
:1027500050E068E373E08FE194E00E94B336892B88
:10276000D9F422E030E0A12CB12C5FE1C52E54E079
:10277000D52E9924939468E2862EF60101900020CC
:10278000E9F73197EF51F4402E173F0740F0A110C1
:10279000F3C1BB2009F45ACF0E94540BEDC12E3473
:1027A0003105ACF789010F5F1F4FF901E15EFB4F67
:1027B0008081883409F448C0B4F4863209F4B9C081
:1027C0003CF48A3009F4D6C18D3009F4D3C1CBC1B1
:1027D000843409F43DC18534F9F0813409F0C3C172
:1027E0000E94400F87C1833509F45DC02CF4893401
:1027F00079F08135C9F1B7C1883509F496C08A35B9
:1028000021F0863509F0AFC178C00E94120DB2C127
:1028100080E00E94C408AEC1790192E0E90EF11C8B
:10282000F801E15EFB4F8081813341F08F3349F045
:10283000803309F091C1109208019BC19092080168
:1028400098C16091080127C07901E2E0EE0EF11C09
:10285000F801E15EFB4F8081803319F40E949D0DE9
:1028600079C10E949D0D46C17901F2E0EF0EF11C85
:10287000F801E15EFB4F8081813341F08F3349F0F5
:10288000803309F069C11092C20473C19092C204EE
:1028900070C16091C20470E04AE050E08AE295E0C5
:1028A0000E94E23166C1A9014E5F5F4FF801E15E0F
:1028B000FB4F8081803309F058C1C9010396FA01AA
:1028C000E15EFB4F40814D3309F051C189010C5F3E
:1028D0001F4FFC01E15EFB4F8081813341F08F335C
:1028E00049F0803309F03FC11092C10443C1909276
:1028F000C10440C16091C10470C0790182E0E80E5A
:10290000F11CF801E15EFB4F8081813341F08F3390
:1029100049F0803309F020C1109207012AC190923A
:10292000070127C160910701B6CF89010E5F1F4FD4
:1029300021C1790192E0E90EF11CF801E15EFB4F43
:1029400080818B34A1F144F4833469F0863409F03A
:1029500010C10E94F80C0DC1823509F446C08735BC
:1029600009F445C006C189010D5F1F4FF701E15E03
:10297000FB4F8081813341F08F33B1F0803309F018
:10298000F2C01092190406C0909219048091C404F8
:10299000882311F081E001C080E00E94DF0C682FE5
:1029A00080E10E94B92DE6C06091190416C089012A
:1029B0000D5F1F4FF701E15EFB4F8081813341F0D6
:1029C0008F3349F0803309F0CEC010921B04D2C07F
:1029D00090921B04CFC060911B0470E04AE050E06D
:1029E0008AE295E00E94E231C5C00E94C50D609167
:1029F00008018AE090E00E94F40B60911B048BE0D8
:102A000090E00E94F40B609107018CE090E00E943E
:102A1000F40B6091C2048DE090E00E94F40B609191
:102A2000C1048EE090E00E94F40B609106018FE0FB
:102A300090E00E94F40B6091190481E190E00E9403
:102A4000F40B84ED94E00E942329811192C084C08C
:102A50007901E2E0EE0EF11C015E1B4FF80180816E
:102A6000803531F0843521F0833209F077C045C0DC
:102A700089010D5F1F4FC701815E9B4F7C01FC01E7
:102A80008081833279F5F801E15EFB4F80818FA769
:102A900018AACE018F960E9434360197893091058D
:102AA00008F061C0889EB001899E700D11246C5998
:102AB0007F4FCE0189960E94370C69A57AA548E21E
:102AC00050E0CE0101960E94C136CE0189960E9447
:102AD0000432CE0101960E94790CCE0101960E942B
:102AE0004D1108C0C7010E94790CC7010E944D1109
:102AF0000EE410E0AA24A3943DC0F701E15EFB4F71
:102B000080818FA718AACE018F960E943436019734
:102B10008930910508F5889EB001899E700D1124B9
:102B20006C597F4FCE0189960E94370C69A57AA512
:102B300048E250E0CE0101960E94C136CE0189964E
:102B40000E940432CE0101960E94790CCE010196BA
:102B50000E944D118701CECFB3940BC0C8010E94D3
:102B6000790CC801C3CFB39405C08A0103C08C019E
:102B700001C08701980101CE0E945A0BE0960FB662
:102B8000F894DEBF0FBECDBFDF91CF911F910F91A3
:102B9000FF90EF90DF90CF90BF90AF909F908F907D
:102BA00008958F929F92AF92BF92DF92EF92FF9221
:102BB0001F93CF93DF931F92CDB7DEB7DD24D3945D
:102BC000EFE18E2EE4E09E2EF0E6AF2EF9E0BF2E70
:102BD000A4E6EA2EF12C8AE295E00E94B91D1816AF
:102BE0001906CCF480910901882309F4A4C08091CE
:102BF0001B04811141988AE295E00E942C1D182F38
:102C00008D7F883099F01D3089F0143179F080EE95
:102C1000810F8B3B38F080911B04882309F4D3C0CB
:102C2000419AD1C080E8810F8134A8F380910801D6
:102C30008823E9F080911B04811114C080910E015A
:102C400090910F01803629E0920710F480E699E018
:102C5000B5010E94BA33C7010E94BA3380E090E008
:102C60000E94F42C612F8AE295E00E944D1D812F75
:102C70000E94BA08882361F080911F04882309F418
:102C8000AACFF40101900020E9F732971082A3CF78
:102C90001D3099F11A3089F180910601181769F1F8
:102CA000F40101900020E9F73197EF51F440E1354C
:102CB000F10518F00E94540B3BC0E15EFB4F1083FE
:102CC00080911F04992787FD90950E945A36813480
:102CD000910509F080CF809120048F3209F07BCFDD
:102CE00060E774E08FE194E00E94AC3680911B04B1
:102CF0008111419A0E94B6111BC080911F0499272F
:102D000087FD90950E945A368134910589F480910F
:102D10002004992787FD90950E945A3684359105A5
:102D200039F480911B048111419A0E94B61153CF4E
:102D30000E945A0B50CF8091C404882309F44BCFD2
:102D40008AE295E00E942C1D9091060198130BC019
:102D500020911D0430911E042F5F3F4F30931E04BD
:102D600020931D0404C010921E0410921D04209193
:102D70001D0430911E042330310551F410921E04BD
:102D800010921D04D092090189830E944E0B898103
:102D900090911B04911107C020910E0130910F01F9
:102DA000203C324150F09091B0009F7D9093B00054
:102DB0004B9B02C04598F7CF459A682F84ED94E06D
:102DC0000E94122108CF0F90DF91CF911F91FF90A9
:102DD000EF90DF90BF90AF909F908F900895CF932A
:102DE000DF9300D000D000D0CDB7DEB784ED94E003
:102DF0000E94252B8823E9F18091C40481111BC016
:102E00008091C304811140C069ED70E084ED94E0CD
:102E10000E9409316BEC70E0CE0101960E944433B0
:102E2000CE0101960E947B07CE0101960E940432DA
:102E30000E94480F33C080910901882339F084ED46
:102E400094E00E94D822181619060CF184ED94E043
:102E50000E94D82218161906BCF40E94B10A84ED0B
:102E600094E00E947D22682F8AE295E00E944D1D29
:102E7000EDCF8091C304882319F00E949D0D0EC0F0
:102E80008091C4048111F9CF0E94D11507C063EA73
:102E900070E084ED94E00E940931F6CF26960FB6DB
:102EA000F894DEBF0FBECDBFDF91CF910895CF93D1
:102EB000DF93CDB7DEB7AE970FB6F894DEBF0FBE87
:102EC000CDBF3B9A389A3C9A3D984398409A80915E
:102ED0001904882339F080E00E94DF0C682F80E11C
:102EE0000E94B92D10921E0410921D040E94F80C2D
:102EF0000E94120D0E945A0B0E9484088091C50402
:102F00009FEF980F993008F069C0992787FD909539
:102F1000019728E2289FB001299F700D11246C5958
:102F20007F4FCE0189960E94370C69A57AA548E2A9
:102F300050E0CE0101960E94C136CE0189960E94D2
:102F4000043260E871E0CE0189960E944433CE01DC
:102F500089960E94AD07CE0189960E940432BE0177
:102F60006F5F7F4FCE0189960E947232CE018996A3
:102F70000E94D907CE0189960E94043263E671E06F
:102F8000CE0189960E944433CE0189960E94D907CA
:102F9000CE0189960E94043260ED77E08AE295E0E6
:102FA0000E94E20A0196A9F08AE295E00E94CD0A09
:102FB00060E671E0CE0189960E944433CE01899685
:102FC0000E947B07CE0189960E9404326DE571E074
:102FD00015C0CE0101960E944D1118C06AE571E03E
:102FE000CE0101960E944433CE0101960E947B07D8
:102FF000CE0101960E94043267E571E08AE295E015
:103000000E94CB308AE295E00E9405310E94EF16C3
:10301000FDCFCF92DF92EF92FF926C0190930D0162
:1030200080930C0183ED95E00E94922E62E070E0A7
:1030300080E090E00E94F42CE12CF12CB701A60175
:1030400084ED94E00E94E62A68EE73E080E090E070
:103050000E94F42C83ED95E00E947B2F26E0B701BF
:10306000A60183ED95E0FF90EF90DF90CF900C9458
:10307000192FCF93DF93CDB7DEB72C970FB6F89407
:10308000DEBF0FBECDBF0E941C2D8FE495E00E94D5
:10309000B91C60E08FE495E00E94AF1A61E08FE414
:1030A00095E00E94691C3A9A81E190E00E947907BC
:1030B00091E0811101C090E090931904992311F0DF
:1030C00080E001C081E00E94DF0C682F80E10E9457
:1030D000B92D82E090E00E947907182F83E090E0FC
:1030E0000E947907212F30E0322F2227280F311D2F
:1030F00030930F0120930E01203B84E03807C9F084
:10310000203699E03907A9F0203C82E1380789F0A0
:10311000203895E2390769F021158BE4380749F02A
:103120002115364931F080E699E090930F018093A4
:103130000E0160E085E00E94802D61E085E00E9444
:10314000B92D63E673E0CE0101960E944433CE01AF
:1031500001960E947B07CE0101960E94043285E011
:1031600090E00E94620B6B017C01603B24E07207DF
:103170008105910509F180E6C81689E0D806E104C9
:10318000F104D1F090ECC91692E1D906E104F10402
:1031900099F020E8C21625E2D206E104F10461F0BC
:1031A000C1148BE4D806E104F10431F0C11496E9AE
:1031B000D906E104F104A9F5FF92EF92DF92CF92D4
:1031C0008FE593E09F938F938E01095F1F4F1F93AD
:1031D0000F930E94F236B801CE0101960E9472321E
:1031E000CE0101960E947B07CE0101960E94043217
:1031F00068EB7BE080E090E00E94F42CC0920E012E
:10320000D0920F016D2D82E090E00E94F40B6C2DA6
:1032100083E090E00E94F40B0FB6F894DEBF0FBE7F
:10322000CDBF40910E0150910F0160E070E08AE245
:1032300095E00E94221F40910C0150910D0160E029
:1032400070E026E083ED95E00E94192F48EE53E0F0
:1032500060E070E08AE295E00E94FE3141E020915A
:103260000E0130910F0180910C0190910D012817F2
:10327000390709F440E040931C043D98399A52986C
:10328000539A8091B0008F7D8093B0005B98419AF3
:103290008AE295E00E94053161E573E0CE01019676
:1032A0000E944433CE0101960E94FA07CE01019696
:1032B0000E94043240E050E063ED75E084ED94E05C
:1032C0000E94FB298823D9F067E473E0CE010196C0
:1032D0000E944433CE0101960E94FA07CE01019666
:1032E0000E94043261E084ED94E00E9464298091A0
:1032F0000E0190910F018036994089F422C069E354
:1033000073E0CE0101960E944433CE0101960E94E3
:10331000FA07CE0101960E9404320E94C50D68EEA4
:1033200073E080E090E00E94F42C80910E01909177
:103330000F01803B24E0920711F480E699E00E949F
:10334000091841E020910E0130910F0180910C018C
:1033500090910D012817390709F440E040931C04AF
:1033600084ED94E00E94322B83E690E00E9479077E
:103370008093C50461E173E0CE0101960E9444335D
:10338000CE0101960E94D907CE0101960E94043217
:103390000E9488080E94840881E00E94C4080E945C
:1033A0005717CF93C82F80EA8C0F803210F490E625
:1033B00003C0C03E18F090EC9C0F03C0CD3001F16B
:1033C0009C2F9A30F9F0903210F48EE21EC0903AA1
:1033D000D9F08FE3890F8A3110F480E805C08FEBB4
:1033E000890F8A3118F480E2890F0FC08C2F99273A
:1033F00087FD90950E945436892B39F38C2F05C098
:103400008AE003C08DE001C080E2CF910895EF9281
:10341000FF920F931F93CF93DF938C017B0167E0A3
:1034200074E00E947232E7018991882339F00E948A
:10343000D119682FC8010E947933F6CFC801DF91F6
:10344000CF911F910F91FF90EF9008958A30C1F0B6
:103450008D30C1F08032D4F08036B1F09FE9980F02
:103460009A3110F4805208959FEB980F9A3110F41E
:10347000805808958B3754F480364CF0805A089564
:103480008DE008958AE0089587E208958FE3089516
:10349000EF92FF920F931F93CF93DF938C017B01E9
:1034A00067E074E00E947232E7018991882339F065
:1034B0000E94261A682FC8010E947933F6CFC801EE
:1034C000DF91CF911F910F91FF90EF9008950DB470
:1034D00007FEFDCF0895FC016387448708950F938D
:1034E0006034D8F54033C8F50130C9F42130A9F56E
:1034F000E42FE695E695E69580E4E89FF001112437
:10350000E60FF11DE05FFE4F477081E090E0042E72
:1035100001C0880F0A94EAF7908198271DC0842F74
:10352000869586958695E62FF0E0477090E4899F12
:10353000E00DF11D1124E05FFE4F81E090E0042ECC
:1035400001C0880F0A94EAF7213019F49081982B72
:1035500003C080959081982390830F910895DC019A
:1035600061112EC018961C9218978091900290912C
:103570009102FC01249116962C9316973196E491B2
:103580001796EC931797FC013296E4911996EC93F9
:103590001997FC013396E4911A96EC931A97FC0163
:1035A000349624913196849190E0F4E62F9F800D1B
:1035B000911D11241E969C938E931D9781E0089572
:1035C00080E008955F926F927F928F929F92AF9268
:1035D000BF92CF92DF92EF92FF920F931F93CF9300
:1035E000DF93EC01162FB42EF02E3985231708F443
:1035F000B0C06A8570E0630F711D822F90E086175E
:1036000097070CF0A6C0D22ED31A9F80969496945A
:10361000969481E08915C0F1C12E3C2D311B2E817D
:10362000822F90E0A32FB0E08A179B070CF491C083
:10363000321791F0E885F0E0EE0FFF1FE057FD4FE5
:10364000D29EA00DB11D112416960190F081E02D9F
:10365000EA0FFB1F949001C0912CA12C4A2D4B0D19
:1036600090FE03C00E2D2F2D04C021E0F11020E0AC
:103670000E2D6C2DCE010E946F1A9694A39488E0B3
:10368000A812ECCFC394C9CFED85FE852E8130E022
:10369000CF01B9010E94BA338D2D90E00E94BA3358
:1036A000829F6001839FD00C929FD00C11249E9E1C
:1036B00090019F9E300D1124269FC001279F900DE1
:1036C000369F900D1124C80ED91E742EA12CB12C3A
:1036D00086E0C80ED11C812E482D411B8E814817D3
:1036E00080F5E885F0E0EE0FFF1FE057FD4F2D85D8
:1036F0003E85A29EC001A39E900DB29E900D112406
:103700008C0D9D1D840F911D0190F081E02DE80F1F
:10371000F91F5490612C462D470D50FE03C00E2D0D
:103720002F2D04C021E0F11020E00E2D682DCE01D8
:103730000E946F1A5694639488E06812ECCF8394C9
:10374000CBCF8FEFA81AB80A88E0780EA91408F436
:10375000C2CFDF91CF911F910F91FF90EF90DF903B
:10376000CF90BF90AF909F908F907F906F905F9021
:103770000895EF920F93CF93DF93EC01262F6A30D9
:10378000A9F06D30C1F0ED800C814C856B850E94F5
:10379000E21A4E812B85240F2F5F2B8730E080E4C7
:1037A00090E0841B9109821793072CF48C859F81EC
:1037B000890F8C871B8681E090E0DF91CF910F917C
:1037C000EF9008952A9A22982898209A60E08DE038
:1037D0000E94B92D60E08BE00E94B92D61E08DE080
:1037E0000E94802D61E08BE00E94802D8CB580616D
:1037F0008CBD08958CB580648CBD2A98229A08955A
:103800000DB407FEFDCF2898209A2A9A22988CB5ED
:103810008F7B8CBD0895CF93DF9300D0CDB7DEB7FB
:103820004A8369830E94FA1B69816EBD0E94671AF0
:103830004A814EBD0F900F90DF91CF910C94001CE8
:10384000CF93DF9300D01F92CDB7DEB72B834A838F
:1038500069830E94FA1B69816EBD0E94671A4A81C2
:103860004EBD0E94671A2B812EBD0F900F900F90B6
:10387000DF91CF910C94001C0F931F93CF93DF9394
:10388000EC0140E060E20E940B1C2FE740E061E2A7
:10389000CE010E94201C27E040E062E2CE010E949F
:1038A000201C0E94FA1B289A20981EBC0FEF13E0E0
:1038B0000E94671A1EBC01501109D1F70E94001C1A
:1038C00042E060E2CE01DF91CF911F910F910C9405
:1038D0000B1C613011F40C943C1C80E891E0E0E199
:1038E000F1E0DF019C011D9221503040E1F7089585
:1038F0000F931F93CF93DF93EC0140E060E20E94AF
:103900000B1C2FE540E261E2CE010E94201C25E065
:1039100040E062E2CE010E94201C0E94FA1B289A1D
:103920002098809110018EBD01E111E00E94671A7C
:10393000F80181918F018EBDF2E000391F07B1F7C8
:103940000E94001C42E060E2CE01DF91CF911F9106
:103950000F910C940B1C2CB5982F93702C7F922BED
:103960009CBD9DB582FB882780F99E7F982B9DBDCD
:103970000895CF93DF93EC0160E00E94AF1A81E0DD
:103980008C831D821B861C865F98579A61E084E0B9
:103990000E94802D61E084E00E94B92D6AE070E011
:1039A00080E090E00E94F42C5F9A579865E070E008
:1039B00080E090E00E94F42C5F98579A84E00E9487
:1039C000AB1C0E94E21B65E070E080E090E00E948A
:1039D000F42C5F9A57986AE070E080E090E00E94D3
:1039E000F42C4FE268EACE010E940B1C44E16DE822
:1039F000CE010E940B1C0E94FA1B81EA8EBD0E9420
:103A0000001C0E94FA1B88EC8EBD0E94001C4FE82F
:103A100061E8CE010E940B1C41EF69EDCE010E94CE
:103A20000B1C40E46BEDCE010E940B1C0E94FA1BA4
:103A30008FEA8EBD0E94001CCE01DF91CF910C94C5
:103A40003C1C10925205109251058FE393E0909325
:103A5000500580934F0508952091A0053091A10550
:103A600028173907B9F490915E0580915F05981782
:103A700089F0E0915E05F0E0E05AFA4F80812091F4
:103A80005E0530E02F5F3F4F2F73332720935E0595
:103A900090E008958FEF9FEF08951F93CF93DF93EA
:103AA000DC015C968D919C915D97009749F481E0D3
:103AB00090E013969C938E93129780E090E03BC029
:103AC0005196ED91FC91529750962C915097322F30
:103AD00030951FB75E964C915E9741FB772770F942
:103AE00041FD6095F8944081772311F0422B01C08D
:103AF00043234083EC012197F1F748E0508160FFB8
:103B000002C0522B01C053235083EC012197F1F7DF
:103B10006695415099F78081772311F0832301C086
:103B2000822B80831FBF5C968D919C915D9701973E
:103B3000F1F781E090E0DF91CF911F9108952091FE
:103B4000A0053091A1052817390781F490915E05F1
:103B500080915F05981751F0E0915E05F0E0E05A22
:103B6000FA4F8081992787FD909508958FEF9FEFF9
:103B700008952091A0053091A1052817390771F407
:103B800080915F0520915E0590E0805C9F4F821BD5
:103B9000910960E470E00E94CE33089580E090E0E7
:103BA00008952091A0053091A1052817390739F40F
:103BB0008FB7F89410925F0510925E058FBF08953D
:103BC000E091A005F091A105E817F90769F4A38930
:103BD000B4899C918589809589238C931092A10545
:103BE0001092A00581E0089580E00895CF93DF93BF
:103BF000EC018A8D9B8D892BF1F08091A00590912D
:103C0000A1058C179D07B9F0009711F00E94E01DE7
:103C10008E8D8E7F8E8F10925F0510925E05D093F1
:103C2000A105C093A005EB89FC8980819D89892B22
:103C3000808381E001C080E0DF91CF9108951F92E1
:103C40000F920FB60F9211242F933F934F935F93D0
:103C50006F937F938F939F93AF93BF93EF93FF9354
:103C6000E091A005F091A105309709F451C0868D2F
:103C7000A685B785958581FF04C08C91892329F499
:103C800047C08C91892309F043C0A389B4899C91D2
:103C90008589809589238C93868997890197F1F787
:103CA000208D318DA685B785758558E040E0C90126
:103CB0000197F1F7842F90E095958795482F6C91A7
:103CC000672309F04068515091F7868D81FD40953A
:103CD00080915F0590E001968F73992720915E0592
:103CE000281749F0A0915F05B0E0A05ABA4F4C9355
:103CF00080935F0503C0868D8160868F828D938D52
:103D00000197F1F7A389B4898C919589892B8C93BC
:103D1000FF91EF91BF91AF919F918F917F916F91A3
:103D20005F914F913F912F910F900FBE0F901F9079
:103D3000189527E433E0FC01318320830C94E01DC7
:103D40001F93CF93DF93EC01162F6E8D66956170F4
:103D500081E06827812F0E94B92D61E0812F0E94A8
:103D6000802D812F90E0FC01E054F24FE491E88B2C
:103D7000FC01EC52F24FE491F0E0EE0FFF1FEE5029
:103D8000F24F859194919A8B898BDF91CF911F91FE
:103D900008951F93CF93DF93EC01162F60E0812FDE
:103DA0000E94802D8E8D81FD04C061E0812F0E94D4
:103DB000B92D1C87812F90E0FC01E054F24FE49173
:103DC000ED87FC01EC52F24FE491F0E0EE0FFF1FA3
:103DD000E851F24F859194919F878E87DF91CF9123
:103DE0001F910895FF920F931F93CF93DF93EC01E0
:103DF000F62E522F1B821A8208EE13E020E030E0EC
:103E00000C831D832E833F8387E493E0998388830B
:103E10001F8A1E8A198E188E1B8E1A8E1D8E1C8E5E
:103E20008E8D8E7F50FB81F98E8F642FCE010E9484
:103E3000A01E6F2DCE01DF91CF911F910F91FF90AA
:103E40000C94C91ECF93DF93EC019A01AB011B8E3A
:103E50001A8E198E188E1F8A1E8A60E079E08DE313
:103E600090E00E940434C9012430310520F0B901EA
:103E70006350710902C061E070E07D8F6C8FEC854A
:103E8000E63108F068C0B90176956795643171052F
:103E900018F06351710902C061E070E07F8B6E8B96
:103EA000069718F0C901059702C081E090E0998F4C
:103EB000888FC901880F991F820F931F9695879548
:103EC000969587958D30910510F00C9702C081E092
:103ED00090E09B8F8A8F20916800E83050F091E04D
:103EE000EE3008F490E081E001C0880F9A95EAF77F
:103EF00001C084E0822B809368002C85283038F044
:103F00002E3040F0263148F48CE690E008C08DE673
:103F100090E005C08BE690E002C080E090E09C8BD2
:103F20008B8B283030F481E001C0880F2A95EAF7A6
:103F30000DC0822F90E02E3010F4089701C00E972C
:103F400091E001C0990F8A95EAF7892F8D8B8C8DAE
:103F50009D8D0197F1F7CE01DF91CF910C94F61D65
:103F6000DC011C968D919C911D97DC01ED91FC91DB
:103F70000680F781E02D0994DC011C968D919C91BF
:103F80001D97DC01ED91FC910480F581E02D0994F1
:103F9000DC011C968D919C911D97DC01ED91FC91AB
:103FA0000284F385E02D0994DC011C968D919C918F
:103FB0001D97DC01ED91FC910084F185E02D0994C1
:103FC0002F923F924F925F926F927F928F929F9229
:103FD000AF92BF92CF92DF92EF92FF920F931F9317
:103FE000CF93DF93CDB7DEB760970FB6F894DEBFFF
:103FF0000FBECDBF2B013C0169014A3021F5CE0136
:1040000001961C01E12CF12C5AE0852E912CA12C5B
:10401000B12CC301B201A50194010E94E2339FEFCC
:10402000E91AF90A80E3840DEAE02E9F8019112431
:10403000F10181931F012115310541055105C9F198
:1040400029013A01E6CFFE01319680E090E0B3010C
:10405000A2014F705527662777279C012F5F3F4F9E
:104060004A3051056105710510F4A0E301C0A1E4D7
:104070004A0F419344E076946794579447944A9545
:10408000D1F7411451046104710411F0C901DFCF6B
:10409000E1E0F0E0EC0FFD1FE20FF31F48E7408383
:1040A0007C01F3E0EF0EF11CFE01E80FF91F20E3A5
:1040B000238321E0E21AF108F60180E090E001504C
:1040C00011090196A1E0B0E0AC0FBD1FAE0DBF1D00
:1040D0002C9121931E141F04ECF0F601E80FF91F38
:1040E000108260960FB6F894DEBF0FBECDBFDF9191
:1040F000CF911F910F91FF90EF90DF90CF90BF90E5
:10410000AF909F908F907F906F905F904F903F9077
:104110002F90089521E0E21AF10880179107ECF63C
:10412000D0CFCF92DF92EF92FF920F931F93FC01BB
:1041300040E060E070E0CB010191002309F449C048
:1041400020ED200F2A30B0F414E0660F771F881F8F
:10415000991F1A95D1F76053710981099109C02EF1
:10416000DD24C7FCD094ED2CFD2C6C0D7D1D8E1D27
:104170009F1DE2CF2FE9200F263060F4B4E0660FD8
:10418000771F881F991FBA95D1F767557109810963
:1041900091090FC02FEB200F2630A8F4A4E0660F82
:1041A000771F881F991FAA95D1F767537109810955
:1041B0009109112707FD1095212F312F600F711FD5
:1041C000821F931FB9CF083721F4411102C041E08B
:1041D000B3CF1F910F91FF90EF90DF90CF90089594
:1041E0000F931F93FC0160E070E0CB01019120ED83
:1041F000200F2A30A0F4AAE0B0E09B01AC010E949D
:1042000029346053710981099109112707FD10951F
:10421000212F312F600F711F821F931FE7CF1F9136
:104220000F910895DC01AE5ABF4F2D913C9111972B
:10423000FC01EC5AFF4F408151812417350764F48B
:1042400034970190F081E02DA9014F5F5F4F4D93AE
:104250005C93E20FF31F6083FC01FF9680819181E4
:10426000DC01ED91FC910190F081E02D0994CF9655
:10427000DC018D919C91DC01ED91FC910284F38530
:10428000E02D0994DC011C968D919C911D9700975F
:1042900039F0DC01ED91FC910190F081E02D099461
:1042A00080E090E008952091B30521110BC0FC013E
:1042B000FF9680819181DC01ED91FC910084F18574
:1042C000E02D0994E091B405F0E0EA54FA4F8081C2
:1042D000992787FD90950895DC01ED91FC9101905F
:1042E000F081E02D09944F925F926F927F92AF928E
:1042F000BF92CF92DF92EF92FF920F931F93CF93D3
:10430000DF93EC015B016A010E94C52C2B013C018B
:10431000E12CF12C8E01015C1F4F0E94C52C641909
:104320007509860997096C157D058E059F05A0F511
:10433000D8018D919C91DC01ED91FC910480F58177
:10434000E02D09951816190644F7F801808191812E
:10435000DC01ED91FC910680F781E02D0995F501D6
:104360008083DE01AE5ABF4F2D913C911197FE0123
:10437000EC5AFF4F40815181241735077CF4C05B14
:10438000DF4FE881F981A9014F5F5F4F4D935C9347
:10439000E20FF31F808302C080E001C081E0DF9163
:1043A000CF911F910F91FF90EF90DF90CF90BF9032
:1043B000AF907F906F905F904F900895EF92FF9233
:1043C0000F931F93CF93DF931F92CDB7DEB78C016E
:1043D0007B01A701BE016F5F7F4FC8010E9473215F
:1043E0008111F7CF0F90DF91CF911F910F91FF9027
:1043F000EF900895FF920F931F93CF93DF938C015B
:104400009091B305992309F1442321F06F5F7F4F09
:1044100081E001C080E02091B405820FFB01BF0163
:10442000382F321B3917A8F434913323C1F1893066
:1044300010F4A82F01C0A0E031968F5FB0E0AA541D
:10444000BA4F4C91431759F340C0411102C06F5FFE
:104450007F4FFB01F490EB0121966091B50570E070
:104460006A547A4F44EF51E0C8010E947321809151
:10447000B505E82FF0E0EA54FA4F20819091B3059A
:104480008F5F2F1114C08830E8F48093B5059F5FCB
:104490009093B305FE01F4902196F110DECF1092B7
:1044A000B3051092B4051092B50581E00FC08830B5
:1044B00018F48093B50502C01092B5059F5F9093E4
:1044C000B30503C01092B505E2CF80E0DF91CF9134
:1044D0001F910F91FF900895CF93DF93EC01462F2A
:1044E00060E37CE00E94FA21882319F01FAA81E092
:1044F00001C080E0DF91CF910895CF93DF93EC016D
:104500008091B305882381F0E091B40591E09E0F7E
:104510009093B405F0E0EA54FA4F208130E09830EF
:1045200060F11092B40529C0FE01FF96808191814F
:10453000DC01ED91FC910680F781E02D09959C014D
:104540008FA98823E9F02A323105D1F460E0CE0149
:104550000E946C22811116C0E091B40581E08E0F9B
:104560008093B405F0E0EA54FA4F208130E08830BF
:1045700010F01092B4058091B30581508093B3057B
:10458000C90102C08FEF9FEFDF91CF910895CF93C4
:10459000DF93EC01462F69E27CE00E94FA21882338
:1045A00019F081E08FAB01C080E0DF91CF910895D9
:1045B000EF92FF920F931F93CF93DF938C01EC0147
:1045C000EF9688819981DC01ED91FC910480F58161
:1045D000E02D09957C01181619065CF588819981F2
:1045E000DC01ED91FC910084F185E02D09958A971D
:1045F00001F5F80187A961E0882331F0C8010E9424
:104600006C22882321F012C0C8010E94C7220091A9
:10461000B30510E088819981DC01ED91FC91048063
:10462000F581E02D0995800F911F09C08FEF9FEF55
:1046300006C08091B305F701E80FF11DCF01DF91AE
:10464000CF911F910F91FF90EF900895CB0163EAF6
:1046500075E00E94D03621E0892B09F420E0822FFA
:1046600008958F929F92AF92BF92CF92DF92EF9276
:10467000FF920F931F93CF93DF931F92CDB7DEB7B7
:104680006C017B015A016115710529F1FB018081E3
:10469000882309F18B014B01FFEF8F1A9F0AA501B7
:1046A000BE016F5F7F4FC6010E9473218823A1F076
:1046B0008981F8019081891303C00F5F1F4F07C0E4
:1046C000F7019081891302C0840101C08701F801BC
:1046D00080818111E4CF81E00F90DF91CF911F9114
:1046E0000F91FF90EF90DF90CF90BF90AF909F9091
:1046F0008F9008957F928F929F92AF92BF92CF92A8
:10470000DF92EF92FF920F931F93CF93DF931F924D
:10471000CDB7DEB76C017B015A01FB0174907720A5
:10472000B9F08B014B01FFEF8F1A9F0AA501BE0163
:104730006F5F7F4FC6010E9473218823C1F02981DA
:10474000271108C00F5F1F4FF80174907110EECF52
:1047500081E00DC0F7018491332727FD309590E06B
:104760002817390711F48401EFCF8701EDCF0F909F
:10477000DF91CF911F910F91FF90EF90DF90CF903D
:10478000BF90AF909F908F907F9008954F925F92CF
:104790006F927F929F92AF92BF92CF92DF92EF92F1
:1047A000FF920F931F93CF93DF931F92CDB7DEB786
:1047B0007C01962EA72EB42E69014DB65EB6242F2D
:1047C00030E0C901880F991F820F931F2DB73EB7A4
:1047D000281B390B0FB6F8943EBF0FBE2DBF8DB707
:1047E0009EB701963C01E62FF72FDC0120E02B1548
:1047F00059F11C928191919112969C938E931197ED
:104800002F5F1396F4CF1196ED91FC91129744917E
:10481000941781F1F80160817181FB01449150E0AE
:104820002417350731F112967C936E9311971196E8
:10483000ED91FC911297E49113960E5F1F4FEE23BA
:10484000F9F08F5F8B11DFCFA601BE016F5F7F4F45
:10485000C7010E947321811102C08FEF11C099819D
:10486000292F332727FD3095092D1A2DD30180E0FC
:10487000E9CFFB0131961296FC93EE931197D7CFB7
:104880000FB6F8945EBE0FBE4DBE0F90DF91CF9174
:104890001F910F91FF90EF90DF90CF90BF90AF905E
:1048A0009F907F906F905F904F900895CF93DF938C
:1048B000EC018D85882391F061E07CE0CE010E94BF
:1048C000CB3044EF51E06AEF7BE0CE010E947A23C7
:1048D000882311F01D8602C080E001C081E0DF91D5
:1048E000CF9108955F926F927F928F929F92AF9235
:1048F000BF92CF92DF92EF92FF920F931F93CF93CD
:10490000DF931F92CDB7DEB76C017B01390100E068
:1049100010E04A0182E0881A91085A0181E0A81A41
:10492000B108A301BE016F5F7F4FC6010E947321D2
:10493000882309F440C059808DE058122DC0A3018E
:10494000BE016F5F7F4FC6010E94732189818A304B
:1049500041F4E114F104B9F1F701E00FF11F108205
:1049600032C0E114F104C1F00815190564F4F8012E
:104970003196D701A00FB11F5C920E5F1F4FEE0D55
:10498000FF1D808309C00A151B0534F4F701E00FF1
:10499000F11F50820F5F1F4F0A151B0514F6E1141B
:1049A000F10409F4BECFF701E00FF11F8981808384
:1049B0000F5F1F4FB6CFE114F10439F0F701E00F9C
:1049C000F11F108203C0C80102C080E090E00F9088
:1049D000DF91CF911F910F91FF90EF90DF90CF90DB
:1049E000BF90AF909F908F907F906F905F90089551
:1049F000CF92DF92EF92FF920F931F93CF93DF93AB
:104A00001F92CDB7DEB78C0144EF51E0BE016F5F5E
:104A10007F4FC8010E9473218823A9F089818C33BC
:104A200099F78093A30554EAE52E55E0F52EDD2491
:104A3000D39444EF51E0BE016F5F7F4FC8010E94E5
:104A40007321811102C080E035C0CC24C394CD0C09
:104A50008981F70181937F018E3339F544EF51E06D
:104A6000BE016F5F7F4FC8010E947321882359F3F5
:104A70008981803241F7AC2DB0E0AD55BA4F8C93AF
:104A8000D394D394ED2DF0E0ED55FA4F108281E0F0
:104A90008093A20524EF31E040E050E060E070E058
:104AA000C8010E94722481E005C0FCE0CF1659F2D3
:104AB000DC2CBFCF0F90DF91CF911F910F91FF9012
:104AC000EF90DF90CF900895AB012091A2052111C6
:104AD00002C00C94F82463EA75E00C943123FF9231
:104AE0000F931F93CF93DF93EC018D8581116EC0DF
:104AF0006AEF70E080E090E00E94F42C67E17CE0D7
:104B0000CE010E94CB306AEF70E080E090E00E941E
:104B1000F42C44EF51E061E17CE0CE010E947A2365
:104B2000811115C0FE01FF9680819181DC01ED911C
:104B3000FC910190F081E02D6DE0099564EF71E04A
:104B4000CE010E94642581113AC015E01EC08091FB
:104B5000A205811134C065E0F62E8E01015C1F4F65
:104B6000F80180819181DC01ED91FC910190F0814F
:104B7000E02D6DE0099564EF71E0CE010E9464259F
:104B800081111DC0FA9461F7CDCF6AEF70E080E02B
:104B900090E00E94F42C6DE07CE0CE010E94CB30CE
:104BA0006AEF70E080E090E00E94F42C44EF51E066
:104BB00067E07CE0CE010E947A23882319F081E02F
:104BC0008D8705C0115009F780E001C081E0DF91B9
:104BD000CF911F910F91FF900895CF93DF93EC0138
:104BE0008D85882339F08E859F8501969F878E87D6
:104BF00081E005C0CE010E946F258111F4CFDF91C5
:104C0000CF910895FC0126853785215031093787DA
:104C10002687232B11F40C94562481E00895CF921B
:104C2000DF92EF92FF920F931F93CF93DF93EC01EC
:104C30008B016A0179010E94ED25882351F1000F53
:104C4000111F000F111F01581C4FF8016081718165
:104C5000CE010E94CB30F8016281738144EF51E0B4
:104C6000CE010E947A23882389F024EF31E0A70146
:104C7000B601CE010E94722464EF71E0CE010E9461
:104C80006425CE010E940226C60105C0CE010E9405
:104C9000022683E593E0DF91CF911F910F91FF9062
:104CA000EF90DF90CF900895EF92FF920F931F93B4
:104CB000CF93DF93CDB7DEB760970FB6F894DEBF22
:104CC0000FBECDBF8C010E94ED25882309F462C080
:104CD00062EF7BE0C8010E94CB3024EF31E040E17D
:104CE00050E0BE016F5F7F4FC8010E9472247C01BB
:104CF000BE016F5F7F4FC8010E942623882361F0A9
:104D000024EF31E040E150E0BE016F5F7F4FC8010A
:104D10000E9472247C0105C064EF71E0C8010E940A
:104D2000642525E0E216F1041CF4CE01019608C0CA
:104D3000C7010497E1E0F0E0EC0FFD1F8E0F9F1F0D
:104D40000E949120F62EE72E862F8F70F80181AFFA
:104D5000F4FA882780F982AFF5FA882780F983AFC3
:104D6000F6FA882780F984AFF7FA882780F985AFAB
:104D70008E2D86958F7086AFC8010E940226F8019D
:104D800081AD813011F487AB02C0F80117AA8F2DD5
:104D90009E2D02C080E090E060960FB6F894DEBFD2
:104DA0000FBECDBFDF91CF911F910F91FF90EF907C
:104DB0000895CF93DF93D62FC72F9A01462F572FF1
:104DC00060E070E00E940F26892B49F0ED2FFC2F48
:104DD000DF018191882329F08A33D1F702C0AD2FFA
:104DE000BC2F1C928D2F9C2FDF91CF910895CF93D4
:104DF000DF93CDB7DEB766970FB6F894DEBF0FBE70
:104E0000CDBF26E130E0AE014F5F5F4F60E070E064
:104E10000E940F26892BC1F080E0E1E0F0E0EC0F6A
:104E2000FD1FE80FF11D9081992319F08F5F9A33D0
:104E3000A1F721E030E02C0F3D1F280F311DC901E3
:104E40000E94F020CB0102C080E090E066960FB691
:104E5000F894DEBF0FBECDBFDF91CF9108959A01C8
:104E6000AB0163E070E00C940F269A01AB0164E0A3
:104E700070E00C940F261F93CF93DF93CDB7DEB76E
:104E80002B970FB6F894DEBF0FBECDBF142F2BE0CB
:104E900030E0AE014F5F5F4F0E940F26892B51F02B
:104EA000CE0101961A3019F40E94F02006C00E942B
:104EB000912003C060E070E0CB012B960FB6F89410
:104EC000DEBF0FBECDBFDF91CF911F910895AF928E
:104ED000BF92CF92DF92EF92FF920F931F93CF93E7
:104EE000DF931F92CDB7DEB78C017B016A015901B8
:104EF0000E94ED258823B9F160ED7BE0C8010E9496
:104F0000CB30B701C8010E94FC306BE573E0C801EB
:104F10000E94FC3048E853E1B701C8010E943123E8
:104F20008823C9F044EF51E0BE016F5F7F4FC80195
:104F30000E94732124EF31E0A501B601C8010E944F
:104F4000722464EF71E0C8010E946425C8010E94C8
:104F5000022681E009C064EF71E0C8010E94642567
:104F6000C8010E94022680E00F90DF91CF911F912F
:104F70000F91FF90EF90DF90CF90BF90AF9008958A
:104F8000CF93DF93CDB7DEB760970FB6F894DEBF4F
:104F90000FBECDBF20E130E0AE014F5F5F4F6CE050
:104FA00070E00E940F26892BE1F143E050E06CECA9
:104FB0007BE0CE0101960E947236892B51F142E0CE
:104FC00050E069EC7BE0CE0101960E947236892B9D
:104FD00011F146E050E062EC7BE0CE0101960E94C8
:104FE0007236892BD1F045E050E06CEB7BE0CE01CE
:104FF00001960E947236892B91F046E050E065EBF5
:105000007BE0CE0101960E947236892B51F484E038
:1050100009C080E007C081E005C082E003C083E0F2
:1050200001C08FEF60960FB6F894DEBF0FBECDBF04
:10503000DF91CF910895CF92DF92EF92FF920F937D
:105040001F93CF93DF9300D000D0CDB7DEB77C01A4
:105050008B016A018FEA9BE09A83898389EA9BE04E
:105060009C838B8324EF31E042E0BE016F5F7F4F72
:10507000C7010E94C623813091F0811108C024EF3E
:1050800031E0A601B801C7010E94722406C0A60142
:105090006FE97BE0C8010E94803680E001C081E0BA
:1050A0000F900F900F900F90DF91CF911F910F9164
:1050B000FF90EF90DF90CF900895AF92BF92CF9284
:1050C000DF92EF92FF920F93CF93DF93CDB7DEB7CE
:1050D00062970FB6F894DEBF0FBECDBF7C015A01B8
:1050E0006901698B7A8B0E94ED2569897A89882309
:1050F00009F463C0C7010E94CB30C114D10419F177
:1051000060E2C7010E946C210023C1F057018FE4C7
:10511000A80EB11CF60164916623C1F1D701ED918F
:10512000FC910190F081E02D603211F4D5016C9179
:10513000C7010995BFEFCB1ADB0AECCFB601C70157
:105140000E94CB3023C0A114B10401F160E2C70179
:105150000E946C210023B1F06701FFE4CF0ED11C47
:10516000F50161915F01662389F0D701ED91FC9112
:105170000190F081E02D603211F4D6016C91C701ED
:105180000995EECFB501C7010E94FC306DE0C70163
:105190000E946C2140E150E0BE016F5F7F4FC7016C
:1051A0000E941B28082F64EF71E0C7010E9464254C
:1051B000C7010E940226802F01C080E062960FB6D0
:1051C000F894DEBF0FBECDBFDF91CF910F91FF905E
:1051D000EF90DF90CF90BF90AF900895CF92DF9285
:1051E000EF92FF920F931F93CF93DF93CDB7DEB76C
:1051F0002B970FB6F894DEBF0FBECDBF7C016B01BD
:10520000CA01B901402F0BE010E09E012F5F3F4F14
:105210000E94E01F00E020E030E0AE014F5F5F4FF2
:10522000B601C7010E945D282B960FB6F894DEBF29
:105230000FBECDBFDF91CF911F910F91FF90EF90E7
:10524000DF90CF9008951F93CF93DF93EC010E94DE
:10525000ED258823D9F069E97BE0CE010E94CB30AF
:1052600044EF51E061E97BE0CE010E947A2388237C
:1052700039F064EF71E0CE010E94642511E001C0B5
:1052800010E0CE010E940226812F01C080E0DF9154
:10529000CF911F9108950F939B0140E050E00AE0E9
:1052A0006DE07BE00E94EE280F9108950F93262F6A
:1052B00030E040E050E000E16EE87AE00E94EE2845
:1052C0000F9108950C9456290F93262F30E040E05B
:1052D00050E000E161E87AE00E94EE280F91089525
:1052E0000F9300E020E030E040E050E06DEC79E02A
:1052F0000E945D280F9108950F93AB0101E020E01B
:1053000030E06FEB79E00E945D280F9108950F93D4
:105310001F93CF93DF93EC01AB01FB0181818F7D64
:10532000883511F44E5F5F4F00E020E030E064EA22
:1053300079E0CE010E945D28182FCE010E947029CD
:10534000812FDF91CF911F910F9108950F931F939C
:10535000CF93DF93EC01AB0101E020E030E064E9A2
:1053600079E00E945D28182FCE010E947029812FBC
:10537000DF91CF911F910F91089540E16BE170E0B3
:105380000E943B27862F08950F93CF93DF93EC0164
:105390001CAA1BAA1B8A00E020E030E040E050E09D
:1053A0006CE57CE00E945D2820E030E040E050E0C9
:1053B00069E47CE0CE010E945D2820E030E040E01E
:1053C00050E067E37CE0CE010E945D28CE010E94A0
:1053D0005426CE010E94C0278B7F91E009F490E013
:1053E000988BCE010E94BD29C15BDF4F8883DF917E
:1053F000CF910F910895CF93DF93EC01FC01FF96BD
:10540000718360830E946F25882341F0CE010E9442
:10541000C429CE01DF91CF910C94562480E0DF9116
:10542000CF910895CF93DF93EC010E94ED2588235F
:1054300001F169E87BE0CE010E94CB3044EF51E0FE
:1054400060E87BE0CE010E947A23811104C0CE0186
:105450000E9402260EC068E873E180E090E00E949E
:10546000F42C1D861F861E86CE010E94C42981E071
:1054700001C080E0DF91CF910895CF92DF92EF924B
:10548000FF920F931F93CF93DF9300D000D0CDB73F
:10549000DEB78C017B016A0182E499E09A838983FB
:1054A00086E399E09C838B83C8010E94ED258823C5
:1054B00009F444C060E379E0C8010E94CB30E114F4
:1054C000F10421F0B701C8010E94FC306EE279E0DE
:1054D000C8010E94CB30960142E0BE016F5F7F4F52
:1054E000C8010E94C623F82E64E670E0C8010E943D
:1054F000DE2181E0F8121FC0F801F2AE8089882316
:1055000061F048E95AE36AE279E0C8010E947A232F
:1055100064E670E0C8010E94DE2124EF31E040E043
:1055200050E060E070E0C8010E947224C8010E944F
:10553000022681E004C0C8010E94022680E00F908C
:105540000F900F900F90DF91CF911F910F91FF90CF
:10555000EF90DF90CF9008950F931F93CF93DF9339
:10556000CDB7DEB7C054D1090FB6F894DEBF0FBE79
:10557000CDBF8C0140E450E0BE016F5F7F4F0E94C1
:10558000352740E25EE4BE016F5F7F4FC8010E9495
:105590003D2AC05CDF4F0FB6F894DEBF0FBECDBF13
:1055A000DF91CF911F910F910895CF93DF93EC017D
:1055B00063E279E00E94CB3064E670E0CE010E94A5
:1055C000DE211AAE81E0DF91CF910895EF92FF9234
:1055D0000F931F93CF93DF93CDB7DEB760970FB6CE
:1055E000F894DEBF0FBECDBF7C01CB01BA0100E154
:1055F00010E09E012F5F3F4F4AE00E94E01FC7016D
:105600000E94ED2500E020E030E0AE014F5F5F4FEB
:105610006BE179E0C7010E945D28882329F0C7016A
:105620000E94022681E004C0C7010E94022680E099
:1056300060960FB6F894DEBF0FBECDBFDF91CF915D
:105640001F910F91FF90EF900895CF93DF93EC019E
:10565000E881F9810480F581E02D09958FA9DF911A
:10566000CF910895CF93DF93EC018FA9882361F147
:1056700064EF71E0CE010E94DE21CE010E94ED2593
:105680006AEB78E0CE010E94CB3044EF51E063EB4F
:1056900078E0CE010E947A23882329F0CE010E946F
:1056A00002261FAA11C06AE978E0CE018F5B9F4FE6
:1056B0000E940931CE010E945426CE010E9402268A
:1056C0008FA991E0892701C081E0DF91CF910895F2
:1056D000BF92CF92DF92EF92FF920F931F93CF93DF
:1056E000DF93CDB7DEB765970FB6F894DEBF0FBE78
:1056F000CDBF7C016B018A01B22EFC0180AD81110E
:1057000068C0C7010E94ED25F70187A9882319F019
:10571000C7010E94322BB80180E090E004E110E064
:105720009E012F5F3F4F4AE00E94E01F65EE78E048
:10573000C7010E94CB30B601C7010E94FC306DE565
:1057400073E0C7010E94FC30BE016F5F7F4FC7014D
:105750000E94FC3063EE78E0C7010E94CB3064EF1A
:1057600071E0C7010E946425811101C0FFCFB11013
:1057700004C081E0F70180AF2DC040E157E2BE01D7
:105780006B5E7F4FC7010E9473218823F9F08D89DA
:105790008A3271F0833489F7898324EF31E043E161
:1057A00050E0BE016E5F7F4FC7010E9472240EC0A1
:1057B00044EF51E06DED78E0C7010E947A23882321
:1057C00029F081E0F70187AB158604C0C7010E946C
:1057D000022680E065960FB6F894DEBF0FBECDBFFF
:1057E000DF91CF911F910F91FF90EF90DF90CF90BD
:1057F000BF900895CF93DF93EC0164EF71E00E94B6
:10580000DE21CE010E94ED2563E978E0CE010E9401
:10581000CB3044EF51E06CE878E0CE010E947A236F
:10582000882331F0CE010E9402261FAA81E00BC01E
:10583000CE010E94022663E778E0CE018F5B9F4F86
:105840000E94093180E0DF91CF910895FC0113821D
:10585000128248EE53E060E070E044835583668333
:10586000778383E793E09183808315861486089578
:10587000CF93DF93EC011B821A8248EE53E060E085
:1058800070E04C835D836E837F8383E693E099832E
:105890008883CE018F5B9F4F0E94262C1D861F861A
:1058A0001E861FAA18AE81E0888B898BFE01E05B03
:1058B000FF4F11821082329611821082CC5ADF4F34
:1058C00019821882DF91CF9108950F9300E020E0B4
:1058D00040E060E08EEB95E00E9472300F910895F9
:1058E0000F9300E020E040E060E084EC95E00E944F
:1058F00072300F9108951F920F920FB60F921124DC
:105900002F933F938F939F93AF93BF938091CB053A
:105910009091CC05A091CD05B091CE053091CA05EE
:1059200023E0230F2D3720F40196A11DB11D05C0E2
:1059300026E8230F0296A11DB11D2093CA0580936E
:10594000CB059093CC05A093CD05B093CE05809167
:10595000CF059091D005A091D105B091D2050196C7
:10596000A11DB11D8093CF059093D005A093D105C3
:10597000B093D205BF91AF919F918F913F912F919D
:105980000F900FBE0F901F9018952FB7F89460914D
:10599000CB057091CC058091CD059091CE052FBFA0
:1059A00008953FB7F8948091CF059091D005A091CC
:1059B000D105B091D20526B5A89B05C02F3F19F09F
:1059C0000196A11DB11D3FBF6627782F892F9A2F01
:1059D000620F711D811D911D42E0660F771F881FA8
:1059E000991F4A95D1F70895CF92DF92EF92FF92D7
:1059F000CF93DF936B017C010E94D12CEB01C1148A
:105A0000D104E104F10489F00E94B9330E94D12C41
:105A10006C1B7D0B683E734090F381E0C81AD1087F
:105A2000E108F108C851DC4FEACFDF91CF91FF9038
:105A3000EF90DF90CF900895789484B5826084BD14
:105A400084B5816084BD85B5826085BD85B5816082
:105A500085BDEEE6F0E0808181608083E1E8F0E0E2
:105A60001082808182608083808181608083E0E811
:105A7000F0E0808181608083E1EBF0E080818460F0
:105A80008083E0EBF0E0808181608083EAE7F0E0F2
:105A90008081846080838081826080838081816056
:105AA00080838081806880831092C1000895833054
:105AB00081F028F4813099F08230A1F00895873088
:105AC000A9F08830B9F08430D1F4809180008F7DC6
:105AD00003C0809180008F7780938000089584B503
