:100000000C946D070C9495070C9495070C94591D4E
:100010000C94591D0C94591D0C9495070C9495073C
:100020000C9495070C9495070C9495070C949507E0
:100030000C9495070C9495070C9495070C949507D0
:100040000C94D12B0C9495070C94052F0C94372FFE
:100050000C9495070C9495070C9495070C949507B0
:100060000C9495070C9495074175746F73746172C5
:10007000743A20003A000A0D5265626F6F74696E1F
:100080006720576946692E2E2E000A0D5265626F51
:100090006F74204D6963726F56696577202620570B
:1000A00069466920746F20736574206E65772070CF
:1000B0006F72742E0045736361706521000D0A50E4
:1000C0007265737320616E79206B657920746F207F
:1000D00063616E63656C2E2E2E004175746F2D6307
:1000E0006F6E6E656374696E6720746F3A0D0A00F7
:1000F000576966693A256C640A0A4336343A202502
:100100006C6400576966693A256C640A0A433634A0
:100110003A20256C640A0A5254533A20256C640034
:100120002A2A2A205465726D696E616C204D6F64B5
:10013000652028446562756729202A2A2A00436FB2
:100140006E6E656374696F6E20636C6F73656400B7
:10015000436F6E6E656374204661696C656421004F
:10016000436F6E6E656374656420746F2025730041
:10017000436F756C64206E6F74207265736F6C765C
:100180006520444E532E2020436F6E6E65637420AD
:100190004661696C656421000D0A436F6E6E65638C
:1001A00074696E6720746F20257300293A20000D52
:1001B0000A506F7274202800293A20000D0A5465F5
:1001C0006C6E657420686F7374202800434F4E4E28
:1001D000454354494E472E2E2E00496E636F6D697C
:1001E0006E6720436F6E6E656374696F6E00436166
:1001F0006E63656C6C6564000D0A57616974696EA5
:100200006720666F7220636F6E6E656374696F6ED0
:10021000206F6E20706F72742000293A20000D0A42
:10022000496E636F6D696E6720706F72742028006D
:10023000535349440A0A25730049502041646472AB
:10024000657373200A2573004261756420526174DE
:10025000650A0A2575004669726D776172650A0A3A
:100260002573004C697374656E20706F72743A2048
:10027000004669726D776172653A20202020005730
:10028000692D466920535349443A202000495020A3
:10029000416464726573733A2020004D41432041EC
:1002A0006464726573733A2000202844656C20747E
:1002B0006F2073776974636829004153434949206B
:1002C0004D6F6465000D0A456E74727920232074A9
:1002D0006F2073657420746F206175746F2D737453
:1002E0006172743F0D0A283020746F206469736155
:1002F000626C65293A20000D0A41726520796F759C
:1003000020737572652028792F6E293F20000D0A11
:10031000456E74657220616464726573733A20007F
:100320000D0A456E747279202320746F206D6F64FE
:100330006966793F20283020746F2061626F727483
:10034000293A20000D0A53656C6563743A20232C0A
:10035000206D20746F206D6F646966792C20632096
:10036000746F20636C65617220616C6C0D0A612092
:10037000746F20736574206175746F2D737461726E
:10038000742C203020746F20676F206261636B3A99
:1003900020000D0A4572726F72206A6F696E696E75
:1003A00067206E6574776F726B000D0A5353494472
:1003B000205375636365737366756C6C792063682D
:1003C000616E67656400535349443A00506173732A
:1003D0007068726173653A004B65793A00556E6BCF
:1003E0006E6F776E206F7074696F6E2C20747279E7
:1003F00020616761696E000D0A4368616E67652060
:10040000535349440D0A0D0A312E205745500D0A09
:10041000322E20575041202F20575041320D0A33A1
:100420002E2052657475726E20746F20436F6E6655
:10043000696775726174696F6E204D656E750D0A1E
:100440000D0A53656C6563743A2000556E6B6E6FD0
:10045000776E206F7074696F6E2C207472792061D2
:100460006761696E00352E2044697265637420549B
:1004700065726D696E616C204D6F646520284465FE
:10048000627567290D0A362E2052657475726E20CA
:10049000746F204D61696E204D656E750D0A0D0AF1
:1004A00053656C6563743A2000342E202573204414
:1004B000434420616C77617973206F6E00332E2086
:1004C000257320666C6F7720636F6E74726F6C009B
:1004D0000D0A436F6E66696775726174696F6E208D
:1004E0004D656E750D0A0D0A312E20446973706CCE
:1004F00061792043757272656E7420436F6E666910
:100500006775726174696F6E0D0A322E20436861DF
:100510006E676520535349440D0A00556E6B6E6F2C
:10052000776E206F7074696F6E2C20747279206101
:100530006761696E00312E2054656C6E657420749D
:100540006F20686F7374206F72204242530D0A321D
:100550002E2050686F6E6520426F6F6B0D0A332E30
:10056000205761697420666F7220696E636F6D69D0
:100570006E6720636F6E6E656374696F6E0D0A340B
:100580002E20436F6E66696775726174696F6E0DB8
:100590000A0D0A53656C6563743A20005245414464
:1005A000592E000D0A436F6D6D6F646F7265205791
:1005B000692D4669204D6F64656D0057692D466948
:1005C000204661696C6564210057692D4669204F9A
:1005D0004B210057692D466920496E69742E2E2ED5
:1005E00000256C6400426175640A44657465637437
:1005F000696F6E00393630300032343030003132BD
:10060000303000050800FF0C4B00000000003E5B8E
:100610004F5B3E3E6B4F6B3E1C3E7C3E1C183C7E4F
:100620003C181C577D571C1C5E7F5E1C00183C1834
:1006300000FFE7C3E7FF0018241800FFE7DBE7FF30
:1006400030483A060E2629792926407F05050740BD
:100650007F05253F5A3CE73C5A7F3E1C1C08081C7E
:100660001C3E7F14227F22145F5F005F5F06097FBC
:10067000017F006689956A606060606094A2FFA255
:100680009408047E040810207E201008082A1C0804
:10069000081C2A08081E101010100C1E0C1E0C300E
:1006A000383E3830060E3E0E060000000000000006
:1006B0005F00000007000700147F147F14242A7FC6
:1006C0002A12231308646236495620500008070393
:1006D00000001C2241000041221C002A1C7F1C2A11
:1006E00008083E0808008070300008080808080064
:1006F0000060600020100804023E5149453E00425F
:100700007F400072494949462141494D331814122E
:100710007F1027454545393C4A4949314121110956
:10072000073649494936464949291E000014000048
:100730000040340000000814224114141414140062
:100740004122140802015909063E415D594E7C12AE
:1007500011127C7F494949363E414141227F414146
:10076000413E7F494949417F090909013E414151C3
:10077000737F0808087F00417F41002040413F010E
:100780007F081422417F404040407F021C027F7F4F
:100790000408107F3E4141413E7F090909063E4160
:1007A00051215E7F09192946264949493203017FB3
:1007B00001033F4040403F1F2040201F3F40384042
:1007C0003F631408146303047804036159494D43DB
:1007D000007F4141410204081020004141417F0453
:1007E000020102044040404040000307080020543A
:1007F0005478407F2844443838444444283844449A
:10080000287F385454541800087E090218A4A49C68
:10081000787F0804047800447D40002040403D007B
:100820007F1028440000417F40007C047804787CDD
:10083000080404783844444438FC18242418182444
:100840002418FC7C08040408485454542404043F2D
:1008500044243C4040207C1C2040201C3C40304034
:100860003C44281028444C9090907C4464544C4460
:100870000008364100000077000000413608000201
:10088000010204023C2623263C1EA1A161123A402B
:1008900040207A38545455592155557941215454A2
:1008A0007841215554784020545579400C1E52729D
:1008B0001239555555593954545459395554545879
:1008C0000000457C410002457D420001457C40F02E
:1008D000292429F0F0282528F07C5455450020547F
:1008E000547C547C0A097F4932494949323248488C
:1008F0004832324A4848303A4141217A3A4240200F
:1009000078009DA0A07D39444444393D4040403D9D
:100910003C24FF2424487E4943662B2FFC2F2BFFC9
:100920000929F620C0887E0903205454794100002B
:10093000447D413048484A32384040227A007A0AA1
:100940000A727D0D19317D2629292F28262929296A
:100950002630484D4020380808080808080808389C
:100960002F10C8ACBA2F102834FA00007B00000802
:10097000142A142222142A1408AA005500AAAA55DF
:10098000AA55AA000000FF00101010FF0014141454
:10099000FF001010FF00FF1010F010F0141414FCF2
:1009A000001414F700FF0000FF00FF1414F404FC0F
:1009B000141417101F10101F101F1414141F0010F0
:1009C0001010F0000000001F101010101F10101069
:1009D00010F010000000FF10101010101010101078
:1009E000FF10000000FF140000FF00FF00001F10B8
:1009F000170000FC04F414141710171414F404F472
:100A00000000FF00F714141414141414F700F71462
:100A10001414171410101F101F141414F4141010B1
:100A2000F010F000001F101F0000001F1400000055
:100A3000FC140000F010F01010FF10FF141414FF4D
:100A4000141010101F00000000F010FFFFFFFFFF48
:100A5000F0F0F0F0F0FFFFFF0000000000FFFF0FDC
:100A60000F0F0F0F38444438447C2A2A3E147E026C
:100A7000020606027E027E02635549416338444401
:100A80003C04407E201E2006027E020299A5E7A5B6
:100A9000991C2A492A1C4C7201724C304A4D4D3027
:100AA0003048784830BC625A463D3E494949007E4C
:100AB0000101017E2A2A2A2A2A44445F44444051E3
:100AC0004A444040444A51400000FF0103E080FF97
:100AD000000008086B6B083612362436060F090F23
:100AE00006000018180000001010003040FF01013F
:100AF000001F01011E00191D1712003C3C3C3C0068
:100B000000000000636C6F73653A206661696C6574
:100B1000642C206E6F202A434C4F532A002A434CEA
:100B20004F532A00636C6F73650D00636C6F7365C0
:100B30003A206661696C65642C206E6F202A434CF4
:100B40004F532A002A434C4F532A00636C6F73653E
:100B50000D004F50454E2A00302E302E302E3000E2
:100B60004F50454E2A000D006F70656E2000736572
:100B70007420752069006C656176650D0047573DEE
:100B8000000D006A6F696E20004173736F636961C5
:100B900074656421004641494C45440073657420E6
:100BA000776C616E20706872617365007365742084
:100BB000776C616E206B65790073657420776C616A
:100BC0006E20737369640073657420776C616E20A6
:100BD00068696465203100736574207561727420E2
:100BE0006D6F64650073657420697020666C616761
:100BF00073007365742069702070726F746F636F17
:100C00006C0073657420697020646863700073659C
:100C1000742069702072656D6F746500736574204F
:100C2000697020686F737400736574206970206840
:100C30006F737400736574206970206C6F63616CEE
:100C4000706F72740073657420776C616E206A6FC8
:100C5000696E002A5265626F6F742A007265626F56
:100C60006F740D0053746F72696E670073617665FF
:100C70000D003C74696D656F75743E00414F4B0DFE
:100C80000A004552523A20005345525645520043FD
:100C900041434845004155544F4950004F4E004F85
:100CA0004646006C6F6F6B7570200047573D000D16
:100CB00000736C6565700D00736574207379732023
:100CC00077616B650073686F7720630D0045584945
:100CD000540D0A00657869740D00434D440D0A00F7
:100CE00024242400434D440D0A00242424002A4FC8
:100CF00050454E2A002A434C4F532A0073657420F6
:100D0000636F6D6D2072656D6F7465203000736563
:100D10007420737973207072696E746C766C2030F5
:100D2000007365742075206D2031005265706C6110
:100D300063653D005478506F7765723D0052617471
:100D4000653D004A6F696E3D005265626F6F743D8C
:100D50000050726F62653D00426561636F6E3D00D9
:100D6000676574206164686F630D0050524F544F83
:100D70003D00464C4147533D307800525353493D66
:100D8000282D0073686F7720727373690D00466CAD
:100D900075736853697A653D004D61746368436893
:100DA00061723D00466C75736854696D65723D00F3
:100DB00067657420636F6D6D0D004D6F64653D0058
:100DC0005254433D0073686F77207420740D0041C6
:100DD0006464726573733D0067657420646E730D9F
:100DE0000054696D653D00557054696D653D007333
:100DF000686F772074696D650D005A6F6E653D00F0
:100E00006765742074696D650D0042617564726177
:100E100074653D0067657420750D004465766963EF
:100E20006549643D00676574206F70740D0053530D
:100E300049443D0067657420776C616E0D004D611B
:100E40006320416464723D00676574206D61630DC9
:100E500000444843503D00484F53543D0047573DE0
:100E6000004E4D3D0049503D006765742069700D8E
:100E70000000000008000201000003040700000059
:100E8000000000000001020408102040800102045C
:100E900008102001020408102004040404040404BF
:100EA0000402020202020203030303030300000020
:100EB0000023002600290000000000250028002B48
:100EC0000000000000240027002A0000D90C691C43
:100ED000BB2BC62B5D2FE62F0E0D11241FBECFEFAF
:100EE000D8E0DEBFCDBF13E0A0E0B1E0ECE3F4E773
:100EF00002C005900D92AC39B107D9F725E0ACE9F5
:100F0000B3E001C01D92AE35B207E1F71EE0C8EDB7
:100F1000DEE004C02297FE010E940534CC3CD107DC
:100F2000C9F70E94B7160C94113A0C940000CF92A6
:100F3000DF92EF92FF920F931F93E82FF92F05C0D6
:100F4000015011092109310961F19081962394170B
:100F5000B9F305C0015011092109310911F190813E
:100F600096239413F7CFC12CD12CE12CF12C0AC07D
:100F70008FEFC81AD80AE80AF80A0C151D052E05C5
:100F80003F0579F080818623841791F36C2D7D2DA8
:100F90008E2D9F2D1F910F91FF90EF90DF90CF909E
:100FA000089560E070E080E090E01F910F91FF9065
:100FB000EF90DF90CF9008950C941B3941E026B15B
:100FC00025FB882780F990E020910701242730E055
:100FD0008217930739F42091B0002F7D2093B00041
:100FE0005B9AEDCF8091B0008F7D8093B0005B98CD
:100FF0000895CF93DF93EC0160E083E394E00E94D7
:10100000B11B40E060E083E394E00E94B319BE01AD
:1010100083E394E00E94833083E394E0DF91CF91F7
:101020000C94C01BCF93DF93EC0160E083E394E06A
:101030000E94B11B40E060E083E394E00E94B3199A
:10104000BE0183E394E00E94953083E394E0DF9156
:10105000CF910C94C01BCF93DF9300D000D000D071
:10106000CDB7DEB720919C03222399F0FC0160816B
:101070007181CE0101960E948719BE016F5F7F4F7B
:101080008EE094E00E945630CE0101960E94B1316C
:1010900005C0BC018EE094E00E94563026960FB643
:1010A000F894DEBF0FBECDBFDF91CF910895CF93EF
:1010B000DF9300D000D000D0CDB7DEB7BC01CE01A9
:1010C00001960E94A332CE0101960E942B08CE0108
:1010D00001960E94B1318EE094E00E946D30269618
:1010E0000FB6F894DEBF0FBECDBFDF91CF9108954C
:1010F0000F931F93CF93DF9300D000D000D0CDB7D4
:10110000DEB78C01BC01CE0101960E94A332CE0154
:1011100001960E945708CE0101960E94B1314AE023
:1011200060E2C8010E942133B801CE0101960E94FD
:10113000A332CE0101960E94F907CE0101960E94CA
:10114000B13126960FB6F894DEBF0FBECDBFDF914A
:10115000CF911F910F910895CF93DF9300D000D0CE
:1011600000D0CDB7DEB7BC0180919C03882381F00D
:10117000CE0101960E948719BE016F5F7F4F8EE0FE
:1011800094E00E945630CE0101960E94B13104C015
:101190008EE094E00E94643026960FB6F894DEBF8D
:1011A0000FBECDBFDF91CF9108950E94AC088EE0B5
:1011B00094E00C946D30CF93DF9300D000D000D03A
:1011C000CDB7DEB7BC01CE0101960E941F328981E6
:1011D0009A810E94D5084AE060E2CE0101960E9401
:1011E000213389819A810E941208CE0101960E94C2
:1011F000B13126960FB6F894DEBF0FBECDBFDF919A
:10120000CF9108958EE094E00C946D30CF93DF93EE
:10121000CDB7DEB767970FB6F894DEBF0FBECDBF70
:101220000E94020980919C03882389F087E1E3E909
:10123000F2E0DE01119601900D928A95E1F7BE0170
:101240006F5F7F4F8EE094E00E94643006C06AEBCF
:1012500072E08EE094E00E94333069EA72E0CE01E1
:1012600001960E94D932CE0101960E945708CE0104
:1012700001960E94B1310E94020967960FB6F89458
:10128000DEBF0FBECDBFDF91CF910895883041F012
:10129000843131F091E08F3709F090E0892F089583
:1012A00081E00895BF92CF92DF92EF92FF920F9369
:1012B0001F93CF93DF93CDB7DEB7CA56D1090FB6D0
:1012C000F894DEBF0FBECDBFB82E0E94020983EB9B
:1012D00093E00E943C2644E150E0BE016F5A7F4FEC
:1012E00083EB93E00E9474266E018DE3C80ED11C3F
:1012F00044E150E0B60183EB93E00E941E267E019C
:1013000099E2E90EF11C44E150E0B70183EB93E070
:101310000E947A2683EB93E00E943C269093A003E0
:1013200080939F036BE972E08E010F5F1F4FC8012E
:101330000E94D932C8010E942B08C8010E94B13115
:10134000BE016F5A7F4FC8010E941F32C8010E9420
:101350005708C8010E94B1316DE872E0C8010E94CF
:10136000D932C8010E942B08C8010E94B131B601D0
:10137000C8010E941F32C8010E945708C8010E947C
:10138000B1316FE772E0C8010E94D932C8010E94F2
:101390002B08C8010E94B131B701C8010E941F3259
:1013A000C8010E945708C8010E94B13161E772E08C
:1013B000C8010E94D932C8010E942B08C8010E94AE
:1013C000B1316CEA72E0C8010E941F32C8010E946C
:1013D0005708C8010E94B13163E672E0C8010E945B
:1013E000D932C8010E942B08C8010E94B131609116
:1013F0009F037091A0034AE050E08EE094E00E94C9
:1014000052318EE094E00E946D30BB2009F48BC015
:101410008CEA92E09F938F9386E592E09F938F935F
:101420001F930F930E942737B801CE018B599F4F0E
:101430000E941F32CE018B599F4F0E94F907CE01A7
:101440008B599F4F0E94B13168EE73E080E090E0CD
:101450000E944A2C809110018F9380910F018F93ED
:1014600088E492E09F938F931F930F930E942737F6
:10147000B801CE018B599F4F0E941F32CE018B596C
:101480009F4F0E94F907CE018B599F4F0E94B131A7
:1014900068EE73E080E090E00E944A2CDF92CF92E9
:1014A00089E392E09F938F931F930F930E942737B6
:1014B000B801CE018B599F4F0E941F32CE018B592C
:1014C0009F4F0E94F907CE018B599F4F0E94B13167
:1014D00068EE73E080E090E00E944A2CFF92EF9269
:1014E00080E392E09F938F931F930F930E9427377F
:1014F000B801CE018B599F4F0E941F32CE018B59EC
:101500009F4F0E94F907CE018B599F4F0E94B13126
:1015100068EE73E080E090E00E944A2C0FB6F894E9
:10152000DEBF0FBECDBFC659DF4F0FB6F894DEBF8A
:101530000FBECDBFDF91CF911F910F91FF90EF9024
:10154000DF90CF90BF900895CF938091A30388231D
:1015500081F0C1E04A9B07C0609107016C278FE0D2
:101560000E94212DF7CF609107018FE0CF910C945D
:10157000212DCF910895CF93DF93EC01E881F9817C
:101580000480F581E02DCE010995892BB9F3E8811E
:10159000F9810680F781E02DCE01DF91CF9109948A
:1015A0008F929F92AF92BF92CF92DF92EF92FF9273
:1015B000CF93DF93EC014B010E941B2C6B017C014C
:1015C000A12CB12CE881F9810480F581E02DCE01B8
:1015D0000995892BC1F40E941B2C6C197D098E0979
:1015E0009F0986169706A806B90660F78FEF9FEF4A
:1015F000DF91CF91FF90EF90DF90CF90BF90AF90B1
:101600009F908F900895E881F9810084F185E02D05
:10161000CE01DF91CF91FF90EF90DF90CF90BF9000
:10162000AF909F908F900994CF92DF92EF92FF92AC
:10163000CF93C82F0E941B2C6B017C010E941B2C96
:10164000685B7B40810991096C157D058E059F05BE
:1016500008F44BC08C2F0E94572D892B79F720E47A
:1016600032E44FE050E060E08C2F0E94802D6D311D
:1016700071058105910504F16C33710581059105B2
:1016800004F1663971058105910504F16C3221E0A0
:10169000720781059105FCF0683522E0720781052B
:1016A0009105F4F0603B744081059105F4F460EB22
:1016B00074E080E090E01CC060E076E980E090E0BB
:1016C00017C060E07BE480E090E012C060E875E263
:1016D00080E090E00DC060EC72E180E090E008C036
:1016E00060E679E080E090E003C060E070E0CB016C
:1016F000CF91FF90EF90DF90CF9008950F931F93BD
:10170000CF93DF931F92CDB7DEB78C0169830E9420
:10171000DC076981861741F0C8010F90DF91CF91F6
:101720001F910F910C9423390F90DF91CF911F914E
:101730000F91089580939C03682F80E090E00C94B3
:101740007E0BEF92FF920F931F93CF93DF937C0159
:101750008B01C0E0D0E0D801ED91FC91EC0FFD1FB2
:101760006081CE018E0D9F1D0E9423392196C632C5
:10177000D10589F7DF91CF911F910F91FF90EF90E5
:101780000895AF92BF92CF92DF92EF92FF920F93A4
:101790001F93CF93DF93CDB7DEB7A8970FB6F8941A
:1017A000DEBF0FBECDBF6C017B018E010F5F1F4FEF
:1017B0005E0187E2A80EB11CB801E01AF10AC70168
:1017C000800F911F6FA378A70E94DC07F801819317
:1017D0008F016FA178A5EA15FB0589F7C6010E9464
:1017E0001F32C601A8960FB6F894DEBF0FBECDBF5C
:1017F000DF91CF911F910F91FF90EF90DF90CF90ED
:10180000BF90AF900895FC012191222331F0DC01BB
:101810002C932032C9F30196F7CFFC011082089572
:10182000EF92FF920F931F93CF93DF9300D000D0DE
:1018300000D0CDB7DEB784E6E82EF12C00E010E052
:101840000F5F1F4F4AE050E0B8018EE094E00E9425
:10185000523164E770E0CE0101960E94D932CE0188
:1018600001960E942B08CE0101960E94B131B7016A
:10187000CE0101960E94C10BCE0101960E9457082D
:10188000CE0101960E94B13188E2E80EF11C0930C8
:101890001105B1F60E94020968E670E0CE010196DA
:1018A0000E94D932CE0101960E942B08CE010196EA
:1018B0000E94B13183E690E00E94DC074AE050E0EC
:1018C000682F8EE094E00E947F310E9402092696E4
:1018D0000FB6F894DEBF0FBECDBFDF91CF911F9141
:1018E0000F91FF90EF90089567E183EB93E00E94E2
:1018F000A92862E083EB93E00C94A7280F931F9331
:10190000CF93DF9300D000D000D0CDB7DEB78C01ED
:1019100080919F039091A00380179107F1F1B80186
:1019200083EB93E00E94902883EB93E00E94682869
:101930001093A00300939F0380910D0190910E01DD
:101940008036994081F06AE870E0CE0101960E94ED
:10195000D932CE0101960E945708CE0101960E940D
:10196000B13181E01BC066E770E0CE0101960E94B4
:10197000D932CE0101960E945708CE0101960E94ED
:10198000B13183EB93E00E94582968E873E180E06D
:1019900090E00E944A2C0E94740C80E026960FB6BC
:1019A000F894DEBF0FBECDBFDF91CF911F910F9195
:1019B00008950F9300E020E040E060E08DE294E0C5
:1019C0000E94DA2F20E046E065E08EE094E00E947D
:1019D0002C1E83EB93E00E948D2B6CE873E08DEA64
:1019E00093E00E941F3241E020910F0130911001DD
:1019F00080910D0190910E012817390709F440E0FC
:101A00004093A40380E090E00E94DC0791E0811104
:101A100001C090E090939C030F9108958DEA93E0AC
:101A20000E94B1318EE094E00C94D31DDF92EF92CE
:101A3000FF920F931F93CF93DF93CDB7DEB7E2975B
:101A40000FB6F894DEBF0FBECDBF7C0100E010E002
:101A50008EE094E00E94BB0AD82E0E9446098111B4
:101A600015C0E1E0F0E0EC0FFD1FE00FF11FD082A8
:101A70006D2D8EE094E00E94951C8DE0D81689F0C3
:101A80000133110574F40F5F1F4FE2CF01151105EB
:101A9000F9F26D2D8EE094E00E94951C0150110921
:101AA000D7CFE1E0F0E0EC0FFD1FE00FF11F108257
:101AB000BE016F5F7F4FC7010E941F32C701E296D0
:101AC0000FB6F894DEBF0FBECDBFDF91CF911F914F
:101AD0000F91FF90EF90DF9008950F931F93CF9396
:101AE000DF9300D000D000D0CDB7DEB78C01CE019F
:101AF00001960E94160DCE0101960E942F3380910F
:101B00009C03882331F069817A81C8010E943D19C4
:101B100006C0BE016F5F7F4FC8010E948C31CE01AD
:101B200001960E94B131C80126960FB6F894DEBF27
:101B30000FBECDBFDF91CF911F910F9108950F93ED
:101B40001F93CF93DF93CDB7DEB72C970FB6F894E2
:101B5000DEBF0FBECDBF67EF73E0CE0101960E94DE
:101B6000D932CE0101960E942B08CE0101960E9427
:101B7000B1318EE094E00E94BB0A8C01682F8EE0A8
:101B800094E00E94A73004311105E1F05CF40A30C2
:101B9000110509F30D301105F1F208301105B1F40A
:101BA00080E011C001331105F1F024F40032110579
:101BB00091F20CC002331105C9F00333110509F489
:101BC000C4C004C081E00E949A0BC5CF6DED73E0E4
:101BD000CE0101960E94D932CE0101960E9457088B
:101BE000CE010196AFC001E010E002C000E010E0BD
:101BF0000E9402096CE873E0CE0107960E941F3232
:101C00000130110521F568ED73E0CE0101960E94C7
:101C1000D932CE0101960E942B08CE0101960E9476
:101C2000B131CE0101960E946D0DBE016F5F7F4FF5
:101C3000CE0107960E94AC32CE0101960E94B131CE
:101C40006F81788583EB93E00E94CC2823C06CECF5
:101C500073E0CE0101960E94D932CE0101960E9416
:101C60002B08CE0101960E94B131CE0101960E944F
:101C70006D0DBE016F5F7F4FCE0107960E94AC32A3
:101C8000CE0101960E94B1316F81788583EB93E09C
:101C90000E94EB280E94020966EC73E0CE010196D7
:101CA0000E94D932CE0101960E942B08CE010196E6
:101CB0000E94B131CE0101960E946D0DBE016F5F91
:101CC0007F4FCE0107960E94AC32CE0101960E9452
:101CD000B1316F81788583EB93E00E94C12883EB5B
:101CE00093E00E94682883EB93E00E941B2A60E245
:101CF0007EE483EB93E00E94F229882399F06AEA5C
:101D000073E0CE0101960E94D932CE0101960E9465
:101D10005708CE0101960E94B131CE0107960E946C
:101D2000B13113C062E973E0CE0101960E94D9324D
:101D3000CE0101960E945708CE0101960E94B13152
:101D4000CE0107960E94B13106CF2C960FB6F894BB
:101D5000DEBF0FBECDBFDF91CF911F910F910895D0
:101D60000F931F93CF93DF9300D000D000D0CDB757
:101D7000DEB76FEA71E0CE0101960E94D932CE0142
:101D800001960E942B08CE0101960E94B13160910C
:101D90000A0170910B014AE050E08EE094E00E944D
:101DA00052316BEA71E0CE0101960E94D932CE0128
:101DB00001960E942B08CE0101960E94B131CE01FE
:101DC00001960E946D0D8D819E81892B31F0CE018F
:101DD00001960E948E338B0104C000910A0110917C
:101DE0000B01CE0101960E94B131C80126960FB6B3
:101DF000F894DEBF0FBECDBFDF91CF911F910F9141
:101E00000895CF93DF93CDB7DEB7E8970FB6F89478
:101E1000DEBF0FBECDBF60E271E08E010F5F1F4FCE
:101E2000C8010E94D932C8010E945708C8010E9407
:101E3000B131412C512C3201C12CD12C7601312CE5
:101E400093E0A92E91E0B92E20EF822E20E0922E71
:101E500083EB93E00E94162218161906B4F48FEF54
:101E6000C81AD80AE80AF80A8091A30381110E94CF
:101E7000DE0783EB93E00E94BA21682F8EE094E0A6
:101E80000E94951C33243394E3CF8EE094E00E94AB
:101E9000021D181619068CF49FEF491A590A690A8F
:101EA000790A8EE094E00E94741C682F83EB93E023
:101EB0000E944C2033243394E8CFC2019301332095
:101EC00039F24091A303411104C04091A40344237B
:101ED00099F01F921F921F921F923F932F939F93EF
:101EE0008F93FF92EF92DF92CF92BF92AF921F93A8
:101EF0000F930E9427370EC07F926F925F924F928E
:101F0000FF92EF92DF92CF929F928F921F930F9347
:101F10000E9427370FB6F894DEBF0FBECDBFB801C1
:101F2000CE01C3960E941F32CE01C3960E94F907CC
:101F3000CE01C3960E94B1318BCF9F92AF92BF92D8
:101F4000CF92DF92EF92FF920F931F93CF93DF9385
:101F5000CDB7DEB7A4970FB6F894DEBF0FBECDBFE6
:101F6000CE0101967C013DEBC32E34E0D32E49EA2D
:101F7000A42E44E0B42E9924939460ED74E0C7013C
:101F80000E94D932C7010E942B08C7010E94B131BB
:101F90008091A303882319F081EB92E002C089EBC2
:101FA00092E09F938F93DF92CF92FF92EF920E94E5
:101FB0002737B701CE014F960E941F32CE014F96B0
:101FC0000E945708CE014F960E94B1310F900F909A
:101FD0000F900F900F900F908091A203811103C07A
:101FE00081EB92E002C089EB92E09F938F93BF92C6
:101FF000AF92FF92EF920E942737B701CE014F9622
:102000000E941F32CE014F960E945708CE014F9674
:102010000E94B13165E674E0CE014F960E94D9323C
:10202000CE014F960E942B08CE014F960E94B131EF
:102030008EE094E00E94BB0A8C01682F8EE094E051
:102040000E94A7300F900F900F900F900F900F905D
:102050000133110589F1BCF40D30110509F48DCF60
:102060004CF40830110509F449C00A30110509F48F
:1020700084CF4AC00431110509F442C00032110571
:1020800009F47BCF41C00433110519F174F4023314
:102090001105E1F003331105B9F56091A30369253A
:1020A0006093A3038BE090E024C00533110521F178
:1020B00006331105C1F128C080E00E94520968EE84
:1020C00073E080E090E00E944A2C57CF0E949F0D61
:1020D00054CF8091A20389258093A20360910801C7
:1020E0008111692580E10E94212D6091A20381E187
:1020F00090E00E947E0B41CF0E94010F80E001C062
:1021000081E00E949A0B39CF6BE474E0CE014F96C8
:102110000E94D932CE014F960E945708CE014F96A9
:102120000E94B1312ACFA4960FB6F894DEBF0FBE3D
:10213000CDBFDF91CF911F910F91FF90EF90DF9076
:10214000CF90BF90AF909F9008951F93CF93DF9350
:10215000EC01162F6FEF83EB93E00E944C20CD3FF4
:10216000D10511F46DEF01C06BEF83EB93E00E949A
:102170004C20612F83EB93E0DF91CF911F910C9462
:102180004C201F93CF93DF93EC01162F6FEF83EB5F
:1021900093E00E944C20CD3FD10511F46CEF01C0BB
:1021A0006EEF83EB93E00E944C20612F83EB93E072
:1021B000DF91CF911F910C944C206FEF83EB93E054
:1021C0000E944C206EEF83EB93E00E944C2062E271
:1021D00083EB93E00E944C206FEF83EB93E00E942F
:1021E0004C206EEF83EB93E00E944C2061E083EB88
:1021F00093E00C944C20CF93DF93809106018823C9
:1022000021F00E94DD101092060183EB93E00E9402
:10221000BB0AEC018F3F910519F480919D033AC0F0
:102220008C3F910521F124F48B3F910541F031C0A1
:102230008D3F910521F08E3F9105C9F02AC083EBB7
:1022400093E00E94BB0A009749F083309105E9F4BE
:1022500063E070E0CE010E94A5101BC060E070E05A
:10226000CE010E94A51081E080939D0312C083EBF4
:1022700093E00E94BB0A009741F460E070E0CE0159
:102280000E94C11010929D0304C0BC01CE010E94A7
:10229000C11080E0DF91CF910895CF92DF92EF924D
:1022A000FF921F93CF93DF9300D000D000D0CDB723
:1022B000DEB78EE094E00E94741C182F0E941B2C45
:1022C000685E734081099109C090A703D090A8036C
:1022D000E090A903F090AA03C616D706E806F9060F
:1022E000B0F480910901181310C08091AB038117DD
:1022F00031F081E08093AC031093AB0312C0809166
:10230000AC038F5F8093AC030CC01092AC030E94AF
:102310001B2C6093A7037093A8038093A903909349
:10232000AA038091AC038330D9F465EB70E0CE0151
:1023300001960E94D932CE0101960E94F907CE0182
:1023400001960E94B13181E08093A6031092AC0304
:102350001092A7031092A8031092A9031092AA0347
:102360001F3F49F480919D03882329F06FEF83EB91
:1023700093E00E944C200E94A40A612F83EB93E01B
:102380000E944C2026960FB6F894DEBF0FBECDBF3C
:10239000DF91CF911F91FF90EF90DF90CF90089544
:1023A000BF92CF92DF92EF92FF920F931F93CF9342
:1023B000DF93CDB7DEB760970FB6F894DEBF0FBEE0
:1023C000CDBF81E08093060100E010E0CE010196D0
:1023D0007C01BB24B39483EB93E00E941622019608
:1023E00009F497C083EB93E00E9416221816190691
:1023F0000CF058C083EB93E00E94BA216C019091DD
:1024000006018091A403992351F09FEFC916D104CE
:1024100019F4B0929E0307C010929E0329C0EFEFFB
:10242000CE16D10429F590919E03992309F18823B2
:10243000C1F08091B0008F7D8093B0005B980E94C6
:10244000FB10882339F0F701E00FF11F8FEF808335
:102450000F5F1F4F8091B0008F7D8093B0005B9A1B
:10246000C1CF0E94FB10882309F4BCCF6FEF15C0C9
:10247000882369F08091B0008F7D8093B0005B9AD3
:10248000F701E00FF11FC0820F5F1F4FABCF8091AC
:10249000A30381110E94DE076C2D8EE094E00E9460
:1024A000951CA0CF8091A4038823E1F00930110589
:1024B00014F008E010E06701C6018E199F0980172B
:1024C000910744F4F60161916F018EE094E00E945F
:1024D000951CF2CF8091B0008F7D8093B0005B9807
:1024E00000E010E08EE094E00E94021D181619062C
:1024F0001CF40E944D11F6CF83EB93E00E947A2AE0
:10250000882329F08091A603882309F464CF1092D0
:10251000A60383EB93E00E94872A6EE371E0CE016D
:102520000B960E94D932CE010B960E947808CE01FC
:102530000B960E94B1318091A203882339F06091FB
:10254000080181E0682780E10E94212D60960FB686
:10255000F894DEBF0FBECDBFDF91CF911F910F91D9
:10256000FF90EF90DF90CF90BF9008950F931F934F
:10257000CF93DF93CDB7DEB72C970FB6F894DEBFBD
:102580000FBECDBF00919F031091A0036EE172E0DA
:10259000CE0101960E94D932CE0101960E942B08ED
:1025A000CE0101960E94B1314AE050E0B8018EE0C0
:1025B00094E00E9452316AE172E0CE0101960E94DD
:1025C000D932CE0101960E942B08CE0101960E94BD
:1025D000B131CE0107960E946D0D8B859C85892BAC
:1025E00051F0CE0107960E948E338B01CB010E94E1
:1025F0007E0C8111FFCF1093A00300939F0383EB08
:1026000093E00E944F2B68EF71E0CE0101960E948B
:10261000D932CE0101960E942B08CE0101960E946C
:10262000B13160919F037091A0034AE050E08EE0C9
:1026300094E00E945A3183EB93E00E947A2A811140
:1026400028C08EE094E00E94021D181619069CF71F
:102650008EE094E00E94741C6EEE71E0CE01019653
:102660000E94D932CE0101960E945708CE010196F0
:102670000E94B131CE0107960E94B1312C960FB65F
:10268000F894DEBF0FBECDBFDF91CF911F910F91A8
:1026900008956AED71E0CE0101960E94D932CE0113
:1026A00001960E945708CE0101960E94B1316CEC50
:1026B00071E083EB93E00E9471300E94D0119FCFB4
:1026C000BF92CF92DF92EF92FF920F931F93CF931F
:1026D000DF93CDB7DEB7C854D1090FB6F894DEBF8B
:1026E0000FBECDBF7C016B01FC0181818F93808186
:1026F0008F9388E991E09F938F931F9252E3B52EB9
:10270000BF928E010F5F1F4F1F930F930E94F736EA
:10271000C8010E94DB08F7016081718120E130E08F
:10272000AE014D5C5F4F83EB93E00E94AC260FB689
:10273000F894DEBF0FBECDBF811118C060E771E015
:10274000CE018D5B9F4F0E94D932CE018D5B9F4F92
:102750000E947808CE018D5B9F4F0E94B13168EED8
:1027600073E080E090E00E944A2C40C021E0A60186
:10277000BE016D5C7F4F83EB93E00E94BD2A8823EE
:1027800009F1F70181818F9380818F9380E691E039
:102790009F938F931F92BF921F930F930E94F736C0
:1027A000C8010E94DB080FB6F894DEBF0FBECDBF94
:1027B0008091A2038823C1F06091080180E10E940A
:1027C000212D12C060E571E0CE018D5B9F4F0E940C
:1027D000D932CE018D5B9F4F0E947808CE018D5B70
:1027E0009F4F0E94B13102C00E94D011C85BDF4FE1
:1027F0000FB6F894DEBF0FBECDBFDF91CF911F9112
:102800000F91FF90EF90DF90CF90BF9008950F93BE
:102810001F93CF93DF93CDB7DEB72C970FB6F89405
:10282000DEBF0FBECDBF6CEB71E0CE0101960E9402
:10283000D932CE0101960E942B08CE0101960E944A
:10284000B1316DEA73E0CE0101960E94A332CE0150
:1028500001960E942B08CE0101960E94B13168EBCF
:1028600071E0CE0101960E94D932CE0101960E94FC
:102870002B08CE0101960E94B131CE0107960E942D
:102880006D0D8B859C85892B91F00E94B00E8C017B
:10289000BE01695F7F4F8DEA93E00E948C321093F6
:1028A0000B0100930A01BE01695F7F4F0FC0809149
:1028B000B1039091B203892BB9F00E94B00E8C0144
:1028C00090930B0180930A016DEA73E0CE010196AB
:1028D0000E94A33240E0B801CE0101960E9460132D
:1028E000CE0101960E94B131CE0107960E94B1310E
:1028F0002C960FB6F894DEBF0FBECDBFDF91CF91FF
:102900001F910F910895EF92FF920F931F93CF9312
:10291000DF93CDB7DEB72C970FB6F894DEBF0FBEAE
:10292000CDBF8C01BC01CE0107960E941F32F80179
:1029300080818823E9F16AE370E0C8010E949F3634
:102940000097C1F0FC0111927F01B801CE01019600
:102950000E941F32BE016F5F7F4FCE0107960E941B
:10296000AC32CE0101960E94B131C7010E941436EB
:102970008C0102C007E110E0BE01695F7F4F8DEA64
:1029800093E00E948C3210930B0100930A01BE0168
:10299000695F7F4FCE0101960E94A33240E0B801EB
:1029A000CE0101960E946013CE0101960E94B131C2
:1029B000CE0107960E94B1312C960FB6F894DEBF77
:1029C0000FBECDBFDF91CF911F910F91FF90EF9080
:1029D0000895FF920F931F93CF93DF93CDB7DEB788
:1029E000E0970FB6F894DEBF0FBECDBF68E2F62EBB
:1029F0000E9402090E94100C64E473E0CE0101966B
:102A00000E94D932CE0101960E942B08CE01019678
:102A10000E94B1318EE094E00E94BB0A182F682F0B
:102A20008EE094E00E94A730812F8F7D8D3409F0D5
:102A300062C060E273E0CE0101960E94D932CE01FD
:102A400001960E942B08CE0101960E94B1318EE0C2
:102A500094E00E94BB0A8FA718AACE018F960E940D
:102A600014368C018A30910518F64AE050E0BC011A
:102A70008EE094E00E9452310115110509F4B8CF9F
:102A80006EE073E0CE0101960E94D932CE0101962C
:102A90000E942B08CE0101960E94B131CE01899689
:102AA0000E946D0D8DA59EA501501109892B41F045
:102AB000BE01675D7F4FCE0101960E94A33206C022
:102AC0006CE873E0CE0101960E941F32F09EC001B7
:102AD000F19E900D1124BE016F5F7F4F8C599F4F67
:102AE0000E94A10BCE0101960E94B131CE018996C0
:102AF0000E94B1317DCF833479F567EF72E0CE016A
:102B000001960E94D932CE0101960E942B08CE0177
:102B100001960E94B1318EE094E00E94BB0A8F7D45
:102B2000893509F065CF04E610E06AEA72E0CE016B
:102B300001960E941F32BE016F5F7F4FC8010E9445
:102B4000A10BCE0101960E94B131085D1F4F0C3CD4
:102B500081E0180751F74CCF813451F565EC72E0F4
:102B6000CE0101960E94D932CE0101960E942B0817
:102B7000CE0101960E94B1318EE094E00E94BB0A22
:102B80008FA718AACE018F960E9414368C018A3026
:102B9000910508F02DCF4AE050E0BC018EE094E0B2
:102BA0000E945231602F83E690E00E947E0B20CF7E
:102BB0001FA718AACE018F960E9414368A3091055D
:102BC00008F016CF009709F10197F89EB001F99E21
:102BD000700D11246C597F4FCE0189960E94C10B54
:102BE00069A57AA548E250E0CE0101960E94B1366F
:102BF000CE0189960E94B131CE0101960E94030C4C
:102C0000CE0101960E948314F3CEE0960FB6F8949D
:102C1000DEBF0FBECDBFDF91CF911F910F91FF900F
:102C20000895CF93DF93CDB7DEB7AE970FB6F89484
:102C3000DEBF0FBECDBF8091A5039FEF980F9930E7
:102C400008F058C0992787FD9095019728E2289FA2
:102C5000B001299F700D11246C597F4FCE018996C8
:102C60000E94C10B69A57AA548E250E0CE01019609
:102C70000E94B136CE0189960E94B1316AED70E0B2
:102C8000CE0189960E94D932CE0189960E942B08E6
:102C9000CE0189960E94B131BE016F5F7F4FCE0198
:102CA00089960E941F32CE0189960E945708CE0154
:102CB00089960E94B1316DEB70E0CE0189960E9439
:102CC000D932CE0189960E945708CE0189960E947A
:102CD000B13160ED77E08EE094E00E94D00A019679
:102CE00029F08EE094E00E94BB0A04C0CE01019658
:102CF0000E948314AE960FB6F894DEBF0FBECDBF10
:102D0000DF91CF910895CF92DF92EF92FF926C0105
:102D100090930E0180930D0187EB94E00E94FA2DB1
:102D200062E070E080E090E00E944A2CE12CF12CFF
:102D3000B701A60183EB93E00E942C2A68EE73E0B2
:102D400080E090E00E944A2C87EB94E00E94E32E02
:102D500026E0B701A60187EB94E00E94812E83EB69
:102D600093E0FF90EF90DF90CF900C943C26CF93B0
:102D7000DF93CDB7DEB72C970FB6F894DEBF0FBE4A
:102D8000CDBF0E94842C83E394E00E94011C60E08C
:102D900083E394E00E94F71961E083E394E00E94EA
:102DA000B11B3D98399A5298539A8091B0008F7D0B
:102DB0008093B0005B98609107018FE00E94212D05
:102DC0003A9A81E190E00E94DC0791E0811101C014
:102DD00090E09093A20360910801992311F081E0A3
:102DE000682780E10E94212D84E190E00E94DC07A9
:102DF0008093A103823009F4389880E380930C011A
:102E000060E381E090E00E947E0B80910C018233B0
:102E100069F0833301F1813339F580EB94E09093CD
:102E2000100180930F016EEF75E008C080E699E015
:102E30009093100180930F0169EF75E0CE01019628
:102E40000E94D932CE0101960E94F907CE01019667
:102E50000E94B131ABC080E895E29093100180935D
:102E60000F0164EF75E0EACF82E090E00E94DC079A
:102E7000182F83E090E00E94DC07212F30E0322FF2
:102E80002227280F311D3093100120930F01203B82
:102E900084E03807C9F0203699E03907A9F0203CD2
:102EA00082E1380789F0203895E2390769F0211569
:102EB0008BE4380749F02115364931F080E699E076
:102EC0009093100180930F0160E085E00E94E82C50
:102ED00061E085E00E94212D65EE75E0CE0101964E
:102EE0000E94D932CE0101960E94F907CE010196C7
:102EF0000E94B13185E090E00E94140B6B017C01CF
:102F0000603B24E072078105910509F180E6C8164F
:102F100089E0D806E104F104D1F090ECC91692E101
:102F2000D906E104F10499F020E8C21625E2D206A0
:102F3000E104F10461F0C1148BE4D806E104F1046A
:102F400031F0C11496E9D906E104F10479F5FF9254
:102F5000EF92DF92CF9281EE95E09F938F938E0157
:102F6000095F1F4F1F930F930E942737B801CE01AF
:102F700001960E941F32CE0101960E94F907CE01F0
:102F800001960E94B131C0920F01D09210016D2DB7
:102F900082E090E00E947E0B6C2D83E090E00E9426
:102FA0007E0B0FB6F894DEBF0FBECDBF68EB7BE0A3
:102FB00080E090E00E944A2C40910F015091100156
:102FC00060E070E08EE094E00E945C1E40910D0194
:102FD00050910E0160E070E026E087EB94E00E94E3
:102FE000812E48EE53E060E070E08EE094E00E94B5
:102FF000863141E020910F013091100180910D0147
:1030000090910E012817390709F440E04093A4037A
:103010008EE094E00E946D3063ED75E0CE01019684
:103020000E94D932CE0101960E947808CE01019605
:103030000E94B13140E050E067EB74E083EB93E035
:103040000E9440298823C1F069EC75E0CE01019609
:103050000E94D932CE0101960E947808CE010196D5
:103060000E94B1310E94740C80910F019091100167
:103070008036994089F422C06BEB75E0CE01019651
:103080000E94D932CE0101960E947808CE010196A5
:103090000E94B1310E94010F68EE73E080E090E081
:1030A0000E944A2C80910F0190911001803B24E0F6
:1030B000920711F480E699E00E94831641E0209186
:1030C0000F013091100180910D0190910E01281790
:1030D000390709F440E04093A40383EB93E00E9496
:1030E000872A83E690E00E94DC078093A5038BE0AB
:1030F00090E00E94DC0791E0811101C090E0909384
:10310000A3030E94111663EA75E0CE0101960E94A6
:10311000D932CE0101960E945708CE0101960E9435
:10312000B1310E94020981E00E9452096CE975E008
:10313000CE0101960E94D932CE0101960E94F90774
:10314000CE0101960E94B1310E94060965E375E047
:10315000CE0101960E94D932CE0101960E942B0821
:10316000CE0101960E94B1318EE094E00E94BB0A2C
:103170007C01682F8EE094E00E94A73080E2E81680
:10318000F104A1F2ACF42AE0E216F10479F234F48D
:1031900098E0E916F10461F580E027C02DE0E21621
:1031A000F10421F284E1E816F10411F581E01DC07B
:1031B00092E3E916F10499F03CF481E3E816F10496
:1031C000B9F40E940714B2CF93E3E916F10451F069
:1031D00024E3E216F10461F40E949D0FA7CF0E9440
:1031E000E914A4CF0E94B612A1CF0E949A0B9ECFE1
:1031F0006BE175E0CE0101960E94D932CE010196B5
:103200000E945708CE0101960E94B1318FCFCF9313
:10321000C82F80EA8C0F803210F490E603C0C03EC5
:1032200018F090EC9C0F03C0CD3001F19C2F9A3028
:10323000F9F0903210F48EE21EC0903AD9F08FE38C
:10324000890F8A3110F480E805C08FEB890F8A312D
:1032500018F480E2890F0FC08C2F992787FD909575
:103260000E945B36892B39F38C2F05C08AE003C09E
:103270008DE001C080E2CF9108950F931F93CF930B
:10328000DF93EC018B016CE873E00E941F32F801C0
:1032900001900020E9F7BF0161507109601B710BBB
:1032A000CE010E94E231F80181918F01882339F02B
:1032B0000E940719682FCE010E940E33F4CFCE0171
:1032C000DF91CF911F910F9108958A30C1F08D3019
:1032D000C1F08032D4F08036B1F09FE9980F9A3176
:1032E00010F4805208959FEB980F9A3110F4805893
:1032F00008958B3754F480364CF0805A08958DE051
:1033000008958AE0089587E208958FE308950F9362
:103310001F93CF93DF93EC018B016CE873E00E9465
:103320001F32F80101900020E9F7BF0161507109D7
:10333000601B710BCE010E94E231F80181918F0177
:10334000882339F00E946519682FCE010E940E3340
:10335000F4CFCE01DF91CF911F910F9108950DB45D
:1033600007FEFDCF0895FC016387448708950F93FE
:103370006034D8F54033C8F50130C9F42130A9F5DF
:10338000E42FE695E695E69580E4E89FF0011124A8
:10339000E60FF11DEF5EFE4F477081E090E0042ED6
:1033A00001C0880F0A94EAF7908198271DC0842FE6
:1033B000869586958695E62FF0E0477090E4899F84
:1033C000E00DF11D1124EF5EFE4F81E090E0042E30
:1033D00001C0880F0A94EAF7213019F49081982BE4
:1033E00003C080959081982390830F910895DC010C
:1033F00061112EC018961C9218978091910290919D
:103400009202FC01249116962C9316973196E49122
:103410001796EC931797FC013296E4911996EC936A
:103420001997FC013396E4911A96EC931A97FC01D4
:10343000349624913196849190E0F4E62F9F800D8C
:10344000911D11241E969C938E931D9781E00895E3
:1034500080E008955F926F927F928F929F92AF92D9
:10346000BF92CF92DF92EF92FF920F931F93CF9371
:10347000DF93EC01162FB42EF02E3985231708F4B4
:10348000B0C06A8570E0630F711D822F90E08617CF
:1034900097070CF0A6C0D22ED31A9F8096949694CC
:1034A000969481E08915C0F1C12E3C2D311B2E81EF
:1034B000822F90E0A32FB0E08A179B070CF491C0F5
:1034C000321791F0E885F0E0EE0FFF1FEF56FD4F49
:1034D000D29EA00DB11D112416960190F081E02D11
:1034E000EA0FFB1F949001C0912CA12C4A2D4B0D8B
:1034F00090FE03C00E2D2F2D04C021E0F11020E01E
:103500000E2D6C2DCE010E94B7199694A39488E0DD
:10351000A812ECCFC394C9CFED85FE852E8130E093
:10352000CF01B9010E949A338D2D90E00E949A3309
:10353000829F6001839FD00C929FD00C11249E9E8D
:1035400090019F9E300D1124269FC001279F900D52
:10355000369F900D1124C80ED91E742EA12CB12CAB
:1035600086E0C80ED11C812E482D411B8E81481744
:1035700080F5E885F0E0EE0FFF1FEF56FD4F2D853B
:103580003E85A29EC001A39E900DB29E900D112477
:103590008C0D9D1D840F911D0190F081E02DE80F91
:1035A000F91F5490612C462D470D50FE03C00E2D7F
:1035B0002F2D04C021E0F11020E00E2D682DCE014A
:1035C0000E94B7195694639488E06812ECCF8394F4
:1035D000CBCF8FEFA81AB80A88E0780EA91408F4A8
:1035E000C2CFDF91CF911F910F91FF90EF90DF90AD
:1035F000CF90BF90AF909F908F907F906F905F9093
:103600000895EF920F93CF93DF93EC01262F6A304A
:10361000A9F06D30C1F0ED800C814C856B850E9466
:103620002A1A4E812B85240F2F5F2B8730E080E4F0
:1036300090E0841B9109821793072CF48C859F815D
:10364000890F8C871B8681E090E0DF91CF910F91ED
:10365000EF9008952A9A22982898209A60E08DE0A9
:103660000E94212D60E08BE00E94212D61E08DE021
:103670000E94E82C61E08BE00E94E82C8CB5806110
:103680008CBD08958CB580648CBD2A98229A0895CB
:103690000DB407FEFDCF2898209A2A9A22988CB55F
:1036A0008F7B8CBD0895CF93DF9300D0CDB7DEB76D
:1036B0004A8369830E94421B69816EBD0E94AF19D3
:1036C0004A814EBD0F900F90DF91CF910C94481B13
:1036D000CF93DF9300D01F92CDB7DEB72B834A8301
:1036E00069830E94421B69816EBD0E94AF194A81A5
:1036F0004EBD0E94AF192B812EBD0F900F900F90E1
:10370000DF91CF910C94481B0F931F93CF93DF93BE
:10371000EC0140E060E20E94531B2FE740E061E2D1
:10372000CE010E94681B27E040E062E2CE010E94C9
:10373000681B0E94421B289A20981EBC0FEF13E0C2
:103740000E94AF191EBC01501109D1F70E94481BFD
:1037500042E060E2CE01DF91CF911F910F910C9476
:10376000531B613011F40C94841B80E891E0E1E17B
:10377000F1E0DF019C011D9221503040E1F70895F6
:103780000F931F93CF93DF93EC0140E060E20E9420
:10379000531B2FE540E261E2CE010E94681B25E049
:1037A00040E062E2CE010E94681B0E94421B289A00
:1037B0002098809111018EBD02E111E00E94AF19A5
:1037C000F80181918F018EBDF2E001391F07B1F739
:1037D0000E94481B42E060E2CE01DF91CF911F9131
:1037E0000F910C94531B2CB5982F93702C7F922B18
:1037F0009CBD9DB582FB882780F99E7F982B9DBD3F
:103800000895CF93DF93EC0160E00E94F71981E007
:103810008C831D821B861C865F98579A61E084E02A
:103820000E94E82C61E084E00E94212D6AE070E0B3
:1038300080E090E00E944A2C5F9A579865E070E023
:1038400080E090E00E944A2C5F98579A84E00E94A2
:10385000F31B0E942A1B65E070E080E090E00E946C
:103860004A2C5F9A57986AE070E080E090E00E94EE
:103870004A2C4FE268EACE010E94531B44E16DE8F6
:10388000CE010E94531B0E94421B81EA8EBD0E9402
:10389000481B0E94421B88EC8EBD0E94481B4FE8CB
:1038A00061E8CE010E94531B41EF69EDCE010E94F9
:1038B000531B40E46BEDCE010E94531B0E94421B40
:1038C0008FEA8EBD0E94481BCE01DF91CF910C94F0
:1038D000841B109236041092350484EC92E090938D
:1038E0003404809333040895209184043091850436
:1038F00028173907B9F4909142048091430498172E
:1039000089F0E0914204F0E0EC5BFB4F8081209174
:10391000420430E02F5F3F4F2F7333272093420440
:1039200090E008958FEF9FEF08951F93CF93DF935B
:10393000DC015C968D919C915D97009749F481E044
:1039400090E013969C938E93129780E090E03BC09A
:103950005196ED91FC91529750962C915097322FA1
:1039600030951FB75E964C915E9741FB772770F9B3
:1039700041FD6095F8944081772311F0422B01C0FE
:1039800043234083EC012197F1F748E0508160FF29
:1039900002C0522B01C053235083EC012197F1F751
:1039A0006695415099F78081772311F0832301C0F8
:1039B000822B80831FBF5C968D919C915D970197B0
:1039C000F1F781E090E0DF91CF911F910895089584
:1039D00020918404309185042817390781F490914F
:1039E000420480914304981751F0E0914204F0E0C2
:1039F000EC5BFB4F8081992787FD909508958FEFB1
:103A00009FEF089520918404309185042817390789
:103A100071F4809143042091420490E0805C9F4FB8
:103A2000821B910960E470E00E94AE33089580E04B
:103A300090E00895E0918404F0918504E817F90777
:103A400069F4A389B4899C918589809589238C9395
:103A5000109285041092840481E0089580E0089516
:103A6000CF93DF93EC018A8D9B8D892BF1F08091B0
:103A70008404909185048C179D07B9F0009711F08C
:103A80000E941A1D8E8D8E7F8E8F1092430410928D
:103A90004204D0938504C0938404EB89FC8980811F
:103AA0009D89892B808381E001C080E0DF91CF91E7
:103AB00008951F920F920FB60F9211242F933F93E8
:103AC0004F935F936F937F938F939F93AF93BF9326
:103AD000EF93FF93E0918404F0918504309709F40B
:103AE00051C0868DA685B785958581FF04C08C91D0
:103AF000892329F447C08C91892309F043C0A38905
:103B0000B4899C918589809589238C93868997892E
:103B10000197F1F7208D318DA685B785758558E021
:103B200040E0C9010197F1F7842F90E095958795C2
:103B3000482F6C91672309F04068515091F7868DAA
:103B400081FD40958091430490E001968F73992701
:103B500020914204281749F0A0914304B0E0AC5BE7
:103B6000BB4F4C938093430403C0868D8160868F46
:103B7000828D938D0197F1F7A389B4898C919589F2
:103B8000892B8C93FF91EF91BF91AF919F918F9172
:103B90007F916F915F914F913F912F910F900FBE49
:103BA0000F901F9018952CEC32E0FC01318320839C
:103BB0000C941A1D1F93CF93DF93EC01162F6E8D7B
:103BC0006695617081E06827812F0E94212D61E058
:103BD000812F0E94E82C812F90E0FC01EB57F14FE0
:103BE000E491E88BFC01E756F14FE491F0E0EE0F31
:103BF000FF1FE954F14F859194919A8B898BDF9146
:103C0000CF911F9108951F93CF93DF93EC01162F4F
:103C100060E0812F0E94E82C8E8D81FD04C061E060
:103C2000812F0E94212D1C87812F90E0FC01EB57F2
:103C3000F14FE491ED87FC01E756F14FE491F0E09C
:103C4000EE0FFF1FE355F14F859194919F878E876B
:103C5000DF91CF911F910895FF920F931F93CF9300
:103C6000DF93EC01F62E522F1B821A8208EE13E02E
:103C700020E030E00C831D832E833F838CEC92E0A8
:103C8000998388831F8A1E8A198E188E1B8E1A8E1E
:103C90001D8E1C8E8E8D8E7F50FB81F98E8F642F32
:103CA000CE010E94DA1D6F2DCE01DF91CF911F91C1
:103CB0000F91FF900C94031ECF93DF93EC019A01B8
:103CC000AB011B8E1A8E198E188E1F8A1E8A60E019
:103CD00079E08DE390E00E94E433C901243031059E
:103CE00020F0B9016350710902C061E070E07D8F7E
:103CF0006C8FEC85E63108F068C0B9017695679560
:103D00006431710518F06351710902C061E070E01F
:103D10007F8B6E8B069718F0C901059702C081E072
:103D200090E0998F888FC901880F991F820F931F88
:103D300096958795969587958D30910510F00C97FF
:103D400002C081E090E09B8F8A8F20916800E8306C
:103D500050F091E0EE3008F490E081E001C0880F6F
:103D60009A95EAF701C084E0822B809368002C8545
:103D7000283038F02E3040F0263148F48CE690E0C0
:103D800008C08DE690E005C08BE690E002C080E0C0
:103D900090E09C8B8B8B283030F481E001C0880F41
:103DA0002A95EAF70DC0822F90E02E3010F4089784
:103DB00001C00E9791E001C0990F8A95EAF7892F0B
:103DC0008D8B8C8D9D8D0197F1F7CE01DF91CF9179
:103DD0000C94301DDC011C968D919C911D97DC018B
:103DE000ED91FC910680F781E02D0994DC011C9691
:103DF0008D919C911D97DC01ED91FC910480F581E2
:103E0000E02D0994DC011C968D919C911D97DC019D
:103E1000ED91FC910284F385E02D0994DC011C9660
:103E20008D919C911D97DC01ED91FC910084F185B1
:103E3000E02D09942F923F924F925F926F927F9262
:103E40008F929F92AF92BF92CF92DF92EF92FF92AA
:103E50000F931F93CF93DF93CDB7DEB760970FB665
:103E6000F894DEBF0FBECDBF2B013C0169014A3083
:103E700021F5CE0101961C01E12CF12C5AE0852E92
:103E8000912CA12CB12CC301B201A50194010E9477
:103E9000C2339FEFE91AF90A80E3840DEAE02E9F0E
:103EA00080191124F10181931F012115310541056C
:103EB0005105C9F129013A01E6CFFE01319680E0B2
:103EC00090E0B301A2014F705527662777279C0128
:103ED0002F5F3F4F4A3051056105710510F4A0E393
:103EE00001C0A1E44A0F419344E07694679457944B
:103EF00047944A95D1F7411451046104710411F0BB
:103F0000C901DFCFE1E0F0E0EC0FFD1FE20FF31F8E
:103F100048E740837C01F3E0EF0EF11CFE01E80F5F
:103F2000F91F20E3238321E0E21AF108F60180E083
:103F300090E0015011090196A1E0B0E0AC0FBD1F67
:103F4000AE0DBF1D2C9121931E141F04ECF0F60141
:103F5000E80FF91F108260960FB6F894DEBF0FBE0F
:103F6000CDBFDF91CF911F910F91FF90EF90DF9028
:103F7000CF90BF90AF909F908F907F906F905F9009
:103F80004F903F902F90089521E0E21AF10880179A
:103F90009107ECF6D0CFCF92DF92EF92FF920F9382
:103FA0001F93FC0140E060E070E0CB010191002331
:103FB00009F449C020ED200F2A30B0F414E0660F58
:103FC000771F881F991F1A95D1F7605371098109CE
:103FD0009109C02EDD24C7FCD094ED2CFD2C6C0D76
:103FE0007D1D8E1D9F1DE2CF2FE9200F263060F42E
:103FF000B4E0660F771F881F991FBA95D1F76755F0
:104000007109810991090FC02FEB200F2630A8F408
:10401000A4E0660F771F881F991FAA95D1F76753F1
:10402000710981099109112707FD1095212F312F61
:10403000600F711F821F931FB9CF083721F4411100
:1040400002C041E0B3CF1F910F91FF90EF90DF903E
:10405000CF9008950F931F93FC0160E070E0CB01B7
:10406000019120ED200F2A30A0F4AAE0B0E09B01DE
:10407000AC010E940934605371098109910911272B
:1040800007FD1095212F312F600F711F821F931F85
:10409000E7CF1F910F910895DC01A95ABF4F2D91D1
:1040A0003C911197FC01E75AFF4F40815181241741
:1040B000350764F434970190F081E02DA9014F5F3A
:1040C0005F4F4D935C93E20FF31F6083FC01EC5B49
:1040D000FF4F80819181DC01ED91FC910190F08195
:1040E000E02D09948C5B9F4FDC018D919C91DC014C
:1040F000ED91FC910284F385E02D0994DC011C967E
:104100008D919C911D97009739F0DC01ED91FC9108
:104110000190F081E02D099480E090E008952091D5
:10412000970421110CC0FC01EC5BFF4F8081918151
:10413000DC01ED91FC910084F185E02D0994E09182
:104140009804F0E0E656FB4F8081992787FD909513
:104150000895DC01ED91FC910190F081E02D09942E
:104160004F925F926F927F92AF92BF92CF92DF9207
:10417000EF92FF920F931F93CF93DF93EC015B01BC
:104180006A010E941B2C2B013C01E12CF12C8E01B9
:104190000C5B1F4F0E941B2C641975098609970937
:1041A0006C157D058E059F05A0F5D8018D919C911C
:1041B000DC01ED91FC910480F581E02D0995181644
:1041C000190644F7F80180819181DC01ED91FC91A1
:1041D0000680F781E02D0995F5018083DE01A95A5B
:1041E000BF4F2D913C911197FE01E75AFF4F40813F
:1041F0005181241735077CF4CB5ADF4FE881F981D0
:10420000A9014F5F5F4F4D935C93E20FF31F8083D3
:1042100002C080E001C081E0DF91CF911F910F913A
:10422000FF90EF90DF90CF90BF90AF907F906F9016
:104230005F904F900895EF92FF920F931F93CF934B
:10424000DF931F92CDB7DEB78C017B01A701BE01C2
:104250006F5F7F4FC8010E94B0208111F7CF0F9090
:10426000DF91CF911F910F91FF90EF900895FF92F2
:104270000F931F93CF93DF938C0190919704992311
:1042800009F1442321F06F5F7F4F81E001C080E09E
:1042900020919804820FFB01BF01382F321B391780
:1042A000A8F434913323C1F1893010F4A82F01C050
:1042B000A0E031968F5FB0E0A656BB4F4C914317FC
:1042C00059F340C0411102C06F5F7F4FFB01F49072
:1042D000EB0121966091990470E066567B4F44EFA4
:1042E00051E0C8010E94B02080919904E82FF0E0CD
:1042F000E656FB4F2081909197048F5F2F1114C0D9
:104300008830E8F4809399049F5F90939704FE01AE
:10431000F4902196F110DECF109297041092980439
:104320001092990481E00FC0883018F480939904AA
:1043300002C0109299049F5F9093970403C010925B
:104340009904E2CF80E0DF91CF911F910F91FF9010
:104350000895CF93DF93EC01462F65EF7CE00E9438
:104360003721882319F01CAE81E001C080E0DF9185
:10437000CF910895CF93DF93EC0180919704882328
:1043800081F0E091980491E09E0F90939804F0E002
:10439000E656FB4F208130E0983068F11092980487
:1043A0002AC0FE01EC5BFF4F80819181DC01ED9121
:1043B000FC910680F781E02D09959C018CAD882346
:1043C000E9F02A323105D1F460E0CE010E94A92142
:1043D000811116C0E091980481E08E0F80939804BB
:1043E000F0E0E656FB4F208130E0883010F010926C
:1043F000980480919704815080939704C90102C06A
:104400008FEF9FEFDF91CF910895CF93DF93EC0172
:10441000462F6EEE7CE00E943721882319F081E060
:104420008CAF01C080E0DF91CF910895EF92FF92B1
:104430000F931F93CF93DF938C01EC01CC5BDF4F85
:1044400088819981DC01ED91FC910480F581E02D5A
:1044500009957C01181619065CF588819981DC01A3
:10446000ED91FC910084F185E02D09958A9701F585
:10447000F80184AD61E0882331F0C8010E94A921D0
:10448000882321F012C0C8010E94052200919704E0
:1044900010E088819981DC01ED91FC910480F58127
:1044A000E02D0995800F911F09C08FEF9FEF06C087
:1044B00080919704F701E80FF11DCF01DF91CF91B3
:1044C0001F910F91FF90EF900895CB0167E874E082
:1044D0000E94C03621E0892B09F420E0822F089544
:1044E0008F929F92AF92BF92CF92DF92EF92FF9204
:1044F0000F931F93CF93DF931F92CDB7DEB76C015D
:104500007B015A016115710529F1FB018081882326
:1045100009F18B014B01FFEF8F1A9F0AA501BE0124
:104520006F5F7F4FC6010E94B0208823A1F0898170
:10453000F8019081891303C00F5F1F4F07C0F70177
:104540009081891302C0840101C08701F801808134
:104550008111E4CF81E00F90DF91CF911F910F91F6
:10456000FF90EF90DF90CF90BF90AF909F908F9093
:1045700008957F928F929F92AF92BF92CF92DF92D7
:10458000EF92FF920F931F93CF93DF931F92CDB7BC
:10459000DEB76C017B015A01FB0174907720B9F002
:1045A0008B014B01FFEF8F1A9F0AA501BE016F5FC0
:1045B0007F4FC6010E94B0208823C1F029812711B6
:1045C00008C00F5F1F4FF80174907110EECF81E0AB
:1045D0000DC0F7018491332727FD309590E028170F
:1045E000390711F48401EFCF8701EDCF0F90DF91F0
:1045F000CF911F910F91FF90EF90DF90CF90BF90E0
:10460000AF909F908F907F9008954F925F926F929E
:104610007F929F92AF92BF92CF92DF92EF92FF92E2
:104620000F931F93CF93DF931F92CDB7DEB77C011B
:10463000962EA72EB42E69014DB65EB6242F30E01B
:10464000C901880F991F820F931F2DB73EB7281BF2
:10465000390B0FB6F8943EBF0FBE2DBF8DB79EB776
:1046600001963C01E62FF72FDC0120E02B1559F1D4
:104670001C928191919112969C938E9311972F5F2A
:104680001396F4CF1196ED91FC91129744919417E3
:1046900081F1F80160817181FB01449150E02417A0
:1046A000350731F112967C936E9311971196ED9127
:1046B000FC911297E49113960E5F1F4FEE23F9F0D1
:1046C0008F5F8B11DFCFA601BE016F5F7F4FC701E8
:1046D0000E94B020811102C08FEF11C09981292F53
:1046E000332727FD3095092D1A2DD30180E0E9CF1E
:1046F000FB0131961296FC93EE931197D7CF0FB62C
:10470000F8945EBE0FBE4DBE0F90DF91CF911F910A
:104710000F91FF90EF90DF90CF90BF90AF909F9060
:104720007F906F905F904F900895CF93DF93EC014F
:104730008D85882391F064ED7CE0CE010E943330BA
:1047400044EF51E06DEC7CE0CE010E94B922882359
:1047500011F01D8602C080E001C081E0DF91CF91A1
:1047600008955F926F927F928F929F92AF92BF92C5
:10477000CF92DF92EF92FF920F931F93CF93DF932D
:104780001F92CDB7DEB76C017B01390100E010E06C
:104790004A0182E0881A91085A0181E0A81AB108FA
:1047A000A301BE016F5F7F4FC6010E94B020882326
:1047B00009F440C059808DE058122DC0A301BE01FC
:1047C0006F5F7F4FC6010E94B02089818A3041F41B
:1047D000E114F104B9F1F701E00FF11F108232C0CA
:1047E000E114F104C1F00815190564F4F8013196DB
:1047F000D701A00FB11F5C920E5F1F4FEE0DFF1D82
:10480000808309C00A151B0534F4F701E00FF11F7E
:1048100050820F5F1F4F0A151B0514F6E114F104B7
:1048200009F4BECFF701E00FF11F898180830F5F8C
:104830001F4FB6CFE114F10439F0F701E00FF11F7B
:10484000108203C0C80102C080E090E00F90DF91A9
:10485000CF911F910F91FF90EF90DF90CF90BF907D
:10486000AF909F908F907F906F905F900895CF92C0
:10487000DF92EF92FF920F931F93CF93DF931F92DC
:10488000CDB7DEB78C0144EF51E0BE016F5F7F4FC3
:10489000C8010E94B0208823A9F089818C3399F740
:1048A0008093870458E8E52E54E0F52EDD24D39458
:1048B00044EF51E0BE016F5F7F4FC8010E94B020FE
:1048C000811102C080E035C0CC24C394CD0C898115
:1048D000F70181937F018E3339F544EF51E0BE013A
:1048E0006F5F7F4FC8010E94B020882359F38981F0
:1048F000803241F7AC2DB0E0A957BB4F8C93D394D5
:10490000D394ED2DF0E0E957FB4F108281E08093C6
:10491000860424EF31E040E050E060E070E0C80140
:104920000E94B12381E005C0FCE0CF1659F2DC2CD7
:10493000BFCF0F90DF91CF911F910F91FF90EF901C
:10494000DF90CF900895AB0120918604211102C021
:104950000C94372467E874E00C947022FF920F9354
:104960001F93CF93DF93EC018D8581116FC06AEFA8
:1049700070E080E090E00E944A2C6AEE7CE0CE017C
:104980000E9433306AEF70E080E090E00E944A2C91
:1049900044EF51E064EE7CE0CE010E94B922811127
:1049A00016C0FE01EC5BFF4F80819181DC01ED912F
:1049B000FC910190F081E02D6DE0099564EF71E0CC
:1049C000CE010E94A32481113AC015E01EC080913F
:1049D0008604811134C065E0F62E8E010C5B1F4FFA
:1049E000F80180819181DC01ED91FC910190F081D1
:1049F000E02D6DE0099564EF71E0CE010E94A324E3
:104A000081111DC0FA9461F7CCCF6AEF70E080E0AD
:104A100090E00E944A2C60EE7CE0CE010E94333090
:104A20006AEF70E080E090E00E944A2C44EF51E091
:104A30006AED7CE0CE010E94B922882319F081E062
:104A40008D8705C0115009F780E001C081E0DF913A
:104A5000CF911F910F91FF900895CF93DF93EC01B9
:104A60008D85882339F08B899C8901969C8B8B8B53
:104A700081E005C0CE010E94AE248111F4CFDF9108
:104A8000CF910895FC012389348921503109348B59
:104A9000238B232B11F40C94952381E00895CF925E
:104AA000DF92EF92FF920F931F93CF93DF93EC016E
:104AB0008B016A0179010E942D25882351F1000F95
:104AC000111F000F111F0C5F1C4FF80160817181D5
:104AD000CE010E943330F8016281738144EF51E0CE
:104AE000CE010E94B922882389F024EF31E0A7018A
:104AF000B601CE010E94B12364EF71E0CE010E94A5
:104B0000A324CE010E944225C60105C0CE010E9409
:104B1000422588ED92E0DF91CF911F910F91FF9098
:104B2000EF90DF90CF900895EF92FF920F931F9335
:104B3000CF93DF93CDB7DEB760970FB6F894DEBFA3
:104B40000FBECDBF8C010E942D25882309F467C0BC
:104B500065EC7CE0C8010E94333024EF31E040E195
:104B600050E0BE016F5F7F4FC8010E94B1237C01FE
:104B7000BE016F5F7F4FC8010E946522882361F0EC
:104B800024EF31E040E150E0BE016F5F7F4FC8018C
:104B90000E94B1237C0105C064EF71E0C8010E944E
:104BA000A32425E0E216F1041CF4CE01019608C00E
:104BB000C7010497E1E0F0E0EC0FFD1F8E0F9F1F8F
:104BC0000E94CB1FF62EE72E862F8F70F80186AF3E
:104BD000F4FA882780F987AFE05CFF4FF5FA882761
:104BE00080F980833196F6FA882780F980833196A0
:104BF000F7FA882780F980838E2D86958F703196FD
:104C00008083C8010E944225F80186AD813011F4ED
:104C100084AF02C0F80114AE8F2D9E2D02C080E03B
:104C200090E060960FB6F894DEBF0FBECDBFDF9167
:104C3000CF911F910F91FF90EF900895CF93DF9345
:104C4000D62FC72F9A01462F572F60E070E00E94A1
:104C50004F25892B49F0ED2FFC2FDF01819188230F
:104C600029F08A33D1F702C0AD2FBC2F1C928D2FB3
:104C70009C2FDF91CF910895CF93DF93CDB7DEB70F
:104C800066970FB6F894DEBF0FBECDBF26E130E0C9
:104C9000AE014F5F5F4F60E070E00E944F25892BAF
:104CA000C1F080E0E1E0F0E0EC0FFD1FE80FF11D46
:104CB0009081992319F08F5F9A33A1F721E030E0BA
:104CC0002C0F3D1F280F311DC9010E942A20CB0146
:104CD00002C080E090E066960FB6F894DEBF0FBE8B
:104CE000CDBFDF91CF9108959A01AB0163E070E0F1
:104CF0000C944F259A01AB0164E070E00C944F25B1
:104D00001F93CF93DF93CDB7DEB72B970FB6F894F1
:104D1000DEBF0FBECDBF142F2BE030E0AE014F5FE2
:104D20005F4F0E944F25892B51F0CE0101961A301A
:104D300019F40E942A2006C00E94CB1F03C060E025
:104D400070E0CB012B960FB6F894DEBF0FBECDBF3F
:104D5000DF91CF911F910895AF92BF92CF92DF92D2
:104D6000EF92FF920F931F93CF93DF931F92CDB7D4
:104D7000DEB78C017B016A0159010E942D25882331
:104D8000B9F163EA7CE0C8010E943330B701C80181
:104D90000E94643060EE72E0C8010E94643048E80E
:104DA00053E1B701C8010E9470228823C9F044EF83
:104DB00051E0BE016F5F7F4FC8010E94B02024EF19
:104DC00031E0A501B601C8010E94B12364EF71E092
:104DD000C8010E94A324C8010E94422581E009C0A5
:104DE00064EF71E0C8010E94A324C8010E9442251B
:104DF00080E00F90DF91CF911F910F91FF90EF9086
:104E0000DF90CF90BF90AF900895CF93DF93CDB751
:104E1000DEB760970FB6F894DEBF0FBECDBF20E1BE
:104E200030E0AE014F5F5F4F6CE070E00E944F25B5
:104E3000892BE1F143E050E06FE97CE0CE0101967F
:104E40000E947936892B51F142E050E06CE97CE018
:104E5000CE0101960E947936892B11F146E050E08F
:104E600065E97CE0CE0101960E947936892BD1F06C
:104E700045E050E06FE87CE0CE0101960E94793673
:104E8000892B91F046E050E068E87CE0CE01019685
:104E90000E947936892B51F484E009C080E007C074
:104EA00081E005C082E003C083E001C08FEF60961F
:104EB0000FB6F894DEBF0FBECDBFDF91CF9108953E
:104EC000CF92DF92EF92FF920F931F93CF93DF93D6
:104ED00000D000D0CDB7DEB77C018B016A0182E83B
:104EE0009CE09A8389838CE79CE09C838B8324EFEE
:104EF00031E042E0BE016F5F7F4FC7010E94052392
:104F0000813091F0811108C024EF31E0A601B80191
:104F1000C7010E94B12306C0A60162E77CE0C80178
:104F20000E94873680E001C081E00F900F900F90C3
:104F30000F90DF91CF911F910F91FF90EF90DF9035
:104F4000CF900895AF92BF92CF92DF92EF92FF92EF
:104F50000F93CF93DF93CDB7DEB762970FB6F89478
:104F6000DEBF0FBECDBF7C015A016901698B7A8B10
:104F70000E942D2569897A89882309F463C0C701B5
:104F80000E943330C114D10419F160E2C7010E94BC
:104F9000A9200023C1F0570184E5A80EB11CF60139
:104FA00064916623C1F1D701ED91FC910190F081EC
:104FB000E02D603211F4D5016C91C7010995BFEF66
:104FC000CB1ADB0AECCFB601C7010E94333023C0F5
:104FD000A114B10401F160E2C7010E94A9200023DD
:104FE000B1F06701F4E5CF0ED11CF50161915F01CD
:104FF000662389F0D701ED91FC910190F081E02DBD
:10500000603211F4D6016C91C7010995EECFB5015C
:10501000C7010E9464306DE0C7010E94A92040E1F1
:1050200050E0BE016F5F7F4FC7010E946027082FCD
:1050300064EF71E0C7010E94A324C7010E944225CA
:10504000802F01C080E062960FB6F894DEBF0FBEDD
:10505000CDBFDF91CF910F91FF90EF90DF90CF9078
:10506000BF90AF900895CF92DF92EF92FF920F938F
:105070001F93CF93DF93CDB7DEB72B970FB6F8947E
:10508000DEBF0FBECDBF7C016B01CA01B901402F4D
:105090000BE010E09E012F5F3F4F0E941A1F00E0BF
:1050A00020E030E0AE014F5F5F4FB601C7010E94C4
:1050B000A2272B960FB6F894DEBF0FBECDBFDF91AF
:1050C000CF911F910F91FF90EF90DF90CF900895B7
:1050D0001F93CF93DF93EC010E942D258823D9F0F5
:1050E0006CE67CE0CE010E94333044EF51E064E690
:1050F0007CE0CE010E94B922882339F064EF71E090
:10510000CE010E94A32411E001C010E0CE010E9454
:105110004225812F01C080E0DF91CF911F9108953A
:105120000F939B0140E050E00AE064E37CE00E94C2
:1051300033280F9108950F93262F30E040E050E080
:1051400000E162EF7BE00E9433280F9108950C94F8
:105150009B280F93262F30E040E050E000E165EE01
:105160007BE00E9433280F9108950F9300E020E028
:1051700030E040E050E067EC7BE00E94A2270F9116
:1051800008950F93AB0101E020E030E069EB7BE094
:105190000E94A2270F9108950F931F93CF93DF933F
:1051A000EC01AB01FB0181818F7D883511F44E5FED
:1051B0005F4F00E020E030E06CEA7BE0CE010E942F
:1051C000A227182FCE010E94B528812FDF91CF9101
:1051D0001F910F9108950F931F93CF93DF93EC01CD
:1051E000AB0101E020E030E06CE97BE00E94A22707
:1051F000182FCE010E94B528812FDF91CF911F91EA
:105200000F91089540E16BE170E00E948026862FA7
:1052100008950F93CF93DF93EC0119AE18AE188E5B
:1052200000E020E030E040E050E061E27DE00E94FC
:10523000A22720E030E040E050E06EE07DE0CE01CB
:105240000E94A22720E030E040E050E06CEF7CE0DC
:10525000CE010E94A227CE010E949425CE010E9479
:1052600005278B7F91E009F490E09D8BCE010E9491
:105270000229CC5ADF4F8883DF91CF910F91089597
:10528000CF93DF93EC01FC01EC5BFF4F71836083F4
:105290000E94AE24882341F0CE010E940929CE014C
:1052A000DF91CF910C94952380E0DF91CF91089509
:1052B000CF93DF93EC010E942D25882301F16CE54B
:1052C0007CE0CE010E94333044EF51E063E57CE0A6
:1052D000CE010E94B922811104C0CE010E94422554
:1052E0000EC068E873E180E090E00E944A2C1D86C1
:1052F0001C8A1B8ACE010E94092981E001C080E03E
:10530000DF91CF910895CF92DF92EF92FF920F93AA
:105310001F93CF93DF9300D000D0CDB7DEB78C01C1
:105320007B016A0185E99BE09A83898389E89BE098
:105330009C838B83C8010E942D25882309F444C0D7
:1053400063E87BE0C8010E943330E114F10421F0EE
:10535000B701C8010E94643061E87BE0C8010E9487
:105360003330960142E0BE016F5F7F4FC8010E945B
:105370000523F82E64E670E0C8010E941B2181E03D
:10538000F8121FC0F801F7AE8589882361F048E95B
:105390005AE36DE77BE0C8010E94B92264E670E041
:1053A000C8010E941B2124EF31E040E050E060E0A2
:1053B00070E0C8010E94B123C8010E94422581E02B
:1053C00004C0C8010E94422580E00F900F900F900A
:1053D0000F90DF91CF911F910F91FF90EF90DF9091
:1053E000CF9008950F931F93CF93DF93CDB7DEB780
:1053F000C054D1090FB6F894DEBF0FBECDBF8C01EB
:1054000040E450E0BE016F5F7F4F0E947A2640E289
:105410005EE4BE016F5F7F4FC8010E948329C05CBC
:10542000DF4F0FB6F894DEBF0FBECDBFDF91CF9137
:105430001F910F910895CF93DF93EC0166E77BE016
:105440000E94333064E670E0CE010E941B211FAE43
:1054500081E0DF91CF910895AF92BF92CF92DF921A
:10546000EF92FF920F931F93CF93DF93CDB7DEB7E9
:1054700060970FB6F894DEBF0FBECDBF5C016A0126
:105480007B0100E110E09E012F5F3F4F4AE0C70122
:10549000B6010E941A1FC5010E942D2500E020E0E0
:1054A00030E0AE014F5F5F4F6EE67BE0C5010E94CA
:1054B000A227882351F0C5010E944225F501C78625
:1054C000D08AE18AF28A81E004C0C5010E944225A7
:1054D00080E060960FB6F894DEBF0FBECDBFDF91BF
:1054E000CF911F910F91FF90EF90DF90CF90BF90E1
:1054F000AF900895CF93DF93EC01E881F9810480A8
:10550000F581E02D09958CADDF91CF910895CF9372
:10551000DF93EC018CAD882361F164EF71E0CE0183
:105520000E941B21CE010E942D256BE47BE0CE0161
:105530000E94333044EF51E064E47BE0CE010E94EE
:10554000B922882329F0CE010E9442251CAE11C049
:105550006BE27BE0CE018A5B9F4F0E947130CE01EF
:105560000E949425CE010E9442258CAD91E08927AE
:1055700001C081E0DF91CF910895BF92CF92DF9279
:10558000EF92FF920F931F93CF93DF93CDB7DEB7C8
:1055900065970FB6F894DEBF0FBECDBF7C016B01DF
:1055A0008A01B22EFC0185AD811168C0C7010E943D
:1055B0002D25F70184AD882319F0C7010E94872AA1
:1055C000B80180E090E004E110E09E012F5F3F4FC2
:1055D0004AE00E941A1F68E67BE0C7010E94333050
:1055E000B601C7010E94643062EE72E0C7010E94FA
:1055F0006430BE016F5F7F4FC7010E94643066E672
:105600007BE0C7010E94333064EF71E0C7010E9464
:10561000A324811101C0FFCFB11004C081E0F701C4
:1056200085AF2DC040E157E2BE016B5E7F4FC701E1
:105630000E94B0208823F9F08D898A3271F083347A
:1056400089F7898324EF31E043E150E0BE016E5FCA
:105650007F4FC7010E94B1230EC044EF51E060E6C6
:105660007BE0C7010E94B922882329F081E0F7017D
:1056700084AF158604C0C7010E94422580E065966C
:105680000FB6F894DEBF0FBECDBFDF91CF911F9153
:105690000F91FF90EF90DF90CF90BF900895CF9340
:1056A000DF93EC0164EF71E00E941B21CE010E94A8
:1056B0002D2564E27BE0CE010E94333044EF51E0BF
:1056C0006DE17BE0CE010E94B922882331F0CE014A
:1056D0000E9442251CAE81E00BC0CE010E944225F3
:1056E00064E07BE0CE018A5B9F4F0E94713080E0D6
:1056F000DF91CF910895FC011382128248EE53E0AE
:1057000060E070E0448355836683778388EF92E09E
:1057100091838083158614860895CF93DF93EC01DF
:105720001B821A8248EE53E060E070E04C835D8398
:105730006E837F8388EE92E099838883CE018A5BB3
:105740009F4F0E947B2B1D861E861C8A1B8A1CAEC7
:105750001DAE81E08D8B8E8BFE01EB5AFF4F1182C7
:105760001082329611821082C75ADF4F1982188236
:10577000DF91CF9108950F9300E020E040E060E0DA
:1057800082EA94E00E94DA2F0F9108950F9300E0CF
:1057900020E040E060E088EA94E00E94DA2F0F9178
:1057A00008951F920F920FB60F9211242F933F93DB
:1057B0008F939F93AF93BF938091AF049091B00468
:1057C000A091B104B091B2043091AE0423E0230F54
:1057D0002D3720F40196A11DB11D05C026E8230F29
:1057E0000296A11DB11D2093AE048093AF04909347
:1057F000B004A093B104B093B2048091B30490912B
:10580000B404A091B504B091B6040196A11DB11DD8
:105810008093B3049093B404A093B504B093B604FA
:10582000BF91AF919F918F913F912F910F900FBE9C
:105830000F901F9018952FB7F8946091AF04709156
:10584000B0048091B1049091B2042FBF08953FB786
:10585000F8948091B3049091B404A091B504B091F0
:10586000B60426B5A89B05C02F3F19F00196A11DCF
:10587000B11D3FBF6627782F892F9A2F620F711DA8
:10588000811D911D42E0660F771F881F991F4A9561
:10589000D1F708958F929F92AF92BF92CF92DF92ED
:1058A000EF92FF926B017C010E94272C4B015C015F
:1058B000C114D104E104F104F1F00E9499330E9473
:1058C000272C681979098A099B09683E734081056C
:1058D000910570F321E0C21AD108E108F10888EEC1
:1058E000880E83E0981EA11CB11CC114D104E104F0
:1058F000F10429F7DDCFFF90EF90DF90CF90BF90BC
:10590000AF909F908F900895789484B5826084BD05
:1059100084B5816084BD85B5826085BD85B58160B3
:1059200085BDEEE6F0E0808181608083E1E8F0E013
:105930001082808182608083808181608083E0E842
:10594000F0E0808181608083E1EBF0E08081846021
:105950008083E0EBF0E0808181608083EAE7F0E023
:105960008081846080838081826080838081816087
:1059700080838081806880831092C1000895833085
:1059800081F028F4813099F08230A1F008958730B9
:10599000A9F08830B9F08430D1F4809180008F7DF7
:1059A00003C0809180008F7780938000089584B534
:1059B0008F7702C084B58F7D84BD08958091B0003B
:1059C0008F7703C08091B0008F7D8093B0000895E1
:1059D000CF93DF9390E0FC01EB57F14F2491FC0152
:1059E000E756F14F8491882349F190E0880F991F81
:1059F000FC01EF53F14FA591B4918954914FFC01F3
:105A0000C591D4919FB7611108C0F8948C912095ED
:105A100082238C93888182230AC0623051F4F894E7
:105A20008C91322F309583238C938881822B8883AD
:105A300004C0F8948C91822B8C939FBFDF91CF91FF
:105A400008950F931F93CF93DF931F92CDB7DEB7C7
:105A5000282F30E0F901EF58F14F8491F901EB570D
:105A6000F14F1491F901E756F14F04910023C9F069
:105A7000882321F069830E94BF2C6981E02FF0E028
:105A8000EE0FFF1FE954F14FA591B4919FB7F89421
:105A90008C91611103C01095812301C0812B8C93DF
:105AA0009FBF0F90DF91CF911F910F910895CF93DA
:105AB000DF93282F30E0F901EF58F14F8491F9017D
:105AC000EB57F14FD491F901E756F14FC491CC2334
:105AD00091F081110E94BF2CEC2FF0E0EE0FFF1F20
