:100000000C947C070C94A4070C94A4070C946C1D0E
:100010000C946C1D0C946C1D0C94A4070C94A407F8
:100020000C94A4070C94A4070C94A4070C94A407A4
:100030000C94A4070C94A4070C94A4070C94A40794
:100040000C94E42B0C94A4070C94062F0C94382FDA
:100050000C94A4070C94A4070C94A4070C94A40774
:100060000C94A4070C94A4074175746F73746172A7
:10007000743A20003A000A0D5265626F6F74696E1F
:100080006720576946692E2E2E000A0D5265626F51
:100090006F74204D6963726F56696577202620570B
:1000A00069466920746F20736574206E65772070CF
:1000B0006F72742E0045736361706521000D0A50E4
:1000C0007265737320616E79206B657920746F207F
:1000D00063616E63656C2E2E2E004175746F2D6307
:1000E0006F6E6E656374696E6720746F3A0D0A00F7
:1000F000576966693A256C640A0A4336343A202502
:100100006C6400576966693A256C640A0A433634A0
:100110003A20256C640A0A5254533A20256C640034
:100120002A2A2A205465726D696E616C204D6F64B5
:10013000652028446562756729202A2A2A00436FB2
:100140006E6E656374696F6E20636C6F73656400B7
:10015000436F6E6E656374204661696C656421004F
:10016000436F6E6E656374656420746F2025730041
:10017000436F756C64206E6F74207265736F6C765C
:100180006520444E532E2020436F6E6E65637420AD
:100190004661696C656421000D0A436F6E6E65638C
:1001A00074696E6720746F20257300712D6C696E01
:1001B0006B2E6E6574003535353132313300716C1C
:1001C000696E6B2E6C796F6E6C6162732E6F7267E5
:1001D000003535353132313200293A20000D0A50D0
:1001E0006F7274202800293A20000D0A54656C6E45
:1001F000657420686F7374202800434F4E4E45434A
:1002000054494E472E2E2E00496E636F6D696E67FE
:1002100020436F6E6E656374696F6E0043616E6339
:10022000656C6C6564000D0A57616974696E6720BE
:10023000666F7220636F6E6E656374696F6E206F98
:100240006E20706F72742000293A20000D0A496EEA
:10025000636F6D696E6720706F727420280053534E
:1002600049440A0A25730049502041646472657349
:1002700073200A2573004261756420526174650A17
:100280000A2575004669726D776172650A0A2573E1
:10029000004C697374656E20706F72743A2000466A
:1002A00069726D776172653A202020200057692DB0
:1002B000466920535349443A202000495020416464
:1002C00064726573733A2020004D41432041646499
:1002D000726573733A2000202844656C20746F2087
:1002E00073776974636829004153434949204D6F0E
:1002F0006465000D0A456E747279202320746F20A6
:1003000073657420746F206175746F2D73746172DE
:10031000743F0D0A283020746F2064697361626C29
:1003200065293A20000D0A41726520796F752073A6
:100330007572652028792F6E293F20000D0A456EC1
:1003400074657220616464726573733A20000D0AEB
:10035000456E747279202320746F206D6F64696616
:10036000793F20283020746F2061626F7274293ABF
:1003700020000D0A53656C6563743A20232C206DB0
:1003800020746F206D6F646966792C206320746F10
:1003900020636C65617220616C6C0D0A6120746F62
:1003A00020736574206175746F2D73746172742C81
:1003B000203020746F20676F206261636B3A2000E9
:1003C0000D0A4572726F72206A6F696E696E6720DE
:1003D0006E6574776F726B000D0A53534944205356
:1003E00075636365737366756C6C79206368616EA1
:1003F00067656400535349443A00506173737068F1
:10040000726173653A004B65793A00556E6B6E6F99
:10041000776E206F7074696F6E2C20747279206112
:100420006761696E000D0A4368616E67652053530A
:1004300049440D0A0D0A312E205745500D0A322E1F
:1004400020575041202F20575041320D0A332E2083
:1004500052657475726E20746F20436F6E666967A3
:1004600075726174696F6E204D656E750D0A0D0AA7
:1004700053656C6563743A2000556E6B6E6F776ED2
:10048000206F7074696F6E2C2074727920616761BF
:10049000696E00352E20446972656374205465725C
:1004A0006D696E616C204D6F6465202844656275CE
:1004B00067290D0A362E2052657475726E20746F8E
:1004C000204D61696E204D656E750D0A0D0A5365EC
:1004D0006C6563743A2000342E2025732044434415
:1004E00020616C77617973206F6E00332E20257345
:1004F00020666C6F7720636F6E74726F6C000D0AEC
:10050000436F6E66696775726174696F6E204D65C1
:100510006E750D0A0D0A312E20446973706C617975
:100520002043757272656E7420436F6E66696775DD
:10053000726174696F6E0D0A322E204368616E67B6
:100540006520535349440D0A00556E6B6E6F776EEC
:10055000206F7074696F6E2C2074727920616761EE
:10056000696E00312E2054656C6E657420746F20A6
:10057000686F7374206F72204242530D0A322E202E
:1005800050686F6E6520426F6F6B0D0A332E2057D7
:1005900061697420666F7220696E636F6D696E6742
:1005A00020636F6E6E656374696F6E0D0A342E2062
:1005B000436F6E66696775726174696F6E0D0A0DBF
:1005C0000A53656C6563743A200052454144592EC4
:1005D000000D0A436F6D6D6F646F72652057692D52
:1005E0004669204D6F64656D0057692D4669204648
:1005F00061696C6564210057692D4669204F4B2164
:100600000057692D466920496E69742E2E2E0025EB
:100610006C6400426175640A446574656374696F53
:100620006E00050800FF0C4B00000000003E5B4F11
:100630005B3E3E6B4F6B3E1C3E7C3E1C183C7E3C42
:10064000181C577D571C1C5E7F5E1C00183C180050
:10065000FFE7C3E7FF0018241800FFE7DBE7FF30E0
:10066000483A060E2629792926407F050507407F4E
:1006700005253F5A3CE73C5A7F3E1C1C08081C1CC1
:100680003E7F14227F22145F5F005F5F06097F01B7
:100690007F006689956A606060606094A2FFA294A2
:1006A00008047E040810207E201008082A1C080870
:1006B0001C2A08081E101010100C1E0C1E0C3038BE
:1006C0003E3830060E3E0E06000000000000005FBF
:1006D00000000007000700147F147F14242A7F2ADB
:1006E000122313086462364956205000080703009D
:1006F000001C2241000041221C002A1C7F1C2A08E9
:10070000083E08080080703000080808080800004B
:1007100060600020100804023E5149453E00427FBF
:10072000400072494949462141494D331814127F0E
:100730001027454545393C4A4949314121110907AE
:100740003649494936464949291E0000140000002F
:100750004034000000081422411414141414004101
:1007600022140802015909063E415D594E7C1211BE
:10077000127C7F494949363E414141227F414141F6
:100780003E7F494949417F090909013E4141517371
:100790007F0808087F00417F41002040413F017FE2
:1007A000081422417F404040407F021C027F7F04AA
:1007B00008107F3E4141413E7F090909063E4151F3
:1007C000215E7F09192946264949493203017F01E3
:1007D000033F4040403F1F2040201F3F4038403FE4
:1007E000631408146303047804036159494D4300FA
:1007F0007F4141410204081020004141417F040231
:1008000001020440404040400003070800205454C7
:1008100078407F28444438384444442838444428A5
:100820007F385454541800087E090218A4A49C78F8
:100830007F0804047800447D40002040403D007F54
:100840001028440000417F40007C047804787C0834
:100850000404783844444438FC1824241818242408
:1008600018FC7C08040408485454542404043F44ED
:10087000243C4040207C1C2040201C3C4030403C1C
:1008800044281028444C9090907C4464544C44007C
:1008900008364100000077000000413608000201E0
:1008A0000204023C2623263C1EA1A161123A4040CC
:1008B000207A38545455592155557941215454784A
:1008C00041215554784020545579400C1E527212E3
:1008D000395555555939545454593955545458006B
:1008E00000457C410002457D420001457C40F029E5
:1008F0002429F0F0282528F07C5455450020545434
:100900007C547C0A097F4932494949323248484877
:1009100032324A4848303A4141217A3A42402078BE
:10092000009DA0A07D39444444393D4040403D3CB9
:1009300024FF2424487E4943662B2FFC2F2BFF09DC
:1009400029F620C0887E09032054547941000044D0
:100950007D413048484A32384040227A007A0A0ABB
:10096000727D0D19317D2629292F2826292929262E
:1009700030484D4020380808080808080808382F73
:1009800010C8ACBA2F102834FA00007B00000814FD
:100990002A142222142A1408AA005500AAAA55AA29
:1009A00055AA000000FF00101010FF00141414FFDF
:1009B000001010FF00FF1010F010F0141414FC00D1
:1009C0001414F700FF0000FF00FF1414F404FC14DB
:1009D0001417101F10101F101F1414141F001010D4
:1009E00010F0000000001F101010101F1010101049
:1009F000F010000000FF101010101010101010FF69
:100A000010000000FF140000FF00FF00001F10177F
:100A10000000FC04F414141710171414F404F40068
:100A200000FF00F714141414141414F700F714142E
:100A300014171410101F101F141414F4141010F0B5
:100A400010F000001F101F0000001F14000000FC29
:100A5000140000F010F01010FF10FF141414FF1415
:100A60001010101F00000000F010FFFFFFFFFFF04C
:100A7000F0F0F0F0FFFFFF0000000000FFFF0F0F9D
:100A80000F0F0F38444438447C2A2A3E147E020259
:100A90000606027E027E0263554941633844443CA7
:100AA00004407E201E2006027E020299A5E7A59939
:100AB0001C2A492A1C4C7201724C304A4D4D303070
:100AC00048784830BC625A463D3E494949007E015B
:100AD00001017E2A2A2A2A2A44445F444440514A7A
:100AE000444040444A51400000FF0103E080FF00C1
:100AF0000008086B6B083612362436060F090F06FD
:100B0000000018180000001010003040FF01010024
:100B10001F01011E00191D1712003C3C3C3C000047
:100B2000000000636C6F73653A206661696C6564F0
:100B30002C206E6F202A434C4F532A002A434C4FDF
:100B4000532A00636C6F73650D00636C6F73653AB5
:100B5000206661696C65642C206E6F202A434C4FBF
:100B6000532A002A434C4F532A00636C6F73650D60
:100B7000004F50454E2A00302E302E302E30004F80
:100B800050454E2A000D006F70656E20007365742D
:100B900020752069006C656176650D0047573D0042
:100BA0000D006A6F696E20004173736F6369617431
:100BB000656421004641494C4544007365742077C3
:100BC0006C616E2070687261736500736574207764
:100BD0006C616E206B65790073657420776C616E53
:100BE00020737369640073657420776C616E20688C
:100BF0006964652031007365742075617274206DBD
:100C00006F64650073657420697020666C6167733A
:100C1000007365742069702070726F746F636F6CFD
:100C20000073657420697020646863700073657474
:100C30002069702072656D6F74650073657420693A
:100C40007020686F73740073657420697020686F1A
:100C5000737400736574206970206C6F63616C70CD
:100C60006F72740073657420776C616E206A6F69AF
:100C70006E002A5265626F6F742A007265626F6F30
:100C8000740D0053746F72696E6700736176650D41
:100C9000003C74696D656F75743E00414F4B0D0AE1
:100CA000004552523A2000534552564552004341A6
:100CB000434845004155544F4950004F4E004F4660
:100CC00046006C6F6F6B7570200047573D000D003C
:100CD000736C6565700D007365742073797320778C
:100CE000616B650073686F7720630D004558495448
:100CF0000D0A00657869740D00434D440D0A002407
:100D0000242400434D440D0A00242424002A4F507B
:100D1000454E2A002A434C4F532A007365742063C2
:100D20006F6D6D2072656D6F746520300073657432
:100D300020737973207072696E746C766C20300049
:100D40007365742075206D2031005265706C61638D
:100D5000653D005478506F7765723D00526174654F
:100D60003D004A6F696E3D005265626F6F743D00D1
:100D700050726F62653D00426561636F6E3D006752
:100D80006574206164686F630D0050524F544F3D8D
:100D900000464C4147533D307800525353493D285B
:100DA0002D0073686F7720727373690D00466C7540
:100DB000736853697A653D004D6174636843686187
:100DC000723D00466C75736854696D65723D0067CD
:100DD000657420636F6D6D0D004D6F64653D00524D
:100DE00054433D0073686F77207420740D00416494
:100DF00064726573733D0067657420646E730D00E3
:100E000054696D653D00557054696D653D007368AA
:100E10006F772074696D650D005A6F6E653D0067D0
:100E200065742074696D650D00426175647261744A
:100E3000653D0067657420750D00446576696365DE
:100E400049643D00676574206F70740D0053534909
:100E5000443D0067657420776C616E0D004D6163E1
:100E600020416464723D00676574206D61630D000C
:100E7000444843503D00484F53543D0047573D00C0
:100E80004E4D3D0049503D006765742069700D006E
:100E90000000000800020100000304070000000039
:100EA0000000000001020408102040800102040834
:100EB00010200102040810200404040404040404A3
:100EC0000202020202020303030303030000000004
:100ED00023002600290000000000250028002B0028
:100EE00000000000240027002A00E80C6E1CCE2B16
:100EF000D92B5E2FE72F1D0D11241FBECFEFD8E099
:100F0000DEBFCDBF13E0A0E0B1E0EAEEF4E702C03F
:100F100005900D92AA39B107D9F725E0AAE9B3E007
:100F200001C01D92AC35B207E1F71EE0C6EFDEE06E
:100F300004C02297FE010E945334CA3ED107C9F76C
:100F40000E94F1160C94683A0C940000CF92DF9244
:100F5000EF92FF920F931F93E82FF92F05C00150D6
:100F600011092109310961F1908196239417B9F390
:100F700005C0015011092109310911F19081962311
:100F80009413F7CFC12CD12CE12CF12C0AC08FEF98
:100F9000C81AD80AE80AF80A0C151D052E053F05DF
:100FA00079F080818623841791F36C2D7D2D8E2D11
:100FB0009F2D1F910F91FF90EF90DF90CF9008959C
:100FC00060E070E080E090E01F910F91FF90EF9063
:100FD000DF90CF9008950C94723941E026B125FB43
:100FE000882780F990E020910701242730E08217BC
:100FF000930739F42091B0002F7D2093B0005B9AC5
:10100000EDCF8091B0008F7D8093B0005B98089504
:10101000CF93DF93EC0160E081E394E00E94B61B84
:1010200040E060E081E394E00E94B819BE0181E3F2
:1010300094E00E94843081E394E0DF91CF910C949E
:10104000C51BCF93DF93EC0160E081E394E00E9445
:10105000B61B40E060E081E394E00E94B819BE0155
:1010600081E394E00E94963081E394E0DF91CF9198
:101070000C94C51BCF93DF9300D000D000D0CDB728
:10108000DEB720919A03222399F0FC0160817181DF
:10109000CE0101960E948C19BE016F5F7F4F8CE0DC
:1010A00094E00E945730CE0101960E94BC3105C0E9
:1010B000BC018CE094E00E94573026960FB6F8945D
:1010C000DEBF0FBECDBFDF91CF910895CF93DF93E9
:1010D00000D000D000D0CDB7DEB7BC01CE01019664
:1010E0000E94AE32CE0101960E943A08CE010196CE
:1010F0000E94BC318CE094E00E946E3026960FB6C0
:10110000F894DEBF0FBECDBFDF91CF9108950F934E
:101110001F93CF93DF9300D000D000D0CDB7DEB7C0
:101120008C01BC01CE0101960E94AE32CE01019627
:101130000E946608CE0101960E94BC314AE060E23E
:10114000C8010E946F33B801CE0101960E94AE32F1
:10115000CE0101960E940808CE0101960E94BC3182
:1011600026960FB6F894DEBF0FBECDBFDF91CF91AC
:101170001F910F910895CF93DF9300D000D000D03E
:10118000CDB7DEB7BC0180919A03882381F0CE01F0
:1011900001960E948C19BE016F5F7F4F8CE094E036
:1011A0000E945730CE0101960E94BC3104C08CE0F1
:1011B00094E00E94653026960FB6F894DEBF0FBE0D
:1011C000CDBFDF91CF9108950E94BB088CE094E0E1
:1011D0000C946E30CF93DF9300D000D000D0CDB709
:1011E000DEB7BC01CE0101960E942A3289819A8124
:1011F0000E94E4084AE060E2CE0101960E946F334B
:1012000089819A810E942108CE0101960E94BC31F9
:1012100026960FB6F894DEBF0FBECDBFDF91CF91FB
:1012200008958CE094E00C946E30CF93DF93CDB7AB
:10123000DEB767970FB6F894DEBF0FBECDBF0E9432
:10124000110980919A03882389F087E1E2E9F2E0AD
:10125000DE01119601900D928A95E1F7BE016F5F54
:101260007F4F8CE094E00E94653006C068EE72E02B
:101270008CE094E00E94343067ED72E0CE0101967C
:101280000E94E432CE0101960E946608CE010196CA
:101290000E94BC310E94110967960FB6F894DEBF18
:1012A0000FBECDBFDF91CF910895883041F08431DA
:1012B00031F091E08F3709F090E0892F089581E0B7
:1012C0000895BF92CF92DF92EF92FF920F931F93F8
:1012D000CF93DF93CDB7DEB7CA56D1090FB6F894D6
:1012E000DEBF0FBECDBFB82E0E94110981EB93E087
:1012F0000E944F2644E150E0BE016F5A7F4F81EBC0
:1013000093E00E9487266E018DE3C80ED11C44E154
:1013100050E0B60181EB93E00E9431267E0199E214
:10132000E90EF11C44E150E0B70181EB93E00E942B
:101330008D2681EB93E00E944F2690939E0380932D
:101340009D0369EC72E08E010F5F1F4FC8010E9480
:10135000E432C8010E943A08C8010E94BC31BE01B3
:101360006F5A7F4FC8010E942A32C8010E94660846
:10137000C8010E94BC316BEB72E0C8010E94E432EC
:10138000C8010E943A08C8010E94BC31B601C801D8
:101390000E942A32C8010E946608C8010E94BC311E
:1013A0006DEA72E0C8010E94E432C8010E943A0866
:1013B000C8010E94BC31B701C8010E942A32C8018D
:1013C0000E946608C8010E94BC316FE972E0C80142
:1013D0000E94E432C8010E943A08C8010E94BC3150
:1013E0006BEA72E0C8010E942A32C8010E946608B6
:1013F000C8010E94BC3161E972E0C8010E94E43278
:10140000C8010E943A08C8010E94BC3160919D0346
:1014100070919E034AE050E08CE094E00E945D31C0
:101420008CE094E00E946E30BB2009F48BC08BEA04
:1014300092E09F938F9384E892E09F938F931F9302
:101440000F930E947E37B801CE018B599F4F0E94A7
:101450002A32CE018B599F4F0E940808CE018B592A
:101460009F4F0E94BC3168EE73E080E090E00E94E4
:101470005D2C80910F018F9380910E018F9386E7F1
:1014800092E09F938F931F930F930E947E37B80132
:10149000CE018B599F4F0E942A32CE018B599F4F0C
:1014A0000E940808CE018B599F4F0E94BC3168EE04
:1014B00073E080E090E00E945D2CDF92CF9287E69F
:1014C00092E09F938F931F930F930E947E37B801F2
:1014D000CE018B599F4F0E942A32CE018B599F4FCC
:1014E0000E940808CE018B599F4F0E94BC3168EEC4
:1014F00073E080E090E00E945D2CFF92EF928EE519
:1015000092E09F938F931F930F930E947E37B801B1
:10151000CE018B599F4F0E942A32CE018B599F4F8B
:101520000E940808CE018B599F4F0E94BC3168EE83
:1015300073E080E090E00E945D2C0FB6F894DEBF6F
:101540000FBECDBFC659DF4F0FB6F894DEBF0FBE3A
:10155000CDBFDF91CF911F910F91FF90EF90DF9062
:10156000CF90BF900895CF938091A103882381F0FD
:10157000C1E04A9B07C0609107016C278FE00E9481
:10158000222DF7CF609107018FE0CF910C94222D8F
:10159000CF910895CF93DF93EC01E881F981048026
:1015A000F581E02DCE010995892BB9F3E881F98108
:1015B0000680F781E02DCE01DF91CF9109948F92C3
:1015C0009F92AF92BF92CF92DF92EF92FF92CF9312
:1015D000DF93EC014B010E942E2C6B017C01A12CAE
:1015E000B12CE881F9810480F581E02DCE010995C7
:1015F000892BC1F40E942E2C6C197D098E099F093C
:1016000086169706A806B90660F78FEF9FEFDF9161
:10161000CF91FF90EF90DF90CF90BF90AF909F90D1
:101620008F900895E881F9810084F185E02DCE0145
:10163000DF91CF91FF90EF90DF90CF90BF90AF9070
:101640009F908F900994CF92DF92EF92FF92CF9369
:10165000C82F0E942E2C6B017C010E942E2C685BEF
:101660007B40810991096C157D058E059F0508F465
:101670004BC08C2F0E94582D892B79F720E432E43F
:101680004FE050E060E08C2F0E94812D6D3171059C
:101690008105910504F16C3371058105910504F113
:1016A000663971058105910504F16C3221E07207FC
:1016B00081059105FCF0683522E0720781059105EE
:1016C000F4F0603B744081059105F4F460EB74E044
:1016D00080E090E01CC060E076E980E090E017C018
:1016E00060E07BE480E090E012C060E875E280E0BA
:1016F00090E00DC060EC72E180E090E008C060E630
:1017000079E080E090E003C060E070E0CB01CF9131
:10171000FF90EF90DF90CF9008950F931F93CF939A
:10172000DF931F92CDB7DEB78C0169830E94EB0770
:101730006981861741F0C8010F90DF91CF911F9109
:101740000F910C947A390F90DF91CF911F910F91E7
:10175000089580939A03682F80E090E00C948D0B9D
:10176000EF92FF920F931F93CF93DF937C018B0136
:10177000C0E0D0E0D801ED91FC91EC0FFD1F60813D
:10178000CE018E0D9F1D0E947A392196C632D10559
:1017900089F7DF91CF911F910F91FF90EF900895FE
:1017A000AF92BF92CF92DF92EF92FF920F931F936F
:1017B000CF93DF93CDB7DEB7A8970FB6F894DEBF0F
:1017C0000FBECDBF6C017B018E010F5F1F4F5E010D
:1017D00087E2A80EB11CB801E01AF10AC701800F18
:1017E000911F6FA378A70E94EB07F80181938F01E7
:1017F0006FA178A5EA15FB0589F7C6010E942A3278
:10180000C601A8960FB6F894DEBF0FBECDBFDF911C
:10181000CF911F910F91FF90EF90DF90CF90BF90ED
:10182000AF900895FC012191222331F0DC012C932B
:101830002032C9F30196F7CFFC0110820895EF9290
:10184000FF920F931F93CF93DF9300D000D000D06F
:10185000CDB7DEB784E6E82EF12C00E010E00F5F94
:101860001F4F4AE050E0B8018CE094E00E945D31E7
:1018700064E770E0CE0101960E94E432CE01019649
:101880000E943A08CE0101960E94BC31B701CE01F8
:1018900001960E94D00BCE0101960E946608CE01EF
:1018A00001960E94BC3188E2E80EF11C0930110556
:1018B000B1F60E94110968E670E0CE0101960E941F
:1018C000E432CE0101960E943A08CE0101960E94B0
:1018D000BC3183E690E00E94EB074AE050E0682FBD
:1018E0008CE094E00E948A310E94110926960FB67E
:1018F000F894DEBF0FBECDBFDF91CF911F910F9146
:10190000FF90EF90089567E181EB93E00E94BC287F
:1019100062E081EB93E00C94BA280F931F93CF936E
:10192000DF9300D000D000D0CDB7DEB78C0180911E
:101930009D0390919E0380179107F1F1B80181EB0F
:1019400093E00E94A32881EB93E00E947B281093F0
:101950009E0300939D0380910C0190910D018036B0
:10196000994081F06AE870E0CE0101960E94E4326D
:10197000CE0101960E946608CE0101960E94BC31FC
:1019800081E01BC066E770E0CE0101960E94E43260
:10199000CE0101960E946608CE0101960E94BC31DC
:1019A00081EB93E00E946B2968E873E180E090E0AE
:1019B0000E945D2C0E94830C80E026960FB6F8945E
:1019C000DEBF0FBECDBFDF91CF911F910F91089564
:1019D0000F9300E020E040E060E08BE294E00E94A2
:1019E000DB2F20E046E065E08CE094E00E943F1EA3
:1019F00081EB93E00E94A02B6BE873E08BEA93E00D
:101A00000E942A3241E020910E0130910F01809115
:101A10000C0190910D012817390709F440E040931B
:101A2000A20380E090E00E94EB0791E0811101C0E9
:101A300090E090939A030F9108958BEA93E00E94AF
:101A4000BC318CE094E00C94E61DDF92EF92FF92A3
:101A50000F931F93CF93DF93CDB7DEB7E2970FB607
:101A6000F894DEBF0FBECDBF7C0100E010E08CE03B
:101A700094E00E94CA0AD82E0E945509811115C00F
:101A8000E1E0F0E0EC0FFD1FE00FF11FD0826D2DC3
:101A90008CE094E00E949A1C8DE0D81689F0013306
:101AA000110574F40F5F1F4FE2CF01151105F9F214
:101AB0006D2D8CE094E00E949A1C01501109D7CF43
:101AC000E1E0F0E0EC0FFD1FE00FF11F1082BE011E
:101AD0006F5F7F4FC7010E942A32C701E2960FB69F
:101AE000F894DEBF0FBECDBFDF91CF911F910F9154
:101AF000FF90EF90DF9008950F931F93CF93DF93A4
:101B000000D000D000D0CDB7DEB78C01CE01019659
:101B10000E94250DCE0101960E947D3380919A038B
:101B2000882331F069817A81C8010E94421906C078
:101B3000BE016F5F7F4FC8010E949731CE010196B1
:101B40000E94BC31C80126960FB6F894DEBF0FBEC6
:101B5000CDBFDF91CF911F910F9108950F931F93E8
:101B6000CF93DF93CDB7DEB72C970FB6F894DEBFD7
:101B70000FBECDBF65E274E0CE0101960E94E43253
:101B8000CE0101960E943A08CE0101960E94BC3116
:101B90008CE094E00E94CA0A8C01682F8CE094E0EB
:101BA0000E94A83004311105E1F05CF40A301105FF
:101BB00009F30D301105F1F208301105B1F480E0A0
:101BC00011C001331105F1F024F40032110591F236
:101BD0000CC002331105C9F00333110509F4C4C068
:101BE00004C081E00E94A90BC5CF6BE074E0CE0178
:101BF00001960E94E432CE0101960E946608CE0151
:101C00000196AFC001E010E002C000E010E00E94C9
:101C100011096BE873E0CE0107960E942A32013069
:101C2000110521F566E074E0CE0101960E94E432D0
:101C3000CE0101960E943A08CE0101960E94BC3165
:101C4000CE0101960E947C0DBE016F5F7F4FCE01D9
:101C500007960E94B732CE0101960E94BC316F8177
:101C6000788581EB93E00E94DF2823C06AEF73E060
:101C7000CE0101960E94E432CE0101960E943A08FC
:101C8000CE0101960E94BC31CE0101960E947C0DCE
:101C9000BE016F5F7F4FCE0107960E94B732CE0123
:101CA00001960E94BC316F81788581EB93E00E94A0
:101CB000FE280E94110964EF73E0CE0101960E9494
:101CC000E432CE0101960E943A08CE0101960E94AC
:101CD000BC31CE0101960E947C0DBE016F5F7F4F2B
:101CE000CE0107960E94B732CE0101960E94BC3108
:101CF0006F81788581EB93E00E94D42881EB93E09B
:101D00000E947B2881EB93E00E942E2A60E27EE411
:101D100081EB93E00E94052A882399F068ED73E037
:101D2000CE0101960E94E432CE0101960E9466081F
:101D3000CE0101960E94BC31CE0107960E94BC31B3
:101D400013C060EC73E0CE0101960E94E432CE0134
:101D500001960E946608CE0101960E94BC31CE0118
:101D600007960E94BC3106CF2C960FB6F894DEBFC2
:101D70000FBECDBFDF91CF911F910F9108950F93AB
:101D80001F93CF93DF9300D000D000D0CDB7DEB744
:101D90006DED71E0CE0101960E94E432CE01019614
:101DA0000E943A08CE0101960E94BC3160910A015E
:101DB00070910B014AE050E08CE094E00E945D31AC
:101DC00069ED71E0CE0101960E94E432CE010196E8
:101DD0000E943A08CE0101960E94BC31CE010196C4
:101DE0000E947C0D8D819E81892B31F0CE01019660
:101DF0000E94DC338B0104C000910A0110910B0199
:101E0000CE0101960E94BC31C80126960FB6F89407
:101E1000DEBF0FBECDBFDF91CF911F910F9108950F
:101E2000CF93DF93CDB7DEB7E8970FB6F894DEBF58
:101E30000FBECDBF60E271E08E010F5F1F4FC80182
:101E40000E94E432C8010E946608C8010E94BC31A9
:101E5000412C512C3201C12CD12C7601312C93E034
:101E6000A92E91E0B92E20EF822E20E0922E81EB58
:101E700093E00E94292218161906B4F48FEFC81AAD
:101E8000D80AE80AF80A8091A10381110E94ED079F
:101E900081EB93E00E94CD21682F8CE094E00E94BA
:101EA0009A1C33243394E3CF8CE094E00E94061D07
:101EB000181619068CF49FEF491A590A690A790A0B
:101EC0008CE094E00E94791C682F81EB93E00E94E3
:101ED0005F2033243394E8CFC2019301332039F2D9
:101EE0004091A103411104C04091A203442399F001
:101EF0001F921F921F921F923F932F939F938F9336
:101F0000FF92EF92DF92CF92BF92AF921F930F9307
:101F10000E947E370EC07F926F925F924F92FF9227
:101F2000EF92DF92CF929F928F921F930F930E9416
:101F30007E370FB6F894DEBF0FBECDBFB801CE011D
:101F4000C3960E942A32CE01C3960E940808CE0191
:101F5000C3960E94BC318BCF9F92AF92BF92CF921B
:101F6000DF92EF92FF920F931F93CF93DF93CDB742
:101F7000DEB7A4970FB6F894DEBF0FBECDBFCE017B
:101F800001967C013BEEC32E34E0D32E47EDA42E08
:101F900044E0B42E992493946EEF74E0C7010E943C
:101FA000E432C7010E943A08C7010E94BC31809107
:101FB000A103882319F080EB92E002C088EB92E045
:101FC0009F938F93DF92CF92FF92EF920E947E3782
:101FD000B701CE014F960E942A32CE014F960E9441
:101FE0006608CE014F960E94BC310F900F900F9063
:101FF0000F900F900F908091A003811103C080EB90
:1020000092E002C088EB92E09F938F93BF92AF92D1
:10201000FF92EF920E947E37B701CE014F960E9449
:102020002A32CE014F960E946608CE014F960E943A
:10203000BC3163E974E0CE014F960E94E432CE01D8
:102040004F960E943A08CE014F960E94BC318CE018
:1020500094E00E94CA0A8C01682F8CE094E00E94F0
:10206000A8300F900F900F900F900F900F900133AA
:10207000110589F1BCF40D30110509F48DCF4CF434
:102080000830110509F449C00A30110509F484CF5C
:102090004AC00431110509F442C00032110509F4A7
:1020A0007BCF41C00433110519F174F402331105DB
:1020B000E1F003331105B9F56091A103692560933F
:1020C000A1038BE090E024C00533110521F1063314
:1020D0001105C1F128C080E00E94610968EE73E03B
:1020E00080E090E00E945D2C57CF0E94AE0D54CF4F
:1020F0008091A00389258093A0036091080181113C
:10210000692580E10E94222D6091A00381E190E089
:102110000E948D0B41CF0E94100F80E001C081E032
:102120000E94A90B39CF69E774E0CE014F960E9457
:10213000E432CE014F960E946608CE014F960E946F
:10214000BC312ACFA4960FB6F894DEBF0FBECDBF28
:10215000DF91CF911F910F91FF90EF90DF90CF9083
:10216000BF90AF909F9008951F93CF93DF93EC01A2
:10217000162F6FEF81EB93E00E945F20CD3FD105DA
:1021800011F46DEF01C06BEF81EB93E00E945F20D3
:10219000612F81EB93E0DF91CF911F910C945F2031
:1021A0001F93CF93DF93EC01162F6FEF81EB93E03A
:1021B0000E945F20CD3FD10511F46CEF01C06EEF9E
:1021C00081EB93E00E945F20612F81EB93E0DF9130
:1021D000CF911F910C945F206FEF81EB93E00E94F1
:1021E0005F206EEF81EB93E00E945F2062E281EB63
:1021F00093E00E945F206FEF81EB93E00E945F20ED
:102200006EEF81EB93E00E945F2061E081EB93E051
:102210000C945F20CF93DF938091060181110E947F
:10222000EC1081EB93E00E94CA0AEC018F3F91050C
:1022300019F480919B033AC08C3F910521F124F45D
:102240008B3F910541F031C08D3F910521F08E3FCC
:102250009105C9F02AC081EB93E00E94CA0A009759
:1022600049F083309105E9F463E070E0CE010E940B
:10227000B4101BC060E070E0CE010E94B41081E099
:1022800080939B0312C081EB93E00E94CA0A0097DF
:1022900041F460E070E0CE010E94D01010929B03E8
:1022A00004C0BC01CE010E94D01080E0DF91CF912C
:1022B0000895CF92DF92EF92FF921F93CF93DF9317
:1022C00000D000D000D0CDB7DEB78CE094E00E9403
:1022D000791C182F0E942E2C685E73408109910989
:1022E000C090A503D090A603E090A703F090A803A8
:1022F000C616D706E806F906B0F48091090118134E
:1023000010C08091A903811731F081E08093AA0366
:102310001093A90312C08091AA038F5F8093AA0330
:102320000CC01092AA030E942E2C6093A5037093F8
:10233000A6038093A7039093A8038091AA038330F8
:10234000D9F465EB70E0CE0101960E94E432CE0133
:1023500001960E940808CE0101960E94BC3181E0DE
:102360008093A4031092AA031092A5031092A603CF
:102370001092A7031092A8031F3F49F480919B037A
:10238000882329F06FEF81EB93E00E945F200E9489
:10239000B30A612F81EB93E00E945F2026960FB66F
:1023A000F894DEBF0FBECDBFDF91CF911F91FF909C
:1023B000EF90DF90CF900895BF92CF92DF92EF928F
:1023C000FF920F931F93CF93DF93CDB7DEB7609744
:1023D0000FB6F894DEBF0FBECDBF81E0809306013B
:1023E00000E010E0CE0101967C01BB24B39481EBA8
:1023F00093E00E942922019609F49BC081EB93E0AF
:102400000E942922181619060CF05CC081EB93E09B
:102410000E94CD216C0180910601882371F09FEF0D
:10242000C916D10429F4B0929C030E940A1102C07B
:1024300010929C0310920601E1CF8091A203EFEF6E
:10244000CE16D10429F590919C03992309F1882394
:10245000C1F08091B0008F7D8093B0005B980E94A6
:102460000A11882339F0F701E00FF11F8FEF808305
:102470000F5F1F4F8091B0008F7D8093B0005B9AFB
:10248000BDCF0E940A11882309F4B8CF6FEF15C0A1
:10249000882369F08091B0008F7D8093B0005B9AB3
:1024A000F701E00FF11FC0820F5F1F4FA7CF809190
:1024B000A10381110E94ED076C2D8CE094E00E9435
:1024C0009A1C9CCF8091A2038823E1F0093011056A
:1024D00014F008E010E06701C6018E199F0980170B
:1024E000910744F4F60161916F018CE094E00E9441
:1024F0009A1CF2CF8091B0008F7D8093B0005B98E2
:1025000000E010E08CE094E00E94061D1816190609
:102510001CF40E945911F6CF81EB93E00E948D2AA2
:10252000882329F08091A403882309F460CF1092B6
:10253000A40381EB93E00E949A2A6EE371E0CE013E
:102540000B960E94E432CE010B960E948708CE01C2
:102550000B960E94BC318091A003882339F06091D2
:10256000080181E0682780E10E94222D60960FB665
:10257000F894DEBF0FBECDBFDF91CF911F910F91B9
:10258000FF90EF90DF90CF90BF9008950F931F932F
:10259000CF93DF93CDB7DEB72C970FB6F894DEBF9D
:1025A0000FBECDBF00919D0310919E036CE472E0BD
:1025B000CE0101960E94E432CE0101960E943A08B3
:1025C000CE0101960E94BC314AE050E0B8018CE097
:1025D00094E00E945D3168E472E0CE0101960E94B1
:1025E000E432CE0101960E943A08CE0101960E9483
:1025F000BC31CE0107960E947C0D8B859C85892B72
:1026000051F0CE0107960E94DC338B01CB010E9472
:102610008D0C8111FFCF10939E0300939D0381EBDE
:1026200093E00E94622B66E272E0CE0101960E9466
:10263000E432CE0101960E943A08CE0101960E9432
:10264000BC3160919D0370919E034AE050E08CE0A4
:1026500094E00E94653181EB93E00E948D2A811104
:1026600028C08CE094E00E94061D181619069CF7FD
:102670008CE094E00E94791C6CE172E0CE0101963E
:102680000E94E432CE0101960E946608CE010196B6
:102690000E94BC31CE0107960E94BC312C960FB629
:1026A000F894DEBF0FBECDBFDF91CF911F910F9188
:1026B000089568E072E0CE0101960E94E432CE01F6
:1026C00001960E946608CE0101960E94BC316AEF15
:1026D00071E081EB93E00E9472300E94DC119FCF89
:1026E000BF92CF92DF92EF92FF920F931F93CF93FF
:1026F000DF93CDB7DEB7C854D1090FB6F894DEBF6B
:102700000FBECDBF7C016B0161ED71E08E010F5FEB
:102710001F4FC8010E94E432B801C7010E945C3318
:10272000B82EC8010E94BC31BB2019F06EEB71E0DD
:1027300011C066EB71E0C8010E94E432B801C70124
:102740000E945C33B82EC8010E94BC31BB2049F006
:102750006BEA71E0C7010E94C33266E4C62E64E1F1
:10276000D62EF70181818F9380818F9388E991E044
:102770009F938F931F9252E3B52EBF921F930F9397
:102780000E944E37C8010E94EA08F70160817181FA
:1027900020E130E0AE014D5C5F4F81EB93E00E94A1
:1027A000BF260FB6F894DEBF0FBECDBF811118C093
:1027B00060E771E0CE018D5B9F4F0E94E432CE0155
:1027C0008D5B9F4F0E948708CE018D5B9F4F0E94BB
:1027D000BC3168EE73E080E090E00E945D2C40C068
:1027E00021E0A601BE016D5C7F4F81EB93E00E946A
:1027F000D02A882309F1F70181818F9380818F93FB
:1028000080E691E09F938F931F92BF921F930F9347
:102810000E944E37C8010E94EA080FB6F894DEBF46
:102820000FBECDBF8091A0038823C1F06091080145
:1028300080E10E94222D12C060E571E0CE018D5B27
:102840009F4F0E94E432CE018D5B9F4F0E9487080C
:10285000CE018D5B9F4F0E94BC3102C00E94DC11F3
:10286000C85BDF4F0FB6F894DEBF0FBECDBFDF9160
:10287000CF911F910F91FF90EF90DF90CF90BF907D
:1028800008950F931F93CF93DF93CDB7DEB72C97A7
:102890000FB6F894DEBF0FBECDBF6AEE71E0CE0179
:1028A00001960E94E432CE0101960E943A08CE01C0
:1028B00001960E94BC316BEA73E0CE0101960E9442
:1028C000AE32CE0101960E943A08CE0101960E94D6
:1028D000BC3166EE71E0CE0101960E94E432CE0179
:1028E00001960E943A08CE0101960E94BC31CE01A9
:1028F00007960E947C0D8B859C85892B91F00E9408
:10290000BF0E8C01BE01695F7F4F8BEA93E00E948E
:10291000973210930B0100930A01BE01695F7F4F4C
:102920000FC08091AF039091B003892BB9F00E9442
:10293000BF0E8C0190930B0180930A016BEA73E048
:10294000CE0101960E94AE3240E0B801CE01019660
:102950000E947013CE0101960E94BC31CE010796F1
:102960000E94BC312C960FB6F894DEBF0FBECDBFCF
:10297000DF91CF911F910F910895EF92FF920F93E6
:102980001F93CF93DF93CDB7DEB72C970FB6F89494
:10299000DEBF0FBECDBF8C01BC01CE0107960E94E9
:1029A0002A32F80180818823E9F16AE370E0C801E6
:1029B0000E94ED360097C1F0FC0111927F01B80131
:1029C000CE0101960E942A32BE016F5F7F4FCE0179
:1029D00007960E94B732CE0101960E94BC31C70112
:1029E0000E9462368C0102C007E110E0BE01695FFF
:1029F0007F4F8BEA93E00E94973210930B01009374
:102A00000A01BE01695F7F4FCE0101960E94AE327E
:102A100040E0B801CE0101960E947013CE010196EC
:102A20000E94BC31CE0107960E94BC312C960FB695
:102A3000F894DEBF0FBECDBFDF91CF911F910F91F4
:102A4000FF90EF900895FF920F931F93CF93DF9322
:102A5000CDB7DEB7E0970FB6F894DEBF0FBECDBF9F
:102A600078E2F72E0E9411090E941F0C62E773E0C2
:102A7000CE0101960E94E432CE0101960E943A08EE
:102A8000CE0101960E94BC318CE094E00E94CA0AFB
:102A9000182F682F8CE094E00E94A830812F8F7D42
:102AA0008D3409F062C06EE473E0CE0101960E949D
:102AB000E432CE0101960E943A08CE0101960E94AE
:102AC000BC318CE094E00E94CA0A8FA718AACE01FC
:102AD0008F960E9462368C018A30910518F64AE082
:102AE00050E0BC018CE094E00E945D3101151105BD
:102AF00009F4B8CF6CE373E0CE0101960E94E43292
:102B0000CE0101960E943A08CE0101960E94BC3186
:102B1000CE0189960E947C0D8DA59EA501501109BC
:102B2000892B41F0BE01675D7F4FCE0101960E9467
:102B3000AE3206C06BE873E0CE0101960E942A32E5
:102B4000F09EC001F19E900D1124BE016F5F7F4F7A
:102B50008C599F4F0E94B00BCE0101960E94BC3150
:102B6000CE0189960E94BC317DCF833479F565E230
:102B700073E0CE0101960E94E432CE0101960E94DC
:102B80003A08CE0101960E94BC318CE094E00E948C
:102B9000CA0A8F7D893509F065CF04E610E069EA3D
:102BA00072E0CE0101960E942A32BE016F5F7F4F14
:102BB000C8010E94B00BCE0101960E94BC31085D95
:102BC0001F4F0C3C81E0180751F74CCF813451F571
:102BD00063EF72E0CE0101960E94E432CE010196CD
:102BE0000E943A08CE0101960E94BC318CE094E02C
:102BF0000E94CA0A8FA718AACE018F960E94623639
:102C00008C018A30910508F02DCF4AE050E0BC01DC
:102C10008CE094E00E945D31602F83E690E00E949A
:102C20008D0B20CF1FA718AACE018F960E94623667
:102C30008A30910508F016CF009709F10197F89EA8
:102C4000B001F99E700D11246C597F4FCE01899609
:102C50000E94D00B69A57AA548E250E0CE0101960A
:102C60000E940837CE0189960E94BC31CE010196A0
:102C70000E94120CCE0101960E94BD14F3CEE09684
:102C80000FB6F894DEBF0FBECDBFDF91CF911F917D
:102C90000F91FF900895CF93DF93CDB7DEB7AE9736
:102CA0000FB6F894DEBF0FBECDBF8091A3039FEF98
:102CB000980F993008F058C0992787FD9095019793
:102CC00028E2289FB001299F700D11246C597F4F75
:102CD000CE0189960E94D00B69A57AA548E250E002
:102CE000CE0101960E940837CE0189960E94BC3120
:102CF0006AED70E0CE0189960E94E432CE01899699
:102D00000E943A08CE0189960E94BC31BE016F5FD5
:102D10007F4FCE0189960E942A32CE0189960E9469
:102D20006608CE0189960E94BC316DEB70E0CE0141
:102D300089960E94E432CE0189960E946608CE01EF
:102D400089960E94BC3160ED77E08CE094E00E94AF
:102D5000DF0A019629F08CE094E00E94CA0A04C0C0
:102D6000CE0101960E94BD14AE960FB6F894DEBF58
:102D70000FBECDBFDF91CF910895CF92DF92EF923A
:102D8000FF926C0190930D0180930C0185EB94E010
:102D90000E94FB2D62E070E080E090E00E945D2CDC
:102DA000E12CF12CB701A60181EB93E00E943F2AB0
:102DB00068EE73E080E090E00E945D2C85EB94E08B
:102DC0000E94E42E26E0B701A60185EB94E00E9464
:102DD000822E81EB93E0FF90EF90DF90CF900C94E8
:102DE0004F26CF93DF93CDB7DEB72C970FB6F8946D
:102DF000DEBF0FBECDBF0E94852C81E394E00E9410
:102E0000061C60E081E394E00E94FC1961E081E32C
:102E100094E00E94B61B3D98399A5298539A80913B
:102E2000B0008F7D8093B0005B98609107018FE0C8
:102E30000E94222D3A9A81E190E00E94EB0791E0F6
:102E4000811101C090E09093A00360910801992343
:102E500011F081E0682780E10E94222D84E190E05A
:102E60000E94EB0780939F03823009F4389882E038
:102E700090E00E94EB07182F83E090E00E94EB07A0
:102E8000212F30E0322F2227280F311D203B84E0F4
:102E9000380729F430930F0120930E011AC0203611
:102EA00099E03907B9F3203C82E1380799F32038DB
:102EB00095E2390779F321158BE4380759F3211589
:102EC00096E9390739F380E699E090930F018093F2
:102ED0000E0160E085E00E94E92C61E085E00E943F
:102EE000222D63E176E0CE0101960E94E432CE010C
:102EF00001960E940808CE0101960E94BC3185E02F
:102F000090E00E94230B6B017C01603B24E0720780
:102F10008105910509F180E6C81689E0D806E1042B
:102F2000F104D1F090ECC91692E1D906E104F10464
:102F300099F020E8C21625E2D206E104F10461F01E
:102F4000C1148BE4D806E104F10431F0C11496E910
:102F5000D906E104F104A9F5FF92EF92DF92CF9236
:102F60008FE096E09F938F938E01095F1F4F1F9311
:102F70000F930E947E37B801CE0101960E942A323B
:102F8000CE0101960E940808CE0101960E94BC3134
:102F900068EB7BE080E090E00E945D2CC0920E0127
:102FA000D0920F016D2D82E090E00E948D0B6C2D70
:102FB00083E090E00E948D0B0FB6F894DEBF0FBE49
:102FC000CDBF40910E0150910F0160E070E08CE0A8
:102FD00094E00E946F1E40910C0150910D0160E041
:102FE00070E026E085EB94E00E94822E48EE53E0EC
:102FF00060E070E08CE094E00E94913141E020912B
:103000000E0130910F0180910C0190910D01281754
:10301000390709F440E04093A2038CE094E00E9459
:103020006E3061E076E0CE0101960E94E432CE017E
:1030300001960E948708CE0101960E94BC3140E0B3
:1030400050E065EB74E081EB93E00E945329882304
:10305000C1F067EF75E0CE0101960E94E432CE0127
:1030600001960E948708CE0101960E94BC310E9401
:10307000830C80910E0190910F018036994089F464
:1030800022C069EE75E0CE0101960E94E432CE01C5
:1030900001960E948708CE0101960E94BC310E94D1
:1030A000100F68EE73E080E090E00E945D2C80914C
:1030B0000E0190910F01803B24E0920711F480E60D
:1030C00099E00E94BD1641E020910E0130910F0160
:1030D00080910C0190910D012817390709F440E007
:1030E0004093A20381EB93E00E949A2A83E690E04A
:1030F0000E94EB078093A3038BE090E00E94EB0714
:1031000091E0811101C090E09093A1030E944B16C1
:1031100061ED75E0CE0101960E94E432CE01019688
:103120000E946608CE0101960E94BC310E941109DE
:1031300081E00E9461096AEC75E0CE0101960E946F
:10314000E432CE0101960E940808CE0101960E9449
:10315000BC310E94150963E675E0CE0101960E941C
:10316000E432CE0101960E943A08CE0101960E94F7
:10317000BC318CE094E00E94CA0A7C01682F8CE08C
:1031800094E00E94A83080E2E816F104A1F2ACF4C9
:103190002AE0E216F10479F234F498E0E916F10439
:1031A00061F580E027C02DE0E216F10421F284E110
:1031B000E816F10411F581E01DC092E3E916F1046F
:1031C00099F03CF481E3E816F104B9F40E9441144B
:1031D000B2CF93E3E916F10451F024E3E216F104CF
:1031E00061F40E94AC0FA7CF0E942315A4CF0E94C8
:1031F000C612A1CF0E94A90B9ECF69E475E0CE0153
:1032000001960E94E432CE0101960E946608CE012A
:1032100001960E94BC318FCFCF93C82F80EA8C0FCC
:10322000803210F490E603C0C03E18F090EC9C0F82
:1032300003C0CD3001F19C2F9A30F9F0903210F498
:103240008EE21EC0903AD9F08FE3890F8A3110F4D4
:1032500080E805C08FEB890F8A3118F480E2890F6E
:103260000FC08C2F992787FD90950E94A936892B36
:1032700039F38C2F05C08AE003C08DE001C080E2E5
:10328000CF9108950F931F93CF93DF93EC018B01A0
:103290006BE873E00E942A32F80101900020E9F700
:1032A000BF0161507109601B710BCE010E94ED31AD
:1032B000F80181918F01882339F00E940C19682F41
:1032C000CE010E941933F4CFCE01DF91CF911F912F
:1032D0000F9108958A30C1F08D30C1F08032D4F062
:1032E0008036B1F09FE9980F9A3110F4805208951A
:1032F0009FEB980F9A3110F4805808958B3754F44F
:1033000080364CF0805A08958DE008958AE0089543
:1033100087E208958FE308950F931F93CF93DF9370
:10332000EC018B016BE873E00E942A32F8010190F6
:103330000020E9F7BF0161507109601B710BCE01DC
:103340000E94ED31F80181918F01882339F00E94AC
:103350006A19682FCE010E941933F4CFCE01DF9194
:10336000CF911F910F9108950DB407FEFDCF0895E1
:10337000FC016387448708950F936034D8F5403388
:10338000C8F50130C9F42130A9F5E42FE695E6959A
:10339000E69580E4E89FF0011124E60FF11DE05F5F
:1033A000FE4F477081E090E0042E01C0880F0A9420
:1033B000EAF7908198271DC0842F8695869586957B
:1033C000E62FF0E0477090E4899FE00DF11D112495
:1033D000E05FFE4F81E090E0042E01C0880F0A9468
:1033E000EAF7213019F49081982B03C080959081E1
:1033F000982390830F910895DC0161112EC01896D7
:103400001C9218978091900290919102FC01249156
:1034100016962C9316973196E4911796EC9317977E
:10342000FC013296E4911996EC931997FC013396BE
:10343000E4911A96EC931A97FC01349624913196F4
:10344000849190E0F4E62F9F800D911D11241E962B
:103450009C938E931D9781E0089580E008955F927C
:103460006F927F928F929F92AF92BF92CF92DF9294
:10347000EF92FF920F931F93CF93DF93EC01162FE0
:10348000B42EF02E3985231708F4B0C06A8570E099
:10349000630F711D822F90E0861797070CF0A6C06E
:1034A000D22ED31A9F8096949694969481E0891593
:1034B000C0F1C12E3C2D311B2E81822F90E0A32F15
:1034C000B0E08A179B070CF491C0321791F0E885A1
:1034D000F0E0EE0FFF1FE057FD4FD29EA00DB11D93
:1034E000112416960190F081E02DEA0FFB1F9490B5
:1034F00001C0912CA12C4A2D4B0D90FE03C00E2D26
:103500002F2D04C021E0F11020E00E2D6C2DCE01F6
:103510000E94BC199694A39488E0A812ECCFC3949F
:10352000C9CFED85FE852E8130E0CF01B9010E9423
:10353000E8338D2D90E00E94E833829F6001839FE5
:10354000D00C929FD00C11249E9E90019F9E300D16
:103550001124269FC001279F900D369F900D1124A6
:10356000C80ED91E742EA12CB12C86E0C80ED11C19
:10357000812E482D411B8E81481780F5E885F0E0AB
:10358000EE0FFF1FE057FD4F2D853E85A29EC00127
:10359000A39E900DB29E900D11248C0D9D1D840F45
:1035A000911D0190F081E02DE80FF91F5490612CDE
:1035B000462D470D50FE03C00E2D2F2D04C021E0D7
:1035C000F11020E00E2D682DCE010E94BC195694FA
:1035D000639488E06812ECCF8394CBCF8FEFA81A66
:1035E000B80A88E0780EA91408F4C2CFDF91CF9111
:1035F0001F910F91FF90EF90DF90CF90BF90AF9011
:103600009F908F907F906F905F900895EF920F93AF
:10361000CF93DF93EC01262F6A30A9F06D30C1F013
:10362000ED800C814C856B850E942F1A4E812B8575
:10363000240F2F5F2B8730E080E490E0841B9109FA
:10364000821793072CF48C859F81890F8C871B86AA
:1036500081E090E0DF91CF910F91EF9008952A9A49
:1036600022982898209A60E08DE00E94222D60E048
:103670008BE00E94222D61E08DE00E94E92C61E048
:103680008BE00E94E92C8CB580618CBD08958CB5CF
:1036900080648CBD2A98229A08950DB407FEFDCF50
:1036A0002898209A2A9A22988CB58F7B8CBD0895F1
:1036B000CF93DF9300D0CDB7DEB74A8369830E94F2
:1036C000471B69816EBD0E94B4194A814EBD0F909F
:1036D0000F90DF91CF910C944D1BCF93DF9300D0CF
:1036E0001F92CDB7DEB72B834A8369830E94471BA5
:1036F00069816EBD0E94B4194A814EBD0E94B41901
:103700002B812EBD0F900F900F90DF91CF910C94D5
:103710004D1B0F931F93CF93DF93EC0140E060E2CA
:103720000E94581B2FE740E061E2CE010E946D1B12
:1037300027E040E062E2CE010E946D1B0E94471B21
:10374000289A20981EBC0FEF13E00E94B4191EBCEB
:1037500001501109D1F70E944D1B42E060E2CE01F9
:10376000DF91CF911F910F910C94581B613011F490
:103770000C94891B80E891E0E0E1F1E0DF019C011D
:103780001D9221503040E1F708950F931F93CF937E
:10379000DF93EC0140E060E20E94581B2FE540E21D
:1037A00061E2CE010E946D1B25E040E062E2CE01A5
:1037B0000E946D1B0E94471B289A2098809110013F
:1037C0008EBD01E111E00E94B419F80181918F01D1
:1037D0008EBDF2E000391F07B1F70E944D1B42E099
:1037E00060E2CE01DF91CF911F910F910C94581B95
:1037F0002CB5982F93702C7F922B9CBD9DB582FB8E
:10380000882780F99E7F982B9DBD0895CF93DF93E5
:10381000EC0160E00E94FC1981E08C831D821B8614
:103820001C865F98579A61E084E00E94E92C61E071
:1038300084E00E94222D6AE070E080E090E00E9427
:103840005D2C5F9A579865E070E080E090E00E9400
:103850005D2C5F98579A84E00E94F81B0E942F1BF2
:1038600065E070E080E090E00E945D2C5F9A5798E0
:103870006AE070E080E090E00E945D2C4FE268EA30
:10388000CE010E94581B44E16DE8CE010E94581BF6
:103890000E94471B81EA8EBD0E944D1B0E94471B60
:1038A00088EC8EBD0E944D1B4FE861E8CE010E945E
:1038B000581B41EF69EDCE010E94581B40E46BEDAF
:1038C000CE010E94581B0E94471B8FEA8EBD0E94AA
:1038D0004D1BCE01DF91CF910C94891B10923404C3
:1038E0001092330483EC92E090933204809331047D
:1038F0000895209182043091830428173907B9F480
:103900009091400480914104981789F0E09140041F
:10391000F0E0EE5BFB4F80812091400430E02F5FB0
:103920003F4F2F7333272093400490E008958FEF8B
:103930009FEF08951F93CF93DF93DC015C968D91E9
:103940009C915D97009749F481E090E013969C93D9
:103950008E93129780E090E03BC05196ED91FC91E0
:10396000529750962C915097322F30951FB75E96F4
:103970004C915E9741FB772770F941FD6095F89473
:103980004081772311F0422B01C043234083EC0197
:103990002197F1F748E0508160FF02C0522B01C02F
:1039A00053235083EC012197F1F76695415099F725
:1039B0008081772311F0832301C0822B80831FBF76
:1039C0005C968D919C915D970197F1F781E090E075
:1039D000DF91CF911F91089520918204309183044B
:1039E0002817390781F49091400480914104981779
:1039F00051F0E0914004F0E0EE5BFB4F80819927AD
:103A000087FD909508958FEF9FEF08952091820490
:103A1000309183042817390771F480914104209173
:103A2000400490E0805C9F4F821B910960E470E04D
:103A30000E94FC33089580E090E008952091820474
:103A4000309183042817390739F48FB7F89410920E
:103A50004104109240048FBF0895E0918204F091D8
:103A60008304E817F90769F4A389B4899C918589CF
:103A7000809589238C93109283041092820481E0B4
:103A8000089580E00895CF93DF93EC018A8D9B8D9C
:103A9000892BF1F080918204909183048C179D070B
:103AA000B9F0009711F00E942D1D8E8D8E7F8E8FA4
:103AB0001092410410924004D0938304C093820476
:103AC000EB89FC8980819D89892B808381E001C0FD
:103AD00080E0DF91CF9108951F920F920FB60F9261
:103AE00011242F933F934F935F936F937F938F9303
:103AF0009F93AF93BF93EF93FF93E0918204F09174
:103B00008304309709F451C0868DA685B7859585C5
:103B100081FF04C08C91892329F447C08C918923AB
:103B200009F043C0A389B4899C9185898095892334
:103B30008C93868997890197F1F7208D318DA68521
:103B4000B785758558E040E0C9010197F1F7842FEA
:103B500090E095958795482F6C91672309F0406810
:103B6000515091F7868D81FD40958091410490E000
:103B700001968F73992720914004281749F0A0914E
:103B80004104B0E0AE5BBB4F4C938093410403C053
:103B9000868D8160868F828D938D0197F1F7A38941
:103BA000B4898C919589892B8C93FF91EF91BF916A
:103BB000AF919F918F917F916F915F914F913F91C5
:103BC0002F910F900FBE0F901F9018952BEC32E0A5
:103BD000FC01318320830C942D1D1F93CF93DF9321
:103BE000EC01162F6E8D6695617081E06827812F3C
:103BF0000E94222D61E0812F0E94E92C812F90E00C
:103C0000FC01EC55F14FE491E88BFC01E854F14FD5
:103C1000E491F0E0EE0FFF1FEA52F14F859194918D
:103C20009A8B898BDF91CF911F9108951F93CF932A
:103C3000DF93EC01162F60E0812F0E94E92C8E8D1E
:103C400081FD04C061E0812F0E94222D1C87812FFD
:103C500090E0FC01EC55F14FE491ED87FC01E85454
:103C6000F14FE491F0E0EE0FFF1FE453F14F859127
:103C700094919F878E87DF91CF911F910895FF9236
:103C80000F931F93CF93DF93EC01F62E522F1B82DD
:103C90001A8208EE13E020E030E00C831D832E83AF
:103CA0003F838BEC92E0998388831F8A1E8A198E4A
:103CB000188E1B8E1A8E1D8E1C8E8E8D8E7F50FB45
:103CC00081F98E8F642FCE010E94ED1D6F2DCE01E4
:103CD000DF91CF911F910F91FF900C94161ECF93FF
:103CE000DF93EC019A01AB011B8E1A8E198E188E90
:103CF0001F8A1E8A60E079E08DE390E00E943234F2
:103D0000C9012430310520F0B9016350710902C0A6
:103D100061E070E07D8F6C8FEC85E63108F068C063
:103D2000B901769567956431710518F06351710991
:103D300002C061E070E07F8B6E8B069718F0C901BE
:103D4000059702C081E090E0998F888FC901880FA4
:103D5000991F820F931F96958795969587958D301D
:103D6000910510F00C9702C081E090E09B8F8A8F44
:103D700020916800E83050F091E0EE3008F490E0D7
:103D800081E001C0880F9A95EAF701C084E0822B98
:103D9000809368002C85283038F02E3040F0263192
:103DA00048F48CE690E008C08DE690E005C08BE614
:103DB00090E002C080E090E09C8B8B8B283030F448
:103DC00081E001C0880F2A95EAF70DC0822F90E0AC
:103DD0002E3010F4089701C00E9791E001C0990FA2
:103DE0008A95EAF7892F8D8B8C8D9D8D0197F1F740
:103DF000CE01DF91CF910C94431DDC011C968D9177
:103E00009C911D97DC01ED91FC910680F781E02DDE
:103E10000994DC011C968D919C911D97DC01ED911C
:103E2000FC910480F581E02D0994DC011C968D91B4
:103E30009C911D97DC01ED91FC910284F385E02DAE
:103E40000994DC011C968D919C911D97DC01ED91EC
:103E5000FC910084F185E02D09942F923F924F92BE
:103E60005F926F927F928F929F92AF92BF92CF920A
:103E7000DF92EF92FF920F931F93CF93DF93CDB713
:103E8000DEB760970FB6F894DEBF0FBECDBF2B0133
:103E90003C0169014A3021F5CE0101961C01E12C5B
:103EA000F12C5AE0852E912CA12CB12CC301B2012A
:103EB000A50194010E9410349FEFE91AF90A80E3EA
:103EC000840DEAE02E9F80191124F10181931F01D6
:103ED0002115310541055105C9F129013A01E6CF06
:103EE000FE01319680E090E0B301A2014F705527AA
:103EF000662777279C012F5F3F4F4A3051056105A8
:103F0000710510F4A0E301C0A1E44A0F419344E01D
:103F100076946794579447944A95D1F74114510485
:103F20006104710411F0C901DFCFE1E0F0E0EC0FB2
:103F3000FD1FE20FF31F48E740837C01F3E0EF0E23
:103F4000F11CFE01E80FF91F20E3238321E0E21AB0
:103F5000F108F60180E090E0015011090196A1E01E
:103F6000B0E0AC0FBD1FAE0DBF1D2C9121931E14F0
:103F70001F04ECF0F601E80FF91F108260960FB6EF
:103F8000F894DEBF0FBECDBFDF91CF911F910F918F
:103F9000FF90EF90DF90CF90BF90AF909F908F9069
:103FA0007F906F905F904F903F902F90089521E009
:103FB000E21AF10880179107ECF6D0CFCF92DF928A
:103FC000EF92FF920F931F93FC0140E060E070E0DE
:103FD000CB010191002309F449C020ED200F2A30C4
:103FE000B0F414E0660F771F881F991F1A95D1F758
:103FF0006053710981099109C02EDD24C7FCD0945A
:10400000ED2CFD2C6C0D7D1D8E1D9F1DE2CF2FE92B
:10401000200F263060F4B4E0660F771F881F991FC9
:10402000BA95D1F767557109810991090FC02FEB36
:10403000200F2630A8F4A4E0660F771F881F991F71
:10404000AA95D1F76753710981099109112707FDD5
:104050001095212F312F600F711F821F931FB9CF31
:10406000083721F4411102C041E0B3CF1F910F91F5
:10407000FF90EF90DF90CF9008950F931F93FC0176
:1040800060E070E0CB01019120ED200F2A30A0F418
:10409000AAE0B0E09B01AC010E9457346053710963
:1040A00081099109112707FD1095212F312F600FEC
:1040B000711F821F931FE7CF1F910F910895DC019D
:1040C000A95ABF4F2D913C911197FC01E75AFF4F20
:1040D000408151812417350764F434970190F081B1
:1040E000E02DA9014F5F5F4F4D935C93E20FF31FEB
:1040F0006083FC01EC5BFF4F80819181DC01ED91DD
:10410000FC910190F081E02D09948C5B9F4FDC01C4
:104110008D919C91DC01ED91FC910284F385E02D61
:104120000994DC011C968D919C911D97009739F0A4
:10413000DC01ED91FC910190F081E02D099480E08B
:1041400090E008952091950421110CC0FC01EC5BD6
:10415000FF4F80819181DC01ED91FC910084F1851C
:10416000E02D0994E0919604F0E0E856FB4F808141
:10417000992787FD90950895DC01ED91FC910190C0
:10418000F081E02D09944F925F926F927F92AF92EF
:10419000BF92CF92DF92EF92FF920F931F93CF9334
:1041A000DF93EC015B016A010E942E2C2B013C0184
:1041B000E12CF12C8E010C5B1F4F0E942E2C6419F8
:1041C0007509860997096C157D058E059F05A0F573
:1041D000D8018D919C91DC01ED91FC910480F581D9
:1041E000E02D09951816190644F7F8018081918190
:1041F000DC01ED91FC910680F781E02D0995F50138
:104200008083DE01A95ABF4F2D913C911197FE0189
:10421000E75AFF4F40815181241735077CF4CB5A70
:10422000DF4FE881F981A9014F5F5F4F4D935C93A8
:10423000E20FF31F808302C080E001C081E0DF91C4
:10424000CF911F910F91FF90EF90DF90CF90BF9093
:10425000AF907F906F905F904F900895EF92FF9294
:104260000F931F93CF93DF931F92CDB7DEB78C01CF
:104270007B01A701BE016F5F7F4FC8010E94C32071
:104280008111F7CF0F90DF91CF911F910F91FF9088
:10429000EF900895FF920F931F93CF93DF938C01BC
:1042A00090919504992309F1442321F06F5F7F4F8A
:1042B00081E001C080E020919604820FFB01BF01E4
:1042C000382F321B3917A8F434913323C1F18930C8
:1042D00010F4A82F01C0A0E031968F5FB0E0A8567F
:1042E000BB4F4C91431759F340C0411102C06F5F5F
:1042F0007F4FFB01F490EB0121966091970470E0F1
:1043000068567B4F44EF51E0C8010E94C320809162
:104310009704E82FF0E0E856FB4F20819091950438
:104320008F5F2F1114C08830E8F4809397049F5F4B
:1043300090939504FE01F4902196F110DECF109237
:104340009504109296041092970481E00FC0883073
:1043500018F48093970402C0109297049F5F909383
:10436000950403C010929704E2CF80E0DF91CF91D3
:104370001F910F91FF900895CF93DF93EC01462F8B
:1043800064E17DE00E944A21882319F01CAE81E09F
:1043900001C080E0DF91CF910895CF93DF93EC01CE
:1043A00080919504882381F0E091960491E09E0F1E
:1043B00090939604F0E0E856FB4F208130E098306F
:1043C00068F1109296042AC0FE01EC5BFF4F8081D9
:1043D0009181DC01ED91FC910680F781E02D09953A
:1043E0009C018CAD8823E9F02A323105D1F460E0DC
:1043F000CE010E94BC21811116C0E091960481E09B
:104400008E0F80939604F0E0E856FB4F208130E059
:10441000883010F01092960480919504815080931A
:104420009504C90102C08FEF9FEFDF91CF910895EE
:10443000CF93DF93EC01462F6DE07DE00E944A218F
:10444000882319F081E08CAF01C080E0DF91CF912B
:104450000895EF92FF920F931F93CF93DF938C01F8
:10446000EC01CC5BDF4F88819981DC01ED91FC91FF
:104470000480F581E02D09957C01181619065CF57C
:1044800088819981DC01ED91FC910084F185E02D1A
:1044900009958A9701F5F80184AD61E0882331F030
:1044A000C8010E94BC21882321F012C0C8010E94CB
:1044B00018220091950410E088819981DC01ED912A
:1044C000FC910480F581E02D0995800F911F09C0B2
:1044D0008FEF9FEF06C080919504F701E80FF11D63
:1044E000CF01DF91CF911F910F91FF90EF90089531
:1044F000CB0165E874E00E94173721E0892B09F4AD
:1045000020E0822F08958F929F92AF92BF92CF9218
:10451000DF92EF92FF920F931F93CF93DF931F923F
:10452000CDB7DEB76C017B015A016115710529F128
:10453000FB018081882309F18B014B01FFEF8F1A6A
:104540009F0AA501BE016F5F7F4FC6010E94C32075
:104550008823A1F08981F8019081891303C00F5F3E
:104560001F4F07C0F7019081891302C0840101C069
:104570008701F80180818111E4CF81E00F90DF9104
:10458000CF911F910F91FF90EF90DF90CF90BF9050
:10459000AF909F908F9008957F928F929F92AF924D
:1045A000BF92CF92DF92EF92FF920F931F93CF9320
:1045B000DF931F92CDB7DEB76C017B015A01FB017F
:1045C00074907720B9F08B014B01FFEF8F1A9F0A8F
:1045D000A501BE016F5F7F4FC6010E94C3208823E3
:1045E000C1F02981271108C00F5F1F4FF801749097
:1045F0007110EECF81E00DC0F7018491332727FDC4
:10460000309590E02817390711F48401EFCF870126
:10461000EDCF0F90DF91CF911F910F91FF90EF9011
:10462000DF90CF90BF90AF909F908F907F90089534
:104630004F925F926F927F929F92AF92BF92CF9272
:10464000DF92EF92FF920F931F93CF93DF931F920E
:10465000CDB7DEB77C01962EA72EB42E69014DB6DC
:104660005EB6242F30E0C901880F991F820F931F77
:104670002DB73EB7281B390B0FB6F8943EBF0FBEBF
:104680002DBF8DB79EB701963C01E62FF72FDC01B9
:1046900020E02B1559F11C928191919112969C93D7
:1046A0008E9311972F5F1396F4CF1196ED91FC9195
:1046B00012974491941781F1F80160817181FB0197
:1046C000449150E02417350731F112967C936E9394
:1046D00011971196ED91FC911297E49113960E5F4C
:1046E0001F4FEE23F9F08F5F8B11DFCFA601BE01C4
:1046F0006F5F7F4FC7010E94C320811102C08FEFFF
:1047000011C09981292F332727FD3095092D1A2DA6
:10471000D30180E0E9CFFB0131961296FC93EE9332
:104720001197D7CF0FB6F8945EBE0FBE4DBE0F9057
:10473000DF91CF911F910F91FF90EF90DF90CF907D
:10474000BF90AF909F907F906F905F904F90089533
:10475000CF93DF93EC018D85882391F063EF7CE0AC
:10476000CE010E94343044EF51E06CEE7CE0CE018B
:104770000E94CC22882311F01D8602C080E001C077
:1047800081E0DF91CF9108955F926F927F928F9237
:104790009F92AF92BF92CF92DF92EF92FF920F93D0
:1047A0001F93CF93DF931F92CDB7DEB76C017B01D0
:1047B000390100E010E04A0182E0881A91085A01AC
:1047C00081E0A81AB108A301BE016F5F7F4FC60147
:1047D0000E94C320882309F440C059808DE05812FC
:1047E0002DC0A301BE016F5F7F4FC6010E94C32091
:1047F00089818A3041F4E114F104B9F1F701E00F45
:10480000F11F108232C0E114F104C1F0081519053E
:1048100064F4F8013196D701A00FB11F5C920E5FCE
:104820001F4FEE0DFF1D808309C00A151B0534F4D0
:10483000F701E00FF11F50820F5F1F4F0A151B0594
:1048400014F6E114F10409F4BECFF701E00FF11FF3
:10485000898180830F5F1F4FB6CFE114F10439F0D7
:10486000F701E00FF11F108203C0C80102C080E011
:1048700090E00F90DF91CF911F910F91FF90EF90FB
:10488000DF90CF90BF90AF909F908F907F906F9070
:104890005F900895CF92DF92EF92FF920F931F9354
:1048A000CF93DF931F92CDB7DEB78C0144EF51E079
:1048B000BE016F5F7F4FC8010E94C3208823A9F00B
:1048C00089818C3399F78093850456E8E52E54E06E
:1048D000F52EDD24D39444EF51E0BE016F5F7F4F8E
:1048E000C8010E94C320811102C080E035C0CC24E1
:1048F000C394CD0C8981F70181937F018E3339F503
:1049000044EF51E0BE016F5F7F4FC8010E94C3209A
:10491000882359F38981803241F7AC2DB0E0AB5741
:10492000BB4F8C93D394D394ED2DF0E0EB57FB4F1A
:10493000108281E08093840424EF31E040E050E075
:1049400060E070E0C8010E94C42381E005C0FCE083
:10495000CF1659F2DC2CBFCF0F90DF91CF911F9172
:104960000F91FF90EF90DF90CF900895AB012091D1
:104970008404211102C00C944A2465E874E00C946C
:104980008322FF920F931F93CF93DF93EC018D85CA
:1049900081116FC06AEF70E080E090E00E945D2CB2
:1049A00069E07DE0CE010E9434306AEF70E080E083
:1049B00090E00E945D2C44EF51E063E07DE0CE0189
:1049C0000E94CC22811116C0FE01EC5BFF4F80815A
:1049D0009181DC01ED91FC910190F081E02D6DE081
:1049E000099564EF71E0CE010E94B62481113AC0AE
:1049F00015E01EC080918404811134C065E0F62E5C
:104A00008E010C5B1F4FF80180819181DC01ED91DB
:104A1000FC910190F081E02D6DE0099564EF71E06B
:104A2000CE010E94B62481111DC0FA9461F7CCCF4B
:104A30006AEF70E080E090E00E945D2C6FEF7CE018
:104A4000CE010E9434306AEF70E080E090E00E9476
:104A50005D2C44EF51E069EF7CE0CE010E94CC2256
:104A6000882319F081E08D8705C0115009F780E097
:104A700001C081E0DF91CF911F910F91FF900895C8
:104A8000CF93DF93EC018D85882339F08B899C8946
:104A900001969C8B8B8B81E005C0CE010E94C124C6
:104AA0008111F4CFDF91CF910895FC0123893489DE
:104AB00021503109348B238B232B11F40C94A82320
:104AC00081E00895CF92DF92EF92FF920F931F93B0
:104AD000CF93DF93EC018B016A0179010E9440259D
:104AE000882351F1000F111F000F111F0D5F1C4F84
:104AF000F80160817181CE010E943430F801628139
:104B0000738144EF51E0CE010E94CC22882389F0CA
:104B100024EF31E0A701B601CE010E94C42364EF67
:104B200071E0CE010E94B624CE010E945525C60137
:104B300005C0CE010E94552587ED92E0DF91CF910F
:104B40001F910F91FF90EF90DF90CF900895EF921B
:104B5000FF920F931F93CF93DF93CDB7DEB760978C
:104B60000FB6F894DEBF0FBECDBF8C010E9440256A
:104B7000882309F467C064EE7CE0C8010E943430E9
:104B800024EF31E040E150E0BE016F5F7F4FC8018C
:104B90000E94C4237C01BE016F5F7F4FC8010E9449
:104BA0007822882361F024EF31E040E150E0BE013B
:104BB0006F5F7F4FC8010E94C4237C0105C064EF72
:104BC00071E0C8010E94B62425E0E216F1041CF44D
:104BD000CE01019608C0C7010497E1E0F0E0EC0FB8
:104BE000FD1F8E0F9F1F0E94DE1FF62EE72E862FC1
:104BF0008F70F80186AFF4FA882780F987AFE05C00
:104C0000FF4FF5FA882780F980833196F6FA8827D6
:104C100080F980833196F7FA882780F980838E2D7A
:104C200086958F7031968083C8010E945525F801C2
:104C300086AD813011F484AF02C0F80114AE8F2D1F
:104C40009E2D02C080E090E060960FB6F894DEBF23
:104C50000FBECDBFDF91CF911F910F91FF90EF90CD
:104C60000895CF93DF93D62FC72F9A01462F572F42
:104C700060E070E00E946225892B49F0ED2FFC2F47
:104C8000DF018191882329F08A33D1F702C0AD2F4B
:104C9000BC2F1C928D2F9C2FDF91CF910895CF9325
:104CA000DF93CDB7DEB766970FB6F894DEBF0FBEC1
:104CB000CDBF26E130E0AE014F5F5F4F60E070E0B6
:104CC0000E946225892BC1F080E0E1E0F0E0EC0F6A
:104CD000FD1FE80FF11D9081992319F08F5F9A3322
:104CE000A1F721E030E02C0F3D1F280F311DC90135
:104CF0000E943D20CB0102C080E090E066960FB696
:104D0000F894DEBF0FBECDBFDF91CF9108959A0119
:104D1000AB0163E070E00C9462259A01AB0164E0A2
:104D200070E00C9462251F93CF93DF93CDB7DEB76D
:104D30002B970FB6F894DEBF0FBECDBF142F2BE01C
:104D400030E0AE014F5F5F4F0E946225892B51F02A
:104D5000CE0101961A3019F40E943D2006C00E942F
:104D6000DE1F03C060E070E0CB012B960FB6F89415
:104D7000DEBF0FBECDBFDF91CF911F910895AF92DF
:104D8000BF92CF92DF92EF92FF920F931F93CF9338
:104D9000DF931F92CDB7DEB78C017B016A01590109
:104DA0000E9440258823B9F162EC7CE0C8010E9492
:104DB0003430B701C8010E9465306FED72E0C80160
:104DC0000E94653048E853E1B701C8010E94832280
:104DD0008823C9F044EF51E0BE016F5F7F4FC801E7
:104DE0000E94C32024EF31E0A501B601C8010E9452
:104DF000C42364EF71E0C8010E94B624C8010E9478
:104E0000552581E009C064EF71E0C8010E94B62415
:104E1000C8010E94552580E00F90DF91CF911F912E
:104E20000F91FF90EF90DF90CF90BF90AF900895DB
:104E3000CF93DF93CDB7DEB760970FB6F894DEBFA0
:104E40000FBECDBF20E130E0AE014F5F5F4F6CE0A1
:104E500070E00E946225892BE1F143E050E06EEBA7
:104E60007CE0CE0101960E94C736892B51F142E0C9
:104E700050E06BEB7CE0CE0101960E94C736892B97
:104E800011F146E050E064EB7CE0CE0101960E9417
:104E9000C736892BD1F045E050E06EEA7CE0CE01C8
:104EA00001960E94C736892B91F046E050E067EAF0
:104EB0007CE0CE0101960E94C736892B51F484E034
:104EC00009C080E007C081E005C082E003C083E044
:104ED00001C08FEF60960FB6F894DEBF0FBECDBF56
:104EE000DF91CF910895CF92DF92EF92FF920F93CF
:104EF0001F93CF93DF9300D000D0CDB7DEB77C01F6
:104F00008B016A0181EA9CE09A8389838BE99CE0AA
:104F10009C838B8324EF31E042E0BE016F5F7F4FC3
:104F2000C7010E941823813091F0811108C024EF3D
:104F300031E0A601B801C7010E94C42306C0A60142
:104F400061E97CE0C8010E94D53680E001C081E0C3
:104F50000F900F900F900F90DF91CF911F910F91B5
:104F6000FF90EF90DF90CF900895AF92BF92CF92D5
:104F7000DF92EF92FF920F93CF93DF93CDB7DEB71F
:104F800062970FB6F894DEBF0FBECDBF7C015A0109
:104F90006901698B7A8B0E94402569897A89882307
:104FA00009F463C0C7010E943430C114D10419F15F
:104FB00060E2C7010E94BC200023C1F0570184E5D4
:104FC000A80EB11CF60164916623C1F1D701ED91E1
:104FD000FC910190F081E02D603211F4D5016C91CB
:104FE000C7010995BFEFCB1ADB0AECCFB601C701A9
:104FF0000E94343023C0A114B10401F160E2C70162
:105000000E94BC200023B1F06701F4E5CF0ED11C53
:10501000F50161915F01662389F0D701ED91FC9163
:105020000190F081E02D603211F4D6016C91C7013E
:105030000995EECFB501C7010E9465306DE0C7014B
:105040000E94BC2040E150E0BE016F5F7F4FC7016E
:105050000E947327082F64EF71E0C7010E94B624F5
:10506000C7010E945525802F01C080E062960FB6CF
:10507000F894DEBF0FBECDBFDF91CF910F91FF90AF
:10508000EF90DF90CF90BF90AF900895CF92DF92D6
:10509000EF92FF920F931F93CF93DF93CDB7DEB7BD
:1050A0002B970FB6F894DEBF0FBECDBF7C016B010E
:1050B000CA01B901402F0BE010E09E012F5F3F4F66
:1050C0000E942D1F00E020E030E0AE014F5F5F4FF7
:1050D000B601C7010E94B5272B960FB6F894DEBF24
:1050E0000FBECDBFDF91CF911F910F91FF90EF9039
:1050F000DF90CF9008951F93CF93DF93EC010E9430
:1051000040258823D9F06BE87CE0CE010E94343042
:1051100044EF51E063E87CE0CE010E94CC2288237A
:1051200039F064EF71E0CE010E94B62411E001C0B5
:1051300010E0CE010E945525812F01C080E0DF9153
:10514000CF911F9108950F939B0140E050E00AE03A
:1051500063E57CE00E9446280F9108950F93262F67
:1051600030E040E050E000E161E17CE00E94462850
:105170000F9108950C94AE280F93262F30E040E055
:1051800050E000E164E07CE00E9446280F91089521
:105190000F9300E020E030E040E050E066EE7BE07E
:1051A0000E94B5270F9108950F93AB0101E020E015
:1051B00030E068ED7BE00E94B5270F9108950F93D2
:1051C0001F93CF93DF93EC01AB01FB0181818F7DB6
:1051D000883511F44E5F5F4F00E020E030E06BEC6B
:1051E0007BE0CE010E94B527182FCE010E94C8286F
:1051F000812FDF91CF911F910F9108950F931F93EE
:10520000CF93DF93EC01AB0101E020E030E06BEBEA
:105210007BE00E94B527182FCE010E94C828812F5D
:10522000DF91CF911F910F91089540E16BE170E004
:105230000E949326862F08950F93CF93DF93EC015E
:1052400019AE18AE188E00E020E030E040E050E0EB
:1052500060E47DE00E94B52720E030E040E050E0CF
:105260006DE27DE0CE010E94B52720E030E040E015
:1052700050E06BE17DE0CE010E94B527CE010E9497
:10528000A725CE010E9418278B7F91E009F490E0BA
:105290009D8BCE010E941529CC5ADF4F8883DF9168
:1052A000CF910F910895CF93DF93EC01FC01EC5B5C
:1052B000FF4F718360830E94C124882341F0CE0197
:1052C0000E941C29CE01DF91CF910C94A82380E08D
:1052D000DF91CF910895CF93DF93EC010E94402599
:1052E000882301F16BE77CE0CE010E94343044EF6B
:1052F00051E062E77CE0CE010E94CC22811104C023
:10530000CE010E9455250EC068E873E180E090E070
:105310000E945D2C1D861C8A1B8ACE010E941C29BE
:1053200081E001C080E0DF91CF910895CF92DF92BC
:10533000EF92FF920F931F93CF93DF9300D000D093
:10534000CDB7DEB78C017B016A0184EB9BE09A83C9
:10535000898388EA9BE09C838B83C8010E94402557
:10536000882309F444C062EA7BE0C8010E9434301B
:10537000E114F10421F0B701C8010E94653060EA30
:105380007BE0C8010E943430960142E0BE016F5FAD
:105390007F4FC8010E941823F82E64E670E0C80110
:1053A0000E942E2181E0F8121FC0F801F7AE858916
:1053B000882361F048E95AE36CE97BE0C8010E9468
:1053C000CC2264E670E0C8010E942E2124EF31E077
:1053D00040E050E060E070E0C8010E94C423C801D2
:1053E0000E94552581E004C0C8010E94552580E037
:1053F0000F900F900F900F90DF91CF911F910F9111
:10540000FF90EF90DF90CF9008950F931F93CF936D
:10541000DF93CDB7DEB7C054D1090FB6F894DEBF25
:105420000FBECDBF8C0140E450E0BE016F5F7F4FE7
:105430000E948D2640E25EE4BE016F5F7F4FC8018F
:105440000E949629C05CDF4F0FB6F894DEBF0FBEF6
:10545000CDBFDF91CF911F910F910895CF93DF932F
:10546000EC0165E97BE00E94343064E670E0CE0137
:105470000E942E211FAE81E0DF91CF910895AF925F
:10548000BF92CF92DF92EF92FF920F931F93CF9331
:10549000DF93CDB7DEB760970FB6F894DEBF0FBECF
:1054A000CDBF5C016A017B0100E110E09E012F5F2E
:1054B0003F4F4AE0C701B6010E942D1FC5010E945F
:1054C000402500E020E030E0AE014F5F5F4F6DE827
:1054D0007BE0C5010E94B527882351F0C5010E94D9
:1054E0005525F501C786D08AE18AF28A81E004C099
:1054F000C5010E94552580E060960FB6F894DEBF86
:105500000FBECDBFDF91CF911F910F91FF90EF9014
:10551000DF90CF90BF90AF900895CF93DF93EC01D1
:10552000E881F9810480F581E02D09958CADDF914A
:10553000CF910895CF93DF93EC018CAD882361F177
:1055400064EF71E0CE010E942E21CE010E94402521
:105550006AE67BE0CE010E94343044EF51E063E61E
:105560007BE0CE010E94CC22882329F0CE010E944C
:1055700055251CAE11C06AE47BE0CE018A5B9F4FCB
:105580000E947230CE010E94A725CE010E945525AF
:105590008CAD91E0892701C081E0DF91CF91089522
:1055A000BF92CF92DF92EF92FF920F931F93CF9310
:1055B000DF93CDB7DEB765970FB6F894DEBF0FBEA9
:1055C000CDBF7C016B018A01B22EFC0185AD81113A
:1055D00068C0C7010E944025F70184AD882319F0F7
:1055E000C7010E949A2AB80180E090E004E110E02F
:1055F0009E012F5F3F4F4AE00E942D1F67E87BE02E
:10560000C7010E943430B601C7010E94653061EEC7
:1056100072E0C7010E946530BE016F5F7F4FC70116
:105620000E94653065E87BE0C7010E94343064EF7A
:1056300071E0C7010E94B624811101C0FFCFB110F3
:1056400004C081E0F70185AF2DC040E157E2BE0103
:105650006B5E7F4FC7010E94C3208823F9F08D89BC
:105660008A3271F0833489F7898324EF31E043E192
:1056700050E0BE016E5F7F4FC7010E94C4230EC081
:1056800044EF51E06FE77BE0C7010E94CC22882302
:1056900029F081E0F70184AF158604C0C7010E949C
:1056A000552580E065960FB6F894DEBF0FBECDBFDE
:1056B000DF91CF911F910F91FF90EF90DF90CF90EE
:1056C000BF900895CF93DF93EC0164EF71E00E94E7
:1056D0002E21CE010E94402563E47BE0CE010E9492
:1056E000343044EF51E06CE37BE0CE010E94CC22E9
:1056F000882331F0CE010E9455251CAE81E00BC0FD
:10570000CE010E94552563E27BE0CE018A5B9F4F6C
:105710000E94723080E0DF91CF910895FC011382E6
:10572000128248EE53E060E070E044835583668364
:10573000778387EF92E0918380831586148608959E
:10574000CF93DF93EC011B821A8248EE53E060E0B6
:1057500070E04C835D836E837F8387EE92E0998354
:105760008883CE018A5B9F4F0E948E2B1D861E86EA
:105770001C8A1B8A1CAE1DAE81E08D8B8E8BFE01B8
:10578000EB5AFF4F11821082329611821082C75A53
:10579000DF4F19821882DF91CF9108950F9300E0B7
:1057A00020E040E060E080EA94E00E94DB2F0F916F
:1057B00008950F9300E020E040E060E086EA94E086
:1057C0000E94DB2F0F9108951F920F920FB60F9238
:1057D00011242F933F938F939F93AF93BF93809107
:1057E000AD049091AE04A091AF04B091B00430919B
:1057F000AC0423E0230F2D3720F40196A11DB11D29
:1058000005C026E8230F0296A11DB11D2093AC040C
:105810008093AD049093AE04A093AF04B093B00412
:105820008091B1049091B204A091B304B091B404FA
:105830000196A11DB11D8093B1049093B204A09371
:10584000B304B093B404BF91AF919F918F913F91F6
:105850002F910F900FBE0F901F9018952FB7F894AF
:105860006091AD047091AE048091AF049091B0044A
:105870002FBF08953FB7F8948091B1049091B2047E
:10588000A091B304B091B40426B5A89B05C02F3FE6
:1058900019F00196A11DB11D3FBF6627782F892FF2
:1058A0009A2F620F711D811D911D42E0660F771FB7
:1058B000881F991F4A95D1F70895CF92DF92EF92F2
:1058C000FF92CF93DF936B017C010E943A2CEB0196
:1058D000C114D104E104F10489F00E94E7330E946D
:1058E0003A2C6C1B7D0B683E734090F381E0C81A24
:1058F000D108E108F108C851DC4FEACFDF91CF9120
:10590000FF90EF90DF90CF900895789484B58260F7
:1059100084BD84B5816084BD85B5826085BD85B553
:10592000816085BDEEE6F0E0808181608083E1E802
:10593000F0E010828081826080838081816080833A
:10594000E0E8F0E0808181608083E1EBF0E080813D
:1059500084608083E0EBF0E0808181608083EAE70F
:10596000F0E0808184608083808182608083808198
:10597000816080838081806880831092C100089557
:10598000833081F028F4813099F08230A1F00895BD
:105990008730A9F08830B9F08430D1F4809180004C
:1059A0008F7D03C0809180008F7780938000089561
:1059B00084B58F7702C084B58F7D84BD08958091B2
:1059C000B0008F7703C08091B0008F7D8093B000CE
:1059D0000895CF93DF9390E0FC01EC55F14F2491B3
:1059E000FC01E854F14F8491882349F190E0880F3D
:1059F000991FFC01E052F14FA591B4918A52914F49
:105A0000FC01C591D4919FB7611108C0F8948C91A5
:105A1000209582238C93888182230AC0623051F4BE
:105A2000F8948C91322F309583238C938881822B2C
:105A3000888304C0F8948C91822B8C939FBFDF9154
:105A4000CF9108950F931F93CF93DF931F92CDB7FC
:105A5000DEB7282F30E0F901E057F14F8491F901CA
:105A6000EC55F14F1491F901E854F14F04910023E2
:105A7000C9F0882321F069830E94C02C6981E02F3E
:105A8000F0E0EE0FFF1FEA52F14FA591B4919FB7DE
:105A9000F8948C91611103C01095812301C0812B72
:105AA0008C939FBF0F90DF91CF911F910F9108951D
:105AB000CF93DF93282F30E0F901E057F14F849125
:105AC000F901EC55F14FD491F901E854F14FC4912B
:105AD000CC2391F081110E94C02CEC2FF0E0EE0F4E
