:100000000C9426080C944E080C944E080C945B1D1E
:100010000C945B1D0C945B1D0C944E080C944E08C4
:100020000C944E080C944E080C944E080C944E08F8
:100030000C944E080C944E080C944E080C944E08E8
:100040000C94B72B0C944E080C94D92E0C940B2FB7
:100050000C944E080C944E080C944E080C944E08C8
:100060000C944E080C944E084175746F7374617251
:10007000743A20003A005265626F6F74696E6720AF
:10008000576946692E2E2E005265626F6F74204D9F
:100090006963726F56696577202620576946692023
:1000A000746F20736574206E657720706F72742E84
:1000B000000D0A507265737320616E79206B65794B
:1000C00020746F2063616E63656C2E2E2E00417567
:1000D000746F2D636F6E6E656374696E6720746FE5
:1000E0003A0D0A00576966693A256C640A0A433674
:1000F000343A20256C6400576966693A256C640AB5
:100100000A4336343A20256C640A0A5254533A2082
:10011000256C64002A2A2A205465726D696E616C10
:10012000204D6F64652028446562756729202A2A5E
:100130002A00436F6E6E656374696F6E20636C6F27
:1001400073656400436F6E6E656374204661696C0D
:1001500065642100436F6E6E656374656420746F1F
:1001600020257300436F756C64206E6F7420726578
:10017000736F6C766520444E532E2020436F6E6E55
:10018000656374204661696C656421000D0A436FE4
:100190006E6E656374696E6720746F202573002925
:1001A0003A20000D0A506F7274202800293A20006E
:1001B0000D0A54656C6E657420686F737420280096
:1001C000496E636F6D696E6720436F6E6E65637411
:1001D000696F6E000D0A57616974696E6720666FFA
:1001E0007220636F6E6E656374696F6E206F6E2030
:1001F000706F72742000293A20000D0A496E636FF7
:100200006D696E6720706F727420280053534944E3
:100210000A0A257300495020416464726573732093
:100220000A2573004261756420526174650A0A25CB
:1002300075004669726D776172650A0A2573004C14
:10024000697374656E20706F72743A20004669722B
:100250006D776172653A202020200057692D46692C
:1002600020535349443A202000495020416464728D
:100270006573733A2020004D4143204164647265E8
:1002800073733A2000202844656C20746F207377C4
:100290006974636829004153434949204D6F64657F
:1002A000000D0A456E747279202320746F207365E7
:1002B0007420746F206175746F2D73746172743F54
:1002C0000D0A283020746F2064697361626C65299F
:1002D0003A20000D0A456E7465722061646472658F
:1002E00073733A20000D0A456E74727920232074CE
:1002F0006F206D6F646966793F20283020746F200D
:1003000061626F7274293A20000D0A53656C65634F
:10031000743A20232C206D20746F206D6F64696601
:10032000792C206120746F207365740D0A617574D7
:100330006F2D73746172742C203020746F20676F7E
:10034000206261636B3A20000D0A4572726F722061
:100350006A6F696E696E67206E6574776F726B0085
:100360000D0A53534944205375636365737366756F
:100370006C6C79206368616E67656400535349440F
:100380003A00506173737068726173653A004B652F
:10039000793A00556E6B6E6F776E206F7074696F6F
:1003A0006E2C2074727920616761696E000D0A43BA
:1003B00068616E676520535349440D0A0D0A312E5A
:1003C000205745500D0A322E20575041202F2057DC
:1003D0005041320D0A332E2052657475726E2074AE
:1003E0006F20436F6E66696775726174696F6E2006
:1003F0004D656E750D0A0D0A53656C6563743A2080
:1004000000556E6B6E6F776E206F7074696F6E2C17
:100410002074727920616761696E00352E2044690D
:1004200072656374205465726D696E616C204D6FE6
:10043000646520284465627567290D0A362E2052AE
:10044000657475726E20746F204D61696E204D6504
:100450006E750D0A0D0A53656C6563743A2000349D
:100460002E2025732044434420616C7761797320EA
:100470006F6E00332E20257320666C6F7720636FBC
:100480006E74726F6C000D0A436F6E6669677572E9
:100490006174696F6E204D656E750D0A0D0A312EFF
:1004A00020446973706C61792043757272656E7453
:1004B00020436F6E66696775726174696F6E0D0AAD
:1004C000322E204368616E676520535349440D0AFC
:1004D00000556E6B6E6F776E206F7074696F6E2C47
:1004E0002074727920616761696E00312E20546535
:1004F0006C6E657420746F20686F7374206F722047
:100500004242530D0A322E2050686F6E6520426FB2
:100510006F6B0D0A332E205761697420666F72204D
:10052000696E636F6D696E6720636F6E6E6563746D
:10053000696F6E0D0A342E20436F6E66696775729F
:100540006174696F6E0D0A0D0A53656C6563743AC8
:10055000200052454144592E000D0A436F6D6D6FC6
:10056000646F72652057692D4669204D6F64656D13
:100570000057692D4669204661696C656421005702
:10058000692D4669204F4B210057692D4669204946
:100590006E69742E2E2E00256C6400426175640A0B
:1005A000446574656374696F6E00050800FF0C4B49
:1005B00000000000003E5B4F5B3E3E6B4F6B3E1CFD
:1005C0003E7C3E1C183C7E3C181C577D571C1C5E14
:1005D0007F5E1C00183C1800FFE7C3E7FF001824EB
:1005E0001800FFE7DBE7FF30483A060E2629792995
:1005F00026407F050507407F05253F5A3CE73C5ACA
:100600007F3E1C1C08081C1C3E7F14227F22145FA6
:100610005F005F5F06097F017F006689956A606001
:1006200060606094A2FFA29408047E040810207EFB
:10063000201008082A1C08081C2A08081E10101080
:10064000100C1E0C1E0C30383E3830060E3E0E06C6
:10065000000000000000005F000000070007001419
:100660007F147F14242A7F2A1223130864623649D8
:100670005620500008070300001C224100004122C0
:100680001C002A1C7F1C2A08083E080800807030C5
:100690000008080808080000606000201008040234
:1006A0003E5149453E00427F40007249494946213A
:1006B00041494D331814127F1027454545393C4AAE
:1006C00049493141211109073649494936464949C5
:1006D000291E00001400000040340000000814220D
:1006E000411414141414004122140802015909067B
:1006F0003E415D594E7C1211127C7F494949363E7C
:10070000414141227F4141413E7F494949417F0961
:100710000909013E414151737F0808087F00417F6C
:1007200041002040413F017F081422417F4040406A
:10073000407F021C027F7F0408107F3E4141413E02
:100740007F090909063E4151215E7F091929462684
:100750004949493203017F01033F4040403F1F2088
:1007600040201F3F4038403F63140814630304785F
:1007700004036159494D43007F414141020408107F
:1007800020004141417F04020102044040404040BA
:10079000000307080020545478407F284444383828
:1007A00044444428384444287F385454541800089A
:1007B0007E090218A4A49C787F0804047800447D74
:1007C00040002040403D007F1028440000417F4011
:1007D000007C047804787C08040478384444443865
:1007E000FC1824241818242418FC7C080404084845
:1007F0005454542404043F44243C4040207C1C2096
:1008000040201C3C4030403C44281028444C9090F0
:10081000907C4464544C440008364100000077004A
:1008200000004136080002010204023C2623263C57
:100830001EA1A161123A4040207A385454555921E2
:1008400055557941215454784121555478402054CC
:100850005579400C1E527212395555555939545418
:10086000545939555454580000457C410002457D87
:10087000420001457C40F0292429F0F0282528F089
:100880007C545545002054547C547C0A097F4932DD
:10089000494949323248484832324A4848303A4158
:1008A00041217A3A42402078009DA0A07D394444FD
:1008B00044393D4040403D3C24FF2424487E494388
:1008C000662B2FFC2F2BFF0929F620C0887E0903F9
:1008D00020545479410000447D413048484A323820
:1008E0004040227A007A0A0A727D0D19317D26294C
:1008F000292F28262929292630484D402038080844
:10090000080808080808382F10C8ACBA2F10283477
:10091000FA00007B000008142A142222142A14086A
:10092000AA005500AAAA55AA55AA000000FF001067
:100930001010FF00141414FF001010FF00FF10101F
:10094000F010F0141414FC001414F700FF0000FF62
:1009500000FF1414F404FC141417101F10101F10BF
:100960001F1414141F00101010F0000000001F10BE
:100970001010101F10101010F010000000FF1010C9
:1009800010101010101010FF10000000FF140000D5
:10099000FF00FF00001F10170000FC04F4141417E0
:1009A00010171414F404F40000FF00F714141414C6
:1009B000141414F700F7141414171410101F101F38
:1009C000141414F4141010F010F000001F101F0085
:1009D00000001F14000000FC140000F010F01010C4
:1009E000FF10FF141414FF141010101F000000005B
:1009F000F010FFFFFFFFFFF0F0F0F0F0FFFFFF004F
:100A000000000000FFFF0F0F0F0F0F384444384461
:100A10007C2A2A3E147E02020606027E027E0263C1
:100A2000554941633844443C04407E201E20060260
:100A30007E020299A5E7A5991C2A492A1C4C72013D
:100A4000724C304A4D4D303048784830BC625A467E
:100A50003D3E494949007E0101017E2A2A2A2A2A6F
:100A600044445F444440514A444040444A51400059
:100A700000FF0103E080FF000008086B6B083612DE
:100A8000362436060F090F06000018180000001063
:100A900010003040FF0101001F01011E00191D1749
:100AA00012003C3C3C3C0000000000636C6F73652E
:100AB0003A206661696C65642C206E6F202A434C75
:100AC0004F532A002A434C4F532A00636C6F7365BF
:100AD0000D00636C6F73653A206661696C65642C08
:100AE000206E6F202A434C4F532A002A434C4F5309
:100AF0002A00636C6F73650D004F50454E2A00301D
:100B00002E302E302E30004F50454E2A000D006FF3
:100B100070656E20004F50454E2A000D006F7065C5
:100B20006E20003235352E3235352E302E300031E4
:100B300036392E3235342E312E310036342062795A
:100B40007465730050696E67207472790070696E05
:100B500067200073657420752069006C6561766597
:100B60000D0047573D000D006A6F696E200041730C
:100B7000736F63696174656421004641494C454463
:100B800000736574206164686F632070726F6265C2
:100B900000736574206164686F6320626561636FD0
:100BA0006E0073657420776C616E207478007365D5
:100BB0007420776C616E20726174650073657420B7
:100BC0006F7074207265706C61636500736574206A
:100BD000776C616E20706872617365007365742054
:100BE000776C616E206B65790073657420776C613A
:100BF0006E206368616E0073657420776C616E208F
:100C0000737369640073657420776C616E20686922
:100C100064652031007365742073797320696F6691
:100C2000756E630073657420636F6D6D2073697AF0
:100C3000650073657420636F6D6D206D617463680A
:100C40000073657420636F6D6D2074696D6500308D
:100C50002E302E302E30007365742062726F616406
:100C60006361737420696E74657276616C0073657C
:100C7000742075617274206D6F64650073657420F3
:100C800074696D6520656E61626C650073657420C2
:100C900074696D65207A6F6E650073657420746980
:100CA0006D6520706F7274007365742074696D6572
:100CB00020616464726573730073657420697020C9
:100CC000666C616773007365742069702070726F61
:100CD000746F636F6C00736574206970206468635F
:100CE000700073657420646E732061646472657350
:100CF000730073657420697020676174657761792A
:100D000000736574206970206E65746D61736B008B
:100D1000736574206970206E65746D61736B007308
:100D200065742069702072656D6F746500736574F9
:100D300020697020686F7374007365742069702077
:100D4000686F737400736574206970206C6F6361E1
:100D50006C706F72740073657420697020616464D4
:100D600072657373007365742069702061646472C6
:100D70006573730073657420776C616E206A6F69A8
:100D80006E00736574206F206400736574206F209B
:100D9000640053657420466163746F727920446502
:100DA0006661756C747300666163746F727920524A
:100DB0004553544F52450D002A5265626F6F742A95
:100DC000007265626F6F740D0053746F72696E67A5
:100DD00000736176650D003C74696D656F75743ED6
:100DE00000414F4B0D0A004552523A2000534552E4
:100DF000564552004341434845004155544F4950E0
:100E0000004F4E004F4646006C6F6F6B75702000B0
:100E100074696D650D00736C6565700D00736574A4
:100E2000207379732077616B650073686F77206337
:100E30000D00455849540D0A00657869740D00434A
:100E40004D440D0A0024242400434D440D0A00247F
:100E50002424003A200064656275672064756D7013
:100E6000002A4F50454E2A002A434C4F532A007304
:100E7000657420636F6D6D2072656D6F74652030D1
:100E80000073657420737973207072696E746C7668
:100E90006C2030007365742075206D203100526520
:100EA000706C6163653D005478506F7765723D00EA
:100EB000526174653D004A6F696E3D005265626F14
:100EC0006F743D0050726F62653D00426561636FF3
:100ED0006E3D00676574206164686F630D00505259
:100EE0004F544F3D00464C4147533D3078005253DC
:100EF00053493D282D0073686F7720727373690D15
:100F000000466C75736853697A653D004D61746382
:100F100068436861723D00466C75736854696D651D
:100F2000723D0067657420636F6D6D0D004D6F64D9
:100F3000653D005254433D0073686F772074207400
:100F40000D00416464726573733D006765742064CD
:100F50006E730D0054696D653D00557054696D6583
:100F60003D0073686F772074696D650D005A6F6E70
:100F7000653D006765742074696D650D004261759B
:100F800064726174653D0067657420750D00446589
:100F90007669636549643D00676574206F70740D00
:100FA00000535349443D0067657420776C616E0DB2
:100FB000004D616320416464723D00676574206D7B
:100FC00061630D00444843503D00484F53543D0079
:100FD00047573D004E4D3D0049503D006765742028
:100FE00069700D0000000008000201000003040702
:100FF00000000000000000000102040810204080F2
:101000000102040810200102040810200404040452
:1010100004040404020202020202030303030303A2
:101020000000000023002600290000000000250029
:1010300028002B0000000000240027002A00A20D39
:101040005D1CA12BAC2B312FBA2FD70D11241FBE45
:10105000CFEFD8E0DEBFCDBF13E0A0E0B1E0E8E124
:10106000F4E702C005900D92AA3CB107D9F725E03C
:10107000AAECB3E001C01D92A638B207E1F710E177
:10108000CAE4D0E104C02297FE010E941A34CE3394
:10109000D107C9F70E94FA160C94FF390C9400008E
:1010A000CF92DF92EF92FF920F931F93E82FF92FC9
:1010B00005C0015011092109310961F19081962380
:1010C0009417B9F305C0015011092109310911F133
:1010D000908196239413F7CFC12CD12CE12CF12CC5
:1010E0000AC08FEFC81AD80AE80AF80A0C151D05BD
:1010F0002E053F0579F080818623841791F36C2DAE
:101100007D2D8E2D9F2D1F910F91FF90EF90DF90E1
:10111000CF90089560E070E080E090E01F910F9123
:10112000FF90EF90DF90CF9008950C940939CF9302
:10113000DF93EC0160E08BE594E00E94A51B40E0AA
:1011400060E08BE594E00E94A719BE018BE594E076
:101150000E9457308BE594E0DF91CF910C94B41B43
:10116000CF93DF93EC0160E08BE594E00E94A51B38
:1011700040E060E08BE594E00E94A719BE018BE59A
:1011800094E00E9469308BE594E0DF91CF910C945C
:10119000B41BCF93DF9300D000D000D0CDB7DEB723
:1011A0002091CA03222399F0FC0160817181CE0154
:1011B00001960E948419BE016F5F7F4F86E394E021
:1011C0000E942A30CE0101960E948F3105C0BC01D9
:1011D00086E394E00E942A3026960FB6F894DEBF8C
:1011E0000FBECDBFDF91CF910895CF93DF9300D095
:1011F00000D000D0CDB7DEB7BC01CE0101960E9471
:101200008132CE0101960E94C908CE0101960E944A
:101210008F3186E394E00E94413026960FB6F89411
:10122000DEBF0FBECDBFDF91CF9108950F931F9307
:10123000CF93DF9300D000D000D0CDB7DEB78C01C4
:10124000BC01CE0101960E948132CE0101960E941E
:10125000F508CE0101960E948F314AE060E2C80194
:101260000E943633B801CE0101960E948132CE0130
:1012700001960E949708CE0101960E948F31269612
:101280000FB6F894DEBF0FBECDBFDF91CF911F9197
:101290000F910895CF93DF9300D000D000D0CDB749
:1012A000DEB7BC018091CA03882381F0CE0101968C
:1012B0000E948419BE016F5F7F4F86E394E00E9415
:1012C0002A30CE0101960E948F3104C086E394E05B
:1012D0000E94383026960FB6F894DEBF0FBECDBF01
:1012E000DF91CF9108950E944A0986E394E00C941F
:1012F0004130CF93DF9300D000D000D0CDB7DEB720
:10130000BC01CE0101960E94FD3189819A810E9423
:1013100073094AE060E2CE0101960E94363389816A
:101320009A810E94B008CE0101960E948F312696C4
:101330000FB6F894DEBF0FBECDBFDF91CF910895F9
:1013400086E394E00C944130CF93DF93CDB7DEB7C2
:1013500067970FB6F894DEBF0FBECDBF0E94A009FD
:101360008091CA03882389F087E1EEE8F2E0DE018C
:10137000119601900D928A95E1F7BE016F5F7F4F44
:1013800086E394E00E94383006C066E972E086E3A6
:1013900094E00E94073065E872E0CE0101960E9459
:1013A000CF32CE0101960E94F508CE0101960E942F
:1013B0008F310E94A00967960FB6F894DEBF0FBE6A
:1013C000CDBFDF91CF910895883031F091E0843125
:1013D00009F090E0892F089581E00895BF92CF929F
:1013E000DF92EF92FF920F931F93CF93DF93CDB7CE
:1013F000DEB7C457D1090FB6F894DEBF0FBECDBF1C
:10140000B82E44E150E0BE01655A7F4F80EE93E074
:101410000E946B2644E150E0BE01655A7F4F80EE8A
:1014200093E00E946B266E0187E4C80ED11C44E154
:1014300050E0B60180EE93E00E9415267E0193E312
:10144000E90EF11C44E150E0B70180EE93E00E9408
:10145000712680EE93E00E9433269093CC03809314
:10146000CB0367E772E08E010F5F1F4FC8010E9438
:10147000CF32C8010E94C908C8010E948F31BE0145
:10148000655A7F4FC8010E94FD31C8010E94F508CE
:10149000C8010E948F3169E672E0C8010E94CF3214
:1014A000C8010E94C908C8010E948F31B601C80155
:1014B0000E94FD31C8010E94F508C8010E948F31C9
:1014C0006BE572E0C8010E94CF32C8010E94C908D2
:1014D000C8010E948F31B701C8010E94FD31C801C7
:1014E0000E94F508C8010E948F316DE472E0C801C6
:1014F0000E94CF32C8010E94C908C8010E948F31E2
:1015000065EA72E0C8010E94FD31C8010E94F50839
:10151000C8010E948F316FE372E0C8010E94CF3290
:10152000C8010E94C908C8010E948F316091CB0395
:101530007091CC034AE050E086E394E00E943031A1
:1015400086E394E00E944130BB2009F48BC085EA19
:1015500092E09F938F9382E392E09F938F931F93E8
:101560000F930E941537B801CE0181599F4F0E94F9
:10157000FD31CE0181599F4F0E949708CE018159BC
:101580009F4F0E948F3168EE73E080E090E00E94F0
:10159000302C80910B018F9380910A018F9384E20C
:1015A00092E09F938F931F930F930E941537B8017A
:1015B000CE0181599F4F0E94FD31CE0181599F4F2D
:1015C0000E949708CE0181599F4F0E948F3168EE8B
:1015D00073E080E090E00E94302CDF92CF9285E1B2
:1015E00092E09F938F931F930F930E941537B8013A
:1015F000CE0181599F4F0E94FD31CE0181599F4FED
:101600000E949708CE0181599F4F0E948F3168EE4A
:1016100073E080E090E00E94302CFF92EF928CE02B
:1016200092E09F938F931F930F930E941537B801F9
:10163000CE0181599F4F0E94FD31CE0181599F4FAC
:101640000E949708CE0181599F4F0E948F3168EE0A
:1016500073E080E090E00E94302C0FB6F894DEBF7B
:101660000FBECDBFCC58DF4F0FB6F894DEBF0FBE14
:10167000CDBFDF91CF911F910F91FF90EF90DF9041
:10168000CF90BF9008958091CF03811108C08091C1
:101690000A0190910B01803C924108F4089535991C
:1016A00007C08091B0008F7D8093B0005B9AF7CF28
:1016B0008091B0008F7D8093B0005B980895CF93A8
:1016C000DF93EC01E881F9810480F581E02DCE0102
:1016D0000995892BB9F3E881F9810680F781E02D1E
:1016E000CE01DF91CF9109948F929F92AF92BF92DA
:1016F000CF92DF92EF92FF92CF93DF93EC014B01F9
:101700000E94012C6B017C01A12CB12CE881F98194
:101710000480F581E02DCE010995892BC1F40E944A
:10172000012C6C197D098E099F0986169706A8065B
:10173000B90660F78FEF9FEFDF91CF91FF90EF90A9
:10174000DF90CF90BF90AF909F908F900895E881E9
:10175000F9810084F185E02DCE01DF91CF91FF90DA
:10176000EF90DF90CF90BF90AF909F908F900994B3
:10177000CF92DF92EF92FF92CF93C82F0E94012C5D
:101780006B017C010E94012C685B7B4081099109FF
:101790006C157D058E059F0508F473C08C2F0E9483
:1017A0002B2D892B79F720E432E44FE050E060E004
:1017B0008C2F0E94542D6C30710581059105A4F188
:1017C0006431710581059105A4F16D3171058105C3
:1017D0009105A4F16832710581059105A4F16C337E
:1017E000710581059105A4F16035710581059105AB
:1017F000A4F16639710581059105A4F16C3221E0EF
:101800007207810591059CF1683522E07207810518
:10181000910594F1603B74408105910594F560EB6E
:1018200074E080E090E030C060E072EC81E090E035
:101830002BC060E071EE80E090E026C060E076E9C9
:1018400080E090E021C060E870E780E090E01CC09C
:1018500060E07BE480E090E017C060E478E380E043
:1018600090E012C060E875E280E090E00DC060ECAE
:1018700072E180E090E008C060E679E080E090E00E
:1018800003C060E070E0CB01CF91FF90EF90DF905C
:10189000CF9008950F931F93CF93DF931F92CDB7EF
:1018A000DEB78C0169830E9495086981861741F033
:1018B000C8010F90DF91CF911F910F910C941139B6
:1018C0000F90DF91CF911F910F9108958093CA03DC
:1018D000682F80E090E00C944A0CEF92FF920F93F7
:1018E0001F93CF93DF937C018B01C0E0D0E0D80140
:1018F000ED91FC91EC0FFD1F6081CE018E0D9F1DBF
:101900000E9411392196C632D10589F7DF91CF9116
:101910001F910F91FF90EF900895AF92BF92CF92D9
:10192000DF92EF92FF920F931F93CF93DF93CDB788
:10193000DEB7A8970FB6F894DEBF0FBECDBF6C011F
:101940007B018E010F5F1F4F5E0187E2A80EB11C65
:10195000B801E01AF10AC701800F911F6FA378A7A1
:101960000E949508F80181938F016FA178A5EA156F
:10197000FB0589F7C6010E94FD31C601A8960FB686
:10198000F894DEBF0FBECDBFDF91CF911F910F91B5
:10199000FF90EF90DF90CF90BF90AF900895FC0143
:1019A0002191222331F0DC012C932032C9F30196DE
:1019B000F7CFFC01108208950F931F93CF93DF930D
:1019C00000D000D000D0CDB7DEB78C018091CB0322
:1019D0009091CC0380179107E1F1B80180EE93E07C
:1019E0000E94872880EE93E00E945F281093CC032A
:1019F0000093CB03809108019091090180369940B2
:101A000081F068E870E0CE0101960E94CF32CE01ED
:101A100001960E94F508CE0101960E948F3181E067
:101A200019C066E770E0CE0101960E94CF32CE0168
:101A300001960E94F508CE0101960E948F3180EE3A
:101A400093E00E944E2968E873E180E090E00E94F4
:101A5000302C80E026960FB6F894DEBF0FBECDBFC7
:101A6000DF91CF911F910F9108959091CE03913006
:101A700019F091E09827892F90E00895EF92FF9256
:101A80000F931F93CF93DF9300D000D000D0CDB73A
:101A9000DEB784E6E82EF12C00E010E00F5F1F4F68
:101AA0004AE050E0B80186E394E00E94303164E7F8
:101AB00070E0CE0101960E94CF32CE0101960E94C5
:101AC000C908CE0101960E948F31B701CE0101965F
:101AD0000E948D0CCE0101960E94F508CE01019660
:101AE0000E948F3188E2E80EF11C09301105B1F631
:101AF0000E94A00968E670E0CE0101960E94CF32F4
:101B0000CE0101960E94C908CE0101960E948F3134
:101B100083E690E00E9495084AE050E0682F86E353
:101B200094E00E945D310E94A00926960FB6F894B9
:101B3000DEBF0FBECDBFDF91CF911F910F91FF9000
:101B4000EF9008950F9300E020E040E060E085E52D
:101B500094E00E94AE2F20E046E065E086E394E04A
:101B60000E942E1E80EE93E00E94742B6BEB73E0BC
:101B70008AED93E00E94FD3141E020910A0130910D
:101B80000B0180910801909109012817390709F488
:101B900040E04093D00380E090E00E94950891E0FF
:101BA000811101C090E09093CA030F9108958AEDCE
:101BB00093E00E948F3186E394E00C94D51DDF9270
:101BC000EF92FF920F931F93CF93DF93CDB7DEB7C2
:101BD000E2970FB6F894DEBF0FBECDBF7C0100E0E8
:101BE00010E086E394E00E945F0BD82EE1E0F0E085
:101BF000EC0FFD1FE00FF11F8083682F86E394E058
:101C00000E94891C8D2D0E94E409882329F001156A
:101C1000110579F0025011098DE0D81669F00133F1
:101C2000110551F00F5F1F4F0F3F8FEF1807C9F6D7
:101C3000D6CF8DE0D812F6CFE1E0F0E0EC0FFD1F3B
:101C4000E00FF11F1082BE016F5F7F4FC7010E943E
:101C5000FD31C701E2960FB6F894DEBF0FBECDBFCF
:101C6000DF91CF911F910F91FF90EF90DF9008953A
:101C70000F931F93CF93DF9300D000D000D0CDB748
:101C8000DEB78C01CE0101960E94DF0DCE010196D8
:101C90000E9444338091CA03882331F069817A819C
:101CA000C8010E94431906C0BE016F5F7F4FC80183
:101CB0000E946A31CE0101960E948F31C80126969A
:101CC0000FB6F894DEBF0FBECDBFDF91CF911F914D
:101CD0000F9108950F931F93CF93DF93CDB7DEB786
:101CE0002C970FB6F894DEBF0FBECDBF6DEA73E040
:101CF000CE0101960E94CF32CE0101960E94F508D6
:101D0000CE0101960E948F3186E394E00E945F0B22
:101D10008C01682F86E394E00E947B30043111052A
:101D2000E1F05CF40A30110509F30D301105F1F210
:101D300008301105B1F480E011C001331105F1F054
:101D400024F40032110591F20CC002331105C9F0E0
:101D50000333110509F4C4C004C081E00E94660C7D
:101D6000C5CF63E973E0CE0101960E94CF32CE0168
:101D700001960E94F508CE010196AFC001E010E087
:101D800002C000E010E00E94A0096BEB73E0CE01FE
:101D900007960E94FD310130110521F56EE873E0D0
:101DA000CE0101960E94CF32CE0101960E94C90851
:101DB000CE0101960E948F31CE0101960E94380E0D
:101DC000BE016F5F7F4FCE0107960E948A32CE011F
:101DD00001960E948F316F81788580EE93E00E949A
:101DE000C32823C062E873E0CE0101960E94CF327F
:101DF000CE0101960E94C908CE0101960E948F3142
:101E0000CE0101960E94380EBE016F5F7F4FCE015A
:101E100007960E948A32CE0101960E948F316F810F
:101E2000788580EE93E00E94E2280E94A0096CE78A
:101E300073E0CE0101960E94CF32CE0101960E943E
:101E4000C908CE0101960E948F31CE0101960E94F1
:101E5000380EBE016F5F7F4FCE0107960E948A3217
:101E6000CE0101960E948F316F81788580EE93E0DC
:101E70000E94B82880EE93E00E945F2880EE93E0F5
:101E80000E94112A60E27EE480EE93E00E94E8293D
:101E9000882399F060E673E0CE0101960E94CF326C
:101EA000CE0101960E94F508CE0101960E948F3165
:101EB000CE0107960E948F3113C068E473E0CE0113
:101EC00001960E94CF32CE0101960E94F508CE0104
:101ED00001960E948F31CE0107960E948F3106CF66
:101EE0002C960FB6F894DEBF0FBECDBFDF91CF9119
:101EF0001F910F9108950F931F93CF93DF9300D0FD
:101F000000D000D0CDB7DEB763EA71E0CE01019614
:101F10000E94CF32CE0101960E94C908CE010196DF
:101F20000E948F3160910601709107014AE050E0F4
:101F300086E394E00E9430316FE971E0CE010196B2
:101F40000E94CF32CE0101960E94C908CE010196AF
:101F50000E948F31CE0101960E94380E8D819E81A4
:101F6000892B31F0CE0101960E94A3338B0104C06E
:101F70000091060110910701CE0101960E948F3158
:101F8000C80126960FB6F894DEBF0FBECDBFDF9115
:101F9000CF911F910F910895CF93DF93CDB7DEB707
:101FA000E8970FB6F894DEBF0FBECDBF64E171E0D5
:101FB0008E010F5F1F4FC8010E94CF32C8010E94DF
:101FC000F508C8010E948F31412C512C3201C12CDF
:101FD000D12C7601312C97EFA92E90E0B92E24EE6A
:101FE000822E20E0922E80EE93E00E94142218169A
:101FF00019069CF46FEFC61AD60AE60AF60A0E9482
:10200000430B80EE93E00E94B921682F86E394E0B1
:102010000E94891C33243394E6CF86E394E00E9427
:10202000F51C181619068CF48FEF481A580A680A1E
:10203000780A86E394E00E94681C682F80EE93E0A3
:102040000E944E2033243394E8CF9201A301332021
:1020500051F28091CF0381110BC080910A019091C0
:102060000B01803C924120F48091D003882399F0A9
:102070001F921F921F921F925F934F933F932F9334
:10208000FF92EF92DF92CF92BF92AF921F930F9386
:102090000E9415370EC07F926F925F924F92FF920F
:1020A000EF92DF92CF929F928F921F930F930E9495
:1020B00015370FB6F894DEBF0FBECDBFB801CE0105
:1020C000C3960E94FD31CE01C3960E949708CE01AF
:1020D000C3960E948F3187CF9F92AF92BF92CF92CB
:1020E000DF92EF92FF920F931F93CF93DF93CDB7C1
:1020F000DEB7A4970FB6F894DEBF0FBECDBFCE01FA
:1021000001967C0133E7C32E34E0D32E4FE5A42E95
:1021100044E0B42E9924939466E874E0C7010E94C9
:10212000CF32C7010E94C908C7010E948F31809138
:10213000CF03882319F08AEA92E002C082EB92E092
:102140009F938F93DF92CF92FF92EF920E94153769
:10215000B701CE014F960E94FD31CE014F960E94ED
:10216000F508CE014F960E948F310F900F900F907F
:102170000F900F900F908091CD03811103C08AEAD8
:1021800092E002C082EB92E09F938F93BF92AF9256
:10219000FF92EF920E941537B701CE014F960E9431
:1021A000FD31CE014F960E94F508CE014F960E9458
:1021B0008F316BE174E0CE014F960E94CF32CE0199
:1021C0004F960E94C908CE014F960E948F3186E338
:1021D00094E00E945F0B8C01682F86E394E00E94DC
:1021E0007B300F900F900F900F900F900F90013356
:1021F000110589F1BCF40D30110509F48DCF4CF4B3
:102200000830110509F447C00A30110509F484CFDC
:1022100048C00431110509F440C00032110509F429
:102220007BCF3FC004331105E9F074F4023311058C
:10223000B1F003331105A9F56091CF0369256093CF
:10224000CF038BE090E022C00533110511F1063376
:102250001105B1F126C080E00E94EE095DCF0E9419
:102260006A0E5ACF8091CD0389258093CD038823B0
:1022700011F080E001C081E00E94350D682F80E1FF
:102280000E94F52C6091CD0381E190E00E944A0C00
:1022900043CF0E94CC0F80E001C081E00E94660C19
:1022A0003BCF61E074E0CE014F960E94CF32CE0169
:1022B0004F960E94F508CE014F960E948F312CCF89
:1022C000A4960FB6F894DEBF0FBECDBFDF91CF91BD
:1022D0001F910F91FF90EF90DF90CF90BF90AF9044
:1022E0009F9008951F93CF93DF93EC01162F6FEF0C
:1022F00080EE93E00E944E20CD3FD10511F46DEFAA
:1023000001C06BEF80EE93E00E944E20612F80EEC3
:1023100093E0DF91CF911F910C944E201F93CF93A8
:10232000DF93EC01162F6FEF80EE93E00E944E20BA
:10233000CD3FD10511F46CEF01C06EEF80EE93E05C
:102340000E944E20612F80EE93E0DF91CF911F918C
:102350000C944E206FEF80EE93E00E944E206EEFC3
:1023600080EE93E00E944E2062E280EE93E00E94B5
:102370004E206FEF80EE93E00E944E206EEF80EED5
:1023800093E00E944E2061E080EE93E00C944E209A
:10239000CF93DF9360E177E280EE93E00E94740BCD
:1023A0008F3F910591F50E94AA1168E873E180EED4
:1023B00093E00E94740B8F3F910539F580EE93E016
:1023C0000E945F0B80EE93E00E945F0BEC018F3F59
:1023D0002FEF920751F38B5F9109049730F780EE4E
:1023E00093E00E945F0B8F3F2FEF9207F1F2833053
:1023F000910531F463E070E0CE010E947211D5CFF7
:10240000BC01CE010E948E11D0CFDF91CF910895F3
:10241000CF92DF92EF92FF921F93CF93DF9300D082
:1024200000D000D0CDB7DEB786E394E00E94681CF0
:10243000182F0E94012C685E734081099109C09099
:10244000D303D090D403E090D503F090D603C61602
:10245000D706E806F906D8F41B32B9F48091D70301
:102460009091D8038B32910531F081E08093D903AC
:102470008BE290E005C02091D9032F5F2093D90310
:102480009093D8038093D7030CC01092D9030E9475
:10249000012C6093D3037093D4038093D50390935E
:1024A000D6038091D9038330D9F469EB72E0CE0171
:1024B00001960E94FD31CE0101960E949708CE013F
:1024C00001960E948F3181E08093D2031092D9034C
:1024D0001092D3031092D4031092D5031092D60316
:1024E000612F80EE93E00E944E2026960FB6F8945E
:1024F000DEBF0FBECDBFDF91CF911F91FF90EF9058
:10250000DF90CF900895CF92DF92EF92FF920F93DA
:102510001F93CF93DF93CDB7DEB7CA56D1090FB65D
:10252000F894DEBF0FBECDBFCE0101967C0180EED8
:1025300093E00E941422019609F46CC08091D003AC
:102540008823F1F100E010E080EE93E00E94142275
:1025500018161906B4F48091B0008F7D8093B000F6
:102560005B9A80EE93E00E94B921F701E00FF11F22
:1025700080830F5F1F4F0436110534F303E610E02C
:10258000E3CF6701C6018E199F09801791078CF46C
:10259000F60161916F0186E394E00E94891C86E355
:1025A00094E00E94F51C1816190664F70E940812A0
:1025B000F6CF8091B0008F7D8093B0005B9813C000
:1025C00080EE93E00E9414221816190664F40E940B
:1025D000430B80EE93E00E94B921682F86E394E0DC
:1025E0000E94891CEDCF86E394E00E94F51C18162A
:1025F00019061CF40E940812F6CF80EE93E00E94A8
:10260000612A882329F08091D203882309F48FCF8F
:102610001092D20380EE93E00E946E2A62E371E092
:10262000CE018B599F4F0E94CF32CE018B599F4FC5
:102630000E941609CE018B599F4F0E948F318091C5
:10264000CD03882339F080E00E94350D682F80E1AA
:102650000E94F52CC659DF4F0FB6F894DEBF0FBEAF
:10266000CDBFDF91CF911F910F91FF90EF90DF9041
:10267000CF9008950F931F93CF93DF93CDB7DEB71D
:102680002C970FB6F894DEBF0FBECDBF0091CB03E1
:102690001091CC036AEF71E0CE0101960E94CF3217
:1026A000CE0101960E94C908CE0101960E948F3189
:1026B0004AE050E0B80186E394E00E94303166EFD2
:1026C00071E0CE0101960E94CF32CE0101960E94A8
:1026D000C908CE0101960E948F31CE0107960E9453
:1026E000380E8B859C85892B51F0CE0107960E9470
:1026F000A3338B01CB010E94DC0C8111FFCF10931F
:10270000CC030093CB0364ED71E0CE0101960E94EF
:10271000CF32CE0101960E94C908CE0101960E94D7
:102720008F316091CB037091CC034AE050E086E397
:1027300094E00E94383180EE93E00E94362B80EEC8
:1027400093E00E94612A8823D1F360EC71E0CE010E
:1027500001960E94CF32CE0101960E94F508CE016B
:1027600001960E948F310E94C8110E948312CE01EF
:1027700007960E948F312C960FB6F894DEBF0FBEDD
:10278000CDBFDF91CF911F910F910895BF92CF924E
:10279000DF92EF92FF920F931F93CF93DF93CDB70A
:1027A000DEB7C854D1090FB6F894DEBF0FBECDBF57
:1027B0008C016B01B42E61EC72E00E941733882308
:1027C00049F069EC72E0C8010E94963266E4C62EB8
:1027D00064E1D62E6CED72E0C8010E9417338823A5
:1027E00049F064EE72E0C8010E94963256E4C52EAC
:1027F00054E1D52EF80181818F9380818F938CE8ED
:1028000091E09F938F93CE0101967C01FF928F936D
:102810000E941537C7010E94790962E080EE93E0BB
:102820000E949E28F8016081718120E130E0AE01B4
:102830004D5C5F4F80EE93E00E94A3260F900F90B7
:102840000F900F900F900F90811103C064E671E01C
:1028500028C021E0A601BE016D5C7F4F80EE93E0B1
:102860000E94A42A8823D9F0F80181818F93808166
:102870008F9384E591E09F938F93FF92EF920E9454
:102880001537C7010E9479090F900F900F900F9094
:102890000F900F90B11015C00E94C81112C064E4CF
:1028A00071E0CE018D5B9F4F0E94CF32CE018D5BD8
:1028B0009F4F0E941609CE018D5B9F4F0E948F3162
:1028C0000DC08091CD03882339F081E00E94350D41
:1028D000682F80E10E94F52C0E948312C85BDF4FB5
:1028E0000FB6F894DEBF0FBECDBFDF91CF911F9121
:1028F0000F91FF90EF90DF90CF90BF9008950F93CE
:102900001F93CF93DF93CDB7DEB72C970FB6F89414
:10291000DEBF0FBECDBF60EB71E0CE0101960E941D
:10292000CF32CE0101960E94C908CE0101960E94C5
:102930008F316AED73E0CE0101960E948132CE01A3
:1029400001960E94C908CE0101960E948F316CEA5F
:1029500071E0CE0101960E94CF32CE0101960E9415
:10296000C908CE0101960E948F31CE0107960E94C0
:10297000380E8B859C85892B91F00E947B0F8C01F2
:10298000BE01695F7F4F8AED93E00E946A32109327
:10299000070100930601BE01695F7F4F0FC0809160
:1029A000DE039091DF03892BB9F00E947B0F8C012D
:1029B00090930701809306016AED73E0CE010196C2
:1029C0000E94813240E0B801CE0101960E94C613F8
:1029D000CE0101960E948F31CE0107960E948F3161
:1029E0002C960FB6F894DEBF0FBECDBFDF91CF910E
:1029F0001F910F910895EF92FF920F931F93CF9322
:102A0000DF93CDB7DEB72C970FB6F894DEBF0FBEBD
:102A1000CDBF8C01BC01CE0107960E94FD31F801AB
:102A200080818823E9F16AE370E0C8010E94B4362E
:102A30000097C1F0FC0111927F01B801CE0101960F
:102A40000E94FD31BE016F5F7F4FCE0107960E944D
:102A50008A32CE0101960E948F31C7010E94293629
:102A60008C0102C007E110E0BE01695F7F4F8AED73
:102A700093E00E946A321093070100930601BE01A1
:102A8000695F7F4FCE0101960E94813240E0B8011C
:102A9000CE0101960E94C613CE0101960E948F318D
:102AA000CE0107960E948F312C960FB6F894DEBFA8
:102AB0000FBECDBFDF91CF911F910F91FF90EF908F
:102AC0000895FF920F931F93CF93DF93CDB7DEB797
:102AD000E0970FB6F894DEBF0FBECDBF78E2F72EB9
:102AE0000E94A0090E943E0D69E073E0CE010196AC
:102AF0000E94CF32CE0101960E94C908CE010196F4
:102B00000E948F3186E394E00E945F0B182F682F9C
:102B100086E394E00E947B30812F8F7D8D3409F015
:102B200062C065EE72E0CE0101960E94CF32CE0106
:102B300001960E94C908CE0101960E948F3186E35A
:102B400094E00E945F0B8FA718AACE018F960E9477
:102B500029368C018A30910518F64AE050E0BC0114
:102B600086E394E00E9430310115110509F4B8CFD5
:102B700063ED72E0CE0101960E94CF32CE01019644
:102B80000E94C908CE0101960E948F31CE0189961C
:102B90000E94380E8DA59EA501501109892B41F088
:102BA000BE01675D7F4FCE0101960E94813206C053
:102BB0006BEB73E0CE0101960E94FD31F09EC001E7
:102BC000F19E900D1124BE016F5F7F4F8C599F4F76
:102BD0000E946D0CCE0101960E948F31CE01899624
:102BE0000E948F317DCF813451F561EA72E0CE01D0
:102BF00001960E94CF32CE0101960E94C908CE01F3
:102C000001960E948F3186E394E00E945F0B8FA7AC
:102C100018AACE018F960E9429368C018A30910520
:102C200008F05ECF4AE050E0BC0186E394E00E94E9
:102C30003031602F83E690E00E944A0C51CF1FA7ED
:102C400018AACE018F960E9429368A30910508F085
:102C500047CF009709F10197F89EB001F99E700DDA
:102C600011246C597F4FCE0189960E948D0C69A565
:102C70007AA548E250E0CE0101960E94CF36CE01FF
:102C800089960E948F31CE0101960E94CF0CCE0111
:102C900001960E94FB1424CFE0960FB6F894DEBF95
:102CA0000FBECDBFDF91CF911F910F91FF9008957F
:102CB000CF93DF93CDB7DEB7AE970FB6F894DEBFF4
:102CC0000FBECDBF8091D1039FEF980F993008F0D0
:102CD00058C0992787FD9095019728E2289FB00159
:102CE000299F700D11246C597F4FCE0189960E9447
:102CF0008D0C69A57AA548E250E0CE0101960E94AC
:102D0000CF36CE0189960E948F316EEC70E0CE01F5
:102D100089960E94CF32CE0189960E94C908CE01C1
:102D200089960E948F31BE016F5F7F4FCE018996D9
:102D30000E94FD31CE0189960E94F508CE01899648
:102D40000E948F3161EB70E0CE0189960E94CF32F4
:102D5000CE0189960E94F508CE0189960E948F3196
:102D600060ED77E086E394E00E94740B019629F011
:102D700086E394E00E945F0B04C0CE0101960E949E
:102D8000FB14AE960FB6F894DEBF0FBECDBFDF9139
:102D9000CF910895CF92DF92EF92FF926C019093C2
:102DA0000901809308018FED94E00E94CE2D62E02E
:102DB00070E080E090E00E94302CE12CF12CB70113
:102DC000A60180EE93E00E94222A68EE73E080E084
:102DD00090E00E94302C8FED94E00E94B72E26E008
:102DE000B701A6018FED94E0FF90EF90DF90CF90B8
:102DF0000C94552ECF93DF93CDB7DEB72C970FB63B
:102E0000F894DEBF0FBECDBF0E94582C8BE594E036
:102E10000E94F51B60E08BE594E00E94EB1961E0F5
:102E20008BE594E00E94A51B3A9A81E190E00E9414
:102E3000950891E0811101C090E09093CD03992312
:102E400011F080E001C081E00E94350D682F80E123
:102E50000E94F52C82E090E00E949508182F83E0F4
:102E600090E00E949508212F30E0322F2227280F72
:102E7000311D203B84E0380729F430930B01209367
:102E80000A011AC0203699E03907B9F3203C82E1E3
:102E9000380799F3203895E2390779F321158BE447
:102EA000380759F3211596E9390739F380E699E097
:102EB00090930B0180930A0160E085E00E94BC2C96
:102EC00061E085E00E94F52C6BE975E0CE0101968A
:102ED0000E94CF32CE0101960E949708CE01019642
:102EE0000E948F3185E090E00E94B80B6B017C015D
:102EF000603B24E072078105910509F180E6C81660
:102F000089E0D806E104F104D1F090ECC91692E111
:102F1000D906E104F10499F020E8C21625E2D206B0
:102F2000E104F10461F0C1148BE4D806E104F1047A
:102F300031F0C11496E9D906E104F104A9F5FF9234
:102F4000EF92DF92CF9287E995E09F938F938E0166
:102F5000095F1F4F1F930F930E941537B801CE01D1
:102F600001960E94FD31CE0101960E949708CE0184
:102F700001960E948F3168EB7BE080E090E00E9438
:102F8000302CC0920A01D0920B016D2D82E090E0AE
:102F90000E944A0C6C2D83E090E00E944A0C0FB610
:102FA000F894DEBF0FBECDBF40910A0150910B01D6
:102FB00060E070E086E394E00E945E1E40910801AC
:102FC0005091090160E070E026E08FED94E00E94EE
:102FD000552E48EE53E060E070E086E394E00E94F6
:102FE000643141E020910A0130910B018091080188
:102FF000909109012817390709F440E04093D00364
:103000003D98399A5298539A8091B0008F7D809361
:10301000B0005B98419A86E394E00E94413069E8F1
:1030200075E0CE0101960E94CF32CE0101960E943A
:103030001609CE0101960E948F3140E050E06FEDFD
:1030400074E080EE93E00E9437298823D9F06FE77F
:1030500075E0CE0101960E94CF32CE0101960E940A
:103060001609CE0101960E948F3161E080EE93E057
:103070000E94A02880910A0190910B01803699400E
:1030800089F422C061E775E0CE0101960E94CF323B
:10309000CE0101960E941609CE0101960E948F3141
:1030A0000E94CC0F68EE73E080E090E00E94302C2C
:1030B00080910A0190910B01803B24E0920711F46A
:1030C00080E699E00E94CA1641E020910A01309101
:1030D0000B0180910801909109012817390709F423
:1030E00040E04093D00380EE93E00E946E2A83E696
:1030F00090E00E9495088093D1038BE090E00E94BD
:10310000950891E0811101C090E09093CF030E9457
:10311000581669E575E0CE0101960E94CF32CE01C6
:1031200001960E94F508CE0101960E948F310E94FF
:10313000A00981E00E94EE0962E575E0CE010196EA
:103140000E94CF32CE0101960E949708CE010196CF
:103150000E948F310E94A4096BEE74E0CE010196AB
:103160000E94CF32CE0101960E94C908CE0101967D
:103170000E948F3186E394E00E945F0B7C01682FF0
:1031800086E394E00E947B3080E2E816F104A1F22D
:10319000ACF42AE0E216F10479F234F498E0E9168E
:1031A000F10461F580E027C02DE0E216F10421F280
:1031B00084E1E816F10411F581E01DC092E3E916FF
:1031C000F10499F03CF481E3E816F104B9F40E94AB
:1031D0007F14B2CF93E3E916F10451F024E3E21631
:1031E000F10461F40E946C10A7CF0E946115A4CF76
:1031F0000E943A13A1CF0E94660C9ECF61ED74E04D
:10320000CE0101960E94CF32CE0101960E94F508B0
:10321000CE0101960E948F318FCFCF93C82F80EAC5
:103220008C0F803210F490E603C0C03E18F090EC92
:103230009C0F03C0CD3001F19C2F9A30F9F09032F1
:1032400010F48EE21EC0903AD9F08FE3890F8A31D4
:1032500010F480E805C08FEB890F8A3118F480E202
:10326000890F0FC08C2F992787FD90950E9470368B
:10327000892B39F38C2F05C08AE003C08DE001C093
:1032800080E2CF910895EF92FF920F931F93CF9317
:10329000DF938C017B016BEB73E00E94FD31E70152
:1032A0008991882339F00E940D19682FC8010E9466
:1032B0000433F6CFC801DF91CF911F910F91FF909A
:1032C000EF9008958A30C1F08D30C1F08032D4F093
:1032D0008036B1F09FE9980F9A3110F4805208952A
:1032E0009FEB980F9A3110F4805808958B3754F45F
:1032F00080364CF0805A08958DE008958AE0089554
:1033000087E208958FE30895EF92FF920F931F9342
:10331000CF93DF938C017B016BEB73E00E94FD3157
:10332000E7018991882339F00E946219682FC8014A
:103330000E940433F6CFC801DF91CF911F910F9106
:10334000FF90EF9008950DB407FEFDCF0895FC01A6
:103350006387448708950F936034D8F54033C8F5E8
:103360000130C9F42130A9F5E42FE695E695E695FC
:1033700080E4E89FF0011124E60FF11DE45FFE4FA9
:10338000477081E090E0042E01C0880F0A94EAF7AC
:10339000908198271DC0842F869586958695E62F67
:1033A000F0E0477090E4899FE00DF11D1124E45F87
:1033B000FE4F81E090E0042E01C0880F0A94EAF7E6
:1033C000213019F49081982B03C080959081982327
:1033D00090830F910895DC0161112EC018961C9204
:1033E000189780918C0290918D02FC012491169681
:1033F0002C9316973196E4911796EC931797FC014E
:103400003296E4911996EC931997FC013396E49166
:103410001A96EC931A97FC01349624913196849174
:1034200090E0F4E62F9F800D911D11241E969C9331
:103430008E931D9781E0089580E008955F926F92CA
:103440007F928F929F92AF92BF92CF92DF92EF9234
:10345000FF920F931F93CF93DF93EC01162FB42E9F
:10346000F02E3985231708F4B0C06A8570E0630F29
:10347000711D822F90E0861797070CF0A6C0D22E00
:10348000D31A9F8096949694969481E08915C0F102
:10349000C12E3C2D311B2E81822F90E0A32FB0E056
:1034A0008A179B070CF491C0321791F0E885F0E081
:1034B000EE0FFF1FE457FD4FD29EA00DB11D11244A
:1034C00016960190F081E02DEA0FFB1F949001C049
:1034D000912CA12C4A2D4B0D90FE03C00E2D2F2DAB
:1034E00004C021E0F11020E00E2D6C2DCE010E94D1
:1034F000AB199694A39488E0A812ECCFC394C9CFDB
:10350000ED85FE852E8130E0CF01B9010E94AF33F9
:103510008D2D90E00E94AF33829F6001839FD00C7D
:10352000929FD00C11249E9E90019F9E300D1124DD
:10353000269FC001279F900D369F900D1124C80E25
:10354000D91E742EA12CB12C86E0C80ED11C812E60
:10355000482D411B8E81481780F5E885F0E0EE0F7D
:10356000FF1FE457FD4F2D853E85A29EC001A39EFF
:10357000900DB29E900D11248C0D9D1D840F911DF8
:103580000190F081E02DE80FF91F5490612C462D39
:10359000470D50FE03C00E2D2F2D04C021E0F11069
:1035A00020E00E2D682DCE010E94AB195694639435
:1035B00088E06812ECCF8394CBCF8FEFA81AB80ABB
:1035C00088E0780EA91408F4C2CFDF91CF911F9143
:1035D0000F91FF90EF90DF90CF90BF90AF909F90B2
:1035E0008F907F906F905F900895EF920F93CF939D
:1035F000DF93EC01262F6A30A9F06D30C1F0ED8029
:103600000C814C856B850E941E1A4E812B85240FE0
:103610002F5F2B8730E080E490E0841B91098217B4
:1036200093072CF48C859F81890F8C871B8681E002
:1036300090E0DF91CF910F91EF9008952A9A229810
:103640002898209A60E08DE00E94F52C60E08BE0E5
:103650000E94F52C61E08DE00E94BC2C61E08BE0C3
:103660000E94BC2C8CB580618CBD08958CB58064A3
:103670008CBD2A98229A08950DB407FEFDCF289894
:10368000209A2A9A22988CB58F7B8CBD0895CF936F
:10369000DF9300D0CDB7DEB74A8369830E94361B23
:1036A00069816EBD0E94A3194A814EBD0F900F9093
:1036B000DF91CF910C943C1BCF93DF9300D01F92EE
:1036C000CDB7DEB72B834A8369830E94361B69819D
:1036D0006EBD0E94A3194A814EBD0E94A3192B8181
:1036E0002EBD0F900F900F90DF91CF910C943C1B4B
:1036F0000F931F93CF93DF93EC0140E060E20E94B1
:10370000471B2FE740E061E2CE010E945C1B27E0EF
:1037100040E062E2CE010E945C1B0E94361B289AA8
:1037200020981EBC0FEF13E00E94A3191EBC01508D
:103730001109D1F70E943C1B42E060E2CE01DF910B
:10374000CF911F910F910C94471B613011F40C9491
:10375000781B80E891E0ECE0F1E0DF019C011D9234
:1037600021503040E1F708950F931F93CF93DF93DB
:10377000EC0140E060E20E94471B2FE540E261E27D
:10378000CE010E945C1B25E040E062E2CE010E9477
:103790005C1B0E94361B289A209880910C018EBDDC
:1037A0000DE011E00E94A319F80181918F018EBDF7
:1037B000F2E00C381F07B1F70E943C1B42E060E2C8
:1037C000CE01DF91CF911F910F910C94471B2CB527
:1037D000982F93702C7F922B9CBD9DB582FB8827E0
:1037E00080F99E7F982B9DBD0895CF93DF93EC01C8
:1037F00060E00E94EB1981E08C831D821B861C8691
:103800005F98579A61E084E00E94BC2C61E084E0FC
:103810000E94F52C6AE070E080E090E00E94302C7D
:103820005F9A579865E070E080E090E00E94302C4D
:103830005F98579A84E00E94E71B0E941E1B65E078
:1038400070E080E090E00E94302C5F9A57986AE028
:1038500070E080E090E00E94302C4FE268EACE01F8
:103860000E94471B44E16DE8CE010E94471B0E9465
:10387000361B81EA8EBD0E943C1B0E94361B88ECE1
:103880008EBD0E943C1B4FE861E8CE010E94471BA1
:1038900041EF69EDCE010E94471B40E46BEDCE0184
:1038A0000E94471B0E94361B8FEA8EBD0E943C1B64
:1038B000CE01DF91CF910C94781B10925E04109290
:1038C0005D0483EF92E090935C0480935B04089521
:1038D0002091AC043091AD0428173907B9F49091C8
:1038E0006A0480916B04981789F0E0916A04F0E013
:1038F000E459FB4F808120916A0430E02F5F3F4FF5
:103900002F73332720936A0490E008958FEF9FEF81
:1039100008951F93CF93DF93DC015C968D919C916A
:103920005D97009749F481E090E013969C938E9305
:10393000129780E090E03BC05196ED91FC91529738
:1039400050962C915097322F30951FB75E964C9120
:103950005E9741FB772770F941FD6095F8944081AF
:10396000772311F0422B01C043234083EC012197C0
:10397000F1F748E0508160FF02C0522B01C0532391
:103980005083EC012197F1F76695415099F78081BA
:10399000772311F0832301C0822B80831FBF5C96A5
:1039A0008D919C915D970197F1F781E090E0DF9117
:1039B000CF911F9108952091AC043091AD04281748
:1039C000390781F490916A0480916B04981751F043
:1039D000E0916A04F0E0E459FB4F8081992787FD6C
:1039E000909508958FEF9FEF08952091AC0430914A
:1039F000AD042817390771F480916B0420916A0493
:103A000090E0805C9F4F821B910960E470E00E940F
:103A1000C333089580E090E008952091AC04309184
:103A2000AD042817390739F48FB7F89410926B0456
:103A300010926A048FBF0895E091AC04F091AD0438
:103A4000E817F90769F4A389B4899C918589809561
:103A500089238C931092AD041092AC0481E00895F8
:103A600080E00895CF93DF93EC018A8D9B8D892BA5
:103A7000F1F08091AC049091AD048C179D07B9F0E2
:103A8000009711F00E941C1D8E8D8E7F8E8F1092DC
:103A90006B0410926A04D093AD04C093AC04EB891C
:103AA000FC8980819D89892B808381E001C080E031
:103AB000DF91CF9108951F920F920FB60F921124AC
:103AC0002F933F934F935F936F937F938F939F9326
:103AD000AF93BF93EF93FF93E091AC04F091AD04EB
:103AE000309709F451C0868DA685B785958581FFED
:103AF00004C08C91892329F447C08C91892309F053
:103B000043C0A389B4899C918589809589238C932E
:103B1000868997890197F1F7208D318DA685B78524
:103B2000758558E040E0C9010197F1F7842F90E0D6
:103B300095958795482F6C91672309F040685150FF
:103B400091F7868D81FD409580916B0490E0019600
:103B50008F73992720916A04281749F0A0916B046C
:103B6000B0E0A459BB4F4C9380936B0403C0868D87
:103B70008160868F828D938D0197F1F7A389B48937
:103B80008C919589892B8C93FF91EF91BF91AF9187
:103B90009F918F917F916F915F914F913F912F9165
:103BA0000F900FBE0F901F9018952BEF32E0FC0185
:103BB000318320830C941C1D1F93CF93DF93EC0162
:103BC000162F6E8D6695617081E06827812F0E94A7
:103BD000F52C61E0812F0E94BC2C812F90E0FC012C
:103BE000E850F04FE491E88BFC01E45FFF4EE49174
:103BF000F0E0EE0FFF1FE65DFF4E859194919A8BEA
:103C0000898BDF91CF911F9108951F93CF93DF93FD
:103C1000EC01162F60E0812F0E94BC2C8E8D81FD5F
:103C200004C061E0812F0E94F52C1C87812F90E059
:103C3000FC01E850F04FE491ED87FC01E45FFF4E9A
:103C4000E491F0E0EE0FFF1FE05EFF4E859194914E
:103C50009F878E87DF91CF911F910895FF920F93D9
:103C60001F93CF93DF93EC01F62E522F1B821A8203
:103C700008EE13E020E030E00C831D832E833F83A9
:103C80008BEF92E0998388831F8A1E8A198E188E83
:103C90001B8E1A8E1D8E1C8E8E8D8E7F50FB81F991
:103CA0008E8F642FCE010E94DC1D6F2DCE01DF911F
:103CB000CF911F910F91FF900C94051ECF93DF932E
:103CC000EC019A01AB011B8E1A8E198E188E1F8A79
:103CD0001E8A60E079E08DE390E00E94F933C9012B
:103CE0002430310520F0B9016350710902C061E050
:103CF00070E07D8F6C8FEC85E63108F068C0B9010B
:103D0000769567956431710518F06351710902C0A9
:103D100061E070E07F8B6E8B069718F0C901059704
:103D200002C081E090E0998F888FC901880F991FA8
:103D3000820F931F96958795969587958D3091055F
:103D400010F00C9702C081E090E09B8F8A8F209149
:103D50006800E83050F091E0EE3008F490E081E047
:103D600001C0880F9A95EAF701C084E0822B809306
:103D700068002C85283038F02E3040F0263148F489
:103D80008CE690E008C08DE690E005C08BE690E000
:103D900002C080E090E09C8B8B8B283030F481E077
:103DA00001C0880F2A95EAF70DC0822F90E02E30CF
:103DB00010F4089701C00E9791E001C0990F8A9501
:103DC000EAF7892F8D8B8C8D9D8D0197F1F7CE01B0
:103DD000DF91CF910C94321DDC011C968D919C914A
:103DE0001D97DC01ED91FC910680F781E02D09948F
:103DF000DC011C968D919C911D97DC01ED91FC914D
:103E00000480F581E02D0994DC011C968D919C9134
:103E10001D97DC01ED91FC910284F385E02D09945E
:103E2000DC011C968D919C911D97DC01ED91FC911C
:103E30000084F185E02D09942F923F924F925F927A
:103E40006F927F928F929F92AF92BF92CF92DF92AA
:103E5000EF92FF920F931F93CF93DF93CDB7DEB70F
:103E600060970FB6F894DEBF0FBECDBF2B013C01AB
:103E700069014A3021F5CE0101961C01E12CF12C9B
:103E80005AE0852E912CA12CB12CC301B201A501C1
:103E900094010E94D7339FEFE91AF90A80E3840D59
:103EA000EAE02E9F80191124F10181931F01211551
:103EB000310541055105C9F129013A01E6CFFE015D
:103EC000319680E090E0B301A2014F70552766273C
:103ED00077279C012F5F3F4F4A30510561057105DF
:103EE00010F4A0E301C0A1E44A0F419344E07694AA
:103EF0006794579447944A95D1F74114510461044B
:103F0000710411F0C901DFCFE1E0F0E0EC0FFD1F1B
:103F1000E20FF31F48E740837C01F3E0EF0EF11C52
:103F2000FE01E80FF91F20E3238321E0E21AF108E4
:103F3000F60180E090E0015011090196A1E0B0E0A7
:103F4000AC0FBD1FAE0DBF1D2C9121931E141F047D
:103F5000ECF0F601E80FF91F108260960FB6F894A6
:103F6000DEBF0FBECDBFDF91CF911F910F91FF90AC
:103F7000EF90DF90CF90BF90AF909F908F907F9009
:103F80006F905F904F903F902F90089521E0E21A3C
:103F9000F10880179107ECF6D0CFCF92DF92EF9225
:103FA000FF920F931F93FC0140E060E070E0CB01B3
:103FB0000191002309F449C020ED200F2A30B0F40C
:103FC00014E0660F771F881F991F1A95D1F7605369
:103FD000710981099109C02EDD24C7FCD094ED2C14
:103FE000FD2C6C0D7D1D8E1D9F1DE2CF2FE9200F36
:103FF000263060F4B4E0660F771F881F991FBA95CA
:10400000D1F767557109810991090FC02FEB200F76
:104010002630A8F4A4E0660F771F881F991FAA9581
:10402000D1F76753710981099109112707FD10958F
:10403000212F312F600F711F821F931FB9CF0837B7
:1040400021F4411102C041E0B3CF1F910F91FF90C5
:10405000EF90DF90CF9008950F931F93FC0160E0E5
:1040600070E0CB01019120ED200F2A30A0F4AAE0EE
:10407000B0E09B01AC010E941E34605371098109BC
:104080009109112707FD1095212F312F600F711F06
:10409000821F931FE7CF1F910F910895DC01AE5A45
:1040A000BF4F2D913C911197FC01EC5AFF4F40817D
:1040B00051812417350764F434970190F081E02D85
:1040C000A9014F5F5F4F4D935C93E20FF31F608335
:1040D000FC01FF9680819181DC01ED91FC910190C2
:1040E000F081E02D0994CF96DC018D919C91DC014B
:1040F000ED91FC910284F385E02D0994DC011C967E
:104100008D919C911D97009739F0DC01ED91FC9108
:104110000190F081E02D099480E090E008952091D5
:10412000BF0421110BC0FC01FF9680819181DC014D
:10413000ED91FC910084F185E02D0994E091C0049B
:10414000F0E0EE53FB4F8081992787FD909508950D
:10415000DC01ED91FC910190F081E02D09944F92EA
:104160005F926F927F92AF92BF92CF92DF92EF9267
:10417000FF920F931F93CF93DF93EC015B016A01D2
:104180000E94012C2B013C01E12CF12C8E01015CE1
:104190001F4F0E94012C64197509860997096C1537
:1041A0007D058E059F05A0F5D8018D919C91DC01C0
:1041B000ED91FC910480F581E02D09951816190602
:1041C00044F7F80180819181DC01ED91FC9106803A
:1041D000F781E02D0995F5018083DE01AE5ABF4FCE
:1041E0002D913C911197FE01EC5AFF4F4081518176
:1041F000241735077CF4C05BDF4FE881F981A90102
:104200004F5F5F4F4D935C93E20FF31F808302C0BB
:1042100080E001C081E0DF91CF911F910F91FF906D
:10422000EF90DF90CF90BF90AF907F906F905F90B6
:104230004F900895EF92FF920F931F93CF93DF93C8
:104240001F92CDB7DEB78C017B01A701BE016F5F66
:104250007F4FC8010E94AF208111F7CF0F90DF91EF
:10426000CF911F910F91FF90EF900895FF920F93C0
:104270001F93CF93DF938C019091BF04992309F191
:10428000442321F06F5F7F4F81E001C080E02091E7
:10429000C004820FFB01BF01382F321B3917A8F46D
:1042A00034913323C1F1893010F4A82F01C0A0E06C
:1042B00031968F5FB0E0AE53BB4F4C91431759F32B
:1042C00040C0411102C06F5F7F4FFB01F490EB01D2
:1042D00021966091C10470E06E537B4F44EF51E032
:1042E000C8010E94AF208091C104E82FF0E0EE5396
:1042F000FB4F20819091BF048F5F2F1114C0883035
:10430000E8F48093C1049F5F9093BF04FE01F49092
:104310002196F110DECF1092BF041092C0041092CB
:10432000C10481E00FC0883018F48093C10402C03A
:104330001092C1049F5F9093BF0403C01092C10408
:10434000E2CF80E0DF91CF911F910F91FF90089510
:10435000CF93DF93EC01462F68E67EE00E94362182
:10436000882319F01FAA81E001C080E0DF91CF917E
:104370000895CF93DF93EC018091BF04882381F0EF
:10438000E091C00491E09E0F9093C004F0E0EE53E2
:10439000FB4F208130E0983060F11092C00429C0BA
:1043A000FE01FF9680819181DC01ED91FC910680F8
:1043B000F781E02D09959C018FA98823E9F02A3225
:1043C0003105D1F460E0CE010E94A821811116C010
:1043D000E091C00481E08E0F8093C004F0E0EE53C2
:1043E000FB4F208130E0883010F01092C0048091A3
:1043F000BF0481508093BF04C90102C08FEF9FEFBB
:10440000DF91CF910895CF93DF93EC01462F61E6C2
:104410007EE00E943621882319F081E08FAB01C035
:1044200080E0DF91CF910895EF92FF920F931F9359
:10443000CF93DF938C01EC01EF9688819981DC01A9
:10444000ED91FC910480F581E02D09957C01181611
:1044500019065CF588819981DC01ED91FC9100845D
:10446000F185E02D09958A9701F5F80187A961E0AA
:10447000882331F0C8010E94A821882321F012C0AE
:10448000C8010E9403220091BF0410E08881998135
:10449000DC01ED91FC910480F581E02D0995800F00
:1044A000911F09C08FEF9FEF06C08091BF04F701F5
:1044B000E80FF11DCF01DF91CF911F910F91FF9078
:1044C000EF900895CB016FEA74E00E94DE3621E0A0
:1044D000892B09F420E0822F08958F929F92AF924A
:1044E000BF92CF92DF92EF92FF920F931F93CF93E1
:1044F000DF931F92CDB7DEB76C017B015A016115C6
:10450000710529F1FB018081882309F18B014B01A1
:10451000FFEF8F1A9F0AA501BE016F5F7F4FC60193
:104520000E94AF208823A1F08981F801908189132E
:1045300003C00F5F1F4F07C0F7019081891302C0AE
:10454000840101C08701F80180818111E4CF81E0FD
:104550000F90DF91CF911F910F91FF90EF90DF901F
:10456000CF90BF90AF909F908F9008957F928F9241
:104570009F92AF92BF92CF92DF92EF92FF920F93F2
:104580001F93CF93DF931F92CDB7DEB76C017B01F2
:104590005A01FB0174907720B9F08B014B01FFEFBA
:1045A0008F1A9F0AA501BE016F5F7F4FC6010E944F
:1045B000AF208823C1F02981271108C00F5F1F4F4A
:1045C000F80174907110EECF81E00DC0F701849175
:1045D000332727FD309590E02817390711F484011F
:1045E000EFCF8701EDCF0F90DF91CF911F910F910A
:1045F000FF90EF90DF90CF90BF90AF909F908F9003
:104600007F9008954F925F926F927F929F92AF92A8
:10461000BF92CF92DF92EF92FF920F931F93CF93AF
:10462000DF931F92CDB7DEB77C01962EA72EB42E56
:1046300069014DB65EB6242F30E0C901880F991F7D
:10464000820F931F2DB73EB7281B390B0FB6F89476
:104650003EBF0FBE2DBF8DB79EB701963C01E62F22
:10466000F72FDC0120E02B1559F11C9281919191DB
:1046700012969C938E9311972F5F1396F4CF1196F9
:10468000ED91FC9112974491941781F1F8016081AA
:104690007181FB01449150E02417350731F11296E6
:1046A0007C936E9311971196ED91FC911297E49182
:1046B00013960E5F1F4FEE23F9F08F5F8B11DFCF44
:1046C000A601BE016F5F7F4FC7010E94AF2081111D
:1046D00002C08FEF11C09981292F332727FD309514
:1046E000092D1A2DD30180E0E9CFFB0131961296F6
:1046F000FC93EE931197D7CF0FB6F8945EBE0FBE22
:104700004DBE0F90DF91CF911F910F91FF90EF90D1
:10471000DF90CF90BF90AF909F907F906F905F9011
:104720004F900895CF93DF93EC018D85882391F00E
:1047300069E37EE0CE010E94073044EF51E062E37E
:104740007EE0CE010E94B622882311F01D8602C0B1
:1047500080E001C081E0DF91CF9108955F926F9278
:104760007F928F929F92AF92BF92CF92DF92EF9201
:10477000FF920F931F93CF93DF931F92CDB7DEB7B6
:104780006C017B01390100E010E04A0182E0881AE7
:1047900091085A0181E0A81AB108A301BE016F5F18
:1047A0007F4FC6010E94AF20882309F440C0598082
:1047B0008DE058122DC0A301BE016F5F7F4FC6016F
:1047C0000E94AF2089818A3041F4E114F104B9F1EB
:1047D000F701E00FF11F108232C0E114F104C1F0C3
:1047E0000815190564F4F8013196D701A00FB11F1F
:1047F0005C920E5F1F4FEE0DFF1D808309C00A15EE
:104800001B0534F4F701E00FF11F50820F5F1F4FBB
:104810000A151B0514F6E114F10409F4BECFF701E3
:10482000E00FF11F898180830F5F1F4FB6CFE11426
:10483000F10439F0F701E00FF11F108203C0C80145
:1048400002C080E090E00F90DF91CF911F910F9117
:10485000FF90EF90DF90CF90BF90AF909F908F90A0
:104860007F906F905F900895CF92DF92EF92FF92CA
:104870000F931F93CF93DF931F92CDB7DEB78C01B9
:1048800044EF51E0BE016F5F7F4FC8010E94AF202F
:104890008823A9F089818C3399F78093AF0450EB7A
:1048A000E52E54E0F52EDD24D39444EF51E0BE0113
:1048B0006F5F7F4FC8010E94AF20811102C080E06E
:1048C00035C0CC24C394CD0C8981F70181937F013D
:1048D0008E3339F544EF51E0BE016F5F7F4FC80161
:1048E0000E94AF20882359F38981803241F7AC2D93
:1048F000B0E0A155BB4F8C93D394D394ED2DF0E051
:10490000E155FB4F108281E08093AE0424EF31E04B
:1049100040E050E060E070E0C8010E94AE2381E01A
:1049200005C0FCE0CF1659F2DC2CBFCF0F90DF9111
:10493000CF911F910F91FF90EF90DF90CF9008954E
:10494000AB012091AE04211102C00C9434246FEA13
:1049500074E00C946D22FF920F931F93CF93DF931B
:10496000EC018D8581116EC06AEF70E080E090E00F
:104970000E94302C6FE47EE0CE010E9407306AEF87
:1049800070E080E090E00E94302C44EF51E069E458
:104990007EE0CE010E94B622811115C0FE01FF9675
:1049A00080819181DC01ED91FC910190F081E02DFD
:1049B0006DE0099564EF71E0CE010E94A0248111A1
:1049C0003AC015E01EC08091AE04811134C065E08C
:1049D000F62E8E01015C1F4FF80180819181DC0170
:1049E000ED91FC910190F081E02D6DE0099564EF6F
:1049F00071E0CE010E94A02481111DC0FA9461F7DC
:104A0000CDCF6AEF70E080E090E00E94302C65E44A
:104A10007EE0CE010E9407306AEF70E080E090E017
:104A20000E94302C44EF51E06FE37EE0CE010E9403
:104A3000B622882319F081E08D8705C0115009F74F
:104A400080E001C081E0DF91CF911F910F91FF9035
:104A50000895CF93DF93EC018D85882339F08E85FF
:104A60009F8501969F878E8781E005C0CE010E94B9
:104A7000AB248111F4CFDF91CF910895FC012685FD
:104A800037852150310937872687232B11F40C9461
:104A9000922381E00895CF92DF92EF92FF920F93DD
:104AA0001F93CF93DF93EC018B016A0179010E9480
:104AB0002925882351F1000F111F000F111F0D5CD4
:104AC0001C4FF80160817181CE010E940730F8010E
:104AD0006281738144EF51E0CE010E94B6228823A7
:104AE00089F024EF31E0A701B601CE010E94AE2388
:104AF00064EF71E0CE010E94A024CE010E943E2509
:104B0000C60105C0CE010E943E2587E093E0DF91FB
:104B1000CF911F910F91FF90EF90DF90CF9008956C
:104B2000EF92FF920F931F93CF93DF93CDB7DEB732
:104B300060970FB6F894DEBF0FBECDBF8C010E9408
:104B40002925882309F462C06AE27EE0C8010E9438
:104B5000073024EF31E040E150E0BE016F5F7F4F4E
:104B6000C8010E94AE237C01BE016F5F7F4FC80168
:104B70000E946222882361F024EF31E040E150E09E
:104B8000BE016F5F7F4FC8010E94AE237C0105C04C
:104B900064EF71E0C8010E94A02425E0E216F10450
:104BA0001CF4CE01019608C0C7010497E1E0F0E0D3
:104BB000EC0FFD1F8E0F9F1F0E94CD1FF62EE72EBC
:104BC000862F8F70F80181AFF4FA882780F982AFC1
:104BD000F5FA882780F983AFF6FA882780F984AF41
:104BE000F7FA882780F985AF8E2D86958F7086AF6E
:104BF000C8010E943E25F80181AD813011F487ABD8
:104C000002C0F80117AA8F2D9E2D02C080E090E00F
:104C100060960FB6F894DEBF0FBECDBFDF91CF9187
:104C20001F910F91FF90EF900895CF93DF93D62FB0
:104C3000C72F9A01462F572F60E070E00E944B2546
:104C4000892B49F0ED2FFC2FDF018191882329F07A
:104C50008A33D1F702C0AD2FBC2F1C928D2F9C2F11
:104C6000DF91CF910895CF93DF93CDB7DEB76697ED
:104C70000FB6F894DEBF0FBECDBF26E130E0AE0127
:104C80004F5F5F4F60E070E00E944B25892BC1F0C1
:104C900080E0E1E0F0E0EC0FFD1FE80FF11D9081F6
:104CA000992319F08F5F9A33A1F721E030E02C0FA0
:104CB0003D1F280F311DC9010E942C20CB0102C0CD
:104CC00080E090E066960FB6F894DEBF0FBECDBFD1
:104CD000DF91CF9108959A01AB0163E070E00C94ED
:104CE0004B259A01AB0164E070E00C944B251F93B7
:104CF000CF93DF93CDB7DEB72B970FB6F894DEBF17
:104D00000FBECDBF142F2BE030E0AE014F5F5F4FE1
:104D10000E944B25892B51F0CE0101961A3019F4CF
:104D20000E942C2006C00E94CD1F03C060E070E0EE
:104D3000CB012B960FB6F894DEBF0FBECDBFDF912F
:104D4000CF911F910895AF92BF92CF92DF92EF92D1
:104D5000FF920F931F93CF93DF931F92CDB7DEB7D0
:104D60008C017B016A0159010E9429258823B9F130
:104D700068E07EE0C8010E940730B701C8010E94C8
:104D800038306FE073E0C8010E94383048E853E1E2
:104D9000B701C8010E946D228823C9F044EF51E099
:104DA000BE016F5F7F4FC8010E94AF2024EF31E04A
:104DB000A501B601C8010E94AE2364EF71E0C801ED
:104DC0000E94A024C8010E943E2581E009C064EF32
:104DD00071E0C8010E94A024C8010E943E2580E025
:104DE0000F90DF91CF911F910F91FF90EF90DF9087
:104DF000CF90BF90AF900895CF93DF93CDB7DEB73C
:104E000060970FB6F894DEBF0FBECDBF20E130E053
:104E1000AE014F5F5F4F6CE070E00E944B25892B25
:104E2000E1F143E050E064E07EE0CE0101960E94B3
:104E30008E36892B51F142E050E061E07EE0CE01F8
:104E400001960E948E36892B11F146E050E06AEF00
:104E50007DE0CE0101960E948E36892BD1F045E08F
:104E600050E064EF7DE0CE0101960E948E36892BE2
:104E700091F046E050E06DEE7DE0CE0101960E949B
:104E80008E36892B51F484E009C080E007C081E0B0
:104E900005C082E003C083E001C08FEF60960FB6CB
:104EA000F894DEBF0FBECDBFDF91CF910895CF92B2
:104EB000DF92EF92FF920F931F93CF93DF9300D077
:104EC00000D0CDB7DEB77C018B016A0187EE9DE093
:104ED0009A83898381EE9DE09C838B8324EF31E06C
:104EE00042E0BE016F5F7F4FC7010E940223813005
:104EF00091F0811108C024EF31E0A601B801C7018B
:104F00000E94AE2306C0A60167ED7DE0C8010E94A5
:104F10009C3680E001C081E00F900F900F900F90C1
:104F2000DF91CF911F910F91FF90EF90DF90CF9085
:104F30000895AF92BF92CF92DF92EF92FF920F93BC
:104F4000CF93DF93CDB7DEB762970FB6F894DEBF8D
:104F50000FBECDBF7C015A016901698B7A8B0E941B
:104F6000292569897A89882309F463C0C7010E94C9
:104F70000730C114D10419F160E2C7010E94A820D2
:104F80000023C1F057018FE4A80EB11CF601649113
:104F90006623C1F1D701ED91FC910190F081E02DE4
:104FA000603211F4D5016C91C7010995BFEFCB1A9E
:104FB000DB0AECCFB601C7010E94073023C0A11461
:104FC000B10401F160E2C7010E94A8200023B1F002
:104FD0006701FFE4CF0ED11CF50161915F016623EB
:104FE00089F0D701ED91FC910190F081E02D6032C4
:104FF00011F4D6016C91C7010995EECFB501C70137
:105000000E9438306DE0C7010E94A82040E150E0C6
:10501000BE016F5F7F4FC7010E945727082F64EFC3
:1050200071E0C7010E94A024C7010E943E25802F85
:1050300001C080E062960FB6F894DEBF0FBECDBF10
:10504000DF91CF910F91FF90EF90DF90CF90BF90C5
:10505000AF900895CF92DF92EF92FF920F931F933C
:10506000CF93DF93CDB7DEB72B970FB6F894DEBFA3
:105070000FBECDBF7C016B01CA01B901402F0BE00F
:1050800010E09E012F5F3F4F0E941C1F00E020E0B8
:1050900030E0AE014F5F5F4FB601C7010E94992714
:1050A0002B960FB6F894DEBF0FBECDBFDF91CF9128
:1050B0001F910F91FF90EF90DF90CF9008951F9375
:1050C000CF93DF93EC010E9429258823D9F061ED6D
:1050D0007DE0CE010E94073044EF51E069EC7DE0B5
:1050E000CE010E94B622882339F064EF71E0CE0130
:1050F0000E94A02411E001C010E0CE010E943E25D4
:10510000812F01C080E0DF91CF911F9108950F930F
:105110009B0140E050E00AE065E47DE00E942A281F
:105120000F9108950F93262F30E040E050E000E10A
:1051300066EC7CE00E942A280F9108950C94922836
:105140000F93262F30E040E050E000E169EB7CE077
:105150000E942A280F9108950F9300E020E030E08C
:1051600040E050E065E07CE00E9499270F910895AF
:105170000F93AB0101E020E030E067EF7BE00E949D
:1051800099270F9108950F931F93CF93DF93EC010D
:10519000AB01FB0181818F7D883511F44E5F5F4F3C
:1051A00000E020E030E06CED7BE0CE010E9499272A
:1051B000182FCE010E94AC28812FDF91CF911F9133
:1051C0000F9108950F931F93CF93DF93EC01AB01E1
:1051D00001E020E030E06CEC7BE00E949927182F82
:1051E000CE010E94AC28812FDF91CF911F910F91AA
:1051F000089540E16BE170E00E947726862F0895C4
:105200000F93CF93DF93EC011CAA1BAA1B8A00E02B
:1052100020E030E040E050E064E97EE00E94992721
:1052200020E030E040E050E061E87EE0CE010E9406
:10523000992720E030E040E050E06FE67EE0CE01CC
:105240000E949927CE010E949025CE010E94FC2643
:105250008B7F91E009F490E0988BCE010E94F928B1
:10526000C15BDF4F8883DF91CF910F910895CF937A
:10527000DF93EC01FC01FF96718360830E94AB24F5
:10528000882341F0CE010E940029CE01DF91CF9109
:105290000C94922380E0DF91CF910895CF93DF9318
:1052A000EC010E942925882301F161EC7DE0CE010B
:1052B0000E94073044EF51E068EB7DE0CE010E9490
:1052C000B622811104C0CE010E943E250EC068E8BE
:1052D00073E180E090E00E94302C1D861F861E86C0
:1052E000CE010E94002981E001C080E0DF91CF91D2
:1052F0000895CF92DF92EF92FF920F931F93CF9377
:10530000DF9300D000D0CDB7DEB78C017B016A01FE
:105310008AE79BE09A8389838EE69BE09C838B835C
:10532000C8010E942925882309F444C068E67BE06F
:10533000C8010E940730E114F10421F0B701C8014F
:105340000E94383066E67BE0C8010E940730960173
:1053500042E0BE016F5F7F4FC8010E940223F82E1A
:1053600064E670E0C8010E941A2181E0F8121FC0B3
:10537000F801F2AE8089882361F048E95AE362E6D9
:105380007BE0C8010E94B62264E670E0C8010E947A
:105390001A2124EF31E040E050E060E070E0C80105
:1053A0000E94AE23C8010E943E2581E004C0C801CE
:1053B0000E943E2580E00F900F900F900F90DF919C
:1053C000CF911F910F91FF90EF90DF90CF900895B4
:1053D0000F931F93CF93DF93CDB7DEB7C054D1099E
:1053E0000FB6F894DEBF0FBECDBF8C0140E450E095
:1053F000BE016F5F7F4F0E94712640E25EE4BE01F6
:105400006F5F7F4FC8010E947929C05CDF4F0FB6E4
:10541000F894DEBF0FBECDBFDF91CF911F910F91EA
:105420000895CF93DF93EC016BE57BE00E9407309A
:1054300064E670E0CE010E941A211AAE81E0DF918D
:10544000CF910895EF92FF920F931F93CF93DF9325
:10545000CDB7DEB760970FB6F894DEBF0FBECDBFF5
:105460007C01CB01BA0100E110E09E012F5F3F4FAC
:105470004AE00E941C1FC7010E94292500E020E08D
:1054800030E0AE014F5F5F4F63E57BE0C7010E94F4
:105490009927882329F0C7010E943E2581E004C096
:1054A000C7010E943E2580E060960FB6F894DEBFEB
:1054B0000FBECDBFDF91CF911F910F91FF90EF9065
:1054C0000895CF93DF93EC01E881F9810480F581A1
:1054D000E02D09958FA9DF91CF910895CF93DF93A8
:1054E000EC018FA9882361F164EF71E0CE010E9485
:1054F0001A21CE010E94292562EF7AE0CE010E9496
:10550000073044EF51E06BEE7AE0CE010E94B62204
:10551000882329F0CE010E943E251FAA11C062ED0A
:105520007AE0CE018F5B9F4F0E944530CE010E94F2
:105530009025CE010E943E258FA991E0892701C0C8
:1055400081E0DF91CF910895BF92CF92DF92EF92E9
:10555000FF920F931F93CF93DF93CDB7DEB765977D
:105560000FB6F894DEBF0FBECDBF7C016B018A0180
:10557000B22EFC0180AD811168C0C7010E942925AF
:10558000F70187A9882319F0C7010E946E2AB80184
:1055900080E090E004E110E09E012F5F3F4F4AE081
:1055A0000E941C1F6DE17BE0C7010E940730B6011D
:1055B000C7010E94383061E173E0C7010E943830B2
:1055C000BE016F5F7F4FC7010E9438306BE17BE007
:1055D000C7010E94073064EF71E0C7010E94A02458
:1055E000811101C0FFCFB11004C081E0F70180AF8D
:1055F0002DC040E157E2BE016B5E7F4FC7010E94A4
:10560000AF208823F9F08D898A3271F0833489F7CD
:10561000898324EF31E043E150E0BE016E5F7F4FAC
:10562000C7010E94AE230EC044EF51E065E17BE06C
:10563000C7010E94B622882329F081E0F70187ABD9
:10564000158604C0C7010E943E2580E065960FB60E
:10565000F894DEBF0FBECDBFDF91CF911F910F91A8
:10566000FF90EF90DF90CF90BF900895CF93DF939E
:10567000EC0164EF71E00E941A21CE010E942925FD
:105680006BEC7AE0CE010E94073044EF51E064EC0D
:105690007AE0CE010E94B622882331F0CE010E942A
:1056A0003E251FAA81E00BC0CE010E943E256BEA79
:1056B0007AE0CE018F5B9F4F0E94453080E0DF9102
:1056C000CF910895FC011382128248EE53E060E00E
:1056D00070E0448355836683778387E293E0918308
:1056E0008083158614860895CF93DF93EC011B8287
:1056F0001A8248EE53E060E070E04C835D836E8375
:105700007F8387E193E099838883CE018F5B9F4FEE
:105710000E94622B1D861F861E861FAA18AE81E07E
:10572000888B898BFE01E05BFF4F118210823296DD
:1057300011821082CC5ADF4F19821882DF91CF91EB
:1057400008950F9300E020E040E060E08AEC94E0F0
:105750000E94AE2F0F9108950F9300E020E040E0EB
:1057600060E080ED94E00E94AE2F0F9108951F92AB
:105770000F920FB60F9211242F933F938F939F9305
:10578000AF93BF938091D7049091D804A091D9048E
:10579000B091DA043091D60423E0230F2D3720F4A2
:1057A0000196A11DB11D05C026E8230F0296A11D7B
:1057B000B11D2093D6048093D7049093D804A0936E
:1057C000D904B093DA048091DB049091DC04A091B9
:1057D000DD04B091DE040196A11DB11D8093DB04B0
:1057E0009093DC04A093DD04B093DE04BF91AF91ED
:1057F0009F918F913F912F910F900FBE0F901F900F
:1058000018952FB7F8946091D7047091D8048091BF
:10581000D9049091DA042FBF08953FB7F89480918E
:10582000DB049091DC04A091DD04B091DE0426B588
:10583000A89B05C02F3F19F00196A11DB11D3FBFC8
:105840006627782F892F9A2F620F711D811D911D58
:1058500042E0660F771F881F991F4A95D1F7089578
:10586000CF92DF92EF92FF92CF93DF936B017C0197
:105870000E940D2CEB01C114D104E104F10489F064
:105880000E94AE330E940D2C6C1B7D0B683E734052
:1058900090F381E0C81AD108E108F108C851DC4F43
:1058A000EACFDF91CF91FF90EF90DF90CF900895F6
:1058B000789484B5826084BD84B5816084BD85B5EB
:1058C000826085BD85B5816085BDEEE6F0E08081B2
:1058D00081608083E1E8F0E01082808182608083D3
:1058E000808181608083E0E8F0E080818160808356
:1058F000E1EBF0E0808184608083E0EBF0E0808188
:1059000081608083EAE7F0E0808184608083808129
:1059100082608083808181608083808180688083D1
:105920001092C1000895833081F028F4813099F0FD
:105930008230A1F008958730A9F08830B9F0843022
:10594000D1F4809180008F7D03C0809180008F779B
:1059500080938000089584B58F7702C084B58F7DD1
:1059600084BD08958091B0008F7703C08091B0000E
:105970008F7D8093B0000895CF93DF9390E0FC017A
:10598000E850F04F2491FC01E45FFF4E849188239E
:1059900049F190E0880F991FFC01EC5CFF4EA59146
:1059A000B491865D9F4EFC01C591D4919FB7611162
:1059B00008C0F8948C91209582238C93888182234F
:1059C0000AC0623051F4F8948C91322F30958323C1
:1059D0008C938881822B888304C0F8948C91822BCD
:1059E0008C939FBFDF91CF9108950F931F93CF9317
:1059F000DF931F92CDB7DEB7282F30E0F901EC51CD
:105A0000F04F8491F901E850F04F1491F901E45FEF
:105A1000FF4E04910023C9F0882321F069830E947E
:105A2000932C6981E02FF0E0EE0FFF1FE65DFF4E43
:105A3000A591B4919FB7F8948C91611103C0109512
:105A4000812301C0812B8C939FBF0F90DF91CF9159
:105A50001F910F910895CF93DF93282F30E0F90124
:105A6000EC51F04F8491F901E850F04FD491F901D5
:105A7000E45FFF4EC491CC2391F081110E94932CDE
:105A8000EC2FF0E0EE0FFF1FE05EFF4EA591B4910A
:105A90002C912D2381E090E021F480E002C080E091
:105AA00090E0DF91CF9108950F931F93762F90E0B0
:105AB000FC01E850F04F6491FC01E45FFF4EE4917B
:105AC0007111762FF0E0EE0FFF1FE05EFF4E859123
:105AD000949189019A013F70472F0E9450086115E7
