:100000000C94A2080C94CA080C94CA080C94DA1830
:100010000C94DA180C94DA180C94CA080C94CA08D8
:100020000C94CA080C94CA080C94CA080C94CA0808
:100030000C94CA080C94CA080C94CA080C94CA08F8
:100040000C94B1270C94CA080C945C2A0C948E2A48
:100050000C94CA080C94CA080C94CA080C94CA08D8
:100060000C94CA080C94CA08507265737320616EB0
:1000700079206B657920746F2063616E63656C2EE7
:100080002E2E00436F6E6E656374696E6720746F09
:1000900020436F6D6D6F646F726553657276657224
:1000A00000536176656400556E6B6E6F776E206FDE
:1000B0007074696F6E2C2074727920616761696E4B
:1000C0000053656C6563743A2000322E20526574CB
:1000D00075726E20746F204D61696E204D656E756E
:1000E00000312E20436F6D6D6F646F7265536572C2
:1000F00076657200302E20436C6561722041757404
:100100006F7374617274204F7074696F6E7300291D
:10011000004175746F7374617274204D656E752043
:100120002843757272656E743A20002A2A2A205478
:1001300065726D696E616C204D6F64652028446541
:1001400062756729202A2A2A00436F6E6E656374E0
:10015000696F6E20636C6F73656400436F6E6E65CC
:100160006374204661696C65642100436F756C643B
:10017000206E6F74207265736F6C766520444E53E9
:100180002E2020436F6E6E656374204661696C6536
:10019000642100293A20000A506F72742028002937
:1001A0003A20000A54656C6E657420686F73742081
:1001B0002800496E636F6D696E6720436F6E6E65D0
:1001C0006374696F6E0057616974696E6720666F4A
:1001D0007220636F6E6E656374696F6E206F6E2040
:1001E000706F72742000293A2000496E636F6D6948
:1001F0006E6720706F72742028004669726D776197
:1002000072653A202020200057692D4669205353FB
:1002100049443A2020004950204164647265737358
:100220003A2020004D414320416464726573733A63
:100230002000202844656C20746F207377697463F4
:100240006829004572726F722053657474696E6715
:100250002053534944005353494420537563636505
:10026000737366756C6C79206368616E6765640092
:10027000535349443A0050617373706872617365F7
:100280003A004B65793A00556E6B6E6F776E206F52
:100290007074696F6E2C2074727920616761696E69
:1002A0000053656C6563743A2000332E20526574E8
:1002B00075726E20746F20436F6E66696775726128
:1002C00074696F6E204D656E7500322E2057504157
:1002D000202F205750413200312E205745500043E7
:1002E00068616E6765205353494400556E6B6E6FAD
:1002F000776E206F7074696F6E2C20747279206134
:100300006761696E0053656C6563743A2000352E31
:100310002052657475726E20746F204D61696E2075
:100320004D656E7500342E204469726563742054E7
:1003300065726D696E616C204D6F6465202844653F
:100340006275672900332E204175746F7374617272
:1003500074204F7074696F6E7300322E2043686191
:100360006E6765205353494400312E2044697370F1
:100370006C61792043757272656E7420436F6E668E
:10038000696775726174696F6E00436F6E66696745
:1003900075726174696F6E204D656E7500556E6B78
:1003A0006E6F776E206F7074696F6E2C2074727927
:1003B00020616761696E0053656C6563743A200063
:1003C000332E20436F6E66696775726174696F6E54
:1003D00000322E205761697420666F7220696E6347
:1003E0006F6D696E6720636F6E6E656374696F6EA3
:1003F00000312E2054656C6E657420746F20686F18
:100400007374206F72204242530052454144592E6A
:1004100000436F6D6D6F646F72652057692D46697B
:10042000204D6F64656D0057692D466920466169EE
:100430006C6564210057692D4669204F4B21005798
:10044000692D466920496E69742E2E2E000508001C
:10045000FF0C4B00000000003E5B4F5B3E3E6B4FCD
:100460006B3E1C3E7C3E1C183C7E3C181C577D5746
:100470001C1C5E7F5E1C00183C1800FFE7C3E7FFF2
:100480000018241800FFE7DBE7FF30483A060E2685
:1004900029792926407F050507407F05253F5A3CDD
:1004A000E73C5A7F3E1C1C08081C1C3E7F14227F20
:1004B00022145F5F005F5F06097F017F00668995F8
:1004C0006A606060606094A2FFA29408047E0408E1
:1004D00010207E201008082A1C08081C2A08081E64
:1004E000101010100C1E0C1E0C30383E3830060E4A
:1004F0003E0E06000000000000005F000000070044
:100500000700147F147F14242A7F2A1223130864FF
:100510006236495620500008070300001C224100A3
:100520000041221C002A1C7F1C2A08083E080800E3
:100530008070300008080808080000606000201083
:100540000804023E5149453E00427F40007249493D
:1005500049462141494D331814127F10274545451E
:10056000393C4A494931412111090736494949363F
:10057000464949291E0000140000004034000000D4
:100580000814224114141414140041221408020106
:100590005909063E415D594E7C1211127C7F494932
:1005A00049363E414141227F4141413E7F494949CF
:1005B000417F090909013E414151737F0808087FC5
:1005C00000417F41002040413F017F081422417FCC
:1005D000404040407F021C027F7F0408107F3E4164
:1005E00041413E7F090909063E4151215E7F0919BB
:1005F0002946264949493203017F01033F404040D3
:100600003F1F2040201F3F4038403F6314081463C1
:1006100003047804036159494D43007F414141027D
:1006200004081020004141417F04020102044040BF
:10063000404040000307080020545478407F28447D
:1006400044383844444428384444287F3854545467
:100650001800087E090218A4A49C787F0804047876
:1006600000447D40002040403D007F1028440000B1
:10067000417F40007C047804787C08040478384486
:10068000444438FC1824241818242418FC7C08043A
:100690000408485454542404043F44243C4040205B
:1006A0007C1C2040201C3C4030403C442810284406
:1006B0004C9090907C4464544C44000836410000B7
:1006C00000770000004136080002010204023C26C7
:1006D00023263C1EA1A161123A4040207A3854548E
:1006E0005559215555794121545478412155547813
:1006F0004020545579400C1E5272123955555559A7
:10070000395454545939555454580000457C4100CB
:1007100002457D420001457C40F0292429F0F02863
:100720002528F07C545545002054547C547C0A09FB
:100730007F4932494949323248484832324A48486A
:10074000303A4141217A3A42402078009DA0A07D74
:1007500039444444393D4040403D3C24FF24244832
:100760007E4943662B2FFC2F2BFF0929F620C088DA
:100770007E090320545479410000447D41304848AB
:100780004A32384040227A007A0A0A727D0D1931C5
:100790007D2629292F28262929292630484D402021
:1007A000380808080808080808382F10C8ACBA2FFD
:1007B000102834FA00007B000008142A14222214A6
:1007C0002A1408AA005500AAAA55AA55AA00000092
:1007D000FF00101010FF00141414FF001010FF0091
:1007E000FF1010F010F0141414FC001414F700FFA4
:1007F0000000FF00FF1414F404FC141417101F1061
:10080000101F101F1414141F00101010F00000000F
:10081000001F101010101F10101010F0100000001A
:10082000FF101010101010101010FF10000000FF2B
:10083000140000FF00FF00001F10170000FC04F46C
:1008400014141710171414F404F40000FF00F71424
:10085000141414141414F700F714141417141010AB
:100860001F101F141414F4141010F010F000001FC7
:10087000101F0000001F14000000FC140000F01006
:10088000F01010FF10FF141414FF141010101F00AC
:10089000000000F010FFFFFFFFFFF0F0F0F0F0FFAE
:1008A000FFFF0000000000FFFF0F0F0F0F0F384485
:1008B0004438447C2A2A3E147E02020606027E0246
:1008C0007E0263554941633844443C04407E201E07
:1008D0002006027E020299A5E7A5991C2A492A1C36
:1008E0004C7201724C304A4D4D303048784830BC23
:1008F000625A463D3E494949007E0101017E2A2A4D
:100900002A2A2A44445F444440514A444040444ACD
:1009100051400000FF0103E080FF000008086B6BFE
:10092000083612362436060F090F06000018180084
:1009300000001010003040FF0101001F01011E00E7
:10094000191D1712003C3C3C3C0000000000636C89
:100950006F73653A206661696C65642C206E6F2048
:100960002A434C4F532A00636C6F73653A20676FBC
:1009700074202A434C4F532A002A434C4F532A00D9
:10098000636C6F73650D005465726D696E616C20E8
:10099000726561647900556E65787065637465642D
:1009A00020726573703A20004661696C656420743A
:1009B0006F20636F6E6E6563743A20004F50454E32
:1009C0002A00656E61626C65486F7374526573745A
:1009D0006F72653A2073746F7265642000302E3038
:1009E0002E302E300073656E64746F3A2066616934
:1009F0006C656420746F20737461727420636F6D12
:100A00006D616E64003C74696D656F75743E005570
:100A10006E657870656374656420636861723A20FE
:100A2000004661696C656420746F20636F6E6E654B
:100A300063743A20004F50454E2A005769466C793E
:100A400020686173206372617368656420616E64FD
:100A50002077696C6C207265626F6F742E2E2E0089
:100A60004661696C656420746F20676574207072DC
:100A70006F6D7074000D006F70656E20006F706593
:100A80006E20003235352E3235352E302E30003185
:100A900036392E3235342E312E31003634206279FB
:100AA0007465730050696E67207472790070696EA6
:100AB00067200073657420752069006C6561766538
:100AC0000D0047573D000D006A6F696E20004173AD
:100AD000736F63696174656421004641494C454404
:100AE00000736574206164686F632070726F626563
:100AF00000736574206164686F6320626561636F71
:100B00006E0073657420776C616E20747800736575
:100B10007420776C616E2072617465007365742057
:100B20006F7074207265706C61636500736574200A
:100B3000776C616E207068726173650073657420F4
:100B4000776C616E206B65790073657420776C61DA
:100B50006E206368616E0073657420776C616E202F
:100B6000737369640073657420776C616E206869C3
:100B700064652031007365742073797320696F6632
:100B8000756E630073657420636F6D6D2073697A91
:100B9000650073657420636F6D6D206D61746368AB
:100BA0000073657420636F6D6D2074696D6500302E
:100BB0002E302E302E30007365742062726F6164A7
:100BC0006361737420696E74657276616C0073651D
:100BD000742075617274206D6F6465007365742094
:100BE00074696D6520656E61626C65007365742063
:100BF00074696D65207A6F6E650073657420746921
:100C00006D6520706F7274007365742074696D6512
:100C10002061646472657373007365742069702069
:100C2000666C616773007365742069702070726F01
:100C3000746F636F6C0073657420697020646863FF
:100C4000700073657420646E7320616464726573F0
:100C500073007365742069702067617465776179CA
:100C600000736574206970206E65746D61736B002C
:100C7000736574206970206E65746D61736B0053C9
:100C80006574486F73743A206661696C656420749A
:100C90006F20737461727420636F6D6D616E640098
:100CA0007365742069702072656D6F74650073657B
:100CB0007420697020686F737400736574206970A4
:100CC00020686F737400736574206970206C6F63A3
:100CD000616C706F72740073657420697020616458
:100CE0006472657373007365742069702061646455
:100CF000726573730073657420776C616E206A6F20
:100D0000696E00736574206F206400736574206FD2
:100D100020640053657420466163746F72792044C7
:100D2000656661756C747300666163746F727920B7
:100D3000524553544F52450D002A5265626F6F74ED
:100D40002A007265626F6F740D0053746F72696E62
:100D50006700736176650D003C74696D656F75742D
:100D60003E004552523A2000414F4B0D0A00455279
:100D7000523A20005345525645520043414348459C
:100D8000004155544F4950004F4E004F4646006CAD
:100D90006F6F6B7570200074696D650D00736C6505
:100DA00065700D00736574207379732077616B65CE
:100DB00000676574436F6E3A205443502064697332
:100DC000636F6E6E656374656400676574436F6E10
:100DD0003A2054435020636F6E6E656374656400FF
:100DE00073686F7720630D00676574436F6E3A20F8
:100DF0006661696C656420746F207374617274003D
:100E00004661696C656420746F20657869740A0DA9
:100E100000455849540D0A00657869740D00434D2A
:100E2000440D0A0024242400434D440D0A002424C8
:100E3000240073657450726F6D7074206661696C04
:100E40006564006D756C74694D617463685F503AD8
:100E500020006D617463685F503A200072656164C0
:100E600054696D656F7574202D2074696D656420FB
:100E70006F7574003A20003A20006465627567203F
:100E800064756D7000617661696C61626C653A20B1
:100E90007065656B203D20002A4F50454E2A002A80
:100EA000434C4F532A004552524F52207065656B98
:100EB0002E3220627566666572206F7665726C6F81
:100EC00077004552524F52207065656B2E3120627B
:100ED0007566666572206F7665726C6F7700466125
:100EE000696C656420746F206578697420636F6D28
:100EF0006D616E64206D6F6465004661696C656448
:100F000020746F20656E74657220636F6D6D616E05
:100F100064206D6F6465004661696C656420746F60
:100F20002073657420636F6D6D2072656D6F7465DD
:100F30000073657420636F6D6D2072656D6F7465ED
:100F40002030004661696C656420746F207475728E
:100F50006E206F666620737973207072696E7400FC
:100F600073657420737973207072696E746C766C1B
:100F70002030004661696C656420746F207475725E
:100F80006E206F6666206563686F007365742075F8
:100F9000206D2031005265706C6163653D005478AE
:100FA000506F7765723D00526174653D004A6F690C
:100FB0006E3D005265626F6F743D0050726F6265E6
:100FC0003D00426561636F6E3D006765742061643A
:100FD000686F630D0050524F544F3D00464C4147DF
:100FE000533D307800525353493D282D0073686FAC
:100FF0007720727373690D00466C75736853697A54
:10100000653D004D61746368436861723D00466CE4
:1010100075736854696D65723D0067657420636F10
:101020006D6D0D004D6F64653D005254433D00737E
:10103000686F77207420740D004164647265737367
:101040003D0067657420646E730D0054696D653DE5
:1010500000557054696D653D0073686F7720746941
:101060006D650D005A6F6E653D006765742074698B
:101070006D650D0042617564726174653D00676560
:101080007420750D0044657669636549643D0067A9
:101090006574206F70740D00535349443D006765BB
:1010A0007420776C616E0D004D6163204164647241
:1010B0003D00676574206D61630D00444843503DF9
:1010C00000484F53543D0047573D004E4D3D0049A9
:1010D000503D006765742069700D00000000080035
:1010E00002010000030407000000000000000001EE
:1010F00002040810204080010204081020010204AC
:10110000081020040404040404040402020202027D
:101110000203030303030300000000230026002949
:101120000000000000250028002B00000000002423
:101130000027002A0000120CDC179B27A627B42AE0
:101140003D2B410C11241FBECFEFD8E0DEBFCDBF39
:1011500014E0A0E0B1E0EEE1FAE602C005900D92E5
:10116000A633B107D9F725E0A6E3B4E001C01D928C
:10117000A93EB207E1F711E1C2E4D1E104C0229730
:10118000FE010E94662FC633D107C9F70E946F1374
:101190000C9402350C940000359907C08091B00082
:1011A0008F7D8093B0005B9AF7CF8091B0008F7DE8
:1011B0008093B0005B980895CF93DF93EC0160E0DB
:1011C0008CEB94E00E94241740E060E08CEB94E00C
:1011D0000E942615BE018CEB94E00E94DA2B8CEB6A
:1011E00094E0DF91CF910C943317CF93DF9300D02D
:1011F00000D000D0CDB7DEB720913804222399F07B
:10120000FC0160817181CE0101960E940315BE012F
:101210006F5F7F4F87E994E00E94AD2BCE0101966E
:101220000E94122D05C0BC0187E994E00E94AD2BFD
:1012300026960FB6F894DEBF0FBECDBFDF91CF91DB
:101240000895CF93DF9300D000D000D0CDB7DEB7A4
:10125000BC01CE0101960E94042ECE0101960E948F
:10126000F508CE0101960E94122D87E994E00E94B4
:10127000C42B26960FB6F894DEBF0FBECDBFDF910C
:10128000CF9108950F931F93CF93DF9300D000D099
:1012900000D0CDB7DEB78C01BC01CE0101960E9413
:1012A000042ECE0101960E942109CE0101960E94D2
:1012B000122D4AE060E2C8010E94822EB801CE01E0
:1012C00001960E94042ECE0101960E94DC08CE01F8
:1012D00001960E94122D26960FB6F894DEBF0FBE1F
:1012E000CDBFDF91CF911F910F91089587E994E0D1
:1012F0000C94C42BCF93DF93CDB7DEB767970FB6AF
:10130000F894DEBF0FBECDBF80913804882369F00A
:1013100087E1EAE8F2E0DE01119601900D928A95EC
:10132000E1F7BE016F5F7F4F02C061EA72E087E9BB
:1013300094E00E94BB2B62E372E0CE0101960E9412
:101340003A2ECE0101960E942109CE0101960E94FB
:10135000122D67960FB6F894DEBF0FBECDBFDF919A
:10136000CF91089580933804682F80E090E00C942A
:101370001434883031F091E0843109F090E0892F05
:10138000089581E00895BF92CF92DF92EF92FF928D
:101390000F931F93CF93DF93CDB7DEB7C457D10917
:1013A0000FB6F894DEBF0FBECDBFB82E44E150E0BB
:1013B000BE01655A7F4F81E494E00E94DB226E01FA
:1013C00087E4C80ED11C44E150E0B60181E494E00A
:1013D0000E9485227E0193E3E90EF11C44E150E076
:1013E000B70181E494E00E94E1220E94760964E260
:1013F00072E08E010F5F1F4FC8010E943A2EC80194
:101400000E94F508C8010E94122DBE01655A7F4F47
:10141000C8010E94802DC8010E942109C8010E94B4
:10142000122D66E172E0C8010E943A2EC8010E94A6
:10143000F508C8010E94122DB601C8010E94802D36
:10144000C8010E942109C8010E94122D68E072E0C3
:10145000C8010E943A2EC8010E94F508C8010E94E6
:10146000122DB701C8010E94802DC8010E942109D8
:10147000C8010E94122D6AEF71E0C8010E943A2E45
:10148000C8010E94F508C8010E94122D6CEA72E0A2
:10149000C8010E94802DC8010E942109C8010E9434
:1014A000122DBB2009F489C08CEA92E09F938F93A0
:1014B00081EB92E09F938F931F930F930E941832BA
:1014C000B801CE0181599F4F0E94802DCE018159D4
:1014D0009F4F0E94DC08CE0181599F4F0E94122D20
:1014E00068EE73E080E090E00E942A2889E08F9304
:1014F00080E68F938EEB92E09F938F931F930F93D1
:101500000E941832B801CE0181599F4F0E94802D50
:10151000CE0181599F4F0E94DC08CE0181599F4F17
:101520000E94122D68EE73E080E090E00E942A286D
:10153000DF92CF928CEC92E09F938F931F930F9347
:101540000E941832B801CE0181599F4F0E94802D10
:10155000CE0181599F4F0E94DC08CE0181599F4FD7
:101560000E94122D68EE73E080E090E00E942A282D
:10157000FF92EF928BED92E09F938F931F930F93C7
:101580000E941832B801CE0181599F4F0E94802DD0
:10159000CE0181599F4F0E94DC08CE0181599F4F97
:1015A0000E94122D68EE73E080E090E00E942A28ED
:1015B0000FB6F894DEBF0FBECDBFCC58DF4F0FB6CD
:1015C000F894DEBF0FBECDBFDF91CF911F910F9179
:1015D000FF90EF90DF90CF90BF900895CF93DF936F
:1015E000EC01E881F9810480F581E02DCE010995B7
:1015F000892BB9F3E881F9810680F781E02DCE01CE
:10160000DF91CF9109948F929F92AF92BF92CF9228
:10161000DF92EF92FF92CF93DF93EC014B010E9498
:10162000FB276B017C01A12CB12CE881F98104809E
:10163000F581E02DCE010995892BC1F40E94FB278D
:101640006C197D098E099F0986169706A806B906AA
:1016500060F78FEF9FEFDF91CF91FF90EF90DF90DA
:10166000CF90BF90AF909F908F900895E881F981BF
:101670000084F185E02DCE01DF91CF91FF90EF90B6
:10168000DF90CF90BF90AF909F908F9009940F9371
:101690001F93CF93DF9300D000D000D0CDB7DEB73B
:1016A0000E94760961E171E0CE0101960E943A2E16
:1016B000CE0101960E94F508CE0101960E94122DDE
:1016C00060913604709137044AE050E087E994E075
:1016D0000E94B32C6FE071E0CE0101960E943A2E79
:1016E000CE0101960E942109CE0101960E94122D81
:1016F0000E94760964EF70E0CE0101960E943A2EB6
:10170000CE0101960E942109CE0101960E94122D60
:1017100061EE70E0CE0101960E943A2ECE01019654
:101720000E942109CE0101960E94122D6AEC70E000
:10173000CE0101960E943A2ECE0101960E94210907
:10174000CE0101960E94122D0E94760961EC70E094
:10175000CE0101960E943A2ECE0101960E94F50814
:10176000CE0101960E94122D87E994E00E94EE0AB4
:101770008C01682F87E994E00E94FE2B043111054B
:1017800051F16CF40A30110509F48ACF0D301105BE
:1017900009F486CF0830110511F580E01DC0003333
:1017A000110569F02CF40032110509F479CF17C046
:1017B0000133110549F00233110549F110C01092AF
:1017C0003704109236040EC081E090E09093370405
:1017D0008093360407C081E00E94B20961CF67EAB6
:1017E00070E008C06091360481E090E00E941434FB
:1017F00061EA70E0CE0101960E943A2ECE01019678
:101800000E942109CE0101960E94122D49CF2696F1
:101810000FB6F894DEBF0FBECDBFDF91CF911F9101
:101820000F9108950F9300E020E040E060E086EB28
:1018300094E00E94312B20E046E065E087E994E0E7
:101840000E94AD1981E494E00E946D2767E274E084
:101850008BE394E00E94802D80E090E00E940C34A5
:1018600091E0811101C090E09093380481E090E014
:101870000E940C3490E090933704809336040F91CB
:1018800008958BE394E00E94122D87E994E00C9474
:101890005419DF92EF92FF920F931F93CF93DF9330
:1018A000CDB7DEB7E2970FB6F894DEBF0FBECDBF5F
:1018B0007C0100E010E087E994E00E94EE0AD82E57
:1018C000E1E0F0E0EC0FFD1FE00FF11F8083682FD7
:1018D00087E994E00E9408188D2D0E94B909882399
:1018E00029F00115110579F0025011098DE0D81683
:1018F00069F00133110551F00F5F1F4F0F3F8FEF5C
:101900001807C9F6D6CF8DE0D812F6CFE1E0F0E0A7
:10191000EC0FFD1FE00FF11F1082BE016F5F7F4FC4
:10192000C7010E94802DC701E2960FB6F894DEBF72
:101930000FBECDBFDF91CF911F910F91FF90EF9020
:10194000DF9008950F931F93CF93DF9300D000D0C3
:1019500000D0CDB7DEB78C01CE0101960E94490CB4
:10196000CE0101960E94902E80913804882331F098
:1019700069817A81C8010E94C21406C0BE016F5FEE
:101980007F4FC8010E94ED2CCE0101960E94122DBE
:10199000C80126960FB6F894DEBF0FBECDBFDF910B
:1019A000CF911F910F9108950F931F93CF93DF93C2
:1019B000CDB7DEB72C970FB6F894DEBF0FBECDBF04
:1019C0000E9476096FED72E0CE0101960E943A2ED8
:1019D000CE0101960E942109CE0101960E94122D8E
:1019E0000E94760968ED72E0CE0101960E943A2EBF
:1019F000CE0101960E942109CE0101960E94122D6E
:101A00006AEC72E0CE0101960E943A2ECE01019658
:101A10000E942109CE0101960E94122D6AEA72E00D
:101A2000CE0101960E943A2ECE0101960E94210914
:101A3000CE0101960E94122D0E94760961EA72E0A1
:101A4000CE0101960E943A2ECE0101960E94F50821
:101A5000CE0101960E94122D87E994E00E94EE0AC1
:101A60008C01682F87E994E00E94FE2B0431110558
:101A7000F9F06CF40A30110509F4A2CF0D3011050C
:101A800009F49ECF08301105B9F480E012C001338B
:101A90001105F9F02CF40032110509F491CF0CC0B6
:101AA00002331105C9F00333110509F4BEC004C0A7
:101AB00081E00E94B20984CF67E872E0CE0101960E
:101AC0000E943A2ECE0101960E942109CE01019674
:101AD000A9C001E010E002C000E010E00E94760919
:101AE00067E274E0CE0107960E94802D0130110557
:101AF00021F562E872E0CE0101960E943A2ECE01F5
:101B000001960E94F508CE0101960E94122DCE0189
:101B100001960E94A20CBE016F5F7F4FCE01079617
:101B20000E940D2ECE0101960E94122D6F817885A4
:101B300081E494E00E943F2523C066E772E0CE0175
:101B400001960E943A2ECE0101960E94F508CE0120
:101B500001960E94122DCE0101960E94A20CBE0198
:101B60006F5F7F4FCE0107960E940D2ECE0101962A
:101B70000E94122D6F81788581E494E00E945E2599
:101B80000E94760960E772E0CE0101960E943A2E2B
:101B9000CE0101960E94F508CE0101960E94122DF9
:101BA000CE0101960E94A20CBE016F5F7F4FCE0155
:101BB00007960E940D2ECE0101960E94122D6F8174
:101BC000788581E494E00E94342581111BC066E58C
:101BD00072E0CE0101960E943A2ECE0101960E943B
:101BE0002109CE0101960E94122D81E494E00E9409
:101BF000DB2481E494E00E94D025CE0107960E9468
:101C0000122D13C063E472E0CE0101960E943A2EB9
:101C1000CE0101960E942109CE0101960E94122D4B
:101C2000CE0107960E94122DCBCE2C960FB6F894BB
:101C3000DEBF0FBECDBFDF91CF911F910F910895F1
:101C40000F931F93CF93DF9300D000D000D0CDB778
:101C5000DEB767E971E0CE0101960E943A2ECE010F
:101C600001960E94F508CE0101960E94122D609106
:101C70000601709107014AE050E087E994E00E9474
:101C8000B32C63E971E0CE0101960E943A2ECE0199
:101C900001960E94F508CE0101960E94122DCE01F8
:101CA00001960E94A20C8D819E81892B31F0CE017C
:101CB00001960E94EF2E8B0104C000910601109145
:101CC0000701CE0101960E94122DC80126960FB67B
:101CD000F894DEBF0FBECDBFDF91CF911F910F9162
:101CE00008951F93CF93DF93EC01162F6FEF81E4DC
:101CF00094E00E94CD1BCD3FD10511F46DEF01C0E2
:101D00006BEF81E494E00E94CD1B612F81E494E0AD
:101D1000DF91CF911F910C94CD1B1F93CF93DF9335
:101D2000EC01162F6FEF81E494E00E94CD1BCD3FB4
:101D3000D10511F46CEF01C06EEF81E494E00E94D4
:101D4000CD1B612F81E494E0DF91CF911F910C9422
:101D5000CD1B6FEF81E494E00E94CD1B6EEF81E418
:101D600094E00E94CD1B62E281E494E00E94CD1BCE
:101D70006FEF81E494E00E94CD1B6EEF81E494E06C
:101D80000E94CD1B61E081E494E00C94CD1BCF93C5
:101D9000DF9368E873E181E494E00E94030B8F3FD6
:101DA000910591F50E94A90E68EE73E081E494E03C
:101DB0000E94030B8F3F910539F581E494E00E9466
:101DC000EE0A81E494E00E94EE0AEC018F3F2FEFCF
:101DD000920751F38B5F9109049730F781E494E007
:101DE0000E94EE0A8F3F2FEF9207F1F283309105A8
:101DF00031F463E070E0CE010E94710ED5CFBC01DA
:101E0000CE010E948D0ED0CFDF91CF9108956F92B9
:101E10007F928F929F92AF92BF92CF92DF92EF927A
:101E2000FF920F931F93CF93DF93CDB7DEB7CE57BB
:101E3000D1090FB6F894DEBF0FBECDBFE12CF12C57
:101E4000CE0101966C0184EE882E82E0982E5E0110
:101E500095E6A90EB11C81E494E00E94EB1D019669
:101E600009F48FC08091390490913A04892B09F4C8
:101E70006AC000E010E081E494E00E94EB1D1816B7
:101E80001906B4F48091B0008F7D8093B0005B9A06
:101E900081E494E00E94901DF601E00FF11F808321
:101EA0000F5F1F4F0436110534F303E610E0E3CF54
:101EB0003601C3018C199D098017910754F4359B95
:101EC000FECFF30161913F0187E994E00E94081879
:101ED000F0CFE016F1060CF47801FF92EF929F929A
:101EE0008F92BF92AF920E941832B501CE018758EF
:101EF0009F4F0E94802DCE0187589F4F0E94DC0883
:101F0000CE0187589F4F0E94122D8091B0008F7D87
:101F10008093B0005B980F900F900F900F900F90F0
:101F20000F9018C08091390490913A04892B11F0D8
:101F30000E94CC0881E494E00E94901D682F87E9FC
:101F400094E00E94081881E494E00E94EB1D1816AA
:101F5000190644F387E994E00E94741818161906CC
:101F600054F487E994E00E94E717682F81E494E035
:101F70000E94CD1BEFCF81E494E00E9425268111C1
:101F80006ACF81E494E00E94322669E471E0CE01D8
:101F90008B599F4F0E943A2ECE018B599F4F0E9422
:101FA0004209CE018B599F4F0E94122DC258DF4F1C
:101FB0000FB6F894DEBF0FBECDBFDF91CF911F915A
:101FC0000F91FF90EF90DF90CF90BF90AF909F90D8
:101FD0008F907F906F9008950F931F93CF93DF930F
:101FE000CDB7DEB72C970FB6F894DEBF0FBECDBFCE
:101FF00081E494E00E94A3228C010E9476096AEE9B
:1020000071E0CE0101960E943A2ECE0101960E9407
:10201000F508CE0101960E94122D4AE050E0B80169
:1020200087E994E00E94B32C66EE71E0CE01019640
:102030000E943A2ECE0101960E94F508CE0101962B
:102040000E94122DCE0107960E94A20C8B859C85C2
:10205000892B81F0CE0107960E94EF2E81E494E057
:102060000E94032581E494E00E94DB2481E494E053
:102070000E94D02581E494E00E94A3228C010E945A
:10208000760966EC71E0CE0101960E943A2ECE01EF
:1020900001960E94F508CE0101960E94122D4AE099
:1020A00050E0B80187E994E00E94BB2C81E494E001
:1020B0000E9425268823D1F362EB71E0CE010196C0
:1020C0000E943A2ECE0101960E942109CE0101966E
:1020D0000E94122D0E94070FCE0107960E94122D1A
:1020E0002C960FB6F894DEBF0FBECDBFDF91CF9117
:1020F0001F910F910895BF92CF92DF92EF92FF92BE
:102100000F931F93CF93DF93CDB7DEB7C854D10998
:102110000FB6F894DEBF0FBECDBF7C016B01B42EAD
:10212000FC0181818F9380818F938CEE92E09F934D
:102130008F938E010F5F1F4F1F930F930E941832D2
:10214000B801CE01C3960E94802DCE01C3960E9495
:102150004209CE01C3960E94122D62E081E494E010
:102160000E941A25F7016081718120E130E0AE0103
:102170004D5C5F4F81E494E00E9413230F900F9019
:102180000F900F900F900F90811103C06BE671E0DC
:1021900035C021E0A601BE016D5C7F4F81E494E073
:1021A0000E947226882341F1F70181818F938081FB
:1021B0008F938EEF92E09F938F931F930F930E94C4
:1021C0001832B801CE018D5B9F4F0E94802DCE0149
:1021D0008D5B9F4F0E944209CE018D5B9F4F0E94F5
:1021E000122D0F900F900F900F900F900F90B11035
:1021F00015C00E94C70E12C06BE571E0CE018D5B69
:102200009F4F0E943A2ECE018D5B9F4F0E94420944
:10221000CE018D5B9F4F0E94122D02C00E94070FBE
:10222000C85BDF4F0FB6F894DEBF0FBECDBFDF91A6
:10223000CF911F910F91FF90EF90DF90CF90BF90C3
:1022400008950F931F93CF93DF93CDB7DEB72C97ED
:102250000FB6F894DEBF0FBECDBF63EA71E0CE01CA
:1022600001960E943A2ECE0101960E94F508CE01F9
:1022700001960E94122D6BE374E0CE0101960E943C
:10228000042ECE0101960E94F508CE0101960E940F
:10229000122D6FE971E0CE0101960E943A2ECE0117
:1022A00001960E94F508CE0101960E94122DCE01E2
:1022B00007960E94A20C8B859C85892B91F00E9429
:1022C000200E8C01BE01695F7F4F8BE394E00E947A
:1022D000ED2D1093070100930601BE01695F7F4F4A
:1022E0000FC080913F0490914004892BB9F00E9467
:1022F000200E8C0190930701809306016BE374E03C
:10230000CE0101960E94042E40E0B801CE01019654
:102310000E947B10CE0101960E94122DCE010796DD
:102320000E94122D2C960FB6F894DEBF0FBECDBFC3
:10233000DF91CF911F910F910895CF93DF9300D03C
:1023400000D000D0CDB7DEB780913604909137042D
:10235000009709F453C0019749F563E870E0CE0196
:1023600001960E943A2ECE0101960E942109CE01CB
:1023700001960E94122D68E670E0CE0101960E943F
:102380003A2ECE0101960E942109CE0101960E94AB
:10239000122D68E873E187E994E00E94030B01962F
:1023A00079F087E994E00E94EE0A28C060E081E0BD
:1023B00090E00E94143410923704109236041EC02C
:1023C00080913604909137040197C1F46EE073E078
:1023D000CE0101960E94802D41E065E076E0CE01BD
:1023E00001960E947B10CE0101960E94122D68EE8C
:1023F00073E080E090E00E942A28E8CF26960FB68E
:10240000F894DEBF0FBECDBFDF91CF910895CF937B
:10241000DF93CDB7DEB7E8970FB6F894DEBF0FBEF7
:10242000CDBF6BE271E08E010F5F1F4FC8010E94AC
:102430003A2EC8010E942109C8010E94122D412C88
:10244000512C3201C12CD12C7601912C93E4292EF0
:1024500093E0392E26E2A22E23E0B22E81E494E00E
:102460000E94EB1D18161906CCF48FEFC81AD80A73
:10247000E80AF80A8091390490913A04892B11F006
:102480000E94CC0881E494E00E94901D682F87E9A7
:1024900094E00E94081899249394E0CF87E994E08F
:1024A0000E947418181619068CF49FEF491A590ADD
:1024B000690A790A87E994E00E94E717682F81E4A6
:1024C00094E00E94CD1B99249394E8CF992031F297
:1024D0008091390490913A04892B99F01F921F92B0
:1024E0001F921F927F926F925F924F92FF92EF9294
:1024F000DF92CF92BF92AF921F930F930E94183238
:102500000EC07F926F925F924F92FF92EF92DF9296
:10251000CF923F922F921F930F930E9418320FB6C3
:10252000F894DEBF0FBECDBFB801CE01C3960E94A6
:10253000802DCE01C3960E94DC08CE01C3960E9476
:10254000122D8CCF0F931F93CF93DF9300D000D029
:1025500000D0CDB7DEB70E9476096AE873E0CE01FD
:1025600001960E943A2ECE0101960E942109CE01C9
:1025700001960E94122D0E94760969E673E0CE0151
:1025800001960E943A2ECE0101960E942109CE01A9
:1025900001960E94122D6AE573E0CE0101960E9419
:1025A0003A2ECE0101960E942109CE0101960E9489
:1025B000122D65E473E0CE0101960E943A2ECE0101
:1025C00001960E942109CE0101960E94122D65E21A
:1025D00073E0CE0101960E943A2ECE0101960E9430
:1025E0002109CE0101960E94122D6EE073E0CE010A
:1025F00001960E943A2ECE0101960E942109CE0139
:1026000001960E94122D0E94760965E073E0CE01CA
:1026100001960E943A2ECE0101960E94F508CE0145
:1026200001960E94122D87E994E00E94EE0A8C0127
:10263000682F87E994E00E94FE2B0032110509F40F
:102640008ACF9CF40A30110509F485CF2CF40830A8
:10265000110559F580E026C00D30110509F47BCF36
:102660000431110511F581E01DC003331105A9F0F6
:102670004CF40133110569F002331105B1F40E94E5
:10268000D40C69CF0433110559F005331105E1F07D
:102690000CC080E00E94C3095ECF0E94470B5BCF55
:1026A0000E9407120E94B20956CF6BEE72E0CE0173
:1026B00001960E943A2ECE0101960E942109CE0178
:1026C00001960E94122D47CF26960FB6F894DEBFD2
:1026D0000FBECDBFDF91CF911F910F910895CF9382
:1026E000DF9300D000D000D0CDB7DEB70E945228D3
:1026F0008CEB94E00E94741760E08CEB94E00E94F5
:102700006A1561E08CEB94E00E94241740E659E0E2
:1027100060E070E087E994E00E94DD1926E040E681
:1027200059E060E070E082E495E00E94FA2948EE0A
:1027300053E060E070E087E994E00E94E72C80912C
:10274000390490913A04892B59F03D98399A52985E
:10275000539A8091B0008F7D8093B0005B98419A2E
:102760006FE374E0CE0101960E943A2ECE010196ED
:102770000E944209CE0101960E94122D47E954E0C1
:1027800062E475E081E494E00E94FB25882369F10E
:1027900065E374E0CE0101960E943A2ECE010196C7
:1027A0000E944209CE0101960E94122D61E081E44F
:1027B00094E00E941C2581E494E00E9432260E944D
:1027C0009D110E94760961E174E0CE0101960E949C
:1027D0003A2ECE0101960E942109CE0101960E9457
:1027E000122D81E00E94C30918C067E274E0CE0197
:1027F00001960E943A2ECE0101960E944209CE0116
:1028000001960E94122D0E940712053111050CF04D
:102810006AC00A30110509F05DC06AE074E0CE01BB
:1028200001960E943A2ECE0101960E94DC08CE014C
:1028300001960E94122D0E9476090E947A090E9438
:10284000760961EF73E0CE0101960E943A2ECE0127
:1028500001960E942109CE0101960E94122D61ED80
:1028600073E0CE0101960E943A2ECE0101960E949D
:102870002109CE0101960E94122D60EC73E0CE0179
:1028800001960E943A2ECE0101960E942109CE01A6
:1028900001960E94122D0E94760967EB73E0CE012B
:1028A00001960E943A2ECE0101960E94F508CE01B3
:1028B00001960E94122D87E994E00E94EE0A8C0195
:1028C000682F87E994E00E94FE2B0431110509F07E
:1028D0009CCF21C00D30110509F49FCF08301105A0
:1028E000F1F480E019C00133110579F02CF40032C5
:1028F000110509F492CF13C00233110549F00333D7
:10290000110569F40E94A21288CF0E94211185CF7F
:102910000E94EC0F82CF81E00E94B2097ECF6DE968
:1029200073E0CE0101960E943A2ECE0101960E94DC
:102930002109CE0101960E94122D6FCFCF938036D0
:102940001CF0C0E6C80F05C08D30B1F08A30B1F080
:10295000C82FC03214F4CEE212C08FEB8C0F8A3134
:1029600010F4C05E0CC08C2F992787FD90950E94B3
:102970009E31892B81F303C0CAE001C0CDE08C2FCA
:10298000CF910895EF92FF920F931F93CF93DF9310
:102990008C017B0167E274E00E94802DE701899140
:1029A000882339F00E949E14682FC8010E946F2E60
:1029B000F6CFC801DF91CF911F910F91FF90EF905B
:1029C00008958A30C1F08D30C1F08032D4F0803665
:1029D000B1F09FE9980F9A3110F4805208959FEB5F
:1029E000980F9A3110F4805808958B3754F480363C
:1029F0004CF0805A08958DE008958AE0089587E2AA
:102A000008958FE30895EF92FF920F931F93CF9352
:102A1000DF938C017B0167E274E00E94802DE70167
:102A20008991882339F00E94E114682FC8010E941F
:102A30006F2EF6CFC801DF91CF911F910F91FF90BC
:102A4000EF9008950DB407FEFDCF0895FC01638754
:102A5000448708950F936034D8F54033C8F50130AA
:102A6000C9F42130A9F5E42FE695E695E69580E4D2
:102A7000E89FF0011124E60FF11DE85FFE4F47705B
:102A800081E090E0042E01C0880F0A94EAF790815B
:102A900098271DC0842F869586958695E62FF0E0B1
:102AA000477090E4899FE00DF11D1124E85FFE4F0F
:102AB00081E090E0042E01C0880F0A94EAF72130EB
:102AC00019F49081982B03C080959081982390836E
:102AD0000F910895DC0161112EC018961C92189771
:102AE0008091880290918902FC01249116962C9382
:102AF00016973196E4911796EC931797FC0132964E
:102B0000E4911996EC931997FC013396E4911A9687
:102B1000EC931A97FC01349624913196849190E0BD
:102B2000F4E62F9F800D911D11241E969C938E9389
:102B30001D9781E0089580E008955F926F927F92E3
:102B40008F929F92AF92BF92CF92DF92EF92FF92BD
:102B50000F931F93CF93DF93EC01162FB42EF02E1B
:102B60003985231708F4B0C06A8570E0630F711DC2
:102B7000822F90E0861797070CF0A6C0D22ED31AAA
:102B80009F8096949694969481E08915C0F1C12E09
:102B90003C2D311B2E81822F90E0A32FB0E08A17AD
:102BA0009B070CF491C0321791F0E885F0E0EE0F2E
:102BB000FF1FE857FD4FD29EA00DB11D11241696A0
:102BC0000190F081E02DEA0FFB1F949001C0912C41
:102BD000A12C4A2D4B0D90FE03C00E2D2F2D04C0AD
:102BE00021E0F11020E00E2D6C2DCE010E942A155F
:102BF0009694A39488E0A812ECCFC394C9CFED8536
:102C0000FE852E8130E0CF01B9010E94FB2E8D2D73
:102C100090E00E94FB2E829F6001839FD00C929FC8
:102C2000D00C11249E9E90019F9E300D1124269F52
:102C3000C001279F900D369F900D1124C80ED91EFC
:102C4000742EA12CB12C86E0C80ED11C812E482DEB
:102C5000411B8E81481780F5E885F0E0EE0FFF1FDD
:102C6000E857FD4F2D853E85A29EC001A39E900D85
:102C7000B29E900D11248C0D9D1D840F911D01900D
:102C8000F081E02DE80FF91F5490612C462D470D7F
:102C900050FE03C00E2D2F2D04C021E0F11020E0C6
:102CA0000E2D682DCE010E942A155694639488E05B
:102CB0006812ECCF8394CBCF8FEFA81AB80A88E0C4
:102CC000780EA91408F4C2CFDF91CF911F910F9114
:102CD000FF90EF90DF90CF90BF90AF909F908F903C
:102CE0007F906F905F900895EF920F93CF93DF9353
:102CF000EC01262F6A30A9F06D30C1F0ED800C8117
:102D00004C856B850E949D154E812B85240F2F5F6E
:102D10002B8730E080E490E0841B910982179307B1
:102D20002CF48C859F81890F8C871B8681E090E035
:102D3000DF91CF910F91EF9008952A9A22982898C9
:102D4000209A60E08DE00E94EF2860E08BE00E9416
:102D5000EF2861E08DE00E94B62861E08BE00E94E0
:102D6000B6288CB580618CBD08958CB580648CBD0F
:102D70002A98229A08950DB407FEFDCF2898209A2C
:102D80002A9A22988CB58F7B8CBD0895CF93DF93C0
:102D900000D0CDB7DEB74A8369830E94B51669813A
:102DA0006EBD0E9422154A814EBD0F900F90DF919B
:102DB000CF910C94BB16CF93DF9300D01F92CDB769
:102DC000DEB72B834A8369830E94B51669816EBD85
:102DD0000E9422154A814EBD0E9422152B812EBDD4
:102DE0000F900F900F90DF91CF910C94BB160F9323
:102DF0001F93CF93DF93EC0140E060E20E94C61680
:102E00002FE740E061E2CE010E94DB1627E040E0C0
:102E100062E2CE010E94DB160E94B516289A209825
:102E20001EBC0FEF13E00E9422151EBC01501109B9
:102E3000D1F70E94BB1642E060E2CE01DF91CF9154
:102E40001F910F910C94C616613011F40C94F71673
:102E500080E891E0E8E0F1E0DF019C011D92215063
:102E60003040E1F708950F931F93CF93DF93EC0168
:102E700040E060E20E94C6162FE540E261E2CE012A
:102E80000E94DB1625E040E062E2CE010E94DB16E4
:102E90000E94B516289A2098809108018EBD09E0FD
:102EA00011E00E942215F80181918F018EBDF2E0A0
:102EB00008381F07B1F70E94BB1642E060E2CE015E
:102EC000DF91CF911F910F910C94C6162CB5982FBE
:102ED00093702C7F922B9CBD9DB582FB882780F937
:102EE0009E7F982B9DBD0895CF93DF93EC0160E00A
:102EF0000E946A1581E08C831D821B861C865F9868
:102F0000579A61E084E00E94B62861E084E00E9464
:102F1000EF286AE070E080E090E00E942A285F9A43
:102F2000579865E070E080E090E00E942A285F9862
:102F3000579A84E00E9466170E949D1665E070E033
:102F400080E090E00E942A285F9A57986AE070E03B
:102F500080E090E00E942A284FE268EACE010E94B9
:102F6000C61644E16DE8CE010E94C6160E94B51651
:102F700081EA8EBD0E94BB160E94B51688EC8EBDFC
:102F80000E94BB164FE861E8CE010E94C61641EFD1
:102F900069EDCE010E94C61640E46BEDCE010E94A1
:102FA000C6160E94B5168FEA8EBD0E94BB16CE01D2
:102FB000DF91CF910C94F7161092BF041092BE04CB
:102FC0008AE593E09093BD048093BC04089520911A
:102FD0000D0530910E0528173907B9F49091CB04EF
:102FE0008091CC04981789F0E091CB04F0E0E35392
:102FF000FB4F80812091CB0430E02F5F3F4F2F7338
:1030000033272093CB0490E008958FEF9FEF08952E
:103010001F93CF93DF93DC015C968D919C915D971C
:10302000009749F481E090E013969C938E93129759
:1030300080E090E03BC05196ED91FC915297509604
:103040002C915097322F30951FB75E964C915E971A
:1030500041FB772770F941FD6095F8944081772313
:1030600011F0422B01C043234083EC012197F1F77B
:1030700048E0508160FF02C0522B01C053235083AF
:10308000EC012197F1F76695415099F780817723FC
:1030900011F0832301C0822B80831FBF5C968D912A
:1030A0009C915D970197F1F781E090E0DF91CF91DE
:1030B0001F91089520910D0530910E0528173907AD
:1030C00081F49091CB048091CC04981751F0E09159
:1030D000CB04F0E0E353FB4F8081992787FD909567
:1030E00008958FEF9FEF089520910D0530910E0503
:1030F0002817390771F48091CC042091CB0490E01B
:10310000805C9F4F821B910960E470E00E940F2F4A
:10311000089580E090E0089520910D0530910E050E
:103120002817390739F48FB7F8941092CC0410920D
:10313000CB048FBF0895E0910D05F0910E05E817BF
:10314000F90769F4A389B4899C91858980958923BD
:103150008C9310920E0510920D0581E0089580E089
:103160000895CF93DF93EC018A8D9B8D892BF1F02D
:1031700080910D0590910E058C179D07B9F0009771
:1031800011F00E949B188E8D8E7F8E8F1092CC0432
:103190001092CB04D0930E05C0930D05EB89FC89EA
:1031A00080819D89892B808381E001C080E0DF914F
:1031B000CF9108951F920F920FB60F9211242F9363
:1031C0003F934F935F936F937F938F939F93AF93AF
:1031D000BF93EF93FF93E0910D05F0910E053097AB
:1031E00009F451C0868DA685B785958581FF04C0F9
:1031F0008C91892329F447C08C91892309F043C01D
:10320000A389B4899C918589809589238C9386892B
:1032100097890197F1F7208D318DA685B785758542
:1032200058E040E0C9010197F1F7842F90E09595AF
:103230008795482F6C91672309F04068515091F7AA
:10324000868D81FD40958091CC0490E001968F732E
:1032500099272091CB04281749F0A091CC04B0E025
:10326000A353BB4F4C938093CC0403C0868D8160E5
:10327000868F828D938D0197F1F7A389B4898C9104
:103280009589892B8C93FF91EF91BF91AF919F917D
:103290008F917F916F915F914F913F912F910F90FF
:1032A0000FBE0F901F90189522E633E0FC0131838A
:1032B00020830C949B181F93CF93DF93EC01162F60
:1032C0006E8D6695617081E06827812F0E94EF28DE
:1032D00061E0812F0E94B628812F90E0FC01E1512E
:1032E000FF4EE491E88BFC01ED5FFE4EE491F0E0CF
:1032F000EE0FFF1FEF5DFE4E859194919A8B898BA7
:10330000DF91CF911F9108951F93CF93DF93EC012D
:10331000162F60E0812F0E94B6288E8D81FD04C09B
:1033200061E0812F0E94EF281C87812F90E0FC0133
:10333000E151FF4EE491ED87FC01ED5FFE4EE4911B
:10334000F0E0EE0FFF1FE95EFE4E859194919F879E
:103350008E87DF91CF911F910895FF920F931F9356
:10336000CF93DF93EC01F62E522F1B821A8208EEC8
:1033700013E020E030E00C831D832E833F8382E640
:1033800093E0998388831F8A1E8A198E188E1B8E5C
:103390001A8E1D8E1C8E8E8D8E7F50FB81F98E8F26
:1033A000642FCE010E945B196F2DCE01DF91CF916A
:1033B0001F910F91FF900C948419CF93DF93EC0130
:1033C0009A01AB011B8E1A8E198E188E1F8A1E8AC7
:1033D00060E079E08DE390E00E94452FC901243040
:1033E000310520F0B9016350710902C061E070E05D
:1033F0007D8F6C8FEC85E63108F068C0B901769559
:1034000067956431710518F06351710902C061E07C
:1034100070E07F8B6E8B069718F0C901059702C08C
:1034200081E090E0998F888FC901880F991F820FE2
:10343000931F96958795969587958D30910510F0F9
:103440000C9702C081E090E09B8F8A8F20916800EA
:10345000E83050F091E0EE3008F490E081E001C0F7
:10346000880F9A95EAF701C084E0822B8093680068
:103470002C85283038F02E3040F0263148F48CE688
:1034800090E008C08DE690E005C08BE690E002C0B9
:1034900080E090E09C8B8B8B283030F481E001C081
:1034A000880F2A95EAF70DC0822F90E02E3010F495
:1034B000089701C00E9791E001C0990F8A95EAF72D
:1034C000892F8D8B8C8D9D8D0197F1F7CE01DF912A
:1034D000CF910C94B118DC011C968D919C911D9795
:1034E000DC01ED91FC910680F781E02D0994DC016F
:1034F0001C968D919C911D97DC01ED91FC910480AF
:10350000F581E02D0994DC011C968D919C911D970D
:10351000DC01ED91FC910284F385E02D0994DC013E
:103520001C968D919C911D97DC01ED91FC9100847E
:10353000F185E02D09942F923F924F925F926F9206
:103540007F928F929F92AF92BF92CF92DF92EF9233
:10355000FF920F931F93CF93DF93CDB7DEB76097A2
:103560000FB6F894DEBF0FBECDBF2B013C01690141
:103570004A3021F5CE0101961C01E12CF12C5AE0D4
:10358000852E912CA12CB12CC301B201A50194016F
:103590000E94232F9FEFE91AF90A80E3840DEAE0E5
:1035A0002E9F80191124F10181931F0121153105EE
:1035B00041055105C9F129013A01E6CFFE013196D5
:1035C00080E090E0B301A2014F705527662777276E
:1035D0009C012F5F3F4F4A3051056105710510F482
:1035E000A0E301C0A1E44A0F419344E076946794BC
:1035F000579447944A95D1F74114510461047104DA
:1036000011F0C901DFCFE1E0F0E0EC0FFD1FE20FA8
:10361000F31F48E740837C01F3E0EF0EF11CFE014D
:10362000E80FF91F20E3238321E0E21AF108F601F5
:1036300080E090E0015011090196A1E0B0E0AC0FEC
:10364000BD1FAE0DBF1D2C9121931E141F04ECF065
:10365000F601E80FF91F108260960FB6F894DEBFEE
:103660000FBECDBFDF91CF911F910F91FF90EF90D3
:10367000DF90CF90BF90AF909F908F907F906F9092
:103680005F904F903F902F90089521E0E21AF1084B
:1036900080179107ECF6D0CFCF92DF92EF92FF9296
:1036A0000F931F93FC0140E060E070E0CB010191BB
:1036B000002309F449C020ED200F2A30B0F414E0B3
:1036C000660F771F881F991F1A95D1F760537109EC
:1036D00081099109C02EDD24C7FCD094ED2CFD2C6E
:1036E0006C0D7D1D8E1D9F1DE2CF2FE9200F263012
:1036F00060F4B4E0660F771F881F991FBA95D1F761
:1037000067557109810991090FC02FEB200F2630F1
:10371000A8F4A4E0660F771F881F991FAA95D1F718
:103720006753710981099109112707FD1095212F10
:10373000312F600F711F821F931FB9CF083721F4FB
:10374000411102C041E0B3CF1F910F91FF90EF9064
:10375000DF90CF9008950F931F93FC0160E070E01D
:10376000CB01019120ED200F2A30A0F4AAE0B0E0B7
:103770009B01AC010E946A2F605371098109910974
:10378000112707FD1095212F312F600F711F821F08
:10379000931FE7CF1F910F910895DC01AE5ABF4FE1
:1037A0002D913C911197FC01EC5AFF4F40815181C2
:1037B0002417350764F434970190F081E02DA901B6
:1037C0004F5F5F4F4D935C93E20FF31F6083FC01EB
:1037D000FF9680819181DC01ED91FC910190F08157
:1037E000E02D0994CF96DC018D919C91DC01ED9147
:1037F000FC910284F385E02D0994DC011C968D91E7
:103800009C911D97009739F0DC01ED91FC9101909E
:10381000F081E02D099480E090E008952091220548
:1038200021110BC0FC01FF9680819181DC01ED919B
:10383000FC910084F185E02D0994E0912305F0E0EE
:10384000EB5DFA4F8081992787FD90950895DC0103
:10385000ED91FC910190F081E02D09944F925F92DF
:103860006F927F92AF92BF92CF92DF92EF92FF92D0
:103870000F931F93CF93DF93EC015B016A010E94CA
:10388000FB272B013C01E12CF12C8E01015C1F4F29
:103890000E94FB2764197509860997096C157D0537
:1038A0008E059F0508F067C0D8018D919C91DC01C1
:1038B000ED91FC910480F581E02D0995181619060B
:1038C0003CF7F80180819181DC01ED91FC9106804B
:1038D000F781E02D0995F82EF5018083DE01AE5ABF
:1038E000BF4F2D913C911197FE01EC5AFF4F808103
:1038F0009181281739075CF434970190F081E02D0D
:10390000C90101968D939C93E20FF31FF0828C8581
:103910008823E1F160910F0570911005CB010196AC
:103920009093100580930F05CF5BDF4F4AE050E086
:10393000CE010E94B32C64E77EE0CE010E948A2B68
:1039400040E150E00F2D112707FD1095B801CE0181
:103950000E94B32CC8010E949E31892B41F060E285
:10396000CE010E94BD2B6F2DCE010E94BD2BCE013A
:103970000E94C42B0BC08C85882351F06CE57EE03F
:10398000CE018F5B9F4F0E94C82B02C081E001C017
:1039900080E0DF91CF911F910F91FF90EF90DF902A
:1039A000CF90BF90AF907F906F905F904F900895B1
:1039B000EF92FF920F931F93CF93DF931F92CDB798
:1039C000DEB78C017B01A701BE016F5F7F4FC8018D
:1039D0000E942E1C8111F7CF0F90DF91CF911F9184
:1039E0000F91FF90EF900895DF92EF92FF920F9367
:1039F0001F93CF93DF938C0190912205992311F1AE
:103A0000442321F06F5F7F4F81E001C080E020916F
:103A10002305820FFB01BF01382F321B3917B0F489
:103A20003491332309F443C0893010F4A82F01C026
:103A3000A0E031968F5FB0E0AB5DBA4F4C91431779
:103A400051F354C0411102C06F5F7F4FFB01D4900E
:103A5000EB0121967801F1E4EF0EF11C6091240551
:103A600070E06B5D7A4F48EE53E0C8010E942E1C57
:103A700080912405E82FF0E0EB5DFA4F20819091D2
:103A800022058F5F2D111BC0883068F580932405B7
:103A90009F5F90932205993028F066EA7EE0C70187
:103AA0000E94C82BFE01D4902196D110D7CF10923E
:103AB0002205109223051092240581E018C0883059
:103AC00018F48093240502C0109224059F5F909300
:103AD0002205993058F062EC7EE0C8018F5B9F4F61
:103AE0000E94C82B03C010922405D2CF80E0DF9142
:103AF000CF911F910F91FF90EF90DF900895CF939A
:103B0000DF93EC01462F6FE97EE00E94F41C8823CE
:103B100019F01FAA81E001C080E0DF91CF910895E4
:103B2000CF93DF93EC0180912205882381F0E0910F
:103B3000230591E09E0F90932305F0E0EB5DFA4F93
:103B4000208130E0983060F11092230529C0FE01F9
:103B5000FF9680819181DC01ED91FC910680F781D7
:103B6000E02D09959C018FA98823E9F02A323105BF
:103B7000D1F460E0CE010E947F1D811116C0E0915A
:103B8000230581E08E0F80932305F0E0EB5DFA4F73
:103B9000208130E0883010F01092230580912205BA
:103BA000815080932205C90102C08FEF9FEFDF9102
:103BB000CF910895CF93DF93EC01462F68E97EE023
:103BC0000E94F41C882319F081E08FAB01C080E0D3
:103BD000DF91CF910895CF92DF92EF92FF920F93F2
:103BE0001F93CF93DF93EC018C01015C1F4FD80131
:103BF0008D919C91DC01ED91FC910480F581E02D8B
:103C000009957C01181619060CF043C08C85882391
:103C1000B9F065E87EE06E01B1E4CB0ED11CC601BF
:103C20000E948A2BF80180819181DC01ED91FC9149
:103C30000084F185E02D0995682FC6010E94FE2BB6
:103C4000F80180819181DC01ED91FC910084F18586
:103C5000E02D09958A97E9F48FA961E0882331F076
:103C6000CE010E947F1D882321F01AC0CE010E9440
:103C7000DA1DC0912205D0E0F80180819181DC013C
:103C8000ED91FC910480F581E02D09958C0F9D1F2D
:103C900009C080912205F701E80FF11DCF0102C094
:103CA0008FEF9FEFDF91CF911F910F91FF90EF90DA
:103CB000DF90CF900895CB0162E175E00E94E93179
:103CC00021E0892B09F420E0822F08958F929F92A2
:103CD000AF92BF92CF92DF92EF92FF920F931F931A
:103CE000CF93DF931F92CDB7DEB76C017B015A01F2
:103CF0006115710529F1FB018081882309F18B0190
:103D00004B01FFEF8F1A9F0AA501BE016F5F7F4F26
:103D1000C6010E942E1C8823A1F08981F8019081A0
:103D2000891303C00F5F1F4F07C0F70190818913EC
:103D300002C0840101C08701F80180818111E4CFB4
:103D400081E00F90DF91CF911F910F91FF90EF9045
:103D5000DF90CF90BF90AF909F908F9008957F920B
:103D60008F929F92AF92BF92CF92DF92EF92FF928B
:103D70000F931F93CF93DF931F92CDB7DEB76C01E4
:103D80008B015A01FC018485882369F062E57EE09D
:103D90007601F1E4EF0EF11CC7010E948A2BB801F5
:103DA000C7010E94C82BF80174907720C1F07801F8
:103DB0004801FFEF8F1A9F0AA501BE016F5F7F4F79
:103DC000C6010E942E1C8823C9F02981271109C031
:103DD0008FEFE81AF80AF70174907110EDCF81E0C7
:103DE0000DC0F8018491332727FD309590E0281706
:103DF000390711F47401EFCF7801EDCF0F90DF9107
:103E0000CF911F910F91FF90EF90DF90CF90BF90D7
:103E1000AF909F908F907F9008952F923F924F92F6
:103E20005F926F927F928F929F92AF92BF92CF924A
:103E3000DF92EF92FF920F931F93CF93DF9300D007
:103E40001F92CDB7DEB76C01562E672E742E590126
:103E50002DB73EB73B832A83242F30E0C901880F5A
:103E6000991F820F931FEDB7FEB7E81BF90B0FB632
:103E7000F894FEBF0FBEEDBF2DB73EB72F5F3F4F8B
:103E80001901062F172F4901412C760131E4E30E69
:103E9000F11C471409F449C0F4011082F801808133
:103EA0009181F40192838183F60184858823A9F0AE
:103EB00063E47EE0C7010E948A2B4AE050E0642D53
:103EC000C7010E94E02C60E2C7010E94BD2BF801EF
:103ED00060817181C7010E94C82B4394F3E08F0E6B
:103EE000911C0E5F1F4FD5CF1196ED91FC9112974B
:103EF0006491961781F1F90100811181F8016491B3
:103F000070E04617570731F112961C930E931197E4
:103F10001196ED91FC911297E49113962E5F3F4F0D
:103F2000EE23F9F08F5F8711DFCFA501BE016F5F30
:103F30007F4FC6010E942E1C811102C08FEF11C05D
:103F40009981492F552747FD5095252D362DD101B3
:103F500080E0E9CFF80131961296FC93EE93119729
:103F6000D7CF2A813B810FB6F8943EBF0FBE2DBF3D
:103F70000F900F900F90DF91CF911F910F91FF90B5
:103F8000EF90DF90CF90BF90AF909F908F907F90F9
:103F90006F905F904F903F902F900895CF93DF9355
:103FA000EC018D858823C9F068E17EE0CE010E9496
:103FB0008A2B44EF51E061E17EE0CE010E94AF1E0A
:103FC000882311F01D8609C060E07EE0CE018F5B82
:103FD0009F4F0E94C82B80E001C081E0DF91CF910C
:103FE00008955F926F927F928F929F92AF92BF924D
:103FF000CF92DF92EF92FF920F931F93CF93DF93B5
:104000001F92CDB7DEB76C017B01390100E010E0F3
:104010004A0182E0881A91085A0181E0A81AB10881
:10402000A301BE016F5F7F4FC6010E942E1C882333
:1040300009F440C059808DE058122DC0A301BE0183
:104040006F5F7F4FC6010E942E1C89818A3041F428
:10405000E114F104B9F1F701E00FF11F108232C051
:10406000E114F104C1F00815190564F4F801319662
:10407000D701A00FB11F5C920E5F1F4FEE0DFF1D09
:10408000808309C00A151B0534F4F701E00FF11F06
:1040900050820F5F1F4F0A151B0514F6E114F1043F
:1040A00009F4BECFF701E00FF11F898180830F5F14
:1040B0001F4FB6CFE114F10439F0F701E00FF11F03
:1040C000108203C0C80102C080E090E00F90DF9131
:1040D000CF911F910F91FF90EF90DF90CF90BF9005
:1040E000AF909F908F907F906F905F900895CF9248
:1040F000DF92EF92FF920F931F93CF93DF931F9264
:10410000CDB7DEB78C0144EF51E0BE016F5F7F4F4A
:10411000C8010E942E1C8823A9F089818C3399F74D
:104120008093120553E1E52E55E0F52EDD24D3945E
:1041300044EF51E0BE016F5F7F4FC8010E942E1C0B
:10414000811102C080E035C0CC24C394CD0C89819C
:10415000F70181937F018E3339F544EF51E0BE01C1
:104160006F5F7F4FC8010E942E1C882359F38981FD
:10417000803241F7AC2DB0E0AE5EBA4F8C93D39451
:10418000D394ED2DF0E0EE5EFA4F108281E0809343
:10419000110528EE33E040E050E060E070E0C80137
:1041A0000E94F11F81E005C0FCE0CF1659F2DC2C23
:1041B000BFCF0F90DF91CF911F910F91FF90EF90A4
:1041C000DF90CF9008951F93CF93DF93EC01AB0165
:1041D0008091110581110EC0CE010E947720182F09
:1041E000811110C062E37EE0CE018F5B9F4F0E9481
:1041F000C82B08C062E175E0CE01DF91CF911F911D
:104200000C94661E812FDF91CF911F910895FF922C
:104210000F931F93CF93DF93EC018D8581116EC0B7
:104220006AEF70E080E090E00E942A286EE27EE073
:10423000CE010E948A2B6AEF70E080E090E00E943D
:104240002A2844EF51E068E27EE0CE010E94AF1ED2
:10425000811115C0FE01FF9680819181DC01ED91F5
:10426000FC910190F081E02D6DE0099568EE73E01E
:10427000CE010E94E32081113AC015E01EC080915A
:104280001105811134C065E0F62E8E01015C1F4FCF
:10429000F80180819181DC01ED91FC910190F08128
:1042A000E02D6DE0099568EE73E0CE010E94E320F9
:1042B00081111DC0FA9461F7CDCF6AEF70E080E004
:1042C00090E00E942A2864E27EE0CE010E948A2BC0
:1042D0006AEF70E080E090E00E942A2844EF51E00D
:1042E0006EE17EE0CE010E94AF1E882319F081E0CE
:1042F0008D8705C0115009F780E001C081E0DF9192
:10430000CF911F910F91FF900895CF93DF93EC0110
:104310008D85882339F08E859F8501969F878E87AE
:1043200081E005C0CE010E9407218111F4CFDF9109
:10433000CF910895FC0126853785215031093787B3
:104340002687232B11F40C94CE1F81E00895CF9281
:10435000DF92EF92FF920F931F93CF93DF93EC01C5
:104360008B016A0179010E948521882351F1000F98
:10437000111F000F111F01561C4FF8016081718140
:10438000CE010E948A2BF8016281738144EF51E0D3
:10439000CE010E94AF1E882389F028EE33E0A701EA
:1043A000B601CE010E94F11F68EE73E0CE010E94BB
:1043B000E320CE010E949A21C60105C0CE010E94D1
:1043C0009A218EE693E0DF91CF911F910F91FF909C
:1043D000EF90DF90CF900895EF92FF920F931F938D
:1043E000CF93DF93CDB7DEB760970FB6F894DEBFFB
:1043F0000FBECDBF8C010E94852181110AC068EEDD
:104400007DE0C8018F5B9F4F0E94C82B80E090E049
:104410006FC060EE7DE0C8010E948A2B28EE33E079
:1044200040E150E0BE016F5F7F4FC8010E94F11F65
:104430007C01BE016F5F7F4FC8010E945B1E882315
:1044400061F028EE33E040E150E0BE016F5F7F4F46
:10445000C8010E94F11F7C0105C068EE73E0C8012D
:104460000E94E32025E0E216F1041CF4CE0101963F
:1044700008C0C7010497E1E0F0E0EC0FFD1F8E0FCC
:104480009F1F0E944C1BF62EE72E862F8F70F8017F
:1044900081AFF4FA882780F982AFF5FA882780F98E
:1044A00083AFF6FA882780F984AFF7FA882780F976
:1044B00085AF8E2D86958F7086AFC8010E949A2198
:1044C000F80191AD8485913031F497AB882371F078
:1044D0006AEC7DE006C0F80117AA882339F061EB89
:1044E0007DE0C8018F5B9F4F0E94C82B8F2D9E2DB2
:1044F00060960FB6F894DEBF0FBECDBFDF91CF91AF
:104500001F910F91FF90EF900895CF93DF93D62FD7
:10451000C72F9A01462F572F60E070E00E94A72115
:10452000892B49F0ED2FFC2FDF018191882329F0A1
:104530008A33D1F702C0AD2FBC2F1C928D2F9C2F38
:10454000DF91CF910895CF93DF93CDB7DEB7669714
:104550000FB6F894DEBF0FBECDBF26E130E0AE014E
:104560004F5F5F4F60E070E00E94A721892BC1F090
:1045700080E0E1E0F0E0EC0FFD1FE80FF11D90811D
:10458000992319F08F5F9A33A1F721E030E02C0FC7
:104590003D1F280F311DC9010E94AB1BCB0102C07A
:1045A00080E090E066960FB6F894DEBF0FBECDBFF8
:1045B000DF91CF9108959A01AB0163E070E00C9414
:1045C000A7219A01AB0164E070E00C94A7211F932E
:1045D000CF93DF93CDB7DEB72B970FB6F894DEBF3E
:1045E0000FBECDBF142F2BE030E0AE014F5F5F4F09
:1045F0000E94A721892B51F0CE0101961A3019F49F
:104600000E94AB1B06C00E944C1B03C060E070E020
:10461000CB012B960FB6F894DEBF0FBECDBFDF9156
:10462000CF911F910895AF92BF92CF92DF92EF92F8
:10463000FF920F931F93CF93DF931F92CDB7DEB7F7
:104640008C017B016A0159010E9485218823B9F1FF
:104650006FE87DE0C8010E948A2BB701C8010E9463
:10466000BB2B66E773E0C8010E94BB2B48E853E10F
:10467000B701C8010E94661E8823C9F048EE53E0C6
:10468000BE016F5F7F4FC8010E942E1C28EE33E0F1
:10469000A501B601C8010E94F11F68EE73E0C801D0
:1046A0000E94E320C8010E949A2181E009C068EEBF
:1046B00073E0C8010E94E320C8010E949A2180E0B3
:1046C0000F90DF91CF911F910F91FF90EF90DF90AE
:1046D000CF90BF90AF900895CF93DF93CDB7DEB763
:1046E00060970FB6F894DEBF0FBECDBF20E130E07B
:1046F000AE014F5F5F4F6CE070E00E94A721892BF5
:10470000E1F143E050E06BE87DE0CE0101960E94CC
:10471000BC31892B51F142E050E068E87DE0CE01E8
:1047200001960E94BC31892B11F146E050E061E80E
:104730007DE0CE0101960E94BC31892BD1F045E08D
:1047400050E06BE77DE0CE0101960E94BC31892BE1
:1047500091F046E050E064E77DE0CE0101960E94D2
:10476000BC31892B51F484E009C080E007C081E0AE
:1047700005C082E003C083E001C08FEF60960FB6F2
:10478000F894DEBF0FBECDBFDF91CF910895CF92D9
:10479000DF92EF92FF920F931F93CF93DF9300D09E
:1047A00000D0CDB7DEB77C018B016A018EE69DE0BB
:1047B0009A83898388E69DE09C838B8328EE33E08F
:1047C00042E0BE016F5F7F4FC7010E940D1F813025
:1047D000F1F0811114C028EE33E0A601B801C70141
:1047E0000E94F11F81E4E80EF11C62E67DE0C70142
:1047F0000E948A2BB801C7010E94EC2B06C0A601BB
:1048000068E57DE0C8010E94CA3180E001C081E016
:104810000F900F900F900F90DF91CF911F910F91FC
:10482000FF90EF90DF90CF900895AF92BF92CF921C
:10483000DF92EF92FF920F93CF93DF93CDB7DEB766
:1048400062970FB6F894DEBF0FBECDBF7C015A0150
:104850006901698B7A8B0E94852169897A8988230D
:1048600009F463C0C7010E948A2BC114D10419F155
:1048700060E2C7010E94271C0023C1F057018FE4AA
:10488000A80EB11CF60164916623C1F1D701ED9128
:10489000FC910190F081E02D603211F4D5016C9112
:1048A000C7010995BFEFCB1ADB0AECCFB601C701F0
:1048B0000E948A2B23C0A114B10401F160E2C70158
:1048C0000E94271C0023B1F06701FFE4CF0ED11C2A
:1048D000F50161915F01662389F0D701ED91FC91AB
:1048E0000190F081E02D603211F4D6016C91C70186
:1048F0000995EECFB501C7010E94BB2B6DE0C70142
:104900000E94271C40E150E0BE016F5F7F4FC7014E
:104910000E94C723082F68EE73E0C7010E94E320BE
:10492000C7010E949A21802F01C080E062960FB6D5
:10493000F894DEBF0FBECDBFDF91CF910F91FF90F6
:10494000EF90DF90CF90BF90AF900895CF92DF921D
:10495000EF92FF920F931F93CF93DF93CDB7DEB704
:104960002B970FB6F894DEBF0FBECDBF7C016B0155
:10497000CA01B901402F0BE010E09E012F5F3F4FAD
:104980000E949B1A00E020E030E0AE014F5F5F4FD5
:10499000B601C7010E9415242B960FB6F894DEBF0E
:1049A0000FBECDBFDF91CF911F910F91FF90EF9080
:1049B000DF90CF9008951F93CF93DF93EC010E9477
:1049C00085218823D9F062E57DE0CE010E948A2B03
:1049D00048EE53E06AE47DE0CE010E94AF1E8823DA
:1049E00039F068EE73E0CE010E94E32011E001C0CF
:1049F00010E0CE010E949A21812F01C080E0DF915A
:104A0000CF911F9108950F939B0140E050E00AE081
:104A100066EC7CE00E94A6240F9108950F93262F48
:104A200030E040E050E000E166E27CE00E94A62435
:104A30000F9108950C940E250F93262F30E040E03F
:104A400050E000E169E17CE00E94A6240F91089506
:104A50000F9300E020E030E040E050E065E67BE0CE
:104A60000E9415240F9108950F93AB0101E020E0FF
:104A700030E067E57BE00E9415240F9108950F93C5
:104A80001F93CF93DF93EC01AB01FB0181818F7DFD
:104A9000883511F44E5F5F4F00E020E030E06CE3BA
:104AA0007BE0CE010E941524182FCE010E942825FC
:104AB000812FDF91CF911F910F9108950F931F9335
:104AC000CF93DF93EC01AB0101E020E030E06CE23A
:104AD0007BE00E941524182FCE010E942825812FEB
:104AE000DF91CF911F910F91089540E16BE170E04C
:104AF0000E94E722862F08950F93CF93DF93EC0156
:104B00001CAA1BAA1B8A00E020E030E040E050E035
:104B10006BE87FE00E941524811107C063E77FE006
:104B2000CE018F5B9F4F0E94C82B00E020E030E059
:104B300040E050E060E67FE0CE010E941524811144
:104B400007C063E47FE0CE018F5B9F4F0E94C82BBC
:104B500000E020E030E040E050E061E37FE0CE01A3
:104B60000E941524811107C067E17FE0CE018F5BB1
:104B70009F4F0E94C82BCE010E94EC21CE010E94C3
:104B80006C238B7F91E009F490E0988BCE010E941A
:104B90007525C15BDF4F8883DF91CF910F91089519
:104BA000CF93DF93EC010E948521882301F162E419
:104BB0007DE0CE010E948A2B48EE53E069E37DE060
:104BC000CE010E94AF1E811104C0CE010E949A2125
:104BD0000EC068E873E180E090E00E942A281D86FC
:104BE0001F861E86CE010E947C2581E001C080E0E8
:104BF000DF91CF9108950F931F93CF93DF93EC0133
:104C00008C010F5B1F4FF8015587448732977183E2
:104C100060830E940721811103C06AEF7EE00AC011
:104C2000CE010E947C25CE010E94CE1F811107C0BB
:104C30006EED7EE0C8010E94C82B80E001C081E0DB
:104C4000DF91CF911F910F910895CF93DF93EC01E6
:104C5000E881F9810480F581E02D09958FA9DF9124
:104C6000CF9108950F931F93CF93DF93EC018FA9FA
:104C7000882391F168EE73E0CE010E94D81CCE012A
:104C80000E94852160E879E0CE010E948A2B48EEDF
:104C900053E069E779E0CE010E94AF1E8E010F5B01
:104CA0001F4F882351F0CE010E949A2167E679E0D8
:104CB000C8010E94C82B1FAA0FC06EE479E0C8018A
:104CC0000E94C82BCE010E94EC21CE010E949A21A5
:104CD0008FA991E0892701C081E0DF91CF911F91D9
:104CE0000F910895BF92CF92DF92EF92FF920F93B0
:104CF0001F93CF93DF93CDB7DEB765970FB6F894C8
:104D0000DEBF0FBECDBF7C016B018A01B22EFC015C
:104D100080AD8111BFC0C7010E948521F70187A91D
:104D2000882319F0C7010E943226B80180E090E084
:104D300004E110E09E012F5F3F4F4AE00E949B1A62
:104D400087010F5B1F4F6DE77AE0C8010E948A2B35
:104D5000B601C8010E94BB2B60E2C8010E94BD2BB6
:104D6000BE016F5F7F4FC8010E94EC2B67E77AE0BE
:104D7000C7010E948A2BB601C7010E94BB2B6DE7B9
:104D800073E0C7010E94BB2BBE016F5F7F4FC7015D
:104D90000E94BB2B65E77AE0C7010E948A2B68EE70
:104DA00073E0C7010E94E32081110BC060E67AE046
:104DB000C8010E94C82B6BE37AE0C8010E94C82B8F
:104DC000FFCFB11008C081E0F70180AF64C0F701E8
:104DD0008485811135C040E157E2BE016B5E7F4F93
:104DE000C7010E942E1C882309F44CC08D898A3289
:104DF000C9F0833461F7898328EE33E043E150E062
:104E0000BE016E5F7F4FC7010E94F11F61E27AE031
:104E1000C8010E948A2BBE016F5F7F4FC8010E94AC
:104E2000EC2B35C048EE53E065E37AE0C7010E9401
:104E3000AF1E882361F181E0F70187AB15862BC097
:104E40006FE07AE0C8010E948A2B6D89772767FDA1
:104E5000709540E150E0C8010E94B32C8D899927DC
:104E600087FD90950E949E31892B41F060E2C80138
:104E70000E94BD2B6D89C8010E94BD2BC8010E94F4
:104E8000C42BA9CF65E07AE0C8010E94C82BC701F6
:104E90000E949A2180E065960FB6F894DEBF0FBE9F
:104EA000CDBFDF91CF911F910F91FF90EF90DF90D9
:104EB000CF90BF900895FC011382128248EE53E018
:104EC00060E070E0448355836683778383E993E0F1
:104ED00091838083158614860895CF93DF93EC0128
:104EE0001B821A8248EE53E060E070E04C835D83E1
:104EF0006E837F8383E893E099838883CE018F5B01
:104F00009F4F0E945B271D861F861E861FAA18AE14
:104F100081E0888B898B1C86FE01E05BFF4F11824C
:104F20001082329611821082CC5ADF4F1982188279
:104F3000DF91CF9108950F9300E020E040E060E022
:104F40008DE295E00E94312B0F9108950F9300E0C0
:104F500020E040E060E083E395E00E94312B0F9178
:104F600008951F920F920FB60F9211242F933F9323
:104F70008F939F93AF93BF9380913A0590913B0598
:104F8000A0913C05B0913D053091390523E0230FF8
:104F90002D3720F40196A11DB11D05C026E8230F71
:104FA0000296A11DB11D2093390580933A05909377
:104FB0003B05A0933C05B0933D0580913E05909143
:104FC0003F05A0914005B09141050196A11DB11D7D
:104FD00080933E0590933F05A0934005B093410513
:104FE000BF91AF919F918F913F912F910F900FBEE5
:104FF0000F901F9018952FB7F89460913A05709113
:105000003B0580913C0590913D052FBF08953FB72A
:10501000F89480913E0590913F05A0914005B09194
:10502000410526B5A89B05C02F3F19F00196A11D8B
:10503000B11D3FBF6627782F892F9A2F620F711DF0
:10504000811D911D42E0660F771F881F991F4A95A9
:10505000D1F70895CF92DF92EF92FF92CF93DF9333
:105060006B017C010E940728EB01C114D104E1040B
:10507000F10489F00E94FA2E0E9407286C1B7D0B18
:10508000683E734090F381E0C81AD108E108F10846
:10509000C851DC4FEACFDF91CF91FF90EF90DF90C6
:1050A000CF900895789484B5826084BD84B5816082
:1050B00084BD85B5826085BD85B5816085BDEEE620
:1050C000F0E0808181608083E1E8F0E010828081FF
:1050D00082608083808181608083E0E8F0E080816D
:1050E00081608083E1EBF0E0808184608083E0EB8D
:1050F000F0E0808181608083EAE7F0E08081846075
:1051000080838081826080838081816080838081D0
:10511000806880831092C1000895833081F028F464
:10512000813099F08230A1F008958730A9F088305D
:10513000B9F08430D1F4809180008F7D03C08091DC
:1051400080008F7780938000089584B58F7702C0A8
:1051500084B58F7D84BD08958091B0008F7703C0A2
:105160008091B0008F7D8093B0000895CF93DF933E
:1051700090E0FC01E151FF4E2491FC01ED5FFE4EF9
:105180008491882349F190E0880F991FFC01E55D27
:10519000FE4EA591B4918F5D9E4EFC01C591D491B8
:1051A0009FB7611108C0F8948C91209582238C934D
:1051B000888182230AC0623051F4F8948C91322F96
:1051C000309583238C938881822B888304C0F89444
:1051D0008C91822B8C939FBFDF91CF9108950F9379
:1051E0001F93CF93DF931F92CDB7DEB7282F30E008
:1051F000F901E552FF4E8491F901E151FF4E1491FE
:10520000F901ED5FFE4E04910023C9F0882321F0DF
:1052100069830E948D286981E02FF0E0EE0FFF1F67
:10522000EF5DFE4EA591B4919FB7F8948C916111FA
:1052300003C01095812301C0812B8C939FBF0F90D9
:10524000DF91CF911F910F910895FC01818D228DE7
:1052500090E0805C9F4F821B91098F73992708957E
:10526000FC01918D828D981731F0828DE80FF11D30
:10527000858D90E008958FEF9FEF0895FC01918D4B
:10528000828D981761F0828DDF01A80FB11D5D96A8
:105290008C91928D9F5F9F73928F90E008958FEF16
:1052A0009FEF0895FC01848DDF01A80FB11DA35A63
:1052B000BF4F2C91848D90E001968F739927848F36
:1052C000A689B7892C93A089B1898C9180648C932D
:1052D000938D848D981306C00288F389E02D808118
:1052E0008F7D80830895CF93DF93EC01888D882391
:1052F000C9F0EA89FB89808185FD05C0A889B98943
:105300008C9186FD0FC00FB607FCF5CF808185FF1D
:10531000F2CFA889B9898C9185FFEDCFCE010E948B
:105320005229E7CFDF91CF910895CF92DF92FF927C
:105330000F931F93CF93DF931F92CDB7DEB76C010E
:1053400081E0D60158968C9358975B969C915B9719
:105350005C968C915C97981307C05096ED91FC91E8
:105360005197808185FD2EC0F601038D10E00F5FFF
:105370001F4F0F731127F02EF601848DF81211C004
:105380000FB607FCF9CFD6015096ED91FC915197DD
:10539000808185FFF1CFC60169830E94522969810E
:1053A000EBCF838DE80FF11DE35AFF4F6083D601E9
:1053B0005B960C935B975296ED91FC91539780818D
:1053C00080620CC0D6015696ED91FC915797608390
:1053D0005096ED91FC91519780818064808381E0AB
:1053E00090E00F90DF91CF911F910F91FF90DF9090
:1053F000CF900895BF92CF92DF92EF92FF92CF931A
:10540000DF93EC016A017B01B22EE889F98982E021
:105410008083411581EE580761057105A1F060E0B8
:1054200079E08DE390E0A70196010E94232F21509F
:105430003109410951095695479537952795211509
:1054400080E1380798F0E889F989108260E874E80B
:105450008EE190E0A70196010E94232F215031098F
:10546000410951095695479537952795EC85FD8556
:105470003083EE85FF852083188EEC89FD89B0820C
:10548000EA89FB89808180618083EA89FB89808148
:1054900088608083EA89FB89808180688083EA89CB
:1054A000FB8980818F7D8083DF91CF91FF90EF908A
:1054B000DF90CF90BF9008951F920F920FB60F927A
:1054C00011242F938F939F93EF93FF93E0915205B5
:1054D000F09153058081E0915805F091590582FDC6
:1054E00012C0908180915B058F5F8F7320915C0566
:1054F000821751F0E0915B05F0E0EE5BFA4F958F7B
:1055000080935B0501C08081FF91EF919F918F9106
:105510002F910F900FBE0F901F9018951F920F9212
:105520000FB60F9211242F933F934F935F936F9376
:105530007F938F939F93AF93BF93EF93FF9382E4F7
:1055400095E00E945229FF91EF91BF91AF919F91F9
:105550008F917F916F915F914F913F912F910F901C
:105560000FBE0F901F90189510924505109244059C
:1055700088EE93E0A0E0B0E0809346059093470565
:10558000A0934805B093490583E194E090934305C7
:105590008093420585EC90E090934F0580934E05F3
:1055A00084EC90E0909351058093500580EC90E05E
:1055B000909353058093520581EC90E090935505AC
:1055C0008093540582EC90E09093570580935605A4
:1055D00086EC90E0909359058093580510925B05F6
:1055E00010925C0510925D0510925E050895AF92D1
:1055F000BF92CF92DF92EF92FF920F931F93CF93C0
:10560000DF936C017B01C0E0D0E000E010E0F60128
:10561000EC0FFD1F4AE050E06281C7010E94E02CC0
:105620005C016EE2C7010E94BD2B8A0D9B1D080F15
:10563000191F2196C330D10551F74AE050E0F60119
:105640006581C7010E94E02C800F911FDF91CF91EF
:105650001F910F91FF90EF90DF90CF90BF90AF9090
:1056600008950F93FC0183E294E091838083628329
:105670004383248305830F91089583E294E09093FC
:10568000E0058093DF051092E1051092E20510928B
:10569000E3051092E4050895CF92DF92EF92FF9216
:1056A0000F931F93CF93DF937C016A01EB0100E01E
:1056B00010E00C151D0571F06991D701ED91FC9179
:1056C0000190F081E02DC7010995892B19F00F5F3A
:1056D0001F4FEFCFC801DF91CF911F910F91FF9026
:1056E000EF90DF90CF9008956115710581F0DB0197
:1056F0000D900020E9F7AD0141505109461B570BB1
:10570000DC01ED91FC910280F381E02D099480E0B1
:1057100090E00895EF92FF920F931F93CF93DF9342
:105720008C017B01C0E0D0E0F701EC0FFD1F64911C
:10573000662359F0F801A081B181ED91FC91C80177
:105740000995892B11F02196EFCFCE01DF91CF91F2
:105750001F910F91FF90EF900895DC01ED91FC9166
:10576000DB0114964D915C9115976D917C910280AF
:10577000F381E02D09940C94742BDC01ED91FC91E4
:105780000190F081E02D099465E274E00C94742B93
:105790000F931F93CF93DF93EC010E948A2B8C0110
:1057A000CE010E94C42B800F911FDF91CF911F91DA
:1057B0000F9108950F931F93CF93DF93EC010E94F5
:1057C000AD2B8C01CE010E94C42B800F911FDF9165
:1057D000CF911F910F9108950F931F93CF93DF9354
:1057E000EC010E94742B8C01CE010E94C42B800F0F
:1057F000911FDF91CF911F910F9108950F931F93E8
:10580000CF93DF93EC010E94BD2B8C01CE010E944F
:10581000C42B800F911FDF91CF911F910F9108959D
:105820008F929F92AF92BF92CF92DF92EF92FF92B0
:105830000F931F93CF93DF93CDB7DEB7A1970FB62A
:10584000F894DEBF0FBECDBF7C01C42EE52FCB0187
:10585000D22E19A221E02D1510F02AE0D22E8E01B1
:105860000F5D1F4F8D2C912CA12CB12C6C2D7E2FF8
:10587000A50194010E94232F8C2DD29E8019112402
:10588000015011098A3014F4805D01C0895CF8016F
:105890008083211531054105510521F0C22EE32FEA
:1058A000CA01E4CFB801C7010E94742BA1960FB6BC
:1058B000F894DEBF0FBECDBFDF91CF911F910F9146
:1058C000FF90EF90DF90CF90BF90AF909F908F9020
:1058D0000895CF92DF92EF92FF920F931F93CF9391
:1058E000DF93EC016A017B012115310579F4E88130
:1058F000F9810190F081E02D642FDF91CF911F910C
:105900000F91FF90EF90DF90CF9009942A303105EE
:10591000E9F477FF1AC06DE20E94BD2B8C01442789
:105920005527BA014C195D096E097F092AE0CE019D
:105930000E94102C800F911FDF91CF911F910F912A
:10594000FF90EF90DF90CF9008952AE0B701A60175
:10595000CE01DF91CF911F910F91FF90EF90DF90DB
:10596000CF900C94102C9A01AB01662757FD6095DF
:10597000762F0C94692C0F931F93CF93DF93EC0138
:105980009A01AB01662757FD6095762F0E94692C1E
:105990008C01CE010E94C42B800F911FDF91CF910B
:1059A0001F910F9108952115310541F4DC01ED910E
:1059B000FC910190F081E02D642F09940C94102C3F
:1059C0009A01462F50E060E070E00C94D32CFC016B
:1059D00044835583668377830895FC01DB0111823C
:1059E000108213821282158214828D919C911197DC
:1059F0009183808312968D919C91139793838283D8
:105A000014968D919C9115979583848311961C9281
:105A10001E9213961C921E92129715961C921E921D
:105A200014970895FC01808191810C941C30CF93D0
:105A3000DF93EC0188819981009711F00E941C305E
:105A4000198218821D821C821B821A82DF91CF91DB
:105A500008950F931F93CF93DF93EC018B016F5F3A
:105A60007F4F888199810E94AB30009731F09983F4
:105A700088831B830A8381E001C080E0DF91CF919E
:105A80001F910F910895CF93DF93EC018881998145
:105A9000892B29F08A819B818617970760F4CE01B4
:105AA0000E94292D882341F08C819D81892B19F436
:105AB000E881F981108281E0DF91CF910895EF9222
:105AC000FF920F931F93CF93DF93EC017B018A0129
:105AD000BA010E94432D811104C0CE010E94172DEE
