:100000000C9428090C9450090C9450090C94CA1CA7
:100010000C94CA1C0C94CA1C0C9450090C945009E2
:100020000C9450090C9450090C9450090C945009EC
:100030000C9450090C9450090C9450090C945009DC
:100040000C947E2C0C9450090C94A02F0C94D22F5D
:100050000C9450090C9450090C9450090C945009BC
:100060000C9450090C9450095265626F6F74696E5C
:100070006720576946692E2E2E005265626F6F7495
:10008000204D6963726F766965772026205769462F
:100090006920746F20736574206E657720706F72AD
:1000A000742E007777772E636F6D6D6F646F726556
:1000B0007365727665722E636F6D0050726573732F
:1000C00020616E79206B657920746F2063616E63A7
:1000D000656C2E2E2E00436F6E6E656374696E67BD
:1000E00020746F20436F6D6D6F646F72655365721E
:1000F00076657200536176656400556E6B6E6F773E
:100100006E206F7074696F6E2C2074727920616735
:1001100061696E0053656C6563743A2000322E206D
:1001200052657475726E20746F204D61696E204D3A
:10013000656E7500312E20436F6D6D6F646F726553
:1001400053657276657200302E20436C65617220B3
:100150004175746F7374617274204F7074696F6E3F
:10016000730029004175746F7374617274204D655A
:100170006E75202843757272656E743A2000576957
:1001800066693A256C640A0A4336343A20256C6461
:1001900000576966693A256C640A0A4336343A2086
:1001A000256C640A0A5254533A20256C64002A2AAA
:1001B0002A205465726D696E616C204D6F646520F4
:1001C00028446562756729202A2A2A00436F6E6ECB
:1001D000656374696F6E20636C6F73656400436F51
:1001E0006E6E656374204661696C65642100436FBF
:1001F0006E6E656374656420746F20257300436FB1
:10020000756C64206E6F74207265736F6C766520F8
:10021000444E532E2020436F6E6E656374204661FA
:10022000696C656421000A436F6E6E656374696E64
:100230006720746F20257300293A20000A506F72DE
:1002400074202800293A20000A54656C6E657420D9
:10025000686F7374202800496E636F6D696E672044
:10026000436F6E6E656374696F6E00576169746980
:100270006E6720666F7220636F6E6E656374696F60
:100280006E206F6E20706F72742000293A20004932
:100290006E636F6D696E6720706F727420280053F3
:1002A0005349440A0A257300495020416464726529
:1002B0007373200A2573004261756420526174656E
:1002C0000A0A2564004669726D776172650A0A251B
:1002D00073004669726D776172653A2020202000B4
:1002E00057692D466920535349443A20200049500C
:1002F00020416464726573733A2020004D414320AD
:10030000416464726573733A2000202844656C2050
:10031000746F2073776974636829004153434949B6
:10032000204D6F6465004572726F72206A6F696E4E
:10033000696E67206E6574776F726B005353494422
:10034000205375636365737366756C6C792063689D
:10035000616E67656400535349443A00506173739A
:100360007068726173653A004B65793A00556E6B3F
:100370006E6F776E206F7074696F6E2C2074727957
:1003800020616761696E0053656C6563743A200093
:10039000332E2052657475726E20746F20436F6E19
:1003A00066696775726174696F6E204D656E750060
:1003B000322E20575041202F205750413200312EED
:1003C00020574550004368616E6765205353494488
:1003D00000556E6B6E6F776E206F7074696F6E2C48
:1003E0002074727920616761696E0053656C656382
:1003F000743A2000362E2052657475726E20746F28
:10040000204D61696E204D656E7500352E20446962
:1004100072656374205465726D696E616C204D6FF6
:100420006465202844656275672900342E20417573
:10043000746F7374617274204F7074696F6E73009F
:10044000332E20257320666C6F7720636F6E747275
:100450006F6C00322E204368616E676520535349EC
:100460004400312E20446973706C617920437572A9
:1004700072656E7420436F6E666967757261746928
:100480006F6E00436F6E66696775726174696F6E37
:10049000204D656E7500556E6B6E6F776E206F70B8
:1004A00074696F6E2C2074727920616761696E00C7
:1004B00053656C6563743A2000332E20436F6E667B
:1004C000696775726174696F6E00322E20576169B9
:1004D0007420666F7220696E636F6D696E6720634A
:1004E0006F6E6E656374696F6E00312E2054656C9B
:1004F0006E657420746F20686F7374206F72204271
:1005000042530052454144592E00436F6D6D6F6454
:100510006F72652057692D4669204D6F64656D00C7
:1005200057692D4669204661696C656421005769E9
:100530002D4669204F4B210057692D466920496E91
:1005400069742E2E2E00256C6400426175640A6465
:100550006574656374696F6E00050800FF0C4B00DD
:10056000000000003E5B4F5B3E3E6B4F6B3E1C3E0F
:100570007C3E1C183C7E3C181C577D571C1C5E7F23
:100580005E1C00183C1800FFE7C3E7FF00182418A2
:1005900000FFE7DBE7FF30483A060E2629792926D7
:1005A000407F050507407F05253F5A3CE73C5A7FC1
:1005B0003E1C1C08081C1C3E7F14227F22145F5F17
:1005C000005F5F06097F017F006689956A60606051
:1005D000606094A2FFA29408047E040810207E208C
:1005E0001008082A1C08081C2A08081E10101010E1
:1005F0000C1E0C1E0C30383E3830060E3E0E060027
:100600000000000000005F00000007000700147FEA
:10061000147F14242A7F2A12231308646236495651
:1006200020500008070300001C2241000041221C4A
:10063000002A1C7F1C2A08083E0808008070300031
:100640000808080808000060600020100804023E46
:100650005149453E00427F40007249494946214187
:10066000494D331814127F1027454545393C4A49F6
:100670004931412111090736494949364649492935
:100680001E00001400000040340000000814224145
:100690001414141414004122140802015909063ECE
:1006A000415D594E7C1211127C7F494949363E41C9
:1006B0004141227F4141413E7F494949417F0909EA
:1006C00009013E414151737F0808087F00417F4185
:1006D000002040413F017F081422417F40404040BC
:1006E0007F021C027F7F0408107F3E4141413E7F14
:1006F000090909063E4151215E7F0919294626490B
:1007000049493203017F01033F4040403F1F2040E1
:10071000201F3F4038403F631408146303047804EB
:10072000036159494D43007F4141410204081020B3
:10073000004141417F04020102044040404040002A
:100740000307080020545478407F28444438384434
:10075000444428384444287F385454541800087EB0
:10076000090218A4A49C787F0804047800447D4002
:10077000002040403D007F1028440000417F4000A1
:100780007C047804787C080404783844444438FCB9
:100790001824241818242418FC7C0804040848543D
:1007A00054542404043F44243C4040207C1C2040FA
:1007B000201C3C4030403C44281028444C909090F1
:1007C0007C4464544C44000836410000007700002B
:1007D000004136080002010204023C2623263C1E8A
:1007E000A1A161123A4040207A38545455592155FC
:1007F000557941215454784121555478402054551D
:1008000079400C1E52721239555555593954545469
:100810005939555454580000457C410002457D42E9
:100820000001457C40F0292429F0F0282528F07C9F
:10083000545545002054547C547C0A097F49324960
:100840004949323248484832324A4848303A4141B0
:10085000217A3A42402078009DA0A07D394444444A
:10086000393D4040403D3C24FF2424487E494366B6
:100870002B2FFC2F2BFF0929F620C0887E0903208F
:10088000545479410000447D413048484A32384050
:1008900040227A007A0A0A727D0D19317D262929B3
:1008A0002F28262929292630484D402038080808B5
:1008B0000808080808382F10C8ACBA2F102834FAD6
:1008C00000007B000008142A142222142A1408AA0B
:1008D000005500AAAA55AA55AA000000FF00101052
:1008E00010FF00141414FF001010FF00FF1010F090
:1008F00010F0141414FC001414F700FF0000FF00A3
:10090000FF1414F404FC141417101F10101F101FF0
:100910001414141F00101010F0000000001F10101D
:1009200010101F10101010F010000000FF10101019
:10093000101010101010FF10000000FF140000FF36
:1009400000FF00001F10170000FC04F4141417101F
:10095000171414F404F40000FF00F7141414141412
:100960001414F700F7141414171410101F101F1488
:100970001414F4141010F010F000001F101F0000E9
:10098000001F14000000FC140000F010F01010FF15
:1009900010FF141414FF141010101F00000000F0BA
:1009A00010FFFFFFFFFFF0F0F0F0F0FFFFFF00008F
:1009B000000000FFFF0F0F0F0F0F38444438447C36
:1009C0002A2A3E147E02020606027E027E02635539
:1009D0004941633844443C04407E201E2006027E88
:1009E000020299A5E7A5991C2A492A1C4C7201729A
:1009F0004C304A4D4D303048784830BC625A463D04
:100A00003E494949007E0101017E2A2A2A2A2A44B8
:100A1000445F444440514A444040444A51400000ED
:100A2000FF0103E080FF000008086B6B08361236F8
:100A30002436060F090F06000018180000001010D9
:100A4000003040FF0101001F01011E00191D171297
:100A5000003C3C3C3C0000000000636C6F73653A56
:100A6000206661696C65642C206E6F202A434C4FB0
:100A7000532A00636C6F73653A20676F74202A43B2
:100A80004C4F532A002A434C4F532A00636C6F7318
:100A9000650D005465726D696E616C2072656164EC
:100AA0007900556E6578706563746564207265734E
:100AB000703A20004661696C656420746F20636F32
:100AC0006E6E6563743A20004F50454E2A00656E85
:100AD00061626C65486F7374526573746F72653AC6
:100AE0002073746F7265642000302E302E302E30EB
:100AF0000073656E64746F3A206661696C6564208A
:100B0000746F20737461727420636F6D6D616E64B5
:100B1000003C74696D656F75743E00556E65787044
:100B2000656374656420636861723A200046616998
:100B30006C656420746F20636F6E6E6563743A2019
:100B4000004F50454E2A005769466C792068617302
:100B5000206372617368656420616E642077696CDC
:100B60006C207265626F6F742E2E2E004661696C68
:100B7000656420746F206765742070726F6D707487
:100B8000000D006F70656E20006F70656E20003282
:100B900035352E3235352E302E30003136392E3265
:100BA00035342E312E31003634206279746573006D
:100BB00050696E67207472790070696E67200073E7
:100BC000657420752069006C656176650D00475776
:100BD0003D000D006A6F696E20004173736F636999
:100BE0006174656421004641494C45440073657455
:100BF000206164686F632070726F62650073657452
:100C0000206164686F6320626561636F6E00736565
:100C10007420776C616E2074780073657420776C33
:100C2000616E207261746500736574206F7074204A
:100C30007265706C6163650073657420776C616EBA
:100C4000207068726173650073657420776C616EE3
:100C5000206B65790073657420776C616E20636822
:100C6000616E0073657420776C616E2073736964C4
:100C70000073657420776C616E206869646520314B
:100C8000007365742073797320696F66756E6300F5
:100C900073657420636F6D6D2073697A6500736589
:100CA0007420636F6D6D206D61746368007365748B
:100CB00020636F6D6D2074696D6500302E302E30AD
:100CC0002E30007365742062726F616463617374A7
:100CD00020696E74657276616C007365742075614D
:100CE0007274206D6F6465007365742074696D653E
:100CF00020656E61626C65007365742074696D6552
:100D0000207A6F6E65007365742074696D6520705C
:100D10006F7274007365742074696D65206164641A
:100D2000726573730073657420697020666C616707
:100D300073007365742069702070726F746F636FD5
:100D40006C0073657420697020646863700073655B
:100D50007420646E732061646472657373007365DC
:100D600074206970206761746577617900736574B8
:100D7000206970206E65746D61736B0073657420FB
:100D80006970206E65746D61736B00536574486F94
:100D900073743A206661696C656420746F207374A3
:100DA00061727420636F6D6D616E64007365742091
:100DB00069702072656D6F74650073657420697069
:100DC00020686F73740073657420697020686F7396
:100DD0007400736574206970206C6F63616C706F50
:100DE0007274007365742069702061646472657345
:100DF0007300736574206970206164647265737335
:100E00000073657420776C616E206A6F696E007381
:100E10006574206F206400736574206F2064005334
:100E2000657420466163746F7279204465666175EC
:100E30006C747300666163746F7279205245535409
:100E40004F52450D002A5265626F6F742A00726519
:100E5000626F6F740D0053746F72696E6700736117
:100E600076650D003C74696D656F75743E00455282
:100E7000523A2000414F4B0D0A004552523A200091
:100E8000534552564552004341434845004155544D
:100E90004F4950004F4E004F4646006C6F6F6B75C8
:100EA00070200074696D650D00736C6565700D00D0
:100EB000736574207379732077616B65006765745F
:100EC000436F6E3A2054435020646973636F6E6EB3
:100ED000656374656400676574436F6E3A205443BC
:100EE0005020636F6E6E65637465640073686F771E
:100EF00020630D00676574436F6E3A206661696C0C
:100F0000656420746F207374617274004661696C4B
:100F1000656420746F20657869740A0D004558492E
:100F2000540D0A00657869740D00434D440D0A00A4
:100F300024242400434D440D0A0024242400736516
:100F40007450726F6D7074206661696C6564006DB9
:100F5000756C74694D617463685F503A20006D610F
:100F60007463685F503A20007265616454696D650E
:100F70006F7574202D2074696D6564206F75740021
:100F80003A20003A200064656275672064756D70D0
:100F900000617661696C61626C653A207065656BB1
:100FA000203D20002A4F50454E2A002A434C4F53E3
:100FB0002A004552524F52207065656B2E322062D6
:100FC0007566666572206F7665726C6F7700455244
:100FD000524F52207065656B2E31206275666665D2
:100FE00072206F7665726C6F77004661696C65641C
:100FF00020746F206578697420636F6D6D616E6415
:10100000206D6F6465004661696C656420746F20B3
:10101000656E74657220636F6D6D616E64206D6FB7
:101020006465004661696C656420746F2073657443
:1010300020636F6D6D2072656D6F746500736574EC
:1010400020636F6D6D2072656D6F74652030004692
:1010500061696C656420746F207475726E206F66B0
:101060006620737973207072696E740073657420E2
:10107000737973207072696E746C766C20300046E0
:1010800061696C656420746F207475726E206F6680
:1010900066206563686F007365742075206D20316C
:1010A000005265706C6163653D005478506F7765E0
:1010B000723D00526174653D004A6F696E3D005299
:1010C00065626F6F743D0050726F62653D004265EE
:1010D00061636F6E3D00676574206164686F630DC6
:1010E0000050524F544F3D00464C4147533D3078DD
:1010F00000525353493D282D0073686F7720727357
:1011000073690D00466C75736853697A653D004DCF
:1011100061746368436861723D00466C757368541E
:10112000696D65723D0067657420636F6D6D0D00BC
:101130004D6F64653D005254433D0073686F7720E6
:101140007420740D00416464726573733D006765BB
:101150007420646E730D0054696D653D00557054C4
:10116000696D653D0073686F772074696D650D006A
:101170005A6F6E653D006765742074696D650D007A
:1011800042617564726174653D0067657420750D18
:101190000044657669636549643D00676574206F46
:1011A00070740D00535349443D0067657420776C9B
:1011B000616E0D004D616320416464723D0067659E
:1011C00074206D61630D00444843503D00484F5307
:1011D000543D0047573D004E4D3D0049503D00678E
:1011E00065742069700D0000000008000201000015
:1011F00003040700000000000000000102040810C2
:10120000204080010204081020010204081020047C
:10121000040404040404040202020202020303039D
:101220000303030000000023002600290000000043
:1012300000250028002B0000000000240027002AC1
:101240000000540ECC1B682C732CF82F81308F0EAD
:1012500011241FBECFEFD8E0DEBFCDBF13E0A0E06A
:10126000B1E0E6EAF4E702C005900D92A23AB107B8
:10127000D9F725E0A2EAB3E001C01D92AC35B20770
:10128000E1F712E1CEE4D2E104C02297FE010E9410
:10129000AA34C234D107C9F70E945B160C94463AAF
:1012A0000C940000CF92DF92EF92FF920F931F9366
:1012B000E82FF92F05C0015011092109310961F109
:1012C000908196239417B9F305C0015011092109A3
:1012D000310911F1908196239413F7CFC12CD12CB1
:1012E000E12CF12C0AC08FEFC81AD80AE80AF80AD4
:1012F0000C151D052E053F0579F080818623841786
:1013000091F36C2D7D2D8E2D9F2D1F910F91FF90B0
:10131000EF90DF90CF90089560E070E080E090E083
:101320001F910F91FF90EF90DF90CF9008950C9454
:101330005039CF93DF93EC0160E08FE294E00E949C
:10134000141B40E060E08FE294E00E941619BE0199
:101350008FE294E00E941E318FE294E0DF91CF9102
:101360000C94231BCF93DF93EC0160E08FE294E0B9
:101370000E94141B40E060E08FE294E00E94161986
:10138000BE018FE294E00E9430318FE294E0DF9161
:10139000CF910C94231BCF93DF9300D000D000D0CB
:1013A000CDB7DEB72091A303222399F0FC01608121
:1013B0007181CE0101960E94F318BE016F5F7F4FCD
:1013C0008AE094E00E94F130CE0101960E945632EC
:1013D00005C0BC018AE094E00E94F13026960FB669
:1013E000F894DEBF0FBECDBFDF91CF910895CF93AC
:1013F000DF9300D000D000D0CDB7DEB7BC01CE0166
:1014000001960E944833CE0101960E94CB09CE017D
:1014100001960E9456328AE094E00E940831269696
:101420000FB6F894DEBF0FBECDBFDF91CF91089508
:101430000F931F93CF93DF9300D000D000D0CDB790
:10144000DEB78C01BC01CE0101960E944833CE016B
:1014500001960E94F709CE0101960E9456324AE099
:1014600060E2C8010E94C633B801CE0101960E9415
:101470004833CE0101960E949909CE0101960E943F
:10148000563226960FB6F894DEBF0FBECDBFDF9161
:10149000CF911F910F910895CF93DF9300D000D08B
:1014A00000D0CDB7DEB7BC018091A303882381F0C3
:1014B000CE0101960E94F318BE016F5F7F4F8AE054
:1014C00094E00E94F130CE0101960E94563204C091
:1014D0008AE094E00E94FF3026960FB6F894DEBFB3
:1014E0000FBECDBFDF91CF9108950E944C0A8AE0D4
:1014F00094E00C940831CF93DF93EC010E94750ABD
:10150000CE01DF91CF910C94B2098AE094E00C9463
:101510000831CF93DF93CDB7DEB767970FB6F89456
:10152000DEBF0FBECDBF0E94850A8091A303882332
:1015300089F087E1EEE8F2E0DE01119601900D926C
:101540008A95E1F7BE016F5F7F4F8AE094E00E94C9
:10155000FF3006C06BE173E08AE094E00E94CE3079
:101560006AE073E0CE0101960E947E33CE010196BF
:101570000E94F709CE0101960E9456320E94850A08
:1015800067960FB6F894DEBF0FBECDBFDF91CF9147
:101590000895883031F091E0843109F090E0892F8E
:1015A000089581E00895BF92CF92DF92EF92FF926B
:1015B0000F931F93CF93DF93CDB7DEB7C457D109F5
:1015C0000FB6F894DEBF0FBECDBFB82E44E150E099
:1015D000BE01655A7F4F84EB93E00E94CB2644E125
:1015E00050E0BE01655A7F4F84EB93E00E94CB260A
:1015F0006E0187E4C80ED11C44E150E0B60184EBD3
:1016000093E00E9475267E0193E3E90EF11C44E10C
:1016100050E0B70184EB93E00E94D1260E94850A36
:101620006CEF72E08E010F5F1F4FC8010E947E3386
:10163000C8010E94CB09C8010E945632BE01655AFA
:101640007F4FC8010E94C432C8010E94F709C80137
:101650000E9456326EEE72E0C8010E947E33C801CD
:101660000E94CB09C8010E945632B601C8010E94EF
:10167000C432C8010E94F709C8010E94563260EEC8
:1016800072E0C8010E947E33C8010E94CB09C801E4
:101690000E945632B701C8010E94C432C8010E949C
:1016A000F709C8010E94563262ED72E0C8010E943B
:1016B0007E33C8010E94CB09C8010E94563265EAF8
:1016C00072E0C8010E94C432C8010E94F709C80133
:1016D0000E945632BB2009F48BC085EA92E09F93AA
:1016E0008F9385EC92E09F938F931F930F930E94AB
:1016F0005C37B801CE0181599F4F0E94C432CE01A0
:1017000081599F4F0E949909CE0181599F4F0E9494
:10171000563268EE73E080E090E00E94F72C8091F2
:101720000B018F9380910A018F9387EB92E09F9337
:101730008F931F930F930E945C37B801CE0181599C
:101740009F4F0E94C432CE0181599F4F0E94990938
:10175000CE0181599F4F0E94563268EE73E080E0BF
:1017600090E00E94F72CDF92CF9288EA92E09F935C
:101770008F931F930F930E945C37B801CE0181595C
:101780009F4F0E94C432CE0181599F4F0E949909F8
:10179000CE0181599F4F0E94563268EE73E080E07F
:1017A00090E00E94F72CFF92EF928FE992E09F93D6
:1017B0008F931F930F930E945C37B801CE0181591C
:1017C0009F4F0E94C432CE0181599F4F0E949909B8
:1017D000CE0181599F4F0E94563268EE73E080E03F
:1017E00090E00E94F72C0FB6F894DEBF0FBECDBF7D
:1017F000CC58DF4F0FB6F894DEBF0FBECDBFDF91E0
:10180000CF911F910F91FF90EF90DF90CF90BF90FD
:1018100008958091A40381110CC080910A019091D8
:101820000B01803C92412CF48091A503811101C0F1
:101830000895359907C08091B0008F7D8093B000E6
:101840005B9AF7CF8091B0008F7D8093B0005B985A
:101850000895CF93DF93EC01E881F9810480F5814D
:10186000E02DCE010995892BB9F3E881F981068035
:10187000F781E02DCE01DF91CF9109948F929F9255
:10188000AF92BF92CF92DF92EF92FF92CF93DF930E
:10189000EC014B010E94C82C6B017C01A12CB12CE6
:1018A000E881F9810480F581E02DCE010995892B2D
:1018B000C1F40E94C82C6C197D098E099F098616F7
:1018C0009706A806B90660F78FEF9FEFDF91CF91DB
:1018D000FF90EF90DF90CF90BF90AF909F908F9050
:1018E0000895E881F9810084F185E02DCE01DF9132
:1018F000CF91FF90EF90DF90CF90BF90AF909F90EF
:101900008F900994CF92DF92EF92FF92CF93C82FDE
:101910000E94C82C6B017C010E94C82C685B7B4034
:10192000810991096C157D058E059F0508F473C02A
:101930008C2F0E94F22D892B79F720E432E44FE0BE
:1019400050E060E08C2F0E941B2E6C3071058105E9
:101950009105A4F16431710581059105A4F16D3102
:10196000710581059105A4F1683271058105910524
:10197000A4F16C33710581059105A4F16035710501
:1019800081059105A4F16639710581059105A4F1E0
:101990006C3221E07207810591059CF1683522E0E7
:1019A00072078105910594F1603B744081059105B2
:1019B00094F560EB74E080E090E030C060E072ECA1
:1019C00081E090E02BC060E071EE80E090E026C006
:1019D00060E076E980E090E021C060E870E780E0B8
:1019E00090E01CC060E07BE480E090E017C060E421
:1019F00078E380E090E012C060E875E280E090E07B
:101A00000DC060EC72E180E090E008C060E679E033
:101A100080E090E003C060E070E0CB01CF91FF90E8
:101A2000EF90DF90CF9008950F931F93CF93DF93A4
:101A30001F92CDB7DEB78C0169830E949709698137
:101A4000861741F0C8010F90DF91CF911F910F9140
:101A50000C9458390F90DF91CF911F910F910895F9
:101A60008093A303682F80E090E00C94140DFF9204
:101A70000F931F93CF93DF9300D000D000D0CDB74A
:101A8000DEB782E0F82E0E94850A64E671E0CE019E
:101A900001960E947E33CE0101960E94CB09CE01B1
:101AA00001960E9456324AE050E06091A2038AE01B
:101AB00094E00E94243262E671E0CE0101960E9419
:101AC0007E33CE0101960E94F709CE0101960E9455
:101AD00056320E94850A67E471E0CE0101960E94A9
:101AE0007E33CE0101960E94F709CE0101960E9435
:101AF000563264E371E0CE0101960E947E33CE013E
:101B000001960E94F709CE0101960E9456326DE1BE
:101B100071E0CE0101960E947E33CE0101960E94B3
:101B2000F709CE0101960E9456320E94850A64E1AF
:101B300071E0CE0101960E947E33CE0101960E9493
:101B4000CB09CE0101960E9456328AE094E00E94B1
:101B5000290C8C01682F8AE094E00E944231043104
:101B6000110521F16CF40A30110509F48CCF0D3008
:101B7000110509F488CF08301105E1F480E017C0A1
:101B80000033110569F02CF40032110509F47BCF04
:101B900011C00133110539F00233110519F10AC0E2
:101BA0001092A2030AC0F092A20307C081E00E9433
:101BB000300D69CF6AEF70E008C06091A20381E048
:101BC00090E00E94140D64EF70E0CE0101960E9437
:101BD0007E33CE0101960E94F709CE0101960E9444
:101BE000563251CF26960FB6F894DEBF0FBECDBF4A
:101BF000DF91CF911F910F91FF9008950F931F9345
:101C0000CF93DF9300D000D000D0CDB7DEB78C01EA
:101C100084EB93E00E94932680179107D1F1B801DD
:101C200084EB93E00E94F32884EB93E00E94CB289E
:101C300080910801909109018036994081F06AE70E
:101C400070E0CE0101960E947E33CE0101960E9483
:101C5000F709CE0101960E94563281E01AC068E66B
:101C600070E0CE0101960E947E33CE0101960E9463
:101C7000F709CE0101960E94563284EB93E00E9450
:101C8000C02968E873E180E090E00E94F72C80E0D2
:101C900000C026960FB6F894DEBF0FBECDBFDF9111
:101CA000CF911F910F9108950F9300E020E040E045
:101CB00060E089E294E00E94753020E046E065E053
:101CC0008AE094E00E949D1D84EB93E00E943A2CF0
:101CD00062E973E08EEA93E00E94C43241E0209111
:101CE0000A0130910B018091080190910901281798
:101CF000390709F440E04093A50380E090E00E949A
:101D0000970991E0811101C090E09093A30381E0D5
:101D100090E00E9497098093A2030F9108958EEAA4
:101D200093E00E9456328AE094E00C94441DDF92C6
:101D3000EF92FF920F931F93CF93DF93CDB7DEB750
:101D4000E2970FB6F894DEBF0FBECDBF7C0100E076
:101D500010E08AE094E00E94290CD82EE1E0F0E047
:101D6000EC0FFD1FE00FF11F8083682F8AE094E0E5
:101D70000E94F81B8D2D0E94C90A882329F00115A5
:101D8000110579F0025011098DE0D81669F0013380
:101D9000110551F00F5F1F4F0F3F8FEF1807C9F666
:101DA000D6CF8DE0D812F6CFE1E0F0E0EC0FFD1FCA
:101DB000E00FF11F1082BE016F5F7F4FC7010E94CD
:101DC000C432C701E2960FB6F894DEBF0FBECDBF96
:101DD000DF91CF911F910F91FF90EF90DF900895C9
:101DE0000F931F93CF93DF9300D000D000D0CDB7D7
:101DF000DEB78C01CE0101960E94970ECE010196AE
:101E00000E94D4338091A303882331F069817A81C1
:101E1000C8010E94B21806C0BE016F5F7F4FC801A3
:101E20000E943132CE0101960E945632C801269698
:101E30000FB6F894DEBF0FBECDBFDF91CF911F91DB
:101E40000F9108950F931F93CF93DF93CDB7DEB714
:101E50002C970FB6F894DEBF0FBECDBF0E94850A47
:101E600065EC73E0CE0101960E947E33CE010196AF
:101E70000E94F709CE0101960E9456320E94850AFF
:101E80006EEB73E0CE0101960E947E33CE01019687
:101E90000E94F709CE0101960E94563260EB73E072
:101EA000CE0101960E947E33CE0101960E94F70971
:101EB000CE0101960E94563260E973E0CE01019690
:101EC0000E947E33CE0101960E94F709CE01019651
:101ED0000E9456320E94850A67E873E0CE0101969F
:101EE0000E947E33CE0101960E94CB09CE0101965D
:101EF0000E9456328AE094E00E94290C8C01682FDF
:101F00008AE094E00E94423104311105F9F06CF44A
:101F10000A30110509F4A2CF0D30110509F49ECF46
:101F200008301105B9F480E012C001331105F9F051
:101F30002CF40032110509F491CF0CC002331105C5
:101F4000C9F00333110509F4C8C004C081E00E9440
:101F5000300D84CF6DE673E0CE0101960E947E3392
:101F6000CE0101960E94F709CE010196B3C001E0AF
:101F700010E002C000E010E00E94850A62E973E010
:101F8000CE0107960E94C4320130110521F568E6A2
:101F900073E0CE0101960E947E33CE0101960E942D
:101FA000CB09CE0101960E945632CE0101960E94C5
:101FB000F00EBE016F5F7F4FCE0107960E94513336
:101FC000CE0101960E9456326F81788584EB93E0B2
:101FD0000E942F2923C06CE573E0CE0101960E9478
:101FE0007E33CE0101960E94CB09CE0101960E945C
:101FF0005632CE0101960E94F00EBE016F5F7F4FF8
:10200000CE0107960E945133CE0101960E945632AE
:102010006F81788584EB93E00E944E290E94850AA7
:1020200066E573E0CE0101960E947E33CE010196F3
:102030000E94CB09CE0101960E945632CE01019634
:102040000E94F00EBE016F5F7F4FCE0107960E9487
:102050005133CE0101960E9456326F81788584EB10
:1020600093E00E94242984EB93E00E94CB2884EB28
:1020700093E00E94AD2A60E27EE484EB93E00E944C
:10208000842A8823A9F00E94850A6CE373E0CE01BC
:1020900001960E947E33CE0101960E94F709CE017F
:1020A00001960E945632CE0107960E94563215C004
:1020B0000E94850A66E273E0CE0101960E947E339B
:1020C000CE0101960E94F709CE0101960E94563278
:1020D000CE0107960E945632C1CE2C960FB6F894C8
:1020E000DEBF0FBECDBFDF91CF911F910F9108953D
:1020F0000F931F93CF93DF9300D000D000D0CDB7C4
:10210000DEB76CE372E0CE0101960E947E33CE0111
:1021100001960E94CB09CE0101960E945632609131
:102120000601709107014AE050E08AE094E00E94C5
:10213000F73168E372E0CE0101960E947E33CE0152
:1021400001960E94CB09CE0101960E945632CE0123
:1021500001960E94F00E8D819E81892B31F0CE0177
:1021600001960E9433348B0104C000910601109146
:102170000701CE0101960E945632C80126960FB67D
:10218000F894DEBF0FBECDBFDF91CF911F910F91AD
:102190000895CF93DF93CDB7DEB7E8970FB6F894E5
:1021A000DEBF0FBECDBF6EEA71E08E010F5F1F4F25
:1021B000C8010E947E33C8010E94F709C8010E942D
:1021C0005632412C512C3201C12CD12C7601312CAC
:1021D00091E9A92E91E0B92E2EE7822E21E0922ED0
:1021E00084EB93E00E94DB21181619069CF46FEF34
:1021F000C61AD60AE60AF60A0E94090C84EB93E096
:102200000E948021682F8AE094E00E94F81B33240A
:102210003394E6CF8AE094E00E94641C18161906F5
:102220008CF48FEF481A580A680A780A8AE094E01A
:102230000E94D71B682F84EB93E00E94BD1F3324BC
:102240003394E8CF9201A301332051F28091A4038B
:1022500081110BC080910A0190910B01803C924149
:1022600024F48091A503882399F01F921F921F9256
:102270001F925F934F933F932F93FF92EF92DF92C2
:10228000CF92BF92AF921F930F930E945C370EC004
:102290007F926F925F924F92FF92EF92DF92CF9276
:1022A0009F928F921F930F930E945C370FB6F89402
:1022B000DEBF0FBECDBFB801CE01C3960E94C432AF
:1022C000CE01C3960E949909CE01C3960E94563250
:1022D00087CFBF92CF92DF92EF92FF920F931F931F
:1022E000CF93DF93CDB7DEB7A4970FB6F894DEBFD8
:1022F0000FBECDBFCE0101967C0130E4C32E34E089
:10230000D32EBB24B3940E94850A63E874E0C7010E
:102310000E947E33C7010E94F709C7010E9456320E
:102320000E94850A62E674E0C7010E947E33C701FD
:102330000E94F709C7010E94563263E574E0C701A5
:102340000E947E33C7010E94F709C7010E945632DE
:102350008091A403882319F08AEA92E002C082EBFC
:1023600092E09F938F93DF92CF92FF92EF920E9421
:102370005C37B701CE014F960E94C432CE014F9612
:102380000E94F709CE014F960E9456326BE274E02C
:10239000CE014F960E947E33CE014F960E94F709E0
:1023A000CE014F960E9456326BE074E0CE014F96FC
:1023B0000E947E33CE014F960E94F709CE014F96C0
:1023C0000E94563264EF73E0CE014F960E947E3336
:1023D000CE014F960E94F709CE014F960E945632C9
:1023E0000E94850A6BEE73E0CE014F960E947E3309
:1023F000CE014F960E94CB09CE014F960E945632D5
:102400008AE094E00E94290C8C01682F8AE094E015
:102410000E9442310F900F900F900F900F900F90ED
:102420000133110589F1ACF40D30110509F46BCFBE
:1024300044F408301105A1F10A30110509F463CF05
:1024400035C00431110571F10032110509F45BCF7B
:102450002DC004331105F9F084F402331105C1F0E5
:102460000333110519F56091A4036B256093A40350
:102470008BE090E00E94140D46CF0533110571F0FA
:102480000633110511F112C080E00E94D30A3BCF40
:102490000E94220F38CF0E94370D35CF0E94C910FD
:1024A00080E001C081E00E94300D2DCF61ED73E02E
:1024B000CE014F960E947E33CE014F960E94F709BF
:1024C000CE014F960E9456321ECFA4960FB6F894B6
:1024D000DEBF0FBECDBFDF91CF911F910F91FF9057
:1024E000EF90DF90CF90BF9008951F93CF93DF932D
:1024F000EC01162F6FEF84EB93E00E94BD1FCD3FE0
:10250000D10511F46DEF01C06BEF84EB93E00E94F5
:10251000BD1F612F84EB93E0DF91CF911F910C944D
:10252000BD1F1F93CF93DF93EC01162F6FEF84EB4A
:1025300093E00E94BD1FCD3FD10511F46CEF01C0A7
:102540006EEF84EB93E00E94BD1F612F84EB93E05C
:10255000DF91CF911F910C94BD1F6FEF84EB93E03F
:102560000E94BD1F6EEF84EB93E00E94BD1F62E2EC
:1025700084EB93E00E94BD1F6FEF84EB93E00E9419
:10258000BD1F6EEF84EB93E00E94BD1F61E084EB02
:1025900093E00C94BD1FCF93DF9360E177E284EB6F
:1025A00093E00E943E0C8F3F910591F50E94AD1281
:1025B00068E873E184EB93E00E943E0C8F3F910545
:1025C00039F584EB93E00E94290C84EB93E00E94A0
:1025D000290CEC018F3F2FEF920751F38B5F91098C
:1025E000049730F784EB93E00E94290C8F3F2FEF84
:1025F0009207F1F28330910531F463E070E0CE018F
:102600000E947512D5CFBC01CE010E949112D0CF8D
:10261000DF91CF910895CF92DF92EF92FF921F93B7
:10262000CF93DF9300D000D000D0CDB7DEB78AE0E3
:1026300094E00E94D71B182F0E94C82C685E73403C
:1026400081099109C090A703D090A803E090A90345
:10265000F090AA03C616D706E806F906D8F41B328E
:10266000B9F48091AB039091AC038B32910531F0BA
:1026700081E08093AD038BE290E005C02091AD0333
:102680002F5F2093AD039093AC038093AB030CC0FA
:102690001092AD030E94C82C6093A7037093A80307
:1026A0008093A9039093AA038091AD038330D9F45A
:1026B00069EB72E0CE0101960E94C432CE01019610
:1026C0000E949909CE0101960E94563281E08093C2
:1026D000A6031092AD031092A7031092A8031092C4
:1026E000A9031092AA03612F84EB93E00E94BD1FFF
:1026F00026960FB6F894DEBF0FBECDBFDF91CF9107
:102700001F91FF90EF90DF90CF900895CF92DF92CE
:10271000EF92FF920F931F93CF93DF93CDB7DEB766
:10272000CA56D1090FB6F894DEBF0FBECDBFCE0199
:1027300001967C0184EB93E00E94DB21019609F471
:102740006CC08091A5038823F1F100E010E084EBD8
:1027500093E00E94DB2118161906B4F48091B000B2
:102760008F7D8093B0005B9A84EB93E00E94802180
:10277000F701E00FF11F80830F5F1F4F0436110533
:1027800034F303E610E0E3CF6701C6018E199F0919
:10279000801791078CF4F60161916F018AE094E053
:1027A0000E94F81B8AE094E00E94641C1816190627
:1027B00064F70E940B13F6CF8091B0008F7D809359
:1027C000B0005B9813C084EB93E00E94DB211816E5
:1027D000190664F40E94090C84EB93E00E948021A6
:1027E000682F8AE094E00E94F81BEDCF8AE094E025
:1027F0000E94641C181619061CF40E940B13F6CFD5
:1028000084EB93E00E94F22A882329F08091A603AA
:10281000882309F48FCF1092A60384EB93E00E94E3
:10282000FF2A6CEC71E0CE018B599F4F0E947E33E2
:10283000CE018B599F4F0E94180ACE018B599F4F92
:102840000E945632C659DF4F0FB6F894DEBF0FBE56
:10285000CDBFDF91CF911F910F91FF90EF90DF904F
:10286000CF9008950F931F93CF93DF93CDB7DEB72B
:102870002C970FB6F894DEBF0FBECDBF84EB93E06C
:102880000E9493268C010E94850A6FE872E0CE01B7
:1028900001960E947E33CE0101960E94CB09CE01A3
:1028A00001960E9456324AE050E0B8018AE094E076
:1028B0000E94F7316BE872E0CE0101960E947E33F0
:1028C000CE0101960E94CB09CE0101960E9456329C
:1028D000CE0107960E94F00E8B859C85892B49F0CE
:1028E000CE0107960E943334CB010E94FE0D811168
:1028F000FFCF84EB93E00E9493268C010E94850A0F
:102900006BE672E0CE0101960E947E33CE01019605
:102910000E94CB09CE0101960E9456324AE050E057
:10292000B8018AE094E00E94FF3184EB93E00E94BA
:10293000F22A8823D1F367E572E0CE0101960E9466
:102940007E33CE0101960E94F709CE0101960E94C6
:1029500056320E948613CE0107960E9456322C965C
:102960000FB6F894DEBF0FBECDBFDF91CF911F91A0
:102970000F910895BF92CF92DF92EF92FF920F9343
:102980001F93CF93DF93CDB7DEB7C854D1090FB6ED
:10299000F894DEBF0FBECDBF7C016B01B42EFC01ED
:1029A00081818F9380818F9386E292E09F938F93B2
:1029B0008E010F5F1F4F1F930F930E945C37C8015A
:1029C0000E947B0A62E084EB93E00E940A29F701EF
:1029D0006081718120E130E0AE014D5C5F4F84EB9E
:1029E00093E00E9403270F900F900F900F900F908D
:1029F0000F90811103C06EEF71E028C021E0A601A5
:102A0000BE016D5C7F4F84EB93E00E943F2B8823D7
:102A1000D9F0F70181818F9380818F938EEE91E0C1
:102A20009F938F931F930F930E945C37C8010E945E
:102A30007B0A0F900F900F900F900F900F90B11096
:102A400015C00E94CB1212C06EED71E0CE018D5BFD
:102A50009F4F0E947E33CE018D5B9F4F0E94180ACC
:102A6000CE018D5B9F4F0E94563202C00E9486139A
:102A7000C85BDF4F0FB6F894DEBF0FBECDBFDF914E
:102A8000CF911F910F91FF90EF90DF90CF90BF906B
:102A900008950F931F93CF93DF93CDB7DEB72C9795
:102AA0000FB6F894DEBF0FBECDBF68E472E0CE0172
:102AB00001960E947E33CE0101960E94CB09CE0181
:102AC00001960E9456326EEA73E0CE0101960E9492
:102AD0004833CE0101960E94CB09CE0101960E9497
:102AE000563264E472E0CE0101960E947E33CE013C
:102AF00001960E94CB09CE0101960E945632CE016A
:102B000007960E94F00E8B859C85892B91F00E9480
:102B100078108C01BE01695F7F4F8EEA93E00E94BE
:102B200031331093070100930601BE01695F7F4FA7
:102B30000FC08091B2039091B303892BB9F00E942A
:102B400078108C0190930701809306016EEA73E080
:102B5000CE0101960E94483340E0B801CE010196B3
:102B60000E94BA14CE0101960E945632CE010796F9
:102B70000E9456322C960FB6F894DEBF0FBECDBF22
:102B8000DF91CF911F910F910895CF93DF9300D0E4
:102B900000D000D0CDB7DEB78091A203882309F41E
:102BA0004FC0823049F566ED70E0CE0101960E947B
:102BB0007E33CE0101960E94F709CE0101960E9454
:102BC00056326BEB70E0CE0101960E947E33CE014F
:102BD00001960E94F709CE0101960E94563260EDDF
:102BE00077E08AE094E00E943E0C019669F08AE06A
:102BF00094E00E94290C24C060E081E090E00E94F3
:102C0000140D1092A2031CC08091A2038230C1F463
:102C100063EA70E0CE0101960E947E3341E065E0F8
:102C200076E0CE0101960E94BA14CE0101960E9470
:102C3000563268EE73E080E090E00E94F72CE8CF17
:102C400026960FB6F894DEBF0FBECDBFDF91CF91B1
:102C50000895CF92DF92EF92FF926C019093090159
:102C60008093080185EB94E00E94952E62E070E06D
:102C700080E090E00E94F72CEE24D7FCE094FE2C3C
:102C8000B701A60184EB93E00E94BE2A68EE73E0D0
:102C900080E090E00E94F72C85EB94E00E947E2F6C
:102CA00026E0B701A60185EB94E0FF90EF90DF905E
:102CB000CF900C941C2FCF93DF93CDB7DEB72C971A
:102CC0000FB6F894DEBF0FBECDBF0E941F2D8FE25E
:102CD00094E00E94641B60E08FE294E00E945A1925
:102CE00061E08FE294E00E94141B82E090E00E9479
:102CF0009709182F83E090E00E949709212F30E078
:102D0000322F2227280F311D203B84E0380729F479
:102D100030930B0120930A0116C0203699E0390741
:102D2000B9F3203C82E1380799F3203895E239075E
:102D300079F321158BE4380759F380E699E09093F5
:102D40000B0180930A0160E085E00E94832D61E021
:102D500085E00E94BC2D6AE475E0CE0101960E94D8
:102D60007E33CE0101960E949909CE0101960E9400
:102D7000563285E090E00E94820C6B017C0190EB62
:102D8000C91694E0D906E104F104E1F020E6C21688
:102D900029E0D206E104F104A9F080ECC81682E132
:102DA000D806E104F10471F090E8C91695E2D9065D
:102DB000E104F10439F0C1142BE4D206E104F1047A
:102DC00009F040C0FF92EF92DF92CF9286E495E047
:102DD0009F938F938E01095F1F4F1F930F930E9444
:102DE0005C37B801CE0101960E94C432CE01019633
:102DF0000E949909CE0101960E94563268EB7BE051
:102E000080E090E00E94F72C8601D0920B01C092E6
:102E10000A01C601D7FE02C081509F4F692F82E090
:102E200090E00E94140DC80160E071E00E945334EC
:102E3000682F83E090E00E94140D0FB6F894DEBF77
:102E40000FBECDBF40910A0150910B01662757FD7F
:102E50006095762F8AE094E00E94CD1D4091080194
:102E600050910901662757FD6095762F26E085EB86
:102E700094E00E941C2F48EE53E060E070E08AE08E
:102E800094E00E942B3241E020910A0130910B0125
:102E900080910801909109012817390709F440E051
:102EA0004093A5033D98399A5298539A8091B00067
:102EB0008F7D8093B0005B98419A68E375E0CE0106
:102EC00001960E947E33CE0101960E94180ACE011F
:102ED00001960E94563240E050E065EB74E084EBCE
:102EE00093E00E94EB298823D9F06EE275E0CE01D1
:102EF00001960E947E33CE0101960E94180ACE01EF
:102F000001960E94563261E084EB93E00E940C2906
:102F100080910A0190910B018036994089F422C07A
:102F200060E275E0CE0101960E947E33CE010196EB
:102F30000E94180ACE0101960E9456320E94C910C2
:102F400068EE73E080E090E00E94F72C80910A0127
:102F500090910B01803B24E0920711F480E699E008
:102F60000E94291641E020910A0130910B018091C5
:102F70000801909109012817390709F440E04093AE
:102F8000A50384EB93E00E94FF2A8BE090E00E946F
:102F9000970991E0811101C090E09093A4030E94F1
:102FA000C5150E94850A6AE075E0CE0101960E946F
:102FB0007E33CE0101960E94F709CE0101960E9450
:102FC000563281E00E94D30A63E075E0CE0101969B
:102FD0000E947E33CE0101960E949909CE0101968E
:102FE0000E9456320E94890A6AEE74E0CE01019670
:102FF0000E947E33CE0101960E94F709CE01019610
:103000000E9456326AEC74E0CE0101960E947E3333
:10301000CE0101960E94F709CE0101960E94563218
:1030200069EB74E0CE0101960E947E33CE010196D9
:103030000E94F709CE0101960E9456320E94850A2D
:1030400060EB74E0CE0101960E947E33CE010196C2
:103050000E94CB09CE0101960E9456328AE094E08C
:103060000E94290C7C01682F8AE094E00E94423182
:1030700084E1E816F10469F184F42AE0E216F1042F
:1030800009F4A2CF8DE0E816F10409F49DCF98E091
:10309000E916F10411F580E01DC021E3E216F10408
:1030A00091F034F490E2E916F10409F48DCF15C0E3
:1030B00022E3E216F10451F083E3E816F10469F427
:1030C0000E94691181CF0E9449157ECF0E9432145F
:1030D0007BCF81E00E94300D77CF66E974E0CE01AE
:1030E00001960E947E33CE0101960E94F709CE011F
:1030F00001960E94563268CFCF93C82F80EA8C0F7A
:10310000803210F490E603C0C03E18F090EC9C0FA3
:1031100003C0CD3001F19C2F9A30F9F0903210F4B9
:103120008EE21EC0903AD9F08FE3890F8A3110F4F5
:1031300080E805C08FEB890F8A3118F480E2890F8F
:103140000FC08C2F992787FD90950E94E236892B1E
:1031500039F38C2F05C08AE003C08DE001C080E206
:10316000CF910895EF92FF920F931F93CF93DF9328
:103170008C017B0162E973E00E94C432E70189910E
:10318000882339F00E947C18682FC8010E94B3334D
:10319000F6CFC801DF91CF911F910F91FF90EF9073
:1031A00008958A30C1F08D30C1F08032D4F080367D
:1031B000B1F09FE9980F9A3110F4805208959FEB77
:1031C000980F9A3110F4805808958B3754F4803654
:1031D0004CF0805A08958DE008958AE0089587E2C2
:1031E00008958FE30895EF92FF920F931F93CF936B
:1031F000DF938C017B0162E973E00E94C432E70136
:103200008991882339F00E94D118682FC8010E9443
:10321000B333F6CFC801DF91CF911F910F91FF908B
:10322000EF9008950DB407FEFDCF0895FC0163876C
:10323000448708950F936034D8F54033C8F50130C2
:10324000C9F42130A9F5E42FE695E695E69580E4EA
:10325000E89FF0011124E60FF11DE45FFE4F477077
:1032600081E090E0042E01C0880F0A94EAF7908173
:1032700098271DC0842F869586958695E62FF0E0C9
:10328000477090E4899FE00DF11D1124E45FFE4F2B
:1032900081E090E0042E01C0880F0A94EAF7213003
:1032A00019F49081982B03C0809590819823908386
:1032B0000F910895DC0161112EC018961C92189789
:1032C00080918C0290918D02FC01249116962C9392
:1032D00016973196E4911796EC931797FC01329666
:1032E000E4911996EC931997FC013396E4911A96A0
:1032F000EC931A97FC01349624913196849190E0D6
:10330000F4E62F9F800D911D11241E969C938E93A1
:103310001D9781E0089580E008955F926F927F92FB
:103320008F929F92AF92BF92CF92DF92EF92FF92D5
:103330000F931F93CF93DF93EC01162FB42EF02E33
:103340003985231708F4B0C06A8570E0630F711DDA
:10335000822F90E0861797070CF0A6C0D22ED31AC2
:103360009F8096949694969481E08915C0F1C12E21
:103370003C2D311B2E81822F90E0A32FB0E08A17C5
:103380009B070CF491C0321791F0E885F0E0EE0F46
:10339000FF1FE457FD4FD29EA00DB11D11241696BC
:1033A0000190F081E02DEA0FFB1F949001C0912C59
:1033B000A12C4A2D4B0D90FE03C00E2D2F2D04C0C5
:1033C00021E0F11020E00E2D6C2DCE010E941A1983
:1033D0009694A39488E0A812ECCFC394C9CFED854E
:1033E000FE852E8130E0CF01B9010E943F348D2D42
:1033F00090E00E943F34829F6001839FD00C929F97
:10340000D00C11249E9E90019F9E300D1124269F6A
:10341000C001279F900D369F900D1124C80ED91E14
:10342000742EA12CB12C86E0C80ED11C812E482D03
:10343000411B8E81481780F5E885F0E0EE0FFF1FF5
:10344000E457FD4F2D853E85A29EC001A39E900DA1
:10345000B29E900D11248C0D9D1D840F911D019025
:10346000F081E02DE80FF91F5490612C462D470D97
:1034700050FE03C00E2D2F2D04C021E0F11020E0DE
:103480000E2D682DCE010E941A195694639488E07F
:103490006812ECCF8394CBCF8FEFA81AB80A88E0DC
:1034A000780EA91408F4C2CFDF91CF911F910F912C
:1034B000FF90EF90DF90CF90BF90AF909F908F9054
:1034C0007F906F905F900895EF920F93CF93DF936B
:1034D000EC01262F6A30A9F06D30C1F0ED800C812F
:1034E0004C856B850E948D194E812B85240F2F5F93
:1034F0002B8730E080E490E0841B910982179307CA
:103500002CF48C859F81890F8C871B8681E090E04D
:10351000DF91CF910F91EF9008952A9A22982898E1
:10352000209A60E08DE00E94BC2D60E08BE00E945C
:10353000BC2D61E08DE00E94832D61E08BE00E9454
:10354000832D8CB580618CBD08958CB580648CBD55
:103550002A98229A08950DB407FEFDCF2898209A44
:103560002A9A22988CB58F7B8CBD0895CF93DF93D8
:1035700000D0CDB7DEB74A8369830E94A51A69815E
:103580006EBD0E9412194A814EBD0F900F90DF91BF
:10359000CF910C94AB1ACF93DF9300D01F92CDB78D
:1035A000DEB72B834A8369830E94A51A69816EBDA9
:1035B0000E9412194A814EBD0E9412192B812EBD04
:1035C0000F900F900F90DF91CF910C94AB1A0F9347
:1035D0001F93CF93DF93EC0140E060E20E94B61AA4
:1035E0002FE740E061E2CE010E94CB1A27E040E0E5
:1035F00062E2CE010E94CB1A0E94A51A289A209856
:103600001EBC0FEF13E00E9412191EBC01501109DD
:10361000D1F70E94AB1A42E060E2CE01DF91CF9178
:103620001F910F910C94B61A613011F40C94E71AA3
:1036300080E891E0ECE0F1E0DF019C011D92215077
:103640003040E1F708950F931F93CF93DF93EC0180
:1036500040E060E20E94B61A2FE540E261E2CE014E
:103660000E94CB1A25E040E062E2CE010E94CB1A14
:103670000E94A51A289A209880910C018EBD0DE019
:1036800011E00E941219F80181918F018EBDF2E0C4
:103690000C381F07B1F70E94AB1A42E060E2CE017E
:1036A000DF91CF911F910F910C94B61A2CB5982FE2
:1036B00093702C7F922B9CBD9DB582FB882780F94F
:1036C0009E7F982B9DBD0895CF93DF93EC0160E022
:1036D0000E945A1981E08C831D821B861C865F988C
:1036E000579A61E084E00E94832D61E084E00E94AB
:1036F000BC2D6AE070E080E090E00E94F72C5F9AB9
:10370000579865E070E080E090E00E94F72C5F98A9
:10371000579A84E00E94561B0E948D1A65E070E063
:1037200080E090E00E94F72C5F9A57986AE070E082
:1037300080E090E00E94F72C4FE268EACE010E9400
:10374000B61A44E16DE8CE010E94B61A0E94A51A8D
:1037500081EA8EBD0E94AB1A0E94A51A88EC8EBD2C
:103760000E94AB1A4FE861E8CE010E94B61A41EF01
:1037700069EDCE010E94B61A40E46BEDCE010E94C5
:10378000B61A0E94A51A8FEA8EBD0E94AB1ACE010E
:10379000DF91CF910C94E71A109232041092310409
:1037A00085EC92E09093300480932F04089520914B
:1037B00080043091810428173907B9F490913E04B0
:1037C00080913F04981789F0E0913E04F0E0E05CBE
:1037D000FB4F808120913E0430E02F5F3F4F2F73DD
:1037E000332720933E0490E008958FEF9FEF0895D4
:1037F0001F93CF93DF93DC015C968D919C915D9735
:10380000009749F481E090E013969C938E93129771
:1038100080E090E03BC05196ED91FC91529750961C
:103820002C915097322F30951FB75E964C915E9732
:1038300041FB772770F941FD6095F894408177232B
:1038400011F0422B01C043234083EC012197F1F793
:1038500048E0508160FF02C0522B01C053235083C7
:10386000EC012197F1F76695415099F78081772314
:1038700011F0832301C0822B80831FBF5C968D9142
:103880009C915D970197F1F781E090E0DF91CF91F6
:103890001F910895209180043091810428173907E1
:1038A00081F490913E0480913F04981751F0E0918B
:1038B0003E04F0E0E05CFB4F8081992787FD909506
:1038C00008958FEF9FEF0895209180043091810437
:1038D0002817390771F480913F0420913E0490E04D
:1038E000805C9F4F821B910960E470E00E9453341A
:1038F000089580E090E00895209180043091810443
:103900002817390739F48FB7F89410923F041092B2
:103910003E048FBF0895E0918004F0918104E81780
:10392000F90769F4A389B4899C91858980958923D5
:103930008C93109281041092800481E0089580E0BD
:103940000895CF93DF93EC018A8D9B8D892BF1F045
:1039500080918004909181048C179D07B9F00097A5
:1039600011F00E948B1C8E8D8E7F8E8F10923F04E3
:1039700010923E04D0938104C0938004EB89FC89AB
:1039800080819D89892B808381E001C080E0DF9167
:10399000CF9108951F920F920FB60F9211242F937B
:1039A0003F934F935F936F937F938F939F93AF93C7
:1039B000BF93EF93FF93E0918004F09181043097DF
:1039C00009F451C0868DA685B785958581FF04C011
:1039D0008C91892329F447C08C91892309F043C035
:1039E000A389B4899C918589809589238C93868944
:1039F00097890197F1F7208D318DA685B78575855B
:103A000058E040E0C9010197F1F7842F90E09595C7
:103A10008795482F6C91672309F04068515091F7C2
:103A2000868D81FD409580913F0490E001968F73D3
:103A3000992720913E04281749F0A0913F04B0E057
:103A4000A05CBB4F4C9380933F0403C0868D816084
:103A5000868F828D938D0197F1F7A389B4898C911C
:103A60009589892B8C93FF91EF91BF91AF919F9195
:103A70008F917F916F915F914F913F912F910F9017
:103A80000FBE0F901F9018952DEC32E0FC01318392
:103A900020830C948B1C1F93CF93DF93EC01162F84
:103AA0006E8D6695617081E06827812F0E94BC2D24
:103AB00061E0812F0E94832D812F90E0FC01E55071
:103AC000FE4EE491E88BFC01E15FFD4EE491F0E0F5
:103AD000EE0FFF1FE35DFD4E859194919A8B898BCC
:103AE000DF91CF911F9108951F93CF93DF93EC0146
:103AF000162F60E0812F0E94832D8E8D81FD04C0E2
:103B000061E0812F0E94BC2D1C87812F90E0FC0179
:103B1000E550FE4EE491ED87FC01E15FFD4EE4913E
:103B2000F0E0EE0FFF1FED5DFD4E859194919F87B4
:103B30008E87DF91CF911F910895FF920F931F936E
:103B4000CF93DF93EC01F62E522F1B821A8208EEE0
:103B500013E020E030E00C831D832E833F838DEC47
:103B600092E0998388831F8A1E8A198E188E1B8E75
:103B70001A8E1D8E1C8E8E8D8E7F50FB81F98E8F3E
:103B8000642FCE010E944B1D6F2DCE01DF91CF918E
:103B90001F910F91FF900C94741DCF93DF93EC0154
:103BA0009A01AB011B8E1A8E198E188E1F8A1E8ADF
:103BB00060E079E08DE390E00E948934C90124300F
:103BC000310520F0B9016350710902C061E070E075
:103BD0007D8F6C8FEC85E63108F068C0B901769571
:103BE00067956431710518F06351710902C061E095
:103BF00070E07F8B6E8B069718F0C901059702C0A5
:103C000081E090E0998F888FC901880F991F820FFA
:103C1000931F96958795969587958D30910510F011
:103C20000C9702C081E090E09B8F8A8F2091680002
:103C3000E83050F091E0EE3008F490E081E001C00F
:103C4000880F9A95EAF701C084E0822B8093680080
:103C50002C85283038F02E3040F0263148F48CE6A0
:103C600090E008C08DE690E005C08BE690E002C0D1
:103C700080E090E09C8B8B8B283030F481E001C099
:103C8000880F2A95EAF70DC0822F90E02E3010F4AD
:103C9000089701C00E9791E001C0990F8A95EAF745
:103CA000892F8D8B8C8D9D8D0197F1F7CE01DF9142
:103CB000CF910C94A11CDC011C968D919C911D97B9
:103CC000DC01ED91FC910680F781E02D0994DC0187
:103CD0001C968D919C911D97DC01ED91FC910480C7
:103CE000F581E02D0994DC011C968D919C911D9726
:103CF000DC01ED91FC910284F385E02D0994DC0157
:103D00001C968D919C911D97DC01ED91FC91008496
:103D1000F185E02D09942F923F924F925F926F921E
:103D20007F928F929F92AF92BF92CF92DF92EF924B
:103D3000FF920F931F93CF93DF93CDB7DEB76097BA
:103D40000FB6F894DEBF0FBECDBF2B013C01690159
:103D50004A3021F5CE0101961C01E12CF12C5AE0EC
:103D6000852E912CA12CB12CC301B201A501940187
:103D70000E9467349FEFE91AF90A80E3840DEAE0B4
:103D80002E9F80191124F10181931F012115310506
:103D900041055105C9F129013A01E6CFFE013196ED
:103DA00080E090E0B301A2014F7055276627772786
:103DB0009C012F5F3F4F4A3051056105710510F49A
:103DC000A0E301C0A1E44A0F419344E076946794D4
:103DD000579447944A95D1F74114510461047104F2
:103DE00011F0C901DFCFE1E0F0E0EC0FFD1FE20FC1
:103DF000F31F48E740837C01F3E0EF0EF11CFE0166
:103E0000E80FF91F20E3238321E0E21AF108F6010D
:103E100080E090E0015011090196A1E0B0E0AC0F04
:103E2000BD1FAE0DBF1D2C9121931E141F04ECF07D
:103E3000F601E80FF91F108260960FB6F894DEBF06
:103E40000FBECDBFDF91CF911F910F91FF90EF90EB
:103E5000DF90CF90BF90AF909F908F907F906F90AA
:103E60005F904F903F902F90089521E0E21AF10863
:103E700080179107ECF6D0CFCF92DF92EF92FF92AE
:103E80000F931F93FC0140E060E070E0CB010191D3
:103E9000002309F449C020ED200F2A30B0F414E0CB
:103EA000660F771F881F991F1A95D1F76053710904
:103EB00081099109C02EDD24C7FCD094ED2CFD2C86
:103EC0006C0D7D1D8E1D9F1DE2CF2FE9200F26302A
:103ED00060F4B4E0660F771F881F991FBA95D1F779
:103EE00067557109810991090FC02FEB200F26300A
:103EF000A8F4A4E0660F771F881F991FAA95D1F731
:103F00006753710981099109112707FD1095212F28
:103F1000312F600F711F821F931FB9CF083721F413
:103F2000411102C041E0B3CF1F910F91FF90EF907C
:103F3000DF90CF9008950F931F93FC0160E070E035
:103F4000CB01019120ED200F2A30A0F4AAE0B0E0CF
:103F50009B01AC010E94AE34605371098109910943
:103F6000112707FD1095212F312F600F711F821F20
:103F7000931FE7CF1F910F910895DC01AE5ABF4FF9
:103F80002D913C911197FC01EC5AFF4F40815181DA
:103F90002417350764F434970190F081E02DA901CE
:103FA0004F5F5F4F4D935C93E20FF31F6083FC0103
:103FB000FF9680819181DC01ED91FC910190F0816F
:103FC000E02D0994CF96DC018D919C91DC01ED915F
:103FD000FC910284F385E02D0994DC011C968D91FF
:103FE0009C911D97009739F0DC01ED91FC910190B7
:103FF000F081E02D099480E090E0089520919504EF
:1040000021110BC0FC01FF9680819181DC01ED91B3
:10401000FC910084F185E02D0994E0919604F0E094
:10402000E856FB4F8081992787FD90950895DC0124
:10403000ED91FC910190F081E02D09944F925F92F7
:104040006F927F92AF92BF92CF92DF92EF92FF92E8
:104050000F931F93CF93DF93EC015B016A010E94E2
:10406000C82C2B013C01E12CF12C8E01015C1F4F6F
:104070000E94C82C64197509860997096C157D057D
:104080008E059F0508F067C0D8018D919C91DC01D9
:10409000ED91FC910480F581E02D09951816190623
:1040A0003CF7F80180819181DC01ED91FC91068063
:1040B000F781E02D0995F82EF5018083DE01AE5AD7
:1040C000BF4F2D913C911197FE01EC5AFF4F80811B
:1040D0009181281739075CF434970190F081E02D25
:1040E000C90101968D939C93E20FF31FF0828C859A
:1040F0008823E1F16091820470918304CB010196E1
:104100009093830480938204CF5BDF4F4AE050E0BA
:10411000CE010E94F73160E87FE0CE010E94CE30F0
:1041200040E150E00F2D112707FD1095B801CE0199
:104130000E94F731C8010E94E236892B41F060E20B
:10414000CE010E9401316F2DCE010E940131CE01BE
:104150000E9408310BC08C85882351F068E67FE00F
:10416000CE018F5B9F4F0E940C3102C081E001C0E5
:1041700080E0DF91CF911F910F91FF90EF90DF9042
:10418000CF90BF90AF907F906F905F904F900895C9
:10419000EF92FF920F931F93CF93DF931F92CDB7B0
:1041A000DEB78C017B01A701BE016F5F7F4FC801A5
:1041B0000E941E208111F7CF0F90DF91CF911F91A8
:1041C0000F91FF90EF900895DF92EF92FF920F937F
:1041D0001F93CF93DF938C0190919504992311F154
:1041E000442321F06F5F7F4F81E001C080E0209188
:1041F0009604820FFB01BF01382F321B3917B0F430
:104200003491332309F443C0893010F4A82F01C03E
:10421000A0E031968F5FB0E0A856BB4F4C9143179A
:1042200051F354C0411102C06F5F7F4FFB01D49026
:10423000EB0121967801F1E4EF0EF11C60919704F7
:1042400070E068567B4F44EF51E0C8010E941E2089
:1042500080919704E82FF0E0E856FB4F2081909181
:1042600095048F5F2D111BC0883068F580939704EB
:104270009F5F90939504993028F062EB7FE0C7012F
:104280000E940C31FE01D4902196D110D7CF10920C
:104290009504109296041092970481E018C088301B
:1042A00018F48093970402C0109297049F5F909334
:1042B0009504993058F06EEC7FE0C8018F5B9F4FFA
:1042C0000E940C3103C010929704D2CF80E0DF919E
:1042D000CF911F910F91FF90EF90DF900895CF93B2
:1042E000DF93EC01462F6BEA7FE00E94E4208823F5
:1042F00019F01FAA81E001C080E0DF91CF910895FD
:10430000CF93DF93EC0180919504882381F0E091B5
:10431000960491E09E0F90939604F0E0E856FB4FD0
:10432000208130E0983060F11092960429C0FE019F
:10433000FF9680819181DC01ED91FC910680F781EF
:10434000E02D09959C018FA98823E9F02A323105D7
:10435000D1F460E0CE010E946F21811116C0E0917E
:10436000960481E08E0F80939604F0E0E856FB4FB0
:10437000208130E0883010F01092960480919504EE
:10438000815080939504C90102C08FEF9FEFDF91A8
:10439000CF910895CF93DF93EC01462F64EA7FE03D
:1043A0000E94E420882319F081E08FAB01C080E0F7
:1043B000DF91CF910895CF92DF92EF92FF920F930A
:1043C0001F93CF93DF93EC018C01015C1F4FD80149
:1043D0008D919C91DC01ED91FC910480F581E02DA3
:1043E00009957C01181619060CF043C08C858823AA
:1043F000B9F061E97FE06E01B1E4CB0ED11CC601DA
:104400000E94CE30F80180819181DC01ED91FC9118
:104410000084F185E02D0995682FC6010E94423184
:10442000F80180819181DC01ED91FC910084F1859E
:10443000E02D09958A97E9F48FA961E0882331F08E
:10444000CE010E946F21882321F01AC0CE010E9464
:10445000CA21C0919504D0E0F80180819181DC01EE
:10446000ED91FC910480F581E02D09958C0F9D1F45
:1044700009C080919504F701E80FF11DCF0102C03A
:104480008FEF9FEFDF91CF911F910F91FF90EF90F2
:10449000DF90CF900895CB0165E874E00E942D373E
:1044A00021E0892B09F420E0822F08958F929F92BA
:1044B000AF92BF92CF92DF92EF92FF920F931F9332
:1044C000CF93DF931F92CDB7DEB76C017B015A010A
:1044D0006115710529F1FB018081882309F18B01A8
:1044E0004B01FFEF8F1A9F0AA501BE016F5F7F4F3F
:1044F000C6010E941E208823A1F08981F8019081C5
:10450000891303C00F5F1F4F07C0F7019081891304
:1045100002C0840101C08701F80180818111E4CFCC
:1045200081E00F90DF91CF911F910F91FF90EF905D
:10453000DF90CF90BF90AF909F908F9008957F9223
:104540008F929F92AF92BF92CF92DF92EF92FF92A3
:104550000F931F93CF93DF931F92CDB7DEB76C01FC
:104560008B015A01FC018485882369F06EE57FE0A8
:104570007601F1E4EF0EF11CC7010E94CE30B801C4
:10458000C7010E940C31F80174907720C1F07801C6
:104590004801FFEF8F1A9F0AA501BE016F5F7F4F91
:1045A000C6010E941E208823C9F02981271109C055
:1045B0008FEFE81AF80AF70174907110EDCF81E0DF
:1045C0000DC0F8018491332727FD309590E028171E
:1045D000390711F47401EFCF7801EDCF0F90DF911F
:1045E000CF911F910F91FF90EF90DF90CF90BF90F0
:1045F000AF909F908F907F9008952F923F924F920F
:104600005F926F927F928F929F92AF92BF92CF9262
:10461000DF92EF92FF920F931F93CF93DF9300D01F
:104620001F92CDB7DEB76C01562E672E742E59013E
:104630002DB73EB73B832A83242F30E0C901880F72
:10464000991F820F931FEDB7FEB7E81BF90B0FB64A
:10465000F894FEBF0FBEEDBF2DB73EB72F5F3F4FA3
:104660001901062F172F4901412C760131E4E30E81
:10467000F11C471409F449C0F4011082F80180814B
:104680009181F40192838183F60184858823A9F0C6
:104690006FE47FE0C7010E94CE304AE050E0642D15
:1046A000C7010E94243260E2C7010E940131F80173
:1046B00060817181C7010E940C314394F3E08F0E39
:1046C000911C0E5F1F4FD5CF1196ED91FC91129763
:1046D0006491961781F1F90100811181F8016491CB
:1046E00070E04617570731F112961C930E931197FD
:1046F0001196ED91FC911297E49113962E5F3F4F26
:10470000EE23F9F08F5F8711DFCFA501BE016F5F48
:104710007F4FC6010E941E20811102C08FEF11C081
:104720009981492F552747FD5095252D362DD101CB
:1047300080E0E9CFF80131961296FC93EE93119741
:10474000D7CF2A813B810FB6F8943EBF0FBE2DBF55
:104750000F900F900F90DF91CF911F910F91FF90CD
:10476000EF90DF90CF90BF90AF909F908F907F9011
:104770006F905F904F903F902F900895CF93DF936D
:10478000EC018D858823C9F064E27FE0CE010E94B0
:10479000CE3044EF51E06DE17FE0CE010E949F22D8
:1047A000882311F01D8609C06CE07FE0CE018F5B8D
:1047B0009F4F0E940C3180E001C081E0DF91CF91DA
:1047C00008955F926F927F928F929F92AF92BF9265
:1047D000CF92DF92EF92FF920F931F93CF93DF93CD
:1047E0001F92CDB7DEB76C017B01390100E010E00C
:1047F0004A0182E0881A91085A0181E0A81AB1089A
:10480000A301BE016F5F7F4FC6010E941E20882357
:1048100009F440C059808DE058122DC0A301BE019B
:104820006F5F7F4FC6010E941E2089818A3041F44C
:10483000E114F104B9F1F701E00FF11F108232C069
:10484000E114F104C1F00815190564F4F80131967A
:10485000D701A00FB11F5C920E5F1F4FEE0DFF1D21
:10486000808309C00A151B0534F4F701E00FF11F1E
:1048700050820F5F1F4F0A151B0514F6E114F10457
:1048800009F4BECFF701E00FF11F898180830F5F2C
:104890001F4FB6CFE114F10439F0F701E00FF11F1B
:1048A000108203C0C80102C080E090E00F90DF9149
:1048B000CF911F910F91FF90EF90DF90CF90BF901D
:1048C000AF909F908F907F906F905F900895CF9260
:1048D000DF92EF92FF920F931F93CF93DF931F927C
:1048E000CDB7DEB78C0144EF51E0BE016F5F7F4F63
:1048F000C8010E941E208823A9F089818C3399F772
:104900008093850456E8E52E54E0F52EDD24D394FB
:1049100044EF51E0BE016F5F7F4FC8010E941E202F
:10492000811102C080E035C0CC24C394CD0C8981B4
:10493000F70181937F018E3339F544EF51E0BE01D9
:104940006F5F7F4FC8010E941E20882359F3898121
:10495000803241F7AC2DB0E0AB57BB4F8C93D39472
:10496000D394ED2DF0E0EB57FB4F108281E0809364
:10497000840424EF31E040E050E060E070E0C801E2
:104980000E94E12381E005C0FCE0CF1659F2DC2C47
:10499000BFCF0F90DF91CF911F910F91FF90EF90BC
:1049A000DF90CF9008951F93CF93DF93EC01AB017D
:1049B0008091840481110EC0CE010E946724182FBB
:1049C000811110C06EE37FE0CE018F5B9F4F0E948C
:1049D0000C3108C065E874E0CE01DF91CF911F91E2
:1049E0000C945622812FDF91CF911F910895FF9251
:1049F0000F931F93CF93DF93EC018D8581116EC0D0
:104A00006AEF70E080E090E00E94F72C6AE37FE0BC
:104A1000CE010E94CE306AEF70E080E090E00E940C
:104A2000F72C44EF51E064E37FE0CE010E949F2227
:104A3000811115C0FE01FF9680819181DC01ED910D
:104A4000FC910190F081E02D6DE0099564EF71E03B
:104A5000CE010E94D32481113AC015E01EC080917E
:104A60008404811134C065E0F62E8E01015C1F4F75
:104A7000F80180819181DC01ED91FC910190F08140
:104A8000E02D6DE0099564EF71E0CE010E94D32422
:104A900081111DC0FA9461F7CDCF6AEF70E080E01C
:104AA00090E00E94F72C60E37FE0CE010E94CE30C0
:104AB0006AEF70E080E090E00E94F72C44EF51E054
:104AC0006AE27FE0CE010E949F22882319F081E0F4
:104AD0008D8705C0115009F780E001C081E0DF91AA
:104AE000CF911F910F91FF900895CF93DF93EC0129
:104AF0008D85882339F08E859F8501969F878E87C7
:104B000081E005C0CE010E94F7248111F4CFDF912E
:104B1000CF910895FC0126853785215031093787CB
:104B20002687232B11F40C94BE2381E00895CF92A5
:104B3000DF92EF92FF920F931F93CF93DF93EC01DD
:104B40008B016A0179010E947525882351F1000FBC
:104B5000111F000F111F065F1C4FF801608171814A
:104B6000CE010E94CE30F8016281738144EF51E0A2
:104B7000CE010E949F22882389F024EF31E0A70113
:104B8000B601CE010E94E12364EF71E0CE010E94E4
:104B9000D324CE010E948A25C60105C0CE010E9401
:104BA0008A2589ED92E0DF91CF911F910F91FF90BF
:104BB000EF90DF90CF900895EF92FF920F931F93A5
:104BC000CF93DF93CDB7DEB760970FB6F894DEBF13
:104BD0000FBECDBF8C010E94752581110AC064EF04
:104BE0007EE0C8018F5B9F4F0E940C3180E090E017
:104BF0006FC06CEE7EE0C8010E94CE3024EF31E041
:104C000040E150E0BE016F5F7F4FC8010E94E12389
:104C10007C01BE016F5F7F4FC8010E944B22882339
:104C200061F024EF31E040E150E0BE016F5F7F4F63
:104C3000C8010E94E1237C0105C064EF71E0C80156
:104C40000E94D32425E0E216F1041CF4CE01019663
:104C500008C0C7010497E1E0F0E0EC0FFD1F8E0FE4
:104C60009F1F0E943C1FF62EE72E862F8F70F801A3
:104C700081AFF4FA882780F982AFF5FA882780F9A6
:104C800083AFF6FA882780F984AFF7FA882780F98E
:104C900085AF8E2D86958F7086AFC8010E948A25BC
:104CA000F80191AD8485913031F497AB882371F090
:104CB00066ED7EE006C0F80117AA882339F06DEB97
:104CC0007EE0C8018F5B9F4F0E940C318F2D9E2D7F
:104CD00060960FB6F894DEBF0FBECDBFDF91CF91C7
:104CE0001F910F91FF90EF900895CF93DF93D62FF0
:104CF000C72F9A01462F572F60E070E00E9497253A
:104D0000892B49F0ED2FFC2FDF018191882329F0B9
:104D10008A33D1F702C0AD2FBC2F1C928D2F9C2F50
:104D2000DF91CF910895CF93DF93CDB7DEB766972C
:104D30000FB6F894DEBF0FBECDBF26E130E0AE0166
:104D40004F5F5F4F60E070E00E949725892BC1F0B4
:104D500080E0E1E0F0E0EC0FFD1FE80FF11D908135
:104D6000992319F08F5F9A33A1F721E030E02C0FDF
:104D70003D1F280F311DC9010E949B1FCB0102C09E
:104D800080E090E066960FB6F894DEBF0FBECDBF10
:104D9000DF91CF9108959A01AB0163E070E00C942C
:104DA00097259A01AB0164E070E00C9497251F935E
:104DB000CF93DF93CDB7DEB72B970FB6F894DEBF56
:104DC0000FBECDBF142F2BE030E0AE014F5F5F4F21
:104DD0000E949725892B51F0CE0101961A3019F4C3
:104DE0000E949B1F06C00E943C1F03C060E070E051
:104DF000CB012B960FB6F894DEBF0FBECDBFDF916F
:104E0000CF911F910895AF92BF92CF92DF92EF9210
:104E1000FF920F931F93CF93DF931F92CDB7DEB70F
:104E20008C017B016A0159010E9475258823B9F123
:104E30006BE97EE0C8010E94CE30B701C8010E9434
:104E4000FF3061EE72E0C8010E94FF3048E853E194
:104E5000B701C8010E9456228823C9F044EF51E0EF
:104E6000BE016F5F7F4FC8010E941E2024EF31E01A
:104E7000A501B601C8010E94E12364EF71E0C801F9
:104E80000E94D324C8010E948A2581E009C064EFF2
:104E900071E0C8010E94D324C8010E948A2580E0E5
:104EA0000F90DF91CF911F910F91FF90EF90DF90C6
:104EB000CF90BF90AF900895CF93DF93CDB7DEB77B
:104EC00060970FB6F894DEBF0FBECDBF20E130E093
:104ED000AE014F5F5F4F6CE070E00E949725892B19
:104EE000E1F143E050E067E97EE0CE0101960E94E7
:104EF0000037892B51F142E050E064E97EE0CE01B9
:104F000001960E940037892B11F146E050E06DE8D0
:104F10007EE0CE0101960E940037892BD1F045E05A
:104F200050E067E87EE0CE0101960E940037892BB1
:104F300091F046E050E060E87EE0CE0101960E94EC
:104F40000037892B51F484E009C080E007C081E07C
:104F500005C082E003C083E001C08FEF60960FB60A
:104F6000F894DEBF0FBECDBFDF91CF910895CF92F1
:104F7000DF92EF92FF920F931F93CF93DF9300D0B6
:104F800000D0CDB7DEB77C018B016A018AE79EE0D5
:104F90009A83898384E79EE09C838B8324EF31E0AE
:104FA00042E0BE016F5F7F4FC7010E94FD2281304A
:104FB000F1F0811114C024EF31E0A601B801C7015E
:104FC0000E94E12381E4E80EF11C6EE67EE0C70159
:104FD0000E94CE30B801C7010E94303106C0A60140
:104FE00064E67EE0C8010E940E3780E001C081E0E7
:104FF0000F900F900F900F90DF91CF911F910F9115
:10500000FF90EF90DF90CF900895AF92BF92CF9234
:10501000DF92EF92FF920F93CF93DF93CDB7DEB77E
:1050200062970FB6F894DEBF0FBECDBF7C015A0168
:105030006901698B7A8B0E94752569897A89882331
:1050400009F463C0C7010E94CE30C114D10419F124
:1050500060E2C7010E9417200023C1F057018FE4CE
:10506000A80EB11CF60164916623C1F1D701ED9140
:10507000FC910190F081E02D603211F4D5016C912A
:10508000C7010995BFEFCB1ADB0AECCFB601C70108
:105090000E94CE3023C0A114B10401F160E2C70127
:1050A0000E9417200023B1F06701FFE4CF0ED11C4E
:1050B000F50161915F01662389F0D701ED91FC91C3
:1050C0000190F081E02D603211F4D6016C91C7019E
:1050D0000995EECFB501C7010E94FF306DE0C70111
:1050E0000E94172040E150E0BE016F5F7F4FC70173
:1050F0000E94B727082F64EF71E0C7010E94D324F4
:10510000C7010E948A25802F01C080E062960FB6F9
:10511000F894DEBF0FBECDBFDF91CF910F91FF900E
:10512000EF90DF90CF90BF90AF900895CF92DF9235
:10513000EF92FF920F931F93CF93DF93CDB7DEB71C
:105140002B970FB6F894DEBF0FBECDBF7C016B016D
:10515000CA01B901402F0BE010E09E012F5F3F4FC5
:105160000E948B1E00E020E030E0AE014F5F5F4FF9
:10517000B601C7010E9405282B960FB6F894DEBF32
:105180000FBECDBFDF91CF911F910F91FF90EF9098
:10519000DF90CF9008951F93CF93DF93EC010E948F
:1051A00075258823D9F06EE57EE0CE010E94CE30D1
:1051B00044EF51E066E57EE0CE010E949F22882305
:1051C00039F064EF71E0CE010E94D32411E001C0F8
:1051D00010E0CE010E948A25812F01C080E0DF917E
:1051E000CF911F9108950F939B0140E050E00AE09A
:1051F00062ED7DE00E9496280F9108950F93262F6F
:1052000030E040E050E000E162E37DE00E9496285B
:105210000F9108950C94FE280F93262F30E040E064
:1052200050E000E165E27DE00E9496280F9108952C
:105230000F9300E020E030E040E050E061E77CE0E8
:105240000E9405280F9108950F93AB0101E020E023
:1052500030E063E67CE00E9405280F9108950F93EB
:105260001F93CF93DF93EC01AB01FB0181818F7D15
:10527000883511F44E5F5F4F00E020E030E068E4D5
:105280007CE0CE010E940528182FCE010E9418292B
:10529000812FDF91CF911F910F9108950F931F934D
:1052A000CF93DF93EC01AB0101E020E030E068E355
:1052B0007CE00E940528182FCE010E941829812F1A
:1052C000DF91CF911F910F91089540E16BE170E064
:1052D0000E94D726862F08950F93CF93DF93EC017A
:1052E0001CAA1BAA1B8A00E020E030E040E050E04E
:1052F00067E970E10E940528811107C06FE770E13E
:10530000CE018F5B9F4F0E940C3100E020E030E027
:1053100040E050E06CE670E1CE010E94052881116A
:1053200007C06FE470E1CE018F5B9F4F0E940C318C
:1053300000E020E030E040E050E06DE370E1CE01BD
:105340000E940528811107C063E270E1CE018F5BE6
:105350009F4F0E940C31CE010E94DC25CE010E949D
:105360005C278B7F91E009F490E0988BCE010E943E
:105370006529C15BDF4F8883DF91CF910F9108953D
:10538000CF93DF93EC010E947525882301F16EE431
:105390007EE0CE010E94CE3044EF51E065E47EE035
:1053A000CE010E949F22811104C0CE010E948A2555
:1053B0000EC068E873E180E090E00E94F72C1D8643
:1053C0001F861E86CE010E946C2981E001C080E00C
:1053D000DF91CF9108950F931F93CF93DF93EC014B
:1053E0008C010F5B1F4FF8015587448732977183FB
:1053F00060830E94F724811103C066E070E10AC057
:10540000CE010E946C29CE010E94BE23811107C0EB
:105410006AEE7FE0C8010E940C3180E001C081E0AB
:10542000DF91CF911F910F910895CF92DF92EF926C
:10543000FF920F931F93CF93DF9300D000D0CDB78F
:10544000DEB78C017B016A0186EE9BE09A8389833B
:105450008AED9BE09C838B83C8010E94752588237D
:1054600009F444C064ED7BE0C8010E94CE30E11431
:10547000F10421F0B701C8010E94FF3062ED7BE02A
:10548000C8010E94CE30960142E0BE016F5F7F4F9F
:10549000C8010E94FD22F82E64E670E0C8010E9457
:1054A000C82081E0F8121FC0F801F2AE808988237D
:1054B00061F048E95AE36EEC7BE0C8010E949F224C
:1054C00064E670E0C8010E94C82024EF31E040E0AB
:1054D00050E060E070E0C8010E94E123C8010E9432
:1054E0008A2581E004C0C8010E948A2580E00F90CF
:1054F0000F900F900F90DF91CF911F910F91FF9020
:10550000EF90DF90CF9008950F931F93CF93DF9389
:10551000CDB7DEB7C054D1090FB6F894DEBF0FBEC9
:10552000CDBF8C0140E450E0BE016F5F7F4F0E9411
:10553000D12640E25EE4BE016F5F7F4FC8010E944A
:10554000152AC05CDF4F0FB6F894DEBF0FBECDBF8B
:10555000DF91CF911F910F910895CF93DF93EC01CD
:1055600067EC7BE00E94CE3064E670E0CE010E94E2
:10557000C8201AAE81E0DF91CF910895EF92FF929B
:105580000F931F93CF93DF93CDB7DEB760970FB61E
:10559000F894DEBF0FBECDBF7C01CB01BA0100E1A4
:1055A00010E09E012F5F3F4F4AE00E948B1EC70113
:1055B0000E94752500E020E030E0AE014F5F5F4FB4
:1055C0006FEB7BE0C7010E94052860960FB6F89448
:1055D000DEBF0FBECDBFDF91CF911F910F91FF9026
:1055E000EF900895CF93DF93EC01E881F981048077
:1055F000F581E02D09958FA9DF91CF9108950F9343
:105600001F93CF93DF93EC018FA9882391F164EF6F
:1056100071E0CE010E94C820CE010E9475256CE881
:105620007AE0CE010E94CE3044EF51E065E87AE0A6
:10563000CE010E949F228E010F5B1F4F882351F0E5
:10564000CE010E948A2563E77AE0C8010E940C31EE
:105650001FAA0FC06AE57AE0C8010E940C31CE0192
:105660000E94DC25CE010E948A258FA991E089271E
:1056700001C081E0DF91CF911F910F910895BF92FA
:10568000CF92DF92EF92FF920F931F93CF93DF930E
:10569000CDB7DEB765970FB6F894DEBF0FBECDBFAE
:1056A0007C016B018A01B22EFC0180AD8111BFC06B
:1056B000C7010E947525F70187A9882319F0C70142
:1056C0000E94FF2AB80180E090E004E110E09E0112
:1056D0002F5F3F4F4AE00E948B1E87010F5B1F4FD9
:1056E00069E87BE0C8010E94CE30B601C8010E9483
:1056F000FF3060E2C8010E940131BE016F5F7F4F41
:10570000C8010E94303163E87BE0C7010E94CE30BF
:10571000B601C7010E94FF3068EE72E0C7010E9427
:10572000FF30BE016F5F7F4FC7010E94FF3061E80D
:105730007BE0C7010E94CE3064EF71E0C7010E9498
:10574000D32481110BC06CE67BE0C8010E940C31B0
:1057500067E47BE0C8010E940C31FFCFB11008C0A4
:1057600081E0F70180AF64C0F7018485811135C005
:1057700040E157E2BE016B5E7F4FC7010E941E20D1
:10578000882309F44CC08D898A32C9F0833461F7CB
:10579000898324EF31E043E150E0BE016E5F7F4F2B
:1057A000C7010E94E1236DE27BE0C8010E94CE3078
:1057B000BE016F5F7F4FC8010E94303135C044EF9A
:1057C00051E061E47BE0C7010E949F22882361F1E0
:1057D00081E0F70187AB15862BC06BE17BE0C80148
:1057E0000E94CE306D89772767FD709540E150E0CB
:1057F000C8010E94F7318D89992787FD90950E94F5
:10580000E236892B41F060E2C8010E9401316D89C6
:10581000C8010E940131C8010E940831A9CF61E18D
:105820007BE0C8010E940C31C7010E948A2580E0FC
:1058300065960FB6F894DEBF0FBECDBFDF91CF9156
:105840001F910F91FF90EF90DF90CF90BF90089540
:10585000FC011382128248EE53E060E070E0448362
:105860005583668377838EEF92E0918380831586DC
:1058700014860895CF93DF93EC011B821A8248EEC1
:1058800053E060E070E04C835D836E837F838EEE37
:1058900092E099838883CE018F5B9F4F0E94282CD2
:1058A0001D861F861E861FAA18AE81E0888B898BF5
:1058B0001C86FE01E05BFF4F11821082329611823E
:1058C0001082CC5ADF4F19821882DF91CF91089550
:1058D0000F9300E020E040E060E080EA94E00E9466
:1058E00075300F9108950F9300E020E040E060E0F4
:1058F00086EA94E00E9475300F9108951F920F92EE
:105900000FB60F9211242F933F938F939F93AF93D2
:10591000BF938091AD049091AE04A091AF04B0917B
:10592000B0043091AC0423E0230F2D3720F401960E
:10593000A11DB11D05C026E8230F0296A11DB11DB2
:105940002093AC048093AD049093AE04A093AF0475
:10595000B093B0048091B1049091B204A091B304CB
:10596000B091B4040196A11DB11D8093B104909330
:10597000B204A093B304B093B404BF91AF919F91CC
:105980008F913F912F910F900FBE0F901F90189500
:105990002FB7F8946091AD047091AE048091AF047C
:1059A0009091B0042FBF08953FB7F8948091B1044F
:1059B0009091B204A091B304B091B40426B5A89B11
:1059C00005C02F3F19F00196A11DB11D3FBF6627ED
:1059D000782F892F9A2F620F711D811D911D42E032
:1059E000660F771F881F991F4A95D1F70895CF92A8
:1059F000DF92EF92FF92CF93DF936B017C010E94C5
:105A0000D42CEB01C114D104E104F10489F00E940B
:105A10003E340E94D42C6C1B7D0B683E734090F387
:105A200081E0C81AD108E108F108C851DC4FEACF7B
:105A3000DF91CF91FF90EF90DF90CF900895789411
:105A400084B5826084BD84B5816084BD85B5826083
:105A500085BD85B5816085BDEEE6F0E08081816021
:105A60008083E1E8F0E01082808182608083808121
:105A700081608083E0E8F0E0808181608083E1EBF9
:105A8000F0E0808184608083E0EBF0E080818160E1
:105A90008083EAE7F0E08081846080838081826097
:105AA0008083808181608083808180688083109280
:105AB000C1000895833081F028F4813099F082305C
:105AC000A1F008958730A9F08830B9F08430D1F47E
:105AD000809180008F7D03C0809180008F778093BC
