:100000000C94FC090C94240A0C94240A0C94B9193D
:100010000C94B9190C94B9190C94240A0C94240A60
:100020000C94240A0C94240A0C94240A0C94240A98
:100030000C94240A0C94240A0C94240A0C94240A88
:100040000C942B280C94240A0C94E42A0C94162B60
:100050000C94240A0C94240A0C94240A0C94240A68
:100060000C94240A0C94240A0001020304050607D8
:1000700014200D11930A0E0F100B121308151617EA
:1000800018191A1B1C1D1E1F202122232425262778
:1000900028292A2B2C2D2E2F303132333435363768
:1000A00038393A3B3C3D3E3F40C1C2C3C4C5C6C7D8
:1000B000C8C9CACBCCCDCECFD0D1D2D3D4D5D6D748
:1000C000D8D9DA5B5C5D5E5FC04142434445464738
:1000D00048494A4B4C4D4E4F505152535455565728
:1000E00058595ADBDCDDDEDF808182838485868798
:1000F00088898A8B8C8D8E8F9091920C949596978F
:1001000098999A9B9C9D9E9FA0A1A2A3A4A5A6A7F7
:10011000A8A9AAABACADAEAFB0B1B2B3B4B5B6B7E7
:10012000B8B9BABBBCBDBEBF6061626364656667D7
:1001300068696A6B6C6D6E6F7071727374757677C7
:1001400078797A7B7C7D7E7FE0E1E2E3E4E5E6E7B7
:10015000E8E9EAEBECEDEEEFF0F1F2F3F4F5F6F7A7
:10016000F8F9FAFBFCFDFEFF000102030405060797
:1001700014090D11930A0E0F100B12130815161700
:1001800018191A1B1C1D1E1F202122232425262777
:1001900028292A2B2C2D2E2F303132333435363767
:1001A00038393A3B3C3D3E3F406162636465666777
:1001B00068696A6B6C6D6E6F707172737475767747
:1001C00078797A5B5C5D5E5FC0C1C2C3C4C5C6C7D7
:1001D000C8C9CACBCCCDCECFD0D1D2D3D4D5D6D727
:1001E000D8D9DADBDCDDDEDF808182838485868717
:1001F00088898A8B8C8D8E8F9091920C949596978E
:1002000098999A9B9C9D9E9FA0A1A2A3A4A5A6A7F6
:10021000A8A9AAABACADAEAFB0B1B2B3B4B5B6B7E6
:10022000B8B9BABBBCBDBEBF6041424344454647B6
:1002300048494A4B4C4D4E4F5051525354555657C6
:1002400058595A7B7C7D7E7FA0A1A2A3A4A5A6A716
:10025000A8A9AAABACADAEAFB0B1B2B3B4B5B6B7A6
:10026000B8B9BABBBCBDBEBF4F4B00456E7465721A
:10027000696E6720486179657320456D756C61749E
:10028000696F6E204D6F64650050726573732061F5
:100290006E79206B657920746F2063616E63656C85
:1002A0002E2E2E00544F444F3A204E6F7420496D2D
:1002B000706C656D656E746564210052656164796A
:1002C00020746F20436F6E6E65637420746F2051CD
:1002D00075616E74756D4C696E6B2052656C6F61E3
:1002E00064656400436F6E6E656374696E67207445
:1002F0006F20436F6D6D6F646F72655365727665C5
:100300007200456E746572696E6720486179657325
:1003100020456D756C6174696F6E204D6F6465006A
:10032000536176656400556E6B6E6F776E206F70EB
:1003300074696F6E2C2074727920616761696E0038
:1003400053656C6563743A2000342E2052657475D1
:10035000726E20746F204D61696E204D656E750060
:10036000332E205175616E74756D4C696E6B205221
:10037000656C6F6164656400322E20436F6D6D6F34
:10038000646F726553657276657200312E20486124
:1003900079657320456D756C6174696F6E204D6F62
:1003A000646500302E20436C656172204175746F66
:1003B0007374617274204F7074696F6E73002900DA
:1003C0004175746F7374617274204D656E75202869
:1003D00043757272656E743A20002A2A2A20546589
:1003E000726D696E616C204D6F6465202844656292
:1003F000756729202A2A2A00436F6E6E6563746927
:100400006F6E20636C6F736564002A2A2A2054651E
:10041000726D696E616C204D6F6465202A2A2A0016
:10042000436F6E6E656374204661696C656421007C
:10043000293A20000A506F7274202800293A2000BF
:100440000A54656C6E657420686F737420280049C7
:100450006E636F6D696E6720436F6E6E656374695E
:100460006F6E0057616974696E6720666F722063F2
:100470006F6E6E656374696F6E206F6E20706F7241
:10048000742000293A2000496E636F6D696E672001
:10049000706F72742028004669726D776172653AD8
:1004A000202020200057692D466920535349443AA3
:1004B000202000495020416464726573733A202003
:1004C000004D414320416464726573733A200020FB
:1004D0002844656C20746F20737769746368290001
:1004E0004572726F722053657474696E672053533E
:1004F00049440053534944205375636365737366DD
:10050000756C6C79206368616E676564005353494C
:10051000443A00506173737068726173653A004BBE
:1005200065793A00556E6B6E6F776E206F707469E7
:100530006F6E2C2074727920616761696E0053655B
:100540006C6563743A2000332E2052657475726EA8
:1005500020746F20436F6E66696775726174696F8E
:100560006E204D656E7500322E20575041202F2091
:100570005750413200312E20574550004368616E7C
:100580006765205353494400556E6B6E6F776E203C
:100590006F7074696F6E2C20747279206167616965
:1005A0006E0053656C6563743A2000352E205265E9
:1005B0007475726E20746F204D61696E204D656E8A
:1005C0007500342E20446972656374205465726D21
:1005D000696E616C204D6F646520284465627567A3
:1005E0002900332E204175746F7374617274204F2B
:1005F0007074696F6E7300322E204368616E676598
:10060000205353494400312E20446973706C617942
:100610002043757272656E7420436F6E66696775EC
:10062000726174696F6E00436F6E6669677572619F
:1006300074696F6E204D656E7500556E6B6E6F77C9
:100640006E206F7074696F6E2C20747279206167F0
:1006500061696E0053656C6563743A2000342E2026
:10066000436F6E66696775726174696F6E00332ED1
:1006700020486179657320456D756C6174696F6E92
:10068000204D6F646500322E205761697420666FBB
:100690007220696E636F6D696E6720636F6E6E6541
:1006A0006374696F6E00312E2054656C6E65742022
:1006B000746F20686F7374206F722042425300522F
:1006C000454144592E00436F6D6D6F646F72652014
:1006D00057692D4669204D6F64656D0057692D4639
:1006E00069204661696C6564210057692D4669205F
:1006F0004F4B210057692D466920496E69742E2E93
:100700002E00050800FF0C4B00000000003E5B4F70
:100710005B3E3E6B4F6B3E1C3E7C3E1C183C7E3C61
:10072000181C577D571C1C5E7F5E1C00183C18006F
:10073000FFE7C3E7FF0018241800FFE7DBE7FF30FF
:10074000483A060E2629792926407F050507407F6D
:1007500005253F5A3CE73C5A7F3E1C1C08081C1CE0
:100760003E7F14227F22145F5F005F5F06097F01D6
:100770007F006689956A606060606094A2FFA294C1
:1007800008047E040810207E201008082A1C08088F
:100790001C2A08081E101010100C1E0C1E0C3038DD
:1007A0003E3830060E3E0E06000000000000005FDE
:1007B00000000007000700147F147F14242A7F2AFA
:1007C00012231308646236495620500008070300BC
:1007D000001C2241000041221C002A1C7F1C2A0808
:1007E000083E08080080703000080808080800006B
:1007F00060600020100804023E5149453E00427FDF
:10080000400072494949462141494D331814127F2D
:100810001027454545393C4A4949314121110907CD
:100820003649494936464949291E0000140000004E
:100830004034000000081422411414141414004120
:1008400022140802015909063E415D594E7C1211DD
:10085000127C7F494949363E414141227F41414115
:100860003E7F494949417F090909013E4141517390
:100870007F0808087F00417F41002040413F017F01
:10088000081422417F404040407F021C027F7F04C9
:1008900008107F3E4141413E7F090909063E415112
:1008A000215E7F09192946264949493203017F0102
:1008B000033F4040403F1F2040201F3F4038403F03
:1008C000631408146303047804036159494D430019
:1008D0007F4141410204081020004141417F040250
:1008E00001020440404040400003070800205454E7
:1008F00078407F28444438384444442838444428C5
:100900007F385454541800087E090218A4A49C7817
:100910007F0804047800447D40002040403D007F73
:100920001028440000417F40007C047804787C0853
:100930000404783844444438FC1824241818242427
:1009400018FC7C08040408485454542404043F440C
:10095000243C4040207C1C2040201C3C4030403C3B
:1009600044281028444C9090907C4464544C44009B
:1009700008364100000077000000413608000201FF
:100980000204023C2623263C1EA1A161123A4040EB
:10099000207A385454555921555579412154547869
:1009A00041215554784020545579400C1E52721202
:1009B000395555555939545454593955545458008A
:1009C00000457C410002457D420001457C40F02904
:1009D0002429F0F0282528F07C5455450020545453
:1009E0007C547C0A097F4932494949323248484897
:1009F00032324A4848303A4141217A3A42402078DE
:100A0000009DA0A07D39444444393D4040403D3CD8
:100A100024FF2424487E4943662B2FFC2F2BFF09FB
:100A200029F620C0887E09032054547941000044EF
:100A30007D413048484A32384040227A007A0A0ADA
:100A4000727D0D19317D2629292F2826292929264D
:100A500030484D4020380808080808080808382F92
:100A600010C8ACBA2F102834FA00007B000008141C
:100A70002A142222142A1408AA005500AAAA55AA48
:100A800055AA000000FF00101010FF00141414FFFE
:100A9000001010FF00FF1010F010F0141414FC00F0
:100AA0001414F700FF0000FF00FF1414F404FC14FA
:100AB0001417101F10101F101F1414141F001010F3
:100AC00010F0000000001F101010101F1010101068
:100AD000F010000000FF101010101010101010FF88
:100AE00010000000FF140000FF00FF00001F10179F
:100AF0000000FC04F414141710171414F404F40088
:100B000000FF00F714141414141414F700F714144D
:100B100014171410101F101F141414F4141010F0D4
:100B200010F000001F101F0000001F14000000FC48
:100B3000140000F010F01010FF10FF141414FF1434
:100B40001010101F00000000F010FFFFFFFFFFF06B
:100B5000F0F0F0F0FFFFFF0000000000FFFF0F0FBC
:100B60000F0F0F38444438447C2A2A3E147E020278
:100B70000606027E027E0263554941633844443CC6
:100B800004407E201E2006027E020299A5E7A59958
:100B90001C2A492A1C4C7201724C304A4D4D30308F
:100BA00048784830BC625A463D3E494949007E017A
:100BB00001017E2A2A2A2A2A44445F444440514A99
:100BC000444040444A51400000FF0103E080FF00E0
:100BD0000008086B6B083612362436060F090F061C
:100BE000000018180000001010003040FF01010044
:100BF0001F01011E00191D1712003C3C3C3C000067
:100C0000000000636C6F73653A206661696C65640F
:100C10002C206E6F202A434C4F532A00636C6F7355
:100C2000653A20676F74202A434C4F532A002A43A9
:100C30004C4F532A00636C6F73650D005465726DE1
:100C4000696E616C20726561647900556E657870BB
:100C5000656374656420726573703A20004661694B
:100C60006C656420746F20636F6E6E6563743A20E8
:100C7000004F50454E2A00656E61626C65486F7387
:100C800074526573746F72653A2073746F72656421
:100C90002000302E302E302E300073656E64746F5D
:100CA0003A206661696C656420746F2073746172A8
:100CB0007420636F6D6D616E64003C74696D656F67
:100CC00075743E00556E6578706563746564206365
:100CD0006861723A20004661696C656420746F2017
:100CE000636F6E6E6563743A20004F50454E2A0064
:100CF0005769466C79206861732063726173686517
:100D00006420616E642077696C6C207265626F6F1D
:100D1000742E2E2E004661696C656420746F206706
:100D200065742070726F6D7074000D006F70656E69
:100D300020006F70656E20003235352E3235352E2D
:100D4000302E30003136392E3235342E312E3100EE
:100D500036342062797465730050696E672074724E
:100D6000790070696E6720007365742075206900D2
:100D70006C656176650D0047573D000D006A6F692F
:100D80006E20004173736F6369617465642100466E
:100D900041494C454400736574206164686F632069
:100DA00070726F626500736574206164686F6320A0
:100DB000626561636F6E0073657420776C616E208D
:100DC00074780073657420776C616E20726174654D
:100DD00000736574206F7074207265706C61636558
:100DE0000073657420776C616E2070687261736542
:100DF0000073657420776C616E206B657900736594
:100E00007420776C616E206368616E007365742076
:100E1000776C616E20737369640073657420776CFE
:100E2000616E206869646520310073657420737990
:100E30007320696F66756E630073657420636F6DF0
:100E40006D2073697A650073657420636F6D6D2022
:100E50006D617463680073657420636F6D6D2074D9
:100E6000696D6500302E302E302E30007365742091
:100E700062726F61646361737420696E7465727607
:100E8000616C007365742075617274206D6F6465A8
:100E9000007365742074696D6520656E61626C65B0
:100EA000007365742074696D65207A6F6E650073D8
:100EB00065742074696D6520706F72740073657459
:100EC0002074696D65206164647265737300736575
:100ED0007420697020666C616773007365742069A3
:100EE000702070726F746F636F6C0073657420692B
:100EF0007020646863700073657420646E73206191
:100F0000646472657373007365742069702067612F
:100F1000746577617900736574206970206E6574FB
:100F20006D61736B00736574206970206E65746DFC
:100F300061736B00536574486F73743A206661691E
:100F40006C656420746F20737461727420636F6DBC
:100F50006D616E64007365742069702072656D6FD9
:100F600074650073657420697020686F7374007312
:100F7000657420697020686F7374007365742069EC
:100F800070206C6F63616C706F7274007365742095
:100F9000697020616464726573730073657420699D
:100FA0007020616464726573730073657420776C7C
:100FB000616E206A6F696E00736574206F20640033
:100FC000736574206F2064005365742046616374F8
:100FD0006F72792044656661756C74730066616335
:100FE000746F727920524553544F52450D002A5266
:100FF00065626F6F742A007265626F6F740D0053C3
:10100000746F72696E6700736176650D003C746978
:101010006D656F75743E004552523A2000414F4B4A
:101020000D0A004552523A2000534552564552008F
:101030004341434845004155544F4950004F4E00ED
:101040004F4646006C6F6F6B7570200074696D655C
:101050000D00736C6565700D007365742073797392
:101060002077616B6500676574436F6E3A20544367
:101070005020646973636F6E6E65637465640067A6
:101080006574436F6E3A2054435020636F6E6E65F3
:10109000637465640073686F7720630D006765741F
:1010A000436F6E3A206661696C656420746F2073CB
:1010B00074617274004661696C656420746F2065A8
:1010C0007869740A0D00455849540D0A006578691D
:1010D000740D00434D440D0A0024242400434D4464
:1010E0000D0A002424240073657450726F6D7074AF
:1010F000206661696C6564006D756C74694D61741E
:1011000063685F503A20006D617463685F503A20F5
:10111000007265616454696D656F7574202D20746B
:10112000696D6564206F7574003A20003A20006490
:10113000656275672064756D7000617661696C61C8
:10114000626C653A207065656B203D20002A4F5027
:10115000454E2A002A434C4F532A004552524F52C3
:10116000207065656B2E3220627566666572206F31
:101170007665726C6F77004552524F5220706565EC
:101180006B2E3120627566666572206F7665726CB3
:101190006F77004661696C656420746F20657869BB
:1011A0007420636F6D6D616E64206D6F64650046C1
:1011B00061696C656420746F20656E74657220636C
:1011C0006F6D6D616E64206D6F6465004661696C62
:1011D000656420746F2073657420636F6D6D207279
:1011E000656D6F74650073657420636F6D6D20723B
:1011F000656D6F74652030004661696C65642074AC
:101200006F207475726E206F66662073797320701C
:1012100072696E74007365742073797320707269DB
:101220006E746C766C2030004661696C6564207465
:101230006F207475726E206F6666206563686F003C
:101240007365742075206D2031005265706C616388
:10125000653D005478506F7765723D00526174654A
:101260003D004A6F696E3D005265626F6F743D00CC
:1012700050726F62653D00426561636F6E3D00674D
:101280006574206164686F630D0050524F544F3D88
:1012900000464C4147533D307800525353493D2856
:1012A0002D0073686F7720727373690D00466C753B
:1012B000736853697A653D004D6174636843686182
:1012C000723D00466C75736854696D65723D0067C8
:1012D000657420636F6D6D0D004D6F64653D005248
:1012E00054433D0073686F77207420740D0041648F
:1012F00064726573733D0067657420646E730D00DE
:1013000054696D653D00557054696D653D007368A5
:101310006F772074696D650D005A6F6E653D0067CB
:1013200065742074696D650D004261756472617445
:10133000653D0067657420750D00446576696365D9
:1013400049643D00676574206F70740D0053534904
:10135000443D0067657420776C616E0D004D6163DC
:1013600020416464723D00676574206D61630D0007
:10137000444843503D00484F53543D0047573D00BB
:101380004E4D3D0049503D006765742069700D0069
:101390000000000800020100000304070000000034
:1013A000000000000102040810204080010204082F
:1013B000102001020408102004040404040404049E
:1013C00002020202020203030303030300000000FF
:1013D00023002600290000000000250028002B0023
:1013E00000000000240027002A00F30DBB184A1B50
:1013F0002028462BCF2B260E11241FBECFEFD8E07E
:10140000DEBFCDBF14E0A0E0B1E0E8EBFAE602C039
:1014100005900D92A030B107D9F725E0A0E0B4E027
:1014200001C01D92A23BB207E1F713E1C6EFD3E181
:1014300004C02297FE010E94B32FCA3ED107C9F70C
:101440000E94DF2B0C944F350C940000EF92FF921A
:101450000F931F93CF93DF938C017B0162E573E0C1
:101460000E940F2EE701E991EE2351F0FF27E7FDDF
:10147000F095E859FF4F6491C8010E94BC2EF3CF4C
:10148000C801DF91CF911F910F91FF90EF900895C8
:10149000EF92FF920F931F93CF93DF938C017B0109
:1014A00062E573E00E940F2EE701E991EE2351F00F
:1014B000FF27E7FDF095E859FE4F6491C8010E94AF
:1014C000BC2EF3CFC801DF91CF911F910F91FF90F8
:1014D000EF900895CF93DF93EC0160E085E894E00E
:1014E0000E94031840E060E085E894E00E94051641
:1014F000BE0185E894E00E948E2C85E894E0DF919F
:10150000CF910C941218CF93DF9300D000D000D06D
:10151000CDB7DEB720910204222399F0FC0160814F
:101520007181CE0101960E94260ABE016F5F7F4F36
:101530008FE594E00E94512CCE0101960E94A12DCE
:1015400005C0BC018FE594E00E94512C26960FB691
:10155000F894DEBF0FBECDBFDF91CF910895CF933A
:10156000DF9300D000D000D0CDB7DEB7BC01CE01F4
:1015700001960E945D2ECE0101960E94830ACE0143
:1015800001960E94A12D8FE594E00E94682C26967A
:101590000FB6F894DEBF0FBECDBFDF91CF91089597
:1015A0000F931F93CF93DF9300D000D000D0CDB71F
:1015B000DEB78C01BC01CE0101960E945D2ECE01EA
:1015C00001960E94AF0ACE0101960E94A12D4AE029
:1015D00060E2C8010E94CF2EB801CE0101960E94A0
:1015E0005D2ECE0101960E946A0ACE0101960E94EC
:1015F000A12D26960FB6F894DEBF0FBECDBFDF91AA
:10160000CF911F910F9108958FE594E00C94682C71
:10161000CF93DF93CDB7DEB767970FB6F894DEBFF1
:101620000FBECDBF80910204882369F087E1EAE80C
:10163000F2E0DE01119601900D928A95E1F7BE016C
:101640006F5F7F4F02C061EA72E08FE594E00E9415
:101650005F2C6FEC74E0CE0101960E94872ECE01C4
:1016600001960E94AF0ACE0101960E94A12D6796B5
:101670000FB6F894DEBF0FBECDBFDF91CF910895B6
:1016800080930204482F60E070E084E894E00C94BA
:10169000FD15BF92CF92DF92EF92FF920F931F93AF
:1016A000CF93DF93CDB7DEB7C457D1090FB6F89407
:1016B000DEBF0FBECDBFB82E44E150E0BE01655A7B
:1016C0007F4F89E094E00E94C5236E0187E4C80E35
:1016D000D11C44E150E0B60189E094E00E946F2300
:1016E0007E0193E3E90EF11C44E150E0B70189E08B
:1016F00094E00E94CB230E94040B61EC74E08E0105
:101700000F5F1F4FC8010E94872EC8010E94830AE5
:10171000C8010E94A12DBE01655A7F4FC8010E94D9
:101720000F2EC8010E94AF0AC8010E94A12D63EBD1
:1017300074E0C8010E94872EC8010E94830AC80174
:101740000E94A12DB601C8010E940F2EC8010E945F
:10175000AF0AC8010E94A12D65EA74E0C8010E9489
:10176000872EC8010E94830AC8010E94A12DB701DB
:10177000C8010E940F2EC8010E94AF0AC8010E9432
:10178000A12DBB2009F49FC067E974E0C8010E9445
:10179000872EC8010E94830AC8010E94A12D6CEA0D
:1017A00072E0C8010E940F2EC8010E94AF0AC80152
:1017B0000E94A12D8CEA92E09F938F9381EB92E09F
:1017C0009F938F931F930F930E946532B801CE01B0
:1017D00081599F4F0E940F2ECE0181599F4F0E9429
:1017E0006A0ACE0181599F4F0E94A12D68EE73E0D5
:1017F00080E090E00E94A42889E08F9380E68F9398
:101800008EEB92E09F938F931F930F930E9465320C
:10181000B801CE0181599F4F0E940F2ECE018159F0
:101820009F4F0E946A0ACE0181599F4F0E94A12DAD
:1018300068EE73E080E090E00E94A428DF92CF92EF
:101840008CEC92E09F938F931F930F930E946532CD
:10185000B801CE0181599F4F0E940F2ECE018159B0
:101860009F4F0E946A0ACE0181599F4F0E94A12D6D
:1018700068EE73E080E090E00E94A428FF92EF926F
:101880008BED92E09F938F931F930F930E9465328D
:10189000B801CE0181599F4F0E940F2ECE01815970
:1018A0009F4F0E946A0ACE0181599F4F0E94A12D2D
:1018B00068EE73E080E090E00E94A4280FB6F894F0
:1018C000DEBF0FBECDBFCC58DF4F0FB6F894DEBFE2
:1018D0000FBECDBFDF91CF911F910F91FF90EF9081
:1018E000DF90CF90BF900895CF93DF93EC01E88114
:1018F000F9810480F581E02DCE010995892BB9F39A
:10190000E881F9810680F781E02DCE01DF91CF914A
:1019100009948F929F92AF92BF92CF92DF92EF92F3
:10192000FF92CF93DF93EC014B010E9475286B016E
:101930007C01A12CB12CE881F9810480F581E02D96
:10194000CE010995892BC1F40E9475286C197D0977
:101950008E099F0986169706A806B90660F78FEFCD
:101960009FEFDF91CF91FF90EF90DF90CF90BF90EE
:10197000AF909F908F900895E881F9810084F18560
:10198000E02DCE01DF91CF91FF90EF90DF90CF90CF
:10199000BF90AF909F908F900994CF92DF92EF927B
:1019A000FF920F931F93CF93DF9300D000D000D00E
:1019B000CDB7DEB782E0E82EF12C93E0C92ED12C12
:1019C0000E94040B60EC73E0CE0101960E94872E0A
:1019D000CE0101960E94830ACE0101960E94A12D9C
:1019E00060910004709101044AE050E08FE594E0BA
:1019F0000E94672D6EEB73E0CE0101960E94872E48
:101A0000CE0101960E94AF0ACE0101960E94A12D3F
:101A10000E94040B63EA73E0CE0101960E94872EB8
:101A2000CE0101960E94AF0ACE0101960E94A12D1F
:101A30006BE873E0CE0101960E94872ECE010196DD
:101A40000E94AF0ACE0101960E94A12D68E773E0C3
:101A5000CE0101960E94872ECE0101960E94AF0A08
:101A6000CE0101960E94A12D60E673E0CE010196A1
:101A70000E94872ECE0101960E94AF0ACE010196E8
:101A80000E94A12D69E473E0CE0101960E94872E89
:101A9000CE0101960E94AF0ACE0101960E94A12DAF
:101AA0000E94040B60E473E0CE0101960E94872E31
:101AB000CE0101960E94830ACE0101960E94A12DBB
:101AC0008FE594E00E94740C8C01682F8FE594E000
:101AD0000E94B22C0032110509F472CF9CF40A3036
:101AE000110509F46DCF2CF408301105A9F580E03B
:101AF00030C00D30110509F463CF0431110561F5D3
:101B000081E027C002331105D1F06CF400331105D8
:101B100089F00133110501F581E090E09093010413
:101B2000809300041CC00333110571F004331105C8
:101B300069F112C0109201041092000410C0F092DA
:101B40000104E09200040BC0D0920104C092000492
:101B500006C00E94400B34CF66E273E00AC0409199
:101B6000000461E070E084E894E00E94FD1560E20A
:101B700073E0CE0101960E94872ECE0101960E944D
:101B8000AF0ACE0101960E94A12D1ACF26960FB65C
:101B9000F894DEBF0FBECDBFDF91CF911F910F91A3
:101BA000FF90EF90DF90CF900895CF93DF9300D018
:101BB00000D000D0CDB7DEB768E672E0CE01019666
:101BC0000E94872ECE0101960E94D00ACE01019676
:101BD0000E94A12D26960FB6F894DEBF0FBECDBF92
:101BE000DF91CF9108950F9300E020E040E060E0A6
:101BF0008EE794E00E94C32B20E046E065E08FE58D
:101C000094E00E948C1A89E094E00E94F22762E539
:101C100073E083E094E00E940F2E60E070E084E8BF
:101C200094E00E94FA1591E0811101C090E0909338
:101C3000020461E070E084E894E00E94FA1590E00C
:101C400090930104809300040F91089583E094E041
:101C50000E94A12D8FE594E00C94331AEF92FF922D
:101C60000F931F93CF93DF93CDB7DEB7E3970FB6F4
:101C7000F894DEBF0FBECDBF7C0100E010E08FE521
:101C800094E00E94740C282FE1E0F0E0EC0FFD1FBF
:101C9000E00FF11F8083682F8FE594E02BAB0E944B
:101CA000E7182BA9283031F40115110541F0025035
:101CB000110902C02D3041F00133110529F00F5FE9
:101CC0001F4F17FFDCCFD9CFE1E0F0E0EC0FFD1F95
:101CD000E00FF11F1082BE016F5F7F4FC7010E94AE
:101CE0000F2EC701E3960FB6F894DEBF0FBECDBF2F
:101CF000DF91CF911F910F91FF90EF9008950F9377
:101D00001F93CF93DF9300D000D000D0CDB7DEB7C4
:101D10008C01CE0101960E942E0ECE0101960E94EA
:101D2000DD2E80910204882331F069817A81C80117
:101D30000E94480A06C0BE016F5F7F4FC8010E9423
:101D40005D2ECE0101960E94A12DC80126960FB6E8
:101D5000F894DEBF0FBECDBFDF91CF911F910F91E1
:101D600008950F931F93CF93DF93CDB7DEB72C97D2
:101D70000FB6F894DEBF0FBECDBF0E94040B6CE718
:101D800075E0CE0101960E94872ECE0101960E9439
:101D9000AF0ACE0101960E94A12D0E94040B65E7B7
:101DA00075E0CE0101960E94872ECE0101960E9419
:101DB000AF0ACE0101960E94A12D67E675E0CE0123
:101DC00001960E94872ECE0101960E94AF0ACE0195
:101DD00001960E94A12D67E475E0CE0101960E9454
:101DE000872ECE0101960E94AF0ACE0101960E9475
:101DF000A12D0E94040B6EE375E0CE0101960E94B6
:101E0000872ECE0101960E94830ACE0101960E9480
:101E1000A12D8FE594E00E94740C8C01682F8FE552
:101E200094E00E94B22C04311105F9F06CF40A30F0
:101E3000110509F4A2CF0D30110509F49ECF083029
:101E40001105B9F480E012C001331105F9F02CF44A
:101E50000032110509F491CF0CC002331105C9F00D
:101E60000333110509F4BEC004C081E00E94400B99
:101E700084CF64E275E0CE0101960E94872ECE01E8
:101E800001960E94AF0ACE010196A9C001E010E0C0
:101E900002C000E010E00E94040B62E573E0CE0196
:101EA00007960E940F2E0130110521F56FE175E0B4
:101EB000CE0101960E94872ECE0101960E94830AD0
:101EC000CE0101960E94A12DCE0101960E947F0EA7
:101ED000BE016F5F7F4FCE0107960E94462ECE0156
:101EE00001960E94A12D6F81788589E094E00E947F
:101EF000C42523C063E175E0CE0101960E94872EC0
:101F0000CE0101960E94830ACE0101960E94A12D66
:101F1000CE0101960E947F0EBE016F5F7F4FCE0102
:101F200007960E94462ECE0101960E94A12D6F8138
:101F3000788589E094E00E94E3250E94040B6DE01F
:101F400075E0CE0101960E94872ECE0101960E9477
:101F5000830ACE0101960E94A12DCE0101960E9416
:101F60007F0EBE016F5F7F4FCE0107960E94462E07
:101F7000CE0101960E94A12D6F81788589E094E0C1
:101F80000E94B92581111BC063EF74E0CE01019658
:101F90000E94872ECE0101960E94AF0ACE010196C3
:101FA0000E94A12D89E094E00E946C2589E094E0D4
:101FB0000E945526CE0107960E94A12D13C060EE07
:101FC00074E0CE0101960E94872ECE0101960E94F8
:101FD000AF0ACE0101960E94A12DCE0107960E9464
:101FE000A12DCBCE2C960FB6F894DEBF0FBECDBF81
:101FF000DF91CF911F910F9108951F93CF93DF939E
:10200000EC01162F6FEF89E094E00E94B71CCD3FE2
:10201000D10511F46DEF01C06BEF89E094E00E94EF
:10202000B71C612F89E094E0DF91CF911F910C9450
:10203000B71C1F93CF93DF93EC01162F6FEF89E04E
:1020400094E00E94B71CCD3FD10511F46CEF01C0A4
:102050006EEF89E094E00E94B71C612F89E094E064
:10206000DF91CF911F910C94B71C6FEF89E094E042
:102070000E94B71C6EEF89E094E00E94B71C62E2F8
:1020800089E094E00E94B71C6FEF89E094E00E9421
:10209000B71C6EEF89E094E00E94B71C61E089E014
:1020A00094E00C94B71CCF93DF9368E873E189E068
:1020B00094E00E94890C8F3F910591F50E943510A4
:1020C00068EE73E089E094E00E94890C8F3F9105EF
:1020D00039F589E094E00E94740C89E094E00E9454
:1020E000740CEC018F3F2FEF920751F38B5F910936
:1020F000049730F789E094E00E94740C8F3F2FEF33
:102100009207F1F28330910531F463E070E0CE0183
:102110000E94FD0FD5CFBC01CE010E941910D0CF77
:10212000DF91CF910895CF93DF9300D000D000D0FE
:10213000CDB7DEB76AE074E0CE0101960E94872E2B
:10214000CE0101960E94AF0ACE0101960E94A12DF8
:1021500089E094E00E94D51E019641F189E094E067
:102160000E94D51E1816190654F489E094E00E94C6
:102170007A1E682F8FE594E00E94E718EFCF8FE575
:1021800094E00E9453191816190654F48FE594E050
:102190000E94C618682F89E094E00E94B71CEFCF18
:1021A00089E094E00E94AA268111D2CF89E094E0D0
:1021B0000E94B72668EF73E0CE0101960E94872E39
:1021C000CE0101960E94D00ACE0101960E94A12D57
:1021D00026960FB6F894DEBF0FBECDBFDF91CF912C
:1021E00008950F931F93CF93DF93CDB7DEB72C974E
:1021F0000FB6F894DEBF0FBECDBF89E094E00E9419
:102200008D238C010E94040B67E874E0CE010196D7
:102210000E94872ECE0101960E94830ACE0101966C
:102220000E94A12D4AE050E0B8018FE594E00E94A1
:10223000672D63E874E0CE0101960E94872ECE01DF
:1022400001960E94830ACE0101960E94A12DCE0123
:1022500007960E947F0E8B859C85892B81F0CE018D
:1022600007960E943C2F89E094E00E94942589E023
:1022700094E00E946C2589E094E00E94552689E054
:1022800094E00E948D238C010E94040B63E674E0AD
:10229000CE0101960E94872ECE0101960E94830AEC
:1022A000CE0101960E94A12D4AE050E0B8018FE5D1
:1022B00094E00E946F2D89E094E00E94AA26882372
:1022C000D1F36FE474E0CE0101960E94872ECE0117
:1022D00001960E94AF0ACE0101960E94A12D0E9494
:1022E0009310CE0107960E94A12D2C960FB6F8945C
:1022F000DEBF0FBECDBFDF91CF911F910F9108952B
:10230000BF92CF92DF92EF92FF920F931F93CF93E2
:10231000DF93CDB7DEB7E8970FB6F894DEBF0FBEF8
:10232000CDBF7C016B01B42EFC0181818F93808134
:102330008F9384EE92E09F938F938E010F5F1F4FD8
:102340001F930F930E946532B801CE01C3960E947D
:102350000F2ECE01C3960E94D00ACE01C3960E94D2
:10236000A12D62E089E094E00E94AB25F701608135
:10237000718121E0A60189E094E00E94F7260F9088
:102380000F900F900F900F900F90882329F1F70175
:1023900081818F9380818F9386EF92E09F938F93BB
:1023A0001F930F930E946532B801CE01C3960E941D
:1023B0000F2ECE01C3960E94D00ACE01C3960E9472
:1023C000A12D0F900F900F900F900F900F90B110C4
:1023D00012C00E9453100FC060E274E0CE01C39699
:1023E0000E94872ECE01C3960E94D00ACE01C396CA
:1023F0000E94A12D02C00E949310E8960FB6F89497
:10240000DEBF0FBECDBFDF91CF911F910F91FF9027
:10241000EF90DF90CF90BF9008950F931F93CF93CD
:10242000DF93CDB7DEB762970FB6F894DEBF0FBE6D
:10243000CDBF60E474E0CE0101960E94872ECE01EC
:1024400001960E94830ACE0101960E94A12D63E0AD
:1024500074E0CE0101960E945D2ECE0101960E948D
:10246000830ACE0101960E94A12D6CE374E0CE0197
:1024700001960E94872ECE0101960E94830ACE010A
:1024800001960E94A12DCE010D960E947F0E898992
:102490009A89892B09F457C064E374E0CE01019650
:1024A0000E94872ECE0101960E94830ACE010196DA
:1024B0000E94A12D60910601709107014AE050E051
:1024C0008FE594E00E94672D60E374E0CE010196F1
:1024D0000E94872ECE0101960E94830ACE010196AA
:1024E0000E94A12DCE0107960E947F0E8B859C85B0
:1024F000892B31F0CE0107960E943C2F8B0104C03E
:102500000091060110910701BE01635F7F4F83E0D8
:1025100094E00E94462E1093070100930601BE012D
:10252000635F7F4FCE0101960E945D2E40E0B801AF
:10253000CE0101960E948011CE0101960E94A12D2C
:10254000CE01079618C08091070490910804892B4A
:10255000A1F0009106011091070163E074E0CE0143
:1025600001960E945D2E40E0B801CE0101960E94C6
:102570008011CE0101960E94A12DCE010D960E94E0
:10258000A12D62960FB6F894DEBF0FBECDBFDF91CE
:10259000CF911F910F910895CF93DF9300D000D07A
:1025A00000D0CDB7DEB78091000490910104813056
:1025B000910541F124F4892B09F491C051C0823076
:1025C000910519F1039709F04BC06BEB72E0CE0156
:1025D00001960E94872ECE0101960E94AF0ACE017D
:1025E00001960E94A12D64EA72E0CE0101960E943C
:1025F000872ECE0101960E94AF0ACE0101960E945D
:10260000A12D6DC062E073E002C064EE72E0CE0105
:1026100001960E94872ECE0101960E94AF0ACE013C
:1026200001960E94A12D69E872E0CE0101960E94F8
:10263000872ECE0101960E94AF0ACE0101960E941C
:10264000A12D0E94040B68E873E18FE594E00E94DD
:10265000890C019689F08FE594E00E94740C3FC0CC
:1026600040E061E070E084E894E00E94FD15109283
:1026700001041092000433C0809100049091010481
:102680008130910519F0029791F029C06BE672E054
:10269000CE0101960E94872ECE0101960E94AF0ABC
:1026A000CE0101960E94A12D0E94D50D18C066E0B2
:1026B00073E0CE0101960E940F2E41E065E076E0C6
:1026C000CE0101960E948011CE0101960E94A12D9B
:1026D00068EE73E080E090E00E94A428E8CF2696A0
:1026E0000FB6F894DEBF0FBECDBFDF91CF91089536
:1026F000CF93DF93CDB7DEB7E8970FB6F894DEBF80
:102700000FBECDBF6AED73E08E010F5F1F4FC80192
:102710000E94872EC8010E94AF0AC8010E94A12D05
:10272000412C512C3201C12CD12C7601912C2EE15F
:10273000A22E23E0B22E89E094E00E94D51E181646
:1027400019068CF48FEFC81AD80AE80AF80A89E04B
:1027500094E00E947A1E682F8FE594E00E94E718AB
:1027600099249394E8CF8FE594E00E9453191816AA
:1027700019068CF49FEF491A590A690A790A8FE5FC
:1027800094E00E94C618682F89E094E00E94B71C6C
:1027900099249394E8CF992071F27F926F925F927F
:1027A0004F92FF92EF92DF92CF92BF92AF921F9320
:1027B0000F930E946532B801CE01C3960E940F2E7E
:1027C000CE01C3960E946A0ACE01C3960E94A12D33
:1027D0000FB6F894DEBF0FBECDBFADCFCF93DF9362
:1027E00000D000D000D0CDB7DEB785E894E00E94DD
:1027F000531860E085E894E00E94491661E085E89E
:1028000094E00E94031840E659E060E070E08FE534
:1028100094E00E94BC1A26E040E659E060E070E0D7
:102820008BE095E00E94822A48EE53E060E070E081
:102830008FE594E00E949B2D64EF76E0CE01019637
:102840000E94872ECE0101960E94D00ACE010196E9
:102850000E94A12D4FE554E06BE075E089E094E023
:102860000E948026882381F16AEE76E0CE010196EF
:102870000E94872ECE0101960E94D00ACE010196B9
:102880000E94A12D89E094E00E94B7260E94CC12FC
:102890000E94040B66EC76E0CE0101960E94872E22
:1028A000CE0101960E94AF0ACE0101960E94A12D91
:1028B00081E00E94490B26960FB6F894DEBF0FBE4A
:1028C000CDBFDF91CF9108956CED76E0CE010196FA
:1028D0000E94872ECE0101960E94D00ACE01019659
:1028E0000E94A12D0E9478130F931F93CF93DF9323
:1028F00000D000D000D0CDB7DEB70E94040B67E255
:1029000076E0CE0101960E94872ECE0101960E94AC
:10291000AF0ACE0101960E94A12D0E94040B66E031
:1029200076E0CE0101960E94872ECE0101960E948C
:10293000AF0ACE0101960E94A12D67EF75E0CE018E
:1029400001960E94872ECE0101960E94AF0ACE0109
:1029500001960E94A12D62EE75E0CE0101960E94C3
:10296000872ECE0101960E94AF0ACE0101960E94E9
:10297000A12D62EC75E0CE0101960E94872ECE015A
:1029800001960E94AF0ACE0101960E94A12D6BEA2A
:1029900075E0CE0101960E94872ECE0101960E941D
:1029A000AF0ACE0101960E94A12D0E94040B62EA9B
:1029B00075E0CE0101960E94872ECE0101960E94FD
:1029C000830ACE0101960E94A12D8FE594E00E941A
:1029D000740C8C01682F8FE594E00E94B22C0032B9
:1029E000110509F48ACF9CF40A30110509F485CF4A
:1029F0002CF40830110559F580E026C00D30110582
:102A000009F47BCF0431110511F581E01DC00333BA
:102A10001105A9F04CF40133110569F002331105D9
:102A2000B1F40E94B10E69CF0433110559F005339A
:102A30001105E1F00CC080E00E94490B5ECF0E94BE
:102A4000CD0C5BCF0E9478130E94400B56CF68E8F4
:102A500075E0CE0101960E94872ECE0101960E945C
:102A6000AF0ACE0101960E94A12D47CF26960FB640
:102A7000F894DEBF0FBECDBFDF91CF911F910F91B4
:102A800008950F931F93CF93DF9300D000D000D011
:102A9000CDB7DEB76FEB76E0CE0101960E94872EB0
:102AA000CE0101960E946A0ACE0101960E94A12DD4
:102AB0000E94040B0E94080B0E94040B66EA76E059
:102AC000CE0101960E94872ECE0101960E94AF0A88
:102AD000CE0101960E94A12D66E876E0CE01019616
:102AE0000E94872ECE0101960E94AF0ACE01019668
:102AF0000E94A12D6EE676E0CE0101960E94872EFF
:102B0000CE0101960E94AF0ACE0101960E94A12D2E
:102B10006DE576E0CE0101960E94872ECE010196EA
:102B20000E94AF0ACE0101960E94A12D0E94040BC3
:102B300064E576E0CE0101960E94872ECE010196D3
:102B40000E94830ACE0101960E94A12D8FE594E098
:102B50000E94740C8C01682F8FE594E00E94B22CC7
:102B600000321105E1F18CF40A301105C1F12CF4A9
:102B70000830110531F580E021C00D30110579F1E3
:102B800004311105F1F481E019C00233110581F01F
:102B900034F401331105A9F40E940D1220C003334F
:102BA000110549F00433110561F40E94741417C033
:102BB0000E94F11014C00E94D50D11C00E94400B5C
:102BC0000EC06AE376E0CE0101960E94872ECE0108
:102BD00001960E94AF0ACE0101960E94A12D269671
:102BE0000FB6F894DEBF0FBECDBFDF91CF911F911E
:102BF0000F910895CB010C945934CB01642F0C94A0
:102C000061340DB407FEFDCF0895FC01638744874E
:102C100008950F936034D8F54033C8F50130C9F4F6
:102C20002130A9F5E42FE695E695E69580E4E89F46
:102C3000F0011124E60FF11DE85FFE4F477081E0BF
:102C400090E0042E01C0880F0A94EAF7908198273B
:102C50001DC0842F869586958695E62FF0E04770F7
:102C600090E4899FE00DF11D1124E85FFE4F81E0A3
:102C700090E0042E01C0880F0A94EAF7213019F47D
:102C80009081982B03C080959081982390830F9119
:102C90000895DC0161112EC018961C92189780913E
:102CA000880290918902FC01249116962C93169724
:102CB0003196E4911796EC931797FC013296E491C4
:102CC0001996EC931997FC013396E4911A96EC93BC
:102CD0001A97FC01349624913196849190E0F4E6A1
:102CE0002F9F800D911D11241E969C938E931D97EE
:102CF00081E0089580E008955F926F927F928F92B5
:102D00009F92AF92BF92CF92DF92EF92FF920F937A
:102D10001F93CF93DF93EC01162FB42EF02E39853D
:102D2000231708F4B0C0822F90E06A8570E0630F2B
:102D3000711D681779070CF4A6C0D22ED31A9F8094
:102D400096949694969481E08915C0F1C12E3C2DFD
:102D5000311B2E81822F90E0A32FB0E08A179B07B2
:102D60000CF491C0321791F0E885F0E0EE0FFF1FF0
:102D7000E857FD4FD29EA00DB11D1124169601906B
:102D8000F081E02DEA0FFB1F949001C0912CA12C43
:102D90004A2D4B0D90FE03C00E2D2F2D04C021E0B7
:102DA000F11020E00E2D6C2DCE010E940916969494
:102DB000A39488E0A812ECCFC394C9CFED85FE851B
:102DC0002E8130E0CF01B9010E94482F8D2D90E077
:102DD0000E94482F829F6001839FD00C929FD00C4D
:102DE00011249E9E90019F9E300D1124269FC001AC
:102DF000279F900D369F900D1124C80ED91E742E5A
:102E0000A12CB12C86E0C80ED11C812E482D411B6F
:102E10008E81481780F5E885F0E0EE0FFF1FE85738
:102E2000FD4F2D853E85A29EC001A39E900DB29EB2
:102E3000900D11248C0D9D1D840F911D0190F0812A
:102E4000E02DE80FF91F5490612C462D470D50FEE0
:102E500003C00E2D2F2D04C021E0F11020E00E2D17
:102E6000682DCE010E9409165694639488E068127A
:102E7000ECCF8394CBCF8FEFA81AB80A88E0780EF6
:102E8000A91408F4C2CFDF91CF911F910F91FF9049
:102E9000EF90DF90CF90BF90AF909F908F907F90FA
:102EA0006F905F900895EF920F93CF93DF93EC01B3
:102EB000262F6A30A9F06D30C1F0ED800C814C8571
:102EC0006B850E947C164E812B85240F2F5F2B87EC
:102ED00030E080E490E0841B9109821793072CF482
:102EE0008C859F81890F8C871B8681E090E0DF9124
:102EF000CF910F91EF9008952A9A22982898209ABE
:102F000060E08DE00E94692960E08BE00E94692901
:102F100061E08DE00E94302961E08BE00E94302961
:102F20008CB580618CBD08958CB580648CBD2A9869
:102F3000229A08950DB407FEFDCF2898209A2A9A68
:102F400022988CB58F7B8CBD0895CF93DF9300D0F2
:102F5000CDB7DEB74A8369830E94941769816EBD3D
:102F60000E9401164A814EBD0F900F90DF91CF91C4
:102F70000C949A17CF93DF9300D01F92CDB7DEB792
:102F80002B834A8369830E94941769816EBD0E94D6
:102F900001164A814EBD0E9401162B812EBD0F9055
:102FA0000F900F90DF91CF910C949A170F931F936E
:102FB000CF93DF93EC0140E060E20E94A5172FE77A
:102FC00040E061E2CE010E94BA1727E040E062E2F1
:102FD000CE010E94BA170E949417289A20981EBC0E
:102FE0000FEF13E00E9401161EBC01501109D1F72A
:102FF0000E949A1742E060E2CE01DF91CF911F91CB
:103000000F910C94A517613011F40C94D61780E839
:1030100091E0E8E0F1E0DF019C011D922150304099
:10302000E1F708950F931F93CF93DF93EC0140E0F6
:1030300060E20E94A5172FE540E261E2CE010E9406
:10304000BA1725E040E062E2CE010E94BA170E9462
:103050009417289A2098809108018EBD09E011E00C
:103060000E940116F80181918F018EBDF2E00838AF
:103070001F07B1F70E949A1742E060E2CE01DF918C
:10308000CF911F910F910C94A5172CB5982F937089
:103090002C7F922B9CBD9DB582FB882780F99E7F5B
:1030A000982B9DBD0895CF93DF93EC0160E00E94C3
:1030B000491681E08C831D821B861C865F98579A77
:1030C00061E084E00E94302961E084E00E94692987
:1030D0006AE070E080E090E00E94A4285F9A579830
:1030E00065E070E080E090E00E94A4285F98579A25
:1030F00084E00E9445180E947C1765E070E080E043
:1031000090E00E94A4285F9A57986AE070E080E0FF
:1031100090E00E94A4284FE268EACE010E94A51721
:1031200044E16DE8CE010E94A5170E94941781EA40
:103130008EBD0E949A170E94941788EC8EBD0E9443
:103140009A174FE861E8CE010E94A51741EF69ED9B
:10315000CE010E94A51740E46BEDCE010E94A51799
:103160000E9494178FEA8EBD0E949A17CE01DF91BC
:10317000CF910C94D617109288041092870485E39F
:1031800093E0909386048093850408952091D6045B
:103190003091D70428173907B9F49091940480919D
:1031A0009504981789F0E0919404F0E0EA56FB4FFB
:1031B00080812091940430E02F5F3F4F2F7333279D
:1031C0002093940490E008958FEF9FEF08951F934C
:1031D000CF93DF93DC015C968D919C915D97009776
:1031E00049F481E090E013969C938E93129780E0CF
:1031F00090E03BC05196ED91FC91529750962C91E6
:103200005097322F30951FB75E964C915E9741FBD9
:10321000772770F941FD6095F8944081772311F08C
:10322000422B01C043234083EC012197F1F748E092
:10323000508160FF02C0522B01C053235083EC0128
:103240002197F1F76695415099F78081772311F026
:10325000832301C0822B80831FBF5C968D919C913C
:103260005D970197F1F781E090E0DF91CF911F9199
:1032700008952091D6043091D7042817390781F496
:103280009091940480919504981751F0E0919404E2
:10329000F0E0EA56FB4F8081992787FD90950895CD
:1032A0008FEF9FEF08952091D6043091D70428170F
:1032B000390771F4809195042091940490E0805C2A
:1032C0009F4F821B910960E470E00E945C2F08957B
:1032D00080E090E008952091D6043091D70428171B
:1032E000390739F48FB7F89410929504109294042A
:1032F0008FBF0895E091D604F091D704E817F9073D
:1033000069F4A389B4899C918589809589238C93DC
:103310001092D7041092D60481E0089580E00895B9
:10332000CF93DF93EC018A8D9B8D892BF1F08091F7
:10333000D6049091D7048C179D07B9F0009711F02F
:103340000E947A198E8D8E7F8E8F10929504109226
:103350009404D093D704C093D604EB89FC89808170
:103360009D89892B808381E001C080E0DF91CF912E
:1033700008951F920F920FB60F9211242F933F932F
:103380004F935F936F937F938F939F93AF93BF936D
:10339000EF93FF93E091D604F091D704309709F4AE
:1033A00051C0868DA685B785958581FF04C08C9117
:1033B000892329F447C08C91892309F043C0A3894C
:1033C000B4899C918589809589238C938689978976
:1033D0000197F1F7208D318DA685B785758558E069
:1033E00040E0C9010197F1F7842F90E0959587950A
:1033F000482F6C91672309F04068515091F7868DF2
:1034000081FD40958091950490E001968F739927F6
:1034100020919404281749F0A0919504B0E0AA5691
:10342000BB4F4C938093950403C0868D8160868F3B
:10343000828D938D0197F1F7A389B4898C91958939
:10344000892B8C93FF91EF91BF91AF919F918F91B9
:103450007F916F915F914F913F912F910F900FBE90
:103460000F901F9018952DE333E0FC0131832083EA
:103470000C947A191F93CF93DF93EC01162F6E8D66
:103480006695617081E06827812F0E94692961E05B
:10349000812F0E943029812F90E0FC01EC55FC4ED9
:1034A000E491E88BFC01E854FC4EE491F0E0EE0F6F
:1034B000FF1FEA52FC4E859194919A8B898BDF9184
:1034C000CF911F9108951F93CF93DF93EC01162F97
:1034D00060E0812F0E9430298E8D81FD04C061E063
:1034E000812F0E9469291C87812F90E0FC01EC55F7
:1034F000FC4EE491ED87FC01E854FC4EE491F0E0D1
:10350000EE0FFF1FE453FC4E859194919F878E87A9
:10351000DF91CF911F910895FF920F931F93CF9347
:10352000DF93EC01F62E522F1B821A8208EE13E075
:1035300020E030E00C831D832E833F838DE393E0F6
:10354000998388831F8A1E8A198E188E1B8E1A8E65
:103550001D8E1C8E8E8D8E7F50FB81F98E8F642F79
:10356000CE010E943A1A6F2DCE01DF91CF911F91AB
:103570000F91FF900C94631ACF93DF93EC019A01A3
:10358000AB011B8E1A8E198E188E1F8A1E8A60E060
:1035900079E08DE390E00E94922FC901243031053B
:1035A00020F0B9016350710902C061E070E07D8FC5
:1035B0006C8FEC85E63108F068C0B90176956795A7
:1035C0006431710518F06351710902C061E070E067
:1035D0007F8B6E8B069718F0C901059702C081E0BA
:1035E00090E0998F888FC901880F991F820F931FD0
:1035F00096958795969587958D30910510F00C9747
:1036000002C081E090E09B8F8A8F20916800E830B3
:1036100050F091E0EE3008F490E081E001C0880FB6
:103620009A95EAF701C084E0822B809368002C858C
:10363000283038F02E3040F0263148F48CE690E007
:1036400008C08DE690E005C08BE690E002C080E007
:1036500090E09C8B8B8B283030F481E001C0880F88
:103660002A95EAF70DC0822F90E02E3010F40897CB
:1036700001C00E9791E001C0990F8A95EAF7892F52
:103680008D8B8C8D9D8D0197F1F7CE01DF91CF91C0
:103690000C9490190F9300E020E040E060E088ED8A
:1036A00094E00E94C32B0F910895DC011C968D912C
:1036B0009C911D97DC01ED91FC910680F781E02D36
:1036C0000994DC011C968D919C911D97DC01ED9174
:1036D000FC910480F581E02D0994DC011C968D910C
:1036E0009C911D97DC01ED91FC910284F385E02D06
:1036F0000994DC011C968D919C911D97DC01ED9144
:10370000FC910084F185E02D09942F923F924F9215
:103710005F926F927F928F929F92AF92BF92CF9261
:10372000DF92EF92FF920F931F93CF93DF93CDB76A
:10373000DEB760970FB6F894DEBF0FBECDBF2B018A
:103740003C0169014A3021F5CE0101961C01E12CB2
:10375000F12C5AE0852E912CA12CB12CC301B20181
:10376000A50194010E94702F9FEFE91AF90A80E3E6
:10377000840DEAE02E9F80191124F10181931F012D
:103780002115310541055105C9F129013A01E6CF5D
:10379000FE01319680E090E0B301A2014F70552701
:1037A000662777279C012F5F3F4F4A3051056105FF
:1037B000710510F4A0E301C0A1E44A0F419344E075
:1037C00076946794579447944A95D1F741145104DD
:1037D0006104710411F0C901DFCFE1E0F0E0EC0F0A
:1037E000FD1FE20FF31F48E740837C01F3E0EF0E7B
:1037F000F11CFE01E80FF91F20E3238321E0E21A08
:10380000F108F60180E090E0015011090196A1E075
:10381000B0E0AC0FBD1FAE0DBF1D2C9121931E1447
:103820001F04ECF0F601E80FF91F108260960FB646
:10383000F894DEBF0FBECDBFDF91CF911F910F91E6
:10384000FF90EF90DF90CF90BF90AF909F908F90C0
:103850007F906F905F904F903F902F90089521E060
:10386000E21AF10880179107ECF6D0CFCF92DF92E1
:10387000EF92FF920F931F93FC0140E060E070E035
:10388000CB010191002309F449C020ED200F2A301B
:10389000B0F414E0660F771F881F991F1A95D1F7AF
:1038A0006053710981099109C02EDD24C7FCD094B1
:1038B000ED2CFD2C6C0D7D1D8E1D9F1DE2CF2FE983
:1038C000200F263060F4B4E0660F771F881F991F21
:1038D000BA95D1F767557109810991090FC02FEB8E
:1038E000200F2630A8F4A4E0660F771F881F991FC9
:1038F000AA95D1F76753710981099109112707FD2D
:103900001095212F312F600F711F821F931FB9CF88
:10391000083721F4411102C041E0B3CF1F910F914C
:10392000FF90EF90DF90CF9008950F931F93FC01CD
:1039300060E070E0CB01019120ED200F2A30A0F46F
:10394000AAE0B0E09B01AC010E94B72F605371095F
:1039500081099109112707FD1095212F312F600F43
:10396000711F821F931FE7CF1F910F910895DC01F4
:10397000AE5ABF4F2D913C911197FC01EC5AFF4F6D
:10398000408151812417350764F434970190F08108
:10399000E02DA9014F5F5F4F4D935C93E20FF31F42
:1039A0006083FC01FF9680819181DC01ED91FC91A7
:1039B0000190F081E02D0994CF96DC018D919C91CE
:1039C000DC01ED91FC910284F385E02D0994DC018A
:1039D0001C968D919C911D97009739F0DC01ED911B
:1039E000FC910190F081E02D099480E090E0089531
:1039F0002091F10421110BC0FC01FF96808191817F
:103A0000DC01ED91FC910084F185E02D0994E091B9
:103A1000F204F0E0EC50FB4F8081992787FD9095F0
:103A20000895DC01ED91FC910190F081E02D099465
:103A30004F925F926F927F92AF92BF92CF92DF923E
:103A4000EF92FF920F931F93CF93DF93EC015B01F3
:103A50006A010E9475282B013C01E12CF12C8E019A
:103A6000015C1F4F0E947528641975098609970922
:103A70006C157D058E059F0508F067C0D8018D91F6
:103A80009C91DC01ED91FC910480F581E02D09957C
:103A9000181619063CF7F80180819181DC01ED913F
:103AA000FC910680F781E02D0995F82EF5018083C1
:103AB000DE01AE5ABF4F2D913C911197FE01EC5A99
:103AC000FF4F80819181281739075CF4349701906A
:103AD000F081E02DC90101968D939C93E20FF31FB5
:103AE000F0828C858823E1F16091DE047091DF041F
:103AF000CB0101969093DF048093DE04CF5BDF4F10
:103B00004AE050E0CE010E94672D69E271E1CE01EA
:103B10000E942C2C40E150E00F2D112707FD10953D
:103B2000B801CE010E94672DC8010E94EB31892B9C
:103B300041F060E2CE010E94612C6F2DCE010E9407
:103B4000612CCE010E94682C0BC08C85882351F01B
:103B500061E171E1CE018F5B9F4F0E947C2C02C01E
:103B600081E001C080E0DF91CF911F910F91FF9024
:103B7000EF90DF90CF90BF90AF907F906F905F906D
:103B80004F900895EF92FF920F931F93CF93DF937F
:103B90001F92CDB7DEB78C017B01A701BE016F5F1D
:103BA0007F4FC8010E94181D8111F7CF0F90DF9140
:103BB000CF911F910F91FF90EF900895DF92EF92B8
:103BC000FF920F931F93CF93DF938C019091F10499
:103BD000992311F1442321F06F5F7F4F81E001C0F1
:103BE00080E02091F204820FFB01BF01382F321BCD
:103BF0003917B0F43491332309F443C0893010F4F9
:103C0000A82F01C0A0E031968F5FB0E0AC50BB4F51
:103C10004C91431751F354C0411102C06F5F7F4F65
:103C2000FB01D490EB0121967801F1E4EF0EF11C39
:103C30006091F30470E06C507B4F44EF51E0C80199
:103C40000E94181D8091F304E82FF0E0EC50FB4F28
:103C500020819091F1048F5F2D111BC0883068F591
:103C60008093F3049F5F9093F104993028F06BE503
:103C700071E1C7010E947C2CFE01D4902196D110E5
:103C8000D7CF1092F1041092F2041092F30481E065
:103C900018C0883018F48093F30402C01092F30423
:103CA0009F5F9093F104993058F067E771E1C80184
:103CB0008F5B9F4F0E947C2C03C01092F304D2CFE5
:103CC00080E0DF91CF911F910F91FF90EF90DF90F7
:103CD0000895CF93DF93EC01462F64E571E10E94D4
:103CE000DE1D882319F01FAA81E001C080E0DF916A
:103CF000CF910895CF93DF93EC018091F104882355
:103D000081F0E091F20491E09E0F9093F204F0E0D4
:103D1000EC50FB4F208130E0983060F11092F204BB
:103D200029C0FE01FF9680819181DC01ED91FC911B
:103D30000680F781E02D09959C018FA98823E9F081
:103D40002A323105D1F460E0CE010E94691E811152
:103D500016C0E091F20481E08E0F8093F204F0E04F
:103D6000EC50FB4F208130E0883010F01092F204CC
:103D70008091F10481508093F104C90102C08FEF5A
:103D80009FEFDF91CF910895CF93DF93EC01462F02
:103D90006DE471E10E94DE1D882319F081E08FAB94
:103DA00001C080E0DF91CF910895CF92DF92EF9232
:103DB000FF920F931F93CF93DF93EC018C01015C73
:103DC0001F4FD8018D919C91DC01ED91FC910480F5
:103DD000F581E02D09957C01181619060CF043C0F9
:103DE0008C858823B9F06AE371E16E01B1E4CB0EF2
:103DF000D11CC6010E942C2CF80180819181DC012C
:103E0000ED91FC910084F185E02D0995682FC601A4
:103E10000E94B22CF80180819181DC01ED91FC912E
:103E20000084F185E02D09958A97E9F48FA961E076
:103E3000882331F0CE010E94691E882321F01AC028
:103E4000CE010E94C41EC091F104D0E0F80180812F
:103E50009181DC01ED91FC910480F581E02D0995C3
:103E60008C0F9D1F09C08091F104F701E80FF11D2F
:103E7000CF0102C08FEF9FEFDF91CF911F910F9184
:103E8000FF90EF90DF90CF900895CB0161EE74E04A
:103E90000E94363221E0892B09F420E0822F089518
:103EA0008F929F92AF92BF92CF92DF92EF92FF924A
:103EB0000F931F93CF93DF931F92CDB7DEB76C01A3
:103EC0007B015A016115710529F1FB01808188236D
:103ED00009F18B014B01FFEF8F1A9F0AA501BE016B
:103EE0006F5F7F4FC6010E94181D8823A1F0898152
:103EF000F8019081891303C00F5F1F4F07C0F701BE
:103F00009081891302C0840101C08701F80180817A
:103F10008111E4CF81E00F90DF91CF911F910F913C
:103F2000FF90EF90DF90CF90BF90AF909F908F90D9
:103F300008957F928F929F92AF92BF92CF92DF921D
:103F4000EF92FF920F931F93CF93DF931F92CDB702
:103F5000DEB76C018B015A01FC018485882369F06E
:103F600067E071E17601F1E4EF0EF11CC7010E94F8
:103F70002C2CB801C7010E947C2CF801749077208A
:103F8000C1F078014801FFEF8F1A9F0AA501BE0119
:103F90006F5F7F4FC6010E94181D8823C9F02981D9
:103FA000271109C08FEFE81AF80AF7017490711011
:103FB000EDCF81E00DC0F8018491332727FD3095C6
:103FC00090E02817390711F47401EFCF7801EDCF95
:103FD0000F90DF91CF911F910F91FF90EF90DF90A5
:103FE000CF90BF90AF909F908F907F9008952F9229
:103FF0003F924F925F926F927F928F929F92AF9279
:10400000BF92CF92DF92EF92FF920F931F93CF93C5
:10401000DF9300D01F92CDB7DEB76C01562E672E0E
:10402000742E59012DB73EB73B832A83242F30E0ED
:10403000C901880F991F820F931FEDB7FEB7E81BC8
:10404000F90B0FB6F894FEBF0FBEEDBF2DB73EB70C
:104050002F5F3F4F1901062F172F4901412C760181
:1040600031E4E30EF11C471409F449C0F401108255
:10407000F80180819181F40192838183F601848526
:104080008823A9F068EF70E1C7010E942C2C4AE058
:1040900050E0642DC7010E94942D60E2C7010E9488
:1040A000612CF80160817181C7010E947C2C4394CE
:1040B000F3E08F0E911C0E5F1F4FD5CF1196ED913F
:1040C000FC9112976491961781F1F9010081118199
:1040D000F801649170E04617570731F112961C936E
:1040E0000E9311971196ED91FC911297E49113960E
:1040F0002E5F3F4FEE23F9F08F5F8711DFCFA501D1
:10410000BE016F5F7F4FC6010E94181D811102C062
:104110008FEF11C09981492F552747FD5095252DC7
:10412000362DD10180E0E9CFF80131961296FC934B
:10413000EE931197D7CF2A813B810FB6F8943EBFFB
:104140000FBE2DBF0F900F900F90DF91CF911F9159
:104150000F91FF90EF90DF90CF90BF90AF909F9026
:104160008F907F906F905F904F903F902F90089529
:10417000CF93DF93EC018D858823C9F06DEC70E15E
:10418000CE010E942C2C44EF51E066EC70E1CE0190
:104190000E94991F882311F01D8609C065EB70E10C
:1041A000CE018F5B9F4F0E947C2C80E001C081E09C
:1041B000DF91CF9108955F926F927F928F929F923D
:1041C000AF92BF92CF92DF92EF92FF920F931F9325
:1041D000CF93DF931F92CDB7DEB76C017B0139011E
:1041E00000E010E04A0182E0881A91085A0181E05B
:1041F000A81AB108A301BE016F5F7F4FC6010E94DC
:10420000181D882309F440C059808DE058122DC034
:10421000A301BE016F5F7F4FC6010E94181D8981F7
:104220008A3041F4E114F104B9F1F701E00FF11F14
:10423000108232C0E114F104C1F00815190564F4CC
:10424000F8013196D701A00FB11F5C920E5F1F4F8E
:10425000EE0DFF1D808309C00A151B0534F4F7011C
:10426000E00FF11F50820F5F1F4F0A151B0514F658
:10427000E114F10409F4BECFF701E00FF11F8981C9
:1042800080830F5F1F4FB6CFE114F10439F0F701BF
:10429000E00FF11F108203C0C80102C080E090E06F
:1042A0000F90DF91CF911F910F91FF90EF90DF90D2
:1042B000CF90BF90AF909F908F907F906F905F90C6
:1042C0000895CF92DF92EF92FF920F931F93CF93B7
:1042D000DF931F92CDB7DEB78C0144EF51E0BE01F2
:1042E0006F5F7F4FC8010E94181D8823A9F0898144
:1042F0008C3399F78093E10452EEE52E54E0F52ECD
:10430000DD24D39444EF51E0BE016F5F7F4FC801BD
:104310000E94181D811102C080E035C0CC24C394D6
:10432000CD0C8981F70181937F018E3339F544EFFC
:1043300051E0BE016F5F7F4FC8010E94181D8823A6
:1043400059F38981803241F7AC2DB0E0AF51BB4FBA
:104350008C93D394D394ED2DF0E0EF51FB4F10826A
:1043600081E08093E00424EF31E040E050E060E041
:1043700070E0C8010E94DB2081E005C0FCE0CF16A0
:1043800059F2DC2CBFCF0F90DF91CF911F910F918D
:10439000FF90EF90DF90CF9008951F93CF93DF931E
:1043A000EC01AB018091E00481110EC0CE010E94AE
:1043B0006121182F811110C067EE70E1CE018F5B73
:1043C0009F4F0E947C2C08C061EE74E0CE01DF910B
:1043D000CF911F910C94501F812FDF91CF911F918E
:1043E0000895FF920F931F93CF93DF93EC018D8578
:1043F00081116EC06AEF70E080E090E00E94A42816
:1044000063EE70E1CE010E942C2C6AEF70E080E038
:1044100090E00E94A42844EF51E06DED70E1CE01E0
:104420000E94991F811115C0FE01FF968081918124
:10443000DC01ED91FC910190F081E02D6DE009959A
:1044400064EF71E0CE010E94CD2181113AC015E0E8
:104450001EC08091E004811134C065E0F62E8E010B
:10446000015C1F4FF80180819181DC01ED91FC918D
:104470000190F081E02D6DE0099564EF71E0CE01CF
:104480000E94CD2181111DC0FA9461F7CDCF6AEF52
:1044900070E080E090E00E94A42869ED70E1CE0118
:1044A0000E942C2C6AEF70E080E090E00E94A4282B
:1044B00044EF51E063ED70E1CE010E94991F882323
:1044C00019F081E08D8705C0115009F780E001C027
:1044D00081E0DF91CF911F910F91FF900895CF93CD
:1044E000DF93EC018D85882339F08E859F850196B9
:1044F0009F878E8781E005C0CE010E94F121811146
:10450000F4CFDF91CF910895FC01268537852150A6
:10451000310937872687232B11F40C94B82081E0CA
:104520000895CF92DF92EF92FF920F931F93CF9354
:10453000DF93EC018B016A0179010E946F228823CD
:1045400051F1000F111F000F111F06581C4FF801E9
:1045500060817181CE010E942C2CF80162817381EF
:1045600044EF51E0CE010E94991F882389F024EF87
:1045700031E0A701B601CE010E94DB2064EF71E0BB
:10458000CE010E94CD21CE010E948422C60105C029
:10459000CE010E94842289E493E0DF91CF911F91A4
:1045A0000F91FF90EF90DF90CF900895EF92FF92E0
:1045B0000F931F93CF93DF93CDB7DEB760970FB6FE
:1045C000F894DEBF0FBECDBF8C010E946F22811117
:1045D0000AC06DE970E1C8018F5B9F4F0E947C2C7F
:1045E00080E090E06FC065E970E1C8010E942C2C6A
:1045F00024EF31E040E150E0BE016F5F7F4FC80122
:104600000E94DB207C01BE016F5F7F4FC8010E94CA
:10461000451F882361F024EF31E040E150E0BE0106
:104620006F5F7F4FC8010E94DB207C0105C064EFF3
:1046300071E0C8010E94CD2125E0E216F1041CF4CE
:10464000CE01019608C0C7010497E1E0F0E0EC0F4D
:10465000FD1F8E0F9F1F0E94361CF62EE72E862F01
:104660008F70F80181AFF4FA882780F982AFF5FAEC
:10467000882780F983AFF6FA882780F984AFF7FAA4
:10468000882780F985AF8E2D86958F7086AFC801FB
:104690000E948422F80191AD8485913031F497AB6A
:1046A000882371F06FE770E106C0F80117AA88232C
:1046B00039F066E670E1C8018F5B9F4F0E947C2C49
:1046C0008F2D9E2D60960FB6F894DEBF0FBECDBF26
:1046D000DF91CF911F910F91FF90EF900895CF93AD
:1046E000DF93D62FC72F9A01462F572F60E070E037
:1046F0000E949122892B49F0ED2FFC2FDF0181913F
:10470000882329F08A33D1F702C0AD2FBC2F1C9229
:104710008D2F9C2FDF91CF910895CF93DF93CDB74D
:10472000DEB766970FB6F894DEBF0FBECDBF26E1A9
:1047300030E0AE014F5F5F4F60E070E00E94912279
:10474000892BC1F080E0E1E0F0E0EC0FFD1FE80F05
:10475000F11D9081992319F08F5F9A33A1F721E021
:1047600030E02C0F3D1F280F311DC9010E94951C00
:10477000CB0102C080E090E066960FB6F894DEBFF1
:104780000FBECDBFDF91CF9108959A01AB0163E0D9
:1047900070E00C9491229A01AB0164E070E00C94FB
:1047A00091221F93CF93DF93CDB7DEB72B970FB630
:1047B000F894DEBF0FBECDBF142F2BE030E0AE016A
:1047C0004F5F5F4F0E949122892B51F0CE010196DD
:1047D0001A3019F40E94951C06C00E94361C03C0B2
:1047E00060E070E0CB012B960FB6F894DEBF0FBEF1
:1047F000CDBFDF91CF911F910895CF93DF93CDB7B8
:10480000DEB760970FB6F894DEBF0FBECDBF20E1D4
:1048100030E0AE014F5F5F4F6CE070E00E9491228C
:10482000892BE1F143E050E060E470E1CE010196B4
:104830000E940932892B51F142E050E06DE370E1B2
:10484000CE0101960E940932892B11F146E050E019
:1048500066E370E1CE0101960E940932892BD1F006
:1048600045E050E060E370E1CE0101960E9409321C
:10487000892B91F046E050E069E270E1CE010196AB
:104880000E940932892B51F484E009C080E007C0FE
:1048900081E005C082E003C083E001C08FEF609635
:1048A0000FB6F894DEBF0FBECDBFDF91CF91089554
:1048B000CF92DF92EF92FF920F931F93CF93DF93EC
:1048C00000D000D0CDB7DEB77C018B016A0183E256
:1048D00090E19A8389838DE190E19C838B8324EF1F
:1048E00031E042E0BE016F5F7F4FC7010E94F71FBA
:1048F0008130F1F0811114C024EF31E0A601B8013C
:10490000C7010E94DB2081E4E80EF11C67E170E141
:10491000C7010E942C2CB801C7010E94A02C06C020
:10492000A6016DE070E1C8010E94173280E001C06D
:1049300081E00F900F900F900F90DF91CF911F911A
:104940000F91FF90EF90DF90CF900895AF92BF92BC
:10495000CF92DF92EF92FF920F93CF93DF93CDB779
:10496000DEB762970FB6F894DEBF0FBECDBF7C01F5
:104970005A016901698B7A8B0E946F2269897A8951
:10498000882309F463C0C7010E942C2CC114D104F0
:1049900019F160E2C7010E94111D0023C1F0570107
:1049A0008FE4A80EB11CF60164916623C1F1D70112
:1049B000ED91FC910190F081E02D603211F4D50170
:1049C0006C91C7010995BFEFCB1ADB0AECCFB6019A
:1049D000C7010E942C2C23C0A114B10401F160E294
:1049E000C7010E94111D0023B1F06701FFE4CF0E43
:1049F000D11CF50161915F01662389F0D701ED912A
:104A0000FC910190F081E02D603211F4D6016C919F
:104A1000C7010995EECFB501C7010E945F2C6DE07B
:104A2000C7010E94111D40E150E0BE016F5F7F4F42
:104A3000C7010E945824082F64EF71E0C7010E944B
:104A4000CD21C7010E948422802F01C080E06296A0
:104A50000FB6F894DEBF0FBECDBFDF91CF910F919F
:104A6000FF90EF90DF90CF90BF90AF900895CF92DE
:104A7000DF92EF92FF920F931F93CF93DF93CDB707
:104A8000DEB72B970FB6F894DEBF0FBECDBF7C010B
:104A90006B01CA01B901402F0BE010E09E012F5FAE
:104AA0003F4F0E94851B00E020E030E0AE014F5FE9
:104AB0005F4FB601C7010E94A6242B960FB6F8944B
:104AC000DEBF0FBECDBFDF91CF911F910F91FF9041
:104AD000EF90DF90CF9008951F93CF93DF93EC0179
:104AE0000E946F228823D9F067E070E1CE010E9416
:104AF0002C2C44EF51E06FEF7FE0CE010E94991F14
:104B0000882339F064EF71E0CE010E94CD2111E0DD
:104B100001C010E0CE010E948422812F01C080E0FC
:104B2000DF91CF911F9108950F939B0140E050E0DA
:104B30000AE06BE77FE00E9437250F9108950F93FD
:104B4000262F30E040E050E000E16BED7EE00E9477
:104B500037250F9108950C949F250F9300E020E0D6
:104B600030E040E050E06AE17EE00E94A6240F9130
:104B700008950F93AB0101E020E030E06CE07EE0AF
:104B80000E94A6240F9108950F931F93CF93DF9354
:104B9000EC01AB01FB0181818F7D883511F44E5F03
:104BA0005F4F00E020E030E061EF7DE0CE010E9449
:104BB000A624182FCE010E94AD25812FDF91CF9121
:104BC0001F910F9108950F931F93CF93DF93EC01E3
:104BD000AB0101E020E030E061EE7DE00E94A62420
:104BE000182FCE010E94AD25812FDF91CF911F910B
:104BF0000F91089540E16BE170E00E94D123862F70
:104C000008950F93CF93DF93EC011CAA1BAA1B8A74
:104C100000E020E030E040E050E060E472E10E941B
:104C2000A624811107C068E272E1CE018F5B9F4F1D
:104C30000E947C2C00E020E030E040E050E065E1A4
:104C400072E1CE010E94A624811107C068EF71E1D4
:104C5000CE018F5B9F4F0E947C2C00E020E030E073
:104C600040E050E066EE71E1CE010E94A624811181
:104C700007C06CEC71E1CE018F5B9F4F0E947C2CD2
:104C8000CE010E94D622CE010E94FD238B7F91E0AF
:104C900009F490E0988BCE010E94FA25C15BDF4FAA
:104CA0008883DF91CF910F910895CF93DF93EC012B
:104CB0000E946F22882301F167EF7FE0CE010E94FE
:104CC0002C2C44EF51E06EEE7FE0CE010E94991F44
:104CD000811104C0CE010E9484220EC068E873E1F5
:104CE00080E090E00E94A4281D861F861E86CE01CB
:104CF0000E94012681E001C080E0DF91CF910895FC
:104D00000F931F93CF93DF93EC018C010F5B1F4F29
:104D1000F801558744873297718360830E94F1219F
:104D2000811103C06FEA71E10AC0CE010E94012621
:104D3000CE010E94B820811107C063E971E1C8016A
:104D40000E947C2C80E001C081E0DF91CF911F9117
:104D50000F910895CF93DF93EC01E881F9810480EE
:104D6000F581E02D09958FA9DF91CF9108950F93DB
:104D70001F93CF93DF93EC018FA9882391F164EF08
:104D800071E0CE010E94C21DCE010E946F2265E338
:104D90007CE0CE010E942C2C44EF51E06EE27CE0DE
:104DA000CE010E94991F8E010F5B1F4F882351F087
:104DB000CE010E9484226CE17CE0C8010E947C2C20
:104DC0001FAA0FC063E07CE0C8010E947C2CCE01CA
:104DD0000E94D622CE010E9484228FA991E08927C9
:104DE00001C081E0DF91CF911F910F910895BF9293
:104DF000CF92DF92EF92FF920F931F93CF93DF93A7
:104E0000CDB7DEB765970FB6F894DEBF0FBECDBF46
:104E10007C016B018A01B22EFC0180AD8111BFC003
:104E2000C7010E946F22F70187A9882319F0C701E3
:104E30000E94B726B80180E090E004E110E09E01F6
:104E40002F5F3F4F4AE00E94851B87010F5B1F4F7A
:104E500062E37DE0C8010E942C2CB601C8010E94CB
:104E60005F2C60E2C8010E94612CBE016F5F7F4F22
:104E7000C8010E94A02C6CE27DE0C7010E942C2C8E
:104E8000B601C7010E945F2C68E573E0C7010E946C
:104E90005F2CBE016F5F7F4FC7010E945F2C6AE2EB
:104EA0007DE0C7010E942C2C64EF71E0C7010E94D5
:104EB000CD2181110BC065E17DE0C8010E947C2CF1
:104EC00060EF7CE0C8010E947C2CFFCFB11008C0CD
:104ED00081E0F70180AF64C0F7018485811135C09E
:104EE00040E157E2BE016B5E7F4FC7010E94181D73
:104EF000882309F44CC08D898A32C9F0833461F764
:104F0000898324EF31E043E150E0BE016E5F7F4FC3
:104F1000C7010E94DB2066ED7CE0C8010E942C2CBA
:104F2000BE016F5F7F4FC8010E94A02C35C044EFC7
:104F300051E06AEE7CE0C7010E94991F882361F16D
:104F400081E0F70187AB15862BC064EC7CE0C801DB
:104F50000E942C2C6D89772767FD709540E150E009
:104F6000C8010E94672D8D89992787FD90950E9421
:104F7000EB31892B41F060E2C8010E94612C6D8900
:104F8000C8010E94612CC8010E94682CA9CF6AEB5D
:104F90007CE0C8010E947C2CC7010E94842280E032
:104FA00065960FB6F894DEBF0FBECDBFDF91CF91EF
:104FB0001F910F91FF90EF90DF90CF90BF900895D9
:104FC000FC011382128248EE53E060E070E04483FB
:104FD0005583668377838EE693E09183808315867D
:104FE00014860895CF93DF93EC011B821A8248EE5A
:104FF00053E060E070E04C835D836E837F838EE5D9
:1050000093E099838883CE018F5B9F4F0E94E027B6
:105010001D861F861E861FAA18AE81E0888B898B8D
:105020001C86FE01E05BFF4F1182108232961182D6
:105030001082CC5ADF4F19821882DF91CF910895E8
:105040000F9300E020E040E060E08CEF94E00E94ED
:10505000C32B0F9108951F920F920FB60F92112438
:105060002F933F938F939F93AF93BF9380910305AB
:1050700090910405A0910505B091060530910205B7
:1050800023E0230F2D3720F40196A11DB11D05C08B
:1050900026E8230F0296A11DB11D209302058093DF
:1050A000030590930405A0930505B0930605809130
:1050B000070590910805A0910905B0910A05019690
:1050C000A11DB11D8093070590930805A0930905C4
:1050D000B0930A05BF91AF919F918F913F912F910E
:1050E0000F900FBE0F901F9018952FB7F8946091F6
:1050F00003057091040580910505909106052FBF69
:1051000008953FB7F8948091070590910805A09104
:105110000905B0910A0526B5A89B05C02F3F19F0D7
:105120000196A11DB11D3FBF6627782F892F9A2FA9
:10513000620F711D811D911D42E0660F771F881F50
:10514000991F4A95D1F70895CF92DF92EF92FF927F
:10515000CF93DF936B017C010E948128EB01C11486
:10516000D104E104F10489F00E94472F0E948128B4
:105170006C1B7D0B683E734090F381E0C81AD10828
:10518000E108F108C851DC4FEACFDF91CF91FF90E1
:10519000EF90DF90CF900895789484B5826084BDBD
:1051A00084B5816084BD85B5826085BD85B581602B
:1051B00085BDEEE6F0E0808181608083E1E8F0E08B
:1051C0001082808182608083808181608083E0E8BA
:1051D000F0E0808181608083E1EBF0E08081846099
:1051E0008083E0EBF0E0808181608083EAE7F0E09B
:1051F00080818460808380818260808380818160FF
:1052000080838081806880831092C10008958330FC
:1052100081F028F4813099F08230A1F00895873030
:10522000A9F08830B9F08430D1F4809180008F7D6E
:1052300003C0809180008F7780938000089584B5AB
:105240008F7702C084B58F7D84BD08958091B000B2
:105250008F7703C08091B0008F7D8093B000089558
:10526000CF93DF9390E0FC01EC55FC4E2491FC01C0
:10527000E854FC4E8491882349F190E0880F991FEF
:10528000FC01E052FC4EA591B4918A529C4EFC0167
:10529000C591D4919FB7611108C0F8948C91209565
:1052A00082238C93888182230AC0623051F4F8945F
:1052B0008C91322F309583238C938881822B888325
:1052C00004C0F8948C91822B8C939FBFDF91CF9177
:1052D00008950F931F93CF93DF931F92CDB7DEB73F
:1052E000282F30E0F901E057FC4E8491F901EC558C
:1052F000FC4E1491F901E854FC4E04910023C9F0CE
:10530000882321F069830E9407296981E02FF0E05A
:10531000EE0FFF1FEA52FC4EA591B4919FB7F8948F
:105320008C91611103C01095812301C0812B8C9356
:105330009FBF0F90DF91CF911F910F910895FC01B6
:10534000818D228D90E0805C9F4F821B91098F732D
:1053500099270895FC01918D828D981731F0828DE7
:10536000E80FF11D858D90E008958FEF9FEF089570
:10537000FC01918D828D981761F0828DDF01A80F5D
:10538000B11D5D968C91928D9F5F9F73928F90E07F
:1053900008958FEF9FEF08958CE39BE2892B49F0EE
:1053A00080E090E0892B29F00E943C2B81110C9425
:1053B00000000895FC01848DDF01A80FB11DA35AE0
:1053C000BF4F2C91848D90E001968F739927848F25
:1053D000A689B7892C93A089B1898C9180648C931C
:1053E000938D848D981306C00288F389E02D808107
:1053F0008F7D80830895CF93DF93EC01888D882380
:10540000C9F0EA89FB89808185FD05C0A889B98931
:105410008C9186FD0FC00FB607FCF5CF808185FF0C
:10542000F2CFA889B9898C9185FFEDCFCE010E947A
:10543000DA29E7CFDF91CF910895CF92DF92FF92E3
:105440000F931F93CF93DF931F92CDB7DEB76C01FD
:10545000DC015B969C915B975C968C915C979813B2
:1054600007C05096ED91FC915197808185FD32C027
:10547000F601038D10E00F5F1F4F0F731127F02E01
:10548000F601848DF81211C00FB607FCF9CFD601D2
:105490005096ED91FC915197808185FFF1CFC60127
:1054A00069830E94DA296981EBCF838DE80FF11DB2
:1054B000E35AFF4F6083D6015B960C935B9752963D
:1054C000ED91FC91539780818062808381E05896B2
:1054D0008C930DC0D6015696ED91FC915797608341
:1054E0005096ED91FC91519780818064808381E09A
:1054F00090E00F90DF91CF911F910F91FF90DF907F
:10550000CF900895BF92CF92DF92EF92FF92CF9308
:10551000DF93EC016A017B01B22EE889F98982E010
:105520008083411581EE580761057105A1F060E0A7
:1055300079E08DE390E0A70196010E94702F215041
:1055400031094109510956954795379527952115F8
:1055500080E1380798F0E889F989108260E874E8FA
:105560008EE190E0A70196010E94702F2150310931
:10557000410951095695479537952795EC85FD8545
:105580003083EE85FF852083188EEC89FD89B082FB
:10559000EA89FB89808180618083EA89FB89808137
:1055A00088608083EA89FB89808180688083EA89BA
:1055B000FB8980818F7D8083DF91CF91FF90EF9079
:1055C000DF90CF90BF9008951F920F920FB60F9269
:1055D00011242F938F939F93EF93FF93E0911B05DB
:1055E000F0911C058081E0912105F091220582FD5A
:1055F00012C09081809124058F5F8F7320912505C3
:10560000821751F0E0912405F0E0E55FFA4F958FA5
:105610008093240501C08081FF91EF919F918F912C
:105620002F910F900FBE0F901F9018951F920F9201
:105630000FB60F9211242F933F934F935F936F9365
:105640007F938F939F93AF93BF93EF93FF938BE0E1
:1056500095E00E94DA29FF91EF91BF91AF919F9160
:105660008F917F916F915F914F913F912F910F900B
:105670000FBE0F901F9018958BE095E00E949F2918
:1056800021E0892B09F420E0822F089510920E0565
:1056900010920D0588EE93E0A0E0B0E080930F0536
:1056A00090931005A0931105B09312058EEE93E030
:1056B00090930C0580930B0585EC90E09093180572
:1056C0008093170584EC90E090931A058093190558
:1056D00080EC90E090931C0580931B0581EC90E09A
:1056E00090931E0580931D0582EC90E09093200519
:1056F00080931F0586EC90E090932205809321050E
:105700001092240510922505109226051092270567
:105710000895AF92BF92CF92DF92EF92FF920F93D4
:105720001F93CF93DF936C017B01C0E0D0E000E0DA
:1057300010E0F601EC0FFD1F4AE050E06281C70166
:105740000E94942D5C016EE2C7010E94612C8A0DBB
:105750009B1D080F191F2196C330D10551F74AE050
:1057600050E0F6016581C7010E94942D800F911FC2
:10577000DF91CF911F910F91FF90EF90DF90CF902D
:10578000BF90AF9008950F93FC018EEF93E091834B
:10579000808362834383248305830F9108958EEF72
:1057A00093E09093A9058093A8051092AA05109202
:1057B000AB051092AC051092AD05089508950E94B6
:1057C000CC280E94DE2B0E94EE13CCECD9E20E9482
:1057D00041152097E1F30E94CC29F9CFCF92DF92B7
:1057E000EF92FF920F931F93CF93DF936C017A0197
:1057F000EB01E60EF71E00E010E0CE15DF0561F0CC
:105800006991D601ED91FC910190F081E02DC601E6
:105810000995080F191FF1CFC801DF91CF911F9192
:105820000F91FF90EF90DF90CF9008956115710573
:1058300081F0DB010D900020E9F7AD0141505109E5
:10584000461B570BDC01ED91FC910280F381E02DAA
:10585000099480E090E00895EF92FF920F931F93D8
:10586000CF93DF938C01FB01C0E0D0E064917F0116
:105870008FEFE81AF80A662361F0D801ED91FC91E8
:105880000190F081E02DC8010995C80FD91FF701DB
:10589000EDCFCE01DF91CF911F910F91FF90EF904F
:1058A0000895DC01ED91FC91DB0114964D915C9122
:1058B00015976D917C910280F381E02D09940C94F1
:1058C000162CDC01ED91FC910190F081E02D099402
:1058D0000F931F93CF93DF93EC016DE00E94612C37
:1058E0008C016AE0CE010E94612C800F911FDF9134
:1058F000CF911F910F9108950F931F93CF93DF9333
:10590000EC010E942C2C8C01CE010E94682C800F8F
:10591000911FDF91CF911F910F9108950F931F93C6
:10592000CF93DF93EC010E94512C8C01CE010E9499
:10593000682C800F911FDF91CF911F910F910895D7
:105940000F931F93CF93DF93EC010E94162C8C01D1
:10595000CE010E94682C800F911FDF91CF911F9183
:105960000F9108950F931F93CF93DF93EC010E9443
:10597000612C8C01CE010E94682C800F911FDF9159
:10598000CF911F910F9108958F929F92AF92BF92E6
:10599000CF92DF92EF92FF920F931F93CF93DF93FB
:1059A000CDB7DEB7A1970FB6F894DEBF0FBECDBF5F
:1059B0007C01C42EE52FCB01D22E19A221E02D159A
:1059C00010F02AE0D22E8E010F5D1F4F8D2C912CEE
:1059D000A12CB12C6C2D7E2FA50194010E94702F5B
:1059E0008C2DD29E80191124015011098A3014F493
:1059F000805D01C0895CF801808321153105410576
:105A0000510521F0C22EE32FCA01E4CFB801C7012E
:105A10000E94162CA1960FB6F894DEBF0FBECDBF24
:105A2000DF91CF911F910F91FF90EF90DF90CF907A
:105A3000BF90AF909F908F900895CF92DF92EF929A
:105A4000FF920F931F93CF93DF93EC016A017B01C9
:105A50002115310579F4E881F9810190F081E02D7B
:105A6000642FDF91CF911F910F91FF90EF90DF9006
:105A7000CF9009942A303105E9F477FF1AC06DE21E
:105A80000E94612C8C0144275527BA014C195D09ED
:105A90006E097F092AE0CE010E94C42C800F911F5D
:105AA000DF91CF911F910F91FF90EF90DF90CF90FA
:105AB00008952AE0B701A601CE01DF91CF911F9191
:105AC0000F91FF90EF90DF90CF900C94C42C9A012F
:105AD000AB01662757FD6095762F0C941D2D0F9313
