:100000000C9475070C949D070C949D070C94352A4D
:100010000C94352A0C94352A0C949D070C949D075A
:100020000C949D070C949D070C949D070C949D07C0
:100030000C949D070C949D070C949D070C949D07B0
:100040000C94C62B0C949D070C94E82E0C941A2F3C
:100050000C949D070C949D070C949D070C949D0790
:100060000C949D070C949D074175746F73746172B5
:10007000743A20003A000A0D5265626F6F74696E1F
:100080006720576946692E2E2E000A0D5265626F51
:100090006F74204D6963726F56696577202620570B
:1000A00069466920746F20736574206E65772070CF
:1000B0006F72742E0045736361706521000D0A50E4
:1000C0007265737320616E79206B657920746F207F
:1000D00063616E63656C2E2E2E004175746F2D6307
:1000E0006F6E6E656374696E6720746F3A0D0A00F7
:1000F000576966693A256C640A0A4336343A202502
:100100006C6400576966693A256C640A0A433634A0
:100110003A20256C640A0A5254533A20256C640034
:100120002A2A2A205465726D696E616C204D6F64B5
:10013000652028446562756729202A2A2A00436FB2
:100140006E6E656374696F6E20636C6F73656400B7
:10015000436F6E6E656374204661696C656421004F
:10016000436F6E6E656374656420746F2025730041
:10017000436F756C64206E6F74207265736F6C765C
:100180006520444E532E2020436F6E6E65637420AD
:100190004661696C656421000D0A436F6E6E65638C
:1001A00074696E6720746F20257300712D6C696E01
:1001B0006B2E6E6574003535353132313300716C1C
:1001C000696E6B2E6C796F6E6C6162732E6F7267E5
:1001D000003535353132313200293A20000D0A50D0
:1001E0006F7274202800293A20000D0A54656C6E45
:1001F000657420686F7374202800496E636F6D69A1
:100200006E6720436F6E6E656374696F6E00436145
:100210006E63656C6C6564000D0A57616974696E84
:100220006720666F7220636F6E6E656374696F6EB0
:10023000206F6E20706F72742000293A20000D0A22
:10024000496E636F6D696E6720706F72742028004D
:10025000535349440A0A257300495020416464728B
:10026000657373200A2573004261756420526174BE
:10027000650A0A2575004669726D776172650A0A1A
:100280002573004C697374656E20706F72743A2028
:10029000004669726D776172653A20202020005710
:1002A000692D466920535349443A20200049502083
:1002B000416464726573733A2020004D41432041CC
:1002C0006464726573733A2000202844656C20745E
:1002D0006F2073776974636829004153434949204B
:1002E0004D6F6465000D0A456E7472792023207489
:1002F0006F2073657420746F206175746F2D737433
:100300006172743F0D0A283020746F206469736134
:10031000626C65293A20000D0A41726520796F757B
:1003200020737572652028792F6E293F20000D0AF1
:10033000456E74657220616464726573733A20005F
:100340000D0A456E747279202320746F206D6F64DE
:100350006966793F20283020746F2061626F727463
:10036000293A20000D0A53656C6563743A20232CEA
:10037000206D20746F206D6F646966792C20632076
:10038000746F20636C65617220616C6C0D0A612072
:10039000746F20736574206175746F2D737461724E
:1003A000742C203020746F20676F206261636B3A79
:1003B00020000D0A4572726F72206A6F696E696E55
:1003C00067206E6574776F726B000D0A5353494452
:1003D000205375636365737366756C6C792063680D
:1003E000616E67656400535349443A00506173730A
:1003F0007068726173653A004B65793A00556E6BAF
:100400006E6F776E206F7074696F6E2C20747279C6
:1004100020616761696E000D0A4368616E6765203F
:10042000535349440D0A0D0A312E205745500D0AE9
:10043000322E20575041202F20575041320D0A3381
:100440002E2052657475726E20746F20436F6E6635
:10045000696775726174696F6E204D656E750D0AFE
:100460000D0A53656C6563743A2000556E6B6E6FB0
:10047000776E206F7074696F6E2C207472792061B2
:100480006761696E00352E2044697265637420547B
:1004900065726D696E616C204D6F646520284465DE
:1004A000627567290D0A362E2052657475726E20AA
:1004B000746F204D61696E204D656E750D0A0D0AD1
:1004C00053656C6563743A2000342E2025732044F4
:1004D000434420616C77617973206F6E00332E2066
:1004E000257320666C6F7720636F6E74726F6C007B
:1004F0000D0A436F6E66696775726174696F6E206D
:100500004D656E750D0A0D0A312E20446973706CAD
:1005100061792043757272656E7420436F6E6669EF
:100520006775726174696F6E0D0A322E20436861BF
:100530006E676520535349440D0A00556E6B6E6F0C
:10054000776E206F7074696F6E2C207472792061E1
:100550006761696E00312E2054656C6E657420747D
:100560006F20686F7374206F72204242530D0A32FD
:100570002E2050686F6E6520426F6F6B0D0A332E10
:10058000205761697420666F7220696E636F6D69B0
:100590006E6720636F6E6E656374696F6E0D0A34EB
:1005A0002E20436F6E66696775726174696F6E0D98
:1005B0000A0D0A53656C6563743A20005245414444
:1005C000592E000D0A436F6D6D6F646F7265205771
:1005D000692D4669204D6F64656D0057692D466928
:1005E000204661696C6564210057692D4669204F7A
:1005F0004B210057692D466920496E69742E2E2EB5
:1006000000256C6400426175640A44657465637416
:10061000696F6E00636C6F73653A206661696C6523
:10062000642C206E6F202A434C4F532A002A434CDF
:100630004F532A00636C6F73650D00636C6F7365B5
:100640003A206661696C65642C206E6F202A434CE9
:100650004F532A002A434C4F532A00636C6F736533
:100660000D004F50454E2A00302E302E302E3000D7
:100670004F50454E2A000D006F70656E2000736567
:100680007420752069006C656176650D0047573DE3
:10069000000D006A6F696E20004173736F636961BA
:1006A00074656421004641494C45440073657420DB
:1006B000776C616E20706872617365007365742079
:1006C000776C616E206B65790073657420776C615F
:1006D0006E20737369640073657420776C616E209B
:1006E00068696465203100736574207561727420D7
:1006F0006D6F64650073657420697020666C616756
:1007000073007365742069702070726F746F636F0B
:100710006C00736574206970206468637000736591
:10072000742069702072656D6F7465007365742044
:10073000697020686F737400736574206970206835
:100740006F737400736574206970206C6F63616CE3
:10075000706F72740073657420776C616E206A6FBD
:10076000696E002A5265626F6F742A007265626F4B
:100770006F740D0053746F72696E670073617665F4
:100780000D003C74696D656F75743E00414F4B0DF3
:100790000A004552523A20005345525645520043F2
:1007A00041434845004155544F4950004F4E004F7A
:1007B0004646006C6F6F6B7570200047573D000D0B
:1007C00000736C6565700D00736574207379732018
:1007D00077616B650073686F7720630D004558493A
:1007E000540D0A00657869740D00434D440D0A00EC
:1007F00024242400434D440D0A00242424002A4FBD
:1008000050454E2A002A434C4F532A0073657420EA
:10081000636F6D6D2072656D6F7465203000736558
:100820007420737973207072696E746C766C2030EA
:10083000007365742075206D2031005265706C6105
:1008400063653D005478506F7765723D0052617466
:10085000653D004A6F696E3D005265626F6F743D81
:100860000050726F62653D00426561636F6E3D00CE
:10087000676574206164686F630D0050524F544F78
:100880003D00464C4147533D307800525353493D5B
:10089000282D0073686F7720727373690D00466CA2
:1008A00075736853697A653D004D61746368436888
:1008B00061723D00466C75736854696D65723D00E8
:1008C00067657420636F6D6D0D004D6F64653D004D
:1008D0005254433D0073686F77207420740D0041BB
:1008E0006464726573733D0067657420646E730D94
:1008F0000054696D653D00557054696D653D007328
:10090000686F772074696D650D005A6F6E653D00E4
:100910006765742074696D650D004261756472616C
:1009200074653D0067657420750D004465766963E4
:100930006549643D00676574206F70740D00535302
:1009400049443D0067657420776C616E0D004D6110
:100950006320416464723D00676574206D61630DBE
:1009600000444843503D00484F53543D0047573DD5
:10097000004E4D3D0049503D006765742069700D83
:1009800000050800FF0C4B00000000003E5B4F5BC1
:100990003E3E6B4F6B3E1C3E7C3E1C183C7E3C1822
:1009A0001C577D571C1C5E7F5E1C00183C1800FF06
:1009B000E7C3E7FF0018241800FFE7DBE7FF304834
:1009C0003A060E2629792926407F050507407F052E
:1009D000253F5A3CE73C5A7F3E1C1C08081C1C3E25
:1009E0007F14227F22145F5F005F5F06097F017F13
:1009F000006689956A606060606094A2FFA29408B6
:100A0000047E040810207E201008082A1C08081CF8
:100A10002A08081E101010100C1E0C1E0C30383E38
:100A20003830060E3E0E06000000000000005F0099
:100A3000000007000700147F147F14242A7F2A1265
:100A4000231308646236495620500008070300004B
:100A50001C2241000041221C002A1C7F1C2A08087D
:100A60003E08080080703000080808080800006090
:100A7000600020100804023E5149453E00427F407C
:100A80000072494949462141494D331814127F10DB
:100A900027454545393C4A49493141211109073625
:100AA00049494936464949291E00001400000040C2
:100AB00034000000081422411414141414004122BC
:100AC000140802015909063E415D594E7C1211126B
:100AD0007C7F494949363E414141227F4141413E67
:100AE0007F494949417F090909013E414151737FCD
:100AF0000808087F00417F41002040413F017F08F6
:100B00001422417F404040407F021C027F7F040846
:100B1000107F3E4141413E7F090909063E41512176
:100B20005E7F09192946264949493203017F01039D
:100B30003F4040403F1F2040201F3F4038403F6320
:100B40001408146303047804036159494D43007F7A
:100B50004141410204081020004141417F0402014B
:100B600002044040404040000307080020545478ED
:100B7000407F284444383844444428384444287F3B
:100B8000385454541800087E090218A4A49C787F95
:100B90000804047800447D40002040403D007F1060
:100BA00028440000417F40007C047804787C0804DD
:100BB00004783844444438FC182424181824241891
:100BC000FC7C08040408485454542404043F44247E
:100BD0003C4040207C1C2040201C3C4030403C4499
:100BE000281028444C9090907C4464544C44000855
:100BF0003641000000770000004136080002010283
:100C000004023C2623263C1EA1A161123A4040204A
:100C10007A385454555921555579412154547841C5
:100C2000215554784020545579400C1E5272123987
:100C30005555555939545454593955545458000040
:100C4000457C410002457D420001457C40F029245D
:100C500029F0F0282528F07C545545002054547C78
:100C6000547C0A097F49324949493232484848325E
:100C7000324A4848303A4141217A3A42402078008D
:100C80009DA0A07D39444444393D4040403D3C2432
:100C9000FF2424487E4943662B2FFC2F2BFF092974
:100CA000F620C0887E090320545479410000447D19
:100CB000413048484A32384040227A007A0A0A7263
:100CC0007D0D19317D2629292F282629292926300D
:100CD000484D4020380808080808080808382F1030
:100CE000C8ACBA2F102834FA00007B000008142A80
:100CF000142222142A1408AA005500AAAA55AA559B
:100D0000AA000000FF00101010FF00141414FF00D0
:100D10001010FF00FF1010F010F0141414FC001459
:100D200014F700FF0000FF00FF1414F404FC141477
:100D300017101F10101F101F1414141F0010101074
:100D4000F0000000001F101010101F10101010F005
:100D500010000000FF101010101010101010FF10E5
:100D6000000000FF140000FF00FF00001F1017002C
:100D700000FC04F414141710171414F404F4000005
:100D8000FF00F714141414141414F700F7141414B7
:100D9000171410101F101F141414F4141010F01056
:100DA000F000001F101F0000001F14000000FC14C2
:100DB0000000F010F01010FF10FF141414FF1410B6
:100DC00010101F00000000F010FFFFFFFFFFF0F009
:100DD000F0F0F0FFFFFF0000000000FFFF0F0F0F1B
:100DE0000F0F38444438447C2A2A3E147E020206FF
:100DF00006027E027E0263554941633844443C0446
:100E0000407E201E2006027E020299A5E7A5991CBD
:100E10002A492A1C4C7201724C304A4D4D303048E0
:100E2000784830BC625A463D3E494949007E01013E
:100E3000017E2A2A2A2A2A44445F444440514A44D3
:100E40004040444A51400000FF0103E080FF0000A1
:100E500008086B6B083612362436060F090F060099
:100E60000018180000001010003040FF0101001FA2
:100E700001011E00191D1712003C3C3C3C00000003
:100E80000000000000080002010000030407000049
:100E90000000000000000102040810204080010250
:100EA00004081020010204081020040404040404AF
:100EB000040402020202020203030303030300000C
:100EC0000000230026002900000000002500280063
:100ED0002B0000000000240027002A00120D6726C6
:100EE00072263729402FC92F470D11241FBECFEF7F
:100EF000D8E0DEBFCDBF13E0A0E0B1E0EEEAF4E75A
:100F000002C005900D92A839B107D9F725E0A8E9EC
:100F1000B3E001C01D92A935B207E1F71EE0C8EEAB
:100F2000DEE004C02297FE010E943534CC3DD1079B
:100F3000C9F70E94DA160C944A3A0C940000CF923A
:100F4000DF92EF92FF920F931F93E82FF92F05C0C6
:100F5000015011092109310961F1908196239417FB
:100F6000B9F305C0015011092109310911F190812E
:100F700096239413F7CFC12CD12CE12CF12C0AC06D
:100F80008FEFC81AD80AE80AF80A0C151D052E05B5
:100F90003F0579F080818623841791F36C2D7D2D98
:100FA0008E2D9F2D1F910F91FF90EF90DF90CF908E
:100FB000089560E070E080E090E01F910F91FF9055
:100FC000EF90DF90CF9008950C94543941E026B112
:100FD00025FB882780F990E020910601242730E046
:100FE0008217930739F42091B0002F7D2093B00031
:100FF0005B9AEDCF8091B0008F7D8093B0005B98BD
:101000000895CF93DF93EC0160E086E594E00E94C1
:101010007F2840E060E086E594E00E948126BE01E2
:1010200086E594E00E94663086E594E0DF91CF91FA
:101030000C948E28CF93DF93EC0160E086E594E07A
:101040000E947F2840E060E086E594E00E948126CF
:10105000BE0186E594E00E94783086E594E0DF9159
:10106000CF910C948E28CF93DF9300D000D000D086
:10107000CDB7DEB720919803222399F0FC0160815F
:101080007181CE0101960E946E19BE016F5F7F4F84
:1010900089E094E00E943930CE0101960E949E3191
:1010A00005C0BC0189E094E00E94393026960FB655
:1010B000F894DEBF0FBECDBFDF91CF910895CF93DF
:1010C000DF9300D000D000D0CDB7DEB7BC01CE0199
:1010D00001960E949032CE0101960E943308CE0103
:1010E00001960E949E3189E094E00E94503026963D
:1010F0000FB6F894DEBF0FBECDBFDF91CF9108953C
:101100000F931F93CF93DF9300D000D000D0CDB7C3
:10111000DEB78C01BC01CE0101960E949032CE0157
:1011200001960E945F08CE0101960E949E314AE01E
:1011300060E2C8010E945133B801CE0101960E94BD
:101140009032CE0101960E940108CE0101960E94C4
:101150009E3126960FB6F894DEBF0FBECDBFDF914D
:10116000CF911F910F910895CF93DF9300D000D0BE
:1011700000D0CDB7DEB7BC0180919803882381F001
:10118000CE0101960E946E19BE016F5F7F4F89E00C
:1011900094E00E943930CE0101960E949E3104C035
:1011A00089E094E00E94473026960FB6F894DEBF9F
:1011B0000FBECDBFDF91CF9108950E94B40889E0A2
:1011C00094E00C945030CF93DF9300D000D000D047
:1011D000CDB7DEB7BC01CE0101960E940C328981E9
:1011E0009A810E94DD084AE060E2CE0101960E94E9
:1011F000513389819A810E941A08CE0101960E947A
:101200009E3126960FB6F894DEBF0FBECDBFDF919C
:10121000CF91089589E094E00C945030CF93DF9300
:10122000CDB7DEB767970FB6F894DEBF0FBECDBF60
:101230000E940A0980919803882389F087E1EFE8EA
:10124000F2E0DE01119601900D928A95E1F7BE0160
:101250006F5F7F4F89E094E00E94473006C06AEDDF
:1012600072E089E094E00E94163069EC72E0CE01F1
:1012700001960E94C632CE0101960E945F08CE01FF
:1012800001960E949E310E940A0967960FB6F89453
:10129000DEBF0FBECDBFDF91CF910895883041F002
:1012A000843131F091E08F3709F090E0892F089573
:1012B00081E00895BF92CF92DF92EF92FF920F9359
:1012C0001F93CF93DF93CDB7DEB7CA56D1090FB6C0
:1012D000F894DEBF0FBECDBFB82E0E940A098EEA79
:1012E00093E00E94E82044E150E0BE016F5A7F4F36
:1012F0008EEA93E00E9420216E018DE3C80ED11C7E
:1013000044E150E0B6018EEA93E00E94CA207E01DB
:1013100099E2E90EF11C44E150E0B7018EEA93E056
:101320000E9426218EEA93E00E94E82090939A037F
:10133000809399036BEB72E08E010F5F1F4FC80122
:101340000E94C632C8010E943308C8010E949E3123
:10135000BE016F5A7F4FC8010E940C32C8010E9423
:101360005F08C8010E949E316DEA72E0C8010E94C8
:10137000C632C8010E943308C8010E949E31B601DE
:10138000C8010E940C32C8010E945F08C8010E9477
:101390009E316FE972E0C8010E94C632C8010E9406
:1013A0003308C8010E949E31B701C8010E940C3267
:1013B000C8010E945F08C8010E949E3161E972E085
:1013C000C8010E94C632C8010E943308C8010E94A9
:1013D0009E3168EA72E0C8010E940C32C8010E9486
:1013E0005F08C8010E949E3163E872E0C8010E9454
:1013F000C632C8010E943308C8010E949E31609124
:10140000990370919A034AE050E089E094E00E94C9
:101410003F3189E094E00E945030BB2009F48BC03A
:1014200088EA92E09F938F9386E792E09F938F9351
:101430001F930F930E946037B801CE018B599F4FC5
:101440000E940C32CE018B599F4F0E940108CE01A1
:101450008B599F4F0E949E3168EE73E080E090E0D0
:101460000E943F2C80910C018F9380910B018F93F0
:1014700088E692E09F938F931F930F930E946037AB
:10148000B801CE018B599F4F0E940C32CE018B596F
:101490009F4F0E940108CE018B599F4F0E949E31A1
:1014A00068EE73E080E090E00E943F2CDF92CF92E4
:1014B00089E592E09F938F931F930F930E9460376B
:1014C000B801CE018B599F4F0E940C32CE018B592F
:1014D0009F4F0E940108CE018B599F4F0E949E3161
:1014E00068EE73E080E090E00E943F2CFF92EF9264
:1014F00080E592E09F938F931F930F930E94603734
:10150000B801CE018B599F4F0E940C32CE018B59EE
:101510009F4F0E940108CE018B599F4F0E949E3120
:1015200068EE73E080E090E00E943F2C0FB6F894E4
:10153000DEBF0FBECDBFC659DF4F0FB6F894DEBF7A
:101540000FBECDBFDF91CF911F910F91FF90EF9014
:10155000DF90CF90BF900895CF9380919D03882313
:1015600081F0C1E04A9B07C0609106016C278FE0C3
:101570000E94042DF7CF609106018FE0CF910C946B
:10158000042DCF910895CF93DF93EC01E881F98189
:101590000480F581E02DCE010995892BB9F3E8810E
:1015A000F9810680F781E02DCE01DF91CF9109947A
:1015B0008F929F92AF92BF92CF92DF92EF92FF9263
:1015C000CF93DF93EC014B010E94102C6B017C0147
:1015D000A12CB12CE881F9810480F581E02DCE01A8
:1015E0000995892BC1F40E94102C6C197D098E0974
:1015F0009F0986169706A806B90660F78FEF9FEF3A
:10160000DF91CF91FF90EF90DF90CF90BF90AF90A0
:101610009F908F900895E881F9810084F185E02DF5
:10162000CE01DF91CF91FF90EF90DF90CF90BF90F0
:10163000AF909F908F900994CF92DF92EF92FF929C
:10164000CF93C82F0E94102C6B017C010E94102C9C
:10165000685B7B40810991096C157D058E059F05AE
:1016600008F473C08C2F0E943A2D892B79F720E45F
:1016700032E44FE050E060E08C2F0E94632D6C302C
:10168000710581059105A4F164317105810591050C
:10169000A4F16D31710581059105A4F168327105E0
:1016A00081059105A4F16C33710581059105A4F1C3
:1016B0006035710581059105A4F1663971058105D3
:1016C0009105A4F16C3221E07207810591059CF12E
:1016D000683522E072078105910594F1603B744002
:1016E0008105910594F560EB74E080E090E030C0F6
:1016F00060E072EC81E090E02BC060E071EE80E091
:1017000090E026C060E076E980E090E021C060E8EB
:1017100070E780E090E01CC060E07BE480E090E057
:1017200017C060E478E380E090E012C060E875E202
:1017300080E090E00DC060EC72E180E090E008C0D5
:1017400060E679E080E090E003C060E070E0CB010B
:10175000CF91FF90EF90DF90CF9008950F931F935C
:10176000CF93DF931F92CDB7DEB78C0169830E94C0
:10177000E4076981861741F0C8010F90DF91CF918E
:101780001F910F910C945C390F90DF91CF911F91B5
:101790000F91089580939803682F80E090E00C9457
:1017A000AE0BEF92FF920F931F93CF93DF937C01C9
:1017B0008B01C0E0D0E0D801ED91FC91EC0FFD1F52
:1017C0006081CE018E0D9F1D0E945C392196C6322C
:1017D000D10589F7DF91CF911F910F91FF90EF9085
:1017E0000895AF92BF92CF92DF92EF92FF920F9344
:1017F0001F93CF93DF93CDB7DEB7A8970FB6F894BA
:10180000DEBF0FBECDBF6C017B018E010F5F1F4F8E
:101810005E0187E2A80EB11CB801E01AF10AC70107
:10182000800F911F6FA378A70E94E407F8018193AE
:101830008F016FA178A5EA15FB0589F7C6010E9403
:101840000C32C601A8960FB6F894DEBF0FBECDBF0E
:10185000DF91CF911F910F91FF90EF90DF90CF908C
:10186000BF90AF900895FC012191222331F0DC015B
:101870002C932032C9F30196F7CFFC011082089512
:1018800090919C03913019F091E09827892F90E076
:101890000895EF92FF920F931F93CF93DF9300D0A1
:1018A00000D000D0CDB7DEB784E6E82EF12C00E002
:1018B00010E00F5F1F4F4AE050E0B80189E094E06C
:1018C0000E943F3164E770E0CE0101960E94C6326B
:1018D000CE0101960E943308CE0101960E949E31EE
:1018E000B701CE0101960E94F10BCE0101960E9434
:1018F0005F08CE0101960E949E3188E2E80EF11C3D
:1019000009301105B1F60E940A0968E670E0CE01BF
:1019100001960E94C632CE0101960E943308CE0184
:1019200001960E949E3183E690E00E94E4074AE01F
:1019300050E0682F89E094E00E946C310E940A090F
:1019400026960FB6F894DEBF0FBECDBFDF91CF91C4
:101950001F910F91FF90EF90089567E18EEA93E059
:101960000E94552362E08EEA93E00C9453230F9378
:101970001F93CF93DF9300D000D000D0CDB7DEB758
:101980008C018091990390919A0380179107F1F14E
:10199000B8018EEA93E00E943C238EEA93E00E9415
:1019A000142310939A030093990380910901909155
:1019B0000A018036994081F06AE870E0CE01019614
:1019C0000E94C632CE0101960E945F08CE010196A8
:1019D0000E949E3181E01BC066E770E0CE01019657
:1019E0000E94C632CE0101960E945F08CE01019688
:1019F0000E949E318EEA93E00E94042468E873E11D
:101A000080E090E00E943F2C0E94AD0C80E0269682
:101A10000FB6F894DEBF0FBECDBFDF91CF911F91FF
:101A20000F9108950F9300E020E040E060E088E22D
:101A300094E00E94BD2F20E046E065E089E094E05C
:101A40000E94082B8EEA93E00E94392668E873E032
:101A500088EA93E00E940C3241E020910B01309122
:101A60000C018091090190910A012817390709F4A6
:101A700040E040939E0380E090E00E94E40791E004
:101A8000811101C090E0909398030F91089588EA26
:101A900093E00E949E3189E094E00C94AF2ADF929B
:101AA000EF92FF920F931F93CF93DF93CDB7DEB7E3
:101AB000E2970FB6F894DEBF0FBECDBF7C0100E009
:101AC00010E089E094E00E94C30AD82E0E944E09DB
:101AD000811115C0E1E0F0E0EC0FFD1FE00FF11FF8
:101AE000D0826D2D89E094E00E9463298DE0D816A4
:101AF00089F00133110574F40F5F1F4FE2CF011518
:101B00001105F9F26D2D89E094E00E9463290150DE
:101B10001109D7CFE1E0F0E0EC0FFD1FE00FF11F5E
:101B20001082BE016F5F7F4FC7010E940C32C70158
:101B3000E2960FB6F894DEBF0FBECDBFDF91CF9116
:101B40001F910F91FF90EF90DF9008950F931F93D7
:101B5000CF93DF9300D000D000D0CDB7DEB78C019B
:101B6000CE0101960E944F0DCE0101960E945F3377
:101B700080919803882331F069817A81C8010E949D
:101B8000241906C0BE016F5F7F4FC8010E947931E2
:101B9000CE0101960E949E31C80126960FB6F89498
:101BA000DEBF0FBECDBFDF91CF911F910F91089582
:101BB0000F931F93CF93DF93CDB7DEB72C970FB65C
:101BC000F894DEBF0FBECDBF67E174E0CE01019691
:101BD0000E94C632CE0101960E943308CE010196C2
:101BE0000E949E3189E094E00E94C30A8C01682F14
:101BF00089E094E00E948A3004311105E1F05CF440
:101C00000A30110509F30D301105F1F20830110504
:101C1000B1F480E011C001331105F1F024F4003279
:101C2000110591F20CC002331105C9F003331105FF
:101C300009F4C4C004C081E00E94CA0BC5CF6DEF97
:101C400073E0CE0101960E94C632CE0101960E9439
:101C50005F08CE010196AFC001E010E002C000E0D5
:101C600010E00E940A0968E873E0CE0107960E941E
:101C70000C320130110521F568EF73E0CE010196B9
:101C80000E94C632CE0101960E943308CE01019611
:101C90000E949E31CE0101960E94A60DBE016F5F8B
:101CA0007F4FCE0107960E949932CE0101960E9485
:101CB0009E316F8178858EEA93E00E94782323C05D
:101CC0006CEE73E0CE0101960E94C632CE01019601
:101CD0000E943308CE0101960E949E31CE010196EA
:101CE0000E94A60DBE016F5F7F4FCE0107960E9436
:101CF0009932CE0101960E949E316F8178858EEADD
:101D000093E00E9497230E940A0966EE73E0CE01D9
:101D100001960E94C632CE0101960E943308CE0180
:101D200001960E949E31CE0101960E94A60DBE0131
:101D30006F5F7F4FCE0107960E949932CE010196C8
:101D40000E949E316F8178858EEA93E00E946D2318
:101D50008EEA93E00E9414238EEA93E00E94C72447
:101D600060E27EE48EEA93E00E949E24882399F04C
:101D70006AEC73E0CE0101960E94C632CE01019654
:101D80000E945F08CE0101960E949E31CE01079607
:101D90000E949E3113C062EB73E0CE0101960E9457
:101DA000C632CE0101960E945F08CE0101960E94C4
:101DB0009E31CE0107960E949E3106CF2C960FB61B
:101DC000F894DEBF0FBECDBFDF91CF911F910F9171
:101DD00008950F931F93CF93DF9300D000D000D0CE
:101DE000CDB7DEB76DED71E0CE0101960E94C6322F
:101DF000CE0101960E943308CE0101960E949E31C9
:101E000060910701709108014AE050E089E094E098
:101E10000E943F3169ED71E0CE0101960E94C63209
:101E2000CE0101960E943308CE0101960E949E3198
:101E3000CE0101960E94A60D8D819E81892B31F0E5
:101E4000CE0101960E94BE338B0104C000910701B0
:101E500010910801CE0101960E949E31C80126967C
:101E60000FB6F894DEBF0FBECDBFDF91CF911F91AB
:101E70000F910895CF93DF93CDB7DEB7E8970FB6F4
:101E8000F894DEBF0FBECDBF60E271E08E010F5F40
:101E90001F4FC8010E94C632C8010E945F08C801D6
:101EA0000E949E31412C512C3201C12CD12C760143
:101EB000312C93E0A92E91E0B92E20EF822E20E064
:101EC000922E8EEA93E00E94C21C18161906B4F4F2
:101ED0008FEFC81AD80AE80AF80A80919D03811189
:101EE0000E94E6078EEA93E00E94661C682F89E054
:101EF00094E00E94632933243394E3CF89E094E093
:101F00000E94CF29181619068CF49FEF491A590A16
:101F1000690A790A89E094E00E944229682F8EEAD2
:101F200093E00E94F81A33243394E8CFC20193015E
:101F3000332039F240919D03411104C040919E032A
:101F4000442399F01F921F921F921F923F932F9349
:101F50009F938F93FF92EF92DF92CF92BF92AF92B7
:101F60001F930F930E9460370EC07F926F925F9213
:101F70004F92FF92EF92DF92CF929F928F921F9398
:101F80000F930E9460370FB6F894DEBF0FBECDBF2F
:101F9000B801CE01C3960E940C32CE01C3960E94B6
:101FA0000108CE01C3960E949E318BCF9F92AF92C3
:101FB000BF92CF92DF92EF92FF920F931F93CF9336
:101FC000DF93CDB7DEB7A4970FB6F894DEBF0FBE90
:101FD000CDBFCE0101967C013DEDC32E34E0D32E62
:101FE00049ECA42E44E0B42E9924939460EF74E05D
:101FF000C7010E94C632C7010E943308C7010E9470
:102000009E3180919D03882319F08DEA92E002C0F1
:1020100085EB92E09F938F93DF92CF92FF92EF92A6
:102020000E946037B701CE014F960E940C32CE015C
:102030004F960E945F08CE014F960E949E310F90EE
:102040000F900F900F900F900F9080919B03811134
:1020500003C08DEA92E002C085EB92E09F938F93DC
:10206000BF92AF92FF92EF920E946037B701CE010C
:102070004F960E940C32CE014F960E945F08CE010F
:102080004F960E949E3165E874E0CE014F960E9403
:10209000C632CE014F960E943308CE014F960E9461
:1020A0009E3189E094E00E94C30A8C01682F89E088
:1020B00094E00E948A300F900F900F900F900F9035
:1020C0000F900133110589F1BCF40D30110509F4AD
:1020D0008DCF4CF40830110509F44DC00A301105BC
:1020E00009F484CF4EC00431110509F446C0003212
:1020F000110509F47BCF45C00433110519F174F4BF
:1021000002331105E1F003331105D9F560919D0308
:10211000692560939D038BE090E028C0053311058D
:1021200041F106331105E1F12CC080E00E945A090B
:1021300068EE73E080E090E00E943F2C57CF0E9451
:10214000D80D54CF80919B03892580939B038823CE
:1021500011F080E001C081E00E94400C682F80E116
:102160000E94042D60919B0381E190E00E94AE0BE0
:102170003DCF0E943A0F80E001C081E00E94CA0B6F
:1021800035CF6BE674E0CE014F960E94C632CE0189
:102190004F960E945F08CE014F960E949E3126CF37
:1021A000A4960FB6F894DEBF0FBECDBFDF91CF91DE
:1021B0001F910F91FF90EF90DF90CF90BF90AF9065
:1021C0009F9008951F93CF93DF93EC01162F6FEF2D
:1021D0008EEA93E00E94F81ACD3FD10511F46DEF1D
:1021E00001C06BEF8EEA93E00E94F81A612F8EEA2D
:1021F00093E0DF91CF911F910C94F81A1F93CF9326
:10220000DF93EC01162F6FEF8EEA93E00E94F81A2D
:10221000CD3FD10511F46CEF01C06EEF8EEA93E073
:102220000E94F81A612F8EEA93E0DF91CF911F91FF
:102230000C94F81A6FEF8EEA93E00E94F81A6EEF92
:102240008EEA93E00E94F81A62E28EEA93E00E941E
:10225000F81A6FEF8EEA93E00E94F81A6EEF8EEA9A
:1022600093E00E94F81A61E08EEA93E00C94F81A69
:10227000CF93DF9360E177E28EEA93E00E94D80A81
:102280008F3F910591F50E941A1168E873E18EEA7B
:1022900093E00E94D80A8F3F910539F58EEA93E0CA
:1022A0000E94C30A8EEA93E00E94C30AEC018F3FAA
:1022B0002FEF920751F38B5F9109049730F78EEA65
:1022C00093E00E94C30A8F3F2FEF9207F1F2833011
:1022D000910531F463E070E0CE010E94E210D5CFA9
:1022E000BC01CE010E94FE10D0CFDF91CF910895A6
:1022F000CF92DF92EF92FF921F93CF93DF9300D0A4
:1023000000D000D0CDB7DEB789E094E00E9442292A
:10231000182F0E94102C685E734081099109C090AB
:10232000A103D090A203E090A303F090A403C616EB
:10233000D706E806F906D8F41B32B9F48091A50354
:102340009091A6038B32910531F081E08093A70331
:102350008BE290E005C02091A7032F5F2093A70395
:102360009093A6038093A5030CC01092A7030E942C
:10237000102C6093A1037093A2038093A303909306
:10238000A4038091A7038330D9F465EB70E0CE01FC
:1023900001960E94C632CE0101960E940108CE012C
:1023A00001960E949E3181E08093A0031092A703C2
:1023B0001092A1031092A2031092A3031092A403FF
:1023C0000E94AC0A612F8EEA93E00E94F81A2696CA
:1023D0000FB6F894DEBF0FBECDBFDF91CF911F9136
:1023E000FF90EF90DF90CF900895CF92DF92EF9221
:1023F000FF920F931F93CF93DF93CDB7DEB7609714
:102400000FB6F894DEBF0FBECDBFCE0101967C01A2
:102410008EEA93E00E94C21C019609F46FC080917D
:102420009E03882309F44CC000E010E08EEA93E09C
:102430000E94C21C18161906B4F48091B0008F7D5A
:102440008093B0005B9A8EEA93E00E94661CF701CD
:10245000E00FF11F80830F5F1F4F0A30110534F327
:1024600009E010E0E3CF6701C6018E199F098017CC
:1024700091078CF4F60161916F0189E094E00E946C
:10248000632989E094E00E94CF291816190664F7A1
:102490000E947811F6CF8091B0008F7D8093B000BC
:1024A0005B9815C080919D0381110E94E6078EEA1A
:1024B00093E00E94661C682F89E094E00E946329E3
:1024C0008EEA93E00E94C21C181619065CF389E09C
:1024D00094E00E94CF29181619061CF40E94781166
:1024E000F6CF8EEA93E00E942625882329F080917A
:1024F000A003882309F48CCF1092A0038EEA93E006
:102500000E9433256EE371E0CE010B960E94C63225
:10251000CE010B960E948008CE010B960E949E3140
:1025200080919B03882339F080E00E94400C682F43
:1025300080E10E94042D60960FB6F894DEBF0FBEB6
:10254000CDBFDF91CF911F910F91FF90EF90DF9062
:10255000CF9008950F931F93CF93DF93CDB7DEB73E
:102560002C970FB6F894DEBF0FBECDBF0091990334
:1025700010919A036EE372E0CE0101960E94C6327A
:10258000CE0101960E943308CE0101960E949E3131
:102590004AE050E0B80189E094E00E943F316AE3EC
:1025A00072E0CE0101960E94C632CE0101960E94D1
:1025B0003308CE0101960E949E31CE0107960E94FB
:1025C000A60D8B859C85892B51F0CE0107960E9424
:1025D000BE338B01CB010E94B70C8111FFCF10934A
:1025E0009A03009399038EEA93E00E94FB2568E129
:1025F00072E0CE0101960E94C632CE0101960E9481
:102600003308CE0101960E949E316091990370912A
:102610009A034AE050E089E094E00E9447318EEA54
:1026200093E00E94262581111AC089E094E00E945F
:10263000CF29181619069CF789E094E00E944229D8
:102640006EE072E0CE0101960E94C632CE01019684
:102650000E945F08CE0101960E949E3112C06AEF6F
:1026600071E0CE0101960E94C632CE0101960E9411
:102670005F08CE0101960E949E310E9438110E948F
:10268000F511CE0107960E949E312C960FB6F89454
:10269000DEBF0FBECDBFDF91CF911F910F91089587
:1026A000AF92BF92CF92DF92EF92FF920F931F9360
:1026B000CF93DF93CDB7DEB7C854D1090FB6F894E6
:1026C000DEBF0FBECDBF7C016B01A42E61ED71E0BA
:1026D0008E010F5F1F4FC8010E94C632B801C701AB
:1026E0000E943E33B82EC8010E949E31BB2019F0D3
:1026F0006EEB71E011C066EB71E0C8010E94C6325A
:10270000B801C7010E943E33B82EC8010E949E3115
:10271000BB2049F06BEA71E0C7010E94A53266E474
:10272000C62E64E1D62EF70181818F9380818F932D
:1027300088E991E09F938F931F9252E3B52EBF9249
:102740001F930F930E943037C8010E94E308F701DE
:102750006081718120E130E0AE014D5C5F4F8EEA17
:1027600093E00E9458210FB6F894DEBF0FBECDBF94
:10277000811118C060E771E0CE018D5B9F4F0E9410
:10278000C632CE018D5B9F4F0E948008CE018D5BCB
:102790009F4F0E949E3168EE73E080E090E00E94BF
:1027A0003F2C46C021E0A601BE016D5C7F4F8EEA42
:1027B00093E00E9469258823E1F0F70181818F93DE
:1027C00080818F9380E691E09F938F931F92BF92B9
:1027D0001F930F930E943037C8010E94E3080FB681
:1027E000F894DEBF0FBECDBFA11015C00E943811F6
:1027F00012C060E571E0CE018D5B9F4F0E94C63232
:10280000CE018D5B9F4F0E948008CE018D5B9F4F54
:102810000E949E310DC080919B03882339F081E096
:102820000E94400C682F80E10E94042D0E94F51147
:10283000C85BDF4F0FB6F894DEBF0FBECDBFDF9190
:10284000CF911F910F91FF90EF90DF90CF90BF90AD
:10285000AF9008950F931F93CF93DF93CDB7DEB75B
:102860002C970FB6F894DEBF0FBECDBF6AEE71E0B5
:10287000CE0101960E94C632CE0101960E94330815
:10288000CE0101960E949E3168EA73E0CE01019666
:102890000E949032CE0101960E943308CE0101962B
:1028A0000E949E3166EE71E0CE0101960E94C63212
:1028B000CE0101960E943308CE0101960E949E31FE
:1028C000CE0107960E94A60D8B859C85892B91F0E1
:1028D0000E94E90E8C01BE01695F7F4F88EA93E098
:1028E0000E9479321093080100930701BE01695FCD
:1028F0007F4F0FC08091AC039091AD03892BB9F04D
:102900000E94E90E8C01909308018093070168EA08
:1029100073E0CE0101960E94903240E0B801CE01F2
:1029200001960E945013CE0101960E949E31CE0165
:1029300007960E949E312C960FB6F894DEBF0FBE0C
:10294000CDBFDF91CF911F910F910895EF92FF922C
:102950000F931F93CF93DF93CDB7DEB72C970FB6AE
:10296000F894DEBF0FBECDBF8C01BC01CE0107962F
:102970000E940C32F80180818823E9F16AE370E05B
:10298000C8010E94CF360097C1F0FC0111927F016F
:10299000B801CE0101960E940C32BE016F5F7F4FDD
:1029A000CE0107960E949932CE0101960E949E3177
:1029B000C7010E9444368C0102C007E110E0BE014D
:1029C000695F7F4F88EA93E00E9479321093080193
:1029D00000930701BE01695F7F4FCE0101960E94FF
:1029E000903240E0B801CE0101960E945013CE0112
:1029F00001960E949E31CE0107960E949E312C9630
:102A00000FB6F894DEBF0FBECDBFDF91CF911F91FF
:102A10000F91FF90EF900895FF920F931F93CF9324
:102A2000DF93CDB7DEB7E0970FB6F894DEBF0FBEE9
:102A3000CDBF78E2F72E0E940A090E94490C64E695
:102A400073E0CE0101960E94C632CE0101960E942B
:102A50003308CE0101960E949E3189E094E00E94E5
:102A6000C30A182F682F89E094E00E948A30812FD2
:102A70008F7D8D3409F062C060E473E0CE01019671
:102A80000E94C632CE0101960E943308CE01019603
:102A90000E949E3189E094E00E94C30A8FA718AA81
:102AA000CE018F960E9444368C018A30910518F62B
:102AB0004AE050E0BC0189E094E00E943F310115FA
:102AC000110509F4B8CF6EE273E0CE0101960E94C1
:102AD000C632CE0101960E943308CE0101960E94B3
:102AE0009E31CE0189960E94A60D8DA59EA501500E
:102AF0001109892B41F0BE01675D7F4FCE01019620
:102B00000E94903206C068E873E0CE0101960E94F0
:102B10000C32F09EC001F19E900D1124BE016F5F3A
:102B20007F4F8C599F4F0E94D10BCE0101960E947E
:102B30009E31CE0189960E949E317DCF833479F5F6
:102B400067E173E0CE0101960E94C632CE01019684
:102B50000E943308CE0101960E949E3189E094E0E4
:102B60000E94C30A8F7D893509F065CF04E610E025
:102B700066EA72E0CE0101960E940C32BE016F5FE0
:102B80007F4FC8010E94D10BCE0101960E949E3159
:102B9000085D1F4F0C3C81E0180751F74CCF813482
:102BA00051F565EE72E0CE0101960E94C632CE016B
:102BB00001960E943308CE0101960E949E3189E061
:102BC00094E00E94C30A8FA718AACE018F960E9494
:102BD00044368C018A30910508F02DCF4AE050E050
:102BE000BC0189E094E00E943F31602F83E690E0D1
:102BF0000E94AE0B20CF1FA718AACE018F960E946D
:102C000044368A30910508F016CF009709F10197F4
:102C1000F89EB001F99E700D11246C597F4FCE01C2
:102C200089960E94F10B69A57AA548E250E0CE0191
:102C300001960E94EA36CE0189960E949E31CE010D
:102C400001960E94330CCE0101960E94A614F3CE89
:102C5000E0960FB6F894DEBF0FBECDBFDF91CF91E7
:102C60001F910F91FF900895CF93DF93CDB7DEB7FB
:102C7000AE970FB6F894DEBF0FBECDBF80919F0315
:102C80009FEF980F993008F058C0992787FD9095CD
:102C9000019728E2289FB001299F700D11246C59DB
:102CA0007F4FCE0189960E94F10B69A57AA548E273
:102CB00050E0CE0101960E94EA36CE0189960E942C
:102CC0009E316AED70E0CE0189960E94C632CE0137
:102CD00089960E943308CE0189960E949E31BE01DA
:102CE0006F5F7F4FCE0189960E940C32CE0189968C
:102CF0000E945F08CE0189960E949E316DEB70E0C4
:102D0000CE0189960E94C632CE0189960E945F0844
:102D1000CE0189960E949E3160ED77E089E094E0D3
:102D20000E94D80A019629F089E094E00E94C30A23
:102D300004C0CE0101960E94A614AE960FB6F89478
:102D4000DEBF0FBECDBFDF91CF910895CF92DF924E
:102D5000EF92FF926C0190930A018093090182EB3C
:102D600094E00E94DD2D62E070E080E090E00E943F
:102D70003F2CE12CF12CB701A6018EEA93E00E94D2
:102D8000D82468EE73E080E090E00E943F2C82EB54
:102D900094E00E94C62E26E0B701A60182EB94E0E3
:102DA0000E94642E8EEA93E0FF90EF90DF90CF9028
:102DB0000C94E820CF93DF93CDB7DEB72C970FB6F6
:102DC000F894DEBF0FBECDBF0E94672C86E594E06D
:102DD0000E94CF2860E086E594E00E94C52661E06D
:102DE00086E594E00E947F283A9A81E190E00E9473
:102DF000E40791E0811101C090E090939B03992337
:102E000011F080E001C081E00E94400C682F80E159
:102E10000E94042D82E090E00E94E407182F83E0D6
:102E200090E00E94E407212F30E0322F2227280F64
:102E3000311D203B84E0380729F430930C012093A6
:102E40000B011AC0203699E03907B9F3203C82E122
:102E5000380799F3203895E2390779F321158BE487
:102E6000380759F3211596E9390739F380E699E0D7
:102E700090930C0180930B0160E085E00E94CB2CC5
:102E800061E085E00E94042D65E076E0CE010196C8
:102E90000E94C632CE0101960E940108CE01019621
:102EA0000E949E3185E090E00E941C0B6B017C012A
:102EB000603B24E072078105910509F180E6C816A0
:102EC00089E0D806E104F104D1F090ECC91692E152
:102ED000D906E104F10499F020E8C21625E2D206F1
:102EE000E104F10461F0C1148BE4D806E104F104BB
:102EF00031F0C11496E9D906E104F104A9F5FF9275
:102F0000EF92DF92CF9281E096E09F938F938E01B4
:102F1000095F1F4F1F930F930E946037B801CE01C6
:102F200001960E940C32CE0101960E940108CE014A
:102F300001960E949E3168EB7BE080E090E00E9469
:102F40003F2CC0920B01D0920C016D2D82E090E0DD
:102F50000E94AE0B6C2D83E090E00E94AE0B0FB68A
:102F6000F894DEBF0FBECDBF40910B0150910C0114
:102F700060E070E089E094E00E94382B4091090104
:102F800050910A0160E070E026E082EB94E00E943C
:102F9000642E48EE53E060E070E089E094E00E9427
:102FA000733141E020910B0130910C0180910901B6
:102FB00090910A012817390709F440E040939E03D5
:102FC0003D98399A5298539A8091B0008F7D8093A2
:102FD000B0005B98609106018FE00E94042D89E0AB
:102FE00094E00E94503063EF75E0CE0101960E949C
:102FF000C632CE0101960E948008CE0101960E9441
:103000009E3140E050E062EB74E08EEA93E00E9473
:10301000EC238823C1F069EE75E0CE0101960E9491
:10302000C632CE0101960E948008CE0101960E9410
:103030009E310E94AD0C80910B0190910C01803665
:10304000994089F422C06BED75E0CE0101960E9493
:10305000C632CE0101960E948008CE0101960E94E0
:103060009E310E943A0F68EE73E080E090E00E948B
:103070003F2C80910B0190910C01803B24E0920742
:1030800011F480E699E00E94A61641E020910B0120
:1030900030910C018091090190910A01281739079C
:1030A00009F440E040939E038EEA93E00E943325AA
:1030B00083E690E00E94E40780939F038BE090E01A
:1030C0000E94E40791E0811101C090E090939D037C
:1030D0000E94341663EC75E0CE0101960E94C63260
:1030E000CE0101960E945F08CE0101960E949E319A
:1030F0000E940A0981E00E945A096CEB75E0CE013A
:1031000001960E94C632CE0101960E940108CE01AE
:1031100001960E949E310E940E0965E575E0CE0180
:1031200001960E94C632CE0101960E943308CE015C
:1031300001960E949E3189E094E00E94C30A7C01BE
:10314000682F89E094E00E948A3080E2E816F1045A
:10315000A1F2ACF42AE0E216F10479F234F498E03A
:10316000E916F10461F580E027C02DE0E216F104D4
:1031700021F284E1E816F10411F581E01DC092E32B
:10318000E916F10499F03CF481E3E816F104B9F48E
:103190000E942A14B2CF93E3E916F10451F024E31C
:1031A000E216F10461F40E94D60FA7CF0E940C151D
:1031B000A4CF0E94AA12A1CF0E94CA0B9ECF6BE39C
:1031C00075E0CE0101960E94C632CE0101960E94A2
:1031D0005F08CE0101960E949E318FCFCF93C82FFA
:1031E00080EA8C0F803210F490E603C0C03E18F0E5
:1031F00090EC9C0F03C0CD3001F19C2F9A30F9F078
:10320000903210F48EE21EC0903AD9F08FE3890F0D
:103210008A3110F480E805C08FEB890F8A3118F4E9
:1032200080E2890F0FC08C2F992787FD90950E940F
:103230008B36892B39F38C2F05C08AE003C08DE0D3
:1032400001C080E2CF9108950F931F93CF93DF9336
:10325000EC018B0168E873E00E940C32F8010190E8
:103260000020E9F7BF0161507109601B710BCE01AD
:103270000E94CF31F80181918F01882339F00E949B
:10328000EE18682FCE010E94FB32F4CFCE01DF9101
:10329000CF911F910F9108958A30C1F08D30C1F008
:1032A0008032D4F08036B1F09FE9980F9A3110F453
:1032B000805208959FEB980F9A3110F4805808952A
:1032C0008B3754F480364CF0805A08958DE0089581
:1032D0008AE0089587E208958FE308950F931F937E
:1032E000CF93DF93EC018B0168E873E00E940C320E
:1032F000F80101900020E9F7BF0161507109601BDE
:10330000710BCE010E94CF31F80181918F0188238A
:1033100039F00E944C19682FCE010E94FB32F4CF85
:10332000CE01DF91CF911F910F910895DC011C9682
:103330008D919C911D97DC01ED91FC910680F781A8
:10334000E02D0994DC011C968D919C911D97DC0168
:10335000ED91FC910480F581E02D0994DC011C962F
:103360008D919C911D97DC01ED91FC910284F38578
:10337000E02D0994DC011C968D919C911D97DC0138
:10338000ED91FC910084F185E02D09942F923F92FC
:103390004F925F926F927F928F929F92AF92BF9265
:1033A000CF92DF92EF92FF920F931F93CF93DF9311
:1033B000CDB7DEB760970FB6F894DEBF0FBECDBFB6
:1033C0002B013C0169014A3021F5CE0101961C0117
:1033D000E12CF12C5AE0852E912CA12CB12CC301AB
:1033E000B201A50194010E94F2339FEFE91AF90A94
:1033F00080E3840DEAE02E9F80191124F10181936E
:103400001F012115310541055105C9F129013A0175
:10341000E6CFFE01319680E090E0B301A2014F704B
:103420005527662777279C012F5F3F4F4A3051056C
:103430006105710510F4A0E301C0A1E44A0F4193B6
:1034400044E076946794579447944A95D1F7411491
:1034500051046104710411F0C901DFCFE1E0F0E033
:10346000EC0FFD1FE20FF31F48E740837C01F3E000
:10347000EF0EF11CFE01E80FF91F20E3238321E08A
:10348000E21AF108F60180E090E00150110901967E
:10349000A1E0B0E0AC0FBD1FAE0DBF1D2C9121937C
:1034A0001E141F04ECF0F601E80FF91F108260965D
:1034B0000FB6F894DEBF0FBECDBFDF91CF911F9145
:1034C0000F91FF90EF90DF90CF90BF90AF909F90C3
:1034D0008F907F906F905F904F903F902F900895C6
:1034E00021E0E21AF10880179107ECF6D0CFCF92D5
:1034F000DF92EF92FF920F931F93FC0140E060E098
:1035000070E0CB010191002309F449C020ED200FA8
:103510002A30B0F414E0660F771F881F991F1A95A0
:10352000D1F76053710981099109C02EDD24C7FCD0
:10353000D094ED2CFD2C6C0D7D1D8E1D9F1DE2CFBA
:103540002FE9200F263060F4B4E0660F771F881F44
:10355000991FBA95D1F767557109810991090FC073
:103560002FEB200F2630A8F4A4E0660F771F881FEA
:10357000991FAA95D1F767537109810991091127FC
:1035800007FD1095212F312F600F711F821F931F90
:10359000B9CF083721F4411102C041E0B3CF1F91E8
:1035A0000F91FF90EF90DF90CF9008950F931F93AE
:1035B000FC0160E070E0CB01019120ED200F2A308A
:1035C000A0F4AAE0B0E09B01AC010E943934605342
:1035D000710981099109112707FD1095212F312FBC
:1035E000600F711F821F931FE7CF1F910F910895E6
:1035F000DC01A95ABF4F2D913C911197FC01E75A6C
:10360000FF4F408151812417350764F434970190AE
:10361000F081E02DA9014F5F5F4F4D935C93E20F66
:10362000F31F6083FC01EC5BFF4F80819181DC0123
:10363000ED91FC910190F081E02D09948C5B9F4FFE
:10364000DC018D919C91DC01ED91FC910284F3856C
:10365000E02D0994DC011C968D919C911D9700979B
:1036600039F0DC01ED91FC910190F081E02D09949D
:1036700080E090E0089520913F0421110CC0FC01EE
:10368000EC5BFF4F80819181DC01ED91FC91008426
:10369000F185E02D0994E0914004F0E0EE5BFB4FF2
:1036A0008081992787FD90950895DC01ED91FC912B
:1036B0000190F081E02D09944F925F926F927F927A
:1036C000AF92BF92CF92DF92EF92FF920F931F9330
:1036D000CF93DF93EC015B016A010E94102C2B0158
:1036E0003C01E12CF12C8E010C5B1F4F0E94102C31
:1036F00064197509860997096C157D058E059F0566
:10370000A0F5D8018D919C91DC01ED91FC91048094
:10371000F581E02D09951816190644F7F801808106
:103720009181DC01ED91FC910680F781E02D0995F6
:10373000F5018083DE01A95ABF4F2D913C9111976D
:10374000FE01E75AFF4F40815181241735077CF471
:10375000CB5ADF4FE881F981A9014F5F5F4F4D934D
:103760005C93E20FF31F808302C080E001C081E020
:10377000DF91CF911F910F91FF90EF90DF90CF904D
:10378000BF90AF907F906F905F904F900895EF92B1
:10379000FF920F931F93CF93DF931F92CDB7DEB7A6
:1037A0008C017B01A701BE016F5F7F4FC8010E94A2
:1037B0005C1B8111F7CF0F90DF91CF911F910F917B
:1037C000FF90EF900895FF920F931F93CF93DF9395
:1037D0008C0190913F04992309F1442321F06F5FFC
:1037E0007F4F81E001C080E020914004820FFB0107
:1037F000BF01382F321B3917A8F434913323C1F19C
:10380000893010F4A82F01C0A0E031968F5FB0E09E
:10381000AE5BBB4F4C91431759F340C0411102C0FE
:103820006F5F7F4FFB01F490EB01219660914104A3
:1038300070E06E5B7B4F44EF51E0C8010E945C1B5F
:1038400080914104E82FF0E0EE5BFB4F20819091E6
:103850003F048F5F2F1114C08830E8F48093410437
:103860009F5F90933F04FE01F4902196F110DECF0C
:1038700010923F04109240041092410481E00FC066
:10388000883018F48093410402C0109241049F5F75
:1038900090933F0403C010924104E2CF80E0DF9197
:1038A000CF911F910F91FF900895CF93DF93EC017B
:1038B000462F65E078E00E94E31B882319F01CAED8
:1038C00081E001C080E0DF91CF910895CF93DF9335
:1038D000EC0180913F04882381F0E091400491E065
:1038E0009E0F90934004F0E0EE5BFB4F208130E0B0
:1038F000983068F1109240042AC0FE01EC5BFF4F43
:1039000080819181DC01ED91FC910680F781E02DB1
:1039100009959C018CAD8823E9F02A323105D1F458
:1039200060E0CE010E94551C811116C0E091400458
:1039300081E08E0F80934004F0E0EE5BFB4F20812E
:1039400030E0883010F01092400480913F048150A4
:1039500080933F04C90102C08FEF9FEFDF91CF91A9
:103960000895CF93DF93EC01462F6EEF77E00E942E
:10397000E31B882319F081E08CAF01C080E0DF9168
:10398000CF910895EF92FF920F931F93CF93DF9300
:103990008C01EC01CC5BDF4F88819981DC01ED91DA
:1039A000FC910480F581E02D09957C01181619061B
:1039B0005CF588819981DC01ED91FC910084F185B1
:1039C000E02D09958A9701F5F80184AD61E088231F
:1039D00031F0C8010E94551C882321F012C0C80193
:1039E0000E94B11C00913F0410E088819981DC01A4
:1039F000ED91FC910480F581E02D0995800F911FD8
:103A000009C08FEF9FEF06C080913F04F701E80FD8
:103A1000F11DCF01DF91CF911F910F91FF90EF909A
:103A20000895CB016FE274E00E94F93621E0892B02
:103A300009F420E0822F08958F929F92AF92BF9257
:103A4000CF92DF92EF92FF920F931F93CF93DF936A
:103A50001F92CDB7DEB76C017B015A01611571056C
:103A600029F1FB018081882309F18B014B01FFEFD4
:103A70008F1A9F0AA501BE016F5F7F4FC6010E948A
:103A80005C1B8823A1F08981F8019081891303C010
:103A90000F5F1F4F07C0F7019081891302C0840197
:103AA00001C08701F80180818111E4CF81E00F908E
:103AB000DF91CF911F910F91FF90EF90DF90CF900A
:103AC000BF90AF909F908F9008957F928F929F921A
:103AD000AF92BF92CF92DF92EF92FF920F931F931C
:103AE000CF93DF931F92CDB7DEB76C017B015A01F4
:103AF000FB0174907720B9F08B014B01FFEF8F1A17
:103B00009F0AA501BE016F5F7F4FC6010E945C1B2B
:103B10008823C1F02981271108C00F5F1F4FF801CA
:103B200074907110EECF81E00DC0F70184913327BE
:103B300027FD309590E02817390711F48401EFCF65
:103B40008701EDCF0F90DF91CF911F910F91FF90E3
:103B5000EF90DF90CF90BF90AF909F908F907F902D
:103B600008954F925F926F927F929F92AF92BF9211
:103B7000CF92DF92EF92FF920F931F93CF93DF9339
:103B80001F92CDB7DEB77C01962EA72EB42E690109
:103B90004DB65EB6242F30E0C901880F991F820F01
:103BA000931F2DB73EB7281B390B0FB6F8943EBFB5
:103BB0000FBE2DBF8DB79EB701963C01E62FF72FA4
:103BC000DC0120E02B1559F11C9281919191129604
:103BD0009C938E9311972F5F1396F4CF1196ED91CE
:103BE000FC9112974491941781F1F80160817181E1
:103BF000FB01449150E02417350731F112967C9374
:103C00006E9311971196ED91FC911297E491139692
:103C10000E5F1F4FEE23F9F08F5F8B11DFCFA601F0
:103C2000BE016F5F7F4FC7010E945C1B811102C004
:103C30008FEF11C09981292F332727FD3095092D4A
:103C40001A2DD30180E0E9CFFB0131961296FC9347
:103C5000EE931197D7CF0FB6F8945EBE0FBE4DBE50
:103C60000F90DF91CF911F910F91FF90EF90DF9018
:103C7000CF90BF90AF909F907F906F905F904F904C
:103C80000895CF93DF93EC018D85882391F064EE46
:103C900077E0CE010E94163044EF51E06DED77E001
:103CA000CE010E94651D882311F01D8602C080E0B0
:103CB00001C081E0DF91CF9108955F926F927F9272
:103CC0008F929F92AF92BF92CF92DF92EF92FF922C
:103CD0000F931F93CF93DF931F92CDB7DEB76C0185
:103CE0007B01390100E010E04A0182E0881A910866
:103CF0005A0181E0A81AB108A301BE016F5F7F4F8E
:103D0000C6010E945C1B882309F440C059808DE0E5
:103D100058122DC0A301BE016F5F7F4FC6010E94E4
:103D20005C1B89818A3041F4E114F104B9F1F70197
:103D3000E00FF11F108232C0E114F104C1F0081548
:103D4000190564F4F8013196D701A00FB11F5C92F8
:103D50000E5F1F4FEE0DFF1D808309C00A151B0566
:103D600034F4F701E00FF11F50820F5F1F4F0A1567
:103D70001B0514F6E114F10409F4BECFF701E00FBE
:103D8000F11F898180830F5F1F4FB6CFE114F104CB
:103D900039F0F701E00FF11F108203C0C80102C023
:103DA00080E090E00F90DF91CF911F910F91FF90F5
:103DB000EF90DF90CF90BF90AF909F908F907F90CB
:103DC0006F905F900895CF92DF92EF92FF920F93E2
:103DD0001F93CF93DF931F92CDB7DEB78C0144EFD3
:103DE00051E0BE016F5F7F4FC8010E945C1B8823BA
:103DF000A9F089818C3399F780932F0450E3E52E45
:103E000054E0F52EDD24D39444EF51E0BE016F5F02
:103E10007F4FC8010E945C1B811102C080E035C049
:103E2000CC24C394CD0C8981F70181937F018E331B
:103E300039F544EF51E0BE016F5F7F4FC8010E942A
:103E40005C1B882359F38981803241F7AC2DB0E0A7
:103E5000A15DBB4F8C93D394D394ED2DF0E0E15D45
:103E6000FB4F108281E080932E0424EF31E040E08C
:103E700050E060E070E0C8010E945D1E81E005C076
:103E8000FCE0CF1659F2DC2CBFCF0F90DF91CF9121
:103E90001F910F91FF90EF90DF90CF900895AB01AD
:103EA00020912E04211102C00C94E31E6FE274E0F5
:103EB0000C941C1DFF920F931F93CF93DF93EC0183
:103EC0008D8581116FC06AEF70E080E090E00E9404
:103ED0003F2C6AEF77E0CE010E9416306AEF70E067
:103EE00080E090E00E943F2C44EF51E064EF77E0E7
:103EF000CE010E94651D811116C0FE01EC5BFF4FD3
:103F000080819181DC01ED91FC910190F081E02DA7
:103F10006DE0099564EF71E0CE010E944F1F8111A1
:103F20003AC015E01EC080912E04811134C065E0B6
:103F3000F62E8E010C5B1F4FF80180819181DC0110
:103F4000ED91FC910190F081E02D6DE0099564EF19
:103F500071E0CE010E944F1F81111DC0FA9461F7DC
:103F6000CCCF6AEF70E080E090E00E943F2C60EFE1
:103F700077E0CE010E9416306AEF70E080E090E0BA
:103F80000E943F2C44EF51E06AEE77E0CE010E94A0
:103F9000651D882319F081E08D8705C0115009F750
:103FA00080E001C081E0DF91CF911F910F91FF90E0
:103FB0000895CF93DF93EC018D85882339F08B89A9
:103FC0009C8901969C8B8B8B81E005C0CE010E9461
:103FD0005A1F8111F4CFDF91CF910895FC012389FD
:103FE000348921503109348B238B232B11F40C9409
:103FF000411E81E00895CF92DF92EF92FF920F93DE
:104000001F93CF93DF93EC018B016A0179010E942A
:10401000D91F882351F1000F111F000F111F0851E4
:104020001D4FF80160817181CE010E941630F801A8
:104030006281738144EF51E0CE010E94651D8823A7
:1040400089F024EF31E0A701B601CE010E945D1E88
:1040500064EF71E0CE010E944F1FCE010E94EE1F5F
:10406000C60105C0CE010E94EE1F8CEB92E0DF91ED
:10407000CF911F910F91FF90EF90DF90CF90089517
:10408000EF92FF920F931F93CF93DF93CDB7DEB7DD
:1040900060970FB6F894DEBF0FBECDBF8C010E94B3
:1040A000D91F882309F467C065ED77E0C8010E9435
:1040B000163024EF31E040E150E0BE016F5F7F4FEA
:1040C000C8010E945D1E7C01BE016F5F7F4FC80169
:1040D0000E94111D882361F024EF31E040E150E09F
:1040E000BE016F5F7F4FC8010E945D1E7C0105C04D
:1040F00064EF71E0C8010E944F1F25E0E216F10451
:104100001CF4CE01019608C0C7010497E1E0F0E07D
:10411000EC0FFD1F8E0F9F1F0E94771AF62EE72EC1
:10412000862F8F70F80186AFF4FA882780F987AF61
:10413000E05CFF4FF5FA882780F980833196F6FA24
:10414000882780F980833196F7FA882780F9808361
:104150008E2D86958F7031968083C8010E94EE1F48
:10416000F80186AD813011F484AF02C0F80114AEBD
:104170008F2D9E2D02C080E090E060960FB6F894DF
:10418000DEBF0FBECDBFDF91CF911F910F91FF908A
:10419000EF900895CF93DF93D62FC72F9A01462F24
:1041A000572F60E070E00E94FB1F892B49F0ED2F34
:1041B000FC2FDF018191882329F08A33D1F702C0D7
:1041C000AD2FBC2F1C928D2F9C2FDF91CF91089586
:1041D000CF93DF93CDB7DEB766970FB6F894DEBF07
:1041E0000FBECDBF26E130E0AE014F5F5F4F60E014
:1041F00070E00E94FB1F892BC1F080E0E1E0F0E05D
:10420000EC0FFD1FE80FF11D9081992319F08F5FCE
:104210009A33A1F721E030E02C0F3D1F280F311D0C
:10422000C9010E94D61ACB0102C080E090E06696D8
:104230000FB6F894DEBF0FBECDBFDF91CF910895CA
:104240009A01AB0163E070E00C94FB1F9A01AB0193
:1042500064E070E00C94FB1F1F93CF93DF93CDB706
:10426000DEB72B970FB6F894DEBF0FBECDBF142F6D
:104270002BE030E0AE014F5F5F4F0E94FB1F892BA8
:1042800051F0CE0101961A3019F40E94D61A06C0D8
:104290000E94771A03C060E070E0CB012B960FB646
:1042A000F894DEBF0FBECDBFDF91CF911F9108956F
:1042B000AF92BF92CF92DF92EF92FF920F931F9334
:1042C000CF93DF931F92CDB7DEB78C017B016A01DC
:1042D00059010E94D91F8823B9F163EB77E0C80127
:1042E0000E941630B701C8010E94473064EC72E0AA
:1042F000C8010E94473048E853E1B701C8010E9455
:104300001C1D8823C9F044EF51E0BE016F5F7F4F51
:10431000C8010E945C1B24EF31E0A501B601C80171
:104320000E945D1E64EF71E0C8010E944F1FC8012A
:104330000E94EE1F81E009C064EF71E0C8010E9495
:104340004F1FC8010E94EE1F80E00F90DF91CF91B8
:104350001F910F91FF90EF90DF90CF90BF90AF90A3
:104360000895CF93DF93CDB7DEB760970FB6F8947B
:10437000DEBF0FBECDBF20E130E0AE014F5F5F4F2B
:104380006CE070E00E94FB1F892BE1F143E050E0FC
:104390006FEA77E0CE0101960E94A936892B51F190
:1043A00042E050E06CEA77E0CE0101960E94A93627
:1043B000892B11F146E050E065EA77E0CE010196E5
:1043C0000E94A936892BD1F045E050E06FE977E0F3
:1043D000CE0101960E94A936892B91F046E050E06B
:1043E00068E977E0CE0101960E94A936892B51F445
:1043F00084E009C080E007C081E005C082E003C01E
:1044000083E001C08FEF60960FB6F894DEBF0FBE59
:10441000CDBFDF91CF910895CF92DF92EF92FF92BF
:104420000F931F93CF93DF9300D000D0CDB7DEB7AB
:104430007C018B016A0182E997E09A8389838CE889
:1044400097E09C838B8324EF31E042E0BE016F5FF5
:104450007F4FC7010E94B11D813091F0811108C0CA
:1044600024EF31E0A601B801C7010E945D1E06C01D
:10447000A60162E877E0C8010E94B73680E001C07B
:1044800081E00F900F900F900F90DF91CF911F91CF
:104490000F91FF90EF90DF90CF900895AF92BF9271
:1044A000CF92DF92EF92FF920F93CF93DF93CDB72E
:1044B000DEB762970FB6F894DEBF0FBECDBF7C01AA
:1044C0005A016901698B7A8B0E94D91F69897A899F
:1044D000882309F463C0C7010E941630C114D104B7
:1044E00019F160E2C7010E94551B0023C1F057017A
:1044F00084E5A80EB11CF60164916623C1F1D701D1
:10450000ED91FC910190F081E02D603211F4D50124
:104510006C91C7010995BFEFCB1ADB0AECCFB6014E
:10452000C7010E94163023C0A114B10401F160E25A
:10453000C7010E94551B0023B1F06701F4E5CF0EBF
:10454000D11CF50161915F01662389F0D701ED91DE
:10455000FC910190F081E02D603211F4D6016C9154
:10456000C7010995EECFB501C7010E9447306DE044
:10457000C7010E94551B40E150E0BE016F5F7F4FB5
:10458000C7010E940C22082F64EF71E0C7010E944E
:104590004F1FC7010E94EE1F802F01C080E062966E
:1045A0000FB6F894DEBF0FBECDBFDF91CF910F9154
:1045B000FF90EF90DF90CF90BF90AF900895CF9293
:1045C000DF92EF92FF920F931F93CF93DF93CDB7BC
:1045D000DEB72B970FB6F894DEBF0FBECDBF7C01C0
:1045E0006B01CA01B901402F0BE010E09E012F5F63
:1045F0003F4F0E94C61900E020E030E0AE014F5F5F
:104600005F4FB601C7010E944E222B960FB6F89459
:10461000DEBF0FBECDBFDF91CF911F910F91FF90F5
:10462000EF90DF90CF9008951F93CF93DF93EC012D
:104630000E94D91F8823D9F06CE777E0CE010E9451
:10464000163044EF51E064E777E0CE010E94651D2B
:10465000882339F064EF71E0CE010E944F1F11E012
:1046600001C010E0CE010E94EE1F812F01C080E04A
:10467000DF91CF911F9108950F939B0140E050E08F
:104680000AE064E477E00E94DF220F9108950F931F
:10469000262F30E040E050E000E162E077E00E9449
:1046A000DF220F9108950C9447230F93262F30E0BB
:1046B00040E050E000E165EF76E00E94DF220F91DC
:1046C00008950F9300E020E030E040E050E067ED17
:1046D00076E00E944E220F9108950F93AB0101E006
:1046E00020E030E069EC76E00E944E220F910895C0
:1046F0000F931F93CF93DF93EC01AB01FB018181FB
:104700008F7D883511F44E5F5F4F00E020E030E090
:104710006CEB76E0CE010E944E22182FCE010E9453
:104720006123812FDF91CF911F910F9108950F93F6
:104730001F93CF93DF93EC01AB0101E020E030E069
:104740006CEA76E00E944E22182FCE010E9461236F
:10475000812FDF91CF911F910F91089540E16BE17F
:1047600070E00E942C21862F08950F93CF93DF9342
:10477000EC0119AE18AE188E00E020E030E040E009
:1047800050E061E378E00E944E2220E030E040E01B
:1047900050E06EE178E0CE010E944E2220E030E051
:1047A00040E050E06CE078E0CE010E944E22CE0165
:1047B0000E944020CE010E94B1218B7F91E009F43C
:1047C00090E09D8BCE010E94AE23CC5ADF4F8883B0
:1047D000DF91CF910F910895CF93DF93EC01FC010E
:1047E000EC5BFF4F718360830E945A1F882341F066
:1047F000CE010E94B523CE01DF91CF910C94411ED2
:1048000080E0DF91CF910895CF93DF93EC010E9478
:10481000D91F882301F16CE677E0CE010E941630A3
:1048200044EF51E063E677E0CE010E94651D8111FF
:1048300004C0CE010E94EE1F0EC068E873E180E064
:1048400090E00E943F2C1D861C8A1B8ACE010E948C
:10485000B52381E001C080E0DF91CF910895CF9230
:10486000DF92EF92FF920F931F93CF93DF9300D0CD
:1048700000D0CDB7DEB78C017B016A0185EA96E0F6
:104880009A83898389E996E09C838B83C8010E947F
:10489000D91F882309F444C063E976E0C8010E9467
:1048A0001630E114F10421F0B701C8010E9447302D
:1048B00061E976E0C8010E941630960142E0BE012F
:1048C0006F5F7F4FC8010E94B11DF82E64E670E053
:1048D000C8010E94C71B81E0F8121FC0F801F7AEA3
:1048E0008589882361F048E95AE36DE876E0C801DC
:1048F0000E94651D64E670E0C8010E94C71B24EF9A
:1049000031E040E050E060E070E0C8010E945D1ED0
:10491000C8010E94EE1F81E004C0C8010E94EE1F82
:1049200080E00F900F900F900F90DF91CF911F912B
:104930000F91FF90EF90DF90CF9008950F931F930A
:10494000CF93DF93CDB7DEB7C054D1090FB6F8943B
:10495000DEBF0FBECDBF8C0140E450E0BE016F5FF3
:104960007F4F0E94262140E25EE4BE016F5F7F4FD1
:10497000C8010E942F24C05CDF4F0FB6F894DEBF41
:104980000FBECDBFDF91CF911F910F910895CF93AF
:10499000DF93EC0166E876E00E94163064E670E092
:1049A000CE010E94C71B1FAE81E0DF91CF91089519
:1049B000AF92BF92CF92DF92EF92FF920F931F932D
:1049C000CF93DF93CDB7DEB760970FB6F894DEBF15
:1049D0000FBECDBF5C016A017B0100E110E09E01CA
:1049E0002F5F3F4F4AE0C701B6010E94C619C501BB
:1049F0000E94D91F00E020E030E0AE014F5F5F4F22
:104A00006EE776E0C5010E944E22882351F0C50171
:104A10000E94EE1FF501C786D08AE18AF28A81E002
:104A200004C0C5010E94EE1F80E060960FB6F894A6
:104A3000DEBF0FBECDBFDF91CF911F910F91FF90D1
:104A4000EF90DF90CF90BF90AF900895CF93DF931A
:104A5000EC01E881F9810480F581E02D09958CADA8
:104A6000DF91CF910895CF93DF93EC018CAD882334
:104A700061F164EF71E0CE010E94C71BCE010E947C
:104A8000D91F6BE576E0CE010E94163044EF51E06D
:104A900064E576E0CE010E94651D882329F0CE01F1
:104AA0000E94EE1F1CAE11C06BE376E0CE018A5B64
:104AB0009F4F0E945430CE010E944020CE010E94A0
:104AC000EE1F8CAD91E0892701C081E0DF91CF918D
:104AD0000895BF92CF92DF92EF92FF920F931F93B0
:104AE000CF93DF93CDB7DEB765970FB6F894DEBFEF
:104AF0000FBECDBF7C016B018A01B22EFC0185ADDA
:104B0000811168C0C7010E94D91FF70184AD8823B5
:104B100019F0C7010E943325B80180E090E004E15C
:104B200010E09E012F5F3F4F4AE00E94C61968E7E0
:104B300076E0C7010E941630B601C7010E944730D7
:104B400066EC72E0C7010E944730BE016F5F7F4F85
:104B5000C7010E94473066E776E0C7010E94163021
:104B600064EF71E0C7010E944F1F811101C0FFCFA8
:104B7000B11004C081E0F70185AF2DC040E157E2DC
:104B8000BE016B5E7F4FC7010E945C1B8823F9F05A
:104B90008D898A3271F0833489F7898324EF31E07B
:104BA00043E150E0BE016E5F7F4FC7010E945D1E72
:104BB0000EC044EF51E060E776E0C7010E94651D3A
:104BC000882329F081E0F70184AF158604C0C7016E
:104BD0000E94EE1F80E065960FB6F894DEBF0FBE10
:104BE000CDBFDF91CF911F910F91FF90EF90DF909C
:104BF000CF90BF900895CF93DF93EC0164EF71E005
:104C00000E94C71BCE010E94D91F64E376E0CE014B
:104C10000E94163044EF51E06DE276E0CE010E9432
:104C2000651D882331F0CE010E94EE1F1CAE81E08D
:104C30000BC0CE010E94EE1F64E176E0CE018A5BDC
:104C40009F4F0E94543080E0DF91CF910895FC0186
:104C50001382128248EE53E060E070E04483558393
:104C6000668377838CED92E091838083158614862A
:104C70000895CF93DF93EC011B821A8248EE53E034
:104C800060E070E04C835D836E837F838CEC92E008
:104C900099838883CE018A5B9F4F0E9427261D86B9
:104CA0001E861C8A1B8A1CAE1DAE81E08D8B8E8BEE
:104CB000FE01EB5AFF4F1182108232961182108250
:104CC000C75ADF4F19821882DF91CF9108950F9351
:104CD00000E020E040E060E08AE494E00E94BD2F24
:104CE0000F9108950F9300E020E040E060E080E540
:104CF00094E00E94BD2F0F9108950DB407FEFDCFE3
:104D00000895FC016387448708950F936034D8F5B4
:104D10004033C8F50130C9F42130A9F5E42FE695F8
:104D2000E695E69580E4E89FF0011124E60FF11D79
:104D3000E35FFE4F477081E090E0042E01C0880FD2
:104D40000A94EAF7908198271DC0842F869586954E
:104D50008695E62FF0E0477090E4899FE00DF11D05
:104D60001124E35FFE4F81E090E0042E01C0880F24
:104D70000A94EAF7213019F49081982B03C08095AA
:104D80009081982390830F910895DC0161112EC0CA
:104D900018961C92189780918D0290918E02FC01BA
:104DA000249116962C9316973196E4911796EC93CE
:104DB0001797FC013296E4911996EC931997FC0130
:104DC0003396E4911A96EC931A97FC013496249149
:104DD0003196849190E0F4E62F9F800D911D11246F
:104DE0001E969C938E931D9781E0089580E0089510
:104DF0005F926F927F928F929F92AF92BF92CF926B
:104E0000DF92EF92FF920F931F93CF93DF93EC010A
:104E1000162FB42EF02E3985231708F4B0C06A85FA
:104E200070E0630F711D822F90E0861797070CF0DA
:104E3000A6C0D22ED31A9F8096949694969481E021
:104E40008915C0F1C12E3C2D311B2E81822F90E09F
:104E5000A32FB0E08A179B070CF491C0321791F092
:104E6000E885F0E0EE0FFF1FE357FD4FD29EA00D47
:104E7000B11D112416960190F081E02DEA0FFB1F61
:104E8000949001C0912CA12C4A2D4B0D90FE03C093
:104E90000E2D2F2D04C021E0F11020E00E2D6C2DE1
:104EA000CE010E9485269694A39488E0A812ECCFA8
:104EB000C394C9CFED85FE852E8130E0CF01B901C5
:104EC0000E94CA338D2D90E00E94CA33829F6001F8
:104ED000839FD00C929FD00C11249E9E90019F9E88
:104EE000300D1124269FC001279F900D369F900DF5
:104EF0001124C80ED91E742EA12CB12C86E0C80E28
:104F0000D11C812E482D411B8E81481780F5E885E4
:104F1000F0E0EE0FFF1FE357FD4F2D853E85A29E6B
:104F2000C001A39E900DB29E900D11248C0D9D1D6D
:104F3000840F911D0190F081E02DE80FF91F54902E
:104F4000612C462D470D50FE03C00E2D2F2D04C0A1
:104F500021E0F11020E00E2D682DCE010E94852663
:104F60005694639488E06812ECCF8394CBCF8FEF94
:104F7000A81AB80A88E0780EA91408F4C2CFDF9105
:104F8000CF911F910F91FF90EF90DF90CF90BF9046
:104F9000AF909F908F907F906F905F900895EF9269
:104FA0000F93CF93DF93EC01262F6A30A9F06D3079
:104FB000C1F0ED800C814C856B850E94F8264E81F6
:104FC0002B85240F2F5F2B8730E080E490E0841B3B
:104FD0009109821793072CF48C859F81890F8C8708
:104FE0001B8681E090E0DF91CF910F91EF900895C3
:104FF0002A9A22982898209A60E08DE00E94042D39
:1050000060E08BE00E94042D61E08DE00E94CB2CDB
:1050100061E08BE00E94CB2C8CB580618CBD089543
:105020008CB580648CBD2A98229A08950DB407FE31
:10503000FDCF2898209A2A9A22988CB58F7B8CBD18
:105040000895CF93DF9300D0CDB7DEB74A8369834D
:105050000E94102869816EBD0E947D264A814EBD46
:105060000F900F90DF91CF910C941628CF93DF9380
:1050700000D01F92CDB7DEB72B834A8369830E948D
:10508000102869816EBD0E947D264A814EBD0E9416
:105090007D262B812EBD0F900F900F90DF91CF9129
:1050A0000C9416280F931F93CF93DF93EC0140E0ED
:1050B00060E20E9421282FE740E061E2CE010E94D9
:1050C000362827E040E062E2CE010E9436280E94A6
:1050D0001028289A20981EBC0FEF13E00E947D260E
:1050E0001EBC01501109D1F70E94162842E060E26F
:1050F000CE01DF91CF911F910F910C942128613047
:1051000011F40C94522880E891E0EDE0F1E0DF0129
:105110009C011D9221503040E1F708950F931F9399
:10512000CF93DF93EC0140E060E20E9421282FE55D
:1051300040E261E2CE010E94362825E040E062E2D2
:10514000CE010E9436280E941028289A209880912B
:105150000D018EBD0EE011E00E947D26F8018191C7
:105160008F018EBDF2E00D381F07B1F70E9416289F
:1051700042E060E2CE01DF91CF911F910F910C943C
:1051800021282CB5982F93702C7F922B9CBD9DB518
:1051900082FB882780F99E7F982B9DBD0895CF9331
:1051A000DF93EC0160E00E94C52681E08C831D82C4
:1051B0001B861C865F98579A61E084E00E94CB2C86
:1051C00061E084E00E94042D6AE070E080E090E0FD
:1051D0000E943F2C5F9A579865E070E080E090E075
:1051E0000E943F2C5F98579A84E00E94C1280E9439
:1051F000F82765E070E080E090E00E943F2C5F9A25
:1052000057986AE070E080E090E00E943F2C4FE207
:1052100068EACE010E94212844E16DE8CE010E9497
:1052200021280E94102881EA8EBD0E9416280E9423
:10523000102888EC8EBD0E9416284FE861E8CE0148
:105240000E94212841EF69EDCE010E94212840E40F
:105250006BEDCE010E9421280E9410288FEA8EBD9E
:105260000E941628CE01DF91CF910C945228109203
:105270005904109258048CE593E09093570480935E
:10528000560408952091A7043091A80428173907DF
:10529000B9F49091650480916604981789F0E091C3
:1052A0006504F0E0E959FB4F80812091650430E00E
:1052B0002F5F3F4F2F7333272093650490E00895AD
:1052C0008FEF9FEF08951F93CF93DF93DC015C96E0
:1052D0008D919C915D97009749F481E090E0139641
:1052E0009C938E93129780E090E03BC05196ED9195
:1052F000FC91529750962C915097322F30951FB7B2
:105300005E964C915E9741FB772770F941FD609561
:10531000F8944081772311F0422B01C0432340834E
:10532000EC012197F1F748E0508160FF02C0522B59
:1053300001C053235083EC012197F1F7669541504A
:1053400099F78081772311F0832301C0822B80831A
:105350001FBF5C968D919C915D970197F1F781E05D
:1053600090E0DF91CF911F9108952091A704309193
:10537000A8042817390781F4909165048091660488
:10538000981751F0E0916504F0E0E959FB4F8081F6
:10539000992787FD909508958FEF9FEF08952091AD
:1053A000A7043091A8042817390771F48091660486
:1053B0002091650490E0805C9F4F821B910960E41E
:1053C00070E00E94DE33089580E090E0089520911F
:1053D000A7043091A8042817390739F48FB7F89437
:1053E00010926604109265048FBF0895E091A7049F
:1053F000F091A804E817F90769F4A389B4899C918E
:105400008589809589238C931092A8041092A70413
:1054100081E0089580E00895CF93DF93EC018A8DB9
:105420009B8D892BF1F08091A7049091A8048C1793
:105430009D07B9F0009711F00E94F6298E8D8E7F9E
:105440008E8F1092660410926504D093A804C093C6
:10545000A704EB89FC8980819D89892B808381E069
:1054600001C080E0DF91CF9108951F920F920FB697
:105470000F9211242F933F934F935F936F937F93DA
:105480008F939F93AF93BF93EF93FF93E091A70404
:10549000F091A804309709F451C0868DA685B78590
:1054A000958581FF04C08C91892329F447C08C9194
:1054B000892309F043C0A389B4899C91858980958B
:1054C00089238C93868997890197F1F7208D318DF7
:1054D000A685B785758558E040E0C9010197F1F7C9
:1054E000842F90E095958795482F6C91672309F05C
:1054F0004068515091F7868D81FD409580916604FA
:1055000090E001968F73992720916504281749F040
:10551000A0916604B0E0A959BB4F4C9380936604F8
:1055200003C0868D8160868F828D938D0197F1F700
:10553000A389B4898C919589892B8C93FF91EF91E4
:10554000BF91AF919F918F917F916F915F914F919B
:105550003F912F910F900FBE0F901F90189524E64A
:1055600033E0FC01318320830C94F6291F93CF9301
:10557000DF93EC01162F6E8D6695617081E06827D0
:10558000812F0E94042D61E0812F0E94CB2C812F5E
:1055900090E0FC01EA56F14FE491E88BFC01E655FE
:1055A000F14FE491F0E0EE0FFF1FE853F14F8591CA
:1055B00094919A8B898BDF91CF911F9108951F93BE
:1055C000CF93DF93EC01162F60E0812F0E94CB2C4C
:1055D0008E8D81FD04C061E0812F0E94042D1C8707
:1055E000812F90E0FC01EA56F14FE491ED87FC0138
:1055F000E655F14FE491F0E0EE0FFF1FE254F14F5A
:10560000859194919F878E87DF91CF911F91089507
:10561000FF920F931F93CF93DF93EC01F62E522F3F
:105620001B821A8208EE13E020E030E00C831D8319
:105630002E833F8384E693E0998388831F8A1E8AA2
:10564000198E188E1B8E1A8E1D8E1C8E8E8D8E7F3F
:1056500050FB81F98E8F642FCE010E94B62A6F2DE8
:10566000CE01DF91CF911F910F91FF900C94DF2A13
:10567000CF93DF93EC019A01AB011B8E1A8E198E2A
:10568000188E1F8A1E8A60E079E08DE390E00E9408
:105690001434C9012430310520F0B9016350710977
:1056A00002C061E070E07D8F6C8FEC85E63108F020
:1056B00068C0B901769567956431710518F063513A
:1056C000710902C061E070E07F8B6E8B069718F065
:1056D000C901059702C081E090E0998F888FC901C8
:1056E000880F991F820F931F96958795969587959A
:1056F0008D30910510F00C9702C081E090E09B8FF7
:105700008A8F20916800E83050F091E0EE3008F484
:1057100090E081E001C0880F9A95EAF701C084E02B
:10572000822B809368002C85283038F02E3040F092
:10573000263148F48CE690E008C08DE690E005C084
:105740008BE690E002C080E090E09C8B8B8B283051
:1057500030F481E001C0880F2A95EAF70DC0822F4E
:1057600090E02E3010F4089701C00E9791E001C030
:10577000990F8A95EAF7892F8D8B8C8D9D8D0197D6
:10578000F1F7CE01DF91CF910C940C2A1F920F926A
:105790000FB60F9211242F933F938F939F93AF9344
:1057A000BF938091AA049091AB04A091AC04B091F6
:1057B000AD043091A90423E0230F2D3720F4019686
:1057C000A11DB11D05C026E8230F0296A11DB11D24
:1057D0002093A9048093AA049093AB04A093AC04F3
:1057E000B093AD048091AE049091AF04A091B00449
:1057F000B091B1040196A11DB11D8093AE049093A8
:10580000AF04A093B004B093B104BF91AF919F9146
:105810008F913F912F910F900FBE0F901F90189571
:105820002FB7F8946091AA047091AB048091AC04F6
:105830009091AD042FBF08953FB7F8948091AE04C6
:105840009091AF04A091B004B091B10426B5A89B8B
:1058500005C02F3F19F00196A11DB11D3FBF66275E
:10586000782F892F9A2F620F711D811D911D42E0A3
:10587000660F771F881F991F4A95D1F70895CF9219
:10588000DF92EF92FF92CF93DF936B017C010E9436
:105890001C2CEB01C114D104E104F10489F00E9435
:1058A000C9330E941C2C6C1B7D0B683E734090F327
:1058B00081E0C81AD108E108F108C851DC4FEACFED
:1058C000DF91CF91FF90EF90DF90CF900895789483
:1058D00084B5826084BD84B5816084BD85B58260F5
:1058E00085BD85B5816085BDEEE6F0E08081816093
:1058F0008083E1E8F0E01082808182608083808193
:1059000081608083E0E8F0E0808181608083E1EB6A
:10591000F0E0808184608083E0EBF0E08081816052
:105920008083EAE7F0E08081846080838081826008
:1059300080838081816080838081806880831092F1
:10594000C1000895833081F028F4813099F08230CD
:10595000A1F008958730A9F08830B9F08430D1F4EF
:10596000809180008F7D03C0809180008F7780932D
:105970008000089584B58F7702C084B58F7D84BD83
:1059800008958091B0008F7703C08091B0008F7D23
:105990008093B0000895CF93DF9390E0FC01EA5626
:1059A000F14F2491FC01E655F14F8491882349F190
:1059B00090E0880F991FFC01EE52F14FA591B49130
:1059C0008853914FFC01C591D4919FB7611108C0D4
:1059D000F8948C91209582238C93888182230AC02D
:1059E000623051F4F8948C91322F309583238C934C
:1059F0008881822B888304C0F8948C91822B8C93AD
:105A00009FBFDF91CF9108950F931F93CF93DF93A3
:105A10001F92CDB7DEB7282F30E0F901EE57F14FD6
:105A20008491F901EA56F14F1491F901E655F14FCD
:105A300004910023C9F0882321F069830E94A22CDD
:105A40006981E02FF0E0EE0FFF1FE853F14FA591C1
:105A5000B4919FB7F8948C91611103C01095812384
:105A600001C0812B8C939FBF0F90DF91CF911F912D
:105A70000F910895CF93DF93282F30E0F901EE576F
:105A8000F14F8491F901EA56F14FD491F901E655AD
:105A9000F14FC491CC2391F081110E94A22CEC2FE4
:105AA000F0E0EE0FFF1FE254F14FA591B4912C915D
:105AB0002D2381E090E021F480E002C080E090E0BE
:105AC000DF91CF9108950F931F93762F90E0FC0103
:105AD000EA56F14F6491FC01E655F14FE4917111E2
