:100000000C9444080C946C080C946C080C94201309
:100010000C9420130C9420130C946C080C946C0812
:100020000C946C080C946C080C946C080C946C0880
:100030000C946C080C946C080C946C080C946C0870
:100040000C9492210C946C080C944B240C947D24F9
:100050000C946C080C946C080C946C080C946C0850
:100060000C946C080C946C0854656C6E6574204399
:100070006F6E6E656374696F6E204465746563743A
:100080006564005261772054435020436F6E6E6563
:100090006374696F6E204465746563746564002AD7
:1000A0002A2A205465726D696E616C204D6F6465FB
:1000B0002028446562756729202A2A2A00436F6E2A
:1000C0006E656374696F6E20636C6F736564002A7C
:1000D0002A2A205465726D696E616C204D6F6465CB
:1000E000202A2A2A00436F6E6E656374200A4661D7
:1000F000696C65642100496E636F6D696E672043AA
:100100006F6E6E656374696F6E0057616974696EB6
:100110006720666F7220636F6E6E656374696F6EC1
:1001200073206F6E20706F72742000293A2000498E
:100130006E636F6D696E6720706F72742028005750
:10014000692D466920535349443A202000495020E4
:10015000416464726573733A2020004D414320412D
:100160006464726573733A2000293A20000A506F64
:1001700072742028000A54656C6E657420686F7371
:10018000743A20004572726F722053657474696E00
:1001900067205353494400535349442053756363C4
:1001A00065737366756C6C79206368616E676564EE
:1001B00000535349443A005061737370687261731D
:1001C000653A004B65793A00556E6B6E6F776E201D
:1001D0006F7074696F6E2C20747279206167616929
:1001E0006E0053656C6563743A00332E205265745B
:1001F00075726E20746F20436F6E666967757261E9
:1002000074696F6E204D656E7500322E2057504117
:10021000202F205750413200312E205745500043A7
:1002200068616E6765205353494400556E6B6E6F6D
:10023000776E206F7074696F6E2C207472792061F4
:100240006761696E0053656C6563743A00342E20F3
:100250004D61696E204D656E7500332E20446972C4
:10026000656374205465726D696E616C204D6F64B6
:1002700065202844656275672900322E2043686135
:100280006E6765205353494400312E2044697370D2
:100290006C61792043757272656E7420436F6E666F
:1002A000696775726174696F6E00436F6E66696726
:1002B00075726174696F6E204D656E7500556E6B59
:1002C0006E6F776E206F7074696F6E2C2074727908
:1002D00020616761696E0053656C6563743A003331
:1002E0002E20436F6E66696775726174696F6E0068
:1002F000322E205761697420666F7220696E636FB9
:100300006D696E6720636F6E6E656374696F6E00F2
:10031000312E2054656C6E657420746F20686F7385
:1003200074206F72204242530052454144592E00BE
:10033000436F6D6D6F646F72652057692D4669203C
:100340004D6F64656D0057692D4669204661696C83
:100350006564210057692D46690A4661696C6564C8
:10036000210057692D4669204F4B210057692D46C2
:10037000690A4F4B210057692D466920496E6974FF
:100380002E2E2E0057692D46690A496E69742E2E4D
:100390002E00050800FF0C4B00000000003E5B4FE4
:1003A0005B3E3E6B4F6B3E1C3E7C3E1C183C7E3CD5
:1003B000181C577D571C1C5E7F5E1C00183C1800E3
:1003C000FFE7C3E7FF0018241800FFE7DBE7FF3073
:1003D000483A060E2629792926407F050507407FE1
:1003E00005253F5A3CE73C5A7F3E1C1C08081C1C54
:1003F0003E7F14227F22145F5F005F5F06097F014A
:100400007F006689956A606060606094A2FFA29434
:1004100008047E040810207E201008082A1C080802
:100420001C2A08081E101010100C1E0C1E0C303850
:100430003E3830060E3E0E06000000000000005F51
:1004400000000007000700147F147F14242A7F2A6D
:10045000122313086462364956205000080703002F
:10046000001C2241000041221C002A1C7F1C2A087B
:10047000083E0808008070300008080808080000DE
:1004800060600020100804023E5149453E00427F52
:10049000400072494949462141494D331814127FA1
:1004A0001027454545393C4A494931412111090741
:1004B0003649494936464949291E000014000000C2
:1004C0004034000000081422411414141414004194
:1004D00022140802015909063E415D594E7C121151
:1004E000127C7F494949363E414141227F41414189
:1004F0003E7F494949417F090909013E4141517304
:100500007F0808087F00417F41002040413F017F74
:10051000081422417F404040407F021C027F7F043C
:1005200008107F3E4141413E7F090909063E415185
:10053000215E7F09192946264949493203017F0175
:10054000033F4040403F1F2040201F3F4038403F76
:10055000631408146303047804036159494D43008C
:100560007F4141410204081020004141417F0402C3
:10057000010204404040404000030708002054545A
:1005800078407F2844443838444444283844442838
:100590007F385454541800087E090218A4A49C788B
:1005A0007F0804047800447D40002040403D007FE7
:1005B0001028440000417F40007C047804787C08C7
:1005C0000404783844444438FC182424181824249B
:1005D00018FC7C08040408485454542404043F4480
:1005E000243C4040207C1C2040201C3C4030403CAF
:1005F00044281028444C9090907C4464544C44000F
:100600000836410000007700000041360800020172
:100610000204023C2623263C1EA1A161123A40405E
:10062000207A3854545559215555794121545478DC
:1006300041215554784020545579400C1E52721275
:1006400039555555593954545459395554545800FD
:1006500000457C410002457D420001457C40F02977
:100660002429F0F0282528F07C54554500205454C6
:100670007C547C0A097F493249494932324848480A
:1006800032324A4848303A4141217A3A4240207851
:10069000009DA0A07D39444444393D4040403D3C4C
:1006A00024FF2424487E4943662B2FFC2F2BFF096F
:1006B00029F620C0887E0903205454794100004463
:1006C0007D413048484A32384040227A007A0A0A4E
:1006D000727D0D19317D2629292F282629292926C1
:1006E00030484D4020380808080808080808382F06
:1006F00010C8ACBA2F102834FA00007B0000081490
:100700002A142222142A1408AA005500AAAA55AABB
:1007100055AA000000FF00101010FF00141414FF71
:10072000001010FF00FF1010F010F0141414FC0063
:100730001414F700FF0000FF00FF1414F404FC146D
:100740001417101F10101F101F1414141F00101066
:1007500010F0000000001F101010101F10101010DB
:10076000F010000000FF101010101010101010FFFB
:1007700010000000FF140000FF00FF00001F101712
:100780000000FC04F414141710171414F404F400FB
:1007900000FF00F714141414141414F700F71414C1
:1007A00014171410101F101F141414F4141010F048
:1007B00010F000001F101F0000001F14000000FCBC
:1007C000140000F010F01010FF10FF141414FF14A8
:1007D0001010101F00000000F010FFFFFFFFFFF0DF
:1007E000F0F0F0F0FFFFFF0000000000FFFF0F0F30
:1007F0000F0F0F38444438447C2A2A3E147E0202EC
:100800000606027E027E0263554941633844443C39
:1008100004407E201E2006027E020299A5E7A599CB
:100820001C2A492A1C4C7201724C304A4D4D303002
:1008300048784830BC625A463D3E494949007E01ED
:1008400001017E2A2A2A2A2A44445F444440514A0C
:10085000444040444A51400000FF0103E080FF0053
:100860000008086B6B083612362436060F090F068F
:10087000000018180000001010003040FF010100B7
:100880001F01011E00191D1712003C3C3C3C0000DA
:10089000000000636C6F73653A206661696C656483
:1008A0002C206E6F202A434C4F532A00636C6F73C9
:1008B000653A20676F74202A434C4F532A002A431D
:1008C0004C4F532A00636C6F73650D005465726D55
:1008D000696E616C20726561647900556E6578702F
:1008E000656374656420726573703A2000466169BF
:1008F0006C656420746F20636F6E6E6563743A205C
:10090000004F50454E2A00656E61626C65486F73FA
:1009100074526573746F72653A2073746F72656494
:100920002000302E302E302E300073656E64746FD0
:100930003A206661696C656420746F20737461721B
:100940007420636F6D6D616E64003C74696D656FDA
:1009500075743E00556E65787065637465642063D8
:100960006861723A20004661696C656420746F208A
:10097000636F6E6E6563743A20004F50454E2A00D7
:100980005769466C7920686173206372617368658A
:100990006420616E642077696C6C207265626F6F91
:1009A000742E2E2E004661696C656420746F20677A
:1009B00065742070726F6D7074000D006F70656EDD
:1009C00020006F70656E20003235352E3235352EA1
:1009D000302E30003136392E3235342E312E310062
:1009E00036342062797465730050696E67207472C2
:1009F000790070696E672000736574207520690046
:100A00006C656176650D0047573D000D006A6F69A2
:100A10006E20004173736F636961746564210046E1
:100A200041494C454400736574206164686F6320DC
:100A300070726F626500736574206164686F632013
:100A4000626561636F6E0073657420776C616E2000
:100A500074780073657420776C616E2072617465C0
:100A600000736574206F7074207265706C616365CB
:100A70000073657420776C616E20706872617365B5
:100A80000073657420776C616E206B657900736507
:100A90007420776C616E206368616E0073657420EA
:100AA000776C616E20737369640073657420776C72
:100AB000616E206869646520310073657420737904
:100AC0007320696F66756E630073657420636F6D64
:100AD0006D2073697A650073657420636F6D6D2096
:100AE0006D617463680073657420636F6D6D20744D
:100AF000696D6500302E302E302E30007365742005
:100B000062726F61646361737420696E746572767A
:100B1000616C007365742075617274206D6F64651B
:100B2000007365742074696D6520656E61626C6523
:100B3000007365742074696D65207A6F6E6500734B
:100B400065742074696D6520706F727400736574CC
:100B50002074696D652061646472657373007365E8
:100B60007420697020666C61677300736574206916
:100B7000702070726F746F636F6C0073657420699E
:100B80007020646863700073657420646E73206104
:100B900064647265737300736574206970206761A3
:100BA000746577617900736574206970206E65746F
:100BB0006D61736B00736574206970206E65746D70
:100BC00061736B00536574486F73743A2066616992
:100BD0006C656420746F20737461727420636F6D30
:100BE0006D616E64007365742069702072656D6F4D
:100BF00074650073657420697020686F7374007386
:100C0000657420697020686F73740073657420695F
:100C100070206C6F63616C706F7274007365742008
:100C20006970206164647265737300736574206910
:100C30007020616464726573730073657420776CEF
:100C4000616E206A6F696E00736574206F206400A6
:100C5000736574206F20640053657420466163746B
:100C60006F72792044656661756C747300666163A8
:100C7000746F727920524553544F52450D002A52D9
:100C800065626F6F742A007265626F6F740D005336
:100C9000746F72696E6700736176650D003C7469EC
:100CA0006D656F75743E004552523A2000414F4BBE
:100CB0000D0A004552523A20005345525645520003
:100CC0004341434845004155544F4950004F4E0061
:100CD0004F4646006C6F6F6B7570200074696D65D0
:100CE0000D00736C6565700D007365742073797306
:100CF0002077616B6500676574436F6E3A205443DB
:100D00005020646973636F6E6E6563746564006719
:100D10006574436F6E3A2054435020636F6E6E6566
:100D2000637465640073686F7720630D0067657492
:100D3000436F6E3A206661696C656420746F20733E
:100D400074617274004661696C656420746F20651B
:100D50007869740A0D00455849540D0A0065786990
:100D6000740D00434D440D0A0024242400434D44D7
:100D70000D0A002424240073657450726F6D707422
:100D8000206661696C6564006D756C74694D617491
:100D900063685F503A20006D617463685F503A2069
:100DA000007265616454696D656F7574202D2074DF
:100DB000696D6564206F7574003A20003A20006404
:100DC000656275672064756D7000617661696C613C
:100DD000626C653A207065656B203D20002A4F509B
:100DE000454E2A002A434C4F532A004552524F5237
:100DF000207065656B2E3220627566666572206FA5
:100E00007665726C6F77004552524F52207065655F
:100E10006B2E3120627566666572206F7665726C26
:100E20006F77004661696C656420746F206578692E
:100E30007420636F6D6D616E64206D6F6465004634
:100E400061696C656420746F20656E7465722063DF
:100E50006F6D6D616E64206D6F6465004661696CD5
:100E6000656420746F2073657420636F6D6D2072EC
:100E7000656D6F74650073657420636F6D6D2072AE
:100E8000656D6F74652030004661696C656420741F
:100E90006F207475726E206F666620737973207090
:100EA00072696E740073657420737973207072694F
:100EB0006E746C766C2030004661696C65642074D9
:100EC0006F207475726E206F6666206563686F00B0
:100ED0007365742075206D2031005265706C6163FC
:100EE000653D005478506F7765723D0052617465BE
:100EF0003D004A6F696E3D005265626F6F743D0040
:100F000050726F62653D00426561636F6E3D0067C0
:100F10006574206164686F630D0050524F544F3DFB
:100F200000464C4147533D307800525353493D28C9
:100F30002D0073686F7720727373690D00466C75AE
:100F4000736853697A653D004D61746368436861F5
:100F5000723D00466C75736854696D65723D00673B
:100F6000657420636F6D6D0D004D6F64653D0052BB
:100F700054433D0073686F77207420740D00416402
:100F800064726573733D0067657420646E730D0051
:100F900054696D653D00557054696D653D00736819
:100FA0006F772074696D650D005A6F6E653D00673F
:100FB00065742074696D650D0042617564726174B9
:100FC000653D0067657420750D004465766963654D
:100FD00049643D00676574206F70740D0053534978
:100FE000443D0067657420776C616E0D004D616350
:100FF00020416464723D00676574206D61630D007B
:10100000444843503D00484F53543D0047573D002E
:101010004E4D3D0049503D006765742069700D00DC
:1010200000000008000201000003040700000000A7
:1010300000000000010204081020408001020408A2
:101040001020010204081020040404040404040411
:101050000202020202020303030303030000000072
:1010600023002600290000000000250028002B0096
:1010700000000000240027002A00AD092212B1144C
:101080008721AD243625C80911241FBECFEFD8E033
:10109000DEBFCDBF13E0A0E0B1E0E0ECFCE502C0B4
:1010A00005900D92A63BB107D9F725E0A6EBB3E07A
:1010B00001C01D92A83CB207E1F710E1C6E8D0E1FB
:1010C00004C02297FE010E94CD28CA37D107C9F774
:1010D0000E9446250C94532E0C940000CF93DF936E
:1010E000EC0160E08BE994E00E946A1140E060E06E
:1010F0008BE994E00E946C0FBE018BE994E00E94A2
:10110000F5258BE994E0DF91CF910C9479110F9341
:101110001F93CF93DF9300D000D000D0CDB7DEB7C0
:101120008C01BC01CE0101960E94C427CE0101961C
:101130000E946E08CE0101960E940827B80186E73A
:1011400094E00E94F52526960FB6F894DEBF0FBEF8
:10115000CDBFDF91CF911F910F910895CF92DF9274
:10116000EF92FF920F931F93CF93DF93CDB7DEB72C
:10117000C457D1090FB6F894DEBF0FBECDBF182FEC
:1011800044E150E0BE01655A7F4F80E294E00E9446
:101190002C1D6E0187E4C80ED11C44E150E0B6015D
:1011A00080E294E00E94D61C7E0193E3E90EF11CDC
:1011B00044E150E0B70180E294E00E94321D86E7EE
:1011C00094E00E94CF256BE571E086E794E00E94F1
:1011D0009325BE01655A7F4F86E794E00E9407265B
:1011E0006DE471E086E794E00E949325B60186E7FE
:1011F00094E00E9407266FE371E086E794E00E9486
:101200009325B70186E794E00E940726112309F48D
:101210006AC089E08F9380E68F938AE892E09F937B
:101220008F938E010F5F1F4F1F930F930E947F2B91
:10123000B801CE0181599F4F0E947627CE01815976
:101240009F4F0E946E08CE0181599F4F0E94082730
:1012500068EE73E080E090E00E940B22DF92CF9274
:1012600088E992E09F938F931F930F930E947F2BA7
:10127000B801CE0181599F4F0E947627CE01815936
:101280009F4F0E946E08CE0181599F4F0E940827F0
:1012900068EE73E080E090E00E940B22FF92EF92F4
:1012A00087EA92E09F938F931F930F930E947F2B67
:1012B000B801CE0181599F4F0E947627CE018159F6
:1012C0009F4F0E946E08CE0181599F4F0E940827B0
:1012D00068EE73E080E090E00E940B220FB6F89475
:1012E000DEBF0FBECDBFCC58DF4F0FB6F894DEBFC8
:1012F0000FBECDBFDF91CF911F910F91FF90EF9067
:10130000DF90CF900895CF93DF93EC01E881F981CE
:101310000480F581E02DCE010995892BB9F3E88190
:10132000F9810680F781E02DCE01DF91CF910994FC
:10133000CF93DF93EC01E881F9810480F581E02D02
:10134000CE010995892BB9F3E881F9810084F185F3
:10135000E02DCE01DF91CF9109940F9300E020E0C2
:1013600040E060E085E994E00E942A2520E046E024
:1013700065E086E794E00E94F31380E294E00E9427
:10138000592167E073E08AE194E00F910C9476278D
:101390008AE194E00E94082786E794E00C949A136F
:1013A000EF92FF920F931F93CF93DF93CDB7DEB7EA
:1013B000C556D1090FB6F894DEBF0FBECDBF7C0174
:1013C00000E010E086E794E00E948309282FE1E026
:1013D000F0E0EC0FFD1FE00FF11F8083682F86E720
:1013E00094E0A6962FAFA6970E944E12A6962FAD18
:1013F000A697283031F40115110541F0025011096A
:1014000002C02D3041F00336110529F00F5F1F4F48
:1014100017FFD8CFD5CFE1E0F0E0EC0FFD1FE00FD4
:10142000F11F1082BE016F5F7F4FC7010E947627B8
:10143000C701CB59DF4F0FB6F894DEBF0FBECDBF4B
:10144000DF91CF911F910F91FF90EF900895CF936F
:10145000DF93EC010E94D009CE010E94F727CE0154
:10146000DF91CF9108950F931F93CF93DF93CDB763
:10147000DEB72C970FB6F894DEBF0FBECDBF86E760
:1014800094E00E94CF256FE172E086E794E00E942D
:10149000E32586E794E00E94CF2568E172E086E7C5
:1014A00094E00E94E3256AE072E086E794E00E94FF
:1014B000E3256AEE71E086E794E00E94E32586E783
:1014C00094E00E94CF2562EE71E086E794E00E94EE
:1014D000932586E794E00E9483098C01682F86E7B4
:1014E00094E00E9419260032110549F23CF40A30BA
:1014F000110529F20D30110559F4C1CF0233110540
:1015000089F00333110509F492C00133110539F054
:1015100068EC71E086E794E00E94E325B0CF01E03B
:1015200010E002C000E010E086E794E00E94CF25C2
:1015300067E073E0CE0107960E947627013011051F
:10154000E1F463EC71E086E794E00E949325CE011C
:1015500001960E94270ABE016F5F7F4FCE0107965A
:101560000E94AD27CE0101960E9408276F817885E1
:1015700080E294E00E942B1F1BC067EB71E086E7BE
:1015800094E00E949325CE0101960E94270ABE0195
:101590006F5F7F4FCE0107960E94AD27CE01019667
:1015A0000E9408276F81788580E294E00E944A1F9C
:1015B00086E794E00E94CF2561EB71E086E794E036
:1015C0000E949325CE0101960E94270ABE016F5FFB
:1015D0007F4FCE0107960E94AD27CE0101960E9453
:1015E00008276F81788580E294E00E94201F811196
:1015F00013C067E971E086E794E00E94E32580E28A
:1016000094E00E94D31E80E294E00E94BC1FCE01B1
:1016100007960E9408270BC064E871E086E794E013
:101620000E94E325CE0107960E94082728CF2C961A
:101630000FB6F894DEBF0FBECDBFDF91CF911F91E3
:101640000F9108951F93CF93DF93EC01162F6FEF47
:1016500080E294E00E941E16CD3FD10511F46DEF9B
:1016600001C06BEF80E294E00E941E16612F80E2C1
:1016700094E0DF91CF911F910C941E161F93CF938E
:10168000DF93EC01162F6FEF80E294E00E941E16AC
:10169000CD3FD10511F46CEF01C06EEF80E294E014
:1016A0000E941E16612F80E294E0DF91CF911F917E
:1016B0000C941E166FEF80E294E00E941E166EEFEF
:1016C00080E294E00E941E1662E280E294E00E94B2
:1016D0001E166FEF80E294E00E941E166EEF80E20D
:1016E00094E00E941E1661E080E294E00C941E16C5
:1016F000CF93DF9380E294E00E9498098F3F910599
:1017000041F063E870E086E794E0DF91CF910C94BC
:10171000E32568E670E086E794E00E94E3250E94F6
:101720005A0B80E294E00E9498098F3F910539F5A9
:1017300080E294E00E94830980E294E00E948309A1
:10174000EC018F3F2FEF920761F38B5F91090497B4
:1017500040F780E294E00E9483098F3F2FEF9207C9
:1017600001F38330910531F463E070E0CE010E9413
:10177000220BD7CFBC01CE010E943E0BD2CFDF910E
:10178000CF910895CF93DF9300D000D000D0CDB794
:10179000DEB76FEC70E086E794E00E94E32580E21C
:1017A00094E00E943C18019641F180E294E00E948E
:1017B0003C181816190654F480E294E00E94E117D0
:1017C000682F86E794E00E944E12EFCF86E794E000
:1017D0000E94BA121816190654F486E794E00E9483
:1017E0002D12682F80E294E00E941E16EFCF80E257
:1017F00094E00E9411208111D2CF80E294E00E94F7
:101800001E206DEB70E0CE0101960E94EE27CE0106
:1018100001960E948708CE0101960E94082726960D
:101820000FB6F894DEBF0FBECDBFDF91CF91089504
:101830000F931F93CF93DF9300D000D000D0CDB78C
:10184000DEB780E294E00E94F41C8C0186E794E00D
:101850000E94CF256FE271E086E794E00E94932515
:101860004AE050E0B80186E794E00E94CE266BE2A1
:1018700071E086E794E00E949325CE0101960E94D4
:10188000270A8D819E81892B81F0CE0101960E94CD
:10189000562880E294E00E94FB1E80E294E00E94C1
:1018A000D31E80E294E00E94BC1F80E294E00E947C
:1018B000F41C8C0186E794E00E94CF256AE071E079
:1018C00086E794E00E9493254AE050E0B80186E75D
:1018D00094E00E94D62680E294E00E9411208823A2
:1018E000D1F366EF70E086E794E00E94E3250E9462
:1018F000C20BCE0101960E94082726960FB6F894D7
:10190000DEBF0FBECDBFDF91CF911F910F91089524
:10191000CF92DF92EF92FF920F931F93CF93DF93BB
:1019200000D000D000D0CDB7DEB78C016B01FC0138
:1019300081818F9380818F9381EB92E09F938F932E
:1019400086EBE82E83E0F82EFF92EF920E947F2B29
:10195000B701CE0101960E947627CE0101960E9422
:101960008708CE0101960E94082762E080E294E099
:101970000E94121FF8016081718121E0A60180E2BE
:1019800094E00E945E200F900F900F900F900F90A8
:101990000F90882329F1F80181818F9380818F93A3
:1019A00083EC92E09F938F93FF92EF920E947F2BA4
:1019B000B701CE0101960E947627CE0101960E94C2
:1019C0008708CE0101960E9408270E94780B0E948A
:1019D000C20B0F900F900F900F900F900F900EC0B2
:1019E00065EE70E0CE0101960E94EE27CE010196D1
:1019F0000E948708CE0101960E94082726960FB6FE
:101A0000F894DEBF0FBECDBFDF91CF911F910F9134
:101A1000FF90EF90DF90CF9008950F931F93CF9397
:101A2000DF93CDB7DEB762970FB6F894DEBF0FBE77
:101A3000CDBF65E771E086E794E00E949325CE0173
:101A40000D960E94270A89899A89892B09F446C034
:101A50006DE671E086E794E00E94932560910601AF
:101A6000709107014AE050E086E794E00E94CE269C
:101A700069E671E086E794E00E949325CE0107961F
:101A80000E94270A8B859C85892B31F0CE01079611
:101A90000E9456288B0104C0009106011091070195
:101AA000BE01635F7F4F8AE194E00E94AD271093EF
:101AB000070100930601BE01635F7F4FCE010196CF
:101AC0000E94C427B801CE0101960E94880CCE0165
:101AD00001960E940827CE01079617C080911E0428
:101AE00090911F04892B99F0009106011091070134
:101AF0006AE174E0CE0101960E94C427B801CE01CC
:101B000001960E94880CCE0101960E940827CE0102
:101B10000D960E94082762960FB6F894DEBF0FBE9E
:101B2000CDBFDF91CF911F910F910895CF93DF9398
:101B300000D000D000D0CDB7DEB76FE970E086E707
:101B400094E00E94E325412C512C3201C12CD12C70
:101B50007601912C93EDA92E92E0B92E06EB13E0BD
:101B600080E294E00E943C18181619068CF48FEF5E
:101B7000C81AD80AE80AF80A80E294E00E94E1173D
:101B8000682F86E794E00E944E1299249394E8CF40
:101B900086E794E00E94BA12181619068CF49FEF9B
:101BA000491A590A690A790A86E794E00E942D12B7
:101BB000682F80E294E00E941E1699249394E8CF47
:101BC000992071F27F926F925F924F92FF92EF9203
:101BD000DF92CF92BF92AF921F930F930E947F2B01
:101BE00066EB73E0CE0101960E947627CE01019646
:101BF0000E946E08CE0101960E9408270FB6F89445
:101C0000DEBF0FBECDBFACCFCF93DF9300D000D0EF
:101C100000D0CDB7DEB78BE994E00E94BA1160E046
:101C20008BE994E00E94B00F61E08BE994E00E94A0
:101C30006A1140E659E060E070E086E794E00E94B7
:101C4000231426E040E659E060E070E081E295E090
:101C50000E94E92348EE53E060E070E086E794E0FC
:101C60000E94022764E873E0CE0101960E94EE27ED
:101C7000CE0101960E946E08CE0101960E940827AF
:101C800066E773E086E794E00E94E32546E754E0C8
:101C900061E275E080E294E00E94E71F882371F121
:101CA0006CE673E0CE0101960E94EE27CE0101960C
:101CB0000E946E08CE0101960E94082762E673E03A
:101CC00086E794E00E94E32580E294E00E941E20D3
:101CD00086E794E00E94CF2560E373E086E794E016
:101CE0000E94E32581E00E94AE0826960FB6F89484
:101CF000DEBF0FBECDBFDF91CF91089564E573E0E5
:101D0000CE0101960E94EE27CE0101960E946E0838
:101D1000CE0101960E94082766E473E086E794E00E
:101D20000E94E3250E94960DCF93DF9386E794E00F
:101D30000E94CF256AEA72E086E794E00E94E325DC
:101D400086E794E00E94CF2569E872E086E794E098
:101D50000E94E3256AE772E086E794E00E94E325AB
:101D60006AE572E086E794E00E94E3256DE472E0A4
:101D700086E794E00E94E32586E794E00E94CF2561
:101D800065E472E086E794E00E94932586E794E09C
:101D90000E948309EC01682F86E794E00E941926CF
:101DA000C133D10599F05CF4CD30D10509F4BECF33
:101DB000C032D10509F4BACF2A9789F4B7CFC3331B
:101DC000D10559F03CF0E49789F009C080E00E9409
:101DD000AE08ACCF0E94330AA9CF0E94960D6BE2E9
:101DE00072E086E794E00E94E325A0CFDF91CF91D7
:101DF00008950F931F93CF93DF9300D000D000D0AE
:101E0000CDB7DEB769E273E0CE0101960E94EE27FE
:101E1000CE0101960E946E08CE0101960E9408270D
:101E200086E794E00E94CF2560E173E086E794E0C6
:101E30000E94E32560EF72E086E794E00E94E325CC
:101E40006FED72E086E794E00E94E32586E794E078
:101E50000E94CF2567ED72E086E794E00E9493250B
:101E600086E794E00E9483098C01682F86E794E05E
:101E70000E9419260032110501F13CF40A301105C7
:101E8000E1F00D30110599F418C00233110549F045
:101E90000333110549F00133110549F40E940D0D7A
:101EA0000CC00E94180C09C00E94940E06C06DEB75
:101EB00072E086E794E00E94E32526960FB6F89438
:101EC000DEBF0FBECDBFDF91CF911F910F9108955F
:101ED0000DB407FEFDCF0895FC0163874487089584
:101EE0000F936034D8F54033C8F50130C9F4213080
:101EF000A9F5E42FE695E695E69580E4E89FF001E4
:101F00001124E60FF11DE85FFE4F477081E090E07D
:101F1000042E01C0880F0A94EAF7908198271DC00B
:101F2000842F869586958695E62FF0E0477090E49D
:101F3000899FE00DF11D1124E85FFE4F81E090E0E4
:101F4000042E01C0880F0A94EAF7213019F4908119
:101F5000982B03C080959081982390830F910895CA
:101F6000DC0161112EC018961C921897809188028E
:101F700090918902FC01249116962C931697319624
:101F8000E4911796EC931797FC013296E491199619
:101F9000EC931997FC013396E4911A96EC931A97F7
:101FA000FC01349624913196849190E0F4E62F9FC1
:101FB000800D911D11241E969C938E931D9781E098
:101FC000089580E008955F926F927F928F929F9222
:101FD000AF92BF92CF92DF92EF92FF920F931F9337
:101FE000CF93DF93EC01162FB42EF02E39852317F3
:101FF00008F4B0C0822F90E06A8570E0630F711D15
:10200000681779070CF4A6C0D22ED31A9F80969435
:102010009694969481E08915C0F1C12E3C2D311B18
:102020002E81822F90E0A32FB0E08A179B070CF43B
:1020300091C0321791F0E885F0E0EE0FFF1FE857EE
:10204000FD4FD29EA00DB11D112416960190F08176
:10205000E02DEA0FFB1F949001C0912CA12C4A2D7A
:102060004B0D90FE03C00E2D2F2D04C021E0F1106A
:1020700020E00E2D6C2DCE010E94700F9694A3943B
:1020800088E0A812ECCFC394C9CFED85FE852E81E0
:1020900030E0CF01B9010E9462288D2D90E00E94AE
:1020A0006228829F6001839FD00C929FD00C1124E4
:1020B0009E9E90019F9E300D1124269FC001279F58
:1020C000900D369F900D1124C80ED91E742EA12C90
:1020D000B12C86E0C80ED11C812E482D411B8E816B
:1020E000481780F5E885F0E0EE0FFF1FE857FD4F39
:1020F0002D853E85A29EC001A39E900DB29E900D9F
:1021000011248C0D9D1D840F911D0190F081E02DF7
:10211000E80FF91F5490612C462D470D50FE03C067
:102120000E2D2F2D04C021E0F11020E00E2D682D82
:10213000CE010E94700F5694639488E06812ECCF31
:102140008394CBCF8FEFA81AB80A88E0780EA91431
:1021500008F4C2CFDF91CF911F910F91FF90EF90C4
:10216000DF90CF90BF90AF909F908F907F906F90B7
:102170005F900895EF920F93CF93DF93EC01262F9A
:102180006A30A9F06D30C1F0ED800C814C856B8513
:102190000E94E30F4E812B85240F2F5F2B8730E0A9
:1021A00080E490E0841B9109821793072CF48C85BE
:1021B0009F81890F8C871B8681E090E0DF91CF9112
:1021C0000F91EF9008952A9A22982898209A60E01B
:1021D0008DE00E94D02260E08BE00E94D02261E07E
:1021E0008DE00E94972261E08BE00E9497228CB5DF
:1021F00080618CBD08958CB580648CBD2A98229A2C
:1022000008950DB407FEFDCF2898209A2A9A2298A7
:102210008CB58F7B8CBD0895CF93DF9300D0CDB765
:10222000DEB74A8369830E94FB1069816EBD0E94FC
:10223000680F4A814EBD0F900F90DF91CF910C94A3
:102240000111CF93DF9300D01F92CDB7DEB72B8360
:102250004A8369830E94FB1069816EBD0E94680FEA
:102260004A814EBD0E94680F2B812EBD0F900F90AA
:102270000F90DF91CF910C9401110F931F93CF9387
:10228000DF93EC0140E060E20E940C112FE740E098
:1022900061E2CE010E94211127E040E062E2CE011E
:1022A0000E9421110E94FB10289A20981EBC0FEF5B
:1022B00013E00E94680F1EBC01501109D1F70E9463
:1022C000011142E060E2CE01DF91CF911F910F91A9
:1022D0000C940C11613011F40C943D1180E891E0E4
:1022E000E8E0F1E0DF019C011D9221503040E1F770
:1022F00008950F931F93CF93DF93EC0140E060E2CA
:102300000E940C112FE540E261E2CE010E942111F2
:1023100025E040E062E2CE010E9421110E94FB1004
:10232000289A2098809108018EBD09E011E00E9452
:10233000680FF80181918F018EBDF2E008381F0708
:10234000B1F70E94011142E060E2CE01DF91CF912E
:102350001F910F910C940C112CB5982F93702C7F1A
:10236000922B9CBD9DB582FB882780F99E7F982B80
:102370009DBD0895CF93DF93EC0160E00E94B00F04
:1023800081E08C831D821B861C865F98579A61E0D2
:1023900084E00E94972261E084E00E94D0226AE0FB
:1023A00070E080E090E00E940B225F9A579865E011
:1023B00070E080E090E00E940B225F98579A84E0E2
:1023C0000E94AC110E94E31065E070E080E090E0B4
:1023D0000E940B225F9A57986AE070E080E090E0DC
:1023E0000E940B224FE268EACE010E940C1144E1E8
:1023F0006DE8CE010E940C110E94FB1081EA8EBD97
:102400000E9401110E94FB1088EC8EBD0E940111F8
:102410004FE861E8CE010E940C1141EF69EDCE0159
:102420000E940C1140E46BEDCE010E940C110E9441
:10243000FB108FEA8EBD0E940111CE01DF91CF917A
:102440000C943D1110929E0410929D048AEE92E02D
:1024500090939C0480939B0408952091EC04309108
:10246000ED0428173907B9F49091AA048091AB04C0
:10247000981789F0E091AA04F0E0E455FB4F8081C1
:102480002091AA0430E02F5F3F4F2F733327209312
:10249000AA0490E008958FEF9FEF08951F93CF93C4
:1024A000DF93DC015C968D919C915D97009749F4D8
:1024B00081E090E013969C938E93129780E090E0D9
:1024C0003BC05196ED91FC91529750962C915097AC
:1024D000322F30951FB75E964C915E9741FB772760
:1024E00070F941FD6095F8944081772311F0422BFB
:1024F00001C043234083EC012197F1F748E050816C
:1025000060FF02C0522B01C053235083EC0121977E
:10251000F1F76695415099F78081772311F0832375
:1025200001C0822B80831FBF5C968D919C915D972B
:102530000197F1F781E090E0DF91CF911F9108952D
:102540002091EC043091ED042817390781F4909123
:10255000AA048091AB04981751F0E091AA04F0E02E
:10256000E455FB4F8081992787FD909508958FEF63
:102570009FEF08952091EC043091ED04281739075E
:1025800071F48091AB042091AA0490E0805C9F4F8D
:10259000821B910960E470E00E947628089580E033
:1025A00090E008952091EC043091ED04281739074C
:1025B00039F48FB7F8941092AB041092AA048FBF2D
:1025C0000895E091EC04F091ED04E817F90769F43F
:1025D000A389B4899C918589809589238C931092D5
:1025E000ED041092EC0481E0089580E00895CF930B
:1025F000DF93EC018A8D9B8D892BF1F08091EC04A7
:102600009091ED048C179D07B9F0009711F00E948E
:10261000E1128E8D8E7F8E8F1092AB041092AA04E1
:10262000D093ED04C093EC04EB89FC8980819D89F3
:10263000892B808381E001C080E0DF91CF910895F4
:102640001F920F920FB60F9211242F933F934F9327
:102650005F936F937F938F939F93AF93BF93EF930A
:10266000FF93E091EC04F091ED04309709F451C030
:10267000868DA685B785958581FF04C08C918923B9
:1026800029F447C08C91892309F043C0A389B489F8
:102690009C918589809589238C9386899789019758
:1026A000F1F7208D318DA685B785758558E040E01E
:1026B000C9010197F1F7842F90E095958795482FF0
:1026C0006C91672309F04068515091F7868D81FD28
:1026D00040958091AB0490E001968F7399272091EB
:1026E000AA04281749F0A091AB04B0E0A455BB4F51
:1026F0004C938093AB0403C0868D8160868F828D5E
:10270000938D0197F1F7A389B4898C919589892BD1
:102710008C93FF91EF91BF91AF919F918F917F919A
:102720006F915F914F913F912F910F900FBE0F903E
:102730001F90189522EF32E0FC01318320830C9426
:10274000E1121F93CF93DF93EC01162F6E8D6695E8
:10275000617081E06827812F0E94D02261E0812F83
:102760000E949722812F90E0FC01EC5CFF4EE491E7
:10277000E88BFC01E85BFF4EE491F0E0EE0FFF1FF9
:10278000EA59FF4E859194919A8B898BDF91CF9175
:102790001F9108951F93CF93DF93EC01162F60E0F4
:1027A000812F0E9497228E8D81FD04C061E0812FD0
:1027B0000E94D0221C87812F90E0FC01EC5CFF4E30
:1027C000E491ED87FC01E85BFF4EE491F0E0EE0F51
:1027D000FF1FE45AFF4E859194919F878E87DF916A
:1027E000CF911F910895FF920F931F93CF93DF9383
:1027F000EC01F62E522F1B821A8208EE13E020E025
:1028000030E00C831D832E833F8382EF92E0998317
:1028100088831F8A1E8A198E188E1B8E1A8E1D8E13
:102820001C8E8E8D8E7F50FB81F98E8F642FCE0192
:102830000E94A1136F2DCE01DF91CF911F910F91B7
:10284000FF900C94CA13CF93DF93EC019A01AB0174
:102850001B8E1A8E198E188E1F8A1E8A60E079E0F0
:102860008DE390E00E94AC28C9012430310520F0AE
:10287000B9016350710902C061E070E07D8F6C8F17
:10288000EC85E63108F068C0B9017695679564314A
:10289000710518F06351710902C061E070E07F8B2F
:1028A0006E8B069718F0C901059702C081E090E091
:1028B000998F888FC901880F991F820F931F969552
:1028C0008795969587958D30910510F00C9702C0ED
:1028D00081E090E09B8F8A8F20916800E83050F073
:1028E00091E0EE3008F490E081E001C0880F9A9505
:1028F000EAF701C084E0822B809368002C852830A1
:1029000038F02E3040F0263148F48CE690E008C0D4
:102910008DE690E005C08BE690E002C080E090E09C
:102920009C8B8B8B283030F481E001C0880F2A9576
:10293000EAF70DC0822F90E02E3010F4089701C006
:102940000E9791E001C0990F8A95EAF7892F8D8B38
:102950008C8D9D8D0197F1F7CE01DF91CF910C9475
:10296000F7120F9300E020E040E060E08EEE94E08C
:102970000E942A250F910895DC011C968D919C914F
:102980001D97DC01ED91FC910680F781E02D099403
:10299000DC011C968D919C911D97DC01ED91FC91C1
:1029A0000480F581E02D0994DC011C968D919C91A9
:1029B0001D97DC01ED91FC910284F385E02D0994D3
:1029C000DC011C968D919C911D97DC01ED91FC9191
:1029D0000084F185E02D09942F923F924F925F92EF
:1029E0006F927F928F929F92AF92BF92CF92DF921F
:1029F000EF92FF920F931F93CF93DF93CDB7DEB784
:102A000060970FB6F894DEBF0FBECDBF2B013C011F
:102A100069014A3021F5CE0101961C01E12CF12C0F
:102A20005AE0852E912CA12CB12CC301B201A50135
:102A300094010E948A289FEFE91AF90A80E3840D25
:102A4000EAE02E9F80191124F10181931F012115C5
:102A5000310541055105C9F129013A01E6CFFE01D1
:102A6000319680E090E0B301A2014F7055276627B0
:102A700077279C012F5F3F4F4A3051056105710553
:102A800010F4A0E301C0A1E44A0F419344E076941E
:102A90006794579447944A95D1F7411451046104BF
:102AA000710411F0C901DFCFE1E0F0E0EC0FFD1F90
:102AB000E20FF31F48E740837C01F3E0EF0EF11CC7
:102AC000FE01E80FF91F20E3238321E0E21AF10859
:102AD000F60180E090E0015011090196A1E0B0E01C
:102AE000AC0FBD1FAE0DBF1D2C9121931E141F04F2
:102AF000ECF0F601E80FF91F108260960FB6F8941B
:102B0000DEBF0FBECDBFDF91CF911F910F91FF9020
:102B1000EF90DF90CF90BF90AF909F908F907F907D
:102B20006F905F904F903F902F90089521E0E21AB0
:102B3000F10880179107ECF6D0CFCF92DF92EF9299
:102B4000FF920F931F93FC0140E060E070E0CB0127
:102B50000191002309F449C020ED200F2A30B0F480
:102B600014E0660F771F881F991F1A95D1F76053DD
:102B7000710981099109C02EDD24C7FCD094ED2C88
:102B8000FD2C6C0D7D1D8E1D9F1DE2CF2FE9200FAA
:102B9000263060F4B4E0660F771F881F991FBA953E
:102BA000D1F767557109810991090FC02FEB200FEB
:102BB0002630A8F4A4E0660F771F881F991FAA95F6
:102BC000D1F76753710981099109112707FD109504
:102BD000212F312F600F711F821F931FB9CF08372C
:102BE00021F4411102C041E0B3CF1F910F91FF903A
:102BF000EF90DF90CF9008950F931F93FC0160E05A
:102C000070E0CB01019120ED200F2A30A0F4AAE062
:102C1000B0E09B01AC010E94D12860537109810989
:102C20009109112707FD1095212F312F600F711F7A
:102C3000821F931FE7CF1F910F910895DC01AE5AB9
:102C4000BF4F2D913C911197FC01EC5AFF4F4081F1
:102C500051812417350764F434970190F081E02DF9
:102C6000A9014F5F5F4F4D935C93E20FF31F6083A9
:102C7000FC01FF9680819181DC01ED91FC91019036
:102C8000F081E02D0994CF96DC018D919C91DC01BF
:102C9000ED91FC910284F385E02D0994DC011C96F2
:102CA0008D919C911D97009739F0DC01ED91FC917D
:102CB0000190F081E02D099480E090E0089520914A
:102CC000070521110BC0FC01FF9680819181DC0179
:102CD000ED91FC910084F185E02D0994E0910805C7
:102CE000F0E0E65FFA4F8081992787FD909508957F
:102CF000DC01ED91FC910190F081E02D09944F925F
:102D00005F926F927F92AF92BF92CF92DF92EF92DB
:102D1000FF920F931F93CF93DF93EC015B016A0146
:102D20000E94DC212B013C01E12CF12C8E01015C85
:102D30001F4F0E94DC2164197509860997096C15DB
:102D40007D058E059F0508F067C0D8018D919C9187
:102D5000DC01ED91FC910480F581E02D09951816B8
:102D600019063CF7F80180819181DC01ED91FC911D
:102D70000680F781E02D0995F82EF5018083DE01AC
:102D8000AE5ABF4F2D913C911197FE01EC5AFF4F67
:102D900080819181281739075CF434970190F08184
:102DA000E02DC90101968D939C93E20FF31FF082F1
:102DB0008C858823E1F16091F4047091F504CB01D6
:102DC00001969093F5048093F404CF5BDF4F4AE0C3
:102DD00050E0CE010E94CE2669EB7DE0CE010E943C
:102DE000932540E150E00F2D112707FD1095B80104
:102DF000CE010E94CE26C8010E94052B892B41F0EE
:102E000060E2CE010E94C8256F2DCE010E94C82528
:102E1000CE010E94CF250BC08C85882351F061EA3A
:102E20007DE0CE018F5B9F4F0E94E32502C081E0D1
:102E300001C080E0DF91CF911F910F91FF90EF9043
:102E4000DF90CF90BF90AF907F906F905F904F904A
:102E50000895EF92FF920F931F93CF93DF931F92EA
:102E6000CDB7DEB78C017B01A701BE016F5F7F4F3D
:102E7000C8010E947F168111F7CF0F90DF91CF918B
:102E80001F910F91FF90EF900895DF92EF92FF92C4
:102E90000F931F93CF93DF938C0190910705992394
:102EA00011F1442321F06F5F7F4F81E001C080E08A
:102EB00020910805820FFB01BF01382F321B391703
:102EC000B0F43491332309F443C0893010F4A82FAF
:102ED00001C0A0E031968F5FB0E0A65FBA4F4C9181
:102EE000431751F354C0411102C06F5F7F4FFB0184
:102EF000D490EB0121967801F1E4EF0EF11C609182
:102F0000090570E0665F7A4F44EF51E0C8010E9406
:102F10007F1680910905E82FF0E0E65FFA4F2081E7
:102F2000909107058F5F2D111BC0883068F5809345
:102F300009059F5F90930705993028F06BEE7DE0BF
:102F4000C7010E94E325FE01D4902196D110D7CF6E
:102F500010920705109208051092090581E018C02B
:102F6000883018F48093090502C0109209059F5F0C
:102F700090930705993058F067E07EE0C8018F5BB9
:102F80009F4F0E94E32503C010920905D2CF80E035
:102F9000DF91CF911F910F91FF90EF90DF900895F7
:102FA000CF93DF93EC01462F64EE7DE00E9445173E
:102FB000882319F01FAA81E001C080E0DF91CF9142
:102FC0000895CF93DF93EC0180910705882381F06A
:102FD000E091080591E09E0F90930805F0E0E65F10
:102FE000FA4F208130E0983060F11092080529C036
:102FF000FE01FF9680819181DC01ED91FC910680BC
:10300000F781E02D09959C018FA98823E9F02A32E8
:103010003105D1F460E0CE010E94D017811116C0B5
:10302000E091080581E08E0F80930805F0E0E65FEF
:10303000FA4F208130E0883010F01092080580911E
:103040000705815080930705C90102C08FEF9FEFEC
:10305000DF91CF910895CF93DF93EC01462F6DED73
:103060007DE00E944517882319F081E08FAB01C0F5
:1030700080E0DF91CF910895CF92DF92EF92FF929F
:103080000F931F93CF93DF93EC018C01015C1F4FD3
:10309000D8018D919C91DC01ED91FC910480F5812A
:1030A000E02D09957C01181619060CF043C08C859B
:1030B0008823B9F06AEC7DE06E01B1E4CB0ED11C3F
:1030C000C6010E949325F80180819181DC01ED9178
:1030D000FC910084F185E02D0995682FC6010E94BE
:1030E0001926F80180819181DC01ED91FC91008429
:1030F000F185E02D09958A97E9F48FA961E088238D
:1031000031F0CE010E94D017882321F01AC0CE01E1
:103110000E942B18C0910705D0E0F80180819181B1
:10312000DC01ED91FC910480F581E02D09958C0F77
:103130009D1F09C080910705F701E80FF11DCF0120
:1031400002C08FEF9FEFDF91CF911F910F91FF9002
:10315000EF90DF90CF900895CB0167EF74E00E946D
:10316000502B21E0892B09F420E0822F08958F92C3
:103170009F92AF92BF92CF92DF92EF92FF920F9306
:103180001F93CF93DF931F92CDB7DEB76C017B0106
:103190005A016115710529F1FB018081882309F12C
:1031A0008B014B01FFEF8F1A9F0AA501BE016F5FD4
:1031B0007F4FC6010E947F168823A1F08981F80104
:1031C0009081891303C00F5F1F4F07C0F7019081E3
:1031D000891302C0840101C08701F8018081811137
:1031E000E4CF81E00F90DF91CF911F910F91FF907D
:1031F000EF90DF90CF90BF90AF909F908F90089509
:103200007F928F929F92AF92BF92CF92DF92EF9276
:10321000FF920F931F93CF93DF931F92CDB7DEB72B
:103220006C018B015A01FC018485882369F067E9F0
:103230007DE07601F1E4EF0EF11CC7010E949325B9
:10324000B801C7010E94E325F80174907720C1F00E
:1032500078014801FFEF8F1A9F0AA501BE016F5F39
:103260007F4FC6010E947F168823C9F0298127114C
:1032700009C08FEFE81AF80AF70174907110EDCFCA
:1032800081E00DC0F8018491332727FD309590E04F
:103290002817390711F47401EFCF7801EDCF0F90A3
:1032A000DF91CF911F910F91FF90EF90DF90CF9022
:1032B000BF90AF909F908F907F9008952F923F92F4
:1032C0004F925F926F927F928F929F92AF92BF9236
:1032D000CF92DF92EF92FF920F931F93CF93DF93E2
:1032E00000D01F92CDB7DEB76C01562E672E742E1C
:1032F00059012DB73EB73B832A83242F30E0C90103
:10330000880F991F820F931FEDB7FEB7E81BF90BCB
:103310000FB6F894FEBF0FBEEDBF2DB73EB72F5FBF
:103320003F4F1901062F172F4901412C760131E437
:10333000E30EF11C471409F449C0F4011082F801AE
:1033400080819181F40192838183F60184858823B1
:10335000A9F068E87DE0C7010E9493254AE050E0AB
:10336000642DC7010E94FB2660E2C7010E94C825A8
:10337000F80160817181C7010E94E3254394F3E065
:103380008F0E911C0E5F1F4FD5CF1196ED91FC91C2
:1033900012976491961781F1F90100811181F8016A
:1033A000649170E04617570731F112961C930E9303
:1033B00011971196ED91FC911297E49113962E5F5F
:1033C0003F4FEE23F9F08F5F8711DFCFA501BE01DC
:1033D0006F5F7F4FC6010E947F16811102C08FEF81
:1033E00011C09981492F552747FD5095252D362D20
:1033F000D10180E0E9CFF80131961296FC93EE936B
:103400001197D7CF2A813B810FB6F8943EBF0FBEEC
:103410002DBF0F900F900F90DF91CF911F910F91C3
:10342000FF90EF90DF90CF90BF90AF909F908F90E4
:103430007F906F905F904F903F902F900895CF9323
:10344000DF93EC018D858823C9F06DE57DE0CE0129
:103450000E94932544EF51E066E57DE0CE010E9495
:103460000019882311F01D8609C065E47DE0CE01B6
:103470008F5B9F4F0E94E32580E001C081E0DF91D8
:10348000CF9108955F926F927F928F929F92AF92A9
:10349000BF92CF92DF92EF92FF920F931F93CF9341
:1034A000DF931F92CDB7DEB76C017B01390100E0DD
:1034B00010E04A0182E0881A91085A0181E0A81AB6
:1034C000B108A301BE016F5F7F4FC6010E947F1646
:1034D000882309F440C059808DE058122DC0A30103
:1034E000BE016F5F7F4FC6010E947F1689818A30BF
:1034F00041F4E114F104B9F1F701E00FF11F10827A
:1035000032C0E114F104C1F00815190564F4F801A2
:103510003196D701A00FB11F5C920E5F1F4FEE0DC9
:10352000FF1D808309C00A151B0534F4F701E00F65
:10353000F11F50820F5F1F4F0A151B0514F6E1148F
:10354000F10409F4BECFF701E00FF11F89818083F8
:103550000F5F1F4FB6CFE114F10439F0F701E00F10
:10356000F11F108203C0C80102C080E090E00F90FC
:10357000DF91CF911F910F91FF90EF90DF90CF904F
:10358000BF90AF909F908F907F906F905F900895C5
:10359000CF92DF92EF92FF920F931F93CF93DF931F
:1035A0001F92CDB7DEB78C0144EF51E0BE016F5FD3
:1035B0007F4FC8010E947F168823A9F089818C3330
:1035C00099F78093F70458EFE52E54E0F52EDD24AB
:1035D000D39444EF51E0BE016F5F7F4FC8010E945A
:1035E0007F16811102C080E035C0CC24C394CD0C7D
:1035F0008981F70181937F018E3339F544EF51E0E2
:10360000BE016F5F7F4FC8010E947F16882359F368
:103610008981803241F7AC2DB0E0A950BB4F8C932B
:10362000D394D394ED2DF0E0E950FB4F108281E06C
:103630008093F60424EF31E040E050E060E070E079
:10364000C8010E94421A81E005C0FCE0CF1659F281
:10365000DC2CBFCF0F90DF91CF911F910F91FF9086
:10366000EF90DF90CF9008951F93CF93DF93EC01FD
:10367000AB018091F60481110EC0CE010E94C81AE0
:10368000182F811110C067E77DE0CE018F5B9F4F3F
:103690000E94E32508C067EF74E0CE01DF91CF916F
:1036A0001F910C94B718812FDF91CF911F9108952E
:1036B000FF920F931F93CF93DF93EC018D858111C0
:1036C0006EC06AEF70E080E090E00E940B2263E73A
:1036D0007DE0CE010E9493256AEF70E080E090E0EB
:1036E0000E940B2244EF51E06DE67DE0CE010E9486
:1036F0000019811115C0FE01FF9680819181DC01C6
:10370000ED91FC910190F081E02D6DE0099564EF61
:1037100071E0CE010E94341B81113AC015E01EC039
:103720008091F604811134C065E0F62E8E01015CB3
:103730001F4FF80180819181DC01ED91FC91019096
:10374000F081E02D6DE0099564EF71E0CE010E94FB
:10375000341B81111DC0FA9461F7CDCF6AEF70E080
:1037600080E090E00E940B2269E67DE0CE010E949D
:1037700093256AEF70E080E090E00E940B2244EF16
:1037800051E063E67DE0CE010E940019882319F024
:1037900081E08D8705C0115009F780E001C081E00C
:1037A000DF91CF911F910F91FF900895CF93DF93F9
:1037B000EC018D85882339F08E859F8501969F8742
:1037C0008E8781E005C0CE010E94581B8111F4CF85
:1037D000DF91CF910895FC0126853785215031096D
:1037E00037872687232B11F40C941F1A81E0089544
:1037F000CF92DF92EF92FF920F931F93CF93DF93BD
:10380000EC018B016A0179010E94D61B882351F1DA
:10381000000F111F000F111F015D1C4FF801608187
:103820007181CE010E949325F8016281738144EF7A
:1038300051E0CE010E940019882389F024EF31E085
:10384000A701B601CE010E94421A64EF71E0CE01D9
:103850000E94341BCE010E94EB1BC60105C0CE01A5
:103860000E94EB1B8EEF92E0DF91CF911F910F91A1
:10387000FF90EF90DF90CF900895EF92FF920F931B
:103880001F93CF93DF93CDB7DEB760970FB6F89451
:10389000DEBF0FBECDBF8C010E94D61B81110AC0B6
:1038A0006DE27DE0C8018F5B9F4F0E94E32580E0C1
:1038B00090E06FC065E27DE0C8010E94932524EF8F
:1038C00031E040E150E0BE016F5F7F4FC8010E94D0
:1038D000421A7C01BE016F5F7F4FC8010E94AC1885
:1038E000882361F024EF31E040E150E0BE016F5FDA
:1038F0007F4FC8010E94421A7C0105C064EF71E04D
:10390000C8010E94341B25E0E216F1041CF4CE012C
:10391000019608C0C7010497E1E0F0E0EC0FFD1F3D
:103920008E0F9F1F0E949D15F62EE72E862F8F70FB
:10393000F80181AFF4FA882780F982AFF5FA882779
:1039400080F983AFF6FA882780F984AFF7FA8827E1
:1039500080F985AF8E2D86958F7086AFC8010E9445
:10396000EB1BF80191AD8485913031F497AB88233E
:1039700071F06FE07DE006C0F80117AA882339F0E6
:1039800066EF7CE0C8018F5B9F4F0E94E3258F2D7F
:103990009E2D60960FB6F894DEBF0FBECDBFDF91AF
:1039A000CF911F910F91FF90EF900895CF93DF93E8
:1039B000D62FC72F9A01462F572F60E070E00E9444
:1039C000F81B892B49F0ED2FFC2FDF018191882313
:1039D00029F08A33D1F702C0AD2FBC2F1C928D2F56
:1039E0009C2FDF91CF910895CF93DF93CDB7DEB7B2
:1039F00066970FB6F894DEBF0FBECDBF26E130E06C
:103A0000AE014F5F5F4F60E070E00E94F81B892BB2
:103A1000C1F080E0E1E0F0E0EC0FFD1FE80FF11DE8
:103A20009081992319F08F5F9A33A1F721E030E05C
:103A30002C0F3D1F280F311DC9010E94FC15CB0121
:103A400002C080E090E066960FB6F894DEBF0FBE2D
:103A5000CDBFDF91CF9108959A01AB0163E070E093
:103A60000C94F81B9A01AB0164E070E00C94F81B15
:103A70001F93CF93DF93CDB7DEB72B970FB6F89494
:103A8000DEBF0FBECDBF142F2BE030E0AE014F5F85
:103A90005F4F0E94F81B892B51F0CE0101961A301E
:103AA00019F40E94FC1506C00E949D1503C060E039
:103AB00070E0CB012B960FB6F894DEBF0FBECDBFE2
:103AC000DF91CF911F910895CF93DF93CDB7DEB7EC
:103AD00060970FB6F894DEBF0FBECDBF20E130E097
:103AE000AE014F5F5F4F6CE070E00E94F81B892BC6
:103AF000E1F143E050E060ED7CE0CE0101960E94F0
:103B0000232B892B51F142E050E06DEC7CE0CE019B
:103B100001960E94232B892B11F146E050E066ECC0
:103B20007CE0CE0101960E94232B892BD1F045E049
:103B300050E060EC7CE0CE0101960E94232B892BA3
:103B400091F046E050E069EB7CE0CE0101960E94E6
:103B5000232B892B51F484E009C080E007C081E069
:103B600005C082E003C083E001C08FEF60960FB60E
:103B7000F894DEBF0FBECDBFDF91CF910895CF92F5
:103B8000DF92EF92FF920F931F93CF93DF9300D0BA
:103B900000D0CDB7DEB77C018B016A0183EB9CE0DE
:103BA0009A8389838DEA9CE09C838B8324EF31E0A8
:103BB00042E0BE016F5F7F4FC7010E945E198130F6
:103BC000F1F0811114C024EF31E0A601B801C70162
:103BD0000E94421A81E4E80EF11C67EA7CE0C7010A
:103BE0000E949325B801C7010E94072606C0A601BE
:103BF0006DE97CE0C8010E94312B80E001C081E0CA
:103C00000F900F900F900F90DF91CF911F910F9118
:103C1000FF90EF90DF90CF900895AF92BF92CF9238
:103C2000DF92EF92FF920F93CF93DF93CDB7DEB782
:103C300062970FB6F894DEBF0FBECDBF7C015A016C
:103C40006901698B7A8B0E94D61B69897A898823DE
:103C500009F463C0C7010E949325C114D10419F16E
:103C600060E2C7010E9478160023C1F057018FE47B
:103C7000A80EB11CF60164916623C1F1D701ED9144
:103C8000FC910190F081E02D603211F4D5016C912E
:103C9000C7010995BFEFCB1ADB0AECCFB601C7010C
:103CA0000E94932523C0A114B10401F160E2C70171
:103CB0000E9478160023B1F06701FFE4CF0ED11CFB
:103CC000F50161915F01662389F0D701ED91FC91C7
:103CD0000190F081E02D603211F4D6016C91C701A2
:103CE0000995EECFB501C7010E94C6256DE0C70159
:103CF0000E94781640E150E0BE016F5F7F4FC70120
:103D00000E94BF1D082F64EF71E0C7010E94341BA1
:103D1000C7010E94EB1B802F01C080E062960FB6A6
:103D2000F894DEBF0FBECDBFDF91CF910F91FF9012
:103D3000EF90DF90CF90BF90AF900895CF92DF9239
:103D4000EF92FF920F931F93CF93DF93CDB7DEB720
:103D50002B970FB6F894DEBF0FBECDBF7C016B0171
:103D6000CA01B901402F0BE010E09E012F5F3F4FC9
:103D70000E94EC1400E020E030E0AE014F5F5F4FA6
:103D8000B601C7010E940D1E2B960FB6F894DEBF38
:103D90000FBECDBFDF91CF911F910F91FF90EF909C
:103DA000DF90CF9008951F93CF93DF93EC010E9493
:103DB000D61B8823D9F067E97CE0CE010E949325C9
:103DC00044EF51E06FE87CE0CE010E9400198823A7
:103DD00039F064EF71E0CE010E94341B11E001C0A4
:103DE00010E0CE010E94EB1B812F01C080E0DF912B
:103DF000CF911F9108950F939B0140E050E00AE09E
:103E00006BE07CE00E949E1E0F9108950F93262F79
:103E100030E040E050E000E16BE67BE00E949E1E57
:103E20000F9108950C94061F0F9300E020E030E0FE
:103E300040E050E06AEA7AE00E940D1E0F9108957A
:103E40000F93AB0101E020E030E06CE97AE00E94E2
:103E50000D1E0F9108950F931F93CF93DF93EC01E5
:103E6000AB01FB0181818F7D883511F44E5F5F4F7F
:103E700000E020E030E061E87AE0CE010E940D1E13
:103E8000182FCE010E94141F812FDF91CF911F9117
:103E90000F9108950F931F93CF93DF93EC01AB0124
:103EA00001E020E030E061E77AE00E940D1E182F6B
:103EB000CE010E94141F812FDF91CF911F910F918E
:103EC000089540E16BE170E00E94381D862F08954F
:103ED0000F93CF93DF93EC011CAA1BAA1B8A00E06F
:103EE00020E030E040E050E060ED7EE00E940D1EFA
:103EF000811107C068EB7EE0CE018F5B9F4F0E946F
:103F0000E32500E020E030E040E050E065EA7EE0BC
:103F1000CE010E940D1E811107C068E87EE0CE012F
:103F20008F5B9F4F0E94E32500E020E030E040E0FF
:103F300050E066E77EE0CE010E940D1E811107C0B1
:103F40006CE57EE0CE018F5B9F4F0E94E325CE01A2
:103F50000E943D1CCE010E94641D8B7F91E009F4FC
:103F600090E0988BCE010E94611FC15BDF4F888378
:103F7000DF91CF910F910895CF93DF93EC010E94D1
:103F8000D61B882301F167E87CE0CE010E949325CF
:103F900044EF51E06EE77CE0CE010E9400198111F0
:103FA00004C0CE010E94EB1B0EC068E873E180E004
:103FB00090E00E940B221D861F861E86CE010E9465
:103FC000681F81E001C080E0DF91CF9108950F93D9
:103FD0001F93CF93DF93EC018C010F5B1F4FF80110
:103FE000558744873297718360830E94581B8111E3
:103FF00003C06FE37EE00AC0CE010E94681FCE01BD
:104000000E941F1A811107C063E27EE0C8010E946E
:10401000E32580E001C081E0DF91CF911F910F91F6
:104020000895CF93DF93EC01E881F9810480F58155
:10403000E02D09958FA9DF91CF9108950F931F93DC
:10404000CF93DF93EC018FA9882391F164EF71E0A6
:10405000CE010E942917CE010E94D61B65EC78E0A4
:10406000CE010E94932544EF51E06EEB78E0CE0143
:104070000E9400198E010F5B1F4F882351F0CE0163
:104080000E94EB1B6CEA78E0C8010E94E3251FAA9E
:104090000FC063E978E0C8010E94E325CE010E94C9
:1040A0003D1CCE010E94EB1B8FA991E0892701C026
:1040B00081E0DF91CF911F910F910895BF92CF9230
:1040C000DF92EF92FF920F931F93CF93DF93CDB7C1
:1040D000DEB765970FB6F894DEBF0FBECDBF7C018B
:1040E0006B018A01B22EFC0180AD8111BFC0C701F6
:1040F0000E94D61BF70187A9882319F0C7010E94E7
:104100001E20B80180E090E004E110E09E012F5FE6
:104110003F4F4AE00E94EC1487010F5B1F4F62EC97
:1041200079E0C8010E949325B601C8010E94C62506
:1041300060E2C8010E94C825BE016F5F7F4FC801C1
:104140000E9407266CEB79E0C7010E949325B60117
:10415000C7010E94C6256DE073E0C7010E94C62515
:10416000BE016F5F7F4FC7010E94C6256AEB79E0F1
:10417000C7010E94932564EF71E0C7010E94341BC0
:1041800081110BC065EA79E0C8010E94E32560E86F
:1041900079E0C8010E94E325FFCFB11008C081E09B
:1041A000F70180AF64C0F7018485811135C040E11B
:1041B00057E2BE016B5E7F4FC7010E947F168823C6
:1041C00009F44CC08D898A32C9F0833461F7898340
:1041D00024EF31E043E150E0BE016E5F7F4FC70145
:1041E0000E94421A66E679E0C8010E949325BE014A
:1041F0006F5F7F4FC8010E94072635C044EF51E032
:104200006AE779E0C7010E940019882361F181E023
:10421000F70187AB15862BC064E579E0C8010E94E1
:1042200093256D89772767FD709540E150E0C801BF
:104230000E94CE268D89992787FD90950E94052B97
:10424000892B41F060E2C8010E94C8256D89C80130
:104250000E94C825C8010E94CF25A9CF6AE479E051
:10426000C8010E94E325C7010E94EB1B80E0659610
:104270000FB6F894DEBF0FBECDBFDF91CF911F9177
:104280000F91FF90EF90DF90CF90BF900895FC01C9
:104290001382128248EE53E060E070E0448355835D
:1042A0006683778383E293E0918380831586148607
:1042B0000895CF93DF93EC011B821A8248EE53E0FE
:1042C00060E070E04C835D836E837F8383E193E0E5
:1042D00099838883CE018F5B9F4F0E9447211D8663
:1042E0001F861E861FAA18AE81E0888B898B1C86CC
:1042F000FE01E05BFF4F1182108232961182108224
:10430000CC5ADF4F19821882DF91CF9108950F9315
:1043100000E020E040E060E082E195E00E942A2594
:104320000F9108951F920F920FB60F9211242F93A1
:104330003F938F939F93AF93BF9380911905909173
:104340001A05A0911B05B0911C053091180523E0BA
:10435000230F2D3720F40196A11DB11D05C026E8BD
:10436000230F0296A11DB11D2093180580931905F6
:1043700090931A05A0931B05B0931C0580911D0511
:1043800090911E05A0911F05B09120050196A11DD9
:10439000B11D80931D0590931E05A0931F05B0933A
:1043A0002005BF91AF919F918F913F912F910F90D9
:1043B0000FBE0F901F9018952FB7F89460911905B4
:1043C00070911A0580911B0590911C052FBF0895CF
:1043D0003FB7F89480911D0590911E05A0911F058F
:1043E000B091200526B5A89B05C02F3F19F0019676
:1043F000A11DB11D3FBF6627782F892F9A2F620F0D
:10440000711D811D911D42E0660F771F881F991F46
:104410004A95D1F70895CF92DF92EF92FF92CF9312
:10442000DF936B017C010E94E821EB01C114D104F0
:10443000E104F10489F00E9461280E94E8216C1BCC
:104440007D0B683E734090F381E0C81AD108E10803
:10445000F108C851DC4FEACFDF91CF91FF90EF9088
:10446000DF90CF900895789484B5826084BD84B540
:10447000816084BD85B5826085BD85B5816085BD5F
:10448000EEE6F0E0808181608083E1E8F0E0108278
:10449000808182608083808181608083E0E8F0E0B9
:1044A000808181608083E1EBF0E0808184608083A3
:1044B000E0EBF0E0808181608083EAE7F0E08081DA
:1044C000846080838081826080838081816080833A
:1044D0008081806880831092C1000895833081F0CC
:1044E00028F4813099F08230A1F008958730A9F046
:1044F0008830B9F08430D1F4809180008F7D03C082
:10450000809180008F7780938000089584B58F77A5
:1045100002C084B58F7D84BD08958091B0008F77EF
:1045200003C08091B0008F7D8093B0000895CF9339
:10453000DF9390E0FC01EC5CFF4E2491FC01E85B12
:10454000FF4E8491882349F190E0880F991FFC0168
:10455000E059FF4EA591B4918A599F4EFC01C59137
:10456000D4919FB7611108C0F8948C912095822353
:104570008C93888182230AC0623051F4F8948C9124
:10458000322F309583238C938881822B888304C0BB
:10459000F8948C91822B8C939FBFDF91CF910895DB
:1045A0000F931F93CF93DF931F92CDB7DEB7282FC2
:1045B00030E0F901E05EFF4E8491F901EC5CFF4EC2
:1045C0001491F901E85BFF4E04910023C9F08823A0
:1045D00021F069830E946E226981E02FF0E0EE0FE6
:1045E000FF1FEA59FF4EA591B4919FB7F8948C91A3
:1045F000611103C01095812301C0812B8C939FBF53
:104600000F90DF91CF911F910F910895FC01818D43
:10461000228D90E0805C9F4F821B91098F739927B8
:104620000895FC01918D828D981731F0828DE80FED
:10463000F11D858D90E008958FEF9FEF0895FC01A7
:10464000918D828D981761F0828DDF01A80FB11DC9
:104650005D968C91928D9F5F9F73928F90E00895ED
:104660008FEF9FEF089583EA94E2892B49F080E071
:1046700090E0892B29F00E94A32481110C94000062
:104680000895FC01848DDF01A80FB11DA35ABF4F0F
:104690002C91848D90E001968F739927848FA68941
:1046A000B7892C93A089B1898C9180648C93938D68
:1046B000848D981306C00288F389E02D80818F7D58
:1046C00080830895CF93DF93EC01888D8823C9F010
:1046D000EA89FB89808185FD05C0A889B9898C910B
:1046E00086FD0FC00FB607FCF5CF808185FFF2CFA6
:1046F000A889B9898C9185FFEDCFCE010E94412315
:10470000E7CFDF91CF910895CF92DF92FF920F9381
:104710001F93CF93DF931F92CDB7DEB76C01DC01FF
:104720005B969C915B975C968C915C97981307C005
:104730005096ED91FC915197808185FD32C0F60134
:10474000038D10E00F5F1F4F0F731127F02EF6013E
:10475000848DF81211C00FB607FCF9CFD601509620
:10476000ED91FC915197808185FFF1CFC60169835E
:104770000E9441236981EBCF838DE80FF11DE35A3D
:10478000FF4F6083D6015B960C935B975296ED9139
:10479000FC91539780818062808381E058968C934E
:1047A0000DC0D6015696ED91FC91579760835096B7
:1047B000ED91FC91519780818064808381E090E04D
:1047C0000F90DF91CF911F910F91FF90DF90CF90CD
:1047D0000895BF92CF92DF92EF92FF92CF93DF9333
:1047E000EC016A017B01B22EE889F98982E08083BD
:1047F000411581EE580761057105A1F060E079E08F
:104800008DE390E0A70196010E948A28215031098A
:10481000410951095695479537952795211580E10E
:10482000380798F0E889F989108260E874E88EE129
:1048300090E0A70196010E948A2821503109410980
:1048400051095695479537952795EC85FD85308319
:10485000EE85FF852083188EEC89FD89B082EA8978
:10486000FB89808180618083EA89FB8980818860FF
:104870008083EA89FB89808180688083EA89FB895B
:1048800080818F7D8083DF91CF91FF90EF90DF90CB
:10489000CF90BF9008951F920F920FB60F921124E0
:1048A0002F938F939F93EF93FF93E0913105F091B6
:1048B00032058081E0913705F091380582FD12C004
:1048C000908180913A058F5F8F7320913B0582170D
:1048D00051F0E0913A05F0E0EF5DFA4F958F80934B
:1048E0003A0501C08081FF91EF919F918F912F91A7
:1048F0000F900FBE0F901F9018951F920F920FB63A
:104900000F9211242F933F934F935F936F937F9355
:104910008F939F93AF93BF93EF93FF9381E295E0C3
:104920000E944123FF91EF91BF91AF919F918F9191
:104930007F916F915F914F913F912F910F900FBE9B
:104940000F901F90189581E295E00E94062321E0C8
:10495000892B09F420E0822F0895109224051092EB
:10496000230588EE93E0A0E0B0E0809325059093C6
:104970002605A0932705B093280583EA93E090933A
:1049800022058093210585EC90E090932E0580937D
:104990002D0584EC90E09093300580932F0580ECFA
:1049A00090E0909332058093310581EC90E09093F4
:1049B00034058093330582EC90E090933605809324
:1049C000350586EC90E0909338058093370510927A
:1049D0003A0510923B0510923C0510923D05089552
:1049E000AF92BF92CF92DF92EF92FF920F931F93FD
:1049F000CF93DF936C017B01C0E0D0E000E010E0DA
:104A0000F601EC0FFD1F4AE050E06281C7010E94F1
:104A1000FB265C016EE2C7010E94C8258A0D9B1D22
:104A2000080F191F2196C330D10551F74AE050E015
:104A3000F6016581C7010E94FB26800F911FDF915F
:104A4000CF911F910F91FF90EF90DF90CF90BF908B
:104A5000AF9008950F93FC0183EB93E091838083E3
:104A600062834383248305830F91089583EB93E04E
:104A70009093BF058093BE051092C0051092C105AA
:104A80001092C2051092C305089508950E94332222
:104A90000E9445250E94040EC3E3D3E20E94F90E52
:104AA0002097E1F30E943323F9CFCF92DF92EF9268
:104AB000FF920F931F93CF93DF936C017A01EB0169
:104AC000E60EF71E00E010E0CE15DF0561F06991FB
:104AD000D601ED91FC910190F081E02DC601099580
:104AE000080F191FF1CFC801DF91CF911F910F91CE
:104AF000FF90EF90DF90CF9008956115710581F0E0
:104B0000DB010D900020E9F7AD0141505109461B32
:104B1000570BDC01ED91FC910280F381E02D0994AB
:104B200080E090E00895EF92FF920F931F93CF9350
:104B3000DF938C01FB01C0E0D0E064917F018FEF37
:104B4000E81AF80A662361F0D801ED91FC91019012
:104B5000F081E02DC8010995C80FD91FF701EDCFED
:104B6000CE01DF91CF911F910F91FF90EF900895AB
:104B7000DC01ED91FC91DB0114964D915C91159750
:104B80006D917C910280F381E02D09940C947D2538
:104B9000DC01ED91FC910190F081E02D09940F93DF
:104BA0001F93CF93DF93EC016DE00E94C8258C0129
:104BB0006AE0CE010E94C825800F911FDF91CF913E
:104BC0001F910F9108950F931F93CF93DF93EC01E3
:104BD0000E9493258C01CE010E94CF25800F911F4A
:104BE000DF91CF911F910F9108950F931F93CF9352
:104BF000DF93EC010E94B8258C01CE010E94CF25E5
:104C0000800F911FDF91CF911F910F9108950F9306
:104C10001F93CF93DF93EC010E947D258C01CE0181
:104C20000E94CF25800F911FDF91CF911F910F918F
:104C300008950F931F93CF93DF93EC010E94C82533
:104C40008C01CE010E94CF25800F911FDF91CF9163
:104C50001F910F9108958F929F92AF92BF92CF9222
:104C6000DF92EF92FF920F931F93CF93DF93CDB715
:104C7000DEB7A1970FB6F894DEBF0FBECDBF7C01A3
:104C8000C42EE52FCB01D22E19A221E02D1510F054
:104C90002AE0D22E8E010F5D1F4F8D2C912CA12C5E
:104CA000B12C6C2D7E2FA50194010E948A288C2D99
:104CB000D29E80191124015011098A3014F4805DAC
:104CC00001C0895CF801808321153105410551053A
:104CD00021F0C22EE32FCA01E4CFB801C7010E9420
:104CE0007D25A1960FB6F894DEBF0FBECDBFDF9134
:104CF000CF911F910F91FF90EF90DF90CF90BF90D9
:104D0000AF909F908F900895CF92DF92EF92FF9295
:104D10000F931F93CF93DF93EC016A017B01211561
:104D2000310579F4E881F9810190F081E02D642F5B
:104D3000DF91CF911F910F91FF90EF90DF90CF9077
:104D400009942A303105E9F477FF1AC06DE20E9418
:104D5000C8258C0144275527BA014C195D096E09F5
:104D60007F092AE0CE010E942B26800F911FDF9140
:104D7000CF911F910F91FF90EF90DF90CF9008950A
:104D80002AE0B701A601CE01DF91CF911F910F91CB
:104D9000FF90EF90DF90CF900C942B269A01AB01FF
:104DA000662757FD6095762F0C9484260F931F93EA
:104DB000CF93DF93EC019A01AB01662757FD609515
:104DC000762F0E9484268C01CE010E94CF25800F71
:104DD000911FDF91CF911F910F91089521153105FA
:104DE00041F4DC01ED91FC910190F081E02D642F04
:104DF00009940C942B269A01462F50E060E070E055
:104E00000C94EE26FC0144835583668377830895D2
:104E1000FC01808191810C948329CF93DF93EC0175
:104E200088819981009711F00E9483291982188244
:104E30001D821C821B821A82DF91CF9108950F93ED
:104E40001F93CF93DF93EC018B016F5F7F4F8881BE
:104E500099810E94122A009731F0998388831B83DD
:104E60000A8381E001C080E0DF91CF911F910F9113
:104E70000895CF93DF93EC0188819981892B29F0E4
:104E80008A819B818617970760F4CE010E941F27B5
:104E9000882341F08C819D81892B19F4E881F98167
:104EA000108281E0DF91CF910895EF92FF920F93EE
:104EB0001F93CF93DF93EC017B018A01BA010E941B
:104EC0003927811104C0CE010E940D2707C01D8320
:104ED0000C83B701888199810E94492BCE01DF9113
:104EE000CF911F910F91FF90EF900895FC011182D7
:104EF000108213821282158214826115710559F095
:104F0000FB0101900020E9F7AF0141505109461B18
:104F1000570B0C9455270895EF92FF920F931F9310
:104F2000CF93DF93EC017B018A01BA010E943927FC
:104F3000811104C0CE010E940D2707C01D830C8380
:104F4000B701888199810E94132BCE01DF91CF9107
:104F50001F910F91FF90EF900895CF93DF93EC0195
:104F6000FB018617970761F06081718161157105FA
:104F700029F0448155810E94552702C00E940D27C7
:104F8000CE01DF91CF910895FC011182108213822E
:104F90001282158214820C94AD270F931F93CF9326
:104FA000DF9300D0CDB7DEB78C016115710561F0DC
:104FB000CB0169837A830E941A2BAC0169817A81C3
:104FC000C8010E948C2702C00E940D27C8010F90C3
:104FD0000F90DF91CF911F910F910895FC011182E5
:104FE000108213821282158214820C94CD27AF9204
:104FF000BF92CF92DF92EF92FF920F931F93CF93C6
:10500000DF937C01DC01CD90DC901197C114D104B9
:1050100009F441C01496CD91DC9115972097D9F1F0
:1050200056018501BFEFAB1ABB0AF80180819927B1
:1050300087FD90950E940B2B892B99F72197CC0D1A
:10504000DD1D8881992787FD90950E940B2B892B68
:1050500091F4AE014F5F5F4F401B510BD701159686
:105060005C934E931497C016D10650F4B801C60154
:105070000E94402B05C0C017D10758F32197E1CFFC
:10508000D701ED91FC91119714968D919C911597F4
:10509000E80FF91F1082DF91CF911F910F91FF90C0
:1050A000EF90DF90CF90BF90AF900895FC0180818A
:1050B0009181009711F00C94DC2A60E070E0CB0144
:1050C00008950895AA1BBB1B51E107C0AA1FBB1F6F
:1050D000A617B70710F0A61BB70B881F991F5A9584
:1050E000A9F780959095BC01CD01089597FB072EF7
:1050F00016F4009407D077FD09D00E94622807FCBF
:1051000005D03EF4909581959F4F089570956195D7
:105110007F4F0895A1E21A2EAA1BBB1BFD010DC0F3
:10512000AA1FBB1FEE1FFF1FA217B307E407F50757
:1051300020F0A21BB30BE40BF50B661F771F881F33
:10514000991F1A9469F760957095809590959B01C9
:10515000AC01BD01CF010895052E97FB1EF400940C
:105160000E94C32857FD07D00E948A2807FC03D05D
:105170004EF40C94C32850954095309521953F4F9F
:105180004F4F5F4F089590958095709561957F4F33
:105190008F4F9F4F0895EE0FFF1F0590F491E02D64
:1051A00009940E94DC28A59F900DB49F900DA49FA8
:1051B000800D911D11240895A29FB001B39FC001DD
:1051C000A39F700D811D1124911DB29F700D811D33
:1051D0001124911D0895CF93DF938230910510F42F
:1051E00082E090E0E091C605F091C70520E030E054
:1051F000A0E0B0E0309739F140815181481759075C
:10520000B8F04817590771F482819381109729F0FB
:1052100013969C938E9312972CC09093C7058093FE
:10522000C60527C02115310531F04217530718F084
:10523000A901DB0101C0EF019A01BD01DF0102807C
:10524000F381E02DD7CF21153105F9F0281B390B5B
:105250002430310580F48A819B816115710521F02C
:10526000FB019383828304C09093C7058093C60596
:10527000FE01329644C0FE01E20FF31F8193919329
:1052800022503109398328833AC02091C4053091D6
:10529000C505232B41F42091020130910301309385
:1052A000C5052093C405209100013091010121150D
:1052B000310541F42DB73EB74091040150910501ED
:1052C000241B350BE091C405F091C505E217F307E7
:1052D000A0F42E1B3F0B2817390778F0AC014E5F66
:1052E0005F4F2417350748F04E0F5F1F5093C505D9
:1052F0004093C4058193919302C0E0E0F0E0CF01B8
:10530000DF91CF910895CF93DF93009709F487C081
:10531000FC01329713821282C091C605D091C70555
:10532000209781F420813181280F391F8091C40595
:105330009091C5058217930779F5F093C505E09321
:10534000C4056DC0DE0120E030E0AE17BF0750F4A9
:1053500012964D915C9113979D014115510509F1EC
:10536000DA01F3CFB383A28340815181840F951F6B
:105370008A179B0771F48D919C911197840F951F4B
:1053800002969183808312968D919C9113979383BB
:1053900082832115310529F4F093C705E093C605F2
:1053A0003EC0D9011396FC93EE9312974D915D91F7
:1053B000A40FB51FEA17FB0779F480819181840F50
:1053C000951F0296D90111969C938E9382819381A9
:1053D00013969C938E931297E0E0F0E08A819B8174
:1053E000009719F0FE01EC01F9CFCE010296288159
:1053F0003981820F931F2091C4053091C50528176C
:10540000390769F4309729F41092C7051092C60540
:1054100002C013821282D093C505C093C405DF91E8
:10542000CF910895A0E0B0E0E8E1FAE20C94202EDC
:10543000EC01CB01209719F40E94EB28B8C0FE01C3
:10544000E60FF71F9E0122503109E217F30708F417
:10545000ACC0D9010D911C91119706171707B8F030
:105460000530110508F49FC0A801445051094617A2
:10547000570708F498C002501109061B170B019337
:1054800011936D937C93CF010E9483298CC05B01A3
:10549000A01AB10A4E01800E911EA091C605B091CE
:1054A000C705612C712C60E070E0109709F449C0C9
:1054B000A815B905C9F5ED90FC901197670142E078
:1054C000C40ED11CCA14DB0478F147018A189B086A
:1054D000640142E0C40ED11C1296BC901297139640
:1054E000AC91B5E0CB16D10440F0B282A383918297
:1054F0008082D9018D939C9309C00E5F1F4F0E0DC2
:105500001F1DF90111830083EB2DFA2F6115710521
:1055100031F0DB011396FC93EE93129744C0F093A5
:10552000C705E093C6053FC06D917C911197661643
:10553000770608F43B01BD0112960D90BC91A02D99
:10554000B4CF6091C4057091C50568157905E9F47B
:1055500068167906D0F4409100015091010141157F
:10556000510541F44DB75EB760910401709105019A
:10557000461B570BE417F507C0F4F093C505E093FD
:10558000C405F901918380830EC00E94EB287C0141
:10559000009759F0A801BE010E94402BCE010E9445
:1055A0008329C70104C0CE0102C080E090E0CDB7DE
:1055B000DEB7EEE00C943C2E1F93FC019927882760
:1055C000BC01E89411911032E9F3193010F01E304B
:1055D000C8F31B3251F01D3249F4689406C00E9492
:1055E0006A2B610F711D811D911D119110531A308D
:1055F000B0F33EF490958095709561957F4F8F4FF5
:105600009F4F1F910895803209F091116CC2805212
:105610008F55E0F70895911166C2803219F08950D4
:105620008550D0F70895FB01DC0105900D92002014
:10563000E1F70895FC0105900020E9F78095909529
:105640008E0F9F1F0895FB01DC014150504030F048
:105650008D910590801919F40020B9F7881B990BDA
:105660000895FB01DC014150504048F005900D9237
:105670000020C9F701C01D9241505040E0F7089545
:10568000FB01DC0102C001900D9241505040D8F75F
:105690000895FB01DC0101900D920020E1F70895CF
:1056A000FB0151915523A9F0BF01DC014D91451734
:1056B0004111E1F759F4CD010190002049F04D91DD
:1056C00040154111C9F3FB014111EFCF81E090E09A
:1056D00001970895592F482F372F262F660F771FD0
:1056E000881F991F660F771F881F991F620F731FEE
:1056F000841F951F660F771F881F991F0895AEE0BE
:10570000B0E0E5E8FBE20C942A2E0D891E8986E0C4
:105710008C831A8309838FEF9FE79E838D83AE016D
:10572000475E5F4F6F89788DCE0101960E94A12B55
:10573000EF81F885E00FF11F10822E96E4E00C94C3
:10574000462EACE0B0E0E7EAFBE20C941C2E7C01B4
:105750006B018A01FC0117821682838181FFBDC122
:10576000CE0101964C01F7019381F60193FD8591DD
:1057700093FF81916F01882309F4ABC1853239F41D
:1057800093FD859193FF81916F01853229F4B701D3
:1057900090E00E948C2DE7CF512C312C20E020325C
:1057A000A0F48B3269F030F4803259F0833269F41E
:1057B00020612CC08D3239F0803339F4216026C04D
:1057C0002260246023C0286021C027FD27C030ED5F
:1057D000380F3A3078F426FF06C0FAE05F9E300DAD
:1057E0001124532E13C08AE0389E300D1124332E1D
:1057F00020620CC08E3221F426FD6BC1206406C0ED
:105800008C3611F4206802C0883641F4F60193FD0D
:10581000859193FF81916F018111C1CF982F9F7D59
:105820009554933028F40C5F1F4FFFE3F9830DC0AC
:10583000833631F0833771F0833509F05BC022C0C5
:10584000F801808189830E5F1F4F44244394512CBB
:10585000540115C03801F2E06F0E711CF801A080F0
:10586000B18026FF03C0652D70E002C06FEF7FEFAF
:10587000C5012C870E94812D2C0183012C852F7757
:10588000222E17C03801F2E06F0E711CF801A080C3
:10589000B18026FF03C0652D70E002C06FEF7FEF7F
:1058A000C5012C870E94762D2C012C852068222E84
:1058B000830123FC1BC0832D90E048165906B0F4E9
:1058C000B70180E290E00E948C2D3A94F4CFF5016C
:1058D00027FC859127FE81915F01B70190E00E942E
:1058E0008C2D31103A94F1E04F1A510841145104B3
:1058F00071F7E5C0843611F0893639F5F80127FFD4
:1059000007C060817181828193810C5F1F4F08C045
:1059100060817181882777FD8095982F0E5F1F4FDA
:105920002F76B22E97FF09C090958095709561955E
:105930007F4F8F4F9F4F2068B22E2AE030E0A401A6
:105940000E94BE2DA82EA81844C0853729F42F7EAA
:10595000B22E2AE030E025C0F22FF97FBF2E8F361D
:10596000C1F018F4883579F0B4C0803719F0883761
:1059700021F0AFC02F2F2061B22EB4FE0DC08B2DB1
:105980008460B82E09C024FF0AC09F2F9660B92EEC
:1059900006C028E030E005C020E130E002C020E190
:1059A00032E0F801B7FE07C0608171818281938186
:1059B0000C5F1F4F06C06081718180E090E00E5F38
:1059C0001F4FA4010E94BE2DA82EA818FB2DFF7703
:1059D000BF2EB6FE0BC02B2D2E7FA51450F4B4FEA7
:1059E0000AC0B2FC08C02B2D2E7E05C07A2C2B2DB0
:1059F00003C07A2C01C0752C24FF0DC0FE01EA0DF6
:105A0000F11D8081803311F4297E09C022FF06C078
:105A10007394739404C0822F867809F0739423FDE5
:105A200013C020FF06C05A2C731418F4530C5718D7
:105A3000732C731468F4B70180E290E02C870E9405
:105A40008C2D73942C85F5CF731410F4371801C086
:105A5000312C24FF12C0B70180E390E02C870E9414
:105A60008C2D2C8522FF17C021FF03C088E590E014
:105A700002C088E790E0B7010CC0822F867859F009
:105A800021FD02C080E201C08BE227FD8DE2B7015B
:105A900090E00E948C2DA51438F4B70180E390E0CB
:105AA0000E948C2D5A94F7CFAA94F401EA0DF11DAF
:105AB0008081B70190E00E948C2DA110F5CF33209A
:105AC00009F451CEB70180E290E00E948C2D3A9407
:105AD000F6CFF7018681978102C08FEF9FEF2C965A
