:100000000C944D060C9475060C9475060C94491EC0
:100010000C94491E0C94491E0C9475060C9475069C
:100020000C9475060C9475060C9475060C94750664
:100030000C9475060C9475060C9475060C94750654
:100040000C94332D0C9475060C9455300C94873019
:100050000C9475060C9475060C9475060C94750634
:100060000C9475060C9475060A0D5265626F6F74D8
:10007000696E6720576946692E2E2E000A0D52655B
:10008000626F6F74204D6963726F566965772026C1
:10009000205769466920746F20736574206E6577F8
:1000A00020706F72742E00494E434F4D494E470ADF
:1000B00043414C4C00434F4E4E45435400434F4E3A
:1000C0004E45435420333834303000434F4E4E4574
:1000D000435420313932303000434F4E4E45435463
:1000E000203936303000434F4E4E4543542034388B
:1000F000303000434F4E4E454354203234303000B0
:10010000434F4E4E454354203132303000434F4E22
:100110004E454354000D0A52494E47000D0A5249BC
:100120004E47004552524F52004F4B004175746F7D
:1001300073746172743A20003A004E4F204341526A
:1001400052494552004F4B004F4B004F4B004F4B15
:10015000000D0A507265737320616E79206B6579AA
:1001600020746F2063616E63656C2E2E2E004175C6
:10017000746F2D636F6E6E656374696E6720746F44
:100180003A0D0A00576966693A256C640A0A4336D3
:10019000343A20256C6400576966693A256C640A14
:1001A0000A4336343A20256C640A0A5254533A20E2
:1001B000256C64002A2A2A205465726D696E616C70
:1001C000204D6F64652028446562756729202A2ABE
:1001D0002A004E4F20434152524945520042555346
:1001E0005900436F6E6E656374204661696C656487
:1001F0002100436F6E6E656374656420746F202503
:1002000073004E4F2043415252494552004E4F20F9
:100210004449414C544F4E4500436F756C64206E09
:100220006F74207265736F6C766520444E532E2078
:1002300020436F6E6E656374204661696C6564214E
:10024000000D0A436F6E6E656374696E6720746F8C
:10025000202573007777772E636F6D6D6F646F72F3
:10026000657365727665722E636F6D004353333824
:1002700000712D6C696E6B2E6E65740035353531ED
:1002800032313300716C696E6B2E6C796F6E6C61FC
:1002900062732E6F7267003535353132313200535B
:1002A0004156454420494E49543A2020000D0A2029
:1002B00045256451256456256426432564582564E4
:1002C000264B2564265325640D0A2053303D2564B2
:1002D0002053323D2564205339393D256400435570
:1002E0005252454E5420494E49543A000D0A204579
:1002F00025645125645625642643256458256426C3
:100300004B2564265325640D0A2053303D25642077
:1003100053323D2564205339393D2564004C4953FF
:1003200054454E20504F52543A20004649524D57A2
:100330004152453A202020200057492D464920535C
:100340005349443A202000495020414444524553E7
:10035000533A2020004D41432041444452455353D9
:100360003A20000D434F4D4D4F444F5245205749C1
:100370002D4649204D4F44454D2048415945532075
:10038000454D554C4154494F4E0057492D46492043
:100390004641494C4544210057492D4649204F4B81
:1003A000210057492D464920494E49542E2E2E00F2
:1003B000256C6400426175640A4465746563746900
:1003C0006F6E00050800FF0C4B00000000003E5B54
:1003D0004F5B3E3E6B4F6B3E1C3E7C3E1C183C7E92
:1003E0003C181C577D571C1C5E7F5E1C00183C1877
:1003F00000FFE7C3E7FF0018241800FFE7DBE7FF73
:1004000030483A060E2629792926407F05050740FF
:100410007F05253F5A3CE73C5A7F3E1C1C08081CC0
:100420001C3E7F14227F22145F5F005F5F06097FFE
:10043000017F006689956A606060606094A2FFA297
:100440009408047E040810207E201008082A1C0846
:10045000081C2A08081E101010100C1E0C1E0C3050
:10046000383E3830060E3E0E060000000000000048
:100470005F00000007000700147F147F14242A7F08
:100480002A122313086462364956205000080703D5
:1004900000001C2241000041221C002A1C7F1C2A53
:1004A00008083E08080080703000080808080800A6
:1004B0000060600020100804023E5149453E0042A1
:1004C0007F400072494949462141494D3318141271
:1004D0007F1027454545393C4A4949314121110999
:1004E000073649494936464949291E00001400008B
:1004F00000403400000008142241141414141400A5
:100500004122140802015909063E415D594E7C12F0
:1005100011127C7F494949363E414141227F414188
:10052000413E7F494949417F090909013E41415105
:10053000737F0808087F00417F41002040413F0150
:100540007F081422417F404040407F021C027F7F91
:100550000408107F3E4141413E7F090909063E41A2
:1005600051215E7F09192946264949493203017FF5
:1005700001033F4040403F1F2040201F3F40384084
:100580003F631408146303047804036159494D431D
:10059000007F4141410204081020004141417F0495
:1005A000020102044040404040000307080020547C
:1005B0005478407F284444383844444428384444DC
:1005C000287F385454541800087E090218A4A49CAB
:1005D000787F0804047800447D40002040403D00BE
:1005E0007F1028440000417F40007C047804787C20
:1005F000080404783844444438FC18242418182487
:100600002418FC7C08040408485454542404043F6F
:1006100044243C4040207C1C2040201C3C40304076
:100620003C44281028444C9090907C4464544C44A2
:100630000008364100000077000000413608000243
:10064000010204023C2623263C1EA1A161123A406D
:1006500040207A38545455592155557941215454E4
:100660007841215554784020545579400C1E5272DF
:1006700012395555555939545454593955545458BB
:100680000000457C410002457D420001457C40F070
:10069000292429F0F0282528F07C545545002054C1
:1006A000547C547C0A097F493249494932324848CE
:1006B0004832324A4848303A4141217A3A42402051
:1006C00078009DA0A07D39444444393D4040403DE0
:1006D0003C24FF2424487E4943662B2FFC2F2BFF0C
:1006E0000929F620C0887E0903205454794100006E
:1006F000447D413048484A32384040227A007A0AE4
:100700000A727D0D19317D2629292F2826292929AC
:100710002630484D402038080808080808080838DE
:100720002F10C8ACBA2F102834FA00007B00000844
:10073000142A142222142A1408AA005500AAAA5521
:10074000AA55AA000000FF00101010FF0014141496
:10075000FF001010FF00FF1010F010F0141414FC34
:10076000001414F700FF0000FF00FF1414F404FC51
:10077000141417101F10101F101F1414141F001032
:100780001010F0000000001F101010101F101010AB
:1007900010F010000000FF101010101010101010BA
:1007A000FF10000000FF140000FF00FF00001F10FA
:1007B000170000FC04F414141710171414F404F4B4
:1007C0000000FF00F714141414141414F700F714A5
:1007D0001414171410101F101F141414F4141010F4
:1007E000F010F000001F101F0000001F1400000098
:1007F000FC140000F010F01010FF10FF141414FF90
:10080000141010101F00000000F010FFFFFFFFFF8A
:10081000F0F0F0F0F0FFFFFF0000000000FFFF0F1E
:100820000F0F0F0F38444438447C2A2A3E147E02AE
:10083000020606027E027E02635549416338444443
:100840003C04407E201E2006027E020299A5E7A5F8
:10085000991C2A492A1C4C7201724C304A4D4D3069
:100860003048784830BC625A463D3E494949007E8E
:100870000101017E2A2A2A2A2A44445F4444405125
:100880004A444040444A51400000FF0103E080FFD9
:10089000000008086B6B083612362436060F090F65
:1008A00006000018180000001010003040FF010181
:1008B000001F01011E00191D1712003C3C3C3C00AA
:1008C00000000000636C6F73653A206661696C65B7
:1008D000642C206E6F202A434C4F532A002A434C2D
:1008E0004F532A00636C6F73650D00636C6F736503
:1008F0003A206661696C65642C206E6F202A434C37
:100900004F532A002A434C4F532A00636C6F736580
:100910000D004F50454E2A00302E302E302E300024
:100920004F50454E2A000D006F70656E20007365B4
:100930007420752069006C656176650D0047573D30
:10094000000D006A6F696E20004173736F63696107
:1009500074656421004641494C4544007365742028
:10096000776C616E207068726173650073657420C6
:10097000776C616E206B65790073657420776C61AC
:100980006E20737369640073657420776C616E20E8
:100990006869646520310073657420756172742024
:1009A0006D6F64650073657420697020666C6167A3
:1009B00073007365742069702070726F746F636F59
:1009C0006C007365742069702064686370007365DF
:1009D000742069702072656D6F7465007365742092
:1009E000697020686F737400736574206970206883
:1009F0006F737400736574206970206C6F63616C31
:100A0000706F72740073657420776C616E206A6F0A
:100A1000696E002A5265626F6F742A007265626F98
:100A20006F740D0053746F72696E67007361766541
:100A30000D003C74696D656F75743E00414F4B0D40
:100A40000A004552523A200053455256455200433F
:100A500041434845004155544F4950004F4E004FC7
:100A60004646006C6F6F6B7570200047573D000D58
:100A700000736C6565700D00736574207379732065
:100A800077616B650073686F7720630D0045584987
:100A9000540D0A00657869740D00434D440D0A0039
:100AA00024242400434D440D0A00242424002A4F0A
:100AB00050454E2A002A434C4F532A007365742038
:100AC000636F6D6D2072656D6F74652030007365A6
:100AD0007420737973207072696E746C766C203038
:100AE000007365742075206D2031005265706C6153
:100AF00063653D005478506F7765723D00526174B4
:100B0000653D004A6F696E3D005265626F6F743DCE
:100B10000050726F62653D00426561636F6E3D001B
:100B2000676574206164686F630D0050524F544FC5
:100B30003D00464C4147533D307800525353493DA8
:100B4000282D0073686F7720727373690D00466CEF
:100B500075736853697A653D004D617463684368D5
:100B600061723D00466C75736854696D65723D0035
:100B700067657420636F6D6D0D004D6F64653D009A
:100B80005254433D0073686F77207420740D004108
:100B90006464726573733D0067657420646E730DE1
:100BA0000054696D653D00557054696D653D007375
:100BB000686F772074696D650D005A6F6E653D0032
:100BC0006765742074696D650D00426175647261BA
:100BD00074653D0067657420750D00446576696332
:100BE0006549643D00676574206F70740D00535350
:100BF00049443D0067657420776C616E0D004D615E
:100C00006320416464723D00676574206D61630D0B
:100C100000444843503D00484F53543D0047573D22
:100C2000004E4D3D0049503D006765742069700DD0
:100C3000000000000800020100000304070000009B
:100C4000000000000001020408102040800102049E
:100C50000810200102040810200404040404040401
:100C60000402020202020203030303030300000062
:100C70000023002600290000000000250028002B8A
:100C80000000000000240027002A0000CB0C4B1DB0
:100C9000EE2C282DAD303631F60C11241FBECFEFCF
:100CA000D8E0DEBFCDBF13E0A0E0B1E0E6E2F5E7BB
:100CB00002C005900D92AE3CB107D9F726E0AEEC2C
:100CC000B3E001C01D92AA33B207E1F71CE0C8E906
:100CD000DCE004C02297FE010E94AA34CC38D10780
:100CE000C9F70E94DD180C94863A0C940000CF924C
:100CF000DF92EF92FF920F931F93E82FF92F05C019
:100D0000015011092109310961F19081962394174D
:100D1000B9F305C0015011092109310911F1908180
:100D200096239413F7CFC12CD12CE12CF12C0AC0BF
:100D30008FEFC81AD80AE80AF80A0C151D052E0507
:100D40003F0579F080818623841791F36C2D7D2DEA
:100D50008E2D9F2D1F910F91FF90EF90DF90CF90E0
:100D6000089560E070E080E090E01F910F91FF90A7
:100D7000EF90DF90CF9008950C94933941E026B125
:100D800025FB882780F990E020910701242730E097
:100D90008217930739F42091B0002F7D2093B00083
:100DA0005B9AEDCF8091B0008F7D8093B0005B980F
:100DB0000895CF93C1E04A9B07C0609107016C275B
:100DC0008FE00E94712EF7CF609107018FE0CF91E5
:100DD0000C94712ECF93DF93EC0160E08FE095E0EF
:100DE0000E94931C40E060E08FE095E00E94951A1D
:100DF000BE018FE095E00E94D3318FE095E0DF9156
:100E0000CF910C94A21CCF93DF93EC0160E08FE0B4
:100E100095E00E94931C40E060E08FE095E00E9426
:100E2000951ABE018FE095E00E94E5318FE095E0D4
:100E3000DF91CF910C94A21CBC018AEE94E00C943B
:100E4000A631CF93DF9300D000D000D0CDB7DEB76E
:100E5000BC01CE0101960E94AE33CE0101960E94E4
:100E60001C07CE0101960E94BC328AEE94E00E94DB
:100E7000BD3126960FB6F894DEBF0FBECDBFDF9111
:100E8000CF9108950F931F93CF93DF9300D000D09D
:100E900000D0CDB7DEB78C01BC01CE0101960E9417
:100EA000AE33CE0101960E942107CE0101960E9429
:100EB000BC324AE060E2C8010E943034B801CE0181
:100EC00001960E94AE33CE0101960E94EA06CE0141
:100ED00001960E94BC3226960FB6F894DEBF0FBE74
:100EE000CDBFDF91CF911F910F9108958AEE94E0CD
:100EF0000C94BD31883041F0843131F091E08F376E
:100F000009F090E0892F089581E008957F928F92F3
:100F10009F92AF92BF92CF92DF92EF92FF920F9388
:100F20001F93CF93DF93CDB7DEB7CA56D1090FB663
:100F3000F894DEBF0FBECDBFF82E0E9476078FE873
:100F400094E00E94862744E150E0BE016F5A7F4F33
:100F50008FE894E00E94BE2744E150E0BE01635C4C
:100F60007F4F8FE894E00E94682744E150E0BE0183
:100F7000675D7F4F8FE894E00E94C4278FE894E07C
:100F80000E9486279093D3038093D20365E573E094
:100F90008E010F5F1F4FC8010E94E433C8010E94F9
:100FA0001C07C8010E94BC32BE016F5A7F4FC801A6
:100FB0000E942A33C8010E942107C8010E94BC3246
:100FC00067E473E0C8010E94E433C8010E941C0773
:100FD000C8010E94BC32BE01635C7F4FC8010E9401
:100FE0002A33C8010E942107C8010E94BC3269E36C
:100FF00073E0C8010E94E433C8010E941C07C801C5
:101000000E94BC32BE01675D7F4FC8010E942A3337
:10101000C8010E942107C8010E94BC326BE273E044
:10102000C8010E94E433C8010E941C07C8010E9445
:10103000BC3267E972E0C8010E942A33C8010E94ED
:101040002107C8010E94BC326DE173E0C8010E9413
:10105000E433C8010E941C07C8010E94BC326091A1
:10106000D2037091D3034AE050E08AEE94E00E94EC
:101070009A328AEE94E00E94BD31F110C8C080918E
:101080007C041F928F9320910901822F992787FD5D
:1010900090959F932F9380917E041F928F938091C0
:1010A000D4031F928F938091D6031F928F938091C8
:1010B0007D041F928F938091D5031F928F9380910F
:1010C0000A011F928F9380917F041F928F938091CA
:1010D0000B011F928F938CEE92E09F938F931F933F
:1010E0000F930E949F376EED72E0CE018B599F4F98
:1010F0000E94E433CE018B599F4F0E941C07CE0102
:101100008B599F4F0E94BC32B801CE018B599F4F23
:101110000E942A33CE018B599F4F0E942107CE0196
:101120008B599F4F0E94BC3283E190E00E94BC0625
:10113000782E8FE090E00E94BC06882E8EE090E032
:101140000E94BC06982E84E190E00E94BC06A82E66
:101150008BE090E00E94BC06B82E82E190E00E94F5
:10116000BC06C82E81E190E00E94BC06D82E8CE01F
:1011700090E00E94BC06E82E8DE090E00E94BC0644
:10118000F82E8AE090E00E94BC061F927F921F9288
:101190008F921F929F921F92AF921F92BF921F92A7
:1011A000CF921F92DF921F92EF921F92FF921F9297
:1011B0008F938DEA92E09F938F931F930F930E94DA
:1011C0009F370FB6F894DEBF0FBECDBF6FE972E058
:1011D000CE018B599F4F0E94E433CE018B599F4F14
:1011E0000E941C07CE018B599F4F0E94BC32B80150
:1011F000CE018B599F4F0E942A33CE018B599F4FAE
:101200000E942107CE018B599F4F0E94BC32C659C4
:10121000DF4F0FB6F894DEBF0FBECDBFDF91CF9189
:101220001F910F91FF90EF90DF90CF90BF90AF9004
:101230009F908F907F900895CF93DF93EC01E8818A
:10124000F9810480F581E02DCE010995892BB9F350
:10125000E881F9810680F781E02DCE01DF91CF9101
:1012600009948F929F92AF92BF92CF92DF92EF92AA
:10127000FF92CF93DF93EC014B010E947D2D6B0118
:101280007C01A12CB12CE881F9810480F581E02D4D
:10129000CE010995892BC1F40E947D2D6C197D0921
:1012A0008E099F0986169706A806B90660F78FEF84
:1012B0009FEFDF91CF91FF90EF90DF90CF90BF90A5
:1012C000AF909F908F900895E881F9810084F18517
:1012D000E02DCE01DF91CF91FF90EF90DF90CF9086
:1012E000BF90AF909F908F9009940F931F93CF93CF
:1012F000DF93CDB7DEB765970FB6F894DEBF0FBEAC
:10130000CDBF8B0120917F0421116AC030910A0169
:101310002091CF03332309F44EC02223E1F1CE0103
:1013200040960E94E433688979894FE050E0CE010D
:1013300001960E943E376DE88AEE94E00E94B63135
:101340006AE88AEE94E00E94B63190E0E1E0F0E0D5
:10135000EC0FFD1FE90FF11D8081882341F020ED86
:10136000280F2A3010F0805880839F5FEFCFBE0196
:101370006F5F7F4F8AEE94E00E94B4316DE88AEE91
:1013800094E00E94B6316AE88AEE94E00E94B63199
:10139000CE0140960DC00E947607B801CE0101969D
:1013A0000E94E433CE0101960E942107CE010196EE
:1013B0000E94BC3215C0BC018AEE94E0222341F0A9
:1013C0000E94B4316DE88AEE94E00E94B63108C004
:1013D0000E94B4316CE972E08AEE94E00E94B4316C
:1013E0008FE095E00E94BD31B8018FE095E00E944A
:1013F000C1318FE095E00E94A21C65960FB6F8946B
:10140000DEBF0FBECDBFDF91CF911F910F91089529
:1014100063E271E087EA92E00C94750981E5EAEDF8
:10142000F3E0DF011D928A95E9F71092D903089540
:101430008091D50360910801882331F08091D80311
:10144000811102C081E0682780E10C94712E1F9306
:10145000CF93DF93C82F80917D04811103C06DE08D
:1014600071E03BC02091110130911201203C82E1DA
:10147000380711F160F4203B84E03807C1F02036D2
:10148000394049F563EF70E080EA92E028C0211509
:101490008BE43807B1F0211586E93807B9F0203818
:1014A0003542C9F469ED70E083EA92E018C060E06B
:1014B00071E08EE992E013C066EE70E089E992E097
:1014C0000EC06BEC70E086EA92E009C06DEB70E054
:1014D00089EA92E004C065EB70E08AE992E00E943C
:1014E00075098091D503882329F06091080180E176
:1014F0000E94712E8091D403813009F4409891E0CC
:10150000909306011092D0039093D80310920C018F
:1015100010928004CC2349F180E293E00E94BC0643
:10152000882319F1C0E2D3E0CE010E94BC06182F37
:101530008E3539F46CEE72E08FE894E00E94B4319D
:101540000EC0682F8FE894E00E94B631111107C0D9
:101550008FE894E0DF91CF911F910C94BD312196DB
:10156000CA3683E0D80701F7F3CFDF91CF911F91FF
:101570000895CF93DF9300D0CDB7DEB72091360624
:10158000309137062115310511F42AE336E0CE01FA
:101590000196821B930B0F900F90DF91CF910895CE
:1015A000CF92DF92EF92FF92CF93C82F0E947D2DB2
:1015B0006B017C010E947D2D685B7B408109910954
:1015C0006C157D058E059F0508F44BC08C2F0E947D
:1015D000A72E892B79F720E432E44FE050E060E059
:1015E0008C2F0E94D02E6D3171058105910504F17B
:1015F0006C3371058105910504F16639710581052A
:10160000910504F16C3221E0720781059105FCF02F
:10161000683522E0720781059105F4F0603B744063
:1016200081059105F4F460EB74E080E090E01CC06B
:1016300060E076E980E090E017C060E07BE480E065
:1016400090E012C060E875E280E090E00DC060ECD0
:1016500072E180E090E008C060E679E080E090E030
:1016600003C060E070E0CB01CF91FF90EF90DF907E
:10167000CF9008950F931F93CF93DF931F92CDB711
:10168000DEB78C0169830E94BC066981861741F030
:10169000C8010F90DF91CF911F910F910C949B394E
:1016A0000F90DF91CF911F910F910895EF92FF92CC
:1016B0000F931F93CF93DF937C018B01C0E0D0E0A9
:1016C000D801ED91FC91EC0FFD1F6081CE018E0DD4
:1016D0009F1D0E949B392196C632D10589F7DF9163
:1016E000CF911F910F91FF90EF900895AF92BF920D
:1016F000CF92DF92EF92FF920F931F93CF93DF93DE
:10170000CDB7DEB7A8970FB6F894DEBF0FBECDBF3A
:101710006C017B018E010F5F1F4F5E0187E2A80EF7
:10172000B11CB801E01AF10AC701800F911F6FA325
:1017300078A70E94BC06F80181938F016FA178A55C
:10174000EA15FB0589F7C6010E942A33C601A8964F
:101750000FB6F894DEBF0FBECDBFDF91CF911F91C2
:101760000F91FF90EF90DF90CF90BF90AF900895D2
:10177000FC012191222331F0DC012C932032C9F3AA
:101780000196F7CFFC011082089567E18FE894E09D
:101790000E94692A62E08FE894E00C94672A0F9314
:1017A0001F93CF93DF9300D000D000D0CDB7DEB72A
:1017B0008C018091D2039091D30380179107F1F1AE
:1017C000B8018FE894E00E94502A8FE894E00E94CC
:1017D000C22A1093D3030093D20380910F019091FA
:1017E00010018036994081F06CE770E0CE010196DF
:1017F0000E94E433CE0101960E942107CE0101969A
:101800000E94BC3281E01BC068E670E0CE01019608
:101810000E94E433CE0101960E942107CE01019679
:101820000E94BC328FE894E00E94EA2A68E873E1E3
:1018300080E090E00E94AC2D0E94C50B80E02696CF
:101840000FB6F894DEBF0FBECDBFDF91CF911F91D1
:101850000F9108958091D403823091F0389A80914D
:10186000D403882319F0813019F00895389A05C0FF
:10187000389A8091D803882311F0409A08954098AF
:101880000895CF93DF931F92CDB7DEB791E0909389
:101890000C011092D8031092800490930B01909346
:1018A0000A0110927F0410927E049BE2909309013A
:1018B0001092D6031092D50310927C0489830E9463
:1018C000180A8981811107C01092D4030F90DF910B
:1018D000CF910C942A0C0F90DF91CF9108958AE05C
:1018E00090E00E94BC0691E0811101C090E09093CD
:1018F0000B018BE090E00E94BC0691E0811101C0D9
:1019000090E09093D6038CE090E00E94BC0691E0BA
:10191000811101C090E090930A018DE090E00E9457
:10192000BC0691E0811101C090E090937F048EE0AD
:1019300090E00E94BC0691E0811101C090E090937C
:101940007E048FE090E00E94BC068093090181E153
:1019500090E00E94BC0691E0811101C090E090935C
:10196000D50382E190E00E94BC0680937D0483E170
:1019700090E00E94BC0691E0811101C090E090933C
:101980007C0484E190E00E94BC068093D4030E9412
:10199000180A0C942A0C0F9300E020E040E060E06D
:1019A00089E095E00E942A3120E046E065E08AEE79
:1019B00094E00E941C1F8FE894E00E94C02C6EEE01
:1019C00072E089E894E00E942A3341E020911101FD
:1019D0003091120180910F01909110012817390761
:1019E00009F440E04093D7030F91089589E894E00B
:1019F0000E94BC328AEE94E00C94C31ECF92DF9218
:101A0000EF92FF926C019093100180930F0183E994
:101A100095E00E944A2F62E070E080E090E00E9432
:101A2000AC2DE12CF12CB701A6018FE894E00E94C7
:101A3000822668EE73E080E090E00E94AC2D83E99E
:101A400095E00E94333026E0B701A60183E995E0D6
:101A50000E94D12F8FE894E0FF90EF90DF90CF901D
:101A60000C948627BF92CF92DF92EF92FF920F9352
:101A70001F93CF93DF93CDB7DEB7C854D1090FB60C
:101A8000F894DEBF0FBECDBF7C016B0167E972E049
:101A90008E010F5F1F4FC8010E94E433B801C701D8
:101AA0000E941D34B82EC8010E94BC32BB2019F020
:101AB00064E872E011C06CE772E0C8010E94E43390
:101AC000B801C7010E941D34B82EC8010E94BC3263
:101AD000BB2051F061E772E0C7010E94C33336E4D6
:101AE000C32E34E1D32E66C06CE672E0C8010E94BA
:101AF000E433B801C7010E941D34B82EC8010E940A
:101B0000BC32BB2009F456C01092D70364E572E0E2
:101B1000C7010E94C33381E08093CE0380911101FD
:101B20009091120181159649B1F180E096E9909368
:101B30001201809311018AEE94E00E94FB1D83E95B
:101B400095E00E944A2F68EE73E080E090E00E94EA
:101B5000AC2D80911101909112010E94FE0C8AEE31
:101B600094E00E94FB1D8AEE94E00E94DA1F4091EF
:101B700011015091120160E070E08AEE94E00E9441
:101B80004C1F48EE53E060E070E08AEE94E00E9463
:101B9000B6320E94C50B1092070181E08093D603F4
:101BA00068EE73E080E090E00E94AC2D25E0C22E4C
:101BB00026E0D22EF70181818F9380818F9381E47B
:101BC00092E09F938F931F9292E3B92EBF921F933F
:101BD0000F930E946F37C8010E940307F7016081CD
:101BE000718120E130E0AE014D5C5F4F8FE894E001
:101BF0000E94E2280FB6F894DEBF0FBECDBF811160
:101C000025C069E172E0CE018D5B9F4F0E94E433F5
:101C1000CE018D5B9F4F0E944207CE018D5B9F4F8F
:101C20000E94BC3268EE73E080E090E00E94AC2D30
:101C300080917D04823011F0843028F06DE072E0F4
:101C40008CEA92E04DC062E072E048C021E0A6015B
:101C5000BE016D5C7F4F8FE894E00E94F02B8823DB
:101C6000D9F0F70181818F9380818F9382EF91E08A
:101C70009F938F931F92BF921F930F930E946F3772
:101C8000C8010E94030780E00E94270A0FB6F8945B
:101C9000DEBF0FBECDBF26C062EE71E0CE018D5B10
:101CA0009F4F0E94E433CE018D5B9F4F0E94EA0656
:101CB000CE018D5B9F4F0E94BC3268EE73E080E0E6
:101CC00090E00E94AC2D80917D04833028F06DED72
:101CD00071E080EB92E004C062ED71E08EEA92E088
:101CE0000E947509C85BDF4F0FB6F894DEBF0FBEC8
:101CF000CDBFDF91CF911F910F91FF90EF90DF90BB
:101D0000CF90BF900895EF92FF920F931F93CF93C0
:101D1000DF93CDB7DEB72C970FB6F894DEBF0FBEBA
:101D2000CDBF8C01BC01CE0107960E942A33F80179
:101D30008081811103C00E94080A3DC06AE370E0FF
:101D4000C8010E9415370097C1F0FC0111927F0174
:101D5000B801CE0101960E942A33BE016F5F7F4F0A
:101D6000CE0107960E94B733CE0101960E94BC3285
:101D7000C7010E94B9368C0102C007E110E0BE0124
:101D8000695F7F4F89E894E00E94973310930E01BA
:101D900000930D01BE01695F7F4FCE0101960E9445
:101DA000AE3340E0B801CE0101960E94320DCE0163
:101DB00001960E94BC32CE0107960E94BC322C963E
:101DC0000FB6F894DEBF0FBECDBFDF91CF911F914C
:101DD0000F91FF90EF900895CF93DF93EC0183E98B
:101DE00095E00E944A2F62E070E080E090E00E945F
:101DF000AC2D83E995E00E943330AE0160E070E0E5
:101E000026E083E995E0DF91CF910C94D12F80E615
:101E100099E00E94EC0E8FE894E00C94D026CF93CA
:101E2000C82F81E080930C011092D8031092800497
:101E300060E08FE095E00E94931C40E060E08FE05E
:101E400095E00E94951A8FE894E00E94082301967D
:101E500029F48FE894E00E94BA2B04C08FE894E044
:101E60000E94822CCC2331F06AE371E08EEA92E08A
:101E70000E9475098091D503882339F0609108018B
:101E800081E0682780E10E94712E8091D403813027
:101E900009F4409ACF91089580918004811103C084
:101EA00081E00C940F0F81E00C94270A81E080936D
:101EB000800480917E04882381F06CE171E084EAE3
:101EC00092E00E947509439A6AEF70E080E090E02A
:101ED0000E94AC2D43980C944C0F65E171E084EAAC
:101EE00092E00E947509439A6AEF70E080E090E00A
:101EF0000E94AC2D439808951F93CF93DF93EC017C
:101F0000162F6FEF8FE894E00E943E21CD3FD10560
:101F100011F46DEF01C06BEF8FE894E00E943E2159
:101F2000612F8FE894E0DF91CF911F910C943E21B7
:101F30001F93CF93DF93EC01162F6FEF8FE894E0A0
:101F40000E943E21CD3FD10511F46CEF01C06EEF30
:101F50008FE894E00E943E21612F8FE894E0DF91AA
:101F6000CF911F910C943E216FEF8FE894E00E9477
:101F70003E216EEF8FE894E00E943E2162E28FE8FE
:101F800094E00E943E216FEF8FE894E00E943E2192
:101F90006EEF8FE894E00E943E2161E08FE894E0CC
:101FA0000C943E21CF93DF938091060181110E9412
:101FB000B40F8FE894E00E941C09EC018F3F91055B
:101FC00019F48091D0033AC08C3F910521F124F49B
:101FD0008B3F910541F031C08D3F910521F08E3F3F
:101FE0009105C9F02AC08FE894E00E941C0900976F
:101FF00049F083309105E9F463E070E0CE010E947E
:102000007C0F1BC060E070E0CE010E947C0F81E07D
:102010008093D00312C08FE894E00E941C090097BF
:1020200041F460E070E0CE010E94980F1092D0035E
:1020300004C0BC01CE010E94980F80E0DF91CF91D7
:102040000895CF93DF93CDB7DEB7E8970FB6F89436
:10205000DEBF0FBECDBF64EB71E08E010F5F1F4F7F
:10206000C8010E94E433C8010E942107C8010E94F0
:10207000BC32412C512C3201C12CD12C7601312C97
:1020800047E9A42E41E0B42E54E8852E51E0952E68
:102090008FE894E00E94082318161906B4F48FEF15
:1020A000C81AD80AE80AF80A8091D60381110E945A
:1020B000BE068FE894E00E94AC22682F8AEE94E07E
:1020C0000E94771D33243394E3CF8AEE94E00E947C
:1020D000E31D181619068CF49FEF491A590A690A6C
:1020E000790A8AEE94E00E94561D682F8FE894E0EA
:1020F0000E943E2133243394E8CFC2019301332060
:1021000039F24091D603411104C04091D7034423D2
:1021100099F01F921F921F921F923F932F939F93AC
:102120008F93FF92EF92DF92CF92BF92AF921F9365
:102130000F930E949F370EC07F926F925F924F92D3
:10214000FF92EF92DF92CF929F928F921F930F9305
:102150000E949F370FB6F894DEBF0FBECDBFB80107
:10216000CE01C3960E942A33CE01C3960E94EA068E
:10217000CE01C3960E94BC328BCF2F923F924F92DA
:102180005F926F927F928F929F92AF92BF92CF9207
:10219000DF92EF92FF920F931F93CF93DF93CDB710
:1021A000DEB7EE970FB6F894DEBF0FBECDBF8EE060
:1021B000E1EEF2E0DE01999601900D928A95E1F749
:1021C0008091DA03813C41F48091DB03843D21F46A
:1021D00081E08093CF0302C01092CF036AED73E0D9
:1021E0008BE294E00E9429370AED13E07801F701B1
:1021F00001900020E9F73197EA5DF340C8018A5D5C
:1022000093408E179F0768F4F80180810E947B1A23
:10221000992787FD90950E94D736F80181938F0109
:10222000E6CF6AED73E0CE0101960E942A33CE011B
:1022300001960E94EA06CE0101960E94BC324AE055
:1022400050E062EB72E08AED93E00E943037892B18
:1022500091F48091E40389831A82CE0101960E9451
:10226000B9368A30910508F039C4682F83E690E0CA
:102270000E943A0BC8C048E050E06DEB72E08AED76
:1022800093E00E943037892B81F482EE93E00E9424
:10229000B9368C0197FD22C40E94CF0B8111FFCF6C
:1022A0001093D3030093D203AEC066EC72E08AEDC4
:1022B00093E00E944D37892B09F44FC00E947607A6
:1022C000A4E6EA2EF12C00E010E00F5F1F4F4AE079
:1022D00050E0B8018AEE94E00E949A3268E371E01F
:1022E000CE0101960E94E433CE0101960E941C07A4
:1022F000CE0101960E94BC32B701CE0101960E9428
:10230000760BCE0101960E942107CE0101960E9414
:10231000BC32F8E2EF0EF11C09301105B1F60E9453
:1023200076076CE271E0CE0101960E94E433CE01A3
:1023300001960E941C07CE0101960E94BC3283E6E2
:1023400090E00E94BC064AE050E0682F8AEE94E0DC
:102350000E94AF320E94760756C06DEC72E08AEDA3
:1023600093E00E944D37892BC9F004E610E065E93F
:1023700072E0CE0101960E942A33BE016F5F7F4F4B
:10238000C8010E94560BCE0101960E94BC32085D26
:102390001F4F0C3C81E0180751F735C045E050E075
:1023A00068ED72E08AED93E00E943037892B69F581
:1023B0008091DF038FAB18AECE01C7960E94B9366D
:1023C0008C01015011090930110508F087C3809173
:1023D000E0038D3309F082C361EE73E0CE01019614
:1023E0000E942A3328E2209FC001219F900D1124D2
:1023F000BE016F5F7F4F8C599F4F0E94560BCE01DD
:1024000001960E94BC32712C6BC342E050E06EED2D
:1024100072E08AED93E00E943037892BA1F762E0E9
:1024200070E0512C712C5E0199E2A90EB11C66245A
:102430006394EBE22E2EE4E03E2EF8E24F2EEAED1E
:10244000F3E001900020E9F73197EA5DF3406E1761
:102450007F0718F0511053C343C36E347105D4F78E
:102460008B010F5F1F4FFB01E652FC4F80818834C8
:1024700009F44FC0CCF48A3209F40AC254F48D3006
:1024800009F42AC3863209F447C18A3009F01BC314
:1024900023C3843409F480C2853451F1813409F0B6
:1024A00012C30E944C0FD6C2833509F482C06CF46B
:1024B0008F3409F465C0813509F46AC0893409F0A4
:1024C00002C380E00E94860707C3883509F414C15F
:1024D0008A3521F0863509F0F6C2FEC00E946F0CE5
:1024E0008FE894E00E942C26882309F4F5C241C0AD
:1024F0006E5F7F4FF801E652FC4F8081803331F0F0
:10250000813309F006C160920B0104C110920B01E6
:1025100001C17B01E2E0EE0EF11CF801E652FC4F36
:102520008081803319F0813371F01DC08FE894E011
:102530000E942C26882319F00E94070FC6C280E053
:102540000E940F0FC2C28FE894E00E942C268111D6
:10255000BCC260E070E08FE894E00E94F92C811129
:10256000B4C27394B2C28FE894E00E942C268823F0
:1025700019F00E94070FB0C280E00E940F0FACC29A
:102580008091D803882309F49EC210920C01A4C242
:102590006E5F7F4FF801E652FC4F8081803331F04F
:1025A000813309F0B6C060927F04B4C010927F04FA
:1025B000B1C0CB010296F801E652FC4F20812233D4
:1025C00011F1293309F464C0203309F082C29B0160
:1025D0002D5F3F4FFC01E652FC4F80818D3309F0A7
:1025E00076C28B010C5F1F4FF901E652FC4F8081D0
:1025F000803331F0813309F066C260927E046CC290
:1026000010927E0469C28B010D5F1F4FFC01E652E0
:10261000FC4F80818D3309F05FC21FAA18AE19AE3E
:10262000F50101900020E9F7CF0101976C01CA186C
:10263000DB087801812C912C8C149D0491F4A70166
:10264000401B510BB80166527C4FCE01C7960E94C9
:102650003E371AAECE01C7960E94B9368093090163
:1026600034C2F3E08F16910451F3F701E652FC4FA8
:102670006081772767FD7095C5010E941537892B0A
:10268000F1F69FEFE91AF90AEFEF8E1A9E0AD4CFFE
:102690008B010D5F1F4FFC01E652FC4F8081893397
:1026A00009F01AC2CB010496F801E652FC4F2081D2
:1026B0002D3309F00EC20E5F1F4FFC01E652FC4F96
:1026C0008081803331F0813309F006C260927C044E
:1026D00003C210927C0400C26E5F7F4FF801E65285
:1026E000FC4F8081803329F0813399F460920A0194
:1026F00011C010920A010EC06E5F7F4FF801E652C2
:10270000FC4F8081805380937D04853018F01092B7
:102710007D0473948B01E0C16B0182E0C80ED11C73
:10272000F801E652FC4F80818B3409F44CC0ACF4C4
:102730008334F1F08634D1F18D3209F0CCC10E949E
:1027400076070E94B90A4AE050E0BC018AEE94E0A4
:102750000E949A320E947607BEC1833509F445C0B3
:10276000873509F452C0823509F0B5C10E942110A5
:102770008B010D5F1F4FF601E652FC4F80818033C5
:1027800019F0813331F09FC11092D5036091080197
:1027900009C06092D5038091D8036091080181112E
:1027A00001C0662580E10E94712E96C180E00E94E2
:1027B000410C8FE894E00E942C26882309F48BC1F9
:1027C0000E94070F88C18B010D5F1F4FF601E65273
:1027D000FC4F8081803331F0813309F074C1609205
:1027E000D6037AC11092D60377C18B010D5F1F4FBC
:1027F000F601E652FC4F80818053833008F063C1BC
:102800008093D4030E942A0C67C160910B018AE077
:1028100090E00E943A0B6091D6038BE090E00E941A
:102820003A0B60910A018CE090E00E943A0B6091B3
:102830007F048DE090E00E943A0B60917E048EE070
:1028400090E00E943A0B609109018FE090E00E94B5
:102850003A0B6091D50381E190E00E943A0B6091C0
:102860007D0482E190E00E943A0B60917C0483E158
:1028700090E00E943A0B6091D40384E190E00E94C2
:102880003A0B8FE894E00E94C22A811124C114C13E
:10289000FB013296D801A652BC4F8C918D3459F071
:1028A00024F48B3409F45EC074C0803509F440C050
:1028B000833501F16EC08B010D5F1F4FE652FC4F57
:1028C00080818D3309F0FFC000E213E0FB01E55D7C
:1028D000FB4F7F01F701E00FF11FED51F3406081E5
:1028E000C8010E949B390F5F1F4F0A36F3E01F0794
:1028F00089F72EC08B010D5F1F4FE652FC4F808180
:102900008D3309F0E0C0B801655D7B4F8FE894E03E
:102910000E94812A8FE894E00E94712660E27EE4A2
:102920008FE894E00E94842B811112C0739410C030
:102930008B010D5F1F4FE652FC4F80818D3309F0F4
:10294000C2C0B801655D7B4F8FE894E00E94AB2A5E
:10295000F10101900020E9F78F01015011090B529C
:102960001440BAC06D5F7F4FE652FC4F80818D33BB
:1029700071F4655D7B4F8FE894E00E948C2AF10131
:1029800001900020E9F73197EB52F44002C07394B4
:10299000FB0173948F01A0C06B01F2E0CF0ED11C3C
:1029A00006521C4FF8018081833209F456C01CF492
:1029B000882331F083C0803559F0843549F07EC0DA
:1029C0008091D803882309F477C010920C0183C04A
:1029D0008B010D5F1F4FC60186529C4F6C01FC019D
:1029E0008081833279F5F801E652FC4F80818DAF0A
:1029F0001EAECE01CD960E94B93601978930910561
:102A000008F061C0489EB001499E700D11246C59B8
:102A10007F4FCE01C7960E94760B6FA978AD48E232
:102A200050E0CE0101960E943E37CE01C7960E942B
:102A3000BC32CE0101960E94B80BCE0101960E94D5
:102A4000830E08C0C6010E94B80BC6010E94830E07
:102A50000EE410E0552453943FC0F601E652FC4FBB
:102A600080818DAF1EAECE01CD960E94B936019702
:102A70008930910508F5489EB001499E700D1124DA
:102A80006C597F4FCE01C7960E94760B6FA978AD27
:102A900048E250E0CE0101960E943E37CE01C79633
:102AA0000E94BC32CE0101960E94B80BCE01019665
:102AB0000E94830E8601CECF73940DC0C8010E9480
:102AC000B80BC801C3CF739407C0870105C0890143
:102AD00003C08C0101C08601B801B1CC7724739486
:102AE00080917C04811102C0711007C069E271E01D
:102AF00081EA92E00E94750902C00E94080A0E94C1
:102B00000E0AEE960FB6F894DEBF0FBECDBFDF9172
:102B1000CF911F910F91FF90EF90DF90CF90BF90DA
:102B2000AF909F908F907F906F905F904F903F906D
:102B30002F9008954F925F926F927F92AF92BF92C3
:102B4000CF92DF92EF92FF920F931F93CF93DF9379
:102B500000D000D000D0CDB7DEB7AA24A3940AEDF0
:102B600013E0B0E6EB2EB9E0FB2E84E6C82ED12CA4
:102B70008AEE94E00E94E31D1816190614F5809160
:102B80000C01882309F4E0C08091D603882331F03A
:102B9000609107016A258FE00E94712E8AEE94E011
:102BA0000E94561D3C01B82E8D7F8830C9F02DE063
:102BB0006216B1F084E1681699F080EE860D8B3BC9
:102BC00058F08091D603882309F448C16091070129
:102BD0008FE00E94712E42C180E8860D813488F317
:102BE00080910B018823E9F08091D603811114C0F4
:102BF0008091110190911201803629E0920710F422
:102C000080E699E0B7010E943F34C6010E943F343C
:102C100080E090E00E94AC2D662D8AEE94E00E9448
:102C2000771D862D0E947A07882361F08091DA0350
:102C3000882309F49DCFF80101900020E9F732972D
:102C4000108296CF8DE0B81609F465C02AE0B2165E
:102C500009F461C0F80101900020E9F73197EA5DBD
:102C6000F340E135F10518F00E94080A51C0809147
:102C7000D903882321F0E652FC4F608226C03097AA
:102C800019F0319779F021C0C30199278136910558
:102C900031F0813C910519F081349105B1F46092D5
:102CA000DA0313C0C30199278435910551F01CF450
:102CB0008F9759F406C08437910519F0843D91052A
:102CC00021F46092DB03A092D9038091DA030E9481
:102CD0007B1A992787FD90950E94D73681349105FC
:102CE00009F046CF8091DB038F3209F041CF6BE2D0
:102CF00074E08AED93E00E9429378091D6038823FF
:102D000029F0609107018FE00E94712E0E94BD1092
:102D10000E940E0A2DCF8091DA030E947B1A992718
:102D200087FD90950E94D7368134910589F780916F
:102D3000DB030E947B1A992787FD90950E94D73666
:102D40008435910529F76FC08091D803882309F451
:102D50000FCF8AEE94E00E94561DB82E0E947D2D62
:102D6000685E734081099109409083045090840407
:102D700060908504709086044616570668067906AA
:102D800038F480910901B81609F459C010928804EA
:102D90000E947D2D60938304709384048093850446
:102DA0009093860480918804833021F56FEE72E061
:102DB000CE0101960E942A33CE0101960E94EA06B6
:102DC000CE0101960E94BC32A09282041092880427
:102DD0001092830410928404109285041092860449
:102DE000A0920C010E94760769E271E081EA92E00C
:102DF0000E947509B09287048091D60381110E94C8
:102E0000D9068FEFB81209C08091D003882329F02A
:102E10006FEF8FE894E00E943E216B2D8FE894E0E5
:102E20000E943E21A5CE8091D603882329F060918F
:102E300007018FE00E94712E0E94BD1099CE8091F3
:102E400087048B1529F0A0928804B0928704AACF3A
:102E5000809188048F5F80938804A4CF26960FB654
:102E6000F894DEBF0FBECDBFDF91CF911F910F91C0
:102E7000FF90EF90DF90CF90BF90AF907F906F90DA
:102E80005F904F900895CF92DF92EF92FF920F9351
:102E90001F93CF93DF93CDB7DEB72A970FB6F89481
:102EA000DEBF0FBECDBF8FE894E00E94AD2B88231C
:102EB00029F18091D803811115C08091800481117E
:102EC00029C067EA70E0CE0101960E94E433CE018A
:102ED00001960E94EA06CE0101960E94BC320E9431
:102EE000560FB2C080910C018823B9F08FE894E0AE
:102EF0000E940823181619066CF00FC080918004F8
:102F0000882321F081E00E940F0F9EC08091D8039A
:102F10008111F8CF0E949A1597C000E010E0DD24DF
:102F2000D3948FE894E00E940823181619060CF039
:102F300066C08FE894E00E94AC227C01809106017B
:102F4000882391F08091CE0381110BC08FEFE8169A
:102F5000F10429F4D092D1030E94D20F02C0109242
:102F6000D10310920601DDCF8091D7039FEFE916C0
:102F7000F10441F59091D103992321F18823D9F0EF
:102F80008091B0008F7D8093B0005B980E94D20F3B
:102F9000882351F0E1E0F0E0EC0FFD1FE00FF11F9E
:102FA0008FEF80830F5F1F4F8091B0008F7D8093E4
:102FB000B0005B9AB6CF0E94D20F882309F4B1CF3C
:102FC0006FEF18C0882381F08091B0008F7D8093CF
:102FD000B0005B9AE1E0F0E0EC0FFD1FE00FF11FA5
:102FE000E0820F5F1F4F9DCF8091D60381110E9419
:102FF000BE066E2D8AEE94E00E94771D92CF8091DE
:10300000D703882309F486CF7801093011051CF015
:1030100098E0E92EF12C8E010F5F1F4F6801C80167
:103020008C199D098E159F0544F4F80161918F015B
:103030008AEE94E00E94771DF2CF8091B0008F7DE0
:103040008093B0005B9866CF2A960FB6F894DEBFE7
:103050000FBECDBFDF91CF911F910F91FF90EF90E9
:10306000DF90CF900895CF93DF93CDB7DEB7AE97C3
:103070000FB6F894DEBF0FBECDBF0E942A0C3B9A5C
:1030800043983C983D9881E00E94410C0E946F0C4F
:103090000E940E0A68EE73E080E090E00E94AC2D82
:1030A0000E947607809181049FEF980F993008F075
:1030B00069C0992787FD9095019728E2289FB00164
:1030C000299F700D11246C597F4FCE0189960E9463
:1030D000760B69A57AA548E250E0CE0101960E94E0
:1030E0003E37CE0189960E94BC326EE671E0CE0179
:1030F00089960E94E433CE0189960E941C07CE0176
:1031000089960E94BC32BE016F5F7F4FCE018996C7
:103110000E942A33CE0189960E942107CE0189960A
:103120000E94BC3261E571E0CE0189960E94E433D1
:10313000CE0189960E942107CE0189960E94BC3259
:1031400060ED77E08AEE94E00E9431090196A9F0E3
:103150008AEE94E00E941C096EE471E0CE0189962B
:103160000E94E433CE0189960E94EA06CE01899638
:103170000E94BC326BE471E015C0CE0101960E9442
:10318000830E18C068E471E0CE0101960E94E4331A
:10319000CE0101960E94EA06CE0101960E94BC3241
:1031A00065E471E08AEE94E00E9483318AEE94E057
:1031B0000E94BD310E944317FDCFCF93DF93CDB75F
:1031C000DEB72C970FB6F894DEBF0FBECDBF0E94BE
:1031D000D42D8FE095E00E94E31C60E08FE095E045
:1031E0000E94D91A61E08FE095E00E94931C3D98FF
:1031F000399A5298539A8091B0008F7D8093B00095
:103200005B98609107018FE00E94712E3A9A81E1EC
:1032100090E00E94BC0691E0811101C090E0909383
:10322000D50360910801992311F081E0682780E1BE
:103230000E94712E84E190E00E94BC068093D4032A
:10324000823009F4389882E090E00E94BC06182F82
:1032500083E090E00E94BC06212F30E0322F22272D
:10326000280F311D3093120120931101203B84E07F
:103270003807C9F0203699E03907A9F0203C82E1EF
:10328000380789F0203895E2390769F021158BE479
:10329000380749F02115364931F080E699E09093DE
:1032A00012018093110160E085E00E94382E61E0F8
:1032B00085E00E94712E64EB73E0CE0101960E94BE
:1032C000E433CE0101960E94EA06CE0101960E94E7
:1032D000BC3285E090E00E94D00A6B017C01603B2B
:1032E00024E072078105910509F180E6C81689E09E
:1032F000D806E104F104D1F090ECC91692E1D906A8
:10330000E104F10499F020E8C21625E2D206E104B6
:10331000F10461F0C1148BE4D806E104F10431F04A
:10332000C11496E9D906E104F104A9F5FF92EF92E0
:10333000DF92CF9280EB93E09F938F938E01095F92
:103340001F4F1F930F930E949F37B801CE01019624
:103350000E942A33CE0101960E94EA06CE01019610
:103360000E94BC3268EB7BE080E090E00E94AC2DD4
:10337000C0921101D09212016D2D82E090E00E9466
:103380003A0B6C2D83E090E00E943A0B0FB6F89454
:10339000DEBF0FBECDBF409111015091120160E020
:1033A00070E08AEE94E00E944C1F40910F01509112
:1033B000100160E070E026E083E995E00E94D12FE3
:1033C00048EE53E060E070E08AEE94E00E94B6328E
:1033D00041E0209111013091120180910F019091F3
:1033E00010012817390709F440E04093D7038AEE0B
:1033F00094E00E94BD3162EA73E0CE0101960E9422
:10340000E433CE0101960E944207CE0101960E944C
:10341000BC3240E050E063E975E08FE894E00E9440
:10342000032A8823C1F068E973E0CE0101960E9467
:10343000E433CE0101960E944207CE0101960E941C
:10344000BC320E94C50B809111019091120180360F
:10345000994089F422C06AE873E0CE0101960E9487
:10346000E433CE0101960E944207CE0101960E94EC
:10347000BC320E94211068EE73E080E090E00E9470
:10348000AC2D8091110190911201803B24E09207B4
:1034900011F480E699E00E94FE0C41E020911101B8
:1034A0003091120180910F01909110012817390776
:1034B00009F440E04093D7038FE894E00E94BA2BD0
:1034C00083E690E00E94BC068093810463E673E08B
:1034D000CE0101960E94E433CE0101960E9421079D
:1034E000CE0101960E94BC320E94760781E00E94C4
:1034F00086070E9433188D3061F08A3061F0803287
:1035000060F0803A61F09FE3980F9A3148F4805858
:1035100008958AE008958DE0089580E0089580E29E
:1035200008950DB407FEFDCF0895FC01638744871D
:1035300008950F936034D8F54033C8F50130C9F4CD
:103540002130A9F5E42FE695E695E69580E4E89F1D
:10355000F0011124E60FF11DED5EFE4F477081E092
:1035600090E0042E01C0880F0A94EAF79081982712
:103570001DC0842F869586958695E62FF0E04770CE
:1035800090E4899FE00DF11D1124ED5EFE4F81E076
:1035900090E0042E01C0880F0A94EAF7213019F454
:1035A0009081982B03C080959081982390830F91F0
:1035B0000895DC0161112EC018961C921897809115
:1035C000930290919402FC01249116962C931697E5
:1035D0003196E4911796EC931797FC013296E4919B
:1035E0001996EC931997FC013396E4911A96EC9393
:1035F0001A97FC01349624913196849190E0F4E678
:103600002F9F800D911D11241E969C938E931D97C4
:1036100081E0089580E008955F926F927F928F928B
:103620009F92AF92BF92CF92DF92EF92FF920F9351
:103630001F93CF93DF93EC01162FB42EF02E398514
:10364000231708F4B0C06A8570E0630F711D822FE4
:1036500090E0861797070CF0A6C0D22ED31A9F8051
:1036600096949694969481E08915C0F1C12E3C2DD4
:10367000311B2E81822F90E0A32FB0E08A179B0789
:103680000CF491C0321791F0E885F0E0EE0FFF1FC7
:10369000ED56FD4FD29EA00DB11D1124169601903E
:1036A000F081E02DEA0FFB1F949001C0912CA12C1A
:1036B0004A2D4B0D90FE03C00E2D2F2D04C021E08E
:1036C000F11020E00E2D6C2DCE010E94991A9694D7
:1036D000A39488E0A812ECCFC394C9CFED85FE85F2
:1036E0002E8130E0CF01B9010E943F348D2D90E052
:1036F0000E943F34829F6001839FD00C929FD00C28
:1037000011249E9E90019F9E300D1124269FC00182
:10371000279F900D369F900D1124C80ED91E742E30
:10372000A12CB12C86E0C80ED11C812E482D411B46
:103730008E81481780F5E885F0E0EE0FFF1FED560B
:10374000FD4F2D853E85A29EC001A39E900DB29E89
:10375000900D11248C0D9D1D840F911D0190F08101
:10376000E02DE80FF91F5490612C462D470D50FEB7
:1037700003C00E2D2F2D04C021E0F11020E00E2DEE
:10378000682DCE010E94991A5694639488E06812BD
:10379000ECCF8394CBCF8FEFA81AB80A88E0780ECD
:1037A000A91408F4C2CFDF91CF911F910F91FF9020
:1037B000EF90DF90CF90BF90AF909F908F907F90D1
:1037C0006F905F900895EF920F93CF93DF93EC018A
:1037D000262F6A30A9F06D30C1F0ED800C814C8548
:1037E0006B850E940C1B4E812B85240F2F5F2B872E
:1037F00030E080E490E0841B9109821793072CF459
:103800008C859F81890F8C871B8681E090E0DF91FA
:10381000CF910F91EF9008952A9A22982898209A94
:1038200060E08DE00E94712E60E08BE00E94712EBE
:1038300061E08DE00E94382E61E08BE00E94382E1E
:103840008CB580618CBD08958CB580648CBD2A9840
:10385000229A08950DB407FEFDCF2898209A2A9A3F
:1038600022988CB58F7B8CBD0895CF93DF9300D0C9
:10387000CDB7DEB74A8369830E94241C69816EBD7F
:103880000E94911A4A814EBD0F900F90DF91CF9107
:103890000C942A1CCF93DF9300D01F92CDB7DEB7D4
:1038A0002B834A8369830E94241C69816EBD0E9418
:1038B000911A4A814EBD0E94911A2B812EBD0F9004
:1038C0000F900F90DF91CF910C942A1C0F931F93B0
:1038D000CF93DF93EC0140E060E20E94351C2FE7BC
:1038E00040E061E2CE010E944A1C27E040E062E233
:1038F000CE010E944A1C0E94241C289A20981EBCBB
:103900000FEF13E00E94911A1EBC01501109D1F76C
:103910000E942A1C42E060E2CE01DF91CF911F910C
:103920000F910C94351C613011F40C94661C80E8E6
:1039300091E0E3E1F1E0DF019C011D922150304074
:10394000E1F708950F931F93CF93DF93EC0140E0CD
:1039500060E20E94351C2FE540E261E2CE010E9448
:103960004A1C25E040E062E2CE010E944A1C0E940F
:10397000241C289A2098809113018EBD04E111E047
:103980000E94911AF80181918F018EBDF2E00339F6
:103990001F07B1F70E942A1C42E060E2CE01DF91CE
:1039A000CF911F910F910C94351C2CB5982F9370CB
:1039B0002C7F922B9CBD9DB582FB882780F99E7F32
:1039C000982B9DBD0895CF93DF93EC0160E00E949A
:1039D000D91A81E08C831D821B861C865F98579ABA
:1039E00061E084E00E94382E61E084E00E94712E44
:1039F0006AE070E080E090E00E94AC2D5F9A5798FA
:103A000065E070E080E090E00E94AC2D5F98579AEE
:103A100084E00E94D51C0E940C1C65E070E080E0F0
:103A200090E00E94AC2D5F9A57986AE070E080E0C9
:103A300090E00E94AC2D4FE268EACE010E94351C56
:103A400044E16DE8CE010E94351C0E94241C81EAED
:103A50008EBD0E942A1C0E94241C88EC8EBD0E94F0
:103A60002A1C4FE861E8CE010E94351C41EF69ED48
:103A7000CE010E94351C40E46BEDCE010E94351C46
:103A80000E94241C8FEA8EBD0E942A1CCE01DF9169
:103A9000CF910C94661C10921205109211058BEFB9
:103AA00092E09093100580930F0508952091600592
:103AB0003091610528173907B9F490911E0580915E
:103AC0001F05981789F0E0911E05F0E0E05EFA4FBF
:103AD000808120911E0530E02F5F3F4F2F733327E9
:103AE00020931E0590E008958FEF9FEF08951F9398
:103AF000CF93DF93DC015C968D919C915D9700974D
:103B000049F481E090E013969C938E93129780E0A5
:103B100090E03BC05196ED91FC91529750962C91BC
:103B20005097322F30951FB75E964C915E9741FBB0
:103B3000772770F941FD6095F8944081772311F063
:103B4000422B01C043234083EC012197F1F748E069
:103B5000508160FF02C0522B01C053235083EC01FF
:103B60002197F1F76695415099F78081772311F0FD
:103B7000832301C0822B80831FBF5C968D919C9113
:103B80005D970197F1F781E090E0DF91CF911F9170
:103B9000089520916005309161052817390781F457
:103BA00090911E0580911F05981751F0E0911E0518
:103BB000F0E0E05EFA4F8081992787FD90950895A7
:103BC0008FEF9FEF089520916005309161052817D0
:103BD000390771F480911F0520911E0590E0805CEB
:103BE0009F4F821B910960E470E00E945334089556
:103BF00080E090E0089520916005309161052817DC
:103C0000390739F48FB7F89410921F0510921E05EA
:103C10008FBF0895E0916005F0916105E817F907FD
:103C200069F4A389B4899C918589809589238C93B3
:103C3000109261051092600581E0089580E008957A
:103C4000CF93DF93EC018A8D9B8D892BF1F08091CE
:103C50006005909161058C179D07B9F0009711F0F0
:103C60000E940A1E8E8D8E7F8E8F10921F051092DD
:103C70001E05D0936105C0936005EB89FC898081A6
:103C80009D89892B808381E001C080E0DF91CF9105
:103C900008951F920F920FB60F9211242F933F9306
:103CA0004F935F936F937F938F939F93AF93BF9344
:103CB000EF93FF93E0916005F0916105309709F46F
:103CC00051C0868DA685B785958581FF04C08C91EE
:103CD000892329F447C08C91892309F043C0A38923
:103CE000B4899C918589809589238C93868997894D
:103CF0000197F1F7208D318DA685B785758558E040
:103D000040E0C9010197F1F7842F90E095958795E0
:103D1000482F6C91672309F04068515091F7868DC8
:103D200081FD409580911F0590E001968F73992742
:103D300020911E05281749F0A0911F05B0E0A05E54
:103D4000BA4F4C9380931F0503C0868D8160868F88
:103D5000828D938D0197F1F7A389B4898C91958910
:103D6000892B8C93FF91EF91BF91AF919F918F9190
:103D70007F916F915F914F913F912F910F900FBE67
:103D80000F901F90189523E033E0FC0131832083CE
:103D90000C940A1E1F93CF93DF93EC01162F6E8DA8
:103DA0006695617081E06827812F0E94712E61E025
:103DB000812F0E94382E812F90E0FC01EB5BF34FA6
:103DC000E491E88BFC01E75AF34FE491F0E0EE0F49
:103DD000FF1FE958F34F859194919A8B898BDF915E
:103DE000CF911F9108951F93CF93DF93EC01162F6E
:103DF00060E0812F0E94382E8E8D81FD04C061E02D
:103E0000812F0E94712E1C87812F90E0FC01EB5BBB
:103E1000F34FE491ED87FC01E75AF34FE491F0E0B2
:103E2000EE0FFF1FE359F34F859194919F878E8783
:103E3000DF91CF911F910895FF920F931F93CF931E
:103E4000DF93EC01F62E522F1B821A8208EE13E04C
:103E500020E030E00C831D832E833F8383E093E0DA
:103E6000998388831F8A1E8A198E188E1B8E1A8E3C
:103E70001D8E1C8E8E8D8E7F50FB81F98E8F642F50
:103E8000CE010E94CA1E6F2DCE01DF91CF911F91EE
:103E90000F91FF900C94F31ECF93DF93EC019A01E6
:103EA000AB011B8E1A8E198E188E1F8A1E8A60E037
:103EB00079E08DE390E00E948934C9012430310516
:103EC00020F0B9016350710902C061E070E07D8F9C
:103ED0006C8FEC85E63108F068C0B901769567957E
:103EE0006431710518F06351710902C061E070E03E
:103EF0007F8B6E8B069718F0C901059702C081E091
:103F000090E0998F888FC901880F991F820F931FA6
:103F100096958795969587958D30910510F00C971D
:103F200002C081E090E09B8F8A8F20916800E8308A
:103F300050F091E0EE3008F490E081E001C0880F8D
:103F40009A95EAF701C084E0822B809368002C8563
:103F5000283038F02E3040F0263148F48CE690E0DE
:103F600008C08DE690E005C08BE690E002C080E0DE
:103F700090E09C8B8B8B283030F481E001C0880F5F
:103F80002A95EAF70DC0822F90E02E3010F40897A2
:103F900001C00E9791E001C0990F8A95EAF7892F29
:103FA0008D8B8C8D9D8D0197F1F7CE01DF91CF9197
:103FB0000C94201E0C940A1EDC011C968D919C9181
:103FC0001D97DC01ED91FC910680F781E02D0994AD
:103FD000DC011C968D919C911D97DC01ED91FC916B
:103FE0000480F581E02D0994DC011C968D919C9153
:103FF0001D97DC01ED91FC910284F385E02D09947D
:10400000DC011C968D919C911D97DC01ED91FC913A
:104010000084F185E02D09942F923F924F925F9298
:104020006F927F928F929F92AF92BF92CF92DF92C8
:10403000EF92FF920F931F93CF93DF93CDB7DEB72D
:1040400060970FB6F894DEBF0FBECDBF2B013C01C9
:1040500069014A3021F5CE0101961C01E12CF12CB9
:104060005AE0852E912CA12CB12CC301B201A501DF
:1040700094010E9467349FEFE91AF90A80E3840DE6
:10408000EAE02E9F80191124F10181931F0121156F
:10409000310541055105C9F129013A01E6CFFE017B
:1040A000319680E090E0B301A2014F70552766275A
:1040B00077279C012F5F3F4F4A30510561057105FD
:1040C00010F4A0E301C0A1E44A0F419344E07694C8
:1040D0006794579447944A95D1F741145104610469
:1040E000710411F0C901DFCFE1E0F0E0EC0FFD1F3A
:1040F000E20FF31F48E740837C01F3E0EF0EF11C71
:10410000FE01E80FF91F20E3238321E0E21AF10802
:10411000F60180E090E0015011090196A1E0B0E0C5
:10412000AC0FBD1FAE0DBF1D2C9121931E141F049B
:10413000ECF0F601E80FF91F108260960FB6F894C4
:10414000DEBF0FBECDBFDF91CF911F910F91FF90CA
:10415000EF90DF90CF90BF90AF909F908F907F9027
:104160006F905F904F903F902F90089521E0E21A5A
:10417000F10880179107ECF6D0CFCF92DF92EF9243
:10418000FF920F931F93FC0140E060E070E0CB01D1
:104190000191002309F449C020ED200F2A30B0F42A
:1041A00014E0660F771F881F991F1A95D1F7605387
:1041B000710981099109C02EDD24C7FCD094ED2C32
:1041C000FD2C6C0D7D1D8E1D9F1DE2CF2FE9200F54
:1041D000263060F4B4E0660F771F881F991FBA95E8
:1041E000D1F767557109810991090FC02FEB200F95
:1041F0002630A8F4A4E0660F771F881F991FAA95A0
:10420000D1F76753710981099109112707FD1095AD
:10421000212F312F600F711F821F931FB9CF0837D5
:1042200021F4411102C041E0B3CF1F910F91FF90E3
:10423000EF90DF90CF9008950F931F93FC0160E003
:1042400070E0CB01019120ED200F2A30A0F4AAE00C
:10425000B0E09B01AC010E94AE346053710981094A
:104260009109112707FD1095212F312F600F711F24
:10427000821F931FE7CF1F910F910895DC01A95A68
:10428000BF4F2D913C911197FC01E75AFF4F4081A0
:1042900051812417350764F434970190F081E02DA3
:1042A000A9014F5F5F4F4D935C93E20FF31F608353
:1042B000FC01EC5BFF4F80819181DC01ED91FC9171
:1042C0000190F081E02D09948C5B9F4FDC018D9172
:1042D0009C91DC01ED91FC910284F385E02D099421
:1042E000DC011C968D919C911D97009739F0DC01A3
:1042F000ED91FC910190F081E02D099480E090E037
:1043000008952091730521110CC0FC01EC5BFF4F57
:1043100080819181DC01ED91FC910084F185E02D9B
:104320000994E0917405F0E0EA58FA4F80819927EA
:1043300087FD90950895DC01ED91FC910190F0814D
:10434000E02D09944F925F926F927F92AF92BF924D
:10435000CF92DF92EF92FF920F931F93CF93DF9351
:10436000EC015B016A010E947D2D2B013C01E12CD7
:10437000F12C8E010C5B1F4F0E947D2D6419750975
:10438000860997096C157D058E059F05A0F5D80156
:104390008D919C91DC01ED91FC910480F581E02DE3
:1043A00009951816190644F7F80180819181DC01FE
:1043B000ED91FC910680F781E02D0995F501808350
:1043C000DE01A95ABF4F2D913C911197FE01E75A8A
:1043D000FF4F40815181241735077CF4CB5ADF4FC2
:1043E000E881F981A9014F5F5F4F4D935C93E20F24
:1043F000F31F808302C080E001C081E0DF91CF9194
:104400001F910F91FF90EF90DF90CF90BF90AF90F2
:104410007F906F905F904F900895EF92FF920F936F
:104420001F93CF93DF931F92CDB7DEB78C017B0133
:10443000A701BE016F5F7F4FC8010E94A2218111B9
:10444000F7CF0F90DF91CF911F910F91FF90EF90D9
:104450000895FF920F931F93CF93DF938C01909158
:104460007305992309F1442321F06F5F7F4F81E0A9
:1044700001C080E020917405820FFB01BF01382F3D
:10448000321B3917A8F434913323C1F1893010F469
:10449000A82F01C0A0E031968F5FB0E0AA58BA4FB4
:1044A0004C91431759F340C0411102C06F5F7F4FD9
:1044B000FB01F490EB0121966091750570E06A585C
:1044C0007A4F44EF51E0C8010E94A2218091750506
:1044D000E82FF0E0EA58FA4F2081909173058F5F42
:1044E0002F1114C08830E8F4809375059F5F909376
:1044F0007305FE01F4902196F110DECF1092730542
:10450000109274051092750581E00FC0883018F480
:104510008093750502C0109275059F5F9093730597
:1045200003C010927505E2CF80E0DF91CF911F911B
:104530000F91FF900895CF93DF93EC01462F65EB29
:104540007AE00E942922882319F01CAE81E001C084
:1045500080E0DF91CF910895CF93DF93EC018091BC
:104560007305882381F0E091740591E09E0F90938C
:104570007405F0E0EA58FA4F208130E0983068F195
:10458000109274052AC0FE01EC5BFF4F808191817F
:10459000DC01ED91FC910680F781E02D09959C01ED
:1045A0008CAD8823E9F02A323105D1F460E0CE01E8
:1045B0000E949B22811116C0E091740581E08E0F4C
:1045C00080937405F0E0EA58FA4F208130E088309B
:1045D00010F01092740580917305815080937305DB
:1045E000C90102C08FEF9FEFDF91CF910895CF9364
:1045F000DF93EC01462F6EEA7AE00E94292288239D
:1046000019F081E08CAF01C080E0DF91CF91089577
:10461000EF92FF920F931F93CF93DF938C01EC01E6
:10462000CC5BDF4F88819981DC01ED91FC910480A6
:10463000F581E02D09957C01181619065CF5888135
:104640009981DC01ED91FC910084F185E02D0995C3
:104650008A9701F5F80184AD61E0882331F0C80143
:104660000E949B22882321F012C0C8010E94F722D9
:104670000091730510E088819981DC01ED91FC9136
:104680000480F581E02D0995800F911F09C08FEFFF
:104690009FEF06C080917305F701E80FF11DCF0170
:1046A000DF91CF911F910F91FF90EF900895CB0173
:1046B00063E675E00E944D3721E0892B09F420E084
:1046C000822F08958F929F92AF92BF92CF92DF92E6
:1046D000EF92FF920F931F93CF93DF931F92CDB76B
:1046E000DEB76C017B015A016115710529F1FB01EF
:1046F0008081882309F18B014B01FFEF8F1A9F0AFC
:10470000A501BE016F5F7F4FC6010E94A2218823D1
:10471000A1F08981F8019081891303C00F5F1F4FB9
:1047200007C0F7019081891302C0840101C087018D
:10473000F80180818111E4CF81E00F90DF91CF916A
:104740001F910F91FF90EF90DF90CF90BF90AF90AF
:104750009F908F9008957F928F929F92AF92BF9279
:10476000CF92DF92EF92FF920F931F93CF93DF933D
:104770001F92CDB7DEB76C017B015A01FB0174902B
:104780007720B9F08B014B01FFEF8F1A9F0AA5012B
:10479000BE016F5F7F4FC6010E94A2218823C1F036
:1047A0002981271108C00F5F1F4FF8017490711005
:1047B000EECF81E00DC0F7018491332727FD3095BE
:1047C00090E02817390711F48401EFCF8701EDCF6E
:1047D0000F90DF91CF911F910F91FF90EF90DF909D
:1047E000CF90BF90AF909F908F907F9008954F9201
:1047F0005F926F927F929F92AF92BF92CF92DF9221
:10480000EF92FF920F931F93CF93DF931F92CDB739
:10481000DEB77C01962EA72EB42E69014DB65EB68A
:10482000242F30E0C901880F991F820F931F2DB7E5
:104830003EB7281B390B0FB6F8943EBF0FBE2DBFF5
:104840008DB79EB701963C01E62FF72FDC0120E0E3
:104850002B1559F11C928191919112969C938E93F4
:1048600011972F5F1396F4CF1196ED91FC9112974B
:104870004491941781F1F80160817181FB014491A9
:1048800050E02417350731F112967C936E931197FF
:104890001196ED91FC911297E49113960E5F1F4FC4
:1048A000EE23F9F08F5F8B11DFCFA601BE016F5FA2
:1048B0007F4FC7010E94A221811102C08FEF11C05A
:1048C0009981292F332727FD3095092D1A2DD301E2
:1048D00080E0E9CFFB0131961296FC93EE9311979D
:1048E000D7CF0FB6F8945EBE0FBE4DBE0F90DF91CE
:1048F000CF911F910F91FF90EF90DF90CF90BF90DD
:10490000AF909F907F906F905F904F900895CF935E
:10491000DF93EC018D85882391F064E97AE0CE0184
:104920000E94833144EF51E06DE87AE0CE010E94AD
:10493000AB23882311F01D8602C080E001C081E016
:10494000DF91CF9108955F926F927F928F929F92A5
:10495000AF92BF92CF92DF92EF92FF920F931F938D
:10496000CF93DF931F92CDB7DEB76C017B01390186
:1049700000E010E04A0182E0881A91085A0181E0C3
:10498000A81AB108A301BE016F5F7F4FC6010E9444
:10499000A221882309F440C059808DE058122DC00F
:1049A000A301BE016F5F7F4FC6010E94A2218981D2
:1049B0008A3041F4E114F104B9F1F701E00FF11F7D
:1049C000108232C0E114F104C1F00815190564F435
:1049D000F8013196D701A00FB11F5C920E5F1F4FF7
:1049E000EE0DFF1D808309C00A151B0534F4F70185
:1049F000E00FF11F50820F5F1F4F0A151B0514F6C1
:104A0000E114F10409F4BECFF701E00FF11F898131
:104A100080830F5F1F4FB6CFE114F10439F0F70127
:104A2000E00FF11F108203C0C80102C080E090E0D7
:104A30000F90DF91CF911F910F91FF90EF90DF903A
:104A4000CF90BF90AF909F908F907F906F905F902E
:104A50000895CF92DF92EF92FF920F931F93CF931F
:104A6000DF931F92CDB7DEB78C0144EF51E0BE015A
:104A70006F5F7F4FC8010E94A2218823A9F089811E
:104A80008C3399F78093630554E6E52E55E0F52EB7
:104A9000DD24D39444EF51E0BE016F5F7F4FC80126
:104AA0000E94A221811102C080E035C0CC24C394B1
:104AB000CD0C8981F70181937F018E3339F544EF65
:104AC00051E0BE016F5F7F4FC8010E94A221882381
:104AD00059F38981803241F7AC2DB0E0AD59BA4F1E
:104AE0008C93D394D394ED2DF0E0ED59FA4F1082CE
:104AF00081E08093620524EF31E040E050E060E027
:104B000070E0C8010E94A32481E005C0FCE0CF163C
:104B100059F2DC2CBFCF0F90DF91CF911F910F91F5
:104B2000FF90EF90DF90CF900895AB012091620548
:104B3000211102C00C94292563E675E00C946223D0
:104B4000FF920F931F93CF93DF93EC018D8581111B
:104B50006FC06AEF70E080E090E00E94AC2D6AEADE
:104B60007AE0CE010E9483316AEF70E080E090E04D
:104B70000E94AC2D44EF51E064EA7AE0CE010E943D
:104B8000AB23811116C0FE01EC5BFF4F8081918148
:104B9000DC01ED91FC910190F081E02D6DE0099533
:104BA00064EF71E0CE010E94952581113AC015E0B5
:104BB0001EC080916205811134C065E0F62E8E0121
:104BC0000C5B1F4FF80180819181DC01ED91FC911C
:104BD0000190F081E02D6DE0099564EF71E0CE0168
:104BE0000E94952581111DC0FA9461F7CCCF6AEF20
:104BF00070E080E090E00E94AC2D60EA7AE0CE01A7
:104C00000E9483316AEF70E080E090E00E94AC2D5A
:104C100044EF51E06AE97AE0CE010E94AB23882399
:104C200019F081E08D8705C0115009F780E001C0BF
:104C300081E0DF91CF911F910F91FF900895FC01CA
:104C40002389348921503109348B238B232B11F490
:104C50000C94872481E00895FC0186850895CF9205
:104C6000DF92EF92FF920F931F93CF93DF9300D0C9
:104C700000D0CDB7DEB77C018B016A0182E49AE0F7
:104C80009A8389838CE39AE09C838B8324EF31E0C1
:104C900042E0BE016F5F7F4FC7010E94F723813062
:104CA00091F0811108C024EF31E0A601B801C701DD
:104CB0000E94A32406C0A60162E37AE0C8010E9414
:104CC000FD3680E001C081E00F900F900F900F90B3
:104CD000DF91CF911F910F91FF90EF90DF90CF90D8
:104CE0000895CF93DF93EC0166E379E00E9483316E
:104CF00064E670E0CE010E940D221FAE81E0DF91DC
:104D0000CF910895AF92BF92CF92DF92EF92FF9230
:104D10000F931F93CF93DF93CDB7DEB760970FB696
:104D2000F894DEBF0FBECDBF5C016A017B0100E1DC
:104D300010E09E012F5F3F4F4AE0C701B6010E947D
:104D40000C20C5010E940C2700E020E030E0AE01FD
:104D50004F5F5F4F6EE279E0C5010E943B298823D7
:104D600051F0C5010E941F26F501C786D08AE18A4D
:104D7000F28A81E004C0C5010E941F2680E060968F
:104D80000FB6F894DEBF0FBECDBFDF91CF911F915C
:104D90000F91FF90EF90DF90CF90BF90AF9008956C
:104DA000CF93DF93EC018E85882399F11E866FE601
:104DB0007AE0CE010E948331CE010E94A02540E11D
:104DC00057E26BE67AE0CE010E94AB2381110CC062
:104DD0004F85588969897A89CE010E948226CE0141
:104DE000DF91CF910C941F2668EE73E080E090E095
:104DF0000E94AC2D4F85588969897A89CE010E941D
:104E00008226CE010E941F26CE01DF91CF910C9405
:104E1000CC29DF91CF910895CF93DF93EC010E94CD
:104E2000D0268D85882339F08B899C8901969C8BAF
:104E30008B8B81E005C0CE010E94A0258111F4CFAB
:104E4000DF91CF910895CF92DF92EF92FF920F936F
:104E50001F93CF93DF93EC018B016A0179010E94CC
:104E60000C27882351F1000F111F000F111F075C41
:104E70001C4FF80160817181CE010E948331F801DD
:104E80006281738144EF51E0CE010E94AB238823FD
:104E900089F024EF31E0A701B601CE010E94A324DE
:104EA00064EF71E0CE010E949525CE010E941F267D
:104EB000C60105C0CE010E941F268FE093E0DF915E
:104EC000CF911F910F91FF90EF90DF90CF900895B9
:104ED000CF93DF93D62FC72F9A01462F572F60E02D
:104EE00070E00E942327892B49F0ED2FFC2FDF0172
:104EF0008191882329F08A33D1F702C0AD2FBC2FCE
:104F00001C928D2F9C2FDF91CF910895CF93DF932B
:104F1000CDB7DEB766970FB6F894DEBF0FBECDBF34
:104F200026E130E0AE014F5F5F4F60E070E00E942D
:104F30002327892BC1F080E0E1E0F0E0EC0FFD1FBA
:104F4000E80FF11D9081992319F08F5F9A33A1F733
:104F500021E030E02C0F3D1F280F311DC9010E94B8
:104F60001C21CB0102C080E090E066960FB6F89459
:104F7000DEBF0FBECDBFDF91CF9108959A01AB0187
:104F800063E070E00C9423279A01AB0164E070E0C9
:104F90000C9423271F93CF93DF93CDB7DEB72B97C6
:104FA0000FB6F894DEBF0FBECDBF142F2BE030E05C
:104FB000AE014F5F5F4F0E942327892B51F0CE0136
:104FC00001961A3019F40E941C2106C00E94BD20CF
:104FD00003C060E070E0CB012B960FB6F894DEBF03
:104FE0000FBECDBFDF91CF911F91089540E16BE1DE
:104FF00070E00E94CA27862F0895CF93DF93CDB724
:10500000DEB760970FB6F894DEBF0FBECDBF20E1CC
:1050100030E0AE014F5F5F4F6CE070E00E942327ED
:10502000892BE1F143E050E06FE57AE0CE01019693
:105030000E94EF36892B51F142E050E06CE57AE0B6
:10504000CE0101960E94EF36892B11F146E050E027
:1050500065E57AE0CE0101960E94EF36892BD1F00A
:1050600045E050E06FE47AE0CE0101960E94EF3611
:10507000892B91F046E050E068E47AE0CE01019699
:105080000E94EF36892B51F484E009C080E007C00C
:1050900081E005C082E003C083E001C08FEF60962D
:1050A0000FB6F894DEBF0FBECDBFDF91CF9108954C
:1050B000EF92FF920F931F93CF93DF93CDB7DEB79D
:1050C00060970FB6F894DEBF0FBECDBF8C010E9473
:1050D0000C27882309F467C065E87AE0C8010E94BC
:1050E000833124EF31E040E150E0BE016F5F7F4F3C
:1050F000C8010E94A3247C01BE016F5F7F4FC801DD
:105100000E945723882361F024EF31E040E150E012
:10511000BE016F5F7F4FC8010E94A3247C0105C0C0
:1051200064EF71E0C8010E94952525E0E216F104C4
:105130001CF4CE01019608C0C7010497E1E0F0E03D
:10514000EC0FFD1F8E0F9F1F0E94BD20F62EE72E35
:10515000862F8F70F80186AFF4FA882780F987AF21
:10516000E05CFF4FF5FA882780F980833196F6FAE4
:10517000882780F980833196F7FA882780F9808321
:105180008E2D86958F7031968083C8010E941F26D0
:10519000F80186AD813011F484AF02C0F80114AE7D
:1051A0008F2D9E2D02C080E090E060960FB6F8949F
:1051B000DEBF0FBECDBFDF91CF911F910F91FF904A
:1051C000EF900895AF92BF92CF92DF92EF92FF924D
:1051D0000F931F93CF93DF931F92CDB7DEB78C0150
:1051E0007B016A0159010E940C278823B9F163E60B
:1051F0007AE0C8010E948331B701C8010E94B4312E
:105200006CE972E0C8010E94B43148E853E1B7018B
:10521000C8010E9462238823C9F044EF51E0BE0117
:105220006F5F7F4FC8010E94A22124EF31E0A501EA
:10523000B601C8010E94A32464EF71E0C8010E9476
:105240009525C8010E941F2681E009C064EF71E026
:10525000C8010E949525C8010E941F2680E00F907A
:10526000DF91CF911F910F91FF90EF90DF90CF9042
:10527000BF90AF900895AF92BF92CF92DF92EF921E
:10528000FF920F93CF93DF93CDB7DEB762970FB640
:10529000F894DEBF0FBECDBF7C015A016901698B56
:1052A0007A8B0E940C2769897A89882309F463C064
:1052B000C7010E948331C114D10419F160E2C70112
:1052C0000E949B210023C1F0570184E5A80EB11C68
:1052D000F60164916623C1F1D701ED91FC91019033
:1052E000F081E02D603211F4D5016C91C701099570
:1052F000BFEFCB1ADB0AECCFB601C7010E948331A6
:1053000023C0A114B10401F160E2C7010E949B21F6
:105310000023B1F06701F4E5CF0ED11CF5016191D6
:105320005F01662389F0D701ED91FC910190F08136
:10533000E02D603211F4D6016C91C7010995EECFD2
:10534000B501C7010E94B4316DE0C7010E949B21E5
:1053500040E150E0BE016F5F7F4FC7010E942F26E2
:10536000082F64EF71E0C7010E949525C7010E94D4
:105370001F26802F01C080E062960FB6F894DEBF32
:105380000FBECDBFDF91CF910F91FF90EF90DF90D7
:10539000CF90BF90AF9008950F93CF93DF93EC0120
:1053A00019AE18AE188E00E020E030E040E050E08A
:1053B00061EE7AE00E943B2920E030E040E050E0DE
:1053C0006EEC7AE0CE010E943B2920E030E040E024
:1053D00050E06CEB7AE0CE010E943B29CE010E94A6
:1053E0005828CE010E94FD278B7F91E009F490E0C0
:1053F0009D8BCE010E94F627CC5ADF4F8883DF9128
:10540000CF910F910895CF93DF93EC01FC01EC5BFA
:10541000FF4F718360830E94A025882341F0CE0155
:105420000E94CC29CE01DF91CF910C94872480E09B
:10543000DF91CF910895CF92DF92EF92FF920F9379
:105440001F93CF93DF93CDB7DEB72B970FB6F894AA
:10545000DEBF0FBECDBF7C016B01CA01B901402F79
:105460000BE010E09E012F5F3F4F0E940C2000E0F8
:1054700020E030E0AE014F5F5F4FB601C7010E94F0
:105480003B292B960FB6F894DEBF0FBECDBFDF9140
:10549000CF911F910F91FF90EF90DF90CF900895E3
:1054A0000F939B0140E050E00AE064EF79E00E9436
:1054B0001B2A0F9108950F93262F30E040E050E013
:1054C00000E162EB79E00E941B2A0F9108950C9491
:1054D0005B2A0F93262F30E040E050E000E165EAC0
:1054E00079E00E941B2A0F9108950F9300E020E0BD
:1054F00030E040E050E067E879E00E943B290F91FE
:1055000008950F93AB0101E020E030E069E779E016
:105510000E943B290F9108950F931F93CF93DF9320
:10552000EC01AB01FB0181818F7D883511F44E5F69
:105530005F4F00E020E030E06CE679E0CE010E94B1
:105540003B29182FCE010E94752A812FDF91CF9120
:105550001F910F9108950F931F93CF93DF93EC0149
:10556000AB0101E020E030E06CE579E00E943B29EE
:10557000182FCE010E94752A812FDF91CF911F91A4
:105580000F9108951F93CF93DF93EC010E940C2796
:105590008823D9F06CE27AE0CE010E94833144EF97
:1055A00051E064E27AE0CE010E94AB23882339F017
:1055B00064EF71E0CE010E94952511E001C010E07A
:1055C000CE010E941F26812F01C080E0DF91CF9184
:1055D0001F910895CF93DF93EC010E940C2788233D
:1055E00001F16CE17AE0CE010E94833144EF51E099
:1055F00063E17AE0CE010E94AB23811104C0CE01A9
:105600000E941F260EC068E873E180E090E00E94CF
:10561000AC2D1D861C8A1B8ACE010E94CC2981E0FC
:1056200001C080E0DF91CF910895CF92DF92EF9299
:10563000FF920F931F93CF93DF9300D000D0CDB78D
:10564000DEB78C017B016A0185E599E09A83898345
:1056500089E499E09C838B83C8010E940C278823EE
:1056600009F444C063E479E0C8010E948331E11485
:10567000F10421F0B701C8010E94B43161E479E07E
:10568000C8010E948331960142E0BE016F5F7F4FE7
:10569000C8010E94F723F82E64E670E0C8010E945A
:1056A0000D2281E0F8121FC0F801F7AE858988232A
:1056B00061F048E95AE36DE379E0C8010E94AB2349
:1056C00064E670E0C8010E940D2224EF31E040E062
:1056D00050E060E070E0C8010E94A324C8010E946D
:1056E0001F2681E004C0C8010E941F2680E00F90A1
:1056F0000F900F900F90DF91CF911F910F91FF901E
:10570000EF90DF90CF9008950F931F93CF93DF9387
:10571000CDB7DEB7C054D1090FB6F894DEBF0FBEC7
:10572000CDBF8C0140E450E0BE016F5F7F4F0E940F
:10573000C42740E25EE4BE016F5F7F4FC8010E9454
:10574000152BC05CDF4F0FB6F894DEBF0FBECDBF88
:10575000DF91CF911F910F910895CF93DF93EC01CB
:10576000E881F9810480F581E02D09958CADDF9108
:10577000CF910895CF93DF93EC018CAD882361F135
:1057800064EF71E0CE010E940D22CE010E940C2731
:105790006BE079E0CE010E94833144EF51E064E098
:1057A00079E0CE010E94AB23882329F0CE010E942C
:1057B0001F261CAE11C06BEE78E0CE018A5B9F4FB6
:1057C0000E94C131CE010E945828CE010E941F269E
:1057D0008CAD91E0892701C081E0DF91CF910895E0
:1057E000BF92CF92DF92EF92FF920F931F93CF93CE
:1057F000DF93CDB7DEB765970FB6F894DEBF0FBE67
:10580000CDBF7C016B018A01B22EFC0185AD8111F7
:1058100068C0C7010E940C27F70184AD882319F0E6
:10582000C7010E94BA2BB80180E090E004E110E0CB
:105830009E012F5F3F4F4AE00E940C2068E279E012
:10584000C7010E948331B601C7010E94B43167E1EC
:1058500073E0C7010E94B431BE016F5F7F4FC70183
:105860000E94B43166E279E0C7010E94833164EF9F
:1058700071E0C7010E949525811101C0FFCFB110D1
:1058800004C081E0F70185AF2DC040E157E2BE01C1
:105890006B5E7F4FC7010E94A2218823F9F08D899A
:1058A0008A3271F0833489F7898324EF31E043E150
:1058B00050E0BE016E5F7F4FC7010E94A3240EC05F
:1058C00044EF51E060E279E0C7010E94AB238823F6
:1058D00029F081E0F70184AF158604C0C7010E945A
:1058E0001F2680E065960FB6F894DEBF0FBECDBFD1
:1058F000DF91CF911F910F91FF90EF90DF90CF90AC
:10590000BF900895CF93DF93EC0164EF71E00E94A4
:105910000D22CE010E940C2764EE78E0CE010E9499
:10592000833144EF51E06DED78E0CE010E94AB236E
:10593000882331F0CE010E941F261CAE81E00BC0EF
:10594000CE010E941F2664EC78E0CE018A5B9F4F57
:105950000E94C13180E0DF91CF910895FC01138254
:10596000128248EE53E060E070E044835583668322
:1059700077838DE293E09183808315861486089562
:10598000CF93DF93EC011B821A8248EE53E060E074
:1059900070E04C835D836E837F838DE193E0998318
:1059A0008883CE018A5B9F4F0E94AE2C1D861E8687
:1059B0001C8A1B8A1CAE1DAE81E08D8B8E8BFE0176
:1059C000EB5AFF4F11821082329611821082C75A11
:1059D000DF4F19821882DF91CF9108950F9300E075
:1059E00020E040E060E08EE795E00E942A310F91D0
:1059F00008950F93CF93DF93EC016115710531F496
:105A0000CE010E940C27882359F00CC09B0140E076
:105A100050E00AE068E77AE00E941B2A8111F0CF8B
:105A200080E012C083E995E00E944A2F64EF71E0A4
:105A300080E090E00E94AC2D61E77AE0CE010E9408
:105A400083311D8681E08E87DF91CF910F9108957C
:105A50000F9300E020E040E060E084E895E00E94E1
:105A60002A310F9108951F920F920FB60F921124B1
:105A70002F933F938F939F93AF93BF9380918B0509
:105A800090918C05A0918D05B0918E0530918A057D
:105A900023E0230F2D3720F40196A11DB11D05C071
:105AA00026E8230F0296A11DB11D20938A0580933D
:105AB0008B0590938C05A0938D05B0938E058091F6
:105AC0008F0590919005A0919105B0919205019656
:105AD000A11DB11D80938F0590939005A093910512
