:100000000C94B0070C94D8070C94D8070C948E1B52
:100010000C948E1B0C948E1B0C94D8070C94D80750
:100020000C94D8070C94D8070C94D8070C94D807D4
:100030000C94D8070C94D8070C94D8070C94D807C4
:100040000C94D42A0C94D8070C94F62D0C94282EDA
:100050000C94D8070C94D8070C94D8070C94D807A4
:100060000C94D8070C94D8076572726F723A20729C
:10007000656D6F7465206D6F64656D2069732069AF
:100080006E20636F6D6D616E64206D6F64652E0010
:10009000494E434F4D494E470A43414C4C00434F54
:1000A0004E4E454354494E4720544F2053595354C4
:1000B000454D2E00434F4E4E45435420256400527B
:1000C000494E47004552524F52004F4B0041757404
:1000D0006F73746172743A20003A000A0D4E4F201B
:1000E000434152524945520A0D004F4B0057696631
:1000F000693A256C640A0A4336343A20256C640058
:10010000576966693A256C640A0A4336343A2025F1
:100110006C640A0A5254533A20256C64002A2A2A35
:10012000205465726D696E616C204D6F6465202886
:10013000446562756729202A2A2A00436F6E6E651E
:100140006374204661696C65642100436F6E6E655F
:100150006374656420746F20257300436F756C644D
:10016000206E6F74207265736F6C766520444E53F9
:100170002E2020436F6E6E656374204661696C6546
:100180006421000A436F6E6E656374696E67207444
:100190006F20257300535349440A0A2573004950C0
:1001A0002041646472657373200A2573004261758F
:1001B0006420526174650A0A2564004669726D778D
:1001C0006172650A0A2573004669726D776172650E
:1001D0003A202020200057692D4669205353494476
:1001E0003A202000495020416464726573733A20BC
:1001F00020004D414320416464726573733A2000CE
:100200004153434949204D6F646500436F6D6D6FE5
:10021000646F72652057692D4669204D6F64656D66
:1002200020486179657320456D756C6174696F6EE6
:100230000057692D4669204661696C656421005745
:10024000692D4669204F4B210057692D4669204989
:100250006E69742E2E2E00256C6400426175640A4E
:10026000646574656374696F6E00050800FF0C4B6C
:1002700000000000003E5B4F5B3E3E6B4F6B3E1C40
:100280003E7C3E1C183C7E3C181C577D571C1C5E57
:100290007F5E1C00183C1800FFE7C3E7FF0018242E
:1002A0001800FFE7DBE7FF30483A060E26297929D8
:1002B00026407F050507407F05253F5A3CE73C5A0D
:1002C0007F3E1C1C08081C1C3E7F14227F22145FEA
:1002D0005F005F5F06097F017F006689956A606045
:1002E00060606094A2FFA29408047E040810207E3F
:1002F000201008082A1C08081C2A08081E101010C4
:10030000100C1E0C1E0C30383E3830060E3E0E0609
:10031000000000000000005F00000007000700145C
:100320007F147F14242A7F2A12231308646236491B
:100330005620500008070300001C22410000412203
:100340001C002A1C7F1C2A08083E08080080703008
:100350000008080808080000606000201008040277
:100360003E5149453E00427F40007249494946217D
:1003700041494D331814127F1027454545393C4AF1
:100380004949314121110907364949493646494908
:10039000291E000014000000403400000008142250
:1003A00041141414141400412214080201590906BE
:1003B0003E415D594E7C1211127C7F494949363EBF
:1003C000414141227F4141413E7F494949417F09A5
:1003D0000909013E414151737F0808087F00417FB0
:1003E00041002040413F017F081422417F404040AE
:1003F000407F021C027F7F0408107F3E4141413E46
:100400007F090909063E4151215E7F0919294626C7
:100410004949493203017F01033F4040403F1F20CB
:1004200040201F3F4038403F6314081463030478A2
:1004300004036159494D43007F41414102040810C2
:1004400020004141417F04020102044040404040FD
:10045000000307080020545478407F28444438386B
:1004600044444428384444287F38545454180008DD
:100470007E090218A4A49C787F0804047800447DB7
:1004800040002040403D007F1028440000417F4054
:10049000007C047804787C080404783844444438A8
:1004A000FC1824241818242418FC7C080404084888
:1004B0005454542404043F44243C4040207C1C20D9
:1004C00040201C3C4030403C44281028444C909034
:1004D000907C4464544C440008364100000077008E
:1004E00000004136080002010204023C2623263C9B
:1004F0001EA1A161123A4040207A38545455592126
:10050000555579412154547841215554784020540F
:100510005579400C1E52721239555555593954545B
:10052000545939555454580000457C410002457DCA
:10053000420001457C40F0292429F0F0282528F0CC
:100540007C545545002054547C547C0A097F493220
:10055000494949323248484832324A4848303A419B
:1005600041217A3A42402078009DA0A07D39444440
:1005700044393D4040403D3C24FF2424487E4943CB
:10058000662B2FFC2F2BFF0929F620C0887E09033C
:1005900020545479410000447D413048484A323863
:1005A0004040227A007A0A0A727D0D19317D26298F
:1005B000292F28262929292630484D402038080887
:1005C000080808080808382F10C8ACBA2F102834BB
:1005D000FA00007B000008142A142222142A1408AE
:1005E000AA005500AAAA55AA55AA000000FF0010AB
:1005F0001010FF00141414FF001010FF00FF101063
:10060000F010F0141414FC001414F700FF0000FFA5
:1006100000FF1414F404FC141417101F10101F1002
:100620001F1414141F00101010F0000000001F1001
:100630001010101F10101010F010000000FF10100C
:1006400010101010101010FF10000000FF14000018
:10065000FF00FF00001F10170000FC04F414141723
:1006600010171414F404F40000FF00F71414141409
:10067000141414F700F7141414171410101F101F7B
:10068000141414F4141010F010F000001F101F00C8
:1006900000001F14000000FC140000F010F0101007
:1006A000FF10FF141414FF141010101F000000009E
:1006B000F010FFFFFFFFFFF0F0F0F0F0FFFFFF0092
:1006C00000000000FFFF0F0F0F0F0F3844443844A5
:1006D0007C2A2A3E147E02020606027E027E026305
:1006E000554941633844443C04407E201E200602A4
:1006F0007E020299A5E7A5991C2A492A1C4C720181
:10070000724C304A4D4D303048784830BC625A46C1
:100710003D3E494949007E0101017E2A2A2A2A2AB2
:1007200044445F444440514A444040444A5140009C
:1007300000FF0103E080FF000008086B6B08361221
:10074000362436060F090F060000181800000010A6
:1007500010003040FF0101001F01011E00191D178C
:1007600012003C3C3C3C0000000000636C6F736571
:100770003A206661696C65642C206E6F202A434CB8
:100780004F532A00636C6F73653A20676F74202A99
:10079000434C4F532A002A434C4F532A00636C6F3B
:1007A00073650D005465726D696E616C20726561D0
:1007B000647900556E657870656374656420726550
:1007C00073703A20004661696C656420746F206321
:1007D0006F6E6E6563743A20004F50454E2A006577
:1007E0006E61626C65486F7374526573746F726585
:1007F0003A2073746F7265642000302E302E302ED4
:10080000300073656E64746F3A206661696C65646C
:1008100020746F20737461727420636F6D6D616EEC
:1008200064003C74696D656F75743E00556E657843
:1008300070656374656420636861723A2000466184
:10084000696C656420746F20636F6E6E6563743AC3
:1008500020004F50454E2A005769466C7920686148
:1008600073206372617368656420616E64207769C8
:100870006C6C207265626F6F742E2E2E004661695B
:100880006C656420746F206765742070726F6D7082
:1008900074000D006F70656E20006F70656E200033
:1008A0003235352E3235352E302E30003136392E58
:1008B0003235342E312E310036342062797465732E
:1008C0000050696E67207472790070696E6720004D
:1008D00073657420752069006C656176650D00474D
:1008E000573D000D006A6F696E20004173736F639E
:1008F000696174656421004641494C454400736553
:1009000074206164686F632070726F626500736544
:1009100074206164686F6320626561636F6E007349
:10092000657420776C616E2074780073657420772D
:100930006C616E207261746500736574206F7074F1
:10094000207265706C6163650073657420776C61FB
:100950006E207068726173650073657420776C61D6
:100960006E206B65790073657420776C616E20630F
:1009700068616E0073657420776C616E20737369B3
:10098000640073657420776C616E2068696465200B
:1009900031007365742073797320696F66756E63B7
:1009A0000073657420636F6D6D2073697A650073E1
:1009B000657420636F6D6D206D617463680073658D
:1009C0007420636F6D6D2074696D6500302E302E5C
:1009D000302E30007365742062726F6164636173DE
:1009E0007420696E74657276616C0073657420752D
:1009F000617274206D6F6465007365742074696D35
:100A00006520656E61626C65007365742074696D44
:100A100065207A6F6E65007365742074696D65205A
:100A2000706F7274007365742074696D6520616401
:100A300064726573730073657420697020666C61FD
:100A40006773007365742069702070726F746F63D0
:100A50006F6C007365742069702064686370007344
:100A6000657420646E7320616464726573730073CF
:100A700065742069702067617465776179007365BA
:100A800074206970206E65746D61736B007365749A
:100A9000206970206E65746D61736B0053657448D6
:100AA0006F73743A206661696C656420746F20739B
:100AB0007461727420636F6D6D616E640073657430
:100AC0002069702072656D6F7465007365742069AC
:100AD0007020686F73740073657420697020686F8C
:100AE000737400736574206970206C6F63616C703F
:100AF0006F7274007365742069702061646472653C
:100B00007373007365742069702061646472657327
:100B1000730073657420776C616E206A6F696E0074
:100B2000736574206F206400736574206F20640007
:100B300053657420466163746F7279204465666101
:100B4000756C747300666163746F727920524553DB
:100B5000544F52450D002A5265626F6F742A00721D
:100B600065626F6F740D0053746F72696E67007306
:100B70006176650D003C74696D656F75743E004566
:100B800052523A2000414F4B0D0A004552523A2032
:100B90000053455256455200434143484500415594
:100BA000544F4950004F4E004F4646006C6F6F6BDC
:100BB0007570200074696D650D00736C6565700D4E
:100BC00000736574207379732077616B65006765C6
:100BD00074436F6E3A2054435020646973636F6EA0
:100BE0006E656374656400676574436F6E3A205484
:100BF000435020636F6E6E65637465640073686F45
:100C00007720630D00676574436F6E3A20666169F3
:100C10006C656420746F207374617274004661693E
:100C20006C656420746F20657869740A0D004558FE
:100C300049540D0A00657869740D00434D440D0A4E
:100C40000024242400434D440D0A0024242400736E
:100C5000657450726F6D7074206661696C656400B4
:100C60006D756C74694D617463685F503A20006DF6
:100C7000617463685F503A20007265616454696D05
:100C8000656F7574202D2074696D6564206F7574AF
:100C9000003A20003A200064656275672064756D33
:100CA0007000617661696C61626C653A207065659F
:100CB0006B203D20002A4F50454E2A002A434C4FBE
:100CC000532A004552524F52207065656B2E3220D8
:100CD000627566666572206F7665726C6F77004527
:100CE00052524F52207065656B2E312062756666D8
:100CF0006572206F7665726C6F77004661696C650E
:100D00006420746F206578697420636F6D6D616E07
:100D100064206D6F6465004661696C656420746F62
:100D200020656E74657220636F6D6D616E64206DF9
:100D30006F6465004661696C656420746F2073653B
:100D40007420636F6D6D2072656D6F7465007365DF
:100D50007420636F6D6D2072656D6F746520300057
:100D60004661696C656420746F207475726E206FC3
:100D7000666620737973207072696E74007365748F
:100D800020737973207072696E746C766C203000F9
:100D90004661696C656420746F207475726E206F93
:100DA0006666206563686F007365742075206D202A
:100DB00031005265706C6163653D005478506F7707
:100DC00065723D00526174653D004A6F696E3D0079
:100DD0005265626F6F743D0050726F62653D0042F4
:100DE0006561636F6E3D00676574206164686F6361
:100DF0000D0050524F544F3D00464C4147533D303B
:100E00007800525353493D282D0073686F77207244
:100E10007373690D00466C75736853697A653D009C
:100E20004D61746368436861723D00466C75736818
:100E300054696D65723D0067657420636F6D6D0D5B
:100E4000004D6F64653D005254433D0073686F77F9
:100E5000207420740D00416464726573733D0067F3
:100E6000657420646E730D0054696D653D005570A6
:100E700054696D653D0073686F772074696D650D09
:100E8000005A6F6E653D006765742074696D650D6D
:100E90000042617564726174653D00676574207518
:100EA0000D0044657669636549643D00676574209B
:100EB0006F70740D00535349443D0067657420778B
:100EC0006C616E0D004D616320416464723D00678A
:100ED0006574206D61630D00444843503D00484FE8
:100EE00053543D0047573D004E4D3D0049503D0095
:100EF0006765742069700D000000000800020100A1
:100F000000030407000000000000000001020408C4
:100F10001020408001020408102001020408102063
:100F2000040404040404040402020202020203038F
:100F30000303030300000000230026002900000033
:100F40000000250028002B000000000024002700DE
:100F50002A00BB0C901ABE2AC92A4E2ED72EF00C9E
:100F600011241FBECFEFD8E0DEBFCDBF14E0A0E05C
:100F7000B1E0EAE3F0E702C005900D92A234B107B8
:100F8000D9F726E0A2E4B4E001C01D92A63AB20768
:100F9000E1F71FE0CEE5DFE004C02297FE010E94EA
:100FA0005932C235D107C9F70E94B9150C941038CF
:100FB0000C940000CF92DF92EF92FF920F931F9359
:100FC000E82FF92F05C0015011092109310961F1FC
:100FD000908196239417B9F305C001501109210996
:100FE000310911F1908196239413F7CFC12CD12CA4
:100FF000E12CF12C0AC08FEFC81AD80AE80AF80AC7
:101000000C151D052E053F0579F080818623841778
:1010100091F36C2D7D2D8E2D9F2D1F910F91FF90A3
:10102000EF90DF90CF90089560E070E080E090E076
:101030001F910F91FF90EF90DF90CF9008950C9447
:101040001A37CF93DF93EC0160E089E795E00E94C7
:10105000D81940E060E089E795E00E94DA17BE0108
:1010600089E795E00E94742F89E795E0DF91CF91A1
:101070000C94E719CF93DF93EC0160E089E795E0EA
:101080000E94D81940E060E089E795E00E94DA17F5
:10109000BE0189E795E00E94862F89E795E0DF9100
:1010A000CF910C94E719CF93DF9300D000D000D0FC
:1010B000CDB7DEB72091EB04222399F0FC016081CB
:1010C0007181CE0101960E94B717BE016F5F7F4FFD
:1010D00084E595E00E94472FCE0101960E946F3073
:1010E00005C0BC0184E595E00E94472F26960FB607
:1010F000F894DEBF0FBECDBFDF91CF910895CF939F
:10110000DF9300D000D000D0CDB7DEB7BC01CE0158
:1011100001960E946131CE0101960E945308CE01D2
:1011200001960E946F3084E595E00E945E2F26961E
:101130000FB6F894DEBF0FBECDBFDF91CF910895FB
:101140000F931F93CF93DF9300D000D000D0CDB783
:10115000DEB78C01BC01CE0101960E946131CE0147
:1011600001960E947F08CE0101960E946F304AE0EE
:1011700060E2C8010E94DF31B801CE0101960E94F1
:101180006131CE0101960E942108CE0101960E9494
:101190006F3026960FB6F894DEBF0FBECDBFDF913D
:1011A000CF911F910F910895CF93DF9300D000D07E
:1011B00000D0CDB7DEB7BC018091EB04882381F06D
:1011C000CE0101960E94B717BE016F5F7F4F84E585
:1011D00095E00E94472FCE0101960E946F3004C017
:1011E00084E595E00E94552F26960FB6F894DEBF51
:1011F0000FBECDBFDF91CF9108950E94D40884E542
:1012000095E00C945E2FCF93DF93EC010E94FD08D4
:10121000CE01DF91CF910C943A0884E595E00C94CF
:101220005E2FCF93DF93CDB7DEB767970FB6F894F5
:10123000DEBF0FBECDBF0E940D098091EB04882355
:1012400089F087E1E2E9F2E0DE01119601900D926A
:101250008A95E1F7BE016F5F7F4F84E595E00E94BC
:10126000552F06C060E072E084E595E00E94242FCF
:101270000E940D0967960FB6F894DEBF0FBECDBF72
:10128000DF91CF910895883031F091E0843109F0F9
:1012900090E0892F089581E00895BF92CF92DF9268
:1012A000EF92FF920F931F93CF93DF93CDB7DEB7EB
:1012B000C457D1090FB6F894DEBF0FBECDBFB82E0C
:1012C00044E150E0BE01655A7F4F8EEF94E00E94EA
:1012D00057256E0187E4C80ED11C44E150E0B601E9
:1012E0008EEF94E00E9439257E0193E3E90EF11C14
:1012F00044E150E0B7018EEF94E00E945D250E942A
:101300000D0962EF71E08E010F5F1F4FC8010E944F
:101310009731C8010E945308C8010E946F30BE0176
:10132000655A7F4FC8010E94DD30C8010E947F08C6
:10133000C8010E946F3064EE71E0C8010E949731CD
:10134000C8010E945308C8010E946F30B601C8014D
:101350000E94DD30C8010E947F08C8010E946F30E2
:1013600066ED71E0C8010E949731C8010E945308E0
:10137000C8010E946F30B701C8010E94DD30C8016A
:101380000E947F08C8010E946F3068EC71E0C801BC
:101390000E949731C8010E945308C8010E946F3013
:1013A0006BEA72E0C8010E94DD30C8010E947F082C
:1013B000C8010E946F30BB2009F48BC08BEA92E019
:1013C0009F938F938BEB91E09F938F931F930F933A
:1013D0000E942635B801CE0181599F4F0E94DD3011
:1013E000CE0181599F4F0E942108CE0181599F4F04
:1013F0000E946F3068EE73E080E090E00E944D2B19
:1014000080910F018F9380910E018F938DEA91E06F
:101410009F938F931F930F930E942635B801CE019F
:1014200081599F4F0E94DD30CE0181599F4F0E940C
:101430002108CE0181599F4F0E946F3068EE73E002
:1014400080E090E00E944D2BDF92CF928EE991E0F8
:101450009F938F931F930F930E942635B801CE015F
:1014600081599F4F0E94DD30CE0181599F4F0E94CC
:101470002108CE0181599F4F0E946F3068EE73E0C2
:1014800080E090E00E944D2BFF92EF9285E991E081
:101490009F938F931F930F930E942635B801CE011F
:1014A00081599F4F0E94DD30CE0181599F4F0E948C
:1014B0002108CE0181599F4F0E946F3068EE73E082
:1014C00080E090E00E944D2B0FB6F894DEBF0FBE77
:1014D000CDBFCC58DF4F0FB6F894DEBF0FBECDBFE7
:1014E000DF91CF911F910F91FF90EF90DF90CF9000
:1014F000BF9008958091F60481110CC080910E0177
:1015000090910F01803C92412CF48091F70481115D
:1015100001C00895359907C08091B0008F7D8093F8
:10152000B0005B9AF7CF8091B0008F7D8093B000C0
:101530005B980895CF93DF93EC01E881F9810480F3
:10154000F581E02DCE010995892BB9F3E881F98168
:101550000680F781E02DCE01DF91CF9109948F9223
:101560009F92AF92BF92CF92DF92EF92FF92CF9372
:10157000DF93EC014B010E941E2B6B017C01A12C1F
:10158000B12CE881F9810480F581E02DCE01099527
:10159000892BC1F40E941E2B6C197D098E099F09AD
:1015A00086169706A806B90660F78FEF9FEFDF91C2
:1015B000CF91FF90EF90DF90CF90BF90AF909F9032
:1015C0008F900895E881F9810084F185E02DCE01A6
:1015D000DF91CF91FF90EF90DF90CF90BF90AF90D1
:1015E0009F908F900994EF92FF920F931F93CF9348
:1015F000DF9300D000D000D0CDB7DEB77C018B01E7
:101600000E940D0980910701882331F0B801CE01B5
:1016100001960E94973105C0B701CE0101960E9444
:10162000DD30CE0101960E947F08CE0101960E9416
:101630006F3089E795E00E945E2FB80189E795E059
:101640000E94622F89E795E00E94E71926960FB65F
:10165000F894DEBF0FBECDBFDF91CF911F910F91E8
:10166000FF90EF9008956AEC70E081E493E00C94B1
:10167000F30A64EC70E080EB92E00C94F30A81E5ED
:10168000E4E4F4E0DF011D928A95E9F7089581E032
:10169000809309011092EA041092E90480930801F2
:1016A000809307011092E8041092E6048BE2809385
:1016B00006011092E70408959091E704913019F023
:1016C00091E09827892F90E008950F931F93CF936F
:1016D000DF93CDB7DEB764970FB6F894DEBF0FBEC9
:1016E000CDBF80910F018F9380910E018F9384EB7A
:1016F00090E09F938F938E010F5F1F4F1F930F9367
:101700000E942635C8010E94030981E00E945C0BFB
:10171000682F82E10E94122C81E08093EA041092EB
:1017200009011092E9040F900F900F900F900F9005
:101730000F9064960FB6F894DEBF0FBECDBFDF9159
:10174000CF911F910F910895CF92DF92EF92FF9268
:10175000CF93C82F0E941E2B6B017C010E941E2B71
:10176000685B7B40810991096C157D058E059F059D
:1017700008F473C08C2F0E94482C892B79F720E441
:1017800032E44FE050E060E08C2F0E94712C6C300E
:10179000710581059105A4F16431710581059105FB
:1017A000A4F16D31710581059105A4F168327105CF
:1017B00081059105A4F16C33710581059105A4F1B2
:1017C0006035710581059105A4F1663971058105C2
:1017D0009105A4F16C3221E07207810591059CF11D
:1017E000683522E072078105910594F1603B7440F1
:1017F0008105910594F560EB74E080E090E030C0E5
:1018000060E072EC81E090E02BC060E071EE80E07F
:1018100090E026C060E076E980E090E021C060E8DA
:1018200070E780E090E01CC060E07BE480E090E046
:1018300017C060E478E380E090E012C060E875E2F1
:1018400080E090E00DC060EC72E180E090E008C0C4
:1018500060E679E080E090E003C060E070E0CB01FA
:10186000CF91FF90EF90DF90CF9008950F931F934B
:10187000CF93DF931F92CDB7DEB78C0169830E94AF
:101880001F086981861741F0C8010F90DF91CF9141
:101890001F910F910C9422370F90DF91CF911F91E0
:1018A0000F9108958093EB04682F80E090E00C94F2
:1018B000360CEF92FF920F931F93CF93DF937C012F
:1018C0008B01C0E0D0E0D801ED91FC91EC0FFD1F41
:1018D0006081CE018E0D9F1D0E9422372196C63257
:1018E000D10589F7DF91CF911F910F91FF90EF9074
:1018F0000895AF92BF92CF92DF92EF92FF920F9333
:101900001F93CF93DF93CDB7DEB7A8970FB6F894A8
:10191000DEBF0FBECDBF6C017B018E010F5F1F4F7D
:101920005E0187E2A80EB11CB801E01AF10AC701F6
:10193000800F911F6FA378A70E941F08F801819361
:101940008F016FA178A5EA15FB0589F7C6010E94F2
:10195000DD30C601A8960FB6F894DEBF0FBECDBF2E
:10196000DF91CF911F910F91FF90EF90DF90CF907B
:10197000BF90AF9008950F9300E020E040E060E05A
:1019800083E795E00E94CB2E20E046E065E084E509
:1019900095E00E94611C8EEF94E00E94902A62E321
:1019A00074E088EF94E00E94DD3041E020910E0168
:1019B00030910F0180910C0190910D01281739078A
:1019C00009F440E04093F70480E090E00E941F0893
:1019D00091E0811101C090E09093EB040F91089584
:1019E00088EF94E00E946F3084E595E00C94081C29
:1019F0000F931F93CF93DF93CDB7DEB72F970FB61B
:101A0000F894DEBF0FBECDBF81E080930901109234
:101A1000EA041092E90464EF71E080E090E00E9433
:101A20004D2B8BED90E09F938F938E010F5F1F4F97
:101A30001F930F930E942635C8010E9403098EEF61
:101A400094E00E949F200F900F900F900F900196AE
:101A500021F48EEF94E00E94552980E00E945C0BF7
:101A6000682F82E10E94122C2F960FB6F894DEBFE9
:101A70000FBECDBFDF91CF911F910F91089580913F
:101A8000E904811102C00C94F80C0C94650B81E000
:101A90008093E9048091E60481110C943F0D6FEB73
:101AA00070E082EB92E00E94F30A81E00E945C0BFE
:101AB000682F80E10E94122C439A6AEF70E080E068
:101AC00090E00E944D2B43980895CF93DF93CDB7BC
:101AD000DEB7E8970FB6F894DEBF0FBECDBF6DE15D
:101AE00071E08E010F5F1F4FC8010E949731C8013E
:101AF0000E947F08C8010E946F30412C512C320196
:101B0000C12CD12C7601312C80E0A82E81E0B82E9A
:101B10009DEE892E90E0992E8EEF94E00E949F20FA
:101B2000181619069CF46FEFC61AD60AE60AF60ACA
:101B30000E947A0A8EEF94E00E944420682F84E588
:101B400095E00E94BC1A33243394E6CF84E595E0F7
:101B50000E94281B181619068CF48FEF481A580A91
:101B6000680A780A84E595E00E949B1A682F8EEF38
:101B700094E00E94811E33243394E8CF9201A301A4
:101B8000332051F28091F60481110BC080910E0137
:101B900090910F01803C924124F48091F7048823B6
:101BA00099F01F921F921F921F925F934F933F9342
:101BB0002F93FF92EF92DF92CF92BF92AF921F933B
:101BC0000F930E9426350EC07F926F925F924F92C4
:101BD000FF92EF92DF92CF929F928F921F930F937B
:101BE0000E9426350FB6F894DEBF0FBECDBFB801F8
:101BF000CE01C3960E94DD30CE01C3960E9421081B
:101C0000CE01C3960E946F3087CF1F93CF93DF938F
:101C1000EC01162F6FEF8EEF94E00E94811ECD3FF6
:101C2000D10511F46DEF01C06BEF8EEF94E00E94CF
:101C3000811E612F8EEF94E0DF91CF911F910C9464
:101C4000811E1F93CF93DF93EC01162F6FEF8EEF62
:101C500094E00E94811ECD3FD10511F46CEF01C0CC
:101C60006EEF8EEF94E00E94811E612F8EEF94E064
:101C7000DF91CF911F910C94811E6FEF8EEF94E056
:101C80000E94811E6EEF8EEF94E00E94811E62E240
:101C90008EEF94E00E94811E6FEF8EEF94E00E9421
:101CA000811E6EEF8EEF94E00E94811E61E08EEF48
:101CB00094E00C94811ECF93DF9368E873E18EEF7C
:101CC00094E00E94AF0A8F3F910591F50E943D0E6E
:101CD00068EE73E08EEF94E00E94AF0A8F3F9105AB
:101CE00039F58EEF94E00E949A0A8EEF94E00E94FC
:101CF0009A0AEC018F3F2FEF920751F38B5F910906
:101D0000049730F78EEF94E00E949A0A8F3F2FEFEE
:101D10009207F1F28330910531F463E070E0CE0177
:101D20000E94050ED5CFBC01CE010E94210ED0CF5E
:101D3000DF91CF910895CF92DF92EF92FF921F93A0
:101D4000CF93DF9300D000D000D0CDB7DEB784E5CD
:101D500095E00E949B1A182F0E941E2B685E73400C
:101D600081099109C090EF04D090F004E090F10453
:101D7000F090F204C616D706E806F906D8F41B322E
:101D8000B9F48091F3049091F4048B32910531F011
:101D900081E08093F5048BE290E005C02091F5048A
:101DA0002F5F2093F5049093F4048093F3040CC008
:101DB0001092F5040E941E2B6093EF047093F004C0
:101DC0008093F1049093F2048091F5048330D9F468
:101DD00064EB72E0CE0101960E94DD30CE010196E7
:101DE0000E942108CE0101960E946F3081E080930D
:101DF000EE041092F5041092EF041092F004109289
:101E0000F1041092F204612F8EEF94E00E94811E83
:101E100026960FB6F894DEBF0FBECDBFDF91CF91EF
:101E20001F91FF90EF90DF90CF900895CF92DF92B7
:101E3000EF92FF920F931F93CF93DF93CDB7DEB74F
:101E4000C456D1090FB6F894DEBF0FBECDBFCE0188
:101E500001967C018EEF94E00E949F20019609F488
:101E60006CC08091F7048823F1F100E010E08EEF60
:101E700094E00E949F2018161906B4F48091B000D7
:101E80008F7D8093B0005B9A8EEF94E00E94442097
:101E9000F701E00FF11F80830F5F1F4F043611051C
:101EA00034F303E610E0E3CF6701C6018E199F0902
:101EB000801791078CF4F60161916F0184E595E03C
:101EC0000E94BC1A84E595E00E94281B181619068A
:101ED00064F70E949B0EF6CF8091B0008F7D8093B7
:101EE000B0005B9813C08EEF94E00E949F201816FC
:101EF000190664F40E947A0A8EEF94E00E9444204E
:101F0000682F84E595E00E94BC1AEDCF84E595E04A
:101F10000E94281B181619061CF40E949B0EF6CF6F
:101F20008EEF94E00E944829882329F08091EE04E6
:101F3000882309F48FCF1092EE048EEF94E00E9474
:101F40005529CC59DF4F0FB6F894DEBF0FBECDBF79
:101F5000DF91CF911F910F91FF90EF90DF90CF9085
:101F60000C94F80CBF92CF92DF92EF92FF920F93F6
:101F70001F93CF93DF93CDB7DEB7C854D1090FB607
:101F8000F894DEBF0FBECDBF7C016B01B42EFC0107
:101F900081818F9380818F9383E891E09F938F93CA
:101FA0008E010F5F1F4F1F930F930E942635C801AC
:101FB0000E943A0862E08EEF94E00E948B27F701BE
:101FC0006081718120E130E0AE014D5C5F4F8EEFAA
:101FD00094E00E948F250F900F900F900F900F901C
:101FE0000F9081110DC06BE571E0CE018D5B9F4FAD
:101FF0000E949731CE018D5B9F4F0E94A00832C096
:1020000021E0A601BE016D5C7F4F8EEF94E00E943F
:1020100095298823D9F0F70181818F9380818F934F
:102020008BE491E09F938F931F930F930E9426352B
:10203000C8010E943A080F900F900F900F900F90D8
:102040000F90B11015C00E945B0E12C06BE371E0DF
:10205000CE018D5B9F4F0E949731CE018D5B9F4FCC
:102060000E942108CE018D5B9F4F0E946F3004C0FB
:102070000E94650B0E94160FC85BDF4F0FB6F894E5
:10208000DEBF0FBECDBFDF91CF911F910F91FF90AB
:10209000EF90DF90CF90BF900895EF92FF920F9353
:1020A0001F93CF93DF93CDB7DEB72C970FB6F8947D
:1020B000DEBF0FBECDBF8C01BC01CE0107960E94D2
:1020C000DD30F8018081811103C00E94390B3DC0D1
:1020D0006AE370E0C8010E94CC340097C1F0FC01B3
:1020E00011927F01B801CE0101960E94DD30BE0140
:1020F0006F5F7F4FCE0107960E946A31CE01019635
:102100000E946F30C7010E9468348C0102C007E151
:1021100010E0BE01695F7F4F88EF94E00E944A3172
:1021200010930B0100930A01BE01695F7F4FCE013E
:1021300001960E94613140E0B801CE0101960E94F3
:10214000B20FCE0101960E946F30CE0107960E9419
:102150006F302C960FB6F894DEBF0FBECDBFDF9167
:10216000CF911F910F91FF90EF900895EF92FF9202
:102170000F931F93CF93DF93CDB7DEB7CC56D10922
:102180000FB6F894DEBF0FBECDBF809144048134FA
:1021900039F480914504843509F0F1C281E009C029
:1021A000813609F0ECC280914504843709F0E7C21A
:1021B00080E09091EB0489130E94520C64E474E077
:1021C00085E994E00E94E03404E414E07801F7012A
:1021D00001900020E9F73197E454F440C801845499
:1021E00094408E179F0758F4F8018081992787FD46
:1021F00090950E948E34F80181938F01E8CF64E4BA
:1022000074E0CE0101960E94DD30CE0101960E945D
:102210002108CE0101960E946F306CEB72E084E4DD
:1022200094E00E94D734892B19F40E94470BA3C273
:1022300060EC72E084E494E00E94D734892B21F4AE
:1022400080E00E944D0997C264EC72E084E494E05F
:102250000E94D734892B49F369EC72E084E494E05E
:102260000E94D734892B19F40E943F0D86C26DEC71
:1022700072E084E494E00E94D734892B41F061ED50
:1022800072E084E494E00E94D734892B41F4809179
:10229000EA04882309F4DAC1109209016EC244E00D
:1022A00050E065ED72E084E494E00E94E734892B0D
:1022B00099F580914804AC968FAFAC97AD961FAE60
:1022C000AD97CE0185599F4F0E94683401978930A0
:1022D000910508F0BBC128E2289FB001299F700D2D
:1022E00011246C597F4FCE018B599F4F0E94790C5E
:1022F000A7966EAD7FADA79748E250E0CE0101965C
:102300000E94F534CE018B599F4F0E946F30CE0151
:1023100001960E944D1031C245E050E06AED72E036
:1023200084E494E00E94E734892BA1F045E050E07A
:1023300060EE72E084E494E00E94E734892B51F06F
:1023400044E050E066EE72E084E494E00E94E734FA
:10235000892B41F460E270E084E494E00E94CC3484
:10236000019611C044E050E06BEE72E084E494E02A
:102370000E94E734892B61F46BEE72E084E494E010
:102380000E94043504960E944D100E943F0BF5C137
:1023900060EF72E084E494E00E94D734892B41F02E
:1023A00065EF72E084E494E00E94D734892B19F43D
:1023B0000E94F80CE2C169EF72E084E494E00E94AC
:1023C000D734892B11F40E94650D48E050E060E09D
:1023D00073E084E494E00E94E734892B21F5809136
:1023E000EB046DE974E0882379F0CE0101960E9438
:1023F000761769817A818EEF94E00E94A527CE013D
:1024000001960E946F3004C08EEF94E00E94A527D1
:102410008EEF94E00E94032960E27EE48EEF94E068
:102420000E94DA28A8C148E050E069E073E084E443
:1024300094E00E94E734892BB1F48091EB046DE9BC
:1024400074E0882359F0CE0101960E9476176981C5
:102450007A818EEF94E00E94CF271FC08EEF94E028
:102460000E94CF2788C147E050E062E173E084E436
:1024700094E00E94E734892BD1F48091EB046CE95D
:1024800074E0882379F0CE0101960E947617698165
:102490007A818EEF94E00E94B027CE0101960E94CF
:1024A0006F3069C18EEF94E00E94B02764C14AE0AA
:1024B00050E06AE173E084E494E00E94E734892B01
:1024C00071F480914E0489831A82CE0101960E9494
:1024D00068348A30910508F0B9C0682F77C065E28A
:1024E00073E084E494E00E940435892B09F44DC024
:1024F00024E6E22EF12C00E010E00F5F1F4F4AE0CF
:1025000050E0B80184E595E00E944D3069ED70E03F
:10251000CE0101960E949731CE0101960E94530888
:10252000CE0101960E946F30B701CE0101960E9444
:10253000790CCE0101960E947F08CE0101960E947F
:102540006F30F8E2EF0EF11C09301105B1F60E9470
:102550000D096DEC70E0CE0101960E949731CE011D
:1025600001960E945308CE0101960E946F3083E6C7
:1025700090E00E941F084AE050E0682F84E595E053
:102580000E9462300E940D09F6C06CE273E084E4A0
:1025900094E00E940435892BF1F004E610E069EA2A
:1025A00072E0CE0101960E94DD30BE016F5F7F4F69
:1025B000C8010E94590CCE0101960E946F30085D3F
:1025C0001F4F0C3C81E0180751F760E083E690E074
:1025D0000E94360CD0C045E050E067E373E084E42D
:1025E00094E00E94E734892B39F580914904A6963E
:1025F0008FAFA697A7961FAEA797CE018B599F4F77
:102600000E9468348C010150110909301105F0F461
:102610006BE474E0CE0101960E94DD3028E2209F39
:10262000C001219F900D1124BE016F5F7F4F8C5917
:102630009F4F0E94590C31CF42E050E06DE373E0B0
:1026400084E494E00E94E734892B19F00E94390B4E
:1026500094C060E473E084E494E00E940435892B24
:1026600011F01092080163E473E084E494E00E94A6
:102670000435892B19F081E08093080166E473E04A
:1026800084E494E00E940435892B21F01092070124
:102690001092E80469E473E084E494E00E94043555
:1026A000892B19F081E08093E8046CE473E084E402
:1026B00094E00E940435892B11F0109207016FE419
:1026C00073E084E494E00E940435892B19F081E0E2
:1026D0008093070162E573E084E494E00E9404358E
:1026E000892B11F01092F60466E573E084E494E01F
:1026F0000E940435892B19F081E08093F6046AE585
:1027000073E084E494E00E940435892B59F08EEF45
:1027100094E00E945727882319F00E94330B02C0CF
:102720000E94390B6DE573E084E494E00E94043567
:10273000009709F1BC016D5F7F4FFB01AF01481BA2
:10274000590B219120532A30C8F38E010F5F1F4F80
:1027500084E6F80111928A95E9F743505109C801BE
:102760000E94F534C8010E94683421E0892B09F4E5
:1027700020E02093E6040E94330B0E943F0BC459D3
:10278000DF4F0FB6F894DEBF0FBECDBFDF91CF9104
:102790001F910F91FF90EF900895AF92BF92CF924B
:1027A000DF92EF92FF920F931F93CF93DF931F92CD
:1027B000CDB7DEB7DD24D39434E4A32E34E0B32EBA
:1027C00000E619E044E6E42EF12C84E595E00E9451
:1027D000281B181619060CF0C3C080910901882324
:1027E00009F48BC08091F6048111419884E595E04D
:1027F0000E949B1AC82E809108018823C9F08091FD
:10280000F604811110C080910E0190910F01B80162
:102810000E940232C7010E940232882777FD80950C
:10282000982F0E944D2B6C2D84E595E00E94BC1AD8
:102830008C2D0E944309882359F0809144048823F9
:1028400021F2F50101900020E9F732971082BDCF07
:102850008DE0C816A1F1EAE0CE1689F1809106015B
:10286000C81669F1F50101900020E9F73197E454A9
:10287000F440E135F10518F00E94390B3BC0EC5BE8
:10288000FB4FC08280914404992787FD90950E9458
:102890008E348134910509F098CF809145048F32B0
:1028A00009F093CF65E974E084E494E00E94E03499
:1028B0008091F6048111419A0E94B6101BC080914C
:1028C0004404992787FD90950E948E3481349105A8
:1028D00089F480914504992787FD90950E948E3454
:1028E0008435910539F48091F6048111419A0E9452
:1028F000B6106BCF0E943F0B68CF8091EA0488230B
:1029000009F463CF84E595E00E949B1A909106013B
:1029100098130BC020914204309143042F5F3F4F26
:10292000309343042093420404C010924304109255
:10293000420420914204309143042330310551F484
:102940001092430410924204D092090189830E949C
:10295000330B8981682F8EEF94E00E94811E35CF62
:102960008091F6048111419A0F90DF91CF911F91D0
:102970000F91FF90EF90DF90CF90BF90AF900895B0
:10298000CF93DF93CDB7DEB7AE970FB6F894DEBF27
:102990000FBECDBF8EEF94E00E9448298823E1F15D
:1029A0008091EA0481111BC08091E90481113FC02C
:1029B0006EE970E08EEF94E00E94622F60E970E0B3
:1029C000CE0101960E949731CE0101960E94210806
:1029D000CE0101960E946F300E94470D5FC080912A
:1029E0000901882341F08EEF94E00E949F20181681
:1029F00019060CF44CC08EEF94E00E949F2018162C
:102A00001906ACF48EEF94E00E944420682F84E510
:102A100095E00E94BC1AEFCF8091E904882319F059
:102A20000E94F80C3BC08091EA048111F9CF80919B
:102A3000ED049FEF980F993038F59091EC049111C7
:102A400023C091E09093EC04992787FD909501971E
:102A500028E2289FB001299F700D11246C597F4FE7
:102A6000CE0189960E94790C69A57AA548E250E0CA
:102A7000CE0101960E94F534CE0189960E946F30F6
:102A8000CE0101960E944D100E94CD1307C068E64A
:102A900070E08EEF94E00E94622FC9CFAE960FB621
:102AA000F894DEBF0FBECDBFDF91CF910895CF93D5
:102AB000DF9300D000D000D0CDB7DEB73B9A389A74
:102AC0003C9A3A9A3D984398409A80E00E945C0B69
:102AD000682F82E10E94122C10924304109242044B
:102AE0000E94470B0E943F0B0E940D096AEE70E0A6
:102AF000CE0101960E949731CE0101960E94A00856
:102B0000CE0101960E946F300E94C014FDCFCF927B
:102B1000DF92EF92FF926C0190930D0180930C0174
:102B20008FEF95E00E94EB2C62E070E080E090E097
:102B30000E944D2BEE24D7FCE094FE2CB701A60199
:102B40008EEF94E00E94142968EE73E080E090E03C
:102B50000E944D2B8FEF95E00E94D42D26E0B70107
:102B6000A6018FEF95E0FF90EF90DF90CF900C944F
:102B7000722DCF93DF93CDB7DEB72C970FB6F894B5
:102B8000DEBF0FBECDBF0E94752B89E795E00E9486
:102B9000281A60E089E795E00E941E1861E089E745
:102BA00095E00E94D81982E090E00E941F08182F3B
:102BB00083E090E00E941F08212F30E0322F22276F
:102BC000280F311D203B84E0380729F430930F0192
:102BD00020930E0116C0203699E03907B9F3203C46
:102BE00082E1380799F3203895E2390779F3211506
:102BF0008BE4380759F380E699E090930F018093B6
:102C00000E0160E085E00E94D92B61E085E00E9422
:102C1000122C6BE572E0CE0101960E949731CE0135
:102C200001960E942108CE0101960E946F3085E036
:102C300090E00E94A40B6B017C0190EBC91694E01C
:102C4000D906E104F104E1F020E6C21629E0D2063B
:102C5000E104F104A9F080ECC81682E1D806E10491
:102C6000F10471F090E8C91695E2D906E104F10487
:102C700039F0C1142BE4D206E104F10409F040C09C
:102C8000FF92EF92DF92CF9287E592E09F938F932E
:102C90008E01095F1F4F1F930F930E942635B801C5
:102CA000CE0101960E94DD30CE0101960E942108DE
:102CB000CE0101960E946F3068EB7BE080E090E0EF
:102CC0000E944D2B8601D0920F01C0920E01C601C9
:102CD000D7FE02C081509F4F692F82E090E00E9492
:102CE000360CC80160E071E00E940232682F83E078
:102CF00090E00E94360C0FB6F894DEBF0FBECDBF39
:102D000040910E0150910F01662757FD6095762F77
:102D100084E595E00E94911C40910C0150910D01B9
:102D2000662757FD6095762F26E08FEF95E00E948D
:102D3000722D48EE53E060E070E084E595E00E947B
:102D4000693041E020910E0130910F0180910C011A
:102D500090910D012817390709F440E04093F704DA
:102D60003D98399A5298539A8091B0008F7D809304
:102D7000B0005B98419A69E472E0CE0101960E942E
:102D80009731CE0101960E94A008CE0101960E94C3
:102D90006F3040E050E06FEF75E08EEF94E00E94FE
:102DA00041288823D9F06FE372E0CE0101960E949A
:102DB0009731CE0101960E94A008CE0101960E9493
:102DC0006F3061E08EEF94E00E948D2780910E01BC
:102DD00090910F018036994089F422C061E372E03E
:102DE000CE0101960E949731CE0101960E94A00863
:102DF000CE0101960E946F300E94650D68EE73E06F
:102E000080E090E00E944D2B80910E0190910F0187
:102E1000803B24E0920711F480E699E00E94871538
:102E200041E020910E0130910F0180910C019091B1
:102E30000D012817390709F440E04093F7048EEF9D
:102E400094E00E9455290E940D096BE072E0CE01CA
:102E500001960E949731CE0101960E947F08CE0113
:102E600001960E946F300E94110981E00E944D0975
:102E700083E690E00E941F088093ED040E9457159E
:102E8000CF93C82F80EA8C0F803210F490E603C0F5
:102E9000C03E18F090EC9C0F03C0CD3001F19C2F88
:102EA0009A30F9F0903210F48EE21EC0903AD9F0C8
:102EB0008FE3890F8A3110F480E805C08FEB890F0A
:102EC0008A3118F480E2890F0FC08C2F992787FD73
:102ED00090950E948834892B39F38C2F05C08AE0A5
:102EE00003C08DE001C080E2CF910895EF92FF9280
:102EF0000F931F93CF93DF938C017B0162E374E008
:102F00000E94DD30E7018991882339F00E94401743
:102F1000682FC8010E94CC31F6CFC801DF91CF9154
:102F20001F910F91FF90EF9008958A30C1F08D307E
:102F3000C1F08032D4F08036B1F09FE9980F9A3119
:102F400010F4805208959FEB980F9A3110F4805836
:102F500008958B3754F480364CF0805A08958DE0F4
:102F600008958AE0089587E208958FE30895EF9227
:102F7000FF920F931F93CF93DF938C017B0162E34A
:102F800074E00E94DD30E7018991882339F00E94C6
:102F90009517682FC8010E94CC31F6CFC801DF9188
:102FA000CF911F910F91FF90EF9008950DB407FE00
:102FB000FDCF0895FC016387448708950F93603423
:102FC000D8F54033C8F50130C9F42130A9F5E42F14
:102FD000E695E695E69580E4E89FF0011124E60F7A
:102FE000F11DE05FFE4F477081E090E0042E01C0CC
:102FF000880F0A94EAF7908198271DC0842F869540
:1030000086958695E62FF0E0477090E4899FE00D65
:10301000F11D1124E05FFE4F81E090E0042E01C01D
:10302000880F0A94EAF7213019F49081982B03C095
:1030300080959081982390830F910895DC01611110
:103040002EC018961C921897809190029091910230
:10305000FC01249116962C9316973196E4911796BD
:10306000EC931797FC013296E4911996EC9319971B
:10307000FC013396E4911A96EC931A97FC0134966E
:1030800024913196849190E0F4E62F9F800D911D5C
:1030900011241E969C938E931D9781E0089580E0E5
:1030A00008955F926F927F928F929F92AF92BF929C
:1030B000CF92DF92EF92FF920F931F93CF93DF9304
:1030C000EC01162FB42EF02E3985231708F4B0C06A
:1030D0006A8570E0630F711D822F90E08617970755
:1030E0000CF0A6C0D22ED31A9F80969496949694F4
:1030F00081E08915C0F1C12E3C2D311B2E81822F1C
:1031000090E0A32FB0E08A179B070CF491C0321710
:1031100091F0E885F0E0EE0FFF1FE057FD4FD29EE3
:10312000A00DB11D112416960190F081E02DEA0F3B
:10313000FB1F949001C0912CA12C4A2D4B0D90FEA9
:1031400003C00E2D2F2D04C021E0F11020E00E2D24
:103150006C2DCE010E94DE179694A39488E0A812ED
:10316000ECCFC394C9CFED85FE852E8130E0CF0131
:10317000B9010E94EE318D2D90E00E94EE31829FC8
:103180006001839FD00C929FD00C11249E9E9001D1
:103190009F9E300D1124269FC001279F900D369FC2
:1031A000900D1124C80ED91E742EA12CB12C86E0CE
:1031B000C80ED11C812E482D411B8E81481780F5E9
:1031C000E885F0E0EE0FFF1FE057FD4F2D853E85AF
:1031D000A29EC001A39E900DB29E900D11248C0D55
:1031E0009D1D840F911D0190F081E02DE80FF91FC6
:1031F0005490612C462D470D50FE03C00E2D2F2DEF
:1032000004C021E0F11020E00E2D682DCE010E94B7
:10321000DE175694639488E06812ECCF8394CBCF8A
:103220008FEFA81AB80A88E0780EA91408F4C2CF64
:10323000DF91CF911F910F91FF90EF90DF90CF9092
:10324000BF90AF909F908F907F906F905F90089508
:10325000EF920F93CF93DF93EC01262F6A30A9F002
:103260006D30C1F0ED800C814C856B850E9451184A
:103270004E812B85240F2F5F2B8730E080E490E078
:10328000841B9109821793072CF48C859F81890FE9
:103290008C871B8681E090E0DF91CF910F91EF90BA
:1032A00008952A9A22982898209A60E08DE00E943A
:1032B000122C60E08BE00E94122C61E08DE00E94F5
:1032C000D92B61E08BE00E94D92B8CB580618CBD3D
:1032D00008958CB580648CBD2A98229A08950DB407
:1032E00007FEFDCF2898209A2A9A22988CB58F7BCA
:1032F0008CBD0895CF93DF9300D0CDB7DEB74A835E
:1033000069830E94691969816EBD0E94D6174A813E
:103310004EBD0F900F90DF91CF910C946F19CF930A
:10332000DF9300D01F92CDB7DEB72B834A8369832A
:103330000E94691969816EBD0E94D6174A814EBDEF
:103340000E94D6172B812EBD0F900F900F90DF910A
:10335000CF910C946F190F931F93CF93DF93EC01D0
:1033600040E060E20E947A192FE740E061E2CE017E
:103370000E948F1927E040E062E2CE010E948F197F
:103380000E946919289A20981EBC0FEF13E00E9432
:10339000D6171EBC01501109D1F70E946F1942E0E7
:1033A00060E2CE01DF91CF911F910F910C947A19B9
:1033B000613011F40C94AB1980E891E0E0E1F1E0A8
:1033C000DF019C011D9221503040E1F708950F93D9
:1033D0001F93CF93DF93EC0140E060E20E947A19E3
:1033E0002FE540E261E2CE010E948F1925E040E026
:1033F00062E2CE010E948F190E946919289A2098D2
:10340000809110018EBD01E111E00E94D617F801F4
:1034100081918F018EBDF2E000391F07B1F70E9444
:103420006F1942E060E2CE01DF91CF911F910F91C1
:103430000C947A192CB5982F93702C7F922B9CBDED
:103440009DB582FB882780F99E7F982B9DBD0895AE
:10345000CF93DF93EC0160E00E941E1881E08C8323
:103460001D821B861C865F98579A61E084E00E944B
:10347000D92B61E084E00E94122C6AE070E080E0C9
:1034800090E00E944D2B5F9A579865E070E080E0D5
:1034900090E00E944D2B5F98579A84E00E941A1A80
:1034A0000E94511965E070E080E090E00E944D2B91
:1034B0005F9A57986AE070E080E090E00E944D2BA0
:1034C0004FE268EACE010E947A1944E16DE8CE012C
:1034D0000E947A190E94691981EA8EBD0E946F19B3
:1034E0000E94691988EC8EBD0E946F194FE861E84F
:1034F000CE010E947A1941EF69EDCE010E947A193E
:1035000040E46BEDCE010E947A190E9469198FEA9E
:103510008EBD0E946F19CE01DF91CF910C94AB1933
:1035200010927C0510927B0585E693E090937A05D6
:103530008093790508952091CA053091CB0528170D
:103540003907B9F49091880580918905981789F019
:10355000E0918805F0E0E657FA4F808120918805D8
:1035600030E02F5F3F4F2F7333272093880590E083
:1035700008958FEF9FEF08951F93CF93DF93DC01A2
:103580005C968D919C915D97009749F481E090E065
:1035900013969C938E93129780E090E03BC05196D7
:1035A000ED91FC91529750962C915097322F309577
:1035B0001FB75E964C915E9741FB772770F941FDEE
:1035C0006095F8944081772311F0422B01C043238A
:1035D0004083EC012197F1F748E0508160FF02C081
:1035E000522B01C053235083EC012197F1F76695CC
:1035F000415099F78081772311F0832301C0822BFA
:1036000080831FBF5C968D919C915D970197F1F728
:1036100081E090E0DF91CF911F9108952091CA053C
:103620003091CB052817390781F490918805809156
:103630008905981751F0E0918805F0E0E657FA4FB8
:103640008081992787FD909508958FEF9FEF0895CA
:103650002091CA053091CB052817390771F4809164
:1036600089052091880590E0805C9F4F821B91091D
:1036700060E470E00E940232089580E090E00895D6
:103680002091CA053091CB052817390739F48FB737
:10369000F89410928905109288058FBF0895E091E3
:1036A000CA05F091CB05E817F90769F4A389B48935
:1036B0009C918589809589238C931092CB051092DB
:1036C000CA0581E0089580E00895CF93DF93EC016F
:1036D0008A8D9B8D892BF1F08091CA059091CB0545
:1036E0008C179D07B9F0009711F00E944F1B8E8D2B
:1036F0008E7F8E8F1092890510928805D093CB050E
:10370000C093CA05EB89FC8980819D89892B8083C0
:1037100081E001C080E0DF91CF9108951F920F9268
:103720000FB60F9211242F933F934F935F936F9394
:103730007F938F939F93AF93BF93EF93FF93E0910A
:10374000CA05F091CB05309709F451C0868DA68546
:10375000B785958581FF04C08C91892329F447C0E2
:103760008C91892309F043C0A389B4899C918589F0
:10377000809589238C93868997890197F1F7208D0D
:10378000318DA685B785758558E040E0C901019760
:10379000F1F7842F90E095958795482F6C916723DA
:1037A00009F04068515091F7868D81FD40958091D8
:1037B000890590E001968F73992720918805281735
:1037C00049F0A0918905B0E0A657BA4F4C93809379
:1037D000890503C0868D8160868F828D938D0197C8
:1037E000F1F7A389B4898C919589892B8C93FF91EA
:1037F000EF91BF91AF919F918F917F916F915F9169
:103800004F913F912F910F900FBE0F901F901895E1
:103810002DE633E0FC01318320830C944F1B1F9372
:10382000CF93DF93EC01162F6E8D6695617081E06A
:103830006827812F0E94122C61E0812F0E94D92BD2
:10384000812F90E0FC01E45FF04FE491E88BFC01F4
:10385000E05EF04FE491F0E0EE0FFF1FE25CF04F0E
:10386000859194919A8B898BDF91CF911F910895C7
:103870001F93CF93DF93EC01162F60E0812F0E94FE
:10388000D92B8E8D81FD04C061E0812F0E94122C06
:103890001C87812F90E0FC01E45FF04FE491ED87FD
:1038A000FC01E05EF04FE491F0E0EE0FFF1FEC5CF6
:1038B000F04F859194919F878E87DF91CF911F91D3
:1038C0000895FF920F931F93CF93DF93EC01F62E91
:1038D000522F1B821A8208EE13E020E030E00C83A6
:1038E0001D832E833F838DE693E0998388831F8A0F
:1038F0001E8A198E188E1B8E1A8E1D8E1C8E8E8D12
:103900008E7F50FB81F98E8F642FCE010E940F1C99
:103910006F2DCE01DF91CF911F910F91FF900C94ED
:10392000381CCF93DF93EC019A01AB011B8E1A8EEA
:10393000198E188E1F8A1E8A60E079E08DE390E070
:103940000E943832C9012430310520F0B90163509A
:10395000710902C061E070E07D8F6C8FEC85E6310B
:1039600008F068C0B901769567956431710518F063
:103970006351710902C061E070E07F8B6E8B069726
:1039800018F0C901059702C081E090E0998F888FF7
:10399000C901880F991F820F931F96958795969559
:1039A00087958D30910510F00C9702C081E090E072
:1039B0009B8F8A8F20916800E83050F091E0EE30C4
:1039C00008F490E081E001C0880F9A95EAF701C001
:1039D00084E0822B809368002C85283038F02E30CC
:1039E00040F0263148F48CE690E008C08DE690E087
:1039F00005C08BE690E002C080E090E09C8B8B8B52
:103A0000283030F481E001C0880F2A95EAF70DC014
:103A1000822F90E02E3010F4089701C00E9791E0AD
:103A200001C0990F8A95EAF7892F8D8B8C8D9D8D1A
:103A30000197F1F7CE01DF91CF910C94651BDC016A
:103A40001C968D919C911D97DC01ED91FC91068057
:103A5000F781E02D0994DC011C968D919C911D97B6
:103A6000DC01ED91FC910480F581E02D0994DC01ED
:103A70001C968D919C911D97DC01ED91FC91028427
:103A8000F385E02D0994DC011C968D919C911D9786
:103A9000DC01ED91FC910084F185E02D09942F92D9
:103AA0003F924F925F926F927F928F929F92AF92CE
:103AB000BF92CF92DF92EF92FF920F931F93CF931B
:103AC000DF93CDB7DEB760970FB6F894DEBF0FBEB9
:103AD000CDBF2B013C0169014A3021F5CE01019691
:103AE0001C01E12CF12C5AE0852E912CA12CB12C3B
:103AF000C301B201A50194010E9416329FEFE91A99
:103B0000F90A80E3840DEAE02E9F80191124F10167
:103B100081931F012115310541055105C9F1290185
:103B20003A01E6CFFE01319680E090E0B301A201B8
:103B30004F705527662777279C012F5F3F4F4A30EC
:103B400051056105710510F4A0E301C0A1E44A0F1D
:103B5000419344E076946794579447944A95D1F7FB
:103B6000411451046104710411F0C901DFCFE1E097
:103B7000F0E0EC0FFD1FE20FF31F48E740837C01EC
:103B8000F3E0EF0EF11CFE01E80FF91F20E32383A1
:103B900021E0E21AF108F60180E090E001501109FD
:103BA0000196A1E0B0E0AC0FBD1FAE0DBF1D2C9182
:103BB00021931E141F04ECF0F601E80FF91F108288
:103BC00060960FB6F894DEBF0FBECDBFDF91CF91E8
:103BD0001F910F91FF90EF90DF90CF90BF90AF902B
:103BE0009F908F907F906F905F904F903F902F901D
:103BF000089521E0E21AF10880179107ECF6D0CF82
:103C0000CF92DF92EF92FF920F931F93FC0140E05F
:103C100060E070E0CB010191002309F449C020ED80
:103C2000200F2A30B0F414E0660F771F881F991F09
:103C30001A95D1F76053710981099109C02EDD24CD
:103C4000C7FCD094ED2CFD2C6C0D7D1D8E1D9F1D91
:103C5000E2CF2FE9200F263060F4B4E0660F771F23
:103C6000881F991FBA95D1F7675571098109910984
:103C70000FC02FEB200F2630A8F4A4E0660F771FAB
:103C8000881F991FAA95D1F7675371098109910976
:103C9000112707FD1095212F312F600F711F821FF3
:103CA000931FB9CF083721F4411102C041E0B3CFCF
:103CB0001F910F91FF90EF90DF90CF9008950F9399
:103CC0001F93FC0160E070E0CB01019120ED200F1B
:103CD0002A30A0F4AAE0B0E09B01AC010E945D3262
:103CE0006053710981099109112707FD1095212F52
:103CF000312F600F711F821F931FE7CF1F910F910C
:103D00000895DC01AE5ABF4F2D913C911197FC01F3
:103D1000EC5AFF4F408151812417350764F43497E2
:103D20000190F081E02DA9014F5F5F4F4D935C93AF
:103D3000E20FF31F6083FC01FF9680819181DC011B
:103D4000ED91FC910190F081E02D0994CF96DC017A
:103D50008D919C91DC01ED91FC910284F385E02D25
:103D60000994DC011C968D919C911D97009739F068
:103D7000DC01ED91FC910190F081E02D099480E04F
:103D800090E008952091DF0521110BC0FC01FF9602
:103D900080819181DC01ED91FC910084F185E02D21
:103DA0000994E091E005F0E0EE51FA4F8081992707
:103DB00087FD90950895DC01ED91FC910190F081D3
:103DC000E02D09944F925F926F927F92AF92BF92D3
:103DD000CF92DF92EF92FF920F931F93CF93DF93D7
:103DE000EC015B016A010E941E2B2B013C01E12CBE
:103DF000F12C8E01015C1F4F0E941E2B6419750966
:103E0000860997096C157D058E059F0508F067C02A
:103E1000D8018D919C91DC01ED91FC910480F5819C
:103E2000E02D0995181619063CF7F801808191815B
:103E3000DC01ED91FC910680F781E02D0995F82ECB
:103E4000F5018083DE01AE5ABF4F2D913C91119751
:103E5000FE01EC5AFF4F80819181281739075CF4ED
:103E600034970190F081E02DC90101968D939C93C8
:103E7000E20FF31FF0828C858823E1F16091CC057D
:103E80007091CD05CB0101969093CD058093CC0523
:103E9000CF5BDF4F4AE050E0CE010E944D3061E938
:103EA0007CE0CE010E94242F40E150E00F2D11272D
:103EB00007FD1095B801CE010E944D30C8010E9447
:103EC0008834892B41F060E2CE010E94572F6F2D7C
:103ED000CE010E94572FCE010E945E2F0BC08C8511
:103EE000882351F069E77CE0CE018F5B9F4F0E94F1
:103EF000622F02C081E001C080E0DF91CF911F916D
:103F00000F91FF90EF90DF90CF90BF90AF907F9098
:103F10006F905F904F900895EF92FF920F931F93D1
:103F2000CF93DF931F92CDB7DEB78C017B01A70142
:103F3000BE016F5F7F4FC8010E94E21E8111F7CF63
:103F40000F90DF91CF911F910F91FF90EF90089507
:103F5000DF92EF92FF920F931F93CF93DF938C0129
:103F60009091DF05992311F1442321F06F5F7F4F7A
:103F700081E001C080E02091E005820FFB01BF01DC
:103F8000382F321B3917B0F43491332309F443C06E
:103F9000893010F4A82F01C0A0E031968F5FB0E007
:103FA000AE51BA4F4C91431751F354C0411102C066
:103FB0006F5F7F4FFB01D490EB0121967801F1E414
:103FC000EF0EF11C6091E10570E06E517A4F44EF05
:103FD00051E0C8010E94E21E8091E105E82FF0E067
:103FE000EE51FA4F20819091DF058F5F2D111BC09C
:103FF000883068F58093E1059F5F9093DF059930E5
:1040000028F063EC7CE0C7010E94622FFE01D4908F
:104010002196D110D7CF1092DF051092E0051092B3
:10402000E10581E018C0883018F48093E10502C0F2
:104030001092E1059F5F9093DF05993058F06FED86
:104040007CE0C8018F5B9F4F0E94622F03C01092DB
:10405000E105D2CF80E0DF91CF911F910F91FF90CA
:10406000EF90DF900895CF93DF93EC01462F6CEB38
:104070007CE00E94A81F882319F01FAA81E001C0DC
:1040800080E0DF91CF910895CF93DF93EC01809191
:10409000DF05882381F0E091E00591E09E0F909389
:1040A000E005F0E0EE51FA4F208130E0983060F109
:1040B0001092E00529C0FE01FF9680819181DC010C
:1040C000ED91FC910680F781E02D09959C018FA967
:1040D0008823E9F02A323105D1F460E0CE010E9454
:1040E0003320811116C0E091E00581E08E0F8093AE
:1040F000E005F0E0EE51FA4F208130E0883010F01A
:104100001092E0058091DF0581508093DF05C901A1
:1041100002C08FEF9FEFDF91CF910895CF93DF9390
:10412000EC01462F65EB7CE00E94A81F882319F064
:1041300081E08FAB01C080E0DF91CF910895CF92F5
:10414000DF92EF92FF920F931F93CF93DF93EC01D7
:104150008C01015C1F4FD8018D919C91DC01ED9188
:10416000FC910480F581E02D09957C011816190653
:104170000CF043C08C858823B9F062EA7CE06E01C4
:10418000B1E4CB0ED11CC6010E94242FF80180811E
:104190009181DC01ED91FC910084F185E02D099580
:1041A000682FC6010E94982FF80180819181DC015F
:1041B000ED91FC910084F185E02D09958A97E9F451
:1041C0008FA961E0882331F0CE010E94332088233B
:1041D00021F01AC0CE010E948E20C091DF05D0E0F0
:1041E000F80180819181DC01ED91FC910480F581E1
:1041F000E02D09958C0F9D1F09C08091DF05F70107
:10420000E80FF11DCF0102C08FEF9FEFDF91CF913B
:104210001F910F91FF90EF90DF90CF900895CB0109
:104220006FEC75E00E94043521E0892B09F420E051
:10423000822F08958F929F92AF92BF92CF92DF927A
:10424000EF92FF920F931F93CF93DF931F92CDB7FF
:10425000DEB76C017B015A016115710529F1FB0183
:104260008081882309F18B014B01FFEF8F1A9F0A90
:10427000A501BE016F5F7F4FC6010E94E21E882329
:10428000A1F08981F8019081891303C00F5F1F4F4E
:1042900007C0F7019081891302C0840101C0870122
:1042A000F80180818111E4CF81E00F90DF91CF91FF
:1042B0001F910F91FF90EF90DF90CF90BF90AF9044
:1042C0009F908F9008957F928F929F92AF92BF920E
:1042D000CF92DF92EF92FF920F931F93CF93DF93D2
:1042E0001F92CDB7DEB76C018B015A01FC018485AA
:1042F000882369F06FE67CE07601F1E4EF0EF11CB3
:10430000C7010E94242FB801C7010E94622FF80143
:1043100074907720C1F078014801FFEF8F1A9F0A4F
:10432000A501BE016F5F7F4FC6010E94E21E882378
:10433000C9F02981271109C08FEFE81AF80AF7019F
:1043400074907110EDCF81E00DC0F8018491332796
:1043500027FD309590E02817390711F47401EFCF4D
:104360007801EDCF0F90DF91CF911F910F91FF90CA
:10437000EF90DF90CF90BF90AF909F908F907F9005
:1043800008952F923F924F925F926F927F928F92F9
:104390009F92AF92BF92CF92DF92EF92FF920F93D4
:1043A0001F93CF93DF9300D01F92CDB7DEB76C0180
:1043B000562E672E742E59012DB73EB73B832A83A4
:1043C000242F30E0C901880F991F820F931FEDB78A
:1043D000FEB7E81BF90B0FB6F894FEBF0FBEEDBF9A
:1043E0002DB73EB72F5F3F4F1901062F172F4901F9
:1043F000412C760131E4E30EF11C471409F449C065
:10440000F4011082F80180819181F401928381830B
:10441000F60184858823A9F060E67CE0C7010E944C
:10442000242F4AE050E0642DC7010E94623060E210
:10443000C7010E94572FF80160817181C7010E9456
:10444000622F4394F3E08F0E911C0E5F1F4FD5CF68
:104450001196ED91FC9112976491961781F1F901F3
:1044600000811181F801649170E04617570731F11E
:1044700012961C930E9311971196ED91FC91129741
:10448000E49113962E5F3F4FEE23F9F08F5F871173
:10449000DFCFA501BE016F5F7F4FC6010E94E21E04
:1044A000811102C08FEF11C09981492F552747FD17
:1044B0005095252D362DD10180E0E9CFF8013196B8
:1044C0001296FC93EE931197D7CF2A813B810FB6BA
:1044D000F8943EBF0FBE2DBF0F900F900F90DF914D
:1044E000CF911F910F91FF90EF90DF90CF90BF90F1
:1044F000AF909F908F907F906F905F904F903F9084
:104500002F900895CF93DF93EC018D858823C9F018
:1045100065E37CE0CE010E94242F44EF51E06EE27F
:104520007CE0CE010E946321882311F01D8609C022
:104530006DE17CE0CE018F5B9F4F0E94622F80E097
:1045400001C081E0DF91CF9108955F926F927F92D9
:104550008F929F92AF92BF92CF92DF92EF92FF9293
:104560000F931F93CF93DF931F92CDB7DEB76C01EC
:104570007B01390100E010E04A0182E0881A9108CD
:104580005A0181E0A81AB108A301BE016F5F7F4FF5
:10459000C6010E94E21E882309F440C059808DE0C4
:1045A00058122DC0A301BE016F5F7F4FC6010E944C
:1045B000E21E89818A3041F4E114F104B9F1F70176
:1045C000E00FF11F108232C0E114F104C1F00815B0
:1045D000190564F4F8013196D701A00FB11F5C9260
:1045E0000E5F1F4FEE0DFF1D808309C00A151B05CE
:1045F00034F4F701E00FF11F50820F5F1F4F0A15CF
:104600001B0514F6E114F10409F4BECFF701E00F25
:10461000F11F898180830F5F1F4FB6CFE114F10432
:1046200039F0F701E00FF11F108203C0C80102C08A
:1046300080E090E00F90DF91CF911F910F91FF905C
:10464000EF90DF90CF90BF90AF909F908F907F9032
:104650006F905F900895CF92DF92EF92FF920F9349
:104660001F93CF93DF931F92CDB7DEB78C0144EF3A
:1046700051E0BE016F5F7F4FC8010E94E21E882398
:10468000A9F089818C3399F78093CF0550EDE52E01
:1046900055E0F52EDD24D39444EF51E0BE016F5F69
:1046A0007F4FC8010E94E21E811102C080E035C028
:1046B000CC24C394CD0C8981F70181937F018E3383
:1046C00039F544EF51E0BE016F5F7F4FC8010E9492
:1046D000E21E882359F38981803241F7AC2DB0E086
:1046E000A153BA4F8C93D394D394ED2DF0E0E153C2
:1046F000FA4F108281E08093CE0524EF31E040E054
:1047000050E060E070E0C8010E94A52281E005C091
:10471000FCE0CF1659F2DC2CBFCF0F90DF91CF9188
:104720001F910F91FF90EF90DF90CF9008951F930E
:10473000CF93DF93EC01AB018091CE0581110EC0C8
:10474000CE010E942B23182F811110C06FE47CE052
:10475000CE018F5B9F4F0E94622F08C06FEC75E007
:10476000CE01DF91CF911F910C941A21812FDF91FF
:10477000CF911F910895FF920F931F93CF93DF93D3
:10478000EC018D8581116EC06AEF70E080E090E0F1
:104790000E944D2B6BE47CE0CE010E94242F6AEF37
:1047A00070E080E090E00E944D2B44EF51E065E422
:1047B0007CE0CE010E946321811115C0FE01FF96AD
:1047C00080819181DC01ED91FC910190F081E02DDF
:1047D0006DE0099564EF71E0CE010E94972381118D
:1047E0003AC015E01EC08091CE05811134C065E04D
:1047F000F62E8E01015C1F4FF80180819181DC0152
:10480000ED91FC910190F081E02D6DE0099564EF50
:1048100071E0CE010E94972381111DC0FA9461F7C7
:10482000CDCF6AEF70E080E090E00E944D2B61E414
:104830007CE0CE010E94242F6AEF70E080E090E0DF
:104840000E944D2B44EF51E06BE37CE0CE010E94CF
:104850006321882319F081E08D8705C0115009F785
:1048600080E001C081E0DF91CF911F910F91FF9017
:104870000895CF93DF93EC018D85882339F08E85E1
:104880009F8501969F878E8781E005C0CE010E949B
:10489000BB238111F4CFDF91CF910895FC012685D0
:1048A00037852150310937872687232B11F40C9443
:1048B000822281E00895CF92DF92EF92FF920F93D0
:1048C0001F93CF93DF93EC018B016A0179010E9462
:1048D0003924882351F1000F111F000F111F0655B5
:1048E0001C4FF80160817181CE010E94242FF801D4
:1048F0006281738144EF51E0CE010E9463218823DD
:1049000089F024EF31E0A701B601CE010E94A52273
:1049100064EF71E0CE010E949723CE010E944E24E5
:10492000C60105C0CE010E944E2489E793E0DF91C5
:10493000CF911F910F91FF90EF90DF90CF9008954E
:10494000EF92FF920F931F93CF93DF93CDB7DEB714
:1049500060970FB6F894DEBF0FBECDBF8C010E94EA
:10496000392481110AC065E07CE0C8018F5B9F4F4C
:104970000E94622F80E090E06FC06DEF7BE0C80185
:104980000E94242F24EF31E040E150E0BE016F5F30
:104990007F4FC8010E94A5227C01BE016F5F7F4F3F
:1049A000C8010E940F21882361F024EF31E040E12B
:1049B00050E0BE016F5F7F4FC8010E94A5227C01BD
:1049C00005C064EF71E0C8010E94972325E0E2165C
:1049D000F1041CF4CE01019608C0C7010497E1E080
:1049E000F0E0EC0FFD1F8E0F9F1F0E94001EF62EA1
:1049F000E72E862F8F70F80181AFF4FA882780F9AF
:104A000082AFF5FA882780F983AFF6FA882780F914
:104A100084AFF7FA882780F985AF8E2D86958F7041
:104A200086AFC8010E944E24F80191AD8485913073
:104A300031F497AB882371F067EE7BE006C0F80194
:104A400017AA882339F06EEC7BE0C8018F5B9F4F7B
:104A50000E94622F8F2D9E2D60960FB6F894DEBFB8
:104A60000FBECDBFDF91CF911F910F91FF90EF90BF
:104A70000895CF93DF93D62FC72F9A01462F572F34
:104A800060E070E00E945B24892B49F0ED2FFC2F41
:104A9000DF018191882329F08A33D1F702C0AD2F3D
:104AA000BC2F1C928D2F9C2FDF91CF9108959A01DE
:104AB000AB0163E070E00C945B249A01AB0164E00D
:104AC00070E00C945B241F93CF93DF93CDB7DEB7D8
:104AD0002B970FB6F894DEBF0FBECDBF142F2BE07F
:104AE00030E0AE014F5F5F4F0E945B24892B51F095
:104AF000CE0101961A3019F40E945F1E06C00E9472
:104B0000001E03C060E070E0CB012B960FB6F89456
:104B1000DEBF0FBECDBFDF91CF911F910895AF9241
:104B2000BF92CF92DF92EF92FF920F931F93CF939A
:104B3000DF931F92CDB7DEB78C017B016A0159016B
:104B40000E9439248823B9F16CEA7BE0C8010E94F5
:104B5000242FB701C8010E94552F61E873E0C801F6
:104B60000E94552F48E853E1B701C8010E941A215D
:104B70008823C9F044EF51E0BE016F5F7F4FC80149
:104B80000E94E21E24EF31E0A501B601C8010E9497
:104B9000A52264EF71E0C8010E949723C8010E941A
:104BA0004E2481E009C064EF71E0C8010E949723A0
:104BB000C8010E944E2480E00F90DF91CF911F9199
:104BC0000F91FF90EF90DF90CF90BF90AF9008953E
:104BD000CF93DF93CDB7DEB760970FB6F894DEBF03
:104BE0000FBECDBF20E130E0AE014F5F5F4F6CE004
:104BF00070E00E945B24892BE1F143E050E068EA19
:104C00007BE0CE0101960E94A634892B51F142E04F
:104C100050E065EA7BE0CE0101960E94A634892B24
:104C200011F146E050E06EE97BE0CE0101960E9472
:104C3000A634892BD1F045E050E068E97BE0CE0155
:104C400001960E94A634892B91F046E050E061E97C
:104C50007BE0CE0101960E94A634892B51F484E0BA
:104C600009C080E007C081E005C082E003C083E0A6
:104C700001C08FEF60960FB6F894DEBF0FBECDBFB8
:104C8000DF91CF910895CF92DF92EF92FF920F9331
:104C90001F93CF93DF9300D000D0CDB7DEB77C0158
:104CA0008B016A018BE89BE09A83898385E89BE00E
:104CB0009C838B8324EF31E042E0BE016F5F7F4F26
:104CC000C7010E94C1218130F1F0811114C024EF8D
:104CD00031E0A601B801C7010E94A52281E4E80ED7
:104CE000F11C6FE77BE0C7010E94242FB801C701C8
:104CF0000E94862F06C0A60165E77BE0C8010E94DE
:104D0000B43480E001C081E00F900F900F900F90BD
:104D1000DF91CF911F910F91FF90EF90DF90CF9097
:104D20000895AF92BF92CF92DF92EF92FF920F93CE
:104D3000CF93DF93CDB7DEB762970FB6F894DEBF9F
:104D40000FBECDBF7C015A016901698B7A8B0E942D
:104D5000392469897A89882309F463C0C7010E94CC
:104D6000242FC114D10419F160E2C7010E94DB1E97
:104D70000023C1F057018FE4A80EB11CF601649125
:104D80006623C1F1D701ED91FC910190F081E02DF6
:104D9000603211F4D5016C91C7010995BFEFCB1AB0
:104DA000DB0AECCFB601C7010E94242F23C0A11457
:104DB000B10401F160E2C7010E94DB1E0023B1F0E3
:104DC0006701FFE4CF0ED11CF50161915F016623FD
:104DD00089F0D701ED91FC910190F081E02D6032D6
:104DE00011F4D6016C91C7010995EECFB501C70149
:104DF0000E94552F6DE0C7010E94DB1E40E150E08C
:104E0000BE016F5F7F4FC7010E944326082F64EFEA
:104E100071E0C7010E949723C7010E944E24802F92
:104E200001C080E062960FB6F894DEBF0FBECDBF22
:104E3000DF91CF910F91FF90EF90DF90CF90BF90D7
:104E4000AF900895CF92DF92EF92FF920F931F934E
:104E5000CF93DF93CDB7DEB72B970FB6F894DEBFB5
:104E60000FBECDBF7C016B01CA01B901402F0BE021
:104E700010E09E012F5F3F4F0E944F1D00E020E099
:104E800030E0AE014F5F5F4FB601C7010E9491262F
:104E90002B960FB6F894DEBF0FBECDBFDF91CF913A
:104EA0001F910F91FF90EF90DF90CF9008951F9387
:104EB000CF93DF93EC010E9439248823D9F06FE669
:104EC0007BE0CE010E94242F44EF51E067E67BE0B7
:104ED000CE010E946321882339F064EF71E0CE0196
:104EE0000E94972311E001C010E0CE010E944E24E1
:104EF000812F01C080E0DF91CF911F9108950F9322
:104F0000262F30E040E050E000E163E47AE00E94C8
:104F100022270F9108950C947F270F93262F30E0BE
:104F200040E050E000E166E37AE00E9422270F9122
:104F300008950F9300E020E030E040E050E062E8A8
:104F400079E00E9491260F9108950F93AB0101E043
:104F500020E030E064E779E00E9491260F91089507
:104F60000F931F93CF93DF93EC01AB01FB01818182
:104F70008F7D883511F44E5F5F4F00E020E030E018
:104F800069E579E0CE010E949126182FCE010E949A
:104F90009927812FDF91CF911F910F9108950F9342
:104FA0001F93CF93DF93EC01AB0101E020E030E0F1
:104FB00069E479E00E949126182FCE010E9499277A
:104FC000812FDF91CF911F910F91089540E16BE107
:104FD00070E00E946325862F08950F93CF93DF938F
:104FE000EC011CAA1BAA1B8A00E020E030E040E094
:104FF00050E068EA7DE00E949126811107C060E9D7
:105000007DE0CE018F5B9F4F0E94622F00E020E089
:1050100030E040E050E06DE77DE0CE010E94912657
:10502000811107C060E67DE0CE018F5B9F4F0E943B
:10503000622F00E020E030E040E050E06EE47DE0F0
:10504000CE010E949126811107C064E37DE0CE016C
:105050008F5B9F4F0E94622FCE010E94A024CE0141
:105060000E94E8258B7F91E009F490E0988BCE01B7
:105070000E94E627C15BDF4F8883DF91CF910F91BC
:1050800008950F931F93CF93DF93EC018C010F5B77
:105090001F4FF801558744873297718360830E94C0
:1050A000BB23811103C067E17DE00AC0CE010E94ED
:1050B000ED27CE010E948222811107C06BEF7CE0B8
:1050C000C8010E94622F80E001C081E0DF91CF9192
:1050D0001F910F910895CF92DF92EF92FF920F935D
:1050E0001F93CF93DF9300D000D0CDB7DEB78C01F4
:1050F0007B016A0187EF98E09A8389838BEE98E0C1
:105100009C838B83C8010E943924882309F444C0FE
:1051100065EE78E0C8010E94242FE114F10421F02B
:10512000B701C8010E94552F63EE78E0C8010E94C4
:10513000242F960142E0BE016F5F7F4FC8010E949D
:10514000C121F82E64E670E0C8010E948C1F81E046
:10515000F8121FC0F801F2AE8089882361F048E997
:105160005AE36FED78E0C8010E94632164E670E0C5
:10517000C8010E948C1F24EF31E040E050E060E065
:1051800070E0C8010E94A522C8010E944E2481E05F
:1051900004C0C8010E944E2480E00F900F900F9031
:1051A0000F90DF91CF911F910F91FF90EF90DF90C3
:1051B000CF9008950F931F93CF93DF93CDB7DEB7B2
:1051C000C054D1090FB6F894DEBF0FBECDBF8C011D
:1051D00040E450E0BE016F5F7F4F0E945D2540E2DA
:1051E0005EE4BE016F5F7F4FC8010E946B28C05C08
:1051F000DF4F0FB6F894DEBF0FBECDBFDF91CF916A
:105200001F910F910895CF93DF93EC0168ED78E043
:105210000E94242F64E670E0CE010E948C1F1AAE1B
:1052200081E0DF91CF910895EF92FF920F931F934A
:10523000CF93DF93CDB7DEB760970FB6F894DEBF9C
:105240000FBECDBF7C01CB01BA0100E110E09E0191
:105250002F5F3F4F4AE00E944F1DC7010E94392433
:1052600000E020E030E0AE014F5F5F4F60ED78E09E
:10527000C7010E94912660960FB6F894DEBF0FBE5C
:10528000CDBFDF91CF911F910F91FF90EF900895C7
:10529000CF93DF93EC01E881F9810480F581E02D63
:1052A00009958FA9DF91CF9108950F931F93CF9305
:1052B000DF93EC018FA9882391F164EF71E0CE01B7
:1052C0000E948C1FCE010E9439246DE977E0CE0147
:1052D0000E94242F44EF51E066E977E0CE010E945E
:1052E00063218E010F5B1F4F882351F0CE010E9476
:1052F0004E2464E877E0C8010E94622F1FAA0FC005
:105300006BE677E0C8010E94622FCE010E94A024C4
:10531000CE010E944E248FA991E0892701C081E02F
:10532000DF91CF911F910F910895BF92CF92DF929D
:10533000EF92FF920F931F93CF93DF93CDB7DEB71A
:1053400065970FB6F894DEBF0FBECDBF7C016B0131
:105350008A01B22EFC0180AD8111BFC0C7010E943D
:105360003924F70187A9882319F0C7010E9455291C
:10537000B80180E090E004E110E09E012F5F3F4F14
:105380004AE00E944F1D87010F5B1F4F6AE978E0DA
:10539000C8010E94242FB601C8010E94552F60E267
:1053A000C8010E94572FBE016F5F7F4FC8010E9446
:1053B000862F64E978E0C7010E94242FB601C70157
:1053C0000E94552F68E873E0C7010E94552FBE0167
:1053D0006F5F7F4FC7010E94552F62E978E0C701D8
:1053E0000E94242F64EF71E0C7010E94972381116E
:1053F0000BC06DE778E0C8010E94622F68E578E095
:10540000C8010E94622FFFCFB11008C081E0F701F0
:1054100080AF64C0F7018485811135C040E157E257
:10542000BE016B5E7F4FC7010E94E21E882309F414
:105430004CC08D898A32C9F0833461F7898324EFA7
:1054400031E043E150E0BE016E5F7F4FC7010E9433
:10545000A5226EE378E0C8010E94242FBE016F5F91
:105460007F4FC8010E94862F35C044EF51E062E5AE
:1054700078E0C7010E946321882361F181E0F70190
:1054800087AB15862BC06CE278E0C8010E94242F00
:105490006D89772767FD709540E150E0C8010E9453
:1054A0004D308D89992787FD90950E948834892BEE
:1054B00041F060E2C8010E94572F6D89C8010E9427
:1054C000572FC8010E945E2FA9CF62E278E0C80181
:1054D0000E94622FC7010E944E2480E065960FB69D
:1054E000F894DEBF0FBECDBFDF91CF911F910F911A
:1054F000FF90EF90DF90CF90BF900895FC01138252
:10550000128248EE53E060E070E044835583668386
:1055100077838EE993E091838083158614860895BE
:10552000CF93DF93EC011B821A8248EE53E060E0D8
:1055300070E04C835D836E837F838EE893E0998374
:105540008883CE018F5B9F4F0E947E2A1D861F8617
:105550001E861FAA18AE81E0888B898B1C86FE01EF
:10556000E05BFF4F11821082329611821082CC5A7A
:10557000DF4F19821882DF91CF9108950F9300E0D9
:1055800020E040E060E08AEE95E00E94CB2E0F9193
:1055900008950F9300E020E040E060E080EF95E0A8
:1055A0000E94CB2E0F9108951F920F920FB60F926B
:1055B00011242F933F938F939F93AF93BF93809129
:1055C000F7059091F805A091F905B091FA05309191
:1055D000F60523E0230F2D3720F40196A11DB11D00
:1055E00005C026E8230F0296A11DB11D2093F605E4
:1055F0008093F7059093F805A093F905B093FA0509
:105600008091FB059091FC05A091FD05B091FE05F0
:105610000196A11DB11D8093FB059093FC05A093FD
:10562000FD05B093FE05BF91AF919F918F913F9182
:105630002F910F900FBE0F901F9018952FB7F894D1
:105640006091F7057091F8058091F9059091FA0540
:105650002FBF08953FB7F8948091FB059091FC050A
:10566000A091FD05B091FE0526B5A89B05C02F3F72
:1056700019F00196A11DB11D3FBF6627782F892F14
:105680009A2F620F711D811D911D42E0660F771FD9
:10569000881F991F4A95D1F70895CF92DF92EF9214
:1056A000FF92CF93DF936B017C010E942A2BEB01C9
:1056B000C114D104E104F10489F00E94ED310E948B
:1056C0002A2B6C1B7D0B683E734090F381E0C81A57
:1056D000D108E108F108C851DC4FEACFDF91CF9142
:1056E000FF90EF90DF90CF900895789484B582601A
:1056F00084BD84B5816084BD85B5826085BD85B576
:10570000816085BDEEE6F0E0808181608083E1E824
:10571000F0E010828081826080838081816080835C
:10572000E0E8F0E0808181608083E1EBF0E080815F
:1057300084608083E0EBF0E0808181608083EAE731
:10574000F0E08081846080838081826080838081BA
:10575000816080838081806880831092C100089579
:10576000833081F028F4813099F08230A1F00895DF
:105770008730A9F08830B9F08430D1F4809180006E
:105780008F7D03C0809180008F7780938000089583
:1057900084B58F7702C084B58F7D84BD08958091D4
:1057A000B0008F7703C08091B0008F7D8093B000F0
:1057B0000895CF93DF9390E0FC01E45FF04F2491D4
:1057C000FC01E05EF04F8491882349F190E0880F5E
:1057D000991FFC01E85BF04FA591B491825C904F5A
:1057E000FC01C591D4919FB7611108C0F8948C91C8
:1057F000209582238C93888182230AC0623051F4E1
:10580000F8948C91322F309583238C938881822B4E
:10581000888304C0F8948C91822B8C939FBFDF9176
:10582000CF9108950F931F93CF93DF931F92CDB71E
:10583000DEB7282F30E0F901E850F14F8491F901EB
:10584000E45FF04F1491F901E05EF04F0491002302
:10585000C9F0882321F069830E94B02B6981E02F71
:10586000F0E0EE0FFF1FE25CF04FA591B4919FB7FF
:10587000F8948C91611103C01095812301C0812B94
:105880008C939FBF0F90DF91CF911F910F9108953F
:10589000CF93DF93282F30E0F901E850F14F849146
:1058A000F901E45FF04FD491F901E05EF04FC4914B
:1058B000CC2391F081110E94B02BEC2FF0E0EE0F81
:1058C000FF1FEC5CF04FA591B4912C912D2381E04A
:1058D00090E021F480E002C080E090E0DF91CF9181
:1058E00008950F931F93762F90E0FC01E45FF04F33
:1058F0006491FC01E05EF04FE4917111762FF0E0CD
:10590000EE0FFF1FEC5CF04F8591949189019A0195
:105910003F70472F0E94DA076115710581059105D7
:1059200031F06F5F7F4F8F4F9F4F9F7003C060E0DC
:1059300070E0CB011F910F910895FC01818D228DA4
:1059400090E0805C9F4F821B91098F739927089587
:10595000FC01918D828D981731F0828DE80FF11D39
:10596000858D90E008958FEF9FEF0895FC01918D54
:10597000828D981761F0828DDF01A80FB11D5D96B1
:105980008C91928D9F5F9F73928F90E008958FEF1F
:105990009FEF0895FC01848DDF01A80FB11DA35A6C
:1059A000BF4F2C91848D90E001968F739927848F3F
:1059B000A689B7892C93A089B1898C9180648C9336
:1059C000938D848D981306C00288F389E02D808121
:1059D0008F7D80830895CF93DF93EC01888D88239A
:1059E000C9F0EA89FB89808185FD05C0A889B9894C
:1059F0008C9186FD0FC00FB607FCF5CF808185FF27
:105A0000F2CFA889B9898C9185FFEDCFCE010E9494
:105A1000CA2CE7CFDF91CF910895CF92DF92FF920A
:105A20000F931F93CF93DF931F92CDB7DEB76C0117
:105A300081E0D60158968C9358975B969C915B9722
:105A40005C968C915C97981307C05096ED91FC91F1
:105A50005197808185FD2EC0F601038D10E00F5F08
:105A60001F4F0F731127F02EF601848DF81211C00D
:105A70000FB607FCF9CFD6015096ED91FC915197E6
:105A8000808185FFF1CFC60169830E94CA2C69819C
:105A9000EBCF838DE80FF11DE35AFF4F6083D601F2
:105AA0005B960C935B975296ED91FC915397808196
:105AB00080620CC0D6015696ED91FC915797608399
:105AC0005096ED91FC91519780818064808381E0B4
:105AD00090E00F90DF91CF911F910F91FF90DF9099
